:020000040800F2
:1000000000000120C17E0008E9620008ED620008DE
:10001000F962000805630008116300080000000091
:100020000000000000000000000000001D63000848
:100030002163000800000000256300082963000810
:10004000117F0008117F0008117F0008117F000850
:10005000117F0008117F0008117F0008117F000840
:10006000117F0008117F0008117F0008117F000830
:10007000117F0008117F0008117F0008117F000820
:10008000117F0008117F0008117F0008117F000810
:100090002D630008117F0008117F0008117F000800
:1000A000117F0008A1640008117F0008117F00087B
:1000B000117F0008117F0008117F0008117F0008E0
:1000C000117F0008117F0008117F0008117F0008D0
:1000D000117F0008117F000879650008117F000872
:1000E00021650008117F0008117F0008117F0008BA
:1000F000117F0008117F0008117F0008117F0008A0
:10010000117F0008117F0008117F0008117F00088F
:10011000117F0008117F0008117F0008117F00087F
:10012000117F0008117F0008117F0008117F00086F
:1001300001F0FF01102A2BDB10F0070F08D010F898
:10014000013B013A8B422DD010F0070F42B3F6D19C
:10015000F0B441EA012141EA014122F007047FF0B5
:1001600000070023F0E80256083C85EA010586EA0C
:10017000010685FA47F5A3FA87F586FA47F6A5FA48
:1001800087F68EB9EED1F0BC01F0FF0102F0070254
:1001900032B110F8013B013A83EA010313B1F8D1FF
:1001A0000020704701387047002D06BF35460338E0
:1001B000073815F0010F07D1013015F4807F02BF19
:1001C000013015F4C03F0130F0BC0138704700BF6A
:1001D000034613F8012B002AFBD1181A0138704787
:1001E00081F0004102E000BF83F0004330B54FEAE8
:1001F00041044FEA430594EA050F08BF90EA020F55
:100200001FBF54EA000C55EA020C7FEA645C7FEAE7
:10021000655C00F0E2804FEA5454D4EB5555B8BF0A
:100220006D420CDD2C4480EA020281EA030382EA7B
:10023000000083EA010180EA020281EA0303362D0D
:1002400088BF30BD11F0004F4FEA01314FF4801CE0
:100250004CEA113102D0404261EB410113F0004FF2
:100260004FEA03334CEA133302D0524263EB4303A9
:1002700094EA050F00F0A780A4F10104D5F1200E47
:100280000DDB02FA0EFC22FA05F2801841F10001A2
:1002900003FA0EF2801843FA05F359410EE0A5F176
:1002A00020050EF1200E012A03FA0EFC28BF4CF0A7
:1002B000020C43FA05F3C01851EBE37101F000455D
:1002C00007D54FF0000EDCF1000C7EEB00006EEB6A
:1002D0000101B1F5801F1BD3B1F5001F0CD34908F4
:1002E0005FEA30004FEA3C0C04F101044FEA44524B
:1002F00012F5800F80F09A80BCF1004F08BF5FEAD2
:10030000500C50F1000041EB045141EA050130BDB1
:100310005FEA4C0C404141EB0101013C28BFB1F5C3
:10032000801FE9D291F0000F04BF01460020B1FA0E
:1003300081F308BF2033A3F10B03B3F120020CDAE1
:100340000C3208DD02F1140CC2F10C0201FA0CF0BF
:1003500021FA02F10CE002F11402D8BFC2F1200C24
:1003600001FA02F120FA0CFCDCBF41EA0C019040DA
:10037000E41AA2BF01EB0451294330BD6FEA040423
:100380001F3C1CDA0C340EDC04F11404C4F120020E
:1003900020FA04F001FA02F340EA030021FA04F320
:1003A00045EA030130BDC4F10C04C4F1200220FA77
:1003B00002F001FA04F340EA0300294630BD21FAB5
:1003C00004F0294630BD94F0000F83F4801306BF7B
:1003D00081F480110134013D4EE77FEA645C18BF6F
:1003E0007FEA655C29D094EA050F08BF90EA020F06
:1003F00005D054EA000C04BF1946104630BD91EAFE
:10040000030F1EBF0021002030BD5FEA545C05D100
:100410004000494128BF41F0004130BD14F580043F
:100420003CBF01F5801130BD01F0004545F0FE41B3
:1004300041F470014FF0000030BD7FEA645C1ABFE8
:10044000194610467FEA655C1CBF0B46024650EA1F
:10045000013406BF52EA033591EA030F41F400214B
:1004600030BD00BF90F0000F04BF0021704730B5D1
:100470004FF4806404F132044FF000054FF00001A6
:1004800050E700BF90F0000F04BF0021704730B567
:100490004FF4806404F1320410F0004548BF40423C
:1004A0004FF000013EE700BF42004FEAE2014FEA91
:1004B00031014FEA02701FBF12F07F4393F07F4F6C
:1004C00081F06051704732F07F4208BF704793F06F
:1004D0007F4F04BF41F40021704730B54FF4607482
:1004E00001F0004521F000411CE700BF50EA010285
:1004F00008BF704730B54FF000050AE050EA01022E
:1005000008BF704730B511F0004502D5404261EB9D
:1005100041014FF4806404F132045FEA915C3FF4DE
:10052000D8AE4FF003025FEADC0C18BF03325FEA7B
:10053000DC0C18BF033202EBDC02C2F1200300FA2C
:1005400003FC20FA02F001FA03FE40EA0E0021FA51
:1005500002F11444BDE600BF70B54FF0FF0C4CF43F
:10056000E06C1CEA11541DBF1CEA135594EA0C0FF1
:1005700095EA0C0F00F0DEF82C4481EA030621EA2C
:100580004C5123EA4C5350EA013518BF52EA033567
:1005900041F4801143F4801338D0A0FB02CE4FF019
:1005A0000005E1FB02E506F00042E0FB03E54FF049
:1005B0000006E1FB03569CF0000F18BF4EF0010E41
:1005C000A4F1FF04B6F5007F64F5407404D25FEA3D
:1005D0004E0E6D4146EB060642EAC62141EA5551F0
:1005E0004FEAC52040EA5E504FEACE2EB4F1FD0C32
:1005F00088BFBCF5E06F1ED8BEF1004F08BF5FEAB0
:10060000500E50F1000041EB045170BD06F0004661
:1006100046EA010140EA020081EA0301B4EB5C040E
:10062000C2BFD4EB0C0541EA045170BD41F4801106
:100630004FF0000E013C00F3AB8014F1360FDEBF2B
:10064000002001F0004170BDC4F10004203C35DA07
:100650000C341BDC04F11404C4F1200500FA05F38A
:1006600020FA04F001FA05F240EA020001F000422B
:1006700021F0004110EBD37021FA04F642EB0601A1
:100680005EEA430E08BF20EAD37070BDC4F10C04CB
:10069000C4F1200500FA04F320FA05F001FA04F28F
:1006A00040EA020001F0004110EBD37041F100017B
:1006B0005EEA430E08BF20EAD37070BDC4F1200586
:1006C00000FA05F24EEA020E20FA04F301FA05F2EE
:1006D00043EA020321FA04F001F0004121FA04F296
:1006E00020EA020000EBD3705EEA430E08BF20EA66
:1006F000D37070BD94F0000F0FD101F000464000A0
:1007000041EB010111F4801F08BF013CF7D041EA21
:10071000060195F0000F18BF704703F00046520025
:1007200043EB030313F4801F08BF013DF7D043EAF6
:100730000603704794EA0C0F0CEA135518BF95EAAC
:100740000C0F0CD050EA410618BF52EA4306D1D133
:1007500081EA030101F000414FF0000070BD50EA52
:10076000410606BF1046194652EA430619D094EADC
:100770000C0F02D150EA013613D195EA0C0F05D1C6
:1007800052EA03361CBF104619460AD181EA03011A
:1007900001F0004141F0FE4141F470014FF00000D2
:1007A00070BD41F0FE4141F4780170BD70B54FF06D
:1007B000FF0C4CF4E06C1CEA11541DBF1CEA1355ED
:1007C00094EA0C0F95EA0C0F00F0A7F8A4EB0504CF
:1007D00081EA030E52EA03354FEA013100F08880C6
:1007E0004FEA03334FF0805545EA131343EA12638F
:1007F0004FEA022245EA111545EA10654FEA002644
:100800000EF000419D4208BF964244F1FD0404F5FC
:10081000407402D25B084FEA3202B61A65EB030558
:100820005B084FEA32024FF480104FF4002CB6EB15
:10083000020E75EB030E22BFB61A754640EA0C0095
:100840005B084FEA3202B6EB020E75EB030E22BFD5
:10085000B61A754640EA5C005B084FEA3202B6EB16
:10086000020E75EB030E22BFB61A754640EA9C00D5
:100870005B084FEA3202B6EB020E75EB030E22BFA5
:10088000B61A754640EADC0055EA060E18D04FEA63
:10089000051545EA16754FEA06164FEAC30343EA03
:1008A00052734FEAC2025FEA1C1CC0D111F4801FD0
:1008B0000BD141EA00014FF000004FF0004CB6E7C9
:1008C00011F4801F04BF01430020B4F1FD0C88BF68
:1008D000BCF5E06F3FF6AFAEB5EB030C04BFB6EB73
:1008E000020C5FEA500C50F1000041EB045170BD66
:1008F0000EF0004E4EEA113114EB5C04C2BFD4EB93
:100900000C0541EA045170BD41F480114FF0000E16
:10091000013C90E645EA060E8DE60CEA135594EA92
:100920000C0F08BF95EA0C0F3FF43BAF94EA0C0F95
:100930000AD150EA01347FF434AF95EA0C0F7FF40A
:1009400025AF104619462CE795EA0C0F06D152EA5E
:1009500003353FF4FDAE1046194622E750EA410642
:1009600018BF52EA43067FF4C5AE50EA41047FF453
:100970000DAF52EA43057FF4EBAE12E74FF0FF3CB8
:1009800006E000BF4FF0010C02E000BF4FF0010C89
:100990004DF804CD4FEA410C7FEA6C5C4FEA430C02
:1009A00018BF7FEA6C5C1BD001B050EA410C0CBF51
:1009B00052EA430C91EA030F02BF90EA020F0020B3
:1009C000704710F1000F91EA030F58BF994208BF1A
:1009D00090422CBFD8176FEAE37040F001007047D7
:1009E0004FEA410C7FEA6C5C02D150EA013C07D12E
:1009F0004FEA430C7FEA6C5CD6D152EA033CD3D079
:100A00005DF8040B704700BF8446104662468C4672
:100A10001946634600E000BF01B5FFF7B7FF0028A5
:100A200048BF10F1000F01BD4DF808EDFFF7F4FFCE
:100A30000CBF012000205DF808FB00BF4DF808ED59
:100A4000FFF7EAFF34BF012000205DF808FB00BF7C
:100A50004DF808EDFFF7E0FF94BF012000205DF89E
:100A600008FB00BF4DF808EDFFF7CEFF94BF012053
:100A700000205DF808FB00BF4DF808EDFFF7C4FF4C
:100A800034BF012000205DF808FB00BF4FEA410C95
:100A90007FEA6C5C02D150EA013C0AD14FEA430C78
:100AA0007FEA6C5C02D152EA033C02D14FF00000B5
:100AB00070474FF0010070474FEA410212F50012F3
:100AC00015D211D56FF47873B3EB625212D94FEA95
:100AD000C12343F0004343EA505311F0004F23FA7F
:100AE00002F018BF404270474FF00000704750EAD4
:100AF000013005D111F0004008BF6FF00040704791
:100B00004FF00000704700BF4A0011D212F50012EA
:100B100011D20DD56FF47873B3EB62520ED44FEA55
:100B2000C12343F0004343EA505323FA02F07047D5
:100B30004FF00000704750EA013002D14FF0FF3013
:100B400070474FF0000070474FEA4102B2F1E043B6
:100B500024BFB3F5001CDCF1FE5C0DD901F0004CA4
:100B60004FEAC0024CEA5070B2F1004F40EB8300F4
:100B700008BF20F00100704711F0804F21D113F120
:100B80003872BCBF01F00040704741F480114FEA59
:100B90005252C2F11802C2F1200C10FA0CF320FAE2
:100BA00002F018BF40F001004FEAC1234FEAD323FF
:100BB00003FA0CFC40EA0C0023FA02F34FEA430369
:100BC000CCE77FEA625307D150EA01331EBF4FF0F2
:100BD000FE4040F44000704701F0004040F0FE400D
:100BE00040F40000704700BF0348044B834202D02A
:100BF000034B03B118477047CC010020CC01002003
:100C0000000000000548064B1B1AD90F01EBA30199
:100C1000491002D0034B03B118477047CC010020A4
:100C2000CC0100200000000010B5064C237843B929
:100C3000FFF7DAFF044B13B10448AFF30080012340
:100C4000237010BDCC0100200000000074C8000813
:100C500008B5054B1BB105490548AFF30080BDE859
:100C60000840FFF7CFBF00BF00000000D001002008
:100C700074C8000808B5012006F0EAFB4FF4C06014
:100C800006F0BCFB40F2026006F0B8FB40F20360E5
:100C900006F0B4FB40F2046006F0B0FB4FF4A06035
:100CA00006F0ACFB40F2015006F0A8FB40F21970D0
:100CB00006F0A4FB40F20E7006F0A0FB40F20F70AD
:100CC00006F09CFB40F20B6006F098FB40F20960D6
:100CD00006F094FB40F20A6006F090FB40F20F60D1
:100CE00006F08CFBBDE8084040F2117006F086BBB0
:100CF00070B505F0B9FAFFF7BDFF00F02FFA02F06A
:100D000079F801F0E3FF00F03DFC01F091FF01F004
:100D1000B7FF00F0CFFA00F0BBFB03F0A9F8C5481D
:100D200008F028FDC44808F025FD01230022022117
:100D3000C24808F0B7FCC248062105F07BF8C0485D
:100D400005F062F9002800F0AC81BE4DBE4C6B6925
:100D5000D4ED027A013304BF00236B612B690133A8
:100D600008BF0023F4EE677A08BF2B61F1EE10FA9A
:100D700080F19481BFEE007AF4EE477AF1EE10FA3A
:100D800000F08C81D4ED037AF4EE677AF1EE10FA7C
:100D900080F18181BFEE007AF4EE477AF1EE10FA2D
:100DA00000F07981D4ED067AF4EE677AF1EE10FA6C
:100DB00080F16E81BFEE007AF4EE477AF1EE10FA20
:100DC00000F066816B68D4ED077A013304BF01231C
:100DD0006B60AB68013304BF0023AB60EB68013389
:100DE00008BF4FF47A73F4EE677A08BFEB60F1EE58
:100DF00010FA80F11B81BFEE007AF4EE477AF1EE33
:100E000010FA00F01381D4ED087AF4EE677AF1EE6F
:100E100010FA80F10881BFEE007AF4EE477AF1EE25
:100E200010FA00F00081D4ED097AF4EE677AF1EE61
:100E300010FA80F1F580BFEE007AF4EE477AF1EE19
:100E400010FA00F0ED80D4ED127AF4EE677AF1EE4C
:100E500010FA80F1E280BFEE007AF4EE477AF1EE0C
:100E600010FA00F0DA80D4ED0A7AF4EE677AF1EE47
:100E700010FA80F1CF80BFEE007AF4EE477AF1EEFF
:100E800010FA00F0C780D4ED117AF4EE677AF1EE33
:100E900010FA80F1BB80BFEE007AF4EE477AF1EEF3
:100EA00010FA00F0B380D4ED0E7AF4EE677AF1EE2A
:100EB00010FA80F1A780BFEE007AF4EE477AF1EEE7
:100EC00010FA00F09F80D4ED177AF4EE677AF1EE15
:100ED00010FA80F19480BFEE007AF4EE477AF1EEDA
:100EE00010FA00F08C80D4ED187AF4EE677AF1EE07
:100EF00010FA80F18180BFEE007AF4EE477AF1EECD
:100F000010FA79D0D4ED147A5048514EF4EE677A45
:100F1000D4ED137AF1EE10FA64BF4E4B2365F4EE74
:100F2000677AD4ED167AF1EE10FA64BF4A4BE364A7
:100F3000F4EE677AD4ED157AF1EE10FA64BF474B00
:100F4000A365F4EE677AF1EE10FA64BF444B636573
:100F500003F028FA00214FF44472424808F02BFCB9
:100F60006A69A36AC6F8D82064202A69C6F8D42022
:100F7000B3663D4D05F09AF96421304604F09CFCBF
:100F80003A494FF4007206F1DC0008F061FC95E884
:100F9000070002F06FFE002840F08B80344800F01C
:100FA00011FB344800F028FB00221146282006F0EF
:100FB000D3F901220021142006F0CEF900220121EC
:100FC000192006F0C9F900220221262006F0C4F9F2
:100FD000294B062101221980DA7000244FF47A701F
:100FE00005F064F9AB880134002BF7D095E80700D1
:100FF000234602F055FDF1E7204B236682E7204BA4
:10100000E36570E74FF07E53A3635CE74FF07E53D8
:10101000636448E71B4BA36235E7184BA36422E7E0
:10102000194B63620FE7194B2362FCE60023E3616F
:10103000E9E600BFA8C90008B4C90008D4C900087F
:10104000843900209C3900209C3D002084360020FB
:101050006433002000004841000048C10000824283
:10106000000082C23C2E002058330020B4390020FA
:10107000E8010020FC010020743600200000A040A0
:101080000000FA430000A841000060410000FA425D
:101090000023A36196E6094BE36083E6084BA36057
:1010A00070E60849084800F06FFB084808F062FB4A
:1010B0004BE6074808F05EFB70E700BF00002042E7
:1010C00000007A449C3D00209C390020F0C90008B3
:1010D00040CA000808B514484FF4006106F0B4F89F
:1010E0001248002106F0BAFB002211460F4806F014
:1010F0004DFD0E480022012106F048FD0B4800225C
:10110000022106F043FD00221146084806F0E0FCEB
:1011100006480022012106F0DBFCBDE80840034838
:101120000022022106F0D4BC00080140002C01403E
:10113000024A136803431360FFF7CCBF9C3E0020B4
:10114000014B1868704700BF9C3E0020024A13689C
:1011500023EA0003136070479C3E002010B55048FE
:10116000012106F085F84F48012106F081F84E482C
:101170004FF4A0530122182106F00EF84A484FF40C
:1011800000630122042106F007F84FF40043012216
:101190004648102106F000F844484FF4004106F09C
:1011A00051F843484FF420430122182105F0F4FF81
:1011B0003F484FF480430122482105F0EDFF4FF4F2
:1011C000805301223A48102105F0E6FF38484FF4D9
:1011D000805106F037F835484FF4006302221021A1
:1011E00005F0DAFF4FF4805303223048042105F064
:1011F000D3FF2E484FF4006106F026F82B484FF439
:10120000E0630322182105F0C7FF274803230422C7
:10121000002105F0C1FF264801230422002105F02A
:10122000BBFF21480C230422002105F0B5FF1F4815
:10123000F0230422002105F0AFFF1B4830230422D5
:10124000002105F0A9FF4FF4005302221648102197
:1012500005F0A2FF14484FF4005105F0F5FF1348C4
:1012600004230122182105F097FF082301220F48CB
:10127000042105F091FF01214FF4EA1005F0F8FF79
:101280000B484FF480730222482105F085FFBDE82A
:10129000104007484FF400730322182105F07CBF6B
:1012A0000010200000023000001001400008014042
:1012B000000C014070B5714888B0002105F018FDA0
:1012C0006F4A704B01920024042503934FF400727F
:1012D0004FF400634FF48076029204930DEB050205
:1012E0004FF4805321466548ADF81C60CDE90553A5
:1012F0008DF81E4005F01AFD2146604805F054FDAA
:1013000021465E4805F062FD5F4805F04BF95F48F5
:1013100005F048F94FF4803005F092F931465A480B
:10132000012205F09DF922465748022105F098F95F
:1013300031465648012205F093F9224653480221CE
:1013400005F08EF92146504805F0B2F92A464E487C
:10135000012105F0B7F901224B48022105F0B2F94D
:1013600021464A4805F0A4F92A464848012105F0DB
:10137000A9F946480122022105F0A4F92346214695
:101380004148062205F0BCF923463F480F220121BF
:1013900005F0B6F923463C480722022105F0B0F9D2
:1013A000234639480822032105F0AAF9234621469D
:1013B0003648052205F0A4F9234634480E220121BF
:1013C00005F09EF923462A463048022105F098F997
:1013D00023462E480C22032105F092F92A484FF4A7
:1013E0006022012105F038FA01221146264805F055
:1013F00017FA26484FF46022012105F02DFA012248
:101400001146224805F00CFA234621461E480B22BD
:1014100005F0CEF9234621461C480A2205F0C8F9FA
:1014200019484FF4E042022105F016FA164801224D
:10143000022105F0F5F915484FF4E042022105F0CC
:101440000BFA01220221114805F0EAF90E4805F0D5
:10145000F1F80E4805F0EEF80B4805F0D1F80B480E
:1014600005F0CEF8012004F021FF074805F0D0F880
:10147000064805F0CDF808B070BD00BF000002407E
:101480004C240140A43E00200024014000280140DB
:1014900070B5384888B0042105F02AFC3649374A2F
:1014A00001914FF48063012400254FF4807603926C
:1014B000049301AA4FF480532E4806930421ADF8FB
:1014C0001C6002968DF81E50059405F02FFC2948EB
:1014D000042105F069FC0421264805F077FC284822
:1014E00005F060F822463146254805F0B9F82A464D
:1014F0002348022105F0B4F82946214805F0D8F820
:10150000224621461E4805F0DDF822461C480221ED
:1015100005F0D8F82B46294619480D2205F0F0F8B9
:10152000214617484FF4602205F096F922462146DD
:10153000134805F075F92B46294611480D2205F090
:1015400037F90F484FF4E042022105F085F92246B1
:1015500002210B4805F064F9094805F06BF80848CA
:1015600005F04EF8204604F0A1FE054805F050F8BD
:1015700008B070BD000402404C3C0140A03E002079
:10158000003C014000B585B001A9002005F0BAF982
:101590000A4805F0A5F90A484FF48072CDE9010226
:1015A0004FF4802301A90548039305F0DDF90348B2
:1015B000022105F099FB05B000BD00BF00640040AA
:1015C0000000090300B5014687B0032005F09AF931
:1015D00001A9012005F096F900234FF48031012282
:1015E00001A8CDE90133CDE903318DF8142005F0D0
:1015F0004DFA07B000BD00BF00B583B001460190B1
:10160000022005F07FF9054A0199906808600023DF
:1016100006228A724B600B8103B000BD9C3900200A
:10162000F0B52DED028B1E4D83B00446F0EE608ABE
:10163000B0EE418AD5ED130A95ED141A01911020F0
:1016400003F0B0FF95ED161AD5ED150A0746B0EE7A
:10165000680A0C2003F0A6FFD5ED030A95ED0E7A7B
:10166000D5ED117A60EEC70A064660EEA70AB0EE25
:10167000480AB1EE601A0C2003F094FF031201999E
:10168000E17203EB06137ABA3111E3730023A173FD
:10169000A28120746374A37403B0BDEC028BF0BD0F
:1016A0009C3D002084B0F0B52DED028B83B00AACD8
:1016B00084E80F009DF836309DF835709DF839208C
:1016C0009DF83760BDF833002D4C9DF838E09DF84B
:1016D0003A10D4ED140A94ED130A0F9D9FED298A58
:1016E0004FEA032C1B0943EA07170CF470631E43EF
:1016F000130240BA120903F470630B4342EA0E125C
:1017000080B210210092019303F060FF85ED000A82
:10171000D4ED160A94ED150A38460C2103F056FF55
:1017200085ED010AD4ED170A3046B0EE480A0C21C7
:1017300003F04CFF85ED020AD4ED180A00980C2145
:10174000B0EE480A03F042FF85ED030A94ED030A68
:1017500094ED0E7AD4ED117A019820EE470A0C210F
:1017600020EE270AF1EE400A03F030FF85ED040A6F
:1017700003B0BDEC028BBDE8F04004B0704700BF81
:101780009C3D00200000000070B54FF480620C46C4
:101790000546002108F00FF801264FF48072002161
:1017A000204608F008F86E60002300224FF47A7695
:1017B000C5E904222A60AA60EE60154ADFED156AC9
:1017C0009FED157ADFED157AA3614FF07E51E3614D
:1017D0006363E3632364124BDFF858E0DFF858C01B
:1017E0001048A1636164A2640F49236522660F4B10
:1017F0000F4AC4ED026A84ED037AC4ED087AC4F896
:1018000054E0C4F858C0E164E0656262A36270BD50
:101810000000A04000007A44000020420000FA428C
:10182000000048410000FA43000048C10000A84100
:1018300000006041000082C20000824270B50E4686
:101840001E49A0F1040E00F57F754FF0FF305EF8E1
:10185000044F4FF0000C24FA0CF3DBB2584008227E
:1018600040F300030B40013A83EA5000F8D10CF139
:10187000080CBCF1200FEED17545E8D10F49B646F2
:1018800006F58075DEF800404FF0000C24FA0CF3EA
:10189000DBB25840082240F300030B40013A83EAD0
:1018A0005000F8D10CF1080CBCF1200FEED10EF174
:1018B000040EAE45E6D1C04370BD00BF2083B8ED35
:1018C0000368012B00F22C8243687F2B00F22882F0
:1018D00083687F2B00F22482C368DE4A013B934277
:1018E00000F21E820369DFF8A4C34FF6FF721344AF
:1018F000634500F2158243691A44624500F2108282
:10190000D1ED027A9FEDD47AF0EEE76AF4EE476A01
:10191000F1EE10FA00F20482DFEDDD6AF4EEE67A11
:10192000F1EE10FAC0F2FC81DFEDCC6AF4EEE67A5B
:10193000F1EE10FA00F2F481D1ED037AF0EEE76AED
:10194000F4EE476AF1EE10FA00F2EA819FEDC47AF4
:10195000F4EEC77AF1EE10FAC0F2E2819FEDC17A9F
:10196000F4EEC77AF1EE10FA00F2DA81D1ED064A10
:10197000DFEDB96AB0EEE47AB4EE667AF1EE10FA11
:1019800000F2CE81F5EEC04AF1EE10FAC0F2C88145
:101990009FEDB57AF4EEC74AF1EE10FA00F2C0817D
:1019A00091ED077AB0EEC76AB4EE666AF1EE10FA0E
:1019B00000F2B681B5EEC07AF1EE10FAC0F2B08155
:1019C0009FEDB36AB4EEC67AF1EE10FA00F2A88188
:1019D00091ED087AB0EEC76AB4EE666AF1EE10FADD
:1019E00000F29E81F7EE006AB4EEE67AF1EE10FAAC
:1019F000C0F29681DFED9D6AB4EEE67AF1EE10FA60
:101A000000F28E8191ED095ADFED936AB0EEC57A4E
:101A1000B4EE667AF1EE10FA00F282819FED907AD0
:101A2000B4EEC75AF1EE10FAC0F27A819FED907AC7
:101A3000B4EEC75AF1EE10FA00F2728191ED0A7A13
:101A4000B0EEC76AB4EE666AF1EE10FA00F2688191
:101A5000B7EE006AB4EEC67AF1EE10FAC0F2608119
:101A60009FED846AB4EEC67AF1EE10FA00F2588166
:101A700091ED0D7AB0EEC76AB4EE666AF1EE10FA37
:101A800000F24E81B5EEC07AF1EE10FAC0F2488154
:101A9000DFED7F6AB4EEE67AF1EE10FA00F24081F3
:101AA000D1ED0E6A9FED6C7AB0EEE66AB4EE476A4D
:101AB000F1EE10FA00F234819FED6F6AF4EEC66A1F
:101AC000F1EE10FAC0F22C81B2EE046AF4EEC66AAE
:101AD000F1EE10FA00F22481D1ED0F6AB0EEE66A61
:101AE000B4EE476AF1EE10FA00F21A81F5EEC06A20
:101AF000F1EE10FAC0F214819FED606AF4EEC66A4E
:101B0000F1EE10FA00F20C81D1ED106AB0EEE66A47
:101B1000B4EE476AF1EE10FA00F20281F5EEC06A07
:101B2000F1EE10FAC0F2FC809FED556AF4EEC66A41
:101B3000F1EE10FA00F2F480D1ED116AB0EEE66A2F
:101B4000B4EE476AF1EE10FA00F2EA809FED4D7AAA
:101B5000F4EEC76AF1EE10FAC0F2E2809FED477A28
:101B6000F4EEC76AF1EE10FA00F2DA80D1ED126AF3
:101B70009FED397AB0EEE66AB4EE476AF1EE10FAFC
:101B800000F2CE809FED366AF4EEC66AF1EE10FAEE
:101B9000C0F2C680B3EE046AF4EEC66AF1EE10FA43
:101BA00000F2BE80D1ED135AF0EEE56AF4EE476A1A
:101BB000F1EE10FA00F2B480DFED336AF4EEE65A8B
:101BC000F1EE10FAC0F2AC80F5EEC05AF1EE10FA68
:101BD00000F2A68091ED146AF0EEC66AF4EE476A50
:101BE000F1EE10FA00F29C80B5EEC06AF1EE10FA48
:101BF000C0F296809FED214AB4EEC46AF1EE10FA6D
:101C000000F28E80D1ED156AB0EE473AB0EEE67A7A
:101C1000B4EE437AF1EE10FA00F282809FED1A7A68
:101C2000F4EEC76AF1EE10FA7ADBF5EEC06AF1EE77
:101C300010FA75D891ED167AF0EEC73AF4EE433A01
:101C4000F1EE10FA6CD8B5EEC07AF1EE10FA67DB5F
:101C500020E000BF9F860100FFFF7F7F0000FA4465
:101C6000CDCCCC3D00007042000004420000164381
:101C7000000020420000804217B7D13800007A44AB
:101C80000050C3476F12833A00007AC4FEFF010080
:101C90000000C842B4EEC47AF1EE10FA40D8D1ED9B
:101CA000173AF0EEE32AF4EE432AF1EE10FA37D8B1
:101CB000F5EEC03AF1EE10FA32DBF4EEC43AF1EE92
:101CC00010FA2DD891ED184AF0EE433AB0EEC43A2E
:101CD000B4EE633AF1EE10FA22D8B5EEC04AF1EE56
:101CE00010FA1DDB5FED163AB4EEE34AF1EE10FA9E
:101CF00016D8F4EEE47AF1EE10FA11DBF4EEC57AC0
:101D0000F1EE10FA0CDBF4EEC65AF1EE10FA07D53C
:101D1000F4EEC76AF1EE10FA4CBF012000207047C4
:101D20000020704730B5DFF83CC083B06045069DA9
:101D3000079C02D0002003B030BD0229FAD1B2F5D1
:101D4000A07FF7D1214628460193FFF777FD019B3D
:101D50009842EFD12146284603B0BDE83040FFF756
:101D6000AFBD00BF4154484E401A0028D4BF0020E8
:101D70000120704740B12AB15B1A002BD4BF00206C
:101D8000012070471046704782420CBF4FF0FF3071
:101D90000120704711B10AB1082B01D00020704713
:101DA000009BC01AB3F5006FB0FA80F04FEA5010F4
:101DB00028BF0020704700BF431E00F1060C13F837
:101DC000012FFF2A09D16345F9D1C279131DDBB276
:101DD000022B02D80A70012070470020704700BF14
:101DE00038B5C0F30D0444F4804440F44045204627
:101DF0000AF0FAFC002814BF2846204638BD00BF70
:101E0000084310B5C0F30D0420460AF0EDFC44EA87
:101E1000C03080B210BD00BF10B504460AF0E4FC2B
:101E200028B914F4804F18BF6FF0010010BD4FF0B7
:101E3000FF3010BDC0F30D00C1F30D01401AB0F525
:101E4000005F03DDA0F5804000B2704710F5005F31
:101E5000B8BF00F5804000B2704700BF0378A52BE3
:101E600029D143785A2B26D18378012B23D110B561
:101E700083790C46CBB9DFF84CE0421E811D00236C
:101E800012F801CF83EA0C0391421EF80330F7D118
:101E9000C2799A4212D1C37823700379637043796F
:101EA000A3708379E370002010BDC378072BE2D0C4
:101EB0004FF0FF3010BD4FF0FF3070476FF0010062
:101EC00010BD00BF90C8000890F800C06CF07F0CF7
:101ED00083F800C090F801C083F801C08078987042
:101EE0004FEA122CD970100C110E1A7183F805C02C
:101EF0009871D971704700BF164B1B7803B97047B2
:101F000030B5154C237883B0DBB2CDE900310546FE
:101F100004F0E4F9009B114A019903EB430C4FEAEA
:101F20008C0E013342F80E0002EB8C0203F01F030B
:101F30000B4815719160237003781F2B04D8037828
:101F40000133037003B030BD064A136801331360D8
:101F500003B030BDBE3E0020BD3E0020C03E00208C
:101F6000BC3E0020B83E00202DE9F0418A4C0168BB
:101F7000236840F201720133914288B0236006D198
:101F8000037A23B9437A13B9827A082A05D0A36861
:101F90000133A36008B0BDE8F08102A90B300093C3
:101FA000FFF75CFF18B1E3680133E360F2E704F088
:101FB00095F97A49009B0A68821A132A40F2238114
:101FC000626808609DF8081001320729626000F01D
:101FD0001E81032900F21B86DFE801F08D831902C0
:101FE0009DF80A100F2900F28B80DFE811F0CA007B
:101FF000C800C600F300F100EF00ED00EB0089001F
:10200000E700D100CD00BF00BB008900C3009DF8F0
:102010000A20632A74D8DFE812F0F405ED05E6051E
:102020008E058905850580057300730079055905BE
:1020300055054E0547053D05350530052B05540270
:102040004B027300730073007300F000E200DF00C6
:102050006D02E200F000DF00730073007300730094
:1020600073007300730073007300730073007300D8
:1020700073007300730073007300730073007300C8
:102080007300730073007300730079027302F00031
:10209000AF02A902A2029B0294028D0286027F0275
:1020A0002003190312030B030403FD02F602EF02DF
:1020B000E802E102DA02D302CC02C502BE02B50296
:1020C000D304B8048D0472043904300421040704D5
:1020D000E103C70385036B0354034A03410327034A
:1020E0005D029DF80A20042A00F29485DFE802F0E0
:1020F0003633312F38009DF80A20002A00F0C181C4
:102100000123216901310022216103A90220CDE9C7
:10211000003204F0F7FB00230493ADF8143040F2D2
:10212000817303930823DDE9001202A88DF81630AD
:102130000DF11703FFF7C8FE194803A904F020FDAD
:10214000032800F07981A3690133A36122E7154ACE
:10215000DBE70F22D9E74FF48032D6E7124AD4E703
:10216000124AD2E7124AD2F80823CEE7104AD2F830
:102170000423CAE70F4A1268C7E7A268C5E7626886
:10218000C3E722680B46C0E7094AD2F80023BCE740
:10219000094AD2F8FC22B8E740400020B43E0020B3
:1021A0000064004001D1E0A74154484E01E803001B
:1021B000643300206040002084360020A04AD2F81A
:1021C000FC22A2E7E269A0E7A2699EE762699CE7B8
:1021D00022699AE7E26898E740F2154295E7994A42
:1021E0009FED997AD2ED037A9849994AB4EEE77A4D
:1021F000F1EE10FAB8BF0A4687E7009301F08AF9BA
:10220000009B024681E7636901336361C2E69DF882
:102210000A20013A0B2A00F2FA84DFE812F00601E4
:102220009E00E900A600F1008F00790061004C00DB
:10223000370021000C0087489DF80B2001788A4266
:10224000BFF45EAF8449097800782031091A0A4446
:10225000824902F01F020C2000FB0212926854E730
:102260007C489DF80B2001788A42BFF449AF7A4937
:10227000097800782031091A0A44784902F01F02CF
:102280000C2000FB02121279D2B23EE771489DF891
:102290000B2001788A42BFF433AF6F490978007888
:1022A0002031091A0A4402F01F020C206B4900FB7E
:1022B00002F28A5829E76849664800220A7068498C
:1022C00002700A60674A1278007842EA00220868C1
:1022D000B0F5803F36BF0968634909040A4314E733
:1022E000604A4FF0000C82F800C01178002940F0DD
:1022F000CA8058485A491278007842EA0022086891
:10230000B0F5803F36BF0968574909040A43FCE627
:10231000544A5048012111701178002940F0BD80C5
:102320004F491278007842EA00220868B0F5803FF1
:1023300036BF09684C4909040A43E6E64B4802786F
:1023400041780A43D2B2002A00F098801B21009302
:1023500003F03AF8009B0122D7E6444800936D2130
:1023600003F032F8009B0222CFE69DF80B30013BD0
:10237000DBB2132B00F282803C4A1378527813436D
:1023800013F0FF037AD10093FEF7DAFE002875D12F
:10239000374A9288002A71D1294A92F8DD22002A10
:1023A0006CD0344A92F8F522002A67D000F18040C0
:1023B0004FF4805100F5843004F04EFF00285DD0CA
:1023C0009DF80B309FED2C7A1E4A284807EE903A74
:1023D000F8EE677A632167EE877AC2ED127A02F02F
:1023E000F3FF9DF80B20009B642101FB02F28CE6B9
:1023F0001E480093652102F0E7FF009B032284E65C
:102400001A490A7849780A43D2B2002A36D1009391
:10241000FEF796FE90BB0A4A92F8DD2272B313488B
:102420007A2102F0D1FF009B95E7104800931B2111
:1024300002F0CAFF009B8EE7E3690133E361A9E57F
:10244000643300209C3D002000002042A000800258
:10245000A000C002BC3E0020BD3E0020C03E0020C7
:10246000B83E0020BE3E00200000FFFF7436002072
:102470005833002084360020CDCCCC3D02230022EE
:1024800043E6B54A41E6B549B54881F800C0B549CB
:1024900080F800C0C1F800C02DE7B249AF4D4FF041
:1024A000000C85F800C080F800C0C1F800C038E713
:1024B000AD49D1F83C2CD1F82C1C92B242EA014231
:1024C00023E6A949D1F8342CD1F8381C92B242EA5B
:1024D00001421AE6A54AA2491278097842EA012285
:1024E000A0490868B0F5803F36BF0968A0490904D3
:1024F0000A430AE6009301F0A9FA009B024604E6AB
:10250000009301F001F8009B0246FEE5009300F005
:10251000F5FF009B0246F8E50520009301F00CF85A
:10252000009B0246F1E50420009301F005F8009BB2
:102530000246EAE50320009300F0FEFF009B0246FE
:10254000E3E50220009300F0F7FF009B0246DCE584
:102550000120009300F0F0FF009B0246D5E500202B
:10256000009300F0E9FF009B0246CEE5009300F0E7
:10257000DDFF009B0246C8E5009300F0D1FF009B01
:102580000246C2E57B49CA7848780978120442EAD3
:1025900000220A43B9E50E20009300F0D7FF009B0C
:1025A0000246B2E50D20009300F0D0FF009B0246EA
:1025B000ABE50C20009300F0C9FF009B0246A4E5A8
:1025C0000B20009300F0C2FF009B02469DE50A200D
:1025D000009300F0BBFF009B024696E509200093A4
:1025E00000F0B4FF009B02468FE50820009300F046
:1025F000ADFF009B024688E50720009300F0A6FF90
:10260000009B024681E50620009300F09FFF009B9F
:1026100002467AE50520009300F098FF009B0246F1
:1026200073E50420009300F091FF009B02466CE5E7
:102630000320009300F08AFF009B024665E502201C
:10264000009300F083FF009B02465EE501200093AB
:1026500000F07CFF009B024657E50020009300F04D
:1026600075FF009B024650E5434A9FED447AD2ED48
:10267000127AF4EEC77AF1EE10FA15DA9FED407A8D
:10268000F4EEC77AF1EE10FA0BD99FED3E7A67EEC1
:10269000877AFDEEE77A17EE902A36E53A4AD26954
:1026A00033E54FF0004230E56FF000422DE536494A
:1026B000CA8C087891F82010120442EA00220A43DA
:1026C00023E531492B4A107892F801C00A7C1204A4
:1026D00042EA0C22024391F8210042EA006291F89A
:1026E000220091F8241042EA406242EA81620CE53D
:1026F000264A9FED227AD2ED377AF4EEC77AF1EED0
:1027000010FA48DA9FED1E7AF4EEC77AF1EE10FA6D
:102710003ED99FED1C7A67EE877AFDEEE77A17EED9
:10272000902AF2E4194A9FED157AD2ED367AF4EE4A
:10273000C77AF1EE10FA34DA9FED117AF4EEC77A27
:10274000F1EE10FA2AD99FED0F7A67EE877AFDEE47
:10275000E77A17EE902AD8E44154484EBD3E002057
:10276000BC3E0020B83E002000200140BE3E0020BC
:102770000000FFFF743600209C3D00206C12034ACD
:102780006C1203CA00007A44100200208436002034
:102790004FF00042B9E46FF00042B6E44FF000425F
:1027A000B3E46FF00042B0E4CA4A9FEDCB7AD2EDB9
:1027B000357AF4EEC77AF1EE10FA2CDA9FEDC77A8B
:1027C000F4EEC77AF1EE10FA22D99FEDC57A67EEE2
:1027D000877AFDEEE77A17EE902A96E4BD4A9FEDE0
:1027E000BE7AD2ED347AF4EEC77AF1EE10FA18DA46
:1027F0009FEDBA7AF4EEC77AF1EE10FA0ED99FED9A
:10280000B87A67EE877AFDEEE77A17EE902A7CE4D5
:102810004FF0004279E46FF0004276E44FF000425E
:1028200073E46FF0004270E4AA4A9FEDAB7AD2EDF8
:10283000337AF4EEC77AF1EE10FA1BDA9FEDA77A3D
:10284000F4EEC77AF1EE10FA11D99FEDA57A67EE92
:10285000877AFDEEE77A17EE902A56E4A149D1F87F
:102860003C2CD1F82C1C92B242EA01424DE44FF0CC
:1028700000424AE46FF0004247E49A49D1F8342C10
:10288000D1F8381C92B242EA01423EE491499FEDF0
:10289000967AD1ED057AF4EEC77AF1EE10FA80F26D
:1028A000E4809FED927AF4EEC77AF1EE10FA40F2EE
:1028B000DA809FED8B7A67EE877AFDEEE77A17EE86
:1028C000902AD1ED067A9FED887AF4EEC77AF1EE80
:1028D00010FA92B280F2C4809FED847AF4EEC77A47
:1028E000F1EE10FA40F2BA809FED7D7A67EE877ABA
:1028F000FDEEE77A17EE901A42EA014205E4754AC6
:102900009FED757AD2ED117AF4EEC77AF1EE10FAF6
:102910002FDA9FED727AF4EEC77AF1EE10FA24D92D
:102920009FED6F7A67EE877AFDEEE77A17EE902AD1
:10293000FFF7EBBB674A9FED687AD2ED2A7AF4EE97
:10294000C77AF1EE10FA1CDA9FED647AF4EEC77ADA
:10295000F1EE10FA11D99FED627A67EE877AFDEEFB
:10296000E77A17EE902AFFF7D0BB4FF00042FFF74F
:10297000CCBB6FF00042FFF7C8BB4FF00042FFF73F
:10298000C4BB6FF00042FFF7C0BB594A9FED527ABB
:10299000D2ED037AF4EEC77AF1EE10FA5ADA9FED2F
:1029A0004F7AF4EEC77AF1EE10FA4FD99FED4C7AD8
:1029B00067EE877AFDEEE77A17EE902AFFF7A5BB60
:1029C000009301F043F84B4A9288151E414A92F851
:1029D000F52218BF0125161E474A92F8DD228046CF
:1029E00018BF01264FF40061171E444818BF012785
:1029F00004F038FC011E3B48D0F8442CC2F3C03C24
:102A0000D0F8202CD0F8203CD0F820EC4FEA8212ED
:102A100002F040020EF4807E42EA0E0242EA4502D3
:102A200042EA860242EAC702C3F3001042EA4C12AD
:102A300042EAC01218BF0121B8F1000F18BF42F0DE
:102A40000102009B42EA0112FFF75FBB4FF0004218
:102A5000FFF75BBB6FF00042FFF757BB28494BE71E
:102A600047F6FF7148E7264A2BE747F6FF7228E74B
:102A7000184AD2F8B420FFF748BB224AD2F81824EB
:102A8000FFF743BB1C4991F8DE2252B1D1F8E62290
:102A9000FFF73BBB1C4AD188128942EA0142FFF78B
:102AA00034BB0323FFF731BB174A5188928842EAAF
:102AB0000142FFF72ABB144A5189128842EA0142B7
:102AC000FFF723BB104AD268FFF71FBB014A128AE7
:102AD000FFF71BBB843600206C12034A6C1203CA3A
:102AE00000007A4400200140681103426F1203C2C3
:102AF0009C3D002058330020643300200008014032
:102B00000080FFFF00600040A43E002043490A8986
:102B1000C96842EA0142FFF7F8BA414AD2F8802078
:102B2000FFF7F3BA3E4A926FFFF7EFBA3C4AD2F88A
:102B3000E022FFF7EABA4FF480513A48009304F0DC
:102B40008BFB4FF400610646364804F08BFB031EF6
:102B500035483649D0F8442CC2F3C035D1F8182492
:102B6000D1F818E4D1F81814C1F3800CD0F8201C67
:102B70004FEA42124FEA012101F4807102F0200273
:102B800042EA0102264991F8DD1218BF01230039FB
:102B900018BF012142EA430242EAC1021F49009BD9
:102BA00091F8F512003918BF012142EA0112CEF363
:102BB000400E42EA850242EA8E1242EACC12D0F876
:102BC00020CCD0F8201CCCF3001042EA4022C1F304
:102BD000002142EA8122002E08BF42F0010242F0A9
:102BE0000042FFF792BA0093FEF7AAFA009B024652
:102BF000FFF78BBA009303F071FB009B0246FFF7CF
:102C000084BA06491346D1F8F822FFF77EBA0423A6
:102C1000FFF777BA0B46FFF774BA00BF843600207F
:102C200064330020000801400020014000600040A3
:102C300000B5114889B004F0B7FC9FED0D7B4FF44F
:102C400000724FF4827100234FF40060CDE900134D
:102C5000CDE9020218236946074806938DED047BEF
:102C600004F0D0FC044804F0E7FC09B000BD00BF4C
:102C700000000000010000000038004000000000DB
:102C800000B5114889B004F08FFC9FED0D7B4FF427
:102C900000724FF4827100234FF40060CDE90013FD
:102CA000CDE9020210236946074806938DED047BA7
:102CB00004F0A8FC044804F0BFFC09B000BD00BF4C
:102CC0000000000001000000003C004070B54848D2
:102CD0008CB004F0C3FC08A8002404F035FD0125E5
:102CE0004FF400134FF4FA6208A9414808930A927E
:102CF00009948DF82C5004F02FFD3D4804F086FF18
:102D000021463B4804F06CFF2946394804F070FF27
:102D1000374804F079FD01A804F0AAFD022601AAB3
:102D2000214633480394CDE9014604F0A7FD21462E
:102D30002F48602204F0A4FE21462D48042204F00E
:102D4000FDFE21462A48082204F0D0FE22462146F4
:102D5000274804F0BDFE01AA2946254804F08EFD4F
:102D600029462348602204F08BFE2946204804228D
:102D700004F0E4FE29461E48082204F0B7FE22466D
:102D800029461B4804F0A4FE01AA3146184804F065
:102D900075FD31461648602204F072FE3146144833
:102DA000042204F0CBFE31461148082204F09EFEB6
:102DB000224631460E4804F08BFE04A804F032FD92
:102DC0004FF0005304A90A480694CDE90443ADF836
:102DD0001C4004F02DFD2146054804F03FFD294626
:102DE000034804F017FD024804F008FD0CB070BD64
:102DF000002C014008B50D4804F00EFF0B484FF4BD
:102E0000E13104F055FF0948042104F091FF082145
:102E1000064804F087FF054804F07EFFBDE808403F
:102E2000024840F2053104F099BF00BF0044004061
:102E300038B50546E9B20C4804F080FF41F20104C0
:102E400001E0013C07D00848072104F07FFF00287B
:102E5000F7D0284638BD054A13684FF0FF350133D7
:102E60001360284638BD00BF004400406040002089
:102E7000F0B52DED028B8E4D1446002287B02A60EE
:102E80000E46217C074600295ED0E168DFED896AA5
:102E90005B1A07EE903AF8EEE77AB7EE007A67EE43
:102EA000A67AF4EEC77AF1EE10FAC4ED057A55D49D
:102EB000F0EE006AF4EEE67AF1EE10FA6AD43046EB
:102EC00001F0F8FAD7ED037A94ED067ADFED7A6A2D
:102ED00037EEC78AB0EEC88AB4EE668AF1EE10FA11
:102EE0000DD8DFED766AB4EEE68AF1EE10FA06D47C
:102EF000DFED736AB4EEE68AF1EE10FA62DD304679
:102F000001F0D8FADFED6F7A68EE277A40F201120D
:102F1000FDEEE77A00230120A4F82120237017EEAC
:102F2000901A84F824000A20FEF7E6FF18EE100A33
:102F3000FDF7BAFA024664480B4607B0BDEC028BB7
:102F4000BDE8F04006F0AEBB6048029306F012FC0C
:102F50000122029B22740022E360626104F50052A8
:102F600002F6884002F5496200235949A3600360D4
:102F700013608A6CC6F8A42004F53051C6F8A83056
:102F80002C31304601F008FBFB68A36107B0BDECB3
:102F9000028BF0BD77EEC77A9FED4E7A04F532537F
:102FA00067EE877A04F5305108332C313046C4ED92
:102FB000027AC3ED007A07B0BDEC028BBDE8F040A9
:102FC00001F0EABA9FED430ACDED057A80EE080ADA
:102FD0008DED027A09F0A2FB431E142B9DED027ABF
:102FE000DDED057A07464FF0000242D8B4EEE77AED
:102FF000F1EE10FA2070CDED027A31D5364884F822
:10300000202006F0B7FBDDED027A21783348CDEDC4
:10301000027A06F047FBA069FDF746FA02460B4626
:103020000298CDE90223FDF73FFADDE90223CDE95D
:1030300000012B4806F036FB94F820302B602378F3
:10304000234907EE903AF8EE677A00220123C1ED9A
:103050000A7A227484F8213007B0BDEC028BF0BDEF
:103060000123204884F8203006F084FBDDED027A4D
:10307000CBE7304601F01EFA40F201130022012195
:10308000A4F82130227084F824100A203946FEF773
:1030900033FF18EE100AFDF707FA024612480B46F6
:1030A000394607B0BDEC028BBDE8F04006F0FABA35
:1030B0009C390020D1CB0B38FFFF7F7FCDCC4C3E1D
:1030C000E4CB164100007A44ACCA000888CA000864
:1030D0009C3D0020DB0FC94028CB000858CB0008DE
:1030E0006CCB000840CB0008E8CA00082DE9F0418D
:1030F000C24E96ED0A7A2DED028BF3EE057AB4EE10
:10310000E77AF1EE10FA84B000F312811D46137CC9
:1031100014460F468046002B00F0D880D3689FED00
:10312000B87AEB1A07EE903AF8EEE77AB7EE006A53
:1031300067EE877AF4EEC67AF1EE10FAC2ED057A00
:1031400000F1D2809FEDAF8A96ED0A7A67EE085AB9
:10315000C5EE886A76EE866AF4EEE67AF1EE10FA4B
:1031600078D4DFEDA96A27EE267AC7EE086A36EE34
:10317000867AF4EEC77AF1EE10FA00F1E2800846A2
:1031800001F098F9D6ED0A7ABDEEE77A17EE103A1B
:10319000002B40F3928104EB432303F1280204F156
:1031A0002801002351F8040F91420344FAD107EE9D
:1031B000103AB8EEC77A9FED956AE56A9FED938A5B
:1031C000DFED938A27EE866AD5F58035C7EE066A6D
:1031D00048BF05F2FF156D120027FDEEE66AC4ED4B
:1031E000076A07EE107AF8EEC75A67EE886A65EE4E
:1031F000A75A6FF03F0265EE885A002165EEA85A83
:10320000B7EE005A13E036EEC56AB4EEC76AF1EEC7
:1032100010FA03D537EE667AFDEEC77A17EE903ACC
:1032200004EB83030132DB6A402A194433D007EEF2
:10323000902AF8EEE77A77EEA57AFDEEE77A17EEB8
:10324000903A002BB8EEE77ADDDA37EE267AFDEE1B
:10325000C77AE3E7D2ED027A9FED6E7A77EE877A4E
:1032600002F53253084602F53051C2ED027A2C3194
:10327000C3ED027A01F090F994ED057AD4ED0A7A63
:10328000B4EEE77AF1EE10FA00F3D08004B0BDECB2
:10329000028BBDE8F0810029B8BF7F317F2D4FEA56
:1032A000E1122946C8BFA5F18001E06901F68A2331
:1032B00004EB8303121A5A605748013706F0F2F9FB
:1032C000802F2BD0D6ED0A7A01358AE75348039335
:1032D00006F050FA039BE384002363610123237407
:1032E0004FF07E53E560A36204F532530022A260E2
:1032F0009A60B06CC7F8A40004F53051C7F8A82054
:103300002C31384601F048F9D8F80C206369A261E5
:10331000A36204B0BDEC028BBDE8F0810022012362
:10332000227484F8223004B0BDEC028BBDE8F08139
:103330003B48152104B0BDEC028BBDE8F04106F01E
:10334000B1B9D2ED027A9FED337A77EEC77A0846AB
:10335000C2ED027AB36CC1F8A4300023C1F8A830E2
:1033600002F5325302F53051C3ED027A2C3101F0EF
:1033700013F994ED057AD4ED0A7AB4EEE77AF1EE1A
:1033800010FA83DDE78C002F80D096ED0A7AD4ED19
:10339000027ADFED256AD8F87430A06827EE087A43
:1033A00067EEA66AC6EE877AFDEEE77A17EE902AF8
:1033B0009B1ADD1305F480351D4404EB8703CDED26
:1033C000037AD96A0D4405EBD5756D10DD62FDF702
:1033D0006BF82B46CDE90001039A1248394606F0F6
:1033E00061F9D4ED0A7A9FED0A7AE38C77EE877A59
:1033F000013BE384C4ED0A7A48E700BF9C3D00200E
:10340000D1CB0B38DB0FC940DB0F49410000004333
:103410000000003C5F975B39F0CB0008B8CB000898
:1034200088CB0008E0CB00080000804794ED026ADA
:1034300096ED0A7A5FED046AD8F87430E78C66EE90
:10344000266A27EE087A16EE100AC6EE877AFDEE97
:10345000E77A17EE902A9B1ADD1305F480351D4498
:1034600004EB8703CDED037ADD62FDF71DF82B46F3
:10347000CDE90001039A1248394606F013F99FED91
:10348000116A94ED0A7ADFED106AE38C37EE067A62
:10349000FFEE007A84ED0A7A96ED0A6A07EE103A9A
:1034A000E6EE267AB8EEC77AB4EE677AF1EE10FA55
:1034B0003FF4ECAE0133E384E8E69FED047A7AE66C
:1034C000E0CB00080000003C0000004300000000CA
:1034D000024B1878003818BF01207047C440002004
:1034E000044B1B7823B1044A136843F001031360B3
:1034F000704700BFC4400020C0400020014B186846
:10350000704700BFC0400020014B1868704700BFE3
:10351000BC400020014B1868704700BFB840002035
:10352000014B1868704700BFB4400020014B186879
:10353000704700BFB040002005289DBF024B33F804
:10354000100080B200207047A44000200E289ABFCF
:10355000024B53F820000020704700BF6840002055
:10356000024B1878003818BF0120704764400020D3
:10357000014B01229A6370476840002070B50446F1
:103580004FF6FF7384B03748218063804FF4805139
:10359000164603F059FE00230393039B3F2B06D8E6
:1035A00000BF039B01330393039B3F2BF8D940F6E5
:1035B000010501E0013D40D02B48022104F048F80C
:1035C0000028F7D02188284804F03CF840F601058F
:1035D00001E0013D40D02448012104F039F80028E1
:1035E000F7D0214804F030F840F60105608001E092
:1035F000013D34D01C48802104F02AF80128F7D07E
:1036000000230293029B3F2B4FF000051CD9154865
:103610004FF4805103F016FE00230193019B3F2BD2
:1036200006D800BF019B01330193019B3F2BF8D9C2
:1036300063883380284604B070BD4FF0FF35002307
:103640000293029B3F2BE2D800BF029B01330293FF
:10365000029B3F2BF8D9DAE76FF00105EFE76FF037
:103660000205ECE7000C01400038004070B582B064
:1036700000230DF102024FF40041ADF80230ADF825
:103680000430ADF806300446FFF778FF4FF40841E8
:10369000064601AA2046FFF771FF4FF40841054690
:1036A0000DF106022046FFF769FF46EA05030343D2
:1036B00004D0064A136843F004031360BDF8060003
:1036C000BDF8043043EA004002B070BDC0400020A5
:1036D0002DE9F04F002787B003ACCDE903770194C3
:1036E0003A4EDFF80CA13A4C059780464FF001099D
:1036F0000DF10E0B14F8015B364BADF80A7043EA7E
:10370000C5250DF10A02A9B24046FFF737FF002890
:1037100049D0326842F004024FF000093260A245FD
:103720000BF1020BE6D1019C2B48002334F8022B4D
:1037300020F813200133062BF8D12849DDF80E308C
:10374000C8F806300B602649DDF81240BDF80E209F
:10375000BDF810000C60234CBDF816102160024328
:10376000BDF81230BDF8144025D1C3F30A03A02BD5
:1037700021D11D4B9FED1D7AD3ED037AB4EEE77A8C
:10378000F1EE10FAACBF4FF430734FF420739C424B
:1037900011D140F21543994208BF09F1FF300AD117
:1037A00007B0BDE8F08F5A46A9B24046FFF7E6FEE3
:1037B0000028AED1B3E7054A13684FF0FF3043F05D
:1037C0000803136007B0BDE8F08F00BFC0400020C1
:1037D00008D400080080FFFFA4400020B84000206B
:1037E000B4400020B04000209C3D0020000020425A
:1037F0000DD4000830B585B004AB03E907000F48CD
:10380000002104F02BF80E484FF4006103F01AFD7C
:1038100000230C4A1C4642F8234001330F2BFAD1F7
:10382000094B01251D7002F059FD084B084A18602C
:10383000084B15701C7005B030BD00BF002C014056
:10384000000801406840002064400020C84000207B
:10385000CD400020CC40002030B56D4B89B001AC8C
:1038600084E807001A780AB909B030BD694A1568BA
:1038700002F034FD0A220146284602F097FC002897
:10388000F2D0634B644800224FF480511A7003F069
:10389000E3FC0346002800F08D8094E8070005ABA8
:1038A00003C341F2A1011A8005A80DF11202009391
:1038B000FFF764FE594A9FED5A7AD2ED037A009BD6
:1038C00094E80700B4EEE77AF1EE10FA0DF1140C6B
:1038D000ACE80300A8BF4FF44B511A80B8BF4FF4B7
:1038E0004A510DF1120205A8FFF748FE94E80700BF
:1038F000009B0DF1140CACE8030042F615411A8050
:1039000005A80DF11202FFF739FE2046FFF7E0FE91
:10391000444B021E0CBF012100211546424A19608A
:103920001168424A59601168414A99601168414AD8
:10393000D9605188404889B21961918889B259612A
:10394000D2883E4992B29A61D0F80428DA61D0F860
:103950000C281A62D0F808285A62D0F8042C9A620F
:10396000D0F80C2CDA62D0F8082C1A63D1F80828A9
:103970005A6345D128484FF4805103F06DFC00286C
:103980003ED02F492F4B304801240C702246294647
:103990001D7004F0FBF8224621462B4804F0F6F88F
:1039A00029482246022104F0F1F82748214603F075
:1039B00055FF59E71B49009320460B60FFF756FE61
:1039C00018491D4A4860D2F80408C861D2F80C08AA
:1039D0000862D2F808084862D2F8040C8862D2F86B
:1039E0000C0CC862D2F8082C14480A63154AD0F8A7
:1039F0000848009B4C6320201370FDF799FB33E7C8
:103A0000104B002220201A70FDF792FB09B030BD48
:103A1000CD400020C8400020000801409C3D00200F
:103A20000000204268400020B8400020B440002040
:103A3000B0400020A44000200000014000300040C1
:103A4000CC40002064400020002C0140024B18783C
:103A5000003818BF01207047CC40002000B585B069
:103A600004AB03E907000948002103F0F7FE08480A
:103A70004FF4006103F0E8FB06480749074A0023BA
:103A800003700B70137005B000BD00BF002C014027
:103A900000080140CD400020CC40002064400020C0
:103AA000F0B589B001AC84E8070094E8070005AEE2
:103AB00003C64FF40041328005A80DF112021F46E3
:103AC000FFF75CFD94E8070005AB03C332804FF4B9
:103AD00008410DF1120205A8BDF81250FFF74EFD86
:103AE000BDF8124054EA05031FD12B0743D46F07DA
:103AF00046D4AE0749D4ED074CD460054FD4A10598
:103B000052D4E20555D4230658D467065BD4A606E2
:103B10005ED4E50661D4200764D4610767D4A207A8
:103B20006AD4E3076DD409B0F0BD3B48394605F0CF
:103B3000B9FD6A056BD4AB0502D5384805F0B2FD76
:103B4000EF0502D5364805F0ADFD2E0602D5354805
:103B500005F0A8FD680602D5334805F0A3FDA906C7
:103B600002D5324805F09EFDEA06BED5304805F084
:103B700099FD2B07BBD52F4805F094FD6F07B8D5ED
:103B80002D4805F08FFDAE07B5D52C4805F08AFD10
:103B9000ED07B2D52A4805F085FD6005AFD5294867
:103BA00005F080FDA105ACD5274805F07BFDE205B9
:103BB000A9D5264805F076FD2306A6D5244805F0AC
:103BC00071FD6706A3D5234805F06CFDA606A0D5B8
:103BD000214805F067FDE5069DD5204805F062FD0A
:103BE00020079AD51E4805F05DFD610797D51D4851
:103BF00005F058FDA20794D51B4805F053FDE307D7
:103C000091D51A4809B0BDE8F04005F04BBD184801
:103C100005F048FD8FE700BFFCCB00081CCC000876
:103C200028CC000830CC000838CC000840CC000874
:103C30004CCC000858CC000864CC000870CC0008BC
:103C40007CCC000888CC000890CC000898CC0008F8
:103C5000A0CC0008A8CC0008B0CC0008BCCC000860
:103C6000C8CC0008D4CC0008E0CC0008ECCC00089C
:103C700010CC00082DE9F04188B001AC84E80700C1
:103C80006C4F6D4A6D4D6E4900233B602B60136095
:103C90006C4A13606C4A13601A4621F813200133F2
:103CA000062BFAD1FDF716FA684B9FED697AD3ED32
:103CB000037A684E6848B4EEE77AF1EE10FA4FF0F6
:103CC00001034FF40061A8BF4FF003083370B8BF81
:103CD0004FF0020803F0B6FA0A2002F0E7FA204695
:103CE000FFF7C4FC28602B681BB13B6843F002035C
:103CF0003B6094E8070005AD03C541F2A1012A80AD
:103D000005A80DF11202FFF739FC544800F024FB1E
:103D100094E80700B8F1030F05AB03C314BF4FF4D9
:103D20004A514FF44B512A8005A80DF11202FFF7BA
:103D300025FC94E8070005AB03C32A8042F6154131
:103D40000DF1120205A8FFF719FC94E8070005AB76
:103D500003C341F2A1012A8005A80DF11202FFF769
:103D60000DFC012002F0A2FA3B484FF4805103F011
:103D700073FA18B93B6843F010033B602046FFF725
:103D8000A7FC28B934484FF4805103F065FAE0B934
:103D900094E8070005AB03C341F2A1011A8005A80E
:103DA0000DF11202FFF7EAFB012002F07FFA2A4828
:103DB0004FF4805103F050FA28B32046FFF788FCF7
:103DC00008BB3B6823F008033B6023484FF4805155
:103DD00003F042FA0446B8B12148002103F03EFD49
:103DE0001D484FF4006103F02FFA1E491E4A1F4B75
:103DF00000240C7014701C703470FDF76BF92046B1
:103E000008B0BDE8F081002420203470FDF790F95F
:103E10001348214603F022FD0F484FF4006103F0E0
:103E200013FA1049104A114B0C704FF0FF30147008
:103E30001C70E5E7C0400020B8400020BC400020D6
:103E4000A4400020B4400020B04000209C3D002051
:103E500000002042C44000200008014084360020B9
:103E6000002C0140CD400020CC40002064400020C8
:103E700008B50C21002003F03DFA4FF480500222D7
:103E8000002102F0B5FFBDE808404FF4805003F078
:103E900007B800BF044A072928BF07210023C0E94B
:103EA00001210370704700BF00C0030810B504462D
:103EB00002F0FCFF40F2073003F060F9606803F0A5
:103EC00029F80123237010BD84B00DF1100C0CE90A
:103ED00007000298049900EB830004B003F0BAB81D
:103EE00084B00DF1100C0CE907000298049900EB66
:103EF000830004B003F0AEB884B00DF1100C0CE9EF
:103F00000700029810EE101A00EB830004B003F0D3
:103F1000A1B800BF00B583B0019002F0E7FF01989F
:103F20000023037003B000BD84B00DF1100C0CE948
:103F3000070051F8230004B0704700BF84B00DF1B2
:103F4000100C0CE9070051F8230004B0704700BFC3
:103F500084B00DF1100C0CE9070001EB830292ED27
:103F6000000A04B0704700BF08B590ED167AD0ED96
:103F7000186A1C4BF7EE007A2DED048B37EEC77AEA
:103F80009FED199AD0ED178A1968184827EE097A1B
:103F900077EEE88A37EEE68AFCEEC77A17EE902ACB
:103FA000C9B903F095FD1148012168EE898AFCEE3C
:103FB000E87A17EE902A03F08BFD68EE097ABDECE3
:103FC000048BFCEEE77ABDE80840084817EE902A1B
:103FD000022103F07DBD012103F07AFD0348002199
:103FE000E3E700BF9C3900200000FA44002C0140A8
:103FF00038B5484B1C680546002C7ED12146464802
:1040000002F04EFC0346AB604448214602F048FCF7
:1040100003464148EB60022102F034FC4048022193
:1040200002F030FC40F6010401E0013C50D03A4877
:10403000042102F049FC0028F7D040F6010401E019
:10404000013C45D03648042102F03EFC0028F7D060
:104050003148042102F03EFC3148042102F03AFCD0
:1040600000212F4802F01CFCAA68D5F89810EB68D4
:10407000D5ED1C6ADFED2B5A2861521A07EE102A83
:10408000D5F89C2007EE900A9B1AB8EEE76A07EE77
:10409000903AB8EEC77AF8EEE77A27EE267A67EE1E
:1040A000A67AD5F8F83285ED067AF1EE476A26EE63
:1040B000256A76EEE76A0122013385F8F52285ED5F
:1040C000086AC5ED077AC5ED056AC5F8F83238BD4E
:1040D0001148042102F0FEFB1148042102F0FAFB12
:1040E000D5F8FC320022013385F8F522C5F8FC3200
:1040F0008020BDE83840FDF71BB80021074802F0DA
:10410000CFFB0346AB600448002102F0C9FB034625
:104110007FE700BF9C3900200024014000280140B7
:10412000003C01401833533C00B52DED028B87B0A5
:10413000CDE90210CDED050A8DED041A0192F0EEE5
:10414000408A01F07DFAB0EE408AB0EE680A01F0D4
:1041500051FAF6EE007A67EEC06ADFED175A9FED6E
:10416000176A9DED041ADDED050A03980299019A7C
:1041700067EEC87AB0EE667AA8EE257AE8EE656A50
:10418000F0EE675AE0EE065AE0EE467A21EE477A04
:1041900021EE400A21EE661AA8EE200AA5EEA07ACA
:1041A000A7EEA01A80ED000A81ED007A82ED001AD8
:1041B00007B0BDEC028B00BDD7B35DBFD7B35D3F89
:1041C00000B52DED028B87B0CDE90110CDED050ACC
:1041D0008DED041ACDED031AF0EE408A01F030FAAD
:1041E000B0EE408AB0EE680A01F004FAB6EE007A4A
:1041F00067EE486A27EE407ADFED185A9FED186A9D
:104200009DED041ADDED050ADDED031A0298019912
:10421000F0EE667AB0EE475AA8EE065AE0EE257A3E
:10422000A8EE467A67EE817A21EE451AE0EE656ADD
:10423000E8EE207AA0EE601AE6EEA17AA7EE611A07
:104240009FED086A67EE867A21EE061AC0ED007AC5
:1042500081ED001A07B0BDEC028B00BDD7B35D3F06
:10426000D7B35DBFABAA2A3F00B52DED0A8BB0EEE8
:10427000609A85B0F0EE418AF0EE40AAB0EE611A85
:10428000F0EE680AB0EE490AB0EE618A0192CDE91B
:10429000021001F051F9B0EE481AF0EE680AB0EEE3
:1042A00040AAB0EE490A01F02FF93AEE00AAF6EE64
:1042B000009AAAEE699ADFED24BA9FED24CA9FED19
:1042C00024BA29EE299AF0EE4C0A29EE2B9A89EEAF
:1042D0002A0A9FED209A30EE0B0A01F005F9F0EE64
:1042E000490A01F009F9EAEE698A039880ED000AAB
:1042F00068EEA98AF0EE4C0A68EEAB8A88EEAA0A4C
:1043000030EE0B0A01F0F0F8F0EE490A01F0F4F893
:10431000AAEE698A029981ED000A28EE298AF0EE58
:104320004C0A28EE2B8A88EE2A0A30EE0B0A01F09E
:10433000DBF8F0EE490A01F0DFF8019A82ED000A9D
:1043400005B0BDEC0A8B00BD3333933F0000000085
:10435000D7A3F03ED7A3703FF8B500238365C365AC
:1043600003660446FFF700FE00264FF47A753746D1
:104370002046FFF73DFED4E90223013D17441E44C9
:10438000F6D1074B83FB0721FA17C2EBA11283FB7F
:104390000631F317C3EBA113C4E92623F8BD00BF10
:1043A000D34D62102DE9F843344A354BDFED356AC1
:1043B000DFED355A2DED028BC267C0F8802093EDFA
:1043C000027A324AC0F8842066EEC76AF7EE007AB5
:1043D000B0EE676AA6EEA56A2D4ADFED2E6A126876
:1043E000C0F8C82027EE267AC7EE866A80ED1D7ACF
:1043F00077EEE67A80ED1E7AC0ED227A9FED267A7E
:10440000D3ED037AF4EEC77AF1EE10FA33D8234BEA
:10441000DFF89C90DFED228A9FED228A224F03670E
:104420004FF0804800F1F4050024002607EE904A82
:10443000F8EEE77A013467EEA87AC7EE887A17EECD
:10444000900AFCF731F841EC100B07F0DDFD424615
:1044500051EC100B4B46FCF77FF832463B46FBF71E
:10446000C5FEFCF771FB802C45F8040BDED1BDECDA
:10447000028BBDE8F8830D4BCAE700BFEC51383D15
:104480009C3D0020D1CB0B38DB0FC940BD74933B62
:104490009C39002017B7D13800002042FFFFA43C10
:1044A000000000BC6F12033D0000F03FFFFF243D01
:1044B0003333F33F10B54FF47A72044600211148AC
:1044C00003F006FB0F484FF47A72012103F000FB62
:1044D0004FF47A720B48022103F0FAFA002300220B
:1044E000C4F8A430C4F8A830E36323646364C4F858
:1044F0009030C4F88C3063652365C4F8E830C4F8A4
:10450000EC2010BD002C014090ED397AD0ED387AC6
:1045100090ED3A0ADFED1E0A77EEC77A90ED217A28
:1045200010B5A7EE270A82B0044680ED3A0A00F0E3
:10453000E3FF184BD3ED060AF1EE600A00F0D4FF5A
:1045400094ED3C7A84ED3A0A60EE407A84ED290AD3
:10455000E7EE077AF5EE407AF1EE10FA11D4F1EEBB
:10456000E70A94ED2A0ACDED010A00F0C5FFDDED62
:10457000010AF1EE600A00F0B7FF84ED2A0A02B0EA
:1045800010BDB0EE670A07F08FFDF0EE400AE8E7D5
:10459000000000009C3D002030B52DED028B91ED18
:1045A000170A4B6E904D91ED186AD0ED071A90EDF9
:1045B000061AD0ED050AD1ED036A83B0436380ED9E
:1045C0000B0A95ED117AC6EE077A044600F1400118
:1045D0003C30C4ED0C7A95ED117AC6EE877AC4EDC5
:1045E0000A7AFFF7EDFD9FED815A94ED087ADFED31
:1045F000805AD4ED097A94ED106AD4ED0F6A94EDE7
:10460000114AD4ED124A27EE057A26EE056AA7EE86
:10461000A57A04F1A80104F1A400DFED767A84ED17
:10462000097A67EE277A66EE856A9FED735AE4EEA3
:10463000A56AA4EE256A67EE857ADFED705A84EDEF
:10464000116A67EEA57AC4ED126AC4ED387A95ED69
:10465000030A84ED3C0A00F087FFD4ED0F6AD4ED25
:10466000298A94ED1D7A94ED230ADFED657A94EDA5
:104670002A8AD4ED380A78EEE68AA7EE280A94ED65
:10468000107A30EE270A38EE478A84ED140A00F0DB
:1046900033FFD4ED380AF1EE600A00F025FFD4EDC7
:1046A0001F6A94ED1D7AD4ED237AD4ED380A84ED97
:1046B000140A27EE267AE7EE287AB0EE670AC4EDF0
:1046C000237A00F019FFD4ED380AF1EE600A00F009
:1046D0000BFFD4ED147AD4ED380A84ED230A67EE8B
:1046E000E77AE0EEA07AF5EE407AF1EE10FA6FD4B8
:1046F000F1EEE78A94ED240AD4ED1E7AD4ED206A17
:10470000B0EE407AA7EE887A67EEA67ADFED3C6AD3
:10471000A7EE880A77EE267A84ED240AC4ED157A8E
:1047200000F0EAFED4ED380AF1EE600A00F0DCFE9B
:10473000F0EE406A94ED150A94ED147AC4ED246A03
:1047400060EE007AF0EE680AE7EE077AB1EEE77AFB
:1047500084ED397A00F0D0FEF1EE680A00F0C4FE74
:10476000F0EE407A04F1540194ED380AC4ED157A64
:1047700004F1500000F0F8FEDFED227A94ED0D7A9E
:1047800094ED0B0A94ED151AD4ED140AA7EE270A3E
:1047900004F16C0204F1680104F16400FFF7C4FC49
:1047A00004F15800D4ED1B1A94ED1A1AD4ED190A2D
:1047B00094ED380A04F1600204F15C01FFF754FD46
:1047C000204603B0BDEC028BBDE83040FFF7CCBB08
:1047D000B0EE670ACDED010A07F066FCDDED010AD7
:1047E000F0EE408A86E700BF9C3D0020CDCCCC3D5A
:1047F0006666663F3333933FD7A3703F3ACD133F8E
:1048000000000000BAB1513890ED0A7AD0ED337A49
:10481000D0ED356A90ED370A144BD0ED3C0A77EEB7
:10482000C77A90ED347AA6EEA70A10B5D0ED0C7ACF
:10483000D0ED366A37EE677AD3ED0E7AA6EE870AA8
:10484000044693ED117A67EE877A80EE270A00F02E
:1048500053FED4ED3C0AF1EE600A00F045FE002361
:1048600084ED2A0AC4F8A43010BD00BF9C3D00208E
:104870000023C0F8DC30C0F8D430C0F8D830C0F81D
:10488000CC30C0F8D030C0F8A830704708B50B481D
:1048900001F0DEFA70B1094801F00EFB38B10748AB
:1048A00001F06EFC054801F0AFFB013808BD03487C
:1048B00001F066FC4FF0FF3008BD00BF84390020D6
:1048C00010B54FF4805182B00A4802F0C5FC04468E
:1048D000FCF736FC084A094B094992F8F52293F88F
:1048E000DD3289880092221E18BF012201F04CFCA3
:1048F00002B010BD0008014084360020643300205F
:104900005833002010B503780446052B2AD8DFE879
:1049100003F027032A2927271B4B1A89186859688F
:10492000FFF79CF8194B93F82220CAB91849194A85
:104930000968916203F50053174893F840CFD3F804
:10494000443F1649C0F800C04FF40072436118306C
:1049500004F07EFF114912484FF4007204F078FF12
:104960000123E37010BD084B0122C270186859681A
:104970001A89FFF773F80B48FFF79CFDBDE810405C
:104980000848FFF775BF00BF583300201002002011
:104990004C3100209C3D00209C39002058310020E3
:1049A000403400208436002008B50D4804F0E2FEB3
:1049B0000C4804F0DFFE0C4804F0DCFE0B4804F069
:1049C000D9FE0B4804F0D6FE0A4804F0D3FE0A488C
:1049D00004F0D0FEBDE80840084804F0CBBE00BF9C
:1049E000B0C90008F8CC000804CD000818CD0008B4
:1049F00034CD000844CD00085CCD000878CD000817
:104A000030B56C486C4C6D4D85B004F04BFE6C4875
:104A10006C4B6D4A6D49CDE900046D4C6D4804F056
:104A200041FE6D4804F0A6FE606CFBF73DFD6B4A4D
:104A30006B4B0095CDE902016A496B4804F032FEE8
:104A4000A06BFBF731FD694A654B0095CDE902018A
:104A50006749684804F026FE674804F08BFEA068AA
:104A6000FBF722FD654B664A0093CDE90201654BD9
:104A70006549664804F016FEE068FBF715FD644BD7
:104A8000644A0093CDE90201634B64495F4804F036
:104A900009FE206DFBF708FD2B46CDE90201604AB7
:104AA00000956049594804F0FDFDA06DFBF7FCFC42
:104AB0002B46CDE902015C4A00955C4953485C4DA8
:104AC00004F0F0FDE06DFBF7EFFC5A4B5A4A0093FF
:104AD000CDE90201504B59494C4804F0E3FD206EEA
:104AE000FBF7E2FC564B574A0093CDE902014A4BD3
:104AF0005549464804F0D6FDA069FBF7D5FC534B59
:104B0000534A0093CDE90201434B52493F4804F018
:104B1000C9FD206AFBF7C8FC4F4B504A0093CDE912
:104B200002012F4B4E49394804F0BCFD606AFBF787
:104B3000BBFC4C4B4C4A0093CDE90201364B4B4930
:104B4000324804F0AFFDA06C494CFBF7ADFCCDE959
:104B500002014849304B484A00912C48474904F02B
:104B6000A1FD474804F006FE6368464A46494748A7
:104B7000CDE900531A4B04F095FDA3680193444A14
:104B8000174B44490095414804F08CFDE068424BC6
:104B9000424A4349CDE90030114B424804F082FDBE
:104BA000414804F07FFD414805B0BDE8304004F0C5
:104BB00079BD00BF90CD0008E4CD000838CE0008D4
:104BC000F4CD0008ACCD0008B0CD0008BCCD000885
:104BD0009C3D0020C4CD0008F8CD000808CE000898
:104BE00004CE000814CE000818CE00083CCE000801
:104BF00054CE000858CE000878CE0008C8CE000871
:104C00008CCE000888CE0008A4CE0008A8CE0008EC
:104C1000ECCE0008D4CE0008D0CE0008E8CE0008C4
:104C2000F4CE000810CF000814CF000834CF0008DD
:104C300050D0000858CF000838CF000854CF0008E3
:104C400084CF000860CF000880CF0008A4CF000800
:104C500088CF0008A0CF0008CCCF0008ACCF000858
:104C6000C8CF0008ECCF0008D0CF0008E8CF00087C
:104C70009C39002010D00008F4CF00080CD00008A8
:104C800018D0000824D000082CD0000830D000082C
:104C900054D0000860D00008A4D0000864D00008F8
:104CA00084D0000888D00008ACD00008F8D00008F4
:104CB00000B5037883B0042B2BD8DFE803F02C2059
:104CC000082A030003B05DF804EBFFF799BE0190DA
:104CD000FFF7F6FD034600284ED12B480193C0F89C
:104CE000B830FFF7E7FB2949019A088960F30F0202
:104CF0000868496803B05DF804EBFEF77BBD0190DE
:104D0000FFF7DEFD034658B1019A002101235170DF
:104D1000D37003B000BD03B05DF804EBFFF744BEF1
:104D20001B4ADFF874C01B49DCF828C0A2F8213008
:104D300002F5005082F82430137400F63C7201939F
:104D4000C2F800C04B690A6880F8402FC0F8443FA1
:104D500018314FF4007200F6487004F079FDDFF866
:104D60003CC0019BCCF8D8304FF4007219460CF1CE
:104D7000DC0004F020FDB6E701210620FDF7BCF8B9
:104D80000148FFF775FDBFE7843600205833002047
:104D9000100200209C3900209C3D0020643300203C
:104DA000F0B5037842789A4283B004464FD1022B83
:104DB00055D0052B42D0012B3ED1794B93F82130B1
:104DC000002B7ED0764B93F82230002B00F0C3806E
:104DD000734D95F82430002B00F083807149724B9D
:104DE000D1ED007A714905F50052C1ED0A7A92F8C9
:104DF000401FCDED017A1960D2F8446F5E6103F176
:104E0000180002F648714FF4007204F021FD684862
:104E1000DDED017A6749C0ED1A7AC0F8D8604FF429
:104E20000072DC3004F014FD634804F0A3FC00239E
:104E300085F824306370E37003B0F0BD5F4B5C48CD
:104E4000D3F8B41003B0BDE8F04000F03FBFFFF767
:104E500059FDE378002B3ED12378022BA9D1584B82
:104E6000186859681A89FEF7F7FCFEF7EFFD00286D
:104E7000E2D04D4BDA68002A05DD5049D1F8B81070
:104E80008A42C0F28580FFF71BFD00286DD14B4898
:104E9000FFF7BAFC4948FFF737FB45494748FFF79A
:104EA0007BFB6378022BC7D13F4BDB68002BC3DD54
:104EB0004249D1F8B8209342BEDB0132C1F8B82094
:104EC000BAE73E493A48D1F8B430354A03B0BDE8B4
:104ED000F040FDF7CDBF637823702046FFF7E8FE72
:104EE000BAE72F4B324EDB6996ED1A7A2E4F9FEDC3
:104EF000350A7B615A4207EE902AF8EEE77AF7EE20
:104F0000000A67EE877A1D4627EE800A07F050F800
:104F1000DFED2D7A60EE277A17EE900AFBF7C4FAE0
:104F20000B4602462946294804F0BCFB28494FF4A9
:104F3000007206F1DC0004F08BFC25494FF400728E
:104F400007F1180004F084FCFFF7A0FCE0B900238F
:104F50006370E37070E719491548D1F8B430104A0E
:104F600003B0BDE8F040FEF7C1B800210620FCF711
:104F7000C3FF134B1A8918685968FEF76FFD0022AA
:104F800001236270E37057E7124804F0F3FBDEE799
:104F90000520FCF7B1FF0948FFF76AFCE9E700BF0D
:104FA000100200204C3100209C3900209C3D002044
:104FB00064330020B439002024D100088436002056
:104FC0005833002000008037DB0FC9405CD1000857
:104FD0003C2C002070D1000838B5417BA1F1610361
:104FE0000446172B19D8DFE813F0280047006600A5
:104FF00085001800A000BF00DA00F90018000401C5
:105000001F013E011800180049011800180018007F
:1050100068011800730118009201CF4804F042FBA8
:10502000251DFFF733FC002840F08C81FFF7E8FCDA
:105030000023A38163606B6038BD051D284602F024
:1050400068FF51EC100BFBF77FFDF3EE040A00EE56
:10505000100A07F01FFBDFEDC10A07F0F3FAC04B9F
:1050600010EE100A83ED120AFBF71EFA02460B46F9
:10507000BC4804F017FBD4E7051D284602F049FFA1
:1050800051EC100BFBF760FDDFEDB70A00EE100AE4
:1050900007F000FBDFEDB50A07F0D4FAB04B10EED5
:1050A000100A83ED020AFBF7FFF902460B46B048EF
:1050B00004F0F8FAB5E7051D284602F02AFF51EC86
:1050C000100BFBF741FDDFEDAB0A00EE100A07F015
:1050D000E1FADFEDA20A07F0B5FAA14B10EE100AD3
:1050E00083ED090AFBF7E0F902460B46A24804F0FB
:1050F000D9FA96E7051D284602F00BFF51EC100B7C
:10510000FBF722FDDFED950A00EE100A07F09AFA90
:10511000934B10EE100A83ED180AFBF7C5F902460F
:105120000B46964804F0BEFA7BE7051D284602F0C0
:10513000F0FE51EC100BFBF707FDDFED910A00EEDE
:10514000100A07F0A7FADFED850A07F07BFA844B17
:1051500010EE100A83ED060AFBF7A6F902460B468D
:10516000884804F09FFA5CE7051D284602F0D1FE4E
:1051700051EC100BFBF7E8FCDFED830A00EE100AA0
:1051800007F060FA764B10EE100A83ED110AFBF778
:105190008BF902460B467D4804F084FA41E7051D71
:1051A000284602F0B6FE51EC100BFBF7CDFCDFED0C
:1051B000780A00EE100A07F06DFADFED680A07F0D2
:1051C00041FA674B10EE100A83ED080AFBF76CF901
:1051D00002460B466F4804F065FA22E7051D284693
:1051E00002F09AFE6C4B014659606C4804F05AFA82
:1051F00017E7051D284602F08CFE51EC100BFBF75B
:10520000A3FCDFED670A00EE100A07F01BFA544B0F
:1052100010EE100A83ED0E0AFBF746F902460B4624
:10522000604804F03FFAFCE6051D284602F071FED6
:1052300051EC100BFBF788FCDFED5B0A00EE100A67
:1052400007F028FADFED450A07F0FCF9444B10EEB1
:10525000100A83ED030AFBF727F902460B46534871
:1052600004F020FADDE6051D284602F055FE4A4B03
:10527000014699604E4804F015FAD2E6051D28460D
:1052800002F047FE51EC100BFBF75EFCDFED330A3A
:1052900000EE100A07F0D6F9314BF1EE407A83EDBB
:1052A000140AC3ED137A10EE100AFBF7FDF802465C
:1052B0000B46404804F0F6F9B3E6051D284602F017
:1052C0002BFE354B0146D9603B4804F0EBF9A8E6CC
:1052D000051D284602F01DFE51EC100BFBF734FCB7
:1052E000DFED1E0A00EE100A07F0ACF91C4BF1EEE0
:1052F000407A83ED160AC3ED157A10EE100AFBF71B
:10530000D3F802460B462D4804F0CCF989E6051D7A
:10531000284602F0FEFD51EC100BFBF715FCDFED0B
:105320000F0A00EE100A07F08DF90D4B10EE100A6F
:1053300083ED170AFBF7B8F802460B46204804F045
:10534000B1F96EE61F4804F015FAFFF759FB002388
:10535000A38163606B6038BDE0D2000800000000EC
:105360009C3D00205CD200080000FA440000C842C6
:10537000A8D100080000204244D20008A4D20008AE
:1053800000000442FCD100086F12833A70D200087A
:10539000000016432CD200089C390020BCD1000824
:1053A00017B7D13880D2000800007042E8D1000859
:1053B000D0D10008B8D2000814D20008CCD200081E
:1053C00090D2000870D100081B2908B5034645D0CB
:1053D0006D29027846D052B1042A07D10D294BD04D
:1053E000027B002A45D1417301321A7308BD63392B
:1053F0001729FBD801A252F821F000BF8154000800
:10540000ED5300088B540008ED530008ED530008DD
:10541000ED530008ED530008ED530008ED5300086C
:10542000ED530008ED530008ED530008ED5300085C
:10543000ED530008ED530008ED53000895540008A3
:10544000ED530008ED530008ED530008ED5300083C
:10545000ED530008ED5300089F54000800224270ED
:10546000C27008BD02218A424170BFD00022C270C2
:1054700008BD1044C170B7E7BDE80840FFF7ACBDF8
:10548000012100224170C27008BD05210022417037
:10549000C27008BD042100224170C27008BD0D48D1
:1054A0009FED0D0A0023C0F8D43000F0B3FA09488C
:1054B0000A4B826F1A61FFF7E9F9084B28B919699D
:1054C0000748BDE8084004F0EDB8064804F052F97A
:1054D000024BF4E764330020D1CB0B389C39002019
:1054E00038D3000808D30008B4EEE00AF1EE10FA51
:1054F000D8BFB0EE600A7047F4EEC00AF1EE10FAC1
:10550000D8BFB0EE600A7047B4EEE00AF1EE10FAD0
:1055100007DDB4EEC10AF1EE10FAD8BFB0EE410AD1
:105520007047F4EEC10AF1EE10FAD4BFB0EE410AB2
:10553000B0EE600A704700BFB4EEE00AF1EE10FA78
:1055400007D5B4EEC01AF1EE10FAD8BFB0EE410A9A
:105550007047B4EEE01AF1EE10FAD4BFB0EE410A93
:10556000B0EE600A704700BFD1ED007A90ED007A8E
:1055700067EEA77AE7EE077AF1EEE76AF4EEC06A23
:10558000F1EE10FA0DDD27EE007AC7EE267AC0EDB7
:10559000007AD1ED007A20EE270AC0EE267AC1ED1E
:1055A000007A704701238340013B07EE903A30EECA
:1055B000600AF8EEE77A31EE601A67EE807A87EEDD
:1055C000817AFDEEC77A17EE900A704707EE900ACF
:1055D000012370EEC00AF8EEE77A8B40013B27EE1C
:1055E000A07A07EE903AF8EEE77AC7EE276A36EE31
:1055F000800A704700B5DFED0F0A83B0CDED010AD8
:1056000006F0D6FCB5EEC00AF1EE10FA03D5DDEDDA
:10561000010A30EE200ADFED087A084B20EE270A57
:10562000BDEEC00A10EE102A03EB820393ED000AD0
:1056300003B000BDDB0FC94083F9A24210D40008BB
:1056400000B5DFED117ADFED110A83B037EEC00A45
:10565000CDED010A06F0ACFCB5EEC00AF1EE10FA91
:1056600003D5DDED010A30EE200ADFED097A094BA2
:1056700020EE270ABDEEC00A10EE102A03EB8203CB
:1056800093ED000A03B000BDDB0FC93FDB0FC9403B
:1056900083F9A24210D4000870B5054684B035489D
:1056A0000E464FF4004101F0CFFD00230393039B0E
:1056B0003F2B06D800BF039B01330393039B3F2B73
:1056C000F8D940F6010401E0013C3ED02A4802210D
:1056D00001F0BEFF0028F7D02748294601F0B2FFAD
:1056E00040F6010401E0013C3ED02348012101F0D5
:1056F000AFFF0028F7D0204801F0A6FF40F60104D4
:10570000308001E0013C32D01B48802101F0A0FF35
:105710000128F7D000230293029B3F2B4FF0000497
:105720001AD914484FF4004101F08CFD0023019375
:10573000019B3F2B06D800BF019B01330193019BC6
:105740003F2BF8D9204604B070BD4FF0FF34002342
:105750000293029B3F2BE4D800BF029B01330293CC
:10576000029B3F2BF8D9DCE76FF00104EFE76FF005
:105770000204ECE700080140003C0040F0B506469A
:1057800083B008461746FCF72BFB044643F6FF7030
:10579000FCF726FB01A905462046FFF77DFF48BB25
:1057A0000DF106012846FFF777FF18BBBDF806404C
:1057B0002046FCF731FB431CA6F8E0420BD0023038
:1057C00012D0C4F30D043C8001A92846FFF764FF02
:1057D00080B903B0F0BDD6F800330133C6F800330A
:1057E0006FF0010003B0F0BDD6F804330133C6F802
:1057F0000433F5E7D6F8FC3201334FF48070C6F875
:10580000FC32FBF795FC4FF0FF30E2E770B500216A
:1058100082B006460120FCF7F3FA044643F6FF7017
:10582000FCF7DEFA0DF1060105462046FFF734FFCE
:1058300038B90DF106012846FFF72EFF08B902B06E
:1058400070BDD6F8FC3201334FF48070C6F8FC32DC
:10585000FBF76EFC4FF0FF30F1E700BF10B582B0F0
:105860000DF1020243F6FC710446FFF787FFF0B921
:1058700001AA43F6FD712046FFF780FFB8B90DF18C
:10588000060201212046FFF779FF80B9BDF80630F6
:10589000BDF80210BDF80420A4F8EA32A4F8E6121C
:1058A000A4F8E822012384F8DE3202B010BD002300
:1058B0004FF0FF30F7E700BF2DE9F04F044687B007
:1058C00043F6FF700E46FCF78BFA4FF000080746D0
:1058D0002046FFF79BFF4645A4F8DD82A4F8EC8242
:1058E00040F383800123CDF8088003939A46C14694
:1058F0000DF116013846FFF7CFFE90BB012E44D0C4
:105900004FF0010B00250DF116013846FFF7C4FEDC
:1059100048BBBDF8168001904046FCF77DFA431C59
:10592000019AA4F8E082C8F30D0C05F101053AD004
:10593000023054D00BF1010B5E45A4F8E2C284F8AA
:10594000DDA2A4F8EC22DED11F2D1ED92046FFF7E0
:1059500085FFB0FA80F0400984F8DE0207B0BDE8A8
:10596000F08F4FF0000BD4F8FC12B4F8EC2284F85E
:10597000DD920BF1010B0131013201235E45C4F8C8
:10598000FC12A4F8EC220293BCD1039D032D1AD083
:10599000142000F08BFC6B1C03930023A4F8DD3271
:1059A000A4F8EC32A4E7D4F800230132C4F80023B1
:1059B0000BF1010B5E454FF0000584F8DD92A2D19A
:1059C000039D032DE4D1029A002384F8DD329A422C
:1059D00014BF4FF480704020FBF7AAFBB6E7D4F861
:1059E00004230132C4F80423E2E70125032D4FF01C
:1059F00014000CD0013500F059FC4FF00003032DCA
:105A0000A4F8DD32A4F8EC824FF01400F2D10023A8
:105A10000293D8E770B52DED028B044684B043F6AF
:105A2000FF70B0EE408AFCF7DBF9D4F8F0320133B6
:105A30000DF10E01C4F8F032FFF72EFE002840F001
:105A4000C380BDF80E30019305461846FCF7E4F913
:105A5000019BA4F8E032421C00F00881023000F003
:105A6000DD80D4F8F422C3F30D06002A40F0ED8067
:105A7000002366F30F03D4ED016A012166F31F438F
:105A8000B5000A44C4F8E232002384F8DD12C4F8F9
:105A9000F422A4F8EC32C4ED026A4C2204F10C01A9
:105AA000656704F11000CDED016A03F06BFE6B1227
:105AB0005A1C02F07F0204EB830304EB8202D3F84A
:105AC000DC30D2F8DC209FED7B6ADDED016AC5F3A6
:105AD0000801D21A01FB02F203EB62232B44764940
