:020000040800F2
:1000000000000120FD6E0008915300089553000880
:10001000A1530008AD530008B953000800000000C8
:10002000000000000000000000000000C5530008B0
:10003000C953000800000000CD530008D153000848
:100040004D6F00084D6F00084D6F00084D6F0008A0
:100050004D6F00084D6F00084D6F00084D6F000890
:100060004D6F00084D6F00084D6F00084D6F000880
:100070004D6F00084D6F00084D6F00084D6F000870
:100080004D6F00084D6F00084D6F00084D6F000860
:10009000D55300084D6F00084D6F00084D6F0008E4
:1000A0004D6F0008F15400084D6F00084D6F0008B7
:1000B0004D6F00084D6F00084D6F00084D6F000830
:1000C0004D6F00084D6F00084D6F00084D6F000820
:1000D0004D6F00084D6F0008B55500084D6F0008C2
:1000E000715500084D6F00084D6F00084D6F0008F6
:1000F0004D6F00084D6F00084D6F00084D6F0008F0
:100100004D6F00084D6F00084D6F00084D6F0008DF
:100110004D6F00084D6F00084D6F00084D6F0008CF
:100120004D6F00084D6F00084D6F00084D6F0008BF
:1001300001F0FF01102A2BDB10F0070F08D010F898
:10014000013B013A8B422DD010F0070F42B3F6D19C
:10015000F0B441EA012141EA014122F007047FF0B5
:1001600000070023F0E80256083C85EA010586EA0C
:10017000010685FA47F5A3FA87F586FA47F6A5FA48
:1001800087F68EB9EED1F0BC01F0FF0102F0070254
:1001900032B110F8013B013A83EA010313B1F8D1FF
:1001A0000020704701387047002D06BF35460338E0
:1001B000073815F0010F07D1013015F4807F02BF19
:1001C000013015F4C03F0130F0BC0138704700BF6A
:1001D000034613F8012B002AFBD1181A0138704787
:1001E00081F0004102E000BF83F0004330B54FEAE8
:1001F00041044FEA430594EA050F08BF90EA020F55
:100200001FBF54EA000C55EA020C7FEA645C7FEAE7
:10021000655C00F0E2804FEA5454D4EB5555B8BF0A
:100220006D420CDD2C4480EA020281EA030382EA7B
:10023000000083EA010180EA020281EA0303362D0D
:1002400088BF30BD11F0004F4FEA01314FF4801CE0
:100250004CEA113102D0404261EB410113F0004FF2
:100260004FEA03334CEA133302D0524263EB4303A9
:1002700094EA050F00F0A780A4F10104D5F1200E47
:100280000DDB02FA0EFC22FA05F2801841F10001A2
:1002900003FA0EF2801843FA05F359410EE0A5F176
:1002A00020050EF1200E012A03FA0EFC28BF4CF0A7
:1002B000020C43FA05F3C01851EBE37101F000455D
:1002C00007D54FF0000EDCF1000C7EEB00006EEB6A
:1002D0000101B1F5801F1BD3B1F5001F0CD34908F4
:1002E0005FEA30004FEA3C0C04F101044FEA44524B
:1002F00012F5800F80F09A80BCF1004F08BF5FEAD2
:10030000500C50F1000041EB045141EA050130BDB1
:100310005FEA4C0C404141EB0101013C28BFB1F5C3
:10032000801FE9D291F0000F04BF01460020B1FA0E
:1003300081F308BF2033A3F10B03B3F120020CDAE1
:100340000C3208DD02F1140CC2F10C0201FA0CF0BF
:1003500021FA02F10CE002F11402D8BFC2F1200C24
:1003600001FA02F120FA0CFCDCBF41EA0C019040DA
:10037000E41AA2BF01EB0451294330BD6FEA040423
:100380001F3C1CDA0C340EDC04F11404C4F120020E
:1003900020FA04F001FA02F340EA030021FA04F320
:1003A00045EA030130BDC4F10C04C4F1200220FA77
:1003B00002F001FA04F340EA0300294630BD21FAB5
:1003C00004F0294630BD94F0000F83F4801306BF7B
:1003D00081F480110134013D4EE77FEA645C18BF6F
:1003E0007FEA655C29D094EA050F08BF90EA020F06
:1003F00005D054EA000C04BF1946104630BD91EAFE
:10040000030F1EBF0021002030BD5FEA545C05D100
:100410004000494128BF41F0004130BD14F580043F
:100420003CBF01F5801130BD01F0004545F0FE41B3
:1004300041F470014FF0000030BD7FEA645C1ABFE8
:10044000194610467FEA655C1CBF0B46024650EA1F
:10045000013406BF52EA033591EA030F41F400214B
:1004600030BD00BF90F0000F04BF0021704730B5D1
:100470004FF4806404F132044FF000054FF00001A6
:1004800050E700BF90F0000F04BF0021704730B567
:100490004FF4806404F1320410F0004548BF40423C
:1004A0004FF000013EE700BF42004FEAE2014FEA91
:1004B00031014FEA02701FBF12F07F4393F07F4F6C
:1004C00081F06051704732F07F4208BF704793F06F
:1004D0007F4F04BF41F40021704730B54FF4607482
:1004E00001F0004521F000411CE700BF50EA010285
:1004F00008BF704730B54FF000050AE050EA01022E
:1005000008BF704730B511F0004502D5404261EB9D
:1005100041014FF4806404F132045FEA915C3FF4DE
:10052000D8AE4FF003025FEADC0C18BF03325FEA7B
:10053000DC0C18BF033202EBDC02C2F1200300FA2C
:1005400003FC20FA02F001FA03FE40EA0E0021FA51
:1005500002F11444BDE600BF70B54FF0FF0C4CF43F
:10056000E06C1CEA11541DBF1CEA135594EA0C0FF1
:1005700095EA0C0F00F0DEF82C4481EA030621EA2C
:100580004C5123EA4C5350EA013518BF52EA033567
:1005900041F4801143F4801338D0A0FB02CE4FF019
:1005A0000005E1FB02E506F00042E0FB03E54FF049
:1005B0000006E1FB03569CF0000F18BF4EF0010E41
:1005C000A4F1FF04B6F5007F64F5407404D25FEA3D
:1005D0004E0E6D4146EB060642EAC62141EA5551F0
:1005E0004FEAC52040EA5E504FEACE2EB4F1FD0C32
:1005F00088BFBCF5E06F1ED8BEF1004F08BF5FEAB0
:10060000500E50F1000041EB045170BD06F0004661
:1006100046EA010140EA020081EA0301B4EB5C040E
:10062000C2BFD4EB0C0541EA045170BD41F4801106
:100630004FF0000E013C00F3AB8014F1360FDEBF2B
:10064000002001F0004170BDC4F10004203C35DA07
:100650000C341BDC04F11404C4F1200500FA05F38A
:1006600020FA04F001FA05F240EA020001F000422B
:1006700021F0004110EBD37021FA04F642EB0601A1
:100680005EEA430E08BF20EAD37070BDC4F10C04CB
:10069000C4F1200500FA04F320FA05F001FA04F28F
:1006A00040EA020001F0004110EBD37041F100017B
:1006B0005EEA430E08BF20EAD37070BDC4F1200586
:1006C00000FA05F24EEA020E20FA04F301FA05F2EE
:1006D00043EA020321FA04F001F0004121FA04F296
:1006E00020EA020000EBD3705EEA430E08BF20EA66
:1006F000D37070BD94F0000F0FD101F000464000A0
:1007000041EB010111F4801F08BF013CF7D041EA21
:10071000060195F0000F18BF704703F00046520025
:1007200043EB030313F4801F08BF013DF7D043EAF6
:100730000603704794EA0C0F0CEA135518BF95EAAC
:100740000C0F0CD050EA410618BF52EA4306D1D133
:1007500081EA030101F000414FF0000070BD50EA52
:10076000410606BF1046194652EA430619D094EADC
:100770000C0F02D150EA013613D195EA0C0F05D1C6
:1007800052EA03361CBF104619460AD181EA03011A
:1007900001F0004141F0FE4141F470014FF00000D2
:1007A00070BD41F0FE4141F4780170BD70B54FF06D
:1007B000FF0C4CF4E06C1CEA11541DBF1CEA1355ED
:1007C00094EA0C0F95EA0C0F00F0A7F8A4EB0504CF
:1007D00081EA030E52EA03354FEA013100F08880C6
:1007E0004FEA03334FF0805545EA131343EA12638F
:1007F0004FEA022245EA111545EA10654FEA002644
:100800000EF000419D4208BF964244F1FD0404F5FC
:10081000407402D25B084FEA3202B61A65EB030558
:100820005B084FEA32024FF480104FF4002CB6EB15
:10083000020E75EB030E22BFB61A754640EA0C0095
:100840005B084FEA3202B6EB020E75EB030E22BFD5
:10085000B61A754640EA5C005B084FEA3202B6EB16
:10086000020E75EB030E22BFB61A754640EA9C00D5
:100870005B084FEA3202B6EB020E75EB030E22BFA5
:10088000B61A754640EADC0055EA060E18D04FEA63
:10089000051545EA16754FEA06164FEAC30343EA03
:1008A00052734FEAC2025FEA1C1CC0D111F4801FD0
:1008B0000BD141EA00014FF000004FF0004CB6E7C9
:1008C00011F4801F04BF01430020B4F1FD0C88BF68
:1008D000BCF5E06F3FF6AFAEB5EB030C04BFB6EB73
:1008E000020C5FEA500C50F1000041EB045170BD66
:1008F0000EF0004E4EEA113114EB5C04C2BFD4EB93
:100900000C0541EA045170BD41F480114FF0000E16
:10091000013C90E645EA060E8DE60CEA135594EA92
:100920000C0F08BF95EA0C0F3FF43BAF94EA0C0F95
:100930000AD150EA01347FF434AF95EA0C0F7FF40A
:1009400025AF104619462CE795EA0C0F06D152EA5E
:1009500003353FF4FDAE1046194622E750EA410642
:1009600018BF52EA43067FF4C5AE50EA41047FF453
:100970000DAF52EA43057FF4EBAE12E74FF0FF3CB8
:1009800006E000BF4FF0010C02E000BF4FF0010C89
:100990004DF804CD4FEA410C7FEA6C5C4FEA430C02
:1009A00018BF7FEA6C5C1BD001B050EA410C0CBF51
:1009B00052EA430C91EA030F02BF90EA020F0020B3
:1009C000704710F1000F91EA030F58BF994208BF1A
:1009D00090422CBFD8176FEAE37040F001007047D7
:1009E0004FEA410C7FEA6C5C02D150EA013C07D12E
:1009F0004FEA430C7FEA6C5CD6D152EA033CD3D079
:100A00005DF8040B704700BF8446104662468C4672
:100A10001946634600E000BF01B5FFF7B7FF0028A5
:100A200048BF10F1000F01BD4DF808EDFFF7F4FFCE
:100A30000CBF012000205DF808FB00BF4DF808ED59
:100A4000FFF7EAFF34BF012000205DF808FB00BF7C
:100A50004DF808EDFFF7E0FF94BF012000205DF89E
:100A600008FB00BF4DF808EDFFF7CEFF94BF012053
:100A700000205DF808FB00BF4DF808EDFFF7C4FF4C
:100A800034BF012000205DF808FB00BF4FEA410C95
:100A90007FEA6C5C02D150EA013C0AD14FEA430C78
:100AA0007FEA6C5C02D152EA033C02D14FF00000B5
:100AB00070474FF0010070474FEA410212F50012F3
:100AC00015D211D56FF47873B3EB625212D94FEA95
:100AD000C12343F0004343EA505311F0004F23FA7F
:100AE00002F018BF404270474FF00000704750EAD4
:100AF000013005D111F0004008BF6FF00040704791
:100B00004FF00000704700BF4A0011D212F50012EA
:100B100011D20DD56FF47873B3EB62520ED44FEA55
:100B2000C12343F0004343EA505323FA02F07047D5
:100B30004FF00000704750EA013002D14FF0FF3013
:100B400070474FF0000070474FEA4102B2F1E043B6
:100B500024BFB3F5001CDCF1FE5C0DD901F0004CA4
:100B60004FEAC0024CEA5070B2F1004F40EB8300F4
:100B700008BF20F00100704711F0804F21D113F120
:100B80003872BCBF01F00040704741F480114FEA59
:100B90005252C2F11802C2F1200C10FA0CF320FAE2
:100BA00002F018BF40F001004FEAC1234FEAD323FF
:100BB00003FA0CFC40EA0C0023FA02F34FEA430369
:100BC000CCE77FEA625307D150EA01331EBF4FF0F2
:100BD000FE4040F44000704701F0004040F0FE400D
:100BE00040F40000704700BF0348044B834202D02A
:100BF000034B03B118477047CC010020CC01002003
:100C0000000000000548064B1B1AD90F01EBA30199
:100C1000491002D0034B03B118477047CC010020A4
:100C2000CC0100200000000010B5064C237843B929
:100C3000FFF7DAFF044B13B10448AFF30080012340
:100C4000237010BDCC01002000000000FCB800089B
:100C500008B5054B1BB105490548AFF30080BDE859
:100C60000840FFF7CFBF00BF00000000D001002008
:100C7000FCB8000808B5012005F008FC4FF4C0607E
:100C800005F0DAFB40F2026005F0D6FB40F20360AB
:100C900005F0D2FB40F2046005F0CEFB4FF4A060FB
:100CA00005F0CAFB40F2015005F0C6FB40F2197096
:100CB00005F0C2FB40F20E7005F0BEFB40F20F7073
:100CC00005F0BAFB40F20B6005F0B6FB40F209609C
:100CD00005F0B2FB40F20A6005F0AEFB40F20F6097
:100CE00005F0AAFBBDE8084040F2117005F0A4BB76
:100CF00070B504F00DFBFFF7BDFF00F027FA01F01F
:100D000099FB01F003FB00F035FC01F0B1FA01F0B2
:100D1000D7FA00F0C7FA00F0B3FB02F0CFF9C548EC
:100D200007F044FDC44807F041FD012300220221E1
:100D3000C24807F0D3FCC248062104F0CFF8C048EF
:100D400004F0B6F9002800F0AC81BE4DBE4C6B69D2
:100D5000D4ED027A013304BF00236B612B690133A8
:100D600008BF0023F4EE677A08BF2B61F1EE10FA9A
:100D700080F19481BFEE007AF4EE477AF1EE10FA3A
:100D800000F08C81D4ED037AF4EE677AF1EE10FA7C
:100D900080F18181BFEE007AF4EE477AF1EE10FA2D
:100DA00000F07981D4ED067AF4EE677AF1EE10FA6C
:100DB00080F16E81BFEE007AF4EE477AF1EE10FA20
:100DC00000F066816B68D4ED077A013304BF01231C
:100DD0006B60AB68013304BF0023AB60EB68013389
:100DE00008BF4FF47A73F4EE677A08BFEB60F1EE58
:100DF00010FA80F11B81BFEE007AF4EE477AF1EE33
:100E000010FA00F01381D4ED087AF4EE677AF1EE6F
:100E100010FA80F10881BFEE007AF4EE477AF1EE25
:100E200010FA00F00081D4ED097AF4EE677AF1EE61
:100E300010FA80F1F580BFEE007AF4EE477AF1EE19
:100E400010FA00F0ED80D4ED127AF4EE677AF1EE4C
:100E500010FA80F1E280BFEE007AF4EE477AF1EE0C
:100E600010FA00F0DA80D4ED0A7AF4EE677AF1EE47
:100E700010FA80F1CF80BFEE007AF4EE477AF1EEFF
:100E800010FA00F0C780D4ED117AF4EE677AF1EE33
:100E900010FA80F1BB80BFEE007AF4EE477AF1EEF3
:100EA00010FA00F0B380D4ED0E7AF4EE677AF1EE2A
:100EB00010FA80F1A780BFEE007AF4EE477AF1EEE7
:100EC00010FA00F09F80D4ED177AF4EE677AF1EE15
:100ED00010FA80F19480BFEE007AF4EE477AF1EEDA
:100EE00010FA00F08C80D4ED187AF4EE677AF1EE07
:100EF00010FA80F18180BFEE007AF4EE477AF1EECD
:100F000010FA79D0D4ED147A5048514EF4EE677A45
:100F1000D4ED137AF1EE10FA64BF4E4B2365F4EE74
:100F2000677AD4ED167AF1EE10FA64BF4A4BE364A7
:100F3000F4EE677AD4ED157AF1EE10FA64BF474B00
:100F4000A365F4EE677AF1EE10FA64BF444B636573
:100F500002F04EFB00214FF44472424807F047FC78
:100F60006A69A36AC6F8D82064202A69C6F8D42022
:100F7000B3663D4D04F0EEF96421304603F0F2FC17
:100F80003A494FF4007206F1DC0007F07DFC95E869
:100F9000070001F0DFFF002840F08B80344800F0AC
:100FA00009FB344800F020FB00221146282005F000
:100FB000F1F901220021142005F0ECF900220121B1
:100FC000192005F0E7F900220221262005F0E2F9B8
:100FD000294B062101221980DA7000244FF47A701F
:100FE00004F0B8F9AB880134002BF7D095E807007E
:100FF000234601F0C5FEF1E7204B236682E7204B34
:10100000E36570E74FF07E53A3635CE74FF07E53D8
:10101000636448E71B4BA36235E7184BA36422E7E0
:10102000194B63620FE7194B2362FCE60023E3616F
:10103000E9E600BF30BA00083CBA00085CBA000814
:101040007837002090370020903B00207834002033
:101050005831002000004841000048C10000824291
:10106000000082C23C2E00204C310020A837002016
:10107000E8010020FC010020683400200000A040AE
:101080000000FA430000A841000060410000FA425D
:101090000023A36196E6094BE36083E6084BA36057
:1010A00070E60849084800F067FB084807F07EFB37
:1010B0004BE6074807F07AFB70E700BF00002042CC
:1010C00000007A44903B00209037002078BA000856
:1010D000C8BA000808B514484FF4006105F0D2F80A
:1010E0001248002105F0D8FB002211460F4805F0F8
:1010F0006BFD0E480022012105F066FD0B48002221
:10110000022105F061FD00221146084805F0FEFCB1
:1011100006480022012105F0F9FCBDE8084003481B
:101120000022022105F0F2BC00080140002C014021
:10113000024A136803431360FFF7CCBF903C0020C2
:10114000014B1868704700BF903C002010B5504814
:10115000012105F0ABF84F48012105F0A7F84E48F2
:101160004FF4A0530122182105F034F84A484FF4F7
:1011700000630122042105F02DF84FF40043012201
:101180004648102105F026F844484FF4004105F088
:1011900077F843484FF420430122182105F01AF84C
:1011A0003F484FF480430122482105F013F84FF4E3
:1011B000805301223A48102105F00CF838484FF4CA
:1011C000805105F05DF835484FF40063022210218C
:1011D00005F000F84FF4805303223048042104F056
:1011E000F9FF2E484FF4006105F04CF82B484FF4FE
:1011F000E0630322182104F0EDFF274803230422B3
:10120000002104F0E7FF264801230422002104F016
:10121000E1FF21480C230422002104F0DBFF1F48DA
:10122000F0230422002104F0D5FF1B4830230422C0
:10123000002104F0CFFF4FF4005302221648102182
:1012400004F0C8FF14484FF4005105F01BF8134890
:1012500004230122182104F0BDFF082301220F48B6
:10126000042104F0B7FF01214FF4EA1005F01EF845
:101270000B484FF480730222482104F0ABFFBDE815
:10128000104007484FF400730322182104F0A2BF56
:101290000010200000023000001001400008014052
:1012A000000C014070B5714888B0002104F03EFD8B
:1012B0006F4A704B01920024042503934FF400728F
:1012C0004FF400634FF48076029204930DEB050215
:1012D0004FF4805321466548ADF81C60CDE90553B5
:1012E0008DF81E4004F040FD2146604804F07AFD70
:1012F00021465E4804F088FD5F4804F071F95F48BC
:1013000004F06EF94FF4803004F0B8F931465A48D1
:10131000012204F0C3F922465748022104F0BEF925
:1013200031465648012204F0B9F9224653480221B9
:1013300004F0B4F92146504804F0D8F92A464E4842
:10134000012104F0DDF901224B48022104F0D8F913
:1013500021464A4804F0CAF92A464848012104F0C7
:10136000CFF946480122022104F0CAF9234621465A
:101370004148062204F0E2F923463F480F220121AA
:1013800004F0DCF923463C480722022104F0D6F998
:10139000234639480822032104F0D0F92346214688
:1013A0003648052204F0CAF9234634480E220121AA
:1013B00004F0C4F923462A463048022104F0BEF95D
:1013C00023462E480C22032104F0B8F92A484FF492
:1013D0006022012104F05EFA01221146264804F041
:1013E0003DFA26484FF46022012104F053FA01220D
:1013F0001146224804F032FA234621461E480B22A9
:1014000004F0F4F9234621461C480A2204F0EEF9C0
:1014100019484FF4E042022104F03CFA1648012238
:10142000022104F01BFA15484FF4E042022104F0B7
:1014300031FA01220221114804F010FA0E4804F09A
:1014400017F90E4804F014F90B4804F0F7F80B48AC
:1014500004F0F4F8012003F07DFF074804F0F6F8EB
:10146000064804F0F3F808B070BD00BF0000024069
:101470004C240140983C00200024014000280140F9
:1014800070B5384888B0042104F050FC3649374A1A
:1014900001914FF48063012400254FF4807603927C
:1014A000049301AA4FF480532E4806930421ADF80B
:1014B0001C6002968DF81E50059404F055FC2948D6
:1014C000042104F08FFC0421264804F09DFC2848E8
:1014D00004F086F822463146254804F0DFF82A4613
:1014E0002348022104F0DAF82946214804F0FEF8E6
:1014F000224621461E4804F003F922461C480221D8
:1015000004F0FEF82B46294619480D2204F016F97E
:10151000214617484FF4602204F0BCF922462146C8
:10152000134804F09BF92B46294611480D2204F07C
:101530005DF90F484FF4E042022104F0ABF9224676
:1015400002210B4804F08AF9094804F091F8084890
:1015500004F074F8204603F0FDFE054804F076F828
:1015600008B070BD000402404C3C0140943C002097
:10157000003C014000B585B001A9002004F0E0F96D
:101580000A4804F0CBF90A484FF48072CDE9010211
:101590004FF4802301A90548039304F003FA03489C
:1015A000022104F0BFFB05B000BD00BF0064004095
:1015B0000000090300B5014687B0032004F0C0F91C
:1015C00001A9012004F0BCF900234FF4803101226D
:1015D00001A8CDE90133CDE903318DF8142004F0E1
:1015E00073FA07B000BD00BF00B583B0014601909B
:1015F000022004F0A5F9054A0199906808600023CB
:1016000006228A724B600B8103B000BD9037002028
:10161000F0B52DED028B1E4D83B00446F0EE608ACE
:10162000B0EE418AD5ED130A95ED141A0191102000
:1016300003F036F895ED161AD5ED150A0746B0EE0B
:10164000680A0C2003F02CF8D5ED030A95ED0E7A0C
:10165000D5ED117A60EEC70A064660EEA70AB0EE35
:10166000480AB1EE601A0C2003F01AF8031201992F
:10167000E17203EB06137ABA3111E3730023A1730D
:10168000A28120746374A37403B0BDEC028BF0BD1F
:10169000903B002084B0F0B52DED028B83B00AACF6
:1016A00084E80F009DF836309DF835709DF839209C
:1016B0009DF83760BDF833002D4C9DF838E09DF85B
:1016C0003A10D4ED140A94ED130A0F9D9FED298A68
:1016D0004FEA032C1B0943EA07170CF470631E43FF
:1016E000130240BA120903F470630B4342EA0E126C
:1016F00080B210210092019302F0E6FF85ED000A0E
:10170000D4ED160A94ED150A38460C2102F0DCFFE0
:1017100085ED010AD4ED170A3046B0EE480A0C21D7
:1017200002F0D2FF85ED020AD4ED180A00980C21D0
:10173000B0EE480A02F0C8FF85ED030A94ED030AF3
:1017400094ED0E7AD4ED117A019820EE470A0C211F
:1017500020EE270AF1EE400A02F0B6FF85ED040AFA
:1017600003B0BDEC028BBDE8F04004B0704700BF91
:10177000903B00200000000070B54FF480620C46E2
:101780000546002107F033F801264FF4807200214E
:10179000204607F02CF86E60002300224FF47A7682
:1017A000C5E904222A60AA60EE60154ADFED156AD9
:1017B0009FED157ADFED157AA3614FF07E51E3615D
:1017C0006363E3632364124BDFF858E0DFF858C02B
:1017D0001048A1636164A2640F49236522660F4B20
:1017E0000F4AC4ED026A84ED037AC4ED087AC4F8A6
:1017F00054E0C4F858C0E164E0656262A36270BD61
:101800000000A04000007A44000020420000FA429C
:10181000000048410000FA43000048C10000A84110
:1018200000006041000082C20000824270B50E4696
:101830001E49A0F1040E00F57F754FF0FF305EF8F1
:10184000044F4FF0000C24FA0CF3DBB2584008228E
:1018500040F300030B40013A83EA5000F8D10CF149
:10186000080CBCF1200FEED17545E8D10F49B64602
:1018700006F58075DEF800404FF0000C24FA0CF3FA
:10188000DBB25840082240F300030B40013A83EAE0
:101890005000F8D10CF1080CBCF1200FEED10EF184
:1018A000040EAE45E6D1C04370BD00BF2083B8ED45
:1018B0000368012B00F22C8243687F2B00F2288200
:1018C00083687F2B00F22482C368DE4A013B934287
:1018D00000F21E820369DFF8A4C34FF6FF721344BF
:1018E000634500F2158243691A44624500F2108292
:1018F000D1ED027A9FEDD47AF0EEE76AF4EE476A12
:10190000F1EE10FA00F20482DFEDDD6AF4EEE67A21
:10191000F1EE10FAC0F2FC81DFEDCC6AF4EEE67A6B
:10192000F1EE10FA00F2F481D1ED037AF0EEE76AFD
:10193000F4EE476AF1EE10FA00F2EA819FEDC47A04
:10194000F4EEC77AF1EE10FAC0F2E2819FEDC17AAF
:10195000F4EEC77AF1EE10FA00F2DA81D1ED064A20
:10196000DFEDB96AB0EEE47AB4EE667AF1EE10FA21
:1019700000F2CE81F5EEC04AF1EE10FAC0F2C88155
:101980009FEDB57AF4EEC74AF1EE10FA00F2C0818D
:1019900091ED077AB0EEC76AB4EE666AF1EE10FA1E
:1019A00000F2B681B5EEC07AF1EE10FAC0F2B08165
:1019B0009FEDB36AB4EEC67AF1EE10FA00F2A88198
:1019C00091ED087AB0EEC76AB4EE666AF1EE10FAED
:1019D00000F29E81F7EE006AB4EEE67AF1EE10FABC
:1019E000C0F29681DFED9D6AB4EEE67AF1EE10FA70
:1019F00000F28E8191ED095ADFED936AB0EEC57A5F
:101A0000B4EE667AF1EE10FA00F282819FED907AE0
:101A1000B4EEC75AF1EE10FAC0F27A819FED907AD7
:101A2000B4EEC75AF1EE10FA00F2728191ED0A7A23
:101A3000B0EEC76AB4EE666AF1EE10FA00F26881A1
:101A4000B7EE006AB4EEC67AF1EE10FAC0F2608129
:101A50009FED846AB4EEC67AF1EE10FA00F2588176
:101A600091ED0D7AB0EEC76AB4EE666AF1EE10FA47
:101A700000F24E81B5EEC07AF1EE10FAC0F2488164
:101A8000DFED7F6AB4EEE67AF1EE10FA00F2408103
:101A9000D1ED0E6A9FED6C7AB0EEE66AB4EE476A5D
:101AA000F1EE10FA00F234819FED6F6AF4EEC66A2F
:101AB000F1EE10FAC0F22C81B2EE046AF4EEC66ABE
:101AC000F1EE10FA00F22481D1ED0F6AB0EEE66A71
:101AD000B4EE476AF1EE10FA00F21A81F5EEC06A30
:101AE000F1EE10FAC0F214819FED606AF4EEC66A5E
:101AF000F1EE10FA00F20C81D1ED106AB0EEE66A58
:101B0000B4EE476AF1EE10FA00F20281F5EEC06A17
:101B1000F1EE10FAC0F2FC809FED556AF4EEC66A51
:101B2000F1EE10FA00F2F480D1ED116AB0EEE66A3F
:101B3000B4EE476AF1EE10FA00F2EA809FED4D7ABA
:101B4000F4EEC76AF1EE10FAC0F2E2809FED477A38
:101B5000F4EEC76AF1EE10FA00F2DA80D1ED126A03
:101B60009FED397AB0EEE66AB4EE476AF1EE10FA0C
:101B700000F2CE809FED366AF4EEC66AF1EE10FAFE
:101B8000C0F2C680B3EE046AF4EEC66AF1EE10FA53
:101B900000F2BE80D1ED135AF0EEE56AF4EE476A2A
:101BA000F1EE10FA00F2B480DFED336AF4EEE65A9B
:101BB000F1EE10FAC0F2AC80F5EEC05AF1EE10FA78
:101BC00000F2A68091ED146AF0EEC66AF4EE476A60
:101BD000F1EE10FA00F29C80B5EEC06AF1EE10FA58
:101BE000C0F296809FED214AB4EEC46AF1EE10FA7D
:101BF00000F28E80D1ED156AB0EE473AB0EEE67A8B
:101C0000B4EE437AF1EE10FA00F282809FED1A7A78
:101C1000F4EEC76AF1EE10FA7ADBF5EEC06AF1EE87
:101C200010FA75D891ED167AF0EEC73AF4EE433A11
:101C3000F1EE10FA6CD8B5EEC07AF1EE10FA67DB6F
:101C400020E000BF9F860100FFFF7F7F0000FA4475
:101C5000CDCCCC3D00007042000004420000164391
:101C6000000020420000804217B7D13800007A44BB
:101C70000050C3476F12833A00007AC4FEFF010090
:101C80000000C842B4EEC47AF1EE10FA40D8D1EDAB
:101C9000173AF0EEE32AF4EE432AF1EE10FA37D8C1
:101CA000F5EEC03AF1EE10FA32DBF4EEC43AF1EEA2
:101CB00010FA2DD891ED184AF0EE433AB0EEC43A3E
:101CC000B4EE633AF1EE10FA22D8B5EEC04AF1EE66
:101CD00010FA1DDB5FED163AB4EEE34AF1EE10FAAE
:101CE00016D8F4EEE47AF1EE10FA11DBF4EEC57AD0
:101CF000F1EE10FA0CDBF4EEC65AF1EE10FA07D54D
:101D0000F4EEC76AF1EE10FA4CBF012000207047D4
:101D10000020704730B5DFF83CC083B06045069DB9
:101D2000079C02D0002003B030BD0229FAD1B2F5E1
:101D3000A07FF7D1214628460193FFF777FD019B4D
:101D40009842EFD12146284603B0BDE83040FFF766
:101D5000AFBD00BF4154484E401A0028D4BF0020F8
:101D60000120704740B12AB15B1A002BD4BF00207C
:101D7000012070471046704782420CBF4FF0FF3081
:101D80000120704711B10AB1082B01D00020704723
:101D9000009BC01AB3F5006FB0FA80F04FEA501004
:101DA00028BF0020704700BF431E00F1060C13F847
:101DB000012FFF2A09D16345F9D1C279131DDBB286
:101DC000022B02D80A70012070470020704700BF24
:101DD00038B5C0F30D0444F4804440F44045204637
:101DE00009F046FD002814BF2846204638BD00BF34
:101DF00010B5044609F03CFD28B914F4804F18BF13
:101E00006FF0010010BD4FF0FF3010BDC0F30D00AA
:101E1000C1F30D01401AB0F5005F03DDA0F580406D
:101E200000B2704710F5005FB8BF00F5804000B207
:101E3000704700BF0378A52B20D143785A2B1DD1C2
:101E40008378012B1AD18379C3B910B5DFF838E054
:101E50000C46421E811D12F801CF83EA0C03914209
:101E60001EF80330F7D1C2799A420AD1C3782370A1
:101E7000037963704379A370002010BD4FF0FF30E9
:101E800070476FF0010010BD18B9000890F800C04D
:101E90006CF07F0C83F800C090F801C083F801C09B
:101EA000807898704FEA122CD970100C110E1A71AC
:101EB00083F805C09871D971704700BF70B5904C18
:101EC0000168236840F201720133914288B02360B7
:101ED00006D1037A23B9437A13B9827A082A04D047
:101EE000A3680133A36008B070BD02A90B30009352
:101EF000FFF7A0FF18B1E3680133E360F3E703F0F5
:101F000041FA8049009B0A68821A132A03D8636940
:101F100001336361E7E7626808609DF808100132E9
:101F20006260032900F29481DFE801F0355F10025E
:101F30009DF80A100F2931D8DFE801F08186848EE0
:101F40008C8A889C30989490A29E30A69DF80A2096
:101F50001E2A23D8DFE812F05F0159015301FD006A
:101F6000F900F600D00022002200CA0073017001BF
:101F70006A016401C400BB00B700B300AA00A1005D
:101F800022002200220022006C005E0070009B00F4
:101F90005E006C0070009DF80A2082B30123216965
:101FA00001310022216103A90220CDE9002303F0C1
:101FB000C7FC00230493ADF8143040F281730393FF
:101FC0000823DDE9002102A88DF816300DF1170372
:101FD000FFF75CFF4C4803A903F0F0FD032800F075
:101FE0003181A3690133A3617DE79DF80A20042AAA
:101FF00000F23081DFE802F003070C050A00434AD3
:10200000D1E7434ACFE74FF48032CCE7414ACAE7F1
:102010000F22C8E7404A9FED417AD2ED037A40494A
:10202000404AB4EEE77AF1EE10FAB8BF0A46BAE7D2
:102030003D4AD2F80620B6E740F21542B3E72268DF
:102040000B46B0E7A268AEE76268ACE7A269AAE710
:102050006269A8E72269A6E7E268A4E7334AD2F8F2
:102060000023A0E7324AD2F8FC229CE72F4AD2F89C
:10207000FC2298E7E26996E72C4AD2F8082392E717
:102080002A4AD2F804238EE72A4A12688BE7009383
:1020900000F050FE009B024685E72749D1F83C2C12
:1020A000D1F82C1C92B242EA01427CE72249D1F8D5
:1020B000342CD1F8381C92B242EA014273E71C4A30
:1020C000D2F8B4206FE71D4AD2F818246BE71749FD
:1020D00091F8DE22002A00F0B980D1F8E62262E70A
:1020E000174AD188128942EA01425CE710490A89FD
:1020F000C96842EA014256E70C4AD2F8802052E70A
:10210000AC3C0020A83C0020006400404154484EF4
:1021100001D1E0A701E80300903B0020000020422D
:10212000A0008002A000C0024C31002058310020E5
:1021300078340020CC3C00200020014000600040AA
:10214000983C0020444A926F2DE7434AD2F8E0229F
:1021500029E74FF480514148009304F09BF84FF475
:10216000006106463D4804F09BF83D493D4A031E88
:10217000D1F8440CC0F3C03ED2F81804D2F818C409
:102180004FEA401000F02005D2F81804D1F8202CB6
:102190004FEA022202F4807218BF01232A4342EA66
:1021A00043022D4B93F8DD32003B18BF012342EA76
:1021B000C3022D4B93F8F532003B18BF012342EACE
:1021C0000312CCF3400C42EA8E02C0F3800042EAD4
:1021D0008C1242EAC012D1F8200CD1F8201C009BCE
:1021E000C0F3001042EA4022C1F3002142EA8122FA
:1021F000002E08BF42F0010242F00042D3E60093F5
:10220000FEF79EFF009B0246CDE6009303F0BAF86E
:10221000009B0246C7E614491346D1F8F822C2E6ED
:10222000124A5188928842EA0142BCE60F4A51891B
:10223000128842EA0142B6E60C4AD268B3E60A4A7C
:10224000128AB0E6E3690133E3614CE60323AAE6B0
:102250000423A4E60B46A2E6583100200008014002
:10226000002001400060004078340020983C0020AD
:1022700000B5114889B004F0B5F99FED0D7B4FF41E
:1022800000724FF4827100234FF40060CDE9001317
:10229000CDE9020218236946074806938DED047BB9
:1022A00004F0CEF9044804F0E5F909B000BD00BF20
:1022B00000000000010000000038004000000000A5
:1022C00000B5114889B004F08DF99FED0D7B4FF4F6
:1022D00000724FF4827100234FF40060CDE90013C7
:1022E000CDE9020210236946074806938DED047B71
:1022F00004F0A6F9044804F0BDF909B000BD00BF20
:102300000000000001000000003C004070B548489B
:102310008CB004F0C1F908A8002404F033FA0125B8
:102320004FF400134FF4FA6208A9414808930A9247
:1023300009948DF82C5004F02DFA3D4804F084FCEB
:1023400021463B4804F06AFC2946394804F06EFCFB
:10235000374804F077FA01A804F0A8FA022601AA87
:10236000214633480394CDE9014604F0A5FA2146FD
:102370002F48602204F0A2FB21462D48042204F0DD
:10238000FBFB21462A48082204F0CEFB22462146C8
:10239000274804F0BBFB01AA2946254804F08CFA23
:1023A00029462348602204F089FB2946204804225C
:1023B00004F0E2FB29461E48082204F0B5FB224641
:1023C00029461B4804F0A2FB01AA3146184804F034
:1023D00073FA31461648602204F070FB3146144807
:1023E000042204F0C9FB31461148082204F09CFB8A
:1023F000224631460E4804F089FB04A804F030FA66
:102400004FF0005304A90A480694CDE90443ADF8FF
:102410001C4004F02BFA2146054804F03DFA2946F9
:10242000034804F015FA024804F006FA0CB070BD37
:10243000002C014008B50D4804F00CFC0B484FF48B
:10244000E13104F053FC0948042104F08FFC082119
:10245000064804F085FC054804F07CFCBDE8084013
:10246000024840F2053104F097BC00BF0044004030
:1024700038B50546E9B20C4804F07EFC41F201048F
:1024800001E0013C07D00848072104F07DFC00284A
:10249000F7D0284638BD054A13684FF0FF350133A1
:1024A0001360284638BD00BF00440040CC3C0020EB
:1024B000F0B52DED028B604D1446002687B02E60DE
:1024C0000A46217C0746002975D0E168DFED5B6A8A
:1024D0005B1A07EE903AF8EEE77AB7EE007A67EE0D
:1024E000A67AF4EEC77AF1EE10FAC4ED057A6ED44E
:1024F000F0EE006AF4EEE67AF1EE10FA00F1838075
:10250000104601F0FDF894ED067A97ED038ADFEDB1
:102510004C6A8DED027A78EE477AF0EEE77AC6EEF5
:10252000A77A17EE900AFDF7BFFF41EC100B08F0F9
:10253000E1FF51EC100BFEF7E7FA9DED027A2070F7
:10254000B4EEC87AF1EE10FA2FD401233D4884F896
:10255000203006F02BF921783B4806F0BFF8A0693F
:10256000FDF7A2FF02460B4618EE100ACDE9022342
:10257000FDF79AFFDDE90223CDE90001334806F0BB
:10258000ADF894F820302B602378314907EE903A6B
:10259000F8EE677A00220123C1ED0A7A227484F8EA
:1025A000213007B0BDEC028BF0BD84F820602948D3
:1025B00006F0FCF8CFE728480593029206F0F6F8FB
:1025C0000121059B2174029AE3600021616104F5F9
:1025D000005101F6884501F5496100231C48A360BC
:1025E0002B600B60806CC2F8A40004F53051C2F877
:1025F000A8302C31104601F0F5F8FB68A36107B054
:10260000BDEC028BF0BD77EEC77A9FED0D7A04F535
:10261000325367EE877A04F5305108332C31104677
:10262000C4ED027AC3ED007A07B0BDEC028BBDE8C1
:10263000F04001F0D7B800BF90370020D1CB0B3865
:10264000DB0FC9404CBB000864BB000878BB000826
:10265000903B002034BB000810BB00082DE9F0417E
:10266000C24E96ED0A7A2DED028BF3EE057AB4EEAA
:10267000E77AF1EE10FA84B000F312811D46137C64
:1026800014460F468046002B00F0D880D3689FED9B
:10269000B87AEB1A07EE903AF8EEE77AB7EE006AEE
:1026A00067EE877AF4EEC67AF1EE10FAC2ED057A9B
:1026B00000F1D2809FEDAF8A96ED0A7A67EE085A54
:1026C000C5EE886A76EE866AF4EEE67AF1EE10FAE6
:1026D00078D4DFEDA96A27EE267AC7EE086A36EECF
:1026E000867AF4EEC77AF1EE10FA00F1E28008463D
:1026F00001F006F8D6ED0A7ABDEEE77A17EE103A49
:10270000002B40F3928104EB432303F1280204F1F0
:102710002801002351F8040F91420344FAD107EE37
:10272000103AB8EEC77A9FED956AE56A9FED938AF5
:10273000DFED938A27EE866AD5F58035C7EE066A07
:1027400048BF05F2FF156D120027FDEEE66AC4EDE5
:10275000076A07EE107AF8EEC75A67EE886A65EEE8
:10276000A75A6FF03F0265EE885A002165EEA85A1D
:10277000B7EE005A13E036EEC56AB4EEC76AF1EE62
:1027800010FA03D537EE667AFDEEC77A17EE903A67
:1027900004EB83030132DB6A402A194433D007EE8D
:1027A000902AF8EEE77A77EEA57AFDEEE77A17EE53
:1027B000903A002BB8EEE77ADDDA37EE267AFDEEB6
:1027C000C77AE3E7D2ED027A9FED6E7A77EE877AE9
:1027D00002F53253084602F53051C2ED027A2C312F
:1027E000C3ED027A00F0FEFF94ED057AD4ED0A7A8B
:1027F000B4EEE77AF1EE10FA00F3D08004B0BDEC4D
:10280000028BBDE8F0810029B8BF7F317F2D4FEAF0
:10281000E1122946C8BFA5F18001E06901F68A23CB
:1028200004EB8303121A5A605748013705F056FF2C
:10283000802F2BD0D6ED0A7A01358AE753480393CF
:1028400005F0B4FF039BA384002363610123237479
:102850004FF07E53E560A36204F532530022A2607C
:102860009A60B06CC7F8A40004F53051C7F8A820EE
:102870002C31384600F0B6FFD8F80C206369A2610D
:10288000A36204B0BDEC028BBDE8F08100220123FD
:10289000227484F8223004B0BDEC028BBDE8F081D4
:1028A0003B48152104B0BDEC028BBDE8F04105F0BA
:1028B00015BFD2ED027A9FED337A77EEC77A0846DC
:1028C000C2ED027AB36CC1F8A4300023C1F8A8307D
:1028D00002F5325302F53051C3ED027A2C3100F08B
:1028E00081FF94ED057AD4ED0A7AB4EEE77AF1EE41
:1028F00010FA83DDA78C002F80D096ED0A7AD4EDF4
:10290000027ADFED256AD8F87430A06827EE087ADD
:1029100067EEA66AC6EE877AFDEEE77A17EE902A92
:102920009B1ADD1305F480351D4404EB8703CDEDC0
:10293000037AD96A0D4405EBD5756D10DD62FDF79C
:10294000B3FD2B46CDE90001039A1248394605F044
:10295000C5FED4ED0A7A9FED0A7AA38C77EE877ACA
:10296000013BA384C4ED0A7A48E700BF903B0020F6
:10297000D1CB0B38DB0FC940DB0F494100000043CE
:102980000000003C5F975B39FCBB0008C4BB00083B
:1029900094BB0008ECBB00080000804794ED026A7D
:1029A00096ED0A7A5FED046AD8F87430A78C66EE6B
:1029B000266A27EE087A16EE100AC6EE877AFDEE32
:1029C000E77A17EE902A9B1ADD1305F480351D4433
:1029D00004EB8703CDED037ADD62FDF765FD2B4641
:1029E000CDE90001039A1248394605F077FE9FEDC4
:1029F000116A94ED0A7ADFED106AA38C37EE067A3D
:102A0000FFEE007A84ED0A7A96ED0A6A07EE103A34
:102A1000E6EE267AB8EEC77AB4EE677AF1EE10FAEF
:102A20003FF4ECAE0133A384E8E69FED047A7AE646
:102A3000ECBB00080000003C000000430000000068
:102A400070B504464FF6FF7384B037482180638029
:102A50004FF48051164603F015FC00230393039BAB
:102A60003F2B06D800BF039B01330393039B3F2BEF
:102A7000F8D940F6010501E0013D40D02B48022184
:102A800003F004FE0028F7D02188284803F0F8FD61
:102A900040F6010501E0013D40D02448012103F04A
:102AA000F5FD0028F7D0214803F0ECFD40F60105C4
:102AB000608001E0013D34D01C48802103F0E6FD38
:102AC0000128F7D000230293029B3F2B4FF0000513
:102AD0001CD915484FF4805103F0D2FB0023019319
:102AE000019B3F2B06D800BF019B01330193019B43
:102AF0003F2BF8D963883380284604B070BD4FF06F
:102B0000FF3500230293029B3F2BE2D800BF029BBC
:102B100001330293029B3F2BF8D9DAE76FF00105EE
:102B2000EFE76FF00205ECE7000C014000380040D1
:102B30002DE9F041002384B0224C0393CDE9013309
:102B4000804601AD04F10C07012634F8021B2A4629
:102B50004046FFF775FF002814BF002606F0010667
:102B6000BC4205F10205F0D1BDF80630BDF80820E1
:102B700013439BB20BBBBDF80A30C3F30A03A02B6F
:102B80001BD1114B9FED117AD3ED037ABDF80C20C8
:102B9000B4EEE77AF1EE10FAACBF4FF430734FF4B5
:102BA00020739A4209D1BDF80E2040F215439A4293
:102BB00003D1701E04B0BDE8F0814FF0FF3004B0C7
:102BC000BDE8F081DCC30008903B002000002042FB
:102BD00000B585B004AB03E907000B48002103F002
:102BE0005BFE4FF40061094803F04AFB02F0CAFBA8
:102BF000074A0849084B08604FF0010C82F800C0F2
:102C000000221A7005B000BD002C014000080140F0
:102C1000D53C0020D03C0020D43C002030B53E4BB9
:102C200089B001AC84E807001A780AB909B030BD50
:102C30003A4A156802F0A6FB0A220146284602F02D
:102C400009FB0028F2D0344B354800224FF4805164
:102C50001A7003F01FFB002858D094E8070005AB5A
:102C600003C341F2A1011A8005A80DF112020093DD
:102C7000FFF7E6FE2B4A9FED2C7AD2ED037A009BFC
:102C800094E80700B4EEE77AF1EE10FA0DF1140CB7
:102C9000ACE80300A8BF4FF44B511A80B8BF4FF403
:102CA0004A510DF1120205A8FFF7CAFE94E8070089
:102CB000009B0DF1140CACE803001A8042F615419C
:102CC0000DF1120205A8FFF7BBFE2046FFF730FF0B
:102CD0000446D8B912484FF4805103F0DBFAA8B18A
:102CE000124B1348012221461A7003F06DFF012296
:102CF00011460F4803F068FF0D480122022103F03E
:102D000063FF0B48012103F0C7FD8FE72020FEF78A
:102D10000FFA09B030BD00BFD53C0020D03C0020E8
:102D200000080140903B002000002042D43C0020DD
:102D3000002C0140024B1878003818BF0120704762
:102D4000D43C002000B585B004AB03E90700084877
:102D5000002103F0A1FD07484FF4006103F092FA4F
:102D60000549064A00230B70137005B000BD00BF73
:102D7000002C014000080140D53C0020D43C00203C
:102D8000F0B589B001AC84E8070094E8070005AE0F
:102D900003C64FF40041328005A80DF112021F4610
:102DA000FFF74EFE94E8070005AB03C332804FF4F3
:102DB00008410DF1120205A8BDF81250FFF740FEC0
:102DC000BDF8124054EA05031FD12B0743D46F0707
:102DD00046D4AE0749D4ED074CD460054FD4A105C5
:102DE00052D4E20555D4230658D467065BD4A60610
:102DF0005ED4E50661D4200764D4610767D4A207D6
:102E00006AD4E3076DD409B0F0BD3B48394605F0FC
:102E100065FC6A056BD4AB0502D5384805F05EFC4D
:102E2000EF0502D5364805F059FC2E0602D5354887
:102E300005F054FC680602D5334805F04FFCA9069E
:102E400002D5324805F04AFCEA06BED5304805F006
:102E500045FC2B07BBD52F4805F040FC6F07B8D5C4
:102E60002D4805F03BFCAE07B5D52C4805F036FCE7
:102E7000ED07B2D52A4805F031FC6005AFD52948E9
:102E800005F02CFCA105ACD5274805F027FCE20590
:102E9000A9D5264805F022FC2306A6D5244805F02E
:102EA0001DFC6706A3D5234805F018FCA606A0D58F
:102EB000214805F013FCE5069DD5204805F00EFCE1
:102EC00020079AD51E4805F009FC610797D51D48D3
:102ED00005F004FCA20794D51B4805F0FFFBE307AF
:102EE00091D51A4809B0BDE8F04005F0F7BB184885
:102EF00005F0F4FB8FE700BF08BC000828BC000801
:102F000034BC00083CBC000844BC00084CBC0008B1
:102F100058BC000864BC000870BC00087CBC0008F9
:102F200088BC000894BC00089CBC0008A4BC000835
:102F3000ACBC0008B4BC0008BCBC0008C8BC00089D
:102F4000D4BC0008E0BC0008ECBC0008F8BC0008D9
:102F50001CBC0008F0B589B001AC84E80700FEF79E
:102F6000B9F84F4BDFED4F7A93ED037AB4EEE77A81
:102F7000F1EE10FA59D84FF400614B4803F080F994
:102F80000A2002F0E7F994E8070005AE03C605AD94
:102F90000DF11207328041F2A1013A462846FFF7AF
:102FA0004FFD94E807002B4603C3328043F2DC2137
:102FB0003A462846FFF744FD3C4800F0F3FA4FF448
:102FC0004B5394E807002E4603C619463280284624
:102FD0003A46FFF735FD94E807002B4603C33280DD
:102FE00042F615413A462846FFF72AFD2E484FF48F
:102FF000805103F04FF900283ED02046FFF798FD9E
:103000000446002838D12A48214603F045FC2648CA
:103010004FF4006103F036F9264A274B14701C70F8
:10302000FEF758F8204609B0F0BD4FF400611E4885
:1030300003F026F90A2002F08DF994E8070005AEA6
:1030400003C605AD0DF11207328041F2A1013A46E7
:103050002846FFF7F5FC94E807002B4603C33280AF
:1030600043F29C213A462846FFF7EAFC0F4800F05D
:1030700099FA4FF44A53A4E72020FEF759F80C4878
:10308000002103F009FC4FF40061074803F0FAF84F
:103090000849094A00230B704FF0FF341370C1E751
:1030A000903B0020000020420008014078340020BE
:1030B000002C0140D53C0020D43C002008B50C2158
:1030C000002003F035F94FF480500222002102F075
:1030D000ADFEBDE808404FF4805002F0FFBE00BFD7
:1030E000044A072928BF07210023C0E901210370F2
:1030F000704700BF00C0030810B5044602F0F4FE9C
:1031000040F2073003F058F8606802F021FF012315
:10311000237010BD84B00DF1100C0CE9070002986B
:10312000049900EB830004B002F0B2BF84B00DF14B
:10313000100C0CE907000298049900EB830004B01E
:1031400002F0A6BF84B00DF1100C0CE90700029844
:1031500010EE101A00EB830004B002F099BF00BF1C
:1031600000B583B0019002F0DFFE019800230370E8
:1031700003B000BD84B00DF1100C0CE9070051F84C
:10318000230004B0704700BF84B00DF1100C0CE9AF
:10319000070051F8230004B0704700BF84B00DF160
:1031A000100C0CE9070001EB830292ED000A04B059
:1031B000704700BF08B590ED167AD0ED186A1C4B29
:1031C000F7EE007A2DED048B37EEC77A9FED199A52
:1031D000D0ED178A1968184827EE097A77EEE88A41
:1031E00037EEE68AFCEEC77A17EE902AC9B903F0EB
:1031F0008DFC1148012168EE898AFCEEE87A17EE11
:10320000902A03F083FC68EE097ABDEC048BFCEE97
:10321000E77ABDE80840084817EE902A022103F03B
:1032200075BC012103F072FC03480021E3E700BFF5
:10323000903700200000FA44002C014038B5484B7C
:103240001C680546002C7ED12146464802F046FB0C
:103250000346AB604448214602F040FB0346414828
:10326000EB60022102F02CFB4048022102F028FB17
:1032700040F6010401E0013C50D03A48042102F03C
:1032800041FB0028F7D040F6010401E0013C45D0A5
:103290003648042102F036FB0028F7D031480421DB
:1032A00002F036FB3148042102F032FB00212F48A6
:1032B00002F014FBAA68D5F89810EB68D5ED1C6AEB
:1032C000DFED2B5A2861521A07EE102AD5F89C2000
:1032D00007EE900A9B1AB8EEE76A07EE903AB8EE4E
:1032E000C77AF8EEE77A27EE267A67EEA67AD5F85F
:1032F000F83285ED067AF1EE476A26EE256A76EE1B
:10330000E76A0122013385F8F52285ED086AC5EDEB
:10331000077AC5ED056AC5F8F83238BD11480421B1
:1033200002F0F6FA1148042102F0F2FAD5F8FC3264
:103330000022013385F8F522C5F8FC328020BDE873
:103340003840FDF7F5BE0021074802F0C7FA0346F2
:10335000AB600448002102F0C1FA03467FE700BFDA
:10336000903700200024014000280140003C01402B
:103370001833533C00B52DED028B87B0CDE9021018
:10338000CDED050A8DED041A0192F0EE408A01F0B0
:10339000D5F9B0EE408AB0EE680A01F0A9F9F6EE70
:1033A000007A67EEC06ADFED175A9FED176A9DED50
:1033B000041ADDED050A03980299019A67EEC87AAE
:1033C000B0EE667AA8EE257AE8EE656AF0EE675A06
:1033D000E0EE065AE0EE467A21EE477A21EE400A08
:1033E00021EE661AA8EE200AA5EEA07AA7EEA01A92
:1033F00080ED000A81ED007A82ED001A07B0BDEC85
:10340000028B00BDD7B35DBFD7B35D3F00B52DEDD7
:10341000028B87B0CDE90110CDED050A8DED041AC0
:10342000CDED031AF0EE408A01F088F9B0EE408A43
:10343000B0EE680A01F05CF9B6EE007A67EE486A11
:1034400027EE407ADFED185A9FED186A9DED041AB9
:10345000DDED050ADDED031A02980199F0EE667ABA
:10346000B0EE475AA8EE065AE0EE257AA8EE467A64
:1034700067EE817A21EE451AE0EE656AE8EE207A81
:10348000A0EE601AE6EEA17AA7EE611A9FED086A37
:1034900067EE867A21EE061AC0ED007A81ED001AF9
:1034A00007B0BDEC028B00BDD7B35D3FD7B35DBFA6
:1034B000ABAA2A3F00B52DED0A8BB0EE609A85B01D
:1034C000F0EE418AF0EE40AAB0EE611AF0EE680A22
:1034D000B0EE490AB0EE618A0192CDE9021001F026
:1034E000A9F8B0EE481AF0EE680AB0EE40AAB0EEC5
:1034F000490A01F087F83AEE00AAF6EE009AAAEE21
:10350000699ADFED24BA9FED24CA9FED24BA29EE13
:10351000299AF0EE4C0A29EE2B9A89EE2A0A9FEDA1
:10352000209A30EE0B0A01F05DF8F0EE490A01F046
:1035300061F8EAEE698A039880ED000A68EEA98ACC
:10354000F0EE4C0A68EEAB8A88EEAA0A30EE0B0A5F
:1035500001F048F8F0EE490A01F04CF8AAEE698A49
:10356000029981ED000A28EE298AF0EE4C0A28EE35
:103570002B8A88EE2A0A30EE0B0A01F033F8F0EEBF
:10358000490A01F037F8019A82ED000A05B0BDEC56
:103590000A8B00BD3333933F00000000D7A3F03EF9
:1035A000D7A3703FF8B500238365C365036604465F
:1035B000FFF700FE00264FF47A7537462046FFF7E6
:1035C0003DFED4E90223013D17441E44F6D1074BCA
:1035D00083FB0721FA17C2EBA11283FB0631F31715
:1035E000C3EBA113C4E92623F8BD00BFD34D62107D
:1035F0002DE9F843344A354BDFED356ADFED355AB6
:103600002DED028BC267C0F8802093ED027A324A1A
:10361000C0F8842066EEC76AF7EE007AB0EE676AFB
:10362000A6EEA56A2D4ADFED2E6A1268C0F8C82002
:1036300027EE267AC7EE866A80ED1D7A77EEE67A67
:1036400080ED1E7AC0ED227A9FED267AD3ED037AC3
:10365000F4EEC77AF1EE10FA33D8234BDFF89C90E2
:10366000DFED228A9FED228A224F03674FF08048C8
:1036700000F1F4050024002607EE904AF8EEE77A00
:10368000013467EEA87AC7EE887A17EE900AFCF745
:103690000BFF41EC100B07F0D3FC424651EC100B32
:1036A0004B46FCF759FF32463B46FCF79FFDFDF7C2
:1036B0004BFA802C45F8040BDED1BDEC028BBDE843
:1036C000F8830D4BCAE700BFEC51383D903B00201A
:1036D000D1CB0B38DB0FC940BD74933B9037002032
:1036E00017B7D13800002042FFFFA43C000000BC07
:1036F0006F12033D0000F03FFFFF243D3333F33FE3
:1037000010B54FF47A7204460021114803F0FEF917
:103710000F484FF47A72012103F0F8F94FF47A72EE
:103720000B48022103F0F2F900230022C4F8A43070
:10373000C4F8A830E36323646364C4F89030C4F829
:103740008C3063652365C4F8E830C4F8EC2010BD04
:10375000002C014090ED397AD0ED387A90ED3A0A9C
:10376000DFED1E0A77EEC77A90ED217A10B5A7EE4D
:10377000270A82B0044680ED3A0A00F03BFF184B5E
:10378000D3ED060AF1EE600A00F02CFF94ED3C7ACE
:1037900084ED3A0A60EE407A84ED290AE7EE077A72
:1037A000F5EE407AF1EE10FA11D4F1EEE70A94ED5D
:1037B0002A0ACDED010A00F01DFFDDED010AF1EE50
:1037C000600A00F00FFF84ED2A0A02B010BDB0EECF
:1037D000670A07F085FCF0EE400AE8E70000000009
:1037E000903B002030B52DED028B91ED170A4B6E0A
:1037F000904D91ED186AD0ED071A90ED061AD0EDB4
:10380000050AD1ED036A83B0436380ED0B0A95EDA1
:10381000117AC6EE077A044600F140013C30C4ED4F
:103820000C7A95ED117AC6EE877AC4ED0A7AFFF725
:10383000EDFD9FED815A94ED087ADFED805AD4EDCD
:10384000097A94ED106AD4ED0F6A94ED114AD4ED23
:10385000124A27EE057A26EE056AA7EEA57A04F14C
:10386000A80104F1A400DFED767A84ED097A67EE11
:10387000277A66EE856A9FED735AE4EEA56AA4EE98
:10388000256A67EE857ADFED705A84ED116A67EE7E
:10389000A57AC4ED126AC4ED387A95ED030A84ED79
:1038A0003C0A00F0DFFED4ED0F6AD4ED298A94EDD6
:1038B0001D7A94ED230ADFED657A94ED2A8AD4ED22
:1038C000380A78EEE68AA7EE280A94ED107A30EEF0
:1038D000270A38EE478A84ED140A00F08BFED4EDF7
:1038E000380AF1EE600A00F07DFED4ED1F6A94ED17
:1038F0001D7AD4ED237AD4ED380A84ED140A27EE2C
:10390000267AE7EE287AB0EE670AC4ED237A00F053
:1039100071FED4ED380AF1EE600A00F063FED4EDDA
:10392000147AD4ED380A84ED230A67EEE77AE0EEE4
:10393000A07AF5EE407AF1EE10FA6FD4F1EEE78A54
:1039400094ED240AD4ED1E7AD4ED206AB0EE407ACC
:10395000A7EE887A67EEA67ADFED3C6AA7EE880AC2
:1039600077EE267A84ED240AC4ED157A00F042FE43
:10397000D4ED380AF1EE600A00F034FEF0EE406A51
:1039800094ED150A94ED147AC4ED246A60EE007A81
:10399000F0EE680AE7EE077AB1EEE77A84ED397A5D
:1039A00000F028FEF1EE680A00F01CFEF0EE407A0E
:1039B00004F1540194ED380AC4ED157A04F1500075
:1039C00000F050FEDFED227A94ED0D7A94ED0B0AB3
:1039D00094ED151AD4ED140AA7EE270A04F16C022F
:1039E00004F1680104F16400FFF7C4FC04F158001D
:1039F000D4ED1B1A94ED1A1AD4ED190A94ED380A75
:103A000004F1600204F15C01FFF754FD204603B0AD
:103A1000BDEC028BBDE83040FFF7CCBBB0EE670ACF
:103A2000CDED010A07F05CFBDDED010AF0EE408A06
:103A300086E700BF903B0020CDCCCC3D6666663F5C
:103A40003333933FD7A3703F3ACD133F00000000BC
:103A5000BAB1513890ED0A7AD0ED337AD0ED356AAB
:103A600090ED370A144BD0ED3C0A77EEC77A90ED13
:103A7000347AA6EEA70A10B5D0ED0C7AD0ED366AEE
:103A800037EE677AD3ED0E7AA6EE870A044693EDF9
:103A9000117A67EE877A80EE270A00F0ABFDD4ED4D
:103AA0003C0AF1EE600A00F09DFD002384ED2A0A35
:103AB000C4F8A43010BD00BF903B00200023C0F824
:103AC000DC30C0F8D430C0F8D830C0F8CC30C0F802
:103AD000D030C0F8A830704708B50B4801F00CFA98
:103AE00070B1094801F03CFA38B1074801F09CFB7D
:103AF000054801F0DDFA013808BD034801F094FBE8
:103B00004FF0FF3008BD00BF7837002010B54FF4EC
:103B1000805182B00A4802F0BDFB0446FDF710FB5D
:103B2000084A094B094992F8F52293F8DD32898851
:103B30000092221E18BF012201F07AFB02B010BDD4
:103B40000008014078340020583100204C3100201A
:103B500010B503780446052B0CD8DFE803F0090301
:103B60000C0B09090C4B186859681A89FFF7EAF819
:103B70000123E37010BD084B0122C2701868596818
:103B80001A89FFF7DFF80548FFF7BAFDBDE81040D6
:103B90000248FFF793BF00BF4C310020783400206B
:103BA00008B50D4804F002FE0C4804F0FFFD0C4877
:103BB00004F0FCFD0B4804F0F9FD0B4804F0F6FDA1
:103BC0000A4804F0F3FD0A4804F0F0FDBDE808409F
:103BD000084804F0EBBD00BF38BA000804BD000877
:103BE00010BD000824BD000840BD000850BD0008FD
:103BF00068BD000884BD000830B56C486C4C6D4D44
:103C000085B004F06BFD6C486C4B6D4A6D49CDE995
:103C100000046D4C6D4804F061FD6D4804F0C6FD74
:103C2000606CFCF741FC6B4A6B4B0095CDE90201DF
:103C30006A496B4804F052FDA06BFCF735FC694AF9
:103C4000654B0095CDE902016749684804F046FDDF
:103C5000674804F0ABFDA068FCF726FC654B664A9C
:103C60000093CDE90201654B6549664804F036FDD5
:103C7000E068FCF719FC644B644A0093CDE902014B
:103C8000634B64495F4804F029FD206DFCF70CFC90
:103C90002B46CDE90201604A00956049594804F07D
:103CA0001DFDA06DFCF700FC2B46CDE902015C4A2E
:103CB00000955C4953485C4D04F010FDE06DFCF745
:103CC000F3FB5A4B5A4A0093CDE90201504B594934
:103CD0004C4804F003FD206EFCF7E6FB564B574AB8
:103CE0000093CDE902014A4B5549464804F0F6FCE1
:103CF000A069FCF7D9FB534B534A0093CDE902016D
:103D0000434B52493F4804F0E9FC206AFCF7CCFBE6
:103D10004F4B504A0093CDE902012F4B4E49394891
:103D200004F0DCFC606AFCF7BFFB4C4B4C4A009390
:103D3000CDE90201364B4B49324804F0CFFCA06C70
:103D4000494CFCF7B1FBCDE902014849304B484AE8
:103D500000912C48474904F0C1FC474804F026FD77
:103D60006368464A46494748CDE900531A4B04F078
:103D7000B5FCA3680193444A174B44490095414858
:103D800004F0ACFCE068424B424A4349CDE90030C4
:103D9000114B424804F0A2FC414804F09FFC41480A
:103DA00005B0BDE8304004F099BC00BF9CBD0008E0
:103DB000F0BD000844BE000800BE0008B8BD000801
:103DC000BCBD0008C8BD0008903B0020D0BD000865
:103DD00004BE000814BE000810BE000820BE000883
:103DE00024BE000848BE000860BE000864BE00088B
:103DF00084BE0008D4BE000898BE000894BE000827
:103E0000B0BE0008B4BE0008F8BE0008E0BE00085E
:103E1000DCBE0008F4BE000800BF00081CBF00089C
:103E200020BF000840BF00085CC0000864BF000855
:103E300044BF000860BF000890BF00086CBF0008C6
:103E40008CBF0008B0BF000894BF0008ACBF0008DA
:103E5000D8BF0008B8BF0008D4BF0008F8BF0008EA
:103E6000DCBF0008F4BF0008903700201CC0000829
:103E700000C0000818C0000824C0000830C00008B6
:103E800038C000083CC0000860C000086CC00008D2
:103E9000B0C0000870C0000890C0000894C00008BE
:103EA000B8C0000804C1000800B5037883B0042B33
:103EB00028D8DFE803F0291D0827030003B05DF8C8
:103EC00004EBFFF799BE0190FFF720FE002835D1E3
:103ED00001901C48FFF714FC1B49019A088960F304
:103EE0000F020868496803B05DF804EBFEF770BE86
:103EF0000190FFF70BFE014658B1019A0021012302
:103F00005170D37003B000BD03B05DF804EBFFF750
:103F100047BE0E480E4BC0F8D8104FF40072DC308C
:103F2000A3F821101974019104F061FC064B019A69
:103F30001889596860F30F021868D4E70148FFF741
:103F4000BDFDDAE7783400204C31002058310020E4
:103F5000100200202DE9F041037842789A4204468D
:103F600045D1022B1CD0052B12D0012B3DD1514A3B
:103F700092F82130002B40D092F82230002B4AD109
:103F80004D494E48D1F8B430BDE8F041FEF766BB6C
:103F9000494B4A48D3F8B410BDE8F04100F0EABEFE
:103FA000474B186859681A89FEF738FEFEF7C2FEBB
:103FB000D8B1444AD268002A71DD3F490D46D1F894
:103FC000B8108A426DDBFFF7A1FD00285CD03C4BA6
:103FD000186859681A89FEF7B5FE00236370E3700C
:103FE000D5F8B8300133C5F8B830BDE8F081FFF737
:103FF000AFFDE3784BB92378B3E72F492F48D1F8C9
:10400000B430BDE8F041FEF753BA63782370204620
:10401000FFF74AFFEFE7D369284E2A4F96ED1A7A49
:104020009FED290A7B615A4207EE902AF8EEE77A63
:10403000F7EE000A67EE877A1D4627EE800A06F043
:10404000D3FFDFED227A60EE277A17EE900AFCF7B5
:104050002BFA0B46024629461D4804F03FFB1D493A
:104060004FF4007206F1DC0004F00EFC19494FF425
:10407000007207F1180004F007FCFFF72DFDA0B94E
:1040800000236370E370B0E70B48FFF7E3FC0A48D6
:10409000FFF760FB09490848FFF7A4FBA0E7064DBE
:1040A00091E72846FFF70AFD91E70B4804F07EFBF5
:1040B000E6E700BF100200207834002058310020CD
:1040C0004C3100209037002000008037DB0FC940C2
:1040D00030C100083C2C002044C1000838B5417BA9
:1040E000A1F161030446172B19D8DFE813F028006B
:1040F0004700660085001800A000BF00DA00F90044
:10410000180004011F013E011800180049011800A1
:104110001800180068011800730118009201CF48B8
:1041200004F0DCFA251DFFF7D7FC002840F08C8155
:10413000FFF762FD0023A38163606B6038BD051D3E
:10414000284602F004FF51EC100BFCF7FDFCF3EEE7
:10415000040A00EE100A07F011FBDFEDC10A07F0B8
:10416000E5FAC04B10EE100A83ED120AFCF79CF939
:1041700002460B46BC4804F0B1FAD4E7051D2846B8
:1041800002F0E5FE51EC100BFCF7DEFCDFEDB70AA8
:1041900000EE100A07F0F2FADFEDB50A07F0C6FAF2
:1041A000B04B10EE100A83ED020AFCF77DF90246CF
:1041B0000B46B04804F092FAB5E7051D284602F018
:1041C000C6FE51EC100BFCF7BFFCDFEDAB0A00EEB6
:1041D000100A07F0D3FADFEDA20A07F0A7FAA14B05
:1041E00010EE100A83ED090AFCF75EF902460B4651
:1041F000A24804F073FA96E7051D284602F0A7FED0
:1042000051EC100BFCF7A0FCDFED950A00EE100A54
:1042100007F08CFA934B10EE100A83ED180AFCF7A6
:1042200043F902460B46964804F058FA7BE7051D11
:10423000284602F08CFE51EC100BFCF785FCDFEDFC
:10424000910A00EE100A07F099FADFED850A07F0EF
:104250006DFA844B10EE100A83ED060AFCF724F980
:1042600002460B46884804F039FA5CE7051D2846EB
:1042700002F06DFE51EC100BFCF766FCDFED830ADB
:1042800000EE100A07F052FA764B10EE100A83ED9A
:10429000110AFCF709F902460B467D4804F01EFAA4
:1042A00041E7051D284602F052FE51EC100BFCF7C9
:1042B0004BFCDFED780A00EE100A07F05FFADFED45
:1042C000680A07F033FA674B10EE100A83ED080A0C
:1042D000FCF7EAF802460B466F4804F0FFF922E7C4
:1042E000051D284602F036FE6C4B014659606C48AD
:1042F00004F0F4F917E7051D284602F028FE51ECFA
:10430000100BFCF721FCDFED670A00EE100A07F046
:104310000DFA544B10EE100A83ED0E0AFCF7C4F8A8
:1043200002460B46604804F0D9F9FCE6051D284614
:1043300002F00DFE51EC100BFCF706FCDFED5B0A02
:1043400000EE100A07F01AFADFED450A07F0EEF961
:10435000444B10EE100A83ED030AFCF7A5F8024661
:104360000B46534804F0BAF9DDE6051D284602F075
:10437000F1FD4A4B014699604E4804F0AFF9D2E690
:10438000051D284602F0E3FD51EC100BFCF7DCFBA9
:10439000DFED330A00EE100A07F0C8F9314BF1EEF9
:1043A000407A83ED140AC3ED137A10EE100AFCF77D
:1043B0007BF802460B46404804F090F9B3E6051D31
:1043C000284602F0C7FD354B0146D9603B4804F052
:1043D00085F9A8E6051D284602F0B9FD51EC100B41
:1043E000FCF7B2FBDFED1E0A00EE100A07F09EF9A3
:1043F0001C4BF1EE407A83ED160AC3ED157A10EEF0
:10440000100AFCF751F802460B462D4804F066F9F5
:1044100089E6051D284602F09AFD51EC100BFCF7C9
:1044200093FBDFED0F0A00EE100A07F07FF90D4B4A
:1044300010EE100A83ED170AFCF736F802460B4619
:10444000204804F04BF96EE61F4804F0AFF9FFF77F
:10445000D3FB0023A38163606B6038BDB4C2000846
:1044600000000000903B002030C200080000FA4429
:104470000000C8427CC100080000204218C20008A9
:1044800078C2000800000442D0C100086F12833ACD
:1044900044C200080000164300C200089037002004
:1044A00090C1000817B7D13854C20008000070420C
:1044B000BCC10008A4C100088CC20008E8C1000803
:1044C000A0C2000864C2000844C100081B2908B546
:1044D000034643D002785AB1042A08D10D2943D0AB
:1044E000027B002A3ED01044C17001321A7308BD0D
:1044F00063391729FBD801A252F821F09D45000825
:10450000EF440008BB450008EF440008EF440008F2
:10451000EF440008EF440008EF440008EF440008AF
:10452000EF440008A7450008EF440008EF440008E6
:10453000EF440008EF440008EF440008B1450008CC
:10454000EF440008EF440008EF440008EF4400087F
:10455000EF440008EF440008714500080022427053
:10456000C27008BD4173C0E7BDE80840FFF7B6BDA3
:1045700017489FED180A0023C0F8D43000F09EFAC7
:104580001348154B826F1A61FFF7A6FA124BC8B990
:1045900019691248BDE8084004F0A0B801210022C2
:1045A0004170C27008BD022100224170C27008BD76
:1045B000042100224170C27008BD05210022417013
:1045C000C27008BD064804F0F1F8034BE0E700BFF5
:1045D00058310020D1CB0B38903700200CC3000895
:1045E000DCC20008B4EEE00AF1EE10FAD8BFB0EE7B
:1045F000600A7047F4EEC00AF1EE10FAD8BFB0EED0
:10460000600A7047B4EEE00AF1EE10FA07DDB4EE8E
:10461000C10AF1EE10FAD8BFB0EE410A7047F4EECD
:10462000C10AF1EE10FAD4BFB0EE410AB0EE600A52
:10463000704700BFB4EEE00AF1EE10FA07D5B4EE11
:10464000C01AF1EE10FAD8BFB0EE410A7047B4EECE
:10465000E01AF1EE10FAD4BFB0EE410AB0EE600AF3
:10466000704700BFD1ED007A90ED007A67EEA77A2F
:10467000E7EE077AF1EEE76AF4EEC06AF1EE10FABF
:104680000DDD27EE007AC7EE267AC0ED007AD1ED77
:10469000007A20EE270AC0EE267AC1ED007A704734
:1046A00001238340013B07EE903A30EE600AF8EEBA
:1046B000E77A31EE601A67EE807A87EE817AFDEE56
:1046C000C77A17EE900A704707EE900A012370EE42
:1046D000C00AF8EEE77A8B40013B27EEA07A07EE9E
:1046E000903AF8EEE77AC7EE276A36EE800A70470E
:1046F00000B5DFED0F0A83B0CDED010A06F074FCC2
:10470000B5EEC00AF1EE10FA03D5DDED010A30EE88
:10471000200ADFED087A084B20EE270ABDEEC00A1A
:1047200010EE102A03EB820393ED000A03B000BDE4
:10473000DB0FC94083F9A242E8C3000800B5DFEDF2
:10474000117ADFED110A83B037EEC00ACDED010A10
:1047500006F04AFCB5EEC00AF1EE10FA03D5DDED25
:10476000010A30EE200ADFED097A094B20EE270A14
:10477000BDEEC00A10EE102A03EB820393ED000A8F
:1047800003B000BDDB0FC93FDB0FC94083F9A24274
:10479000E8C3000870B5054684B035480E464FF4AE
:1047A000004101F06FFD00230393039B3F2B06D8CC
:1047B00000BF039B01330393039B3F2BF8D940F6C3
:1047C000010401E0013C3ED02A48022101F05EFFD5
:1047D0000028F7D02748294601F052FF40F601048F
:1047E00001E0013C3ED02348012101F04FFF0028A9
:1047F000F7D0204801F046FF40F60104308001E088
:10480000013C32D01B48802101F040FF0128F7D045
:1048100000230293029B3F2B4FF000041AD9144847
:104820004FF4004101F02CFD00230193019B3F2B2D
:1048300006D800BF019B01330193019B3F2BF8D9A0
:10484000204604B070BD4FF0FF3400230293029B5A
:104850003F2BE4D800BF029B01330293029B3F2B06
:10486000F8D9DCE76FF00104EFE76FF00204ECE742
:1048700000080140003C0040F0B5064683B0084601
:104880001746FDF7A5FA044643F6FF70FDF7A0FAB8
:1048900001A905462046FFF77DFF48BB0DF1060143
:1048A0002846FFF777FF18BBBDF806402046FDF706
:1048B0009FFA431CA6F8E0420BD0023012D0C4F39A
:1048C0000D043C8001A92846FFF764FF80B903B0BE
:1048D000F0BDD6F800330133C6F800336FF00100A5
:1048E00003B0F0BDD6F804330133C6F80433F5E75E
:1048F000D6F8FC3201334FF48070C6F8FC32FCF776
:1049000017FC4FF0FF30E2E710B582B00DF1020264
:1049100043F6FC710446FFF7AFFFF0B901AA43F676
:10492000FD712046FFF7A8FFB8B90DF1060201217D
:104930002046FFF7A1FF80B9BDF80630BDF8021090
:10494000BDF80420A4F8EA32A4F8E612A4F8E8229C
:10495000012384F8DE3202B010BD00234FF0FF3097
:10496000F7E700BF2DE9F04F04464FF000080E4670
:1049700087B043F6FF70FDF72BFA4645A4F8DD82B9
:10498000A4F8EC8240F3848001230746CDF8088028
:1049900003939A46C1460DF116013846FFF7FAFE19
:1049A00090BB012E44D04FF0010B00250DF11601F4
:1049B0003846FFF7EFFE48BBBDF816800190404631
:1049C000FDF716FA431C019AA4F8E082C8F30D0C17
:1049D00005F101053AD0023054D00BF1010B5E45D0
:1049E000A4F8E2C284F8DDA2A4F8EC22DED11F2DE7
:1049F0001ED92046FFF788FFB0FA80F0400984F8FE
:104A0000DE0207B0BDE8F08F4FF0000BD4F8FC12C7
:104A1000B4F8EC2284F8DD920BF1010B0131013284
:104A200001235E45C4F8FC12A4F8EC220293BCD129
:104A3000039D032D1AD0142000F08CFC6B1C0393F3
:104A40000023A4F8DD32A4F8EC32A4E7D4F8002364
:104A50000132C4F800230BF1010B5E454FF0000555
:104A600084F8DD92A2D1039D032DE4D1029A0023A4
:104A700084F8DD329A4214BF4FF480704020FCF776
:104A800057FBB6E7D4F804230132C4F80423E2E765
:104A90000125032D4FF014000CD0013500F05AFC15
:104AA0004FF00003032DA4F8DD32A4F8EC824FF0A0
:104AB0001400F2D100230293D8E700BF70B52DEDAA
:104AC000028B044684B043F6FF70B0EE408AFDF7D7
:104AD0007FF9D4F8F03201330DF10E01C4F8F03251
:104AE000FFF758FE002840F0C380BDF80E30019358
:104AF00005461846FDF77CF9019BA4F8E032421CFC
:104B000000F00881023000F0DD80D4F8F422C3F315
:104B10000D06002A40F0ED80002366F30F03D4ED6C
:104B2000016A012166F31F43B5000A44C4F8E2326A
:104B3000002384F8DD12C4F8F422A4F8EC32C4EDAA
:104B4000026A4C2204F10C01656704F11000CDEDFE
:104B5000016A03F033FE6B125A1C02F07F0204EB71
:104B6000830304EB8202D3F8DC30D2F8DC209FED23
:104B70007B6ADDED016AC5F30801D21A01FB02F27E
:104B800003EB62232B447649A3670A699A1A07EE5E
:104B9000102ABAEEC87AFDEEC77AF8EEE77A37EE59
:104BA000677A27EE067AB5EEC07AF1EE10FA01D5F3
:104BB00037EE067A4A6994ED1A6ADFED6A5A9FED7C
:104BC000675A84ED017A9B1A07EE903AF8EEE77A7D
:104BD00067EE867A67EEA57AFDEEE75AF8EEE55ABB
:104BE00077EEE57A67EE857AF5EEC07AF1EE10FAA7
:104BF00001D577EE857A77EE666ADFED5B5AC4ED14
:104C0000177AF4EEE56AF1EE10FA48DCDFED577A38
:104C1000D4F8801094F8DC22F4EEE76AF1EE10FA92
:104C20004CBF012300230B44C4F88030002A41D03C
:104C300007EE903ADFED496AF8EEE77A67EEA67A7A
:104C400037EE277AD4ED166A84ED037AF3EE037A11
:104C500077EE666A68EE277A86EEA77A26EE076A0E
:104C600084ED187A84ED196A04B0BDEC028B70BD36
:104C7000D4E9BE21B4F8EC3201310132C4E9BE21DD
:104C80000020013384F8DD02A4F8EC324FF4807088
:104C900004B0BDEC028BBDE87040FCF749BAD4F813
:104CA000801094F8DC224FF0FF330B44C4F88030BE
:104CB000002ABDD10123DFED2E7AC4F8802084F8CC
:104CC000DC32BDE7D4F804330133C4F80433B4F85C
:104CD000EC32D4F8F82201339BB201320021022BCE
:104CE000C4F8F822A4F8EC3284F8DD12BCD94020D4
:104CF000CEE7B4F8E4123046FDF788F800F500700E
:104D0000B0F5806F0CD8B4F8E432B3421DD0D4F8BB
:104D1000F42201E7D4F800330133C4F80033D6E7B6
:104D2000B4F8EC32D4F80813D4F8F82284F8DD5241
:104D300001339BB201310132022BC4F80813C4F8CD
:104D4000F822A4F8EC328FD9D1E7D4F80C33D4F898
:104D5000F4220133C4F80C33DEE600BFDB0FC94098
:104D60009037002000008037DB0F4940DB0F49C03F
:104D70000000000070B5224D2B6803F51C53103362
:104D80008B4200D970BD04460E46416F1D4803F0AA
:104D9000A5FCA16F1C4803F0A1FC6068FBF784FB35
:104DA00002460B46194803F099FCE068FBF77CFBD0
:104DB00002460B46164803F091FCE06DFBF774FBCE
:104DC00002460B46134803F089FCD4F880101248C1
:104DD00003F084FC94F8DD12104803F07FFCD4F853
:104DE000FC120F4803F07AFCD4F800130D4803F0CE
:104DF00075FC0D48D4F8041303F070FC2E6070BDF0
:104E0000D83C002034C3000840C3000858C3000841
:104E100070C3000884C3000898C30008A8C3000832
:104E2000B4C30008C0C30008D0C3000830B585B0C3
:104E300001AB83E807000E4D002401AB93E80700A7
:104E40002346FEF797F90134B4F5807F45F8040F47
:104E5000F3D1084D01AB93E807002346FEF79EF916
:104E60000134B4F5A07FA5EC010AF3D105B030BD43
:104E70008C370020903B002070B586B003AB83E8F0
:104E8000070003AA07CA4FF4A073FEF77DF903AA2F
:104E9000064640F2411307CAFEF776F903AA054613
:104EA0004FF4A17307CAFEF76FF90DF10C0C04461D
:104EB00040F243139CE80700FEF766F9054A0192A9
:104EC000054A00920346224629463046FCF722FF57
:104ED00006B070BD903B00209037002000B583B035
:104EE0000190FEF7FDF8019841680022FF23C0E918
:104EF0000312838203B000BD30B517498BB004465E
:104F00001648FCF7D5FC0546E8B1237D012B1ED9D8
:104F100000210B46E268637502EB010E94E807007E
:104F200004AB83E807000DF1040CCDF814E08CE825
:104F3000070093E8070007AB83E8070084E8070051
:104F40002046FEF7D9F82846A5750BB030BD0133D1
:104F500003F00103D902DDE7903B002090370020E9
:104F6000F0B5837D83B005462BB90024002320468D
:104F7000AB7503B0F0BD48494848FCF799FC0028E0
:104F8000F3D045494548464EFCF750FC00240746FF
:104F900056F8043F95E80700009323460134FEF7D6
:104FA000B9F8B4F5807FF3D13B4EB6EC010A234645
:104FB00095E807000134FEF7C5F8B4F5A07FF4D1F9
:104FC0000223009395E8070040F24113FEF7AEF884
:104FD000009495E807004FF4A173FEF7A7F8009737
:104FE00095E8070040F24313FEF7A0F82A69013262
:104FF000009295E807004FF4A273FEF797F8294B4B
:10500000009395E807002346FEF790F823492648C9
:105010004FF4806203F038FC1F4924484FF480723B
:1050200003F032FC95E80700FFF700FF95E8070062
:10503000FFF722FF044660B91B4918484FF480620D
:1050400003F022FC194914484FF4807203F01CFC51
:105050008BE795E807004FF4A273FEF795F82B69EC
:10506000114907464FF480620C485E1C03F00CFCAB
:105070000E4909484FF4807203F006FCB7427FF4F2
:1050800074AF2B696A7D2A7501332B61204600239A
:10509000AB7503B0F0BD00BF903B002090370020FF
:1050A0008C3700204154484EDC3D0020DC3C002081
:1050B0002DE9F04F93B006460DF10C0800274FF094
:1050C000FF0A0CAD09AC0DF1100996E807000DF1CF
:1050D0003C0C8CE80700F36803EBC723109385E8CA
:1050E00007009CE8070084E80700FFF79FFE94E8AC
:1050F0000700FFF7C1FE4FF4A27388F80000834653
:1051000094E80700FEF740F849F827000346002F0F
:1051100041D0BBF1000F02D0BAF1FF0F54D1059B73
:105120009DF80D2004999DF80C00FCF71BFE00284B
:1051300059DB5FFA80F8B8F1FF0F54D0B8F1000FD7
:1051400056D1354935484FF4806203F09DFB344910
:1051500034484FF4807203F097FBF26886F81480AD
:1051600002EBC82796E8070085E807000D9784E85A
:10517000070095E807000FAC84E807000DEB8803F3
:1051800094E807001B693361012386E8070018468D
:1051900013B0BDE8F08FBBF1000F10D01F491E48BF
:1051A00001934FF4806203F06FFB1E491C484FF4DB
:1051B000807203F069FBBAF1FF0F04D1BA4608F11F
:1051C0000108012781E7019B18460DEB8A03196945
:1051D000FCF7C2FD08B15FFA87FA002F9FD108F1F2
:1051E0000108012771E70023184613B0BDE8F08FCE
:1051F000F26802EBC82396E807000DF13C0C8CE83E
:105200000700109385E807009CE8070006AF87E8D1
:105210000700FFF70BFEA0E7DC3D002090370020E1
:10522000DC3C0020903B002000238375FDF798BFF5
:105230009DF800C030B949B932B14BB1844508BFBF
:1052400005207047012070470320704702207047F7
:1052500004207047081A904234BF00200120704794
:105260000120704708B503F0DDFA162303604FF004
:10527000FF3008BD08B503F0D5FA16230360FEE73A
:1052800070B5161E07DD0C468D19AFF3008004F8CB
:10529000010BA542F9D1304670BD00BF70B5161E96
:1052A00007DD0C468D1914F8010BFDF7E1F8A54256
:1052B000F9D1304670BD00BF4FF0FF30704700BFDE
:1052C0004FF400534B600020704700BF012070472F
:1052D000002070470C4A08B5136833B1184469467A
:1052E000884208D81060184608BD084B136018445F
:1052F00069468842F6D903F095FA0C2303604FF013
:10530000FF33184608BD00BFDC41002038430020B1
:105310000D4B0E4A1B68A2FB03239B09013BB3F113
:10532000807F00D3FEE74FF0E02209495361F0206F
:1053300081F823004FF0000C07201023C2F818C09A
:10534000106181F82330704700000020D34D6210B7
:1053500000ED00E0024A10601368002BFCD170479A
:10536000E44100200549064A0B6801330B601368CD
:1053700013B11368013B1360704700BFE041002088
:10538000E4410020014B1868704700BFE041002055
:10539000704700BF08B50220FBF7CAFEFEE700BF5A
:1053A00008B50420FBF7C4FEFEE700BF08B50820DF
:1053B000FBF7BEFEFEE700BF08B51020FBF7B8FE06
:1053C000FEE700BF704700BF704700BF704700BFD7
:1053D000FFF7C8BF70B53D4C3D4884B02246002160
:1053E00000F040FC206840F20173984205D1A368A8
:1053F00023F07F43B3F5002F58D0364D627A217ADF
:105400006B680093B2FA82F2B1FA81F1A37A520981
:105410004909FCF7B7FC08B904B070BD2E4A2F4902
:105420002F4B92ED0E7A91ED111AD2ED117AD3ED48
:10543000180A93ED030A29792A4821EE071AC0EECB
:10544000A70A80EE270A21EE271AFCF7E1F8254982
:105450001F4800F0B3FB244803A9FCF7A5FC054650
:1054600088B19DF80C30FD2B1BD0FE2B06D0FC2BF9
:10547000D2D11E486D21FFF729F8CDE71B487A21CC
:10548000FFF724F8C8E7154E236906F1CC02CDE9F1
:10549000003294E80F00FCF7FDF8C6F8B85004B0ED
:1054A00070BD12481B21FFF711F8B5E703A904F1FD
:1054B0000B00FCF7BFFC18B99DF80C30032B01D989
:1054C00020689AE72046FCF7F9FCA5E7E8010020F0
:1054D0000064004090370020903B0020783400208A
:1054E00058310020FC010020F30100206834002026
:1054F000012110B5174801F0AFF917490B880133A6
:1055000043F697229BB2934212D80B80134C20464D
:10551000FDF794FE9FED120A1248FFF7CFFA1248EA
:10552000FEF718FDD4F8B4300133C4F8B43010BD20
:105530000E4B1A7800200880B2FA82F200F1804007
:10554000520900F588304FF400511A7000F09CFEAB
:10555000DCE700BF002C0140EA4100207834002045
:10556000D1CB0B385831002068340020E8410020AE
:1055700008B54FF4805000F0B1FC0C484FF4805156
:1055800000F088FE00B108BD00F1804000F58430D5
:105590004FF4006100F084FE0028F4D02020FBF7D7
:1055A000C7FD034B01229A8008BD00BF00080140DF
:1055B0004C31002008B50749074801F0F9FB00B954
:1055C00008BD054801F0DCFBBDE80840C1B2034856
:1055D000FEF77CBF0503050000440040683400204E
:1055E00008B5154B98421BD003F5A05398420DD037
:1055F000A3F5C05398421DD140F2093000F02AFFB4
:10560000BDE8084040F2093000F032BF40F20F30F0
:1056100000F020FFBDE8084040F20F3000F028BF46
:1056200040F20A3000F016FFBDE8084040F20A30B0
:1056300000F01EBF08BD00BF002801408368DB07E3
:1056400003D4836843F0010383607047826842F0AB
:10565000080200F1080382601A681107FCD482680E
:1056600042F0040282601A685207FCD4704700BFFF
:10567000836843F480738360704700BF064BD3F8A0
:10568000042422F47022C3F80424D3F8042402432F
:10569000C3F80424704700BF0020014001F4807368
:1056A0008AB11BB1436843F4807343604B0503D553
:1056B000436843F480634360890715D5836843F0EA
:1056C0000203836070471BB1436823F48073436017
:1056D0004A0503D5436823F4806343608B0703D5F1
:1056E000836823F002038360704700BF836819B1A9
:1056F00043F400638360704723F400638360704762
:1057000001290ED0022900D07047836B23F4401387
:105710008363013A836B120502F440121A438263D9
:105720007047C36A23F47003C362013AC36A120567
:1057300002F470021A43C262704700BF052900B527
:105740002ED8D0F834C001EB81014FF01F0E0EFAB5
:1057500001FE2CEA0E0C02FA01F141EA0C01416350
:10576000092A0DD8016902EB42024FF0070C0CFA2E
:1057700002FC21EA0C0103FA02F20A43026100BDB5
:10578000112AFCD80A3AC16802EB42024FF0070C1A
:105790000CFA02FC21EA0C0193400B43C36000BDEC
:1057A0000B2910D80639D0F830C001EB81014FF039
:1057B0001F0E0EFA01FE2CEA0E0C02FA01F141EA6C
:1057C0000C010163CCE70F29CAD80C39D0F82CC0E2
:1057D00001EB81014FF01F0E0EFA01FE2CEA0E0CB8
:1057E00002FA01F141EA0C01C162B9E7D0F838C010
:1057F0000331CCF3015CA1EB0C0101EB81014FF013
:105800001F0C00B50CFA01FED0F838C002FA01F105
:105810002CEA0E0C41EA0C01092A81630DD80169BA
:1058200002EB42024FF0070C0CFA02FC21EA0C01D9
:1058300003FA02F20A43026100BD112AFCD80A3AB7
:10584000C16802EB42024FF0070C0CFA02FC21EA9D
:105850000C0193400B43C36000BD00BF01F0010386
:105860005AB11BB1836843F4801383608A070FD554
:10587000836843F40043836070471BB1836823F45B
:10588000801383608B0703D5836823F40043836010
:10589000704700BF01290AD0022900D070478368F1
:1058A00023F4E04383608368134383607047836815
:1058B00023F460238360836813438360704700BFD1
:1058C000CA0703D5836843F4800383608B0703D53D
:1058D000836843F400138360704700BF03290FD827
:1058E000DFE801F00B080502806C80B27047406C65
:1058F00080B27047006C80B27047C06B80B2704756
:105900000020704703680B4214BF0120002070473D
:10591000036823EA01030360704700BF08B5074B23
:10592000984200D008BD40F2194000F093FDBDE858
:10593000084040F2194000F09BBD00BF00640040E9
:1059400029B103282CD8DFE800F00E182103FEE768
:105950000023C1F80B30C1F80F308B724B60CB7451
:105960000B810B607047002340F2FF304FF4003290
:1059700048810B810A604B60704700234FF48032EE
:105980000B740B604B608B60CA6070470023C1F8DA
:105990000B30C1F80F308B724B600B810B6070477E
:1059A000FEE700BF036823F0020300B5036003684D
:1059B000844643F001034CF8043B4368DB0786460A
:1059C00008D44FF6FF7301E0013B03D0DCF8002060
:1059D000D007F9D5DEF8040010F0010070D04B7844
:1059E0008A781B06120402F4702203F040731343FA
:1059F0000A7843EA8273CA78120502F4E00213437C
:105A00004A89013AC2F309021343CEF81C300B79DC
:105A1000012BDEF800300CBF43F0800323F080033D
:105A2000CEF800304B79012BDEF800300CBF43F08C
:105A3000400323F04003CEF800308B79012BDEF8D1
:105A400000300CBF43F0200323F02003CEF80030D9
:105A5000CB79012BDEF800300CBF43F0100323F0AC
:105A60001003CEF800300B7A012BDEF800300CBFAB
:105A700043F0080323F00803CEF800304B7A012BE3
:105A8000DEF800300CBF43F0040323F00403CEF82B
:105A90000030DEF8003023F00103CEF80030DEF8ED
:105AA0000430DA070DD54FF6FF7000E040B1DCF8A6
:105AB0000030DB0700F1FF30F8D4003818BF0120B8
:105AC00000BD012000BD00BF3B494389D1F800263D
:105AD00042F0010200B5C1F80026D1F81CC6B0F8AA
