:020000040800F2
:100000000000012089830008896700088D670008C7
:1000100099670008A5670008B167000800000000A4
:10002000000000000000000000000000BD670008A4
:10003000C167000800000000C5670008C967000824
:10004000D9830008D9830008D9830008D983000820
:10005000D9830008D9830008D9830008D983000810
:10006000D9830008D9830008D9830008D983000800
:10007000D9830008D9830008D9830008D9830008F0
:10008000D9830008D9830008D9830008D9830008E0
:10009000CD670008D9830008D9830008D9830008F8
:1000A000D983000869690008D9830008D98300084A
:1000B000D9830008D9830008D9830008D9830008B0
:1000C000D9830008D9830008D9830008D9830008A0
:1000D000D9830008D9830008416A0008D983000841
:1000E000E9690008D9830008D9830008D98300088A
:1000F000D9830008D9830008D9830008D983000870
:10010000D9830008D9830008D9830008D98300085F
:10011000D9830008D9830008D9830008D98300084F
:10012000D9830008D9830008D9830008D98300083F
:1001300001F0FF01102A2BDB10F0070F08D010F898
:10014000013B013A8B422DD010F0070F42B3F6D19C
:10015000F0B441EA012141EA014122F007047FF0B5
:1001600000070023F0E80256083C85EA010586EA0C
:10017000010685FA47F5A3FA87F586FA47F6A5FA48
:1001800087F68EB9EED1F0BC01F0FF0102F0070254
:1001900032B110F8013B013A83EA010313B1F8D1FF
:1001A0000020704701387047002D06BF35460338E0
:1001B000073815F0010F07D1013015F4807F02BF19
:1001C000013015F4C03F0130F0BC0138704700BF6A
:1001D000034613F8012B002AFBD1181A0138704787
:1001E00081F0004102E000BF83F0004330B54FEAE8
:1001F00041044FEA430594EA050F08BF90EA020F55
:100200001FBF54EA000C55EA020C7FEA645C7FEAE7
:10021000655C00F0E2804FEA5454D4EB5555B8BF0A
:100220006D420CDD2C4480EA020281EA030382EA7B
:10023000000083EA010180EA020281EA0303362D0D
:1002400088BF30BD11F0004F4FEA01314FF4801CE0
:100250004CEA113102D0404261EB410113F0004FF2
:100260004FEA03334CEA133302D0524263EB4303A9
:1002700094EA050F00F0A780A4F10104D5F1200E47
:100280000DDB02FA0EFC22FA05F2801841F10001A2
:1002900003FA0EF2801843FA05F359410EE0A5F176
:1002A00020050EF1200E012A03FA0EFC28BF4CF0A7
:1002B000020C43FA05F3C01851EBE37101F000455D
:1002C00007D54FF0000EDCF1000C7EEB00006EEB6A
:1002D0000101B1F5801F1BD3B1F5001F0CD34908F4
:1002E0005FEA30004FEA3C0C04F101044FEA44524B
:1002F00012F5800F80F09A80BCF1004F08BF5FEAD2
:10030000500C50F1000041EB045141EA050130BDB1
:100310005FEA4C0C404141EB0101013C28BFB1F5C3
:10032000801FE9D291F0000F04BF01460020B1FA0E
:1003300081F308BF2033A3F10B03B3F120020CDAE1
:100340000C3208DD02F1140CC2F10C0201FA0CF0BF
:1003500021FA02F10CE002F11402D8BFC2F1200C24
:1003600001FA02F120FA0CFCDCBF41EA0C019040DA
:10037000E41AA2BF01EB0451294330BD6FEA040423
:100380001F3C1CDA0C340EDC04F11404C4F120020E
:1003900020FA04F001FA02F340EA030021FA04F320
:1003A00045EA030130BDC4F10C04C4F1200220FA77
:1003B00002F001FA04F340EA0300294630BD21FAB5
:1003C00004F0294630BD94F0000F83F4801306BF7B
:1003D00081F480110134013D4EE77FEA645C18BF6F
:1003E0007FEA655C29D094EA050F08BF90EA020F06
:1003F00005D054EA000C04BF1946104630BD91EAFE
:10040000030F1EBF0021002030BD5FEA545C05D100
:100410004000494128BF41F0004130BD14F580043F
:100420003CBF01F5801130BD01F0004545F0FE41B3
:1004300041F470014FF0000030BD7FEA645C1ABFE8
:10044000194610467FEA655C1CBF0B46024650EA1F
:10045000013406BF52EA033591EA030F41F400214B
:1004600030BD00BF90F0000F04BF0021704730B5D1
:100470004FF4806404F132044FF000054FF00001A6
:1004800050E700BF90F0000F04BF0021704730B567
:100490004FF4806404F1320410F0004548BF40423C
:1004A0004FF000013EE700BF42004FEAE2014FEA91
:1004B00031014FEA02701FBF12F07F4393F07F4F6C
:1004C00081F06051704732F07F4208BF704793F06F
:1004D0007F4F04BF41F40021704730B54FF4607482
:1004E00001F0004521F000411CE700BF50EA010285
:1004F00008BF704730B54FF000050AE050EA01022E
:1005000008BF704730B511F0004502D5404261EB9D
:1005100041014FF4806404F132045FEA915C3FF4DE
:10052000D8AE4FF003025FEADC0C18BF03325FEA7B
:10053000DC0C18BF033202EBDC02C2F1200300FA2C
:1005400003FC20FA02F001FA03FE40EA0E0021FA51
:1005500002F11444BDE600BF70B54FF0FF0C4CF43F
:10056000E06C1CEA11541DBF1CEA135594EA0C0FF1
:1005700095EA0C0F00F0DEF82C4481EA030621EA2C
:100580004C5123EA4C5350EA013518BF52EA033567
:1005900041F4801143F4801338D0A0FB02CE4FF019
:1005A0000005E1FB02E506F00042E0FB03E54FF049
:1005B0000006E1FB03569CF0000F18BF4EF0010E41
:1005C000A4F1FF04B6F5007F64F5407404D25FEA3D
:1005D0004E0E6D4146EB060642EAC62141EA5551F0
:1005E0004FEAC52040EA5E504FEACE2EB4F1FD0C32
:1005F00088BFBCF5E06F1ED8BEF1004F08BF5FEAB0
:10060000500E50F1000041EB045170BD06F0004661
:1006100046EA010140EA020081EA0301B4EB5C040E
:10062000C2BFD4EB0C0541EA045170BD41F4801106
:100630004FF0000E013C00F3AB8014F1360FDEBF2B
:10064000002001F0004170BDC4F10004203C35DA07
:100650000C341BDC04F11404C4F1200500FA05F38A
:1006600020FA04F001FA05F240EA020001F000422B
:1006700021F0004110EBD37021FA04F642EB0601A1
:100680005EEA430E08BF20EAD37070BDC4F10C04CB
:10069000C4F1200500FA04F320FA05F001FA04F28F
:1006A00040EA020001F0004110EBD37041F100017B
:1006B0005EEA430E08BF20EAD37070BDC4F1200586
:1006C00000FA05F24EEA020E20FA04F301FA05F2EE
:1006D00043EA020321FA04F001F0004121FA04F296
:1006E00020EA020000EBD3705EEA430E08BF20EA66
:1006F000D37070BD94F0000F0FD101F000464000A0
:1007000041EB010111F4801F08BF013CF7D041EA21
:10071000060195F0000F18BF704703F00046520025
:1007200043EB030313F4801F08BF013DF7D043EAF6
:100730000603704794EA0C0F0CEA135518BF95EAAC
:100740000C0F0CD050EA410618BF52EA4306D1D133
:1007500081EA030101F000414FF0000070BD50EA52
:10076000410606BF1046194652EA430619D094EADC
:100770000C0F02D150EA013613D195EA0C0F05D1C6
:1007800052EA03361CBF104619460AD181EA03011A
:1007900001F0004141F0FE4141F470014FF00000D2
:1007A00070BD41F0FE4141F4780170BD70B54FF06D
:1007B000FF0C4CF4E06C1CEA11541DBF1CEA1355ED
:1007C00094EA0C0F95EA0C0F00F0A7F8A4EB0504CF
:1007D00081EA030E52EA03354FEA013100F08880C6
:1007E0004FEA03334FF0805545EA131343EA12638F
:1007F0004FEA022245EA111545EA10654FEA002644
:100800000EF000419D4208BF964244F1FD0404F5FC
:10081000407402D25B084FEA3202B61A65EB030558
:100820005B084FEA32024FF480104FF4002CB6EB15
:10083000020E75EB030E22BFB61A754640EA0C0095
:100840005B084FEA3202B6EB020E75EB030E22BFD5
:10085000B61A754640EA5C005B084FEA3202B6EB16
:10086000020E75EB030E22BFB61A754640EA9C00D5
:100870005B084FEA3202B6EB020E75EB030E22BFA5
:10088000B61A754640EADC0055EA060E18D04FEA63
:10089000051545EA16754FEA06164FEAC30343EA03
:1008A00052734FEAC2025FEA1C1CC0D111F4801FD0
:1008B0000BD141EA00014FF000004FF0004CB6E7C9
:1008C00011F4801F04BF01430020B4F1FD0C88BF68
:1008D000BCF5E06F3FF6AFAEB5EB030C04BFB6EB73
:1008E000020C5FEA500C50F1000041EB045170BD66
:1008F0000EF0004E4EEA113114EB5C04C2BFD4EB93
:100900000C0541EA045170BD41F480114FF0000E16
:10091000013C90E645EA060E8DE60CEA135594EA92
:100920000C0F08BF95EA0C0F3FF43BAF94EA0C0F95
:100930000AD150EA01347FF434AF95EA0C0F7FF40A
:1009400025AF104619462CE795EA0C0F06D152EA5E
:1009500003353FF4FDAE1046194622E750EA410642
:1009600018BF52EA43067FF4C5AE50EA41047FF453
:100970000DAF52EA43057FF4EBAE12E74FF0FF3CB8
:1009800006E000BF4FF0010C02E000BF4FF0010C89
:100990004DF804CD4FEA410C7FEA6C5C4FEA430C02
:1009A00018BF7FEA6C5C1BD001B050EA410C0CBF51
:1009B00052EA430C91EA030F02BF90EA020F0020B3
:1009C000704710F1000F91EA030F58BF994208BF1A
:1009D00090422CBFD8176FEAE37040F001007047D7
:1009E0004FEA410C7FEA6C5C02D150EA013C07D12E
:1009F0004FEA430C7FEA6C5CD6D152EA033CD3D079
:100A00005DF8040B704700BF8446104662468C4672
:100A10001946634600E000BF01B5FFF7B7FF0028A5
:100A200048BF10F1000F01BD4DF808EDFFF7F4FFCE
:100A30000CBF012000205DF808FB00BF4DF808ED59
:100A4000FFF7EAFF34BF012000205DF808FB00BF7C
:100A50004DF808EDFFF7E0FF94BF012000205DF89E
:100A600008FB00BF4DF808EDFFF7CEFF94BF012053
:100A700000205DF808FB00BF4DF808EDFFF7C4FF4C
:100A800034BF012000205DF808FB00BF4FEA410C95
:100A90007FEA6C5C02D150EA013C0AD14FEA430C78
:100AA0007FEA6C5C02D152EA033C02D14FF00000B5
:100AB00070474FF0010070474FEA410212F50012F3
:100AC00015D211D56FF47873B3EB625212D94FEA95
:100AD000C12343F0004343EA505311F0004F23FA7F
:100AE00002F018BF404270474FF00000704750EAD4
:100AF000013005D111F0004008BF6FF00040704791
:100B00004FF00000704700BF4A0011D212F50012EA
:100B100011D20DD56FF47873B3EB62520ED44FEA55
:100B2000C12343F0004343EA505323FA02F07047D5
:100B30004FF00000704750EA013002D14FF0FF3013
:100B400070474FF0000070474FEA4102B2F1E043B6
:100B500024BFB3F5001CDCF1FE5C0DD901F0004CA4
:100B60004FEAC0024CEA5070B2F1004F40EB8300F4
:100B700008BF20F00100704711F0804F21D113F120
:100B80003872BCBF01F00040704741F480114FEA59
:100B90005252C2F11802C2F1200C10FA0CF320FAE2
:100BA00002F018BF40F001004FEAC1234FEAD323FF
:100BB00003FA0CFC40EA0C0023FA02F34FEA430369
:100BC000CCE77FEA625307D150EA01331EBF4FF0F2
:100BD000FE4040F44000704701F0004040F0FE400D
:100BE00040F40000704700BF0348044B834202D02A
:100BF000034B03B118477047CC010020CC01002003
:100C0000000000000548064B1B1AD90F01EBA30199
:100C1000491002D0034B03B118477047CC010020A4
:100C2000CC0100200000000010B5064C237843B929
:100C3000FFF7DAFF044B13B10448AFF30080012340
:100C4000237010BDCC010020000000003CCD000846
:100C500008B5054B1BB105490548AFF30080BDE859
:100C60000840FFF7CFBF00BF00000000D001002008
:100C70003CCD000808B5012006F04EFE4FF4C060E0
:100C800006F020FE40F2026006F01CFE40F2036017
:100C900006F018FE40F2046006F014FE4FF4A06067
:100CA00006F010FE40F2015006F00CFE40F2197002
:100CB00006F008FE40F20E7006F004FE40F20F70DF
:100CC00006F000FE40F20B6006F0FCFD40F2096009
:100CD00006F0F8FD40F20A6006F0F4FD40F20F6005
:100CE00006F0F0FDBDE8084040F2117006F0EABDE4
:100CF00070B505F009FDFFF7BDFF00F02FFA02F017
:100D000035FA02F09FF900F03DFC02F04DF902F0D7
:100D100073F900F0CFFA00F0BBFB03F08FFAC5487F
:100D200008F08CFFC44808F089FF0123002202214B
:100D3000C24808F01BFFC248062105F0CBFAC048A4
:100D400005F0B2FB002800F0AC81BE4DBE4C6B69D3
:100D5000D4ED027A013304BF00236B612B690133A8
:100D600008BF0023F4EE677A08BF2B61F1EE10FA9A
:100D700080F19481BFEE007AF4EE477AF1EE10FA3A
:100D800000F08C81D4ED037AF4EE677AF1EE10FA7C
:100D900080F18181BFEE007AF4EE477AF1EE10FA2D
:100DA00000F07981D4ED067AF4EE677AF1EE10FA6C
:100DB00080F16E81BFEE007AF4EE477AF1EE10FA20
:100DC00000F066816B68D4ED077A013304BF01231C
:100DD0006B60AB68013304BF0023AB60EB68013389
:100DE00008BF4FF47A73F4EE677A08BFEB60F1EE58
:100DF00010FA80F11B81BFEE007AF4EE477AF1EE33
:100E000010FA00F01381D4ED087AF4EE677AF1EE6F
:100E100010FA80F10881BFEE007AF4EE477AF1EE25
:100E200010FA00F00081D4ED097AF4EE677AF1EE61
:100E300010FA80F1F580BFEE007AF4EE477AF1EE19
:100E400010FA00F0ED80D4ED127AF4EE677AF1EE4C
:100E500010FA80F1E280BFEE007AF4EE477AF1EE0C
:100E600010FA00F0DA80D4ED0A7AF4EE677AF1EE47
:100E700010FA80F1CF80BFEE007AF4EE477AF1EEFF
:100E800010FA00F0C780D4ED117AF4EE677AF1EE33
:100E900010FA80F1BB80BFEE007AF4EE477AF1EEF3
:100EA00010FA00F0B380D4ED0E7AF4EE677AF1EE2A
:100EB00010FA80F1A780BFEE007AF4EE477AF1EEE7
:100EC00010FA00F09F80D4ED177AF4EE677AF1EE15
:100ED00010FA80F19480BFEE007AF4EE477AF1EEDA
:100EE00010FA00F08C80D4ED187AF4EE677AF1EE07
:100EF00010FA80F18180BFEE007AF4EE477AF1EECD
:100F000010FA79D0D4ED147A5048514EF4EE677A45
:100F1000D4ED137AF1EE10FA64BF4E4B2365F4EE74
:100F2000677AD4ED167AF1EE10FA64BF4A4BE364A7
:100F3000F4EE677AD4ED157AF1EE10FA64BF474B00
:100F4000A365F4EE677AF1EE10FA64BF444B636573
:100F500003F00EFC00214FF44472424808F08FFE6B
:100F60006A69A36AC6F8D82064202A69C6F8D42022
:100F7000B3663D4D05F0EAFB6421304604F0ECFE1B
:100F80003A494FF4007206F1DC0008F0C5FE95E81E
:100F9000070003F055F8002840F08B80344800F03B
:100FA00011FB344800F028FB00221146282006F0EF
:100FB00037FC01220021142006F032FC002201211E
:100FC000192006F02DFC00220221262006F028FC24
:100FD000294B062101221980DA7000244FF47A701F
:100FE00005F0B4FBAB880134002BF7D095E807007F
:100FF000234602F03BFFF1E7204B236682E7204BBC
:10100000E36570E74FF07E53A3635CE74FF07E53D8
:10101000636448E71B4BA36235E7184BA36422E7E0
:10102000194B63620FE7194B2362FCE60023E3616F
:10103000E9E600BF70CE00087CCE00089CCE000818
:10104000BC390020D4390020D43D0020BC3600201B
:101050009833002000004841000048C1000082424F
:10106000000082C2442E00208C330020EC39002086
:10107000E8010020FC010020A83600200000A0406C
:101080000000FA430000A841000060410000FA425D
:101090000023A36196E6094BE36083E6084BA36057
:1010A00070E60849084800F06FFB084808F0C6FDE4
:1010B0004BE6074808F0C2FD70E700BF0000204281
:1010C00000007A44D43D0020D4390020B8CE000876
:1010D00008CF000808B514484FF4006106F018FB6B
:1010E0001248002106F01EFE002211460F4806F0AD
:1010F000B1FF0E480022012106F0ACFF0B48002290
:10110000022106F0A7FF00221146084806F044FF1E
:1011100006480022012106F03FFFBDE808400348D1
:101120000022022106F038BF00080140002C0140D7
:10113000024A136803431360FFF7CCBFD43E00207C
:10114000014B1868704700BFD43E0020024A136864
:1011500023EA000313607047D43E002010B55048C6
:10116000012106F0E9FA4F48012106F0E5FA4E4860
:101170004FF4A0530122182106F072FA4A484FF4A6
:1011800000630122042106F06BFA4FF400430122B0
:101190004648102106F064FA44484FF4004106F036
:1011A000B5FA43484FF420430122182106F058FABB
:1011B0003F484FF480430122482106F051FA4FF492
:1011C000805301223A48102106F04AFA38484FF479
:1011D000805106F09BFA35484FF40063022210213B
:1011E00006F03EFA4FF4805303223048042106F003
:1011F00037FA2E484FF4006106F08AFA2B484FF474
:10120000E0630322182106F02BFA27480323042267
:10121000002106F025FA264801230422002106F0C9
:101220001FFA21480C230422002106F019FA1F4856
:10123000F0230422002106F013FA1B483023042275
:10124000002106F00DFA4FF4005302221648102137
:1012500006F006FA14484FF4005106F059FA134804
:1012600004230122182106F0FBF9082301220F486C
:10127000042106F0F5F901214FF4EA1006F05CFABA
:101280000B484FF480730222482106F0E9F9BDE8CB
:10129000104007484FF400730322182106F0E0B90C
:1012A0000010200000023000001001400008014042
:1012B000000C014070B5714888B0002105F07CFF3A
:1012C0006F4A704B01920024042503934FF400727F
:1012D0004FF400634FF48076029204930DEB050205
:1012E0004FF4805321466548ADF81C60CDE90553A5
:1012F0008DF81E4005F07EFF2146604805F0B8FFDE
:1013000021465E4805F0C6FF5F4805F0AFFB5F4829
:1013100005F0ACFB4FF4803005F0F6FB31465A483F
:10132000012205F001FC22465748022105F0FCFB92
:1013300031465648012205F0F7FB22465348022168
:1013400005F0F2FB2146504805F016FC2A464E48AF
:10135000012105F01BFC01224B48022105F016FC7F
:1013600021464A4805F008FC2A464848012105F074
:101370000DFC46480122022105F008FC23462146C7
:101380004148062205F020FC23463F480F22012158
:1013900005F01AFC23463C480722022105F014FC04
:1013A000234639480822032105F00EFC2346214636
:1013B0003648052205F008FC234634480E22012158
:1013C00005F002FC23462A463048022105F0FCFBCA
:1013D00023462E480C22032105F0F6FB2A484FF441
:1013E0006022012105F09CFC01221146264805F0EF
:1013F0007BFC26484FF46022012105F091FC01227C
:101400001146224805F070FC234621461E480B2257
:1014100005F032FC234621461C480A2205F02CFC2C
:1014200019484FF4E042022105F07AFC16480122E7
:10143000022105F059FC15484FF4E042022105F065
:101440006FFC01220221114805F04EFC0E4805F008
:1014500055FB0E4805F052FB0B4805F035FB0B48D9
:1014600005F032FB012005F071F9074805F034FB67
:10147000064805F031FB08B070BD00BF0000024017
:101480004C240140DC3E00200024014000280140A3
:1014900070B5384888B0042105F08EFE3649374AC9
:1014A00001914FF48063012400254FF4807603926C
:1014B000049301AA4FF480532E4806930421ADF8FB
:1014C0001C6002968DF81E50059405F093FE294885
:1014D000042105F0CDFE0421264805F0DBFE284856
:1014E00005F0C4FA22463146254805F01DFB2A4680
:1014F0002348022105F018FB2946214805F03CFB52
:10150000224621461E4805F041FB22461C48022186
:1015100005F03CFB2B46294619480D2205F054FBEB
:10152000214617484FF4602205F0FAFB2246214677
:10153000134805F0D9FB2B46294611480D2205F02A
:101540009BFB0F484FF4E042022105F0E9FB2246E5
:1015500002210B4805F0C8FB094805F0CFFA0848FE
:1015600005F0B2FA204605F0F1F8054805F0B4FAA6
:1015700008B070BD000402404C3C0140D83E002041
:10158000003C014000B585B001A9002005F01EFC1B
:101590000A4805F009FC0A484FF48072CDE90102BF
:1015A0004FF4802301A90548039305F041FC03484B
:1015B000022105F0FDFD05B000BD00BF0064004044
:1015C0000000090300B5014687B0032005F0FEFBCB
:1015D00001A9012005F0FAFB00234FF4803101221C
:1015E00001A8CDE90133CDE903318DF8142005F0D0
:1015F000B1FC07B000BD00BF00B583B0014601904B
:10160000022005F0E3FB054A019990680860002379
:1016100006228A724B600B8103B000BDD4390020D2
:10162000F0B52DED028B1E4D83B00446F0EE608ABE
:10163000B0EE418AD5ED130A95ED141A01911020F0
:1016400004F000FA95ED161AD5ED150A0746B0EE2E
:10165000680A0C2004F0F6F9D5ED030A95ED0E7A30
:10166000D5ED117A60EEC70A064660EEA70AB0EE25
:10167000480AB1EE601A0C2004F0E4F90312019953
:10168000E17203EB06137ABA3111E3730023A173FD
:10169000A28120746374A37403B0BDEC028BF0BD0F
:1016A000D43D002084B0F0B52DED028B83B00AACA0
:1016B00084E80F009DF836309DF835709DF839208C
:1016C0009DF83760BDF833002D4C9DF838E09DF84B
:1016D0003A10D4ED140A94ED130A0F9D9FED298A58
:1016E0004FEA032C1B0943EA07170CF470631E43EF
:1016F000130240BA120903F470630B4342EA0E125C
:1017000080B210210092019304F0B0F985ED000A37
:10171000D4ED160A94ED150A38460C2104F0A6F90A
:1017200085ED010AD4ED170A3046B0EE480A0C21C7
:1017300004F09CF985ED020AD4ED180A00980C21FA
:10174000B0EE480A04F092F985ED030A94ED030A1D
:1017500094ED0E7AD4ED117A019820EE470A0C210F
:1017600020EE270AF1EE400A04F080F985ED040A24
:1017700003B0BDEC028BBDE8F04004B0704700BF81
:10178000D43D00200000000070B54FF480620C468C
:101790000546002108F073FA01264FF480720021FB
:1017A000204608F06CFA6E60002300224FF47A762F
:1017B000C5E904222A60AA60EE60154ADFED156AC9
:1017C0009FED157ADFED157AA3614FF07E51E3614D
:1017D0006363E3632364124BDFF858E0DFF858C01B
:1017E0001048A1636164A2640F49236522660F4B10
:1017F0000F4AC4ED026A84ED037AC4ED087AC4F896
:1018000054E0C4F858C0E164E0656262A36270BD50
:101810000000A04000007A44000020420000FA428C
:10182000000048410000FA43000048C10000A84100
:1018300000006041000082C20000824270B50E4686
:101840001E49A0F1040E00F57F754FF0FF305EF8E1
:10185000044F4FF0000C24FA0CF3DBB2584008227E
:1018600040F300030B40013A83EA5000F8D10CF139
:10187000080CBCF1200FEED17545E8D10F49B646F2
:1018800006F58075DEF800404FF0000C24FA0CF3EA
:10189000DBB25840082240F300030B40013A83EAD0
:1018A0005000F8D10CF1080CBCF1200FEED10EF174
:1018B000040EAE45E6D1C04370BD00BF2083B8ED35
:1018C0000368012B00F22C8243687F2B00F22882F0
:1018D00083687F2B00F22482C368DE4A013B934277
:1018E00000F21E820369DFF8A4C34FF6FF721344AF
:1018F000634500F2158243691A44624500F2108282
:10190000D1ED027A9FEDD47AF0EEE76AF4EE476A01
:10191000F1EE10FA00F20482DFEDDD6AF4EEE67A11
:10192000F1EE10FAC0F2FC81DFEDCC6AF4EEE67A5B
:10193000F1EE10FA00F2F481D1ED037AF0EEE76AED
:10194000F4EE476AF1EE10FA00F2EA819FEDC47AF4
:10195000F4EEC77AF1EE10FAC0F2E2819FEDC17A9F
:10196000F4EEC77AF1EE10FA00F2DA81D1ED064A10
:10197000DFEDB96AB0EEE47AB4EE667AF1EE10FA11
:1019800000F2CE81F5EEC04AF1EE10FAC0F2C88145
:101990009FEDB57AF4EEC74AF1EE10FA00F2C0817D
:1019A00091ED077AB0EEC76AB4EE666AF1EE10FA0E
:1019B00000F2B681B5EEC07AF1EE10FAC0F2B08155
:1019C0009FEDB36AB4EEC67AF1EE10FA00F2A88188
:1019D00091ED087AB0EEC76AB4EE666AF1EE10FADD
:1019E00000F29E81F7EE006AB4EEE67AF1EE10FAAC
:1019F000C0F29681DFED9D6AB4EEE67AF1EE10FA60
:101A000000F28E8191ED095ADFED936AB0EEC57A4E
:101A1000B4EE667AF1EE10FA00F282819FED907AD0
:101A2000B4EEC75AF1EE10FAC0F27A819FED907AC7
:101A3000B4EEC75AF1EE10FA00F2728191ED0A7A13
:101A4000B0EEC76AB4EE666AF1EE10FA00F2688191
:101A5000B7EE006AB4EEC67AF1EE10FAC0F2608119
:101A60009FED846AB4EEC67AF1EE10FA00F2588166
:101A700091ED0D7AB0EEC76AB4EE666AF1EE10FA37
:101A800000F24E81B5EEC07AF1EE10FAC0F2488154
:101A9000DFED7F6AB4EEE67AF1EE10FA00F24081F3
:101AA000D1ED0E6A9FED6C7AB0EEE66AB4EE476A4D
:101AB000F1EE10FA00F234819FED6F6AF4EEC66A1F
:101AC000F1EE10FAC0F22C81B2EE046AF4EEC66AAE
:101AD000F1EE10FA00F22481D1ED0F6AB0EEE66A61
:101AE000B4EE476AF1EE10FA00F21A81F5EEC06A20
:101AF000F1EE10FAC0F214819FED606AF4EEC66A4E
:101B0000F1EE10FA00F20C81D1ED106AB0EEE66A47
:101B1000B4EE476AF1EE10FA00F20281F5EEC06A07
:101B2000F1EE10FAC0F2FC809FED556AF4EEC66A41
:101B3000F1EE10FA00F2F480D1ED116AB0EEE66A2F
:101B4000B4EE476AF1EE10FA00F2EA809FED4D7AAA
:101B5000F4EEC76AF1EE10FAC0F2E2809FED477A28
:101B6000F4EEC76AF1EE10FA00F2DA80D1ED126AF3
:101B70009FED397AB0EEE66AB4EE476AF1EE10FAFC
:101B800000F2CE809FED366AF4EEC66AF1EE10FAEE
:101B9000C0F2C680B3EE046AF4EEC66AF1EE10FA43
:101BA00000F2BE80D1ED135AF0EEE56AF4EE476A1A
:101BB000F1EE10FA00F2B480DFED336AF4EEE65A8B
:101BC000F1EE10FAC0F2AC80F5EEC05AF1EE10FA68
:101BD00000F2A68091ED146AF0EEC66AF4EE476A50
:101BE000F1EE10FA00F29C80B5EEC06AF1EE10FA48
:101BF000C0F296809FED214AB4EEC46AF1EE10FA6D
:101C000000F28E80D1ED156AB0EE473AB0EEE67A7A
:101C1000B4EE437AF1EE10FA00F282809FED1A7A68
:101C2000F4EEC76AF1EE10FA7ADBF5EEC06AF1EE77
:101C300010FA75D891ED167AF0EEC73AF4EE433A01
:101C4000F1EE10FA6CD8B5EEC07AF1EE10FA67DB5F
:101C500020E000BF9F860100FFFF7F7F0000FA4465
:101C6000CDCCCC3D00007042000004420000164381
:101C7000000020420000804217B7D13800007A44AB
:101C80000050C3476F12833A00007AC4FEFF010080
:101C90000000C842B4EEC47AF1EE10FA40D8D1ED9B
:101CA000173AF0EEE32AF4EE432AF1EE10FA37D8B1
:101CB000F5EEC03AF1EE10FA32DBF4EEC43AF1EE92
:101CC00010FA2DD891ED184AF0EE433AB0EEC43A2E
:101CD000B4EE633AF1EE10FA22D8B5EEC04AF1EE56
:101CE00010FA1DDB5FED163AB4EEE34AF1EE10FA9E
:101CF00016D8F4EEE47AF1EE10FA11DBF4EEC57AC0
:101D0000F1EE10FA0CDBF4EEC65AF1EE10FA07D53C
:101D1000F4EEC76AF1EE10FA4CBF012000207047C4
:101D20000020704730B5DFF83CC083B06045069DA9
:101D3000079C02D0002003B030BD0229FAD1B2F5D1
:101D4000A07FF7D1214628460193FFF777FD019B3D
:101D50009842EFD12146284603B0BDE83040FFF756
:101D6000AFBD00BF4154484E401A0028D4BF0020E8
:101D70000120704740B12AB15B1A002BD4BF00206C
:101D8000012070471046704782420CBF4FF0FF3071
:101D90000120704711B10AB1082B01D00020704713
:101DA000009BC01AB3F5006FB0FA80F04FEA5010F4
:101DB00028BF0020704700BF431E00F1060C13F837
:101DC000012FFF2A09D16345F9D1C279131DDBB276
:101DD000022B02D80A70012070470020704700BF14
:101DE00038B5C0F30D0444F4804440F44045204627
:101DF0000AF05EFF002814BF2846204638BD00BF09
:101E0000084310B5C0F30D0420460AF051FF44EA20
:101E1000C03080B210BD00BF10B504460AF048FFC4
:101E200028B914F4804F18BF6FF0010010BD4FF0B7
:101E3000FF3010BDC0F30D00C1F30D01401AB0F525
:101E4000005F03DDA0F5804000B2704710F5005F31
:101E5000B8BF00F5804000B2704700BF0378A52BE3
:101E600029D143785A2B26D18378012B23D110B561
:101E700083790C46CBB9DFF84CE0421E811D00236C
:101E800012F801CF83EA0C0391421EF80330F7D118
:101E9000C2799A4212D1C37823700379637043796F
:101EA000A3708379E370002010BDC378072BE2D0C4
:101EB0004FF0FF3010BD4FF0FF3070476FF0010062
:101EC00010BD00BF58CD000890F800C06CF07F0C2A
:101ED00083F800C090F801C083F801C08078987042
:101EE0004FEA122CD970100C110E1A7183F805C02C
:101EF0009871D971704700BF164B1B7803B97047B2
:101F000030B5154C237883B0DBB2CDE900310546FE
:101F100004F034FC009B114A019903EB430C4FEA97
:101F20008C0E013342F80E0002EB8C0203F01F030B
:101F30000B4815719160237003781F2B04D8037828
:101F40000133037003B030BD064A136801331360D8
:101F500003B030BDF63E0020F53E0020F83E0020E4
:101F6000F43E0020F03E00202DE9F0418A4C01684B
:101F7000236840F201720133914288B0236006D198
:101F8000037A23B9437A13B9827A082A05D0A36861
:101F90000133A36008B0BDE8F08102A90B300093C3
:101FA000FFF75CFF18B1E3680133E360F2E704F088
:101FB000E5FB7A49009B0A68821A132A40F23181B4
:101FC000626808609DF8081001320729626000F01D
:101FD0002C81032900F2D687DFE801F09E941902D4
:101FE0009DF80A100F2900F29C80DFE811F0EA004A
:101FF000E800E6000101FF00FD00FB00F9009A0087
:10200000F500F100ED00D000CC009A00E3009DF84F
:102010000A20732A00F28580DFE812F0EA02E40267
:10202000DE028702830280027C0283008300760244
:10203000730270026A0264025C02550251024D0290
:1020400018030F038300830083008300FD00EF006B
:10205000EC00FD02EF00FD00EC0083008300830034
:102060008300830083008300830083008300830058
:102070008300830083008300830083008300830048
:10208000830083008300830083008300090303032C
:10209000FD0051034B0344033D0336032F03280384
:1020A0002103DD03D603CF03C803C103BA03B3037F
:1020B000AC03A5039E037C0375036E0367036003F3
:1020C00057035C072D070207E706AD06A306910636
:1020D00076064B0630060506EA05D205C705BB05A0
:1020E000A005640549051E050305E004C5049A041E
:1020F0007F04590442042F041504FB03EF03EC038F
:10210000E403EF029DF80A20042A00F23E87DFE88C
:1021100002F03633312F38009DF80A20002A00F0F3
:102120005F810123216901310022216103A902207D
:10213000CDE9003204F04AFE00230493ADF81430D8
:1021400040F2817303930823DDE9001202A88DF8A1
:1021500016300DF11703FFF7B7FE114803A904F07D
:1021600073FF032800F03881A3690133A36111E7ED
:102170000C4ADBE70F22D9E74FF48032D6E70A4A50
:10218000D4E70A4AD2E70A4AD2F80823CEE7084A37
:10219000D2F80423CAE700BF78400020EC3E0020BC
:1021A0000064004001D1E0A74154484E01E803001B
:1021B00098330020964A1268B8E7A268B6E76268CA
:1021C000B4E722680B46B1E7924AD2F80023ADE7A4
:1021D000914AD2F8FC22A9E78E4AD2F8FC22A5E760
:1021E000E269A3E7A269A1E762699FE722699DE727
:1021F000E2689BE740F2154298E7884A9FED887AAB
:10220000D2ED037A8749884AB4EEE77AF1EE10FA04
:10221000B8BF0A468AE7009301F052FB009B0246D2
:1022200084E7636901336361B4E69DF80A20013AEB
:102230000B2A00F2A786DFE812F0B4009700AC008A
:102240009F00BB008D00780061004C00370021002A
:102250000C0076489DF80B2001788A42BFF461AFEC
:102260007349097800782031091A0A44714902F04B
:102270001F020C2000FB0212926857E76B489DF882
:102280000B2001788A42BFF44CAF69490978007885
:102290002031091A0A44674902F01F020C2000FB92
:1022A00002121279D2B241E760489DF80B20017802
:1022B0008A42BFF436AF5E49097800782031091AA6
:1022C0000A4402F01F020C205A4900FB02F28A580D
:1022D0002CE75749554800220A70574902700A6096
:1022E000564A1278007842EA00220868B0F5803F2A
:1022F00036BF0968524909040A4317E74F4A4FF0AD
:10230000000C82F800C0117800296BD147484A4977
:102310001278007842EA00220868B0F5803F36BFA4
:102320000968474909040A4300E7444A3F48012134
:102330001170117800295FD13F491278007842EA84
:1023400000220868B0F5803F36BF09683C4909049F
:102350000A43EBE63B480288C2B11B21009303F01D
:102360007FFA009B0122E1E6364800936D2103F0DD
:1023700077FA009B0222D9E69DF80B20013AD2B2EF
:10238000132A03D82F4A1288002A5FD00223002282
:10239000CCE62C480093652103F062FA009B0322EF
:1023A000C4E6284800931B2103F05AFA009BD9E7A2
:1023B000244A11880029E9D10093FEF7C1FE0028C4
:1023C000E4D1144991F8DD120029DFD01D487A21AB
:1023D00003F046FA009BC5E7E3690133E361D9E501
:1023E000194AA3E61249114881F800C0124980F841
:1023F00000C0C1F800C08BE70F490D4D4FF0000C35
:1024000085F800C080F800C0C1F800C095E700BFA3
:102410009840002098330020BC360020D43D002096
:1024200000002042A0008002A000C002F43E002074
:10243000F53E0020F83E0020F03E0020F63E002051
:102440000000FFFFA83600204154484E0093FEF7DD
:1024500077FE00289AD1B34A9288002A96D1B24AD0
:1024600092F8DD22002A91D0B04A92F8F522002A93
:102470008CD000F180404FF4805100F5843005F09D
:102480004FF9002882D09DF80B309FEDA97AA94A18
:10249000A94807EE903AF8EE677A632167EE877AEB
:1024A000C2ED127A03F0DCF99DF80B20009B642149
:1024B00001FB02F23AE69D4AD2F8B42036E69F4A82
:1024C000D2F8182432E6984991F8DE2242B1D1F8C8
:1024D000E6222BE69A4AD188128942EA014225E691
:1024E000032323E6964A5188928842EA01421DE678
:1024F000934A5189128842EA014217E6904AD2680B
:1025000014E68A4A128A11E688490A89C96842EAA9
:1025100001420BE6844AD2F8802007E6824A926F95
:1025200004E6814AD2F8E02200E64FF48051854863
:10253000009305F0F5F84FF400610646814805F078
:10254000F5F8031E80487D49D0F8442CC2F3C0350D
:10255000D1F81824D1F818E4D1F81814C1F3800C7C
:10256000D0F8201C4FEA42124FEA012101F4807199
:1025700002F0200242EA01026B4991F8DD1218BF15
:102580000123003918BF012142EA430242EAC10295
:102590006649009B91F8F512003918BF012142EA03
:1025A0000112CEF3400E42EA850242EA8E1242EA5E
:1025B000CC12D0F820CCD0F8201CCCF3001042EA8A
:1025C0004022C1F3002142EA8122002E08BF42F0DE
:1025D000010242F00042A9E50093FEF7B1FD009B25
:1025E0000246A3E5009304F0C9F8009B02469DE56E
:1025F0004E491346D1F8F82298E55449544ADFF879
:1026000054C101F5007E51F8040F42408E450CFB89
:1026100002F2F8D18AE5009301F0FEFB009B02462E
:1026200084E5009301F046F9009B02467EE50093A5
:1026300001F03AF9009B024678E54349D1F83C2C79
:10264000D1F82C1C92B242EA01426FE53E49D1F822
:10265000342CD1F8381C92B242EA014266E50520DA
:10266000009301F03FF9009B02465FE504200093D0
:1026700001F038F9009B024658E50320009301F071
:1026800031F9009B024651E50220009301F02AF93E
:10269000009B02464AE50120009301F023F9009BCC
:1026A000024643E50020009301F01CF9009B02461E
:1026B0003CE5009301F010F9009B024636E50093DB
:1026C00001F004F9009B024630E51B49CA784878BE
:1026D0000978120442EA00220A4327E50E200093FB
:1026E00001F00AF9009B024620E50D20009301F05D
:1026F00003F9009B024619E50C20009301F0FCF859
:10270000009B024612E50B20009301F0F5F8009BB8
:1027100002460BE50A20009301F0EEF8009B02460A
:1027200004E500BF8C33002098330020BC36002025
:10273000CDCCCC3DD43D0020A83600200060004028
:10274000DC3E00200008014000200140E839002064
:10275000C59D1C81930100010920009301F0CCF874
:10276000009B0246E2E40820009301F0C5F8009BBC
:102770000246DBE40720009301F0BEF8009B02460E
:10278000D4E40620009301F0B7F8009B0246CDE4A4
:102790000520009301F0B0F8009B0246C6E4042037
:1027A000009301F0A9F8009B0246BFE403200093C8
:1027B00001F0A2F8009B0246B8E40220009301F069
:1027C0009BF8009B0246B1E40120009301F094F8CD
:1027D000009B0246AAE40020009301F08DF8009BC4
:1027E0000246A3E4D049D1480093FFF727F8009BA5
:1027F00002469BE4CD4A526998E4CD49CB4AD1EDDB
:102800001A7A1268FCEEE77A17EE901A42EA014251
:102810008CE4C54A9FEDC77AD2ED0A7AF4EEC77A06
:10282000F1EE10FA70DA9FEDC47AF4EEC77AF1EEA9
:1028300010FA66D99FEDC17A67EE877AFDEEE77AE6
:1028400017EE902A72E4BE4A9FEDBA7AD2ED557A1D
:10285000F4EEC77AF1EE10FA1FDA9FEDB77AF4EED4
:10286000C77AF1EE10FA15D99FEDB47A67EE877A40
:10287000FDEEE77A17EE902A58E4B14A9FEDB17A5F
:10288000D2ED5E7A67EE877AFCEEE77A17EE902A51
:1028900092B24BE44FF0004248E46FF0004245E44E
:1028A000A74ADFEDA86AD2ED5C7A92ED5D7A67EE19
:1028B000A67A27EE267AFCEEE77ABCEEC77A17EE08
:1028C000902A17EE101A92B242EA01422EE49C4A74
:1028D0009FED987AD2ED5B7AF4EEC77AF1EE10FABA
:1028E00018DA9FED957AF4EEC77AF1EE10FA0ED968
:1028F0009FED927A67EE877AFDEEE77A17EE902ADF
:1029000014E44FF0004211E46FF000420EE44FF087
:1029100000420BE46FF0004208E4894A9FED857A9B
:10292000D2ED5A7AF4EEC77AF1EE10FA2FDA9FED73
:10293000827AF4EEC77AF1EE10FA24D99FED7F7A0D
:1029400067EE877AFDEEE77A17EE902AFFF7EEBB87
:102950007B4A9FED787AD2ED597AF4EEC77AF1EEA0
:1029600010FA1CDA9FED747AF4EEC77AF1EE10FAE1
:1029700011D99FED727A67EE877AFDEEE77A17EE4E
:10298000902AFFF7D3BB4FF00042FFF7CFBB6FF0A9
:102990000042FFF7CBBB4FF00042FFF7C7BB6FF021
:1029A0000042FFF7C3BB664A9FED627AD2ED587AC8
:1029B000F4EEC77AF1EE10FA2FDA9FED5F7AF4EEBB
:1029C000C77AF1EE10FA24D99FED5C7A67EE877A28
:1029D000FDEEE77A17EE902AFFF7A8BB584A9FED65
:1029E000557AD2ED577AF4EEC77AF1EE10FA5ADA48
:1029F0009FED517AF4EEC77AF1EE10FA4FD99FEDC0
:102A00004F7A67EE877AFDEEE77A17EE902AFFF7A6
:102A10008DBB4FF00042FFF789BB6FF00042FFF71C
:102A200085BB474A9FED437AD2ED567AF4EEC77ADA
:102A3000F1EE10FA2FDA9FED407AF4EEC77AF1EE5C
:102A400010FA24D99FED3D7A67EE877AFDEEE77A9A
:102A500017EE902AFFF76ABB394A9FED367AD2ED1E
:102A6000547AF4EEC77AF1EE10FA58DA9FED327A22
:102A7000F4EEC77AF1EE10FA4DD99FED307A67EE99
:102A8000877AFDEEE77A17EE902AFFF74FBB4FF0FB
:102A90000042FFF74BBB6FF00042FFF747BB4FF020
:102AA0000042FFF743BB6FF00042FFF73FBB264AEF
:102AB0009FED207AD2ED067AF4EEC77AF1EE10FAA5
:102AC00025DA9FED1D7AF4EEC77AF1EE10FA1AD9E5
:102AD0009FED1A7A67EE877AFDEEE77A17EE902A75
:102AE000FFF724BB194A1A491278097842EA0122F1
:102AF00018490868B0F5803F36BF096816490904CF
:102B00000A43FFF713BB4FF00042FFF70FBB6FF014
:102B10000042FFF70BBB4FF00042FFF707BB6FF01F
:102B20000042FFF703BB00BFD43D0020D439002092
:102B3000983300206C12034A6C1203CA00007A44D6
:102B40001032002000401C4610020020F63E0020FB
:102B5000F43E0020F03E00200000FFFFD34A9FED2E
:102B6000D47AD2ED127AF4EEC77AF1EE10FA18DACE
:102B70009FEDD07AF4EEC77AF1EE10FA0DD99FED01
:102B8000CE7A67EE877AFDEEE77A17EE902AFFF7A6
:102B9000CDBACA4AD269FFF7C9BA4FF00042FFF76F
:102BA000C5BA6FF00042FFF7C1BAC4498A8D0878F0
:102BB00091F82010120442EA00220A43FFF7B6BA45
:102BC000BE49BF4A107892F801C00A7C120442EA5A
:102BD0000C22024391F8210042EA006291F822009F
:102BE00091F8241042EA406242EA8162FFF79EBAFD
:102BF000B44A9FEDAF7AD2ED377AF4EEC77AF1EEB0
:102C000010FA2FDA9FEDAB7AF4EEC77AF1EE10FAF4
:102C100024D99FEDA97A67EE877AFDEEE77A17EE61
:102C2000902AFFF783BAA74A9FEDA17AD2ED367AB0
:102C3000F4EEC77AF1EE10FA1CDA9FED9E7AF4EE0C
:102C4000C77AF1EE10FA11D99FED9B7A67EE877A79
:102C5000FDEEE77A17EE902AFFF768BA4FF00042D0
:102C6000FFF764BA6FF00042FFF760BA4FF000421E
:102C7000FFF75CBA6FF00042FFF758BA914A9FED38
:102C80008C7AD2ED357AF4EEC77AF1EE10FA2FDABB
:102C90009FED887AF4EEC77AF1EE10FA24D99FED11
:102CA000867A67EE877AFDEEE77A17EE902AFFF7CD
:102CB0003DBA844A9FED7E7AD2ED347AF4EEC77A3B
:102CC000F1EE10FA1CDA9FED7B7AF4EEC77AF1EEA2
:102CD00010FA11D99FED787A67EE877AFDEEE77AE0
:102CE00017EE902AFFF722BA4FF00042FFF71EBA04
:102CF0006FF00042FFF71ABA4FF00042FFF716BA22
:102D00006FF00042FFF712BA6E4A9FED697AD2ED7A
:102D1000337AF4EEC77AF1EE10FA1EDA9FED657A97
:102D2000F4EEC77AF1EE10FA13D99FED637A67EEED
:102D3000877AFDEEE77A17EE902AFFF7F7B9624936
:102D4000D1F83C2CD1F82C1C92B242EA0142FFF798
:102D5000EDB94FF00042FFF7E9B96FF00042FFF71D
:102D6000E5B95949D1F8342CD1F8381C92B242EA6D
:102D70000142FFF7DBB953499FED547AD1ED057A53
:102D8000F4EEC77AF1EE10FA80F2F9809FED507AF6
:102D9000F4EEC77AF1EE10FA40F2EF809FED467A3A
:102DA00067EE877AFDEEE77A17EE902AD1ED067A84
:102DB0009FED467AF4EEC77AF1EE10FA92B280F205
:102DC000D9809FED437AF4EEC77AF1EE10FA40F223
:102DD000CF809FED397A67EE877AFDEEE77A17EEBE
:102DE000901A42EA0142FFF7A1B9364A9FED307AC4
:102DF000D2ED117AF4EEC77AF1EE10FA2FDA9FEDE8
:102E00002D7AF4EEC77AF1EE10FA24D99FED2A7AE2
:102E100067EE877AFDEEE77A17EE902AFFF786B91C
:102E2000284A9FED237AD2ED2A7AF4EEC77AF1EEA2
:102E300010FA1CDA9FED1F7AF4EEC77AF1EE10FA61
:102E400011D99FED1D7A67EE877AFDEEE77A17EECE
:102E5000902AFFF76BB94FF00042FFF767B96FF0A8
:102E60000042FFF763B94FF00042FFF75FB96FF020
:102E70000042FFF75BB90D4A9FED0D7AD2ED037A60
:102E8000F4EEC77AF1EE10FA6EDA9FED0A7AF4EEFC
:102E9000C77AF1EE10FA63D99FED077A67EE877A69
:102EA000FDEEE77A17EE902AFFF740B9D43D0020F7
:102EB0006C12034A6C1203CA00007A44100200200C
:102EC000A8360020BC3600200020014068110342D3
:102ED0006F1203C2009300F09FFF2D4A9288151EC7
:102EE0002C4A92F8F52218BF0125161E2A4A92F89C
:102EF000DD22804618BF01264FF40061171E2748C7
:102F000018BF012704F012FC011E2548D0F8442CFC
:102F1000C2F3C03CD0F8202CD0F8203CD0F820ECF4
:102F20004FEA821202F040020EF4807E42EA0E0264
:102F300042EA450242EA860242EAC702C3F30010AF
:102F400042EA4C1242EAC01218BF0121B8F1000F48
:102F500018BF42F00102009B42EA0112FFF7E6B8F7
:102F60004FF00042FFF7E2B86FF00042FFF7DEB823
:102F70000C4936E747F6FF7133E70A4A16E747F68A
:102F8000FF7213E70423FFF7CDB80B46FFF7CAB86B
:102F90008C330020BC36002098330020000801400C
:102FA000002001400080FFFF00B5114889B004F007
:102FB0005FFD9FED0D7B4FF400724FF48271002393
:102FC0004FF40060CDE90013CDE9020218236946F1
:102FD000074806938DED047B04F078FD044804F067
:102FE0008FFD09B000BD00BF00000000010000001F
:102FF000003800400000000000B5114889B004F01E
:1030000037FD9FED0D7B4FF400724FF4827100236A
:103010004FF40060CDE90013CDE9020210236946A8
:10302000074806938DED047B04F050FD044804F03E
:1030300067FD09B000BD00BF0000000001000000F6
:10304000003C004070B548488CB004F06BFD08A807
:10305000002404F0DDFD01254FF400134FF4FA6263
:1030600008A9414808930A9209948DF82C5004F05D
:10307000D7FD3D4805F02EF821463B4805F014F8F1
:103080002946394805F018F8374804F021FE01A810
:1030900004F052FE022601AA214633480394CDE9EA
:1030A000014604F04FFE21462F48602204F04CFFF9
:1030B00021462D48042204F0A5FF21462A48082273
:1030C00004F078FF22462146274804F065FF01AA54
:1030D0002946254804F036FE29462348602204F09C
:1030E00033FF29462048042204F08CFF29461E485D
:1030F000082204F05FFF224629461B4804F04CFFDB
:1031000001AA3146184804F01DFE314616486022D7
:1031100004F01AFF31461448042204F073FF3146CC
:103120001148082204F046FF224631460E4804F0BA
:1031300033FF04A804F0DAFD4FF0005304A90A4855
:103140000694CDE90443ADF81C4004F0D5FD2146BA
:10315000054804F0E7FD2946034804F0BFFD024896
:1031600004F0B0FD0CB070BD002C014008B50D4856
:1031700004F0B6FF0B484FF4E13104F0FDFF0948BD
:10318000042105F039F80821064805F02FF8054814
:1031900005F026F8BDE80840024840F2053105F088
:1031A00041B800BF0044004038B50546E9B20C48BC
:1031B00005F028F841F2010401E0013C07D008487D
:1031C000072105F027F80028F7D0284638BD054A22
:1031D00013684FF0FF3501331360284638BD00BF38
:1031E0000044004098400020F0B52DED028B9B4D2F
:1031F0001446002285B02A600E46217C074600292D
:1032000000F08480E168DFED966A5B1A07EE903A81
:10321000F8EEE77AB7EE007A67EEA67AF4EEC77AB0
:10322000F1EE10FAC4ED057A7AD4F0EE006AF4EE0D
:10323000E67AF1EE10FA00F18F8004F54053A168B0
:10324000D0ED037A94ED068AC3F85411D6F8A41091
:10325000C3F85C11F16BC3F86011316CC3F86411F1
:10326000316DC3F86811716DC3F86C1137EEC88AFF
:10327000B16DC3F87011F16DC3F87411B0EEC88A66
:10328000316EC3ED547A83ED568AC3F87811304617
:10329000F0EE678A01F0F4FADFED727AB4EE678A35
:1032A000F1EE10FA0DD8DFED707AB4EEE78AF1EEA8
:1032B00010FA06D4DFED6D7AB4EEE78AF1EE10FA7B
:1032C00062DD304601F0DCFADFED697A68EE277ADC
:1032D00040F20112FDEEE77A00230120A4F821203C
:1032E000237017EE901A84F824000A20FEF704FEDB
:1032F00018EE100AFDF7D8F802465E480B4605B0F6
:10330000BDEC028BBDE8F04006F030BC5A48029399
:1033100006F094FC0122029B22740022E3606261A9
:1033200004F5005202F5496002F698420023534921
:10333000A360036013608A6CC6F8A42004F53051C2
:10334000C6F8A8303431304601F00CFBFB68A361AD
:1033500005B0BDEC028BF0BD77EEC77A9FED487AE1
:1033600004F5325367EE877A04F530511033343167
:103370003046C4ED027AC3ED007A05B0BDEC028B95
:10338000BDE8F04001F0EEBA9FED3D0A80EE080A7C
:1033900009F028FC431E142B07464FF000023DD8CD
:1033A0002070D4ED067AF4EEE87AF1EE10FA2ED51C
:1033B000344884F8202006F041FC2178324806F099
:1033C000D5FBA069FDF770F802460B4618EE900A8F
:1033D000CDE90223FDF768F8DDE90223CDE900011C
:1033E0002A4806F0C3FB94F820302B602378234949
:1033F00007EE903AF8EE677A00220123C1ED0A7ACF
:10340000227484F8213005B0BDEC028BF0BD01239D
:1034100084F820301E4806F011FCCEE7304601F05B
:103420002FFA40F2011300220121A4F8213022706A
:1034300084F824100A203946FEF75EFD18EE100AC3
:10344000FDF732F8024613480B46394605B0BDEC8D
:10345000028BBDE8F04006F089BB00BFD4390020E4
:10346000D1CB0B38FFFF7F7FCDCC4C3EE4CB164158
:1034700000007A4474CF000850CF0008D43D0020EB
:10348000DB0FC940F0CF000820D0000834D000087E
:1034900008D00008B0CF00082DE9F041C24E96EDEB
:1034A0000A7A2DED028BF3EE057AB4EEE77AF1EEAF
:1034B00010FA84B000F312811D46137C14460F46A7
:1034C0008046002B00F0D880D3689FEDB87AEB1AC5
:1034D00007EE903AF8EEE77AB7EE006A67EE877A81
:1034E000F4EEC67AF1EE10FAC2ED057A00F1D28060
:1034F0009FEDAF8A96ED0A7A67EE085AC5EE886AA4
:1035000076EE866AF4EEE67AF1EE10FA78D4DFED24
:10351000A96A27EE267AC7EE086A36EE867AF4EEB6
:10352000C77AF1EE10FA00F1E280084601F0A8F93E
:10353000D6ED0A7ABDEEE77A17EE103A002B40F38B
:10354000928104EB432303F1300204F130010023A4
:1035500051F8040F91420344FAD107EE103AB8EE45
:10356000C77A9FED956A656B9FED938ADFED938A2D
:1035700027EE866AD5F58035C7EE066A48BF05F2A4
:10358000FF156D120027FDEEE66AC4ED076A07EE2F
:10359000107AF8EEC75A67EE886A65EEA75A6FF0A0
:1035A0003F0265EE885A002165EEA85AB7EE005A30
:1035B00013E036EEC56AB4EEC76AF1EE10FA03D531
:1035C00037EE667AFDEEC77A17EE903A04EB830386
:1035D00001325B6B402A194433D007EE902AF8EE93
:1035E000E77A77EEA57AFDEEE77A17EE903A002BB0
:1035F000B8EEE77ADDDA37EE267AFDEEC77AE3E752
:10360000D2ED027A9FED6E7A77EE877A02F5325329
:10361000084602F53051C2ED027A3431C3ED047A26
:1036200001F0A0F994ED057AD4ED0C7AB4EEE77AC6
:10363000F1EE10FA00F3D08004B0BDEC028BBDE8CF
:10364000F0810029B8BF7F317F2D4FEAE112294672
:10365000C8BFA5F18001E06901F68C2304EB830368
:10366000121A5A605748013706F080FA802F2BD083
:10367000D6ED0A7A01358AE75348039306F0DEFA5D
:10368000039BA38500236361012323744FF07E53C2
:10369000E560236304F532530022A2601A61B06C26
:1036A000C7F8A40004F53051C7F8A82034313846D3
:1036B00001F058F9D8F80C206369A261236304B0C3
:1036C000BDEC028BBDE8F08100220123227484F856
:1036D000223004B0BDEC028BBDE8F0813B481521DF
:1036E00004B0BDEC028BBDE8F04106F03FBAD2ED6C
:1036F000027A9FED337A77EEC77A0846C2ED027AF6
:10370000B36CC1F8A4300023C1F8A83002F53253DD
:1037100002F53051C3ED047A343101F023F994ED10
:10372000057AD4ED0C7AB4EEE77AF1EE10FA83DD87
:10373000A78D002F80D096ED0A7AD4ED027ADFEDC6
:10374000256AD8F87430A06827EE087A67EEA66A72
:10375000C6EE877AFDEEE77A17EE902A9B1ADD1304
:1037600005F480351D4404EB8703CDED037A596BD6
:103770000D4405EBD5756D105D63FCF795FE2B468A
:10378000CDE90001039A1248394606F0EFF9D4ED6D
:103790000C7A9FED0A7AA38D77EE877A013BA38599
:1037A000C4ED0C7A48E700BFD43D0020D1CB0B38E4
:1037B000DB0FC940DB0F4941000000430000003C23
:1037C0005F975B39B8D0000880D0000850D000085F
:1037D000A8D000080000804794ED026A96ED0A7AAE
:1037E0005FED046AD8F87430A78D66EE266A27EE7E
:1037F000087A16EE100AC6EE877AFDEEE77A17EE23
:10380000902A9B1ADD1305F480351D4404EB8703D1
:10381000CDED037A5D63FCF747FE2B46CDE9000151
:10382000039A1248394606F0A1F99FED116A94ED0A
:103830000C7ADFED106AA38D37EE067AFFEE007A80
:1038400084ED0C7A96ED0A6A07EE103AE6EE267AD7
:10385000B8EEC77AB4EE677AF1EE10FA3FF4ECAE48
:103860000133A385E8E69FED047A7AE6A8D0000844
:103870000000003C0000004300000000024B1878EC
:10388000003818BF01207047FC400020044B1B7813
:1038900023B1044A136843F001031360704700BF6B
:1038A000FC400020F8400020014B1868704700BF22
:1038B000F8400020014B1868704700BFF44000201A
:1038C000014B1868704700BFF0400020014B18689A
:1038D000704700BFEC400020014B1868704700BFE4
:1038E000E840002005289DBF024B33F8100080B24D
:1038F00000207047DC4000200E289ABF024B53F88E
:1039000020000020704700BFA0400020024B187824
:10391000003818BF012070479C400020014B012255
:103920009A637047A040002070B504464FF6FF73BD
:1039300084B03748218063804FF48051164603F0ED
:10394000E7FE00230393039B3F2B06D800BF039B96
:1039500001330393039B3F2BF8D940F6010501E0A7
:10396000013D40D02B48022104F0D6F80028F7D0C2
:103970002188284804F0CAF840F6010501E0013D1D
:1039800040D02448012104F0C7F80028F7D021488E
:1039900004F0BEF840F60105608001E0013D34D03E
:1039A0001C48802104F0B8F80128F7D000230293C6
:1039B000029B3F2B4FF000051CD915484FF4805156
:1039C00003F0A4FE00230193019B3F2B06D800BF08
:1039D000019B01330193019B3F2BF8D9638833800E
:1039E000284604B070BD4FF0FF3500230293029BC0
:1039F0003F2BE2D800BF029B01330293029B3F2B77
:103A0000F8D9DAE76FF00105EFE76FF00205ECE7B0
:103A1000000C01400038004070B582B000230DF169
:103A200002024FF40041ADF80230ADF80430ADF8B9
:103A300006300446FFF778FF4FF40841064601AA16
:103A40002046FFF771FF4FF4084105460DF10602CD
:103A50002046FFF769FF46EA0503034304D0064A00
:103A6000136843F004031360BDF80600BDF804308A
:103A700043EA004002B070BDF84000202DE9F04F4D
:103A8000002787B003ACCDE9037701943A4EDFF805
:103A90000CA13A4C059780464FF001090DF10E0B31
:103AA00014F8015B364BADF80A7043EAC5250DF1F9
:103AB0000A02A9B24046FFF737FF002849D0326812
:103AC00042F004024FF000093260A2450BF1020BF4
:103AD000E6D1019C2B48002334F8022B20F8132058
:103AE0000133062BF8D12849DDF80E30C8F806302E
:103AF0000B602649DDF81240BDF80E20BDF810001D
:103B00000C60234CBDF8161021600243BDF8123042
:103B1000BDF8144025D1C3F30A03A02B21D11D4BBE
:103B20009FED1D7AD3ED037AB4EEE77AF1EE10FA49
:103B3000ACBF4FF430734FF420739C4211D140F26C
:103B40001543994208BF09F1FF300AD107B0BDE81B
:103B5000F08F5A46A9B24046FFF7E6FE0028AED1E4
:103B6000B3E7054A13684FF0FF3043F008031360D2
:103B700007B0BDE8F08F00BFF8400020D0D80008A3
:103B80000080FFFFDC400020F0400020EC400020DF
:103B9000E8400020D43D002000002042D5D8000895
:103BA00030B585B004AB03E907000F48002104F0ED
:103BB000B9F80E484FF4006103F0A8FD00230C4A49
:103BC0001C4642F8234001330F2BFAD1094B012543
:103BD0001D7002F0D3FD084B084A1860084B1570A1
:103BE0001C7005B030BD00BF002C01400008014032
:103BF000A04000209C400020004100200541002002
:103C00000441002070B5754D88B02B7801AC84E874
:103C100007000BB908B070BD714B1E6802F0AEFD15
:103C20000A220146304602F011FD0028F2D000239E
:103C30006C482B704FF4805103F072FD034600284E
:103C400000F08D8094E8070005AB03C341F2A101A9
:103C50001A8005A80DF112020093FFF765FE624A73
:103C60009FED627AD2ED037A009B94E80700B4EEF0
:103C7000E77AF1EE10FA0DF1140CACE80300A8BFDE
:103C80004FF44B511A80B8BF4FF44A510DF1120254
:103C900005A8FFF749FE94E80700009B0DF1140CFE
:103CA000ACE8030042F615411A8005A80DF1120296
:103CB000FFF73AFE2046FFF7E1FE4D4B4D4A041E4A
:103CC0000CBF01210021196011684B4A596012682C
:103CD0004A499A6009684A4AD960518889B219618B
:103CE000918889B25961D188464A89B29961D2F8DE
:103CF0000418D961D2F80C181962D2F80818596260
:103D0000D2F8041C9962D2F80C1CD962D2F8081CB3
:103D10001963A2F55042D2F808285A6344D13148B9
:103D20004FF4805103F0FCFC00283DD03649374B5E
:103D3000374801250D702A4621461C7004F08AF987
:103D40002A462946324804F085F931482A4602219C
:103D500004F080F92E48294603F0E4FF5AE7244D89
:103D6000009320462B60FFF757FE264A6860D2F882
:103D70000418E961D2F80C182962D2F808186962AF
:103D8000D2F8041CA962D2F80C1CE962D2F8082C03
:103D900020492A631D4AD1F80818009B6963202036
:103DA0001370FDF7C5F935E7184B002420201C706F
:103DB000FDF7BEF9012221461548ADF8082003F0B1
:103DC000B1FF08484FF4006103F0A2FC0E4A0F4B0C
:103DD0002C7014701C7008B070BD00BF054100202D
:103DE0000041002000080140D43D00200000204296
:103DF000A0400020F0400020EC400020E8400020DF
:103E0000DC40002000000140044100209C400020D4
:103E1000002C014000300040024B1878003818BFD9
:103E2000012070470441002000B585B004AB03E9D0
:103E300007000948002103F075FF08484FF40061AE
:103E400003F066FC06480749074A002303700B701D
:103E5000137005B000BD00BF002C014000080140F8
:103E600005410020044100209C400020F0B589B0AD
:103E700001AC84E8070094E8070005AE03C64FF4E0
:103E80000041328005A80DF112021F46FFF74CFDDC
:103E900094E8070005AB03C332804FF408410DF1ED
:103EA000120205A8BDF81250FFF73EFDBDF8124002
:103EB00054EA05031FD12B0743D46F0746D4AE073E
:103EC00049D4ED074CD460054FD4A10552D4E20586
:103ED00055D4230658D467065BD4A6065ED4E506FF
:103EE00061D4200764D4610767D4A2076AD4E307CA
:103EF0006DD409B0F0BD3B48394605F037FE6A0580
:103F00006BD4AB0502D5384805F030FEEF0502D57D
:103F1000364805F02BFE2E0602D5354805F026FE64
:103F2000680602D5334805F021FEA90602D53248BD
:103F300005F01CFEEA06BED5304805F017FE2B073B
:103F4000BBD52F4805F012FE6F07B8D52D4805F0F8
:103F50000DFEAE07B5D52C4805F008FEED07B2D52D
:103F60002A4805F003FE6005AFD5294805F0FEFD9F
:103F7000A105ACD5274805F0F9FDE205A9D52648ED
:103F800005F0F4FD2306A6D5244805F0EFFD6706ED
:103F9000A3D5234805F0EAFDA606A0D5214805F0E3
:103FA000E5FDE5069DD5204805F0E0FD20079AD502
:103FB0001E4805F0DBFD610797D51D4805F0D6FDCD
:103FC000A20794D51B4805F0D1FDE30791D51A4807
:103FD00009B0BDE8F04005F0C9BD184805F0C6FDC0
:103FE0008FE700BFC4D00008E4D00008F0D000087C
:103FF000F8D0000800D1000808D1000814D100084A
:1040000020D100082CD1000838D1000844D1000884
:1040100050D1000858D1000860D1000868D10008CC
:1040200070D1000878D1000884D1000890D1000830
:104030009CD10008A8D10008B4D10008D8D000084D
:104040002DE9F04188B001AC84E807006C4F6D4A5F
:104050006D4D6E4900233B602B6013606C4A13600A
:104060006C4A13601A4621F813200133062BFAD14B
:10407000FDF730F8684B9FED697AD3ED037A684E0F
:104080006848B4EEE77AF1EE10FA4FF001034FF40E
:104090000061A8BF4FF003083370B8BF4FF00208AB
:1040A00003F034FB0A2002F051FB2046FFF7B4FC7A
:1040B00028602B681BB13B6843F002033B6094E827
:1040C000070005AD03C541F2A1012A8005A80DF145
:1040D0001202FFF729FC544800F024FB94E8070083
:1040E000B8F1030F05AB03C314BF4FF44A514FF4AB
:1040F0004B512A8005A80DF11202FFF715FC94E838
:10410000070005AB03C32A8042F615410DF11202E8
:1041100005A8FFF709FC94E8070005AB03C341F2CB
:10412000A1012A8005A80DF11202FFF7FDFB012075
:1041300002F00CFB3B484FF4805103F0F1FA18B940
:104140003B6843F010033B602046FFF797FC28B91B
:1041500034484FF4805103F0E3FAE0B994E80700E3
:1041600005AB03C341F2A1011A8005A80DF11202AB
:10417000FFF7DAFB012002F0E9FA2A484FF48051F8
:1041800003F0CEFA28B32046FFF778FC08BB3B6863
:1041900023F008033B6023484FF4805103F0C0FA3A
:1041A0000446B8B12148002103F0BCFD1D484FF47E
:1041B000006103F0ADFA1E491E4A1F4B00240C702B
:1041C00014701C703470FCF785FF204608B0BDE801
:1041D000F081002420203470FCF7AAFF1348214608
:1041E00003F0A0FD0F484FF4006103F091FA10496D
:1041F000104A114B0C704FF0FF3014701C70E5E743
:10420000F8400020F0400020F4400020DC40002076
:10421000EC400020E8400020D43D00200000204277
:10422000FC40002000080140BC360020002C01406A
:1042300005410020044100209C40002008B50C21CD
:10424000002003F0BBFA4FF480500222002103F05B
:1042500033F8BDE808404FF4805003F085B800BF44
:10426000044A072928BF07210023C0E90121037060
:10427000704700BF00C0030810B5044603F07AF889
:1042800040F2073003F0DEF9606803F0A7F801237D
:10429000237010BD84B00DF1100C0CE907000298DA
:1042A000049900EB830004B003F038B984B00DF139
:1042B000100C0CE907000298049900EB830004B08D
:1042C00003F02CB984B00DF1100C0CE90700029832
:1042D00010EE101A00EB830004B003F01FB900BF0A
:1042E00000B583B0019003F065F8019800230370D6
:1042F00003B000BD84B00DF1100C0CE9070051F8BB
:10430000230004B0704700BF84B00DF1100C0CE91D
:10431000070051F8230004B0704700BF84B00DF1CE
:10432000100C0CE9070001EB830292ED000A04B0C7
:10433000704700BF08B590ED167AD0ED186A1C4B97
:10434000F7EE007A2DED048B37EEC77A9FED199AC0
:10435000D0ED178A1968184827EE097A77EEE88AAF
:1043600037EEE68AFCEEC77A17EE902AC9B903F059
:1043700013FE1148012168EE898AFCEEE87A17EEF7
:10438000902A03F009FE68EE097ABDEC048BFCEE7E
:10439000E77ABDE80840084817EE902A022103F0AA
:1043A000FBBD012103F0F8FD03480021E3E700BF56
:1043B000D43900200000FA44002C014038B5484BA5
:1043C0001C680546002C7ED12146464802F0CCFCF4
:1043D0000346AB604448214602F0C6FC0346414810
:1043E000EB60022102F0B2FC4048022102F0AEFC78
:1043F00040F6010401E0013C50D03A48042102F0AB
:10440000C7FC0028F7D040F6010401E0013C45D08C
:104410003648042102F0BCFC0028F7D031480421C2
:1044200002F0BCFC3148042102F0B8FC00212F4806
:1044300002F09AFCAA68D5F89810EB68D5ED1C6AD2
:10444000DFED2B5A2861521A07EE102AD5F89C206E
:1044500007EE900A9B1AB8EEE76A07EE903AB8EEBC
:10446000C77AF8EEE77A27EE267A67EEA67AD5F8CD
:10447000F83285ED067AF1EE476A26EE256A76EE89
:10448000E76A0122013385F8F52285ED086AC5ED5A
:10449000077AC5ED056AC5F8F83238BD1148042120
:1044A00002F07CFC1148042102F078FCD5F8FC32C3
:1044B0000022013385F8F522C5F8FC328020BDE8E2
:1044C0003840FCF735BE0021074802F04DFC03469A
:1044D000AB600448002102F047FC03467FE700BFC1
:1044E000D43900200024014000280140003C014054
:1044F0001833533C00B52DED028B87B0CDE9021087
:10450000CDED050A8DED041A0192F0EE408A01F01E
:10451000E7FAB0EE408AB0EE680A01F0BBFAF6EEB8
:10452000007A67EEC06ADFED175A9FED176A9DEDBE
:10453000041ADDED050A03980299019A67EEC87A1C
:10454000B0EE667AA8EE257AE8EE656AF0EE675A74
:10455000E0EE065AE0EE467A21EE477A21EE400A76
:1045600021EE661AA8EE200AA5EEA07AA7EEA01A00
:1045700080ED000A81ED007A82ED001A07B0BDECF3
:10458000028B00BDD7B35DBFD7B35D3F00B52DED46
:10459000028B87B0CDE90110CDED050A8DED041A2F
:1045A000CDED031AF0EE408A01F09AFAB0EE408A9F
:1045B000B0EE680A01F06EFAB6EE007A67EE486A6D
:1045C00027EE407ADFED185A9FED186A9DED041A28
:1045D000DDED050ADDED031A02980199F0EE667A29
:1045E000B0EE475AA8EE065AE0EE257AA8EE467AD3
:1045F00067EE817A21EE451AE0EE656AE8EE207AF0
:10460000A0EE601AE6EEA17AA7EE611A9FED086AA5
:1046100067EE867A21EE061AC0ED007A81ED001A67
:1046200007B0BDEC028B00BDD7B35D3FD7B35DBF14
:10463000ABAA2A3F00B52DED0A8BB0EE609A85B08B
:10464000F0EE418AF0EE40AAB0EE611AF0EE680A90
:10465000B0EE490AB0EE618A0192CDE9021001F094
:10466000BBF9B0EE481AF0EE680AB0EE40AAB0EE20
:10467000490A01F099F93AEE00AAF6EE009AAAEE7C
:10468000699ADFED24BA9FED24CA9FED24BA29EE82
:10469000299AF0EE4C0A29EE2B9A89EE2A0A9FED10
:1046A000209A30EE0B0A01F06FF9F0EE490A01F0A2
:1046B00073F9EAEE698A039880ED000A68EEA98A28
:1046C000F0EE4C0A68EEAB8A88EEAA0A30EE0B0ACE
:1046D00001F05AF9F0EE490A01F05EF9AAEE698A92
:1046E000029981ED000A28EE298AF0EE4C0A28EEA4
:1046F0002B8A88EE2A0A30EE0B0A01F045F9F0EE1B
:10470000490A01F049F9019A82ED000A05B0BDECB1
:104710000A8B00BD3333933F00000000D7A3F03E67
:10472000D7A3703FF8B500238365C36503660446CD
:10473000FFF700FE00264FF47A7537462046FFF754
:104740003DFED4E90223013D17441E44F6D1074B38
:1047500083FB0721FA17C2EBA11283FB0631F31783
:10476000C3EBA113C4E92623F8BD00BFD34D6210EB
:104770002DE9F843344A354BDFED356ADFED355A24
:104780002DED028BC267C0F8802093ED027A324A89
:10479000C0F8842066EEC76AF7EE007AB0EE676A6A
:1047A000A6EEA56A2D4ADFED2E6A1268C0F8C82071
:1047B00027EE267AC7EE866A80ED1D7A77EEE67AD6
:1047C00080ED1E7AC0ED227A9FED267AD3ED037A32
:1047D000F4EEC77AF1EE10FA33D8234BDFF89C9051
:1047E000DFED228A9FED228A224F03674FF0804837
:1047F00000F1F4050024002607EE904AF8EEE77A6F
:10480000013467EEA87AC7EE887A17EE900AFBF7B4
:104810004BFE41EC100B07F05BFE424651EC100BD7
:104820004B46FBF799FE32463B46FBF7DFFCFCF7B5
:104830008BF9802C45F8040BDED1BDEC028BBDE872
:10484000F8830D4BCAE700BFEC51383DD43D002042
:10485000D1CB0B38DB0FC940BD74933BD43900205A
:1048600017B7D13800002042FFFFA43C000000BC75
:104870006F12033D0000F03FFFFF243D3333F33F51
:1048800010B54FF47A7204460021114803F084FBFE
:104890000F484FF47A72012103F07EFB4FF47A72D5
:1048A0000B48022103F078FB00230022C4F8A43057
:1048B000C4F8A830E36323646364C4F89030C4F898
:1048C0008C3063652365C4F8E830C4F8EC2010BD73
:1048D000002C014090ED397AD0ED387A90ED3A0A0B
:1048E000DFED1E0A77EEC77A90ED217A10B5A7EEBC
:1048F000270A82B0044680ED3A0A01F04DF8184BC1
:10490000D3ED060AF1EE600A01F03EF894ED3C7A30
:1049100084ED3A0A60EE407A84ED290AE7EE077AE0
:10492000F5EE407AF1EE10FA11D4F1EEE70A94EDCB
:104930002A0ACDED010A01F02FF8DDED010AF1EEB2
:10494000600A01F021F884ED2A0A02B010BDB0EE31
:10495000670A07F00DFEF0EE400AE8E700000000ED
:10496000D43D002030B52DED028B91ED170A4B6E32
:10497000904D91ED186AD0ED071A90ED061AD0ED22
:10498000050AD1ED036A83B0436380ED0B0A95ED10
:10499000117AC6EE077A044600F140013C30C4EDBE
:1049A0000C7A95ED117AC6EE877AC4ED0A7AFFF794
:1049B000EDFD9FED815A94ED087ADFED805AD4ED3C
:1049C000097A94ED106AD4ED0F6A94ED114AD4ED92
:1049D000124A27EE057A26EE056AA7EEA57A04F1BB
:1049E000A80104F1A400DFED767A84ED097A67EE80
:1049F000277A66EE856A9FED735AE4EEA56AA4EE07
:104A0000256A67EE857ADFED705A84ED116A67EEEC
:104A1000A57AC4ED126AC4ED387A95ED030A84EDE7
:104A20003C0A00F0F1FFD4ED0F6AD4ED298A94ED31
:104A30001D7A94ED230ADFED657A94ED2A8AD4ED90
:104A4000380A78EEE68AA7EE280A94ED107A30EE5E
:104A5000270A38EE478A84ED140A00F09DFFD4ED52
:104A6000380AF1EE600A00F08FFFD4ED1F6A94ED72
:104A70001D7AD4ED237AD4ED380A84ED140A27EE9A
:104A8000267AE7EE287AB0EE670AC4ED237A00F0C2
:104A900083FFD4ED380AF1EE600A00F075FFD4ED23
:104AA000147AD4ED380A84ED230A67EEE77AE0EE53
:104AB000A07AF5EE407AF1EE10FA6FD4F1EEE78AC3
:104AC00094ED240AD4ED1E7AD4ED206AB0EE407A3B
:104AD000A7EE887A67EEA67ADFED3C6AA7EE880A31
:104AE00077EE267A84ED240AC4ED157A00F054FF9F
:104AF000D4ED380AF1EE600A00F046FFF0EE406AAD
:104B000094ED150A94ED147AC4ED246A60EE007AEF
:104B1000F0EE680AE7EE077AB1EEE77A84ED397ACB
:104B200000F03AFFF1EE680A00F02EFFF0EE407A56
:104B300004F1540194ED380AC4ED157A04F15000E3
:104B400000F062FFDFED227A94ED0D7A94ED0B0A0E
:104B500094ED151AD4ED140AA7EE270A04F16C029D
:104B600004F1680104F16400FFF7C4FC04F158008B
:104B7000D4ED1B1A94ED1A1AD4ED190A94ED380AE3
:104B800004F1600204F15C01FFF754FD204603B01C
:104B9000BDEC028BBDE83040FFF7CCBBB0EE670A3E
:104BA000CDED010A07F0E4FCDDED010AF0EE408AEC
:104BB00086E700BFD43D0020CDCCCC3D6666663F85
:104BC0003333933FD7A3703F3ACD133F000000002B
:104BD000BAB1513890ED0A7AD0ED337AD0ED356A1A
:104BE00090ED370A144BD0ED3C0A77EEC77A90ED82
:104BF000347AA6EEA70A10B5D0ED0C7AD0ED366A5D
:104C000037EE677AD3ED0E7AA6EE870A044693ED67
:104C1000117A67EE877A80EE270A00F0BDFED4EDA8
:104C20003C0AF1EE600A00F0AFFE002384ED2A0A90
:104C3000C4F8A43010BD00BFD43D00200023C0F84C
:104C4000DC30C0F8D430C0F8D830C0F8CC30C0F870
:104C5000D030C0F8A830704708B50B4801F048FBC9
:104C600070B1094801F078FB38B1074801F0D8FC71
:104C7000054801F019FC013808BD034801F0D0FCDB
:104C80004FF0FF3008BD00BFBC39002010B54FF415
:104C9000805182B00A4802F043FD0446FCF750FA06
:104CA000084A094B094992F8F52293F8DD328988C0
:104CB0000092221E18BF012201F0B6FC02B010BD06
:104CC00000080140BC360020983300208C330020BF
:104CD00010B503780446052B2AD8DFE803F0270334
:104CE0002A2927271B4B1A8918685968FFF79CF84F
:104CF000194B93F82220CAB91849194A09689162D8
:104D000003F50053174893F848CFD3F84C3F1649A2
:104D1000C0F800C04FF400724361183004F0FCFF8B
:104D2000114912484FF4007204F0F6FF0123E370BA
:104D300010BD084B0122C270186859681A89FFF724
:104D400073F80B48FFF79CFDBDE810400848FFF7DB
:104D500075BF00BF8C3300201002002054310020AA
:104D6000D43D0020D439002060310020743400206C
:104D7000BC36002008B50D4804F060FF0C4804F074
:104D80005DFF0C4804F05AFF0B4804F057FF0B4836
:104D900004F054FF0A4804F051FF0A4804F04EFFA3
:104DA000BDE80840084804F049BF00BF78CE0008BD
:104DB000C0D10008CCD10008E0D10008FCD1000827
:104DC0000CD2000824D2000840D2000830B56C484C
:104DD0006C4C6D4D85B004F0C9FE6C486C4B6D4A4F
:104DE0006D49CDE900046D4C6D4804F0BFFE6D487F
:104DF00004F024FF606CFBF757FB6B4A6B4B00958C
:104E0000CDE902016A496B4804F0B0FEA06BFBF7E4
:104E10004BFB694A654B0095CDE90201674968483B
:104E200004F0A4FE674804F009FFA068FBF73CFB10
:104E3000654B664A0093CDE90201654B65496648BA
:104E400004F094FEE068FBF72FFB644B644A009388
:104E5000CDE90201634B64495F4804F087FE206D91
:104E6000FBF722FB2B46CDE90201604A0095604921
:104E7000594804F07BFEA06DFBF716FB2B46CDE9ED
:104E800002015C4A00955C4953485C4D04F06EFE9B
:104E9000E06DFBF709FB5A4B5A4A0093CDE902013A
:104EA000504B59494C4804F061FE206EFBF7FCFA68
:104EB000564B574A0093CDE902014A4B55494648A3
:104EC00004F054FEA069FBF7EFFA534B534A0093EA
:104ED000CDE90201434B52493F4804F047FE206AA6
:104EE000FBF7E2FA4F4B504A0093CDE902012F4BFA
:104EF0004E49394804F03AFE606AFBF7D5FA4C4B4C
:104F00004C4A0093CDE90201364B4B49324804F03C
:104F10002DFEA06C494CFBF7C7FACDE902014849C8
:104F2000304B484A00912C48474904F01FFE47483F
:104F300004F084FE6368464A46494748CDE9005379
:104F40001A4B04F013FEA3680193444A174B4449DB
:104F50000095414804F00AFEE068424B424A43494A
:104F6000CDE90030114B424804F000FE414804F006
:104F7000FDFD414805B0BDE8304004F0F7BD00BF7D
:104F800058D20008ACD2000800D30008BCD20008F8
:104F900074D2000878D2000884D20008D43D0020E2
:104FA0008CD20008C0D20008D0D20008CCD20008B1
:104FB000DCD20008E0D2000804D300081CD30008AB
:104FC00020D3000840D3000890D3000854D3000831
:104FD00050D300086CD3000870D30008B4D3000885
:104FE0009CD3000898D30008B0D30008BCD30008B5
:104FF000D8D30008DCD30008FCD3000818D500087B
:1050000020D4000800D400081CD400084CD40008A8
:1050100028D4000848D400086CD4000850D40008F4
:1050200068D4000894D4000874D4000890D4000810
:10503000B4D4000898D40008B0D40008D4390020B3
:10504000D8D40008BCD40008D4D40008E0D40008A8
:10505000ECD40008F4D40008F8D400081CD50008EB
:1050600028D500086CD500082CD500084CD50008C0
:1050700050D5000874D50008C0D5000800B50378E5
:1050800083B0042B2BD8DFE803F02C20082A030080
:1050900003B05DF804EBFFF799BE0190FFF7F6FD52
:1050A0000346002852D12D480193C0F8B830FFF7CD
:1050B000E7FB2B49019A088960F30F0208684968E9
:1050C00003B05DF804EBFEF76BBD0190FFF7DEFD6A
:1050D000034658B1019A002101235170D37003B0E7
:1050E00000BD03B05DF804EBFFF744BE1B4A1D484A
:1050F000DFF878C01C49D2F8B420DCF828E0A0F82A
:10510000213080F824300374826200F500500A6870
:1051100080F8482F4A69C0F84C2F00F6447C1831BB
:105120004FF4007200F575600193CCF800E004F0D4
:10513000F3FDDFF83CC0019BCCF8D8304FF400728F
:1051400019460CF1DC0004F09AFDB2E701210620BB
:10515000FCF7D2FE0148FFF771FDBBE7BC3600202B
:105160008C33002010020020D4390020D43D0020D0
:1051700098330020F0B5837B83B00446002B67D1C1
:10518000437822789A427DD1022B00F08580052B4E
:1051900000F0B480012B59D1A94A019310685168DD
:1051A0001289FEF72FFDFEF737FE0546002800F0B6
:1051B000C180A44B93F82130002B00F02181A14B3A
:1051C00093F82230002B00F02C819E4D95F824306E
:1051D000002B40F0E6809B4B9B4EDB6996ED1A7AE4
:1051E0009A4F9FED9B0A7B615A4207EE902AF8EE98
:1051F000E77AF7EE000A67EE877A1D4627EE800A07
:1052000007F03AF9DFED937A60EE277A17EE900A0D
:10521000FBF74AF90B46024629468F4804F0A6FCE4
:105220008E494FF4007206F1DC0004F075FD8B49E5
:105230004FF4007207F1180004F06EFDFFF70CFD4B
:10524000002840F0F88000236370E37003B0F0BDE5
:1052500083484FF4805102F063FA7B4B93F8DD32C0
:10526000002B54D1238A40F6B732591C9342218235
:10527000ECD9227800230121A37323826370E170AB
:10528000002AE3D02046FFF723FDE378002B73D1FB
:105290002378022B7FF47BAF694B186859681A8911
:1052A000FEF7B0FCFEF7B8FD0028CFD0674BDA68F8
:1052B000002A05DD6B49D1F8B8108A42C0F2AA80F5
:1052C000FFF7E4FC00285DD16648FFF783FC6548E2
:1052D000FFF700FB5C496348FFF744FB6378022B50
:1052E000B4D15A4BDB68002BB0DD5E49D1F8B82051
:1052F0009342ABDB0132C1F8B820A7E7594B5248C3
:10530000D3F8B41003B0BDE8F04000F02FBF554B08
:1053100093F8F532002BA5D00028A3D0484B0022EB
:105320004FF4F0709A80FBF711FF00226378A273AC
:10533000228226E74B4A434BD2F8B420986A41F2C6
:105340007071121A8A4281D902210620FCF7D4FD1D
:105350003B4B198918682A4661F30F025968FEF71A
:1053600063FD3849019B81F8243040F20112A1F815
:1053700021206570E37069E7637823702046FFF7AA
:105380007DFE85E700210620FCF7B6FD2C4B1A892F
:1053900018685968FEF748FD002201236270E37027
:1053A00054E73149294BD1ED007A304905F50052D7
:1053B000C1ED0A7A92F8481FCDED017A1960D2F852
:1053C0004C6F5E6103F1180002F575614FF40072D5
:1053D00004F0A2FC1C48DDED017A2549C0ED1A7AE3
:1053E000C0F8D8604FF40072DC3004F095FC21481E
:1053F00004F024FC002385F824306370E37025E773
:1054000018491148D1F8B4300E4A03B0BDE8F04055
:10541000FDF7EABE0520FCF76FFD1248FFF70EFC12
:10542000B4E710490848D1F8B430064A03B0BDE8E3
:10543000F040FEF731B8104804F000FC03E700BF6D
:105440008C3300201002002098330020D439002033
:1054500000008037DB0FC94024D60008442C002010
:1054600000080140BC36002054310020D43D00200B
:10547000EC390020ECD5000838D6000838B5417B5F
:10548000A1F161030446172B19D8DFE813F02800B7
:105490004700660085001800A000BF00DA00F90090
:1054A000180004011F013E011800180049011800EE
:1054B0001800180068011800730118009201CC4808
:1054C00004F054FB251DFFF7C7FB002840F08C813A
:1054D000FFF77CFC0023A38163606B6038BD051D72
:1054E000284602F07AFF51EC100BFBF72DFBF3EE90
:1054F000040A00EE100A07F031FBDFEDBE0A07F0E8
:1055000005FBBD4B10EE100A83ED120AFAF7CCFF33
:1055100002460B46B94804F029FBD4E7051D28468E
:1055200002F05BFF51EC100BFBF70EFBDFEDB40A52
:1055300000EE100A07F012FBDFEDB20A07F0E6FA00
:10554000AD4B10EE100A83ED020AFAF7ADFF0246EA
:105550000B46AD4804F00AFBB5E7051D284602F0EE
:105560003CFF51EC100BFBF7EFFADFEDA80A00EE61
:10557000100A07F0F3FADFED9F0A07F0C7FA9E4B17
:1055800010EE100A83ED090AFAF78EFF02460B4669
:105590009F4804F0EBFA96E7051D284602F01DFF30
:1055A00051EC100BFBF7D0FADFED920A00EE100A77
:1055B00007F0ACFA904B10EE100A83ED180AFAF7D8
:1055C00073FF02460B46934804F0D0FA7BE7051DB3
:1055D000284602F002FF51EC100BFBF7B5FADFEDA5
:1055E0008E0A00EE100A07F0B9FADFED820A07F022
:1055F0008DFA814B10EE100A83ED060AFAF754FF7C
:1056000002460B46854804F0B1FA5CE7051D2846C2
:1056100002F0E3FE51EC100BFBF796FADFED800A87
:1056200000EE100A07F072FA734B10EE100A83EDC9
:10563000110AFAF739FF02460B467A4804F096FA47
:1056400041E7051D284602F0C8FE51EC100BFBF7A0
:105650007BFADFED750A00EE100A07F07FFADFED46
:10566000650A07F053FA644B10EE100A83ED080A3E
:10567000FAF71AFF02460B466C4804F077FA22E765
:10568000051D284602F0ACFE694B01465960694889
:1056900004F06CFA17E7051D284602F09EFE51EC57
:1056A000100BFBF751FADFED640A00EE100A07F069
:1056B0002DFA514B10EE100A83ED0E0AFAF7F4FEA4
:1056C00002460B465D4804F051FAFCE6051D2846EB
:1056D00002F083FE51EC100BFBF736FADFED580AAF
:1056E00000EE100A07F03AFADFED420A07F00EFA70
:1056F000414B10EE100A83ED030AFAF7D5FE02467D
:105700000B46504804F032FADDE6051D284602F04B
:1057100067FE474B014699604B4804F027FAD2E6F2
:10572000051D284602F059FE51EC100BFBF70CFA50
:10573000DFED300A00EE100A07F0E8F92E4BF1EE2B
:10574000407A83ED140AC3ED137A10EE100AFAF7CB
:10575000ABFE02460B463D4804F008FAB3E6051DD1
:10576000284602F03DFE324B0146D960384804F02D
:10577000FDF9A8E6051D284602F02FFE51EC100B9E
:10578000FBF7E2F9DFED1B0A00EE100A07F0BEF9A5
:10579000194BF1EE407A83ED160AC3ED157A10EE3F
:1057A000100AFAF781FE02460B462A4804F0DEF999
:1057B00089E6051D284602F010FE51EC100BFBF7A0
:1057C000C3F9DFED0C0A00EE100A07F09FF90A4B4F
:1057D00010EE100A83ED170AFAF766FE02460B4632
:1057E0001D4804F0C3F96EE61C4804F027FA6FE682
:1057F000A8D7000800000000D43D002024D70008EE
:105800000000FA440000C84270D6000800002042A0
:105810000CD700086CD7000800000442C4D600086A
:105820006F12833A38D7000800001643F4D60008F8
:10583000D439002084D6000817B7D13848D70008DB
:1058400000007042B0D6000898D6000880D7000843
:10585000DCD6000894D7000858D7000838D60008CE
:105860001B2908B5034645D06D29027846D052B1B0
:10587000042A07D10D294ED0027B002A48D141735A
:1058800001321A7308BD63391729FBD801A252F8F7
:1058900021F000BF1F590008855800082959000849
:1058A0008558000885580008855800088558000864
:1058B0008558000885580008855800088558000854
:1058C0008558000885580008855800088558000844
:1058D0008558000833590008855800088558000885
:1058E0008558000885580008855800088558000824
:1058F0003D59000800224270C27008BD02218A4250
:105900004170BFD000220121C2708173028208BDA4
:105910001044C170B4E7BDE80840FFF7AFBD0121F6
:1059200000224170C27008BD052100224170C27082
:1059300008BD042100224170C27008BD0D489FEDD2
:105940000E0A0023C0F8D43000F0B4FA09480B4B1B
:10595000826F1A61FFF780F9084B28B91969084866
:10596000BDE8084004F002B9064804F067F9034BAB
:10597000F4E700BF98330020D1CB0B38D439002096
:1059800000D80008D0D70008B4EEE00AF1EE10FA13
:10599000D8BFB0EE600A7047F4EEC00AF1EE10FA1C
:1059A000D8BFB0EE600A7047B4EEE00AF1EE10FA2C
:1059B00007DDB4EEC10AF1EE10FAD8BFB0EE410A2D
:1059C0007047F4EEC10AF1EE10FAD4BFB0EE410A0E
:1059D000B0EE600A704700BFB4EEE00AF1EE10FAD4
:1059E00007D5B4EEC01AF1EE10FAD8BFB0EE410AF6
:1059F0007047B4EEE01AF1EE10FAD4BFB0EE410AEF
:105A0000B0EE600A704700BFD1ED007A90ED007AE9
:105A100067EEA77AE7EE077AF1EEE76AF4EEC06A7E
:105A2000F1EE10FA0DDD27EE007AC7EE267AC0ED12
:105A3000007AD1ED007A20EE270AC0EE267AC1ED79
:105A4000007A704701238340013B07EE903A30EE25
:105A5000600AF8EEE77A31EE601A67EE807A87EE38
:105A6000817AFDEEC77A17EE900A704707EE900A2A
:105A7000012370EEC00AF8EEE77A8B40013B27EE77
:105A8000A07A07EE903AF8EEE77AC7EE276A36EE8C
:105A9000800A704700B5DFED0F0A83B0CDED010A33
:105AA00006F0EAFCB5EEC00AF1EE10FA03D5DDED22
:105AB000010A30EE200ADFED087A084B20EE270AB3
:105AC000BDEEC00A10EE102A03EB820393ED000A2C
:105AD00003B000BDDB0FC94083F9A242D8D800084B
