:020000040800F2
:100000000000012081920008F9750008FD750008C4
:100010000976000815760008217600080000000027
:100020000000000000000000000000002D76000825
:1000300031760008000000003576000839760008A7
:10004000D1920008D1920008D1920008D192000804
:10005000D1920008D1920008D1920008D1920008F4
:10006000D1920008D1920008D1920008D1920008E4
:10007000D1920008D1920008D1920008D1920008D4
:10008000D1920008D1920008D1920008D1920008C4
:100090003D760008D1920008D1920008D192000864
:1000A000D1920008BD770008D1920008D1920008D3
:1000B000D1920008D1920008D1920008D192000894
:1000C000D1920008D1920008D1920008D192000884
:1000D000D1920008D1920008B9780008D1920008A6
:1000E00045780008D1920008D1920008D19200080A
:1000F000D1920008D1920008D1920008D192000854
:10010000D1920008D1920008D1920008D192000843
:10011000D1920008D1920008D1920008D192000833
:10012000D1920008D1920008D1920008D192000823
:1001300001F0FF01102A2BDB10F0070F08D010F898
:10014000013B013A8B422DD010F0070F42B3F6D19C
:10015000F0B441EA012141EA014122F007047FF0B5
:1001600000070023F0E80256083C85EA010586EA0C
:10017000010685FA47F5A3FA87F586FA47F6A5FA48
:1001800087F68EB9EED1F0BC01F0FF0102F0070254
:1001900032B110F8013B013A83EA010313B1F8D1FF
:1001A0000020704701387047002D06BF35460338E0
:1001B000073815F0010F07D1013015F4807F02BF19
:1001C000013015F4C03F0130F0BC0138704700BF6A
:1001D000034613F8012B002AFBD1181A0138704787
:1001E00081F0004102E000BF83F0004330B54FEAE8
:1001F00041044FEA430594EA050F08BF90EA020F55
:100200001FBF54EA000C55EA020C7FEA645C7FEAE7
:10021000655C00F0E2804FEA5454D4EB5555B8BF0A
:100220006D420CDD2C4480EA020281EA030382EA7B
:10023000000083EA010180EA020281EA0303362D0D
:1002400088BF30BD11F0004F4FEA01314FF4801CE0
:100250004CEA113102D0404261EB410113F0004FF2
:100260004FEA03334CEA133302D0524263EB4303A9
:1002700094EA050F00F0A780A4F10104D5F1200E47
:100280000DDB02FA0EFC22FA05F2801841F10001A2
:1002900003FA0EF2801843FA05F359410EE0A5F176
:1002A00020050EF1200E012A03FA0EFC28BF4CF0A7
:1002B000020C43FA05F3C01851EBE37101F000455D
:1002C00007D54FF0000EDCF1000C7EEB00006EEB6A
:1002D0000101B1F5801F1BD3B1F5001F0CD34908F4
:1002E0005FEA30004FEA3C0C04F101044FEA44524B
:1002F00012F5800F80F09A80BCF1004F08BF5FEAD2
:10030000500C50F1000041EB045141EA050130BDB1
:100310005FEA4C0C404141EB0101013C28BFB1F5C3
:10032000801FE9D291F0000F04BF01460020B1FA0E
:1003300081F308BF2033A3F10B03B3F120020CDAE1
:100340000C3208DD02F1140CC2F10C0201FA0CF0BF
:1003500021FA02F10CE002F11402D8BFC2F1200C24
:1003600001FA02F120FA0CFCDCBF41EA0C019040DA
:10037000E41AA2BF01EB0451294330BD6FEA040423
:100380001F3C1CDA0C340EDC04F11404C4F120020E
:1003900020FA04F001FA02F340EA030021FA04F320
:1003A00045EA030130BDC4F10C04C4F1200220FA77
:1003B00002F001FA04F340EA0300294630BD21FAB5
:1003C00004F0294630BD94F0000F83F4801306BF7B
:1003D00081F480110134013D4EE77FEA645C18BF6F
:1003E0007FEA655C29D094EA050F08BF90EA020F06
:1003F00005D054EA000C04BF1946104630BD91EAFE
:10040000030F1EBF0021002030BD5FEA545C05D100
:100410004000494128BF41F0004130BD14F580043F
:100420003CBF01F5801130BD01F0004545F0FE41B3
:1004300041F470014FF0000030BD7FEA645C1ABFE8
:10044000194610467FEA655C1CBF0B46024650EA1F
:10045000013406BF52EA033591EA030F41F400214B
:1004600030BD00BF90F0000F04BF0021704730B5D1
:100470004FF4806404F132044FF000054FF00001A6
:1004800050E700BF90F0000F04BF0021704730B567
:100490004FF4806404F1320410F0004548BF40423C
:1004A0004FF000013EE700BF42004FEAE2014FEA91
:1004B00031014FEA02701FBF12F07F4393F07F4F6C
:1004C00081F06051704732F07F4208BF704793F06F
:1004D0007F4F04BF41F40021704730B54FF4607482
:1004E00001F0004521F000411CE700BF50EA010285
:1004F00008BF704730B54FF000050AE050EA01022E
:1005000008BF704730B511F0004502D5404261EB9D
:1005100041014FF4806404F132045FEA915C3FF4DE
:10052000D8AE4FF003025FEADC0C18BF03325FEA7B
:10053000DC0C18BF033202EBDC02C2F1200300FA2C
:1005400003FC20FA02F001FA03FE40EA0E0021FA51
:1005500002F11444BDE600BF70B54FF0FF0C4CF43F
:10056000E06C1CEA11541DBF1CEA135594EA0C0FF1
:1005700095EA0C0F00F0DEF82C4481EA030621EA2C
:100580004C5123EA4C5350EA013518BF52EA033567
:1005900041F4801143F4801338D0A0FB02CE4FF019
:1005A0000005E1FB02E506F00042E0FB03E54FF049
:1005B0000006E1FB03569CF0000F18BF4EF0010E41
:1005C000A4F1FF04B6F5007F64F5407404D25FEA3D
:1005D0004E0E6D4146EB060642EAC62141EA5551F0
:1005E0004FEAC52040EA5E504FEACE2EB4F1FD0C32
:1005F00088BFBCF5E06F1ED8BEF1004F08BF5FEAB0
:10060000500E50F1000041EB045170BD06F0004661
:1006100046EA010140EA020081EA0301B4EB5C040E
:10062000C2BFD4EB0C0541EA045170BD41F4801106
:100630004FF0000E013C00F3AB8014F1360FDEBF2B
:10064000002001F0004170BDC4F10004203C35DA07
:100650000C341BDC04F11404C4F1200500FA05F38A
:1006600020FA04F001FA05F240EA020001F000422B
:1006700021F0004110EBD37021FA04F642EB0601A1
:100680005EEA430E08BF20EAD37070BDC4F10C04CB
:10069000C4F1200500FA04F320FA05F001FA04F28F
:1006A00040EA020001F0004110EBD37041F100017B
:1006B0005EEA430E08BF20EAD37070BDC4F1200586
:1006C00000FA05F24EEA020E20FA04F301FA05F2EE
:1006D00043EA020321FA04F001F0004121FA04F296
:1006E00020EA020000EBD3705EEA430E08BF20EA66
:1006F000D37070BD94F0000F0FD101F000464000A0
:1007000041EB010111F4801F08BF013CF7D041EA21
:10071000060195F0000F18BF704703F00046520025
:1007200043EB030313F4801F08BF013DF7D043EAF6
:100730000603704794EA0C0F0CEA135518BF95EAAC
:100740000C0F0CD050EA410618BF52EA4306D1D133
:1007500081EA030101F000414FF0000070BD50EA52
:10076000410606BF1046194652EA430619D094EADC
:100770000C0F02D150EA013613D195EA0C0F05D1C6
:1007800052EA03361CBF104619460AD181EA03011A
:1007900001F0004141F0FE4141F470014FF00000D2
:1007A00070BD41F0FE4141F4780170BD70B54FF06D
:1007B000FF0C4CF4E06C1CEA11541DBF1CEA1355ED
:1007C00094EA0C0F95EA0C0F00F0A7F8A4EB0504CF
:1007D00081EA030E52EA03354FEA013100F08880C6
:1007E0004FEA03334FF0805545EA131343EA12638F
:1007F0004FEA022245EA111545EA10654FEA002644
:100800000EF000419D4208BF964244F1FD0404F5FC
:10081000407402D25B084FEA3202B61A65EB030558
:100820005B084FEA32024FF480104FF4002CB6EB15
:10083000020E75EB030E22BFB61A754640EA0C0095
:100840005B084FEA3202B6EB020E75EB030E22BFD5
:10085000B61A754640EA5C005B084FEA3202B6EB16
:10086000020E75EB030E22BFB61A754640EA9C00D5
:100870005B084FEA3202B6EB020E75EB030E22BFA5
:10088000B61A754640EADC0055EA060E18D04FEA63
:10089000051545EA16754FEA06164FEAC30343EA03
:1008A00052734FEAC2025FEA1C1CC0D111F4801FD0
:1008B0000BD141EA00014FF000004FF0004CB6E7C9
:1008C00011F4801F04BF01430020B4F1FD0C88BF68
:1008D000BCF5E06F3FF6AFAEB5EB030C04BFB6EB73
:1008E000020C5FEA500C50F1000041EB045170BD66
:1008F0000EF0004E4EEA113114EB5C04C2BFD4EB93
:100900000C0541EA045170BD41F480114FF0000E16
:10091000013C90E645EA060E8DE60CEA135594EA92
:100920000C0F08BF95EA0C0F3FF43BAF94EA0C0F95
:100930000AD150EA01347FF434AF95EA0C0F7FF40A
:1009400025AF104619462CE795EA0C0F06D152EA5E
:1009500003353FF4FDAE1046194622E750EA410642
:1009600018BF52EA43067FF4C5AE50EA41047FF453
:100970000DAF52EA43057FF4EBAE12E74FF0FF3CB8
:1009800006E000BF4FF0010C02E000BF4FF0010C89
:100990004DF804CD4FEA410C7FEA6C5C4FEA430C02
:1009A00018BF7FEA6C5C1BD001B050EA410C0CBF51
:1009B00052EA430C91EA030F02BF90EA020F0020B3
:1009C000704710F1000F91EA030F58BF994208BF1A
:1009D00090422CBFD8176FEAE37040F001007047D7
:1009E0004FEA410C7FEA6C5C02D150EA013C07D12E
:1009F0004FEA430C7FEA6C5CD6D152EA033CD3D079
:100A00005DF8040B704700BF8446104662468C4672
:100A10001946634600E000BF01B5FFF7B7FF0028A5
:100A200048BF10F1000F01BD4DF808EDFFF7F4FFCE
:100A30000CBF012000205DF808FB00BF4DF808ED59
:100A4000FFF7EAFF34BF012000205DF808FB00BF7C
:100A50004DF808EDFFF7E0FF94BF012000205DF89E
:100A600008FB00BF4DF808EDFFF7CEFF94BF012053
:100A700000205DF808FB00BF4DF808EDFFF7C4FF4C
:100A800034BF012000205DF808FB00BF4FEA410C95
:100A90007FEA6C5C02D150EA013C0AD14FEA430C78
:100AA0007FEA6C5C02D152EA033C02D14FF00000B5
:100AB00070474FF0010070474FEA410212F50012F3
:100AC00015D211D56FF47873B3EB625212D94FEA95
:100AD000C12343F0004343EA505311F0004F23FA7F
:100AE00002F018BF404270474FF00000704750EAD4
:100AF000013005D111F0004008BF6FF00040704791
:100B00004FF00000704700BF4A0011D212F50012EA
:100B100011D20DD56FF47873B3EB62520ED44FEA55
:100B2000C12343F0004343EA505323FA02F07047D5
:100B30004FF00000704750EA013002D14FF0FF3013
:100B400070474FF0000070474FEA4102B2F1E043B6
:100B500024BFB3F5001CDCF1FE5C0DD901F0004CA4
:100B60004FEAC0024CEA5070B2F1004F40EB8300F4
:100B700008BF20F00100704711F0804F21D113F120
:100B80003872BCBF01F00040704741F480114FEA59
:100B90005252C2F11802C2F1200C10FA0CF320FAE2
:100BA00002F018BF40F001004FEAC1234FEAD323FF
:100BB00003FA0CFC40EA0C0023FA02F34FEA430369
:100BC000CCE77FEA625307D150EA01331EBF4FF0F2
:100BD000FE4040F44000704701F0004040F0FE400D
:100BE00040F40000704700BF0348044B834202D02A
:100BF000034B03B118477047CC010020CC01002003
:100C0000000000000548064B1B1AD90F01EBA30199
:100C1000491002D0034B03B118477047CC010020A4
:100C2000CC0100200000000010B5064C237843B929
:100C3000FFF7DAFF044B13B10448AFF30080012340
:100C4000237010BDCC0100200000000034DC00083F
:100C500008B5054B1BB105490548AFF30080BDE859
:100C60000840FFF7CFBF00BF00000000D001002008
:100C700034DC000808B5012007F0CAFD4FF4C0605D
:100C800007F09CFD40F2026007F098FD40F203601F
:100C900007F094FD40F2046007F090FD4FF4A0606F
:100CA00007F08CFD40F2015007F088FD40F219700A
:100CB00007F084FD40F20E7007F080FD40F20F70E7
:100CC00007F07CFD40F20B6007F078FD40F2096010
:100CD00007F074FD40F20A6007F070FD40F20F600B
:100CE00007F06CFDBDE8084040F2117007F066BDEA
:100CF00070B506F003FCFFF7BDFF00F0FFFA02F04D
:100D000005FF02F06FFE00F00DFD02F01DFE02F087
:100D100043FE00F09FFB00F08BFC04F0AFF8C648E8
:100D200009F008FFC54809F005FF01230022022150
:100D3000C34809F097FEC348062106F0C5F9C1482B
:100D400006F0ACFA002800F0B281BF4DBF4C6B69D1
:100D5000D4ED027A013304BF00236B612B690133A8
:100D600008BF0023F4EE677A08BF2B61F1EE10FA9A
:100D700080F19A81BFEE007AF4EE477AF1EE10FA34
:100D800000F09281D4ED037AF4EE677AF1EE10FA76
:100D900080F18781BFEE007AF4EE477AF1EE10FA27
:100DA00000F07F81D4ED067AF4EE677AF1EE10FA66
:100DB00080F17481BFEE007AF4EE477AF1EE10FA1A
:100DC00000F06C816B68D4ED077A013304BF012316
:100DD0006B60AB68013304BF0023AB60EB68013389
:100DE00008BF40F6B833F4EE677A08BFEB60F1EE67
:100DF00010FA80F15081BFEE007AF4EE477AF1EEFE
:100E000010FA00F04881D4ED087AF4EE677AF1EE3A
:100E100010FA80F13D81BFEE007AF4EE477AF1EEF0
:100E200010FA00F03581D4ED097AF4EE677AF1EE2C
:100E300010FA80F1FD80BFEE007AF4EE477AF1EE11
:100E400010FA00F0F580D4ED127AF4EE677AF1EE44
:100E500010FA80F1EA80BFEE007AF4EE477AF1EE04
:100E600010FA00F0E280D4ED0A7AF4EE677AF1EE3F
:100E700010FA80F1D780BFEE007AF4EE477AF1EEF7
:100E800010FA00F0CF80D4ED117AF4EE677AF1EE2B
:100E900010FA80F1C380BFEE007AF4EE477AF1EEEB
:100EA00010FA00F0BB80D4ED0E7AF4EE677AF1EE22
:100EB00010FA80F1AF80BFEE007AF4EE477AF1EEDF
:100EC00010FA00F0A780D4ED177AF4EE677AF1EE0D
:100ED00010FA80F19C80BFEE007AF4EE477AF1EED2
:100EE00010FA00F09480D4ED187AF4EE677AF1EEFF
:100EF00010FA80F18980BFEE007AF4EE477AF1EEC5
:100F000010FA00F08180D4ED147A5148514EF4EE7D
:100F1000677AD4ED137AF1EE10FA64BF4E4B236575
:100F2000F4EE677AD4ED167AF1EE10FA64BF4B4B0B
:100F3000E364F4EE677AD4ED157AF1EE10FA64BF4B
:100F4000474BA365F4EE677AF1EE10FA64BF454BA8
:100F5000636504F087FA00214FF4CE62424809F03D
:100F60000AFE6A69A36AC6F8382464202A69C6F8AA
:100F70003424C6F818323D4D06F0E2FA64213046BA
:100F800005F0CAFD3A494FF4007206F23C4009F000
:100F90003FFE95E8070003F067FE002840F09780C9
:100FA000344800F0DFFB344800F0F6FB0022114625
:100FB000282007F0B1FB01220021142007F0ACFB30
:100FC00000220121192007F0A7FB00220221262080
:100FD00007F0A2FB294B062101221980DA7006F0E6
:100FE000CDFA00286BD1002406F0EAFA4FF47A70AB
:100FF00006F0A6FAAB880134002BF5D095E807007F
:10100000234603F047FDEFE71D4B23667BE71D4BAF
:10101000E36568E74FF07E53A36354E74FF07E53D8
:10102000636440E7184BA3622DE7154BA3641AE7EE
:10103000164B636207E700BF68DD000874DD000837
:1010400094DD000880400020984000209844002053
:101050007C3D0020F83600200000C8420000C8C2D5
:1010600000008242000082C2442E0020EC360020A4
:10107000B0400020E8010020FC010020683D002075
:101080000000A0400000FA430000A84100006041B9
:10109000114B2362C7E60023E361B4E60023A3619A
:1010A00090E60E4BE3607DE60D4BA3606AE60D49CA
:1010B0000D4800F031FC0D4809F03CFD45E64FF4C9
:1010C000007000F047F80A4809F034FD8BE7094842
:1010D00009F030FD64E700BF0000FA420000204242
:1010E00000007A449844002098400020B0DD0008B9
:1010F00048DE000800DE000808B514484FF400611F
:1011000007F082FA1248002107F088FD00221146FC
:101110000F4807F01BFF0E480022012107F016FFC1
:101120000B480022022107F011FF00221146084857
:1011300007F0AEFE06480022012107F0A9FEBDE837
:10114000084003480022022107F0A2BE0008014027
:10115000002C0140024A136803431360FFF7CCBF21
:1011600098450020014B1868704700BF9845002043
:10117000024A136823EA0003136070479845002071
:10118000036813F0010204D00A7D002A43D14FF412
:10119000804213F0020F06D091F815C0BCF1000F89
:1011A0000AD142F400425B0704D58B7D002B74D139
:1011B00042F480321046704790ED027ADFED4E7AAD
:1011C000F0EEC76AF4EE676AF1EE10FAE9D8D0EDF6
:1011D000036AB0EEE66AB4EE676AF1EE10FAE0D8A0
:1011E000B5EEC07AF1EE10FADBD9B4EEE67AF1EEA4
:1011F00010FAD6DA91ED036AF0EEC65AF4EE675AA9
:10120000F1EE10FACDD8B4EEC67AF1EE10FA69DD3F
:1012100042F40062C7E7D0ED017A9FED377AF0EE35
:10122000E76AF4EE476AF1EE10FAB0D8F5EEC07A4C
:10123000F1EE10FAABD9D1ED006AF0EEE66AF4EE09
:10124000476AF1EE10FAA2D891ED016AB0EEC66AD3
:10125000B4EE476AF1EE10FA99D8D1ED025AF0EEE9
:10126000E55AF4EE475AF1EE10FA90D8B4EEE66A79
:10127000F1EE10FAD8BFB0EE666AF4EEC65AF1EE9F
:1012800010FAD8BFF0EE465AF4EEE57AF1EE10FA15
:101290004CBF0122002292027BE7D0ED047A9FED41
:1012A000167AF0EEE76AF4EE476AF1EE10FA3FF6CE
:1012B0007FAFF5EEC07AF1EE10FA7FF679AFD1ED9F
:1012C000046AB0EEE66AB4EE476AF1EE10FA3FF651
:1012D0006FAFF4EEE67AF1EE10FA7FF56BAF42F401
:1012E000005267E7F4EEC66AF1EE10FA7FF55BAFE5
:1012F00042F4805257E700BFFFFF7F7F10B5504890
:10130000012107F095F94F48012107F091F94E4866
:101310004FF4A0530122182107F01EF94A484FF458
:1013200000630122042107F017F94FF40043012262
:101330004648102107F010F944484FF4004107F0E7
:1013400061F943484FF420430122182107F004F9C2
:101350003F484FF480430122482107F0FDF84FF445
:10136000805301223A48102107F0F6F838484FF42C
:10137000805107F047F935484FF4006302221021ED
:1013800007F0EAF84FF4805303223048042107F0B5
:10139000E3F82E484FF4006107F036F92B484FF47C
:1013A000E0630322182107F0D7F82748032304221B
:1013B000002107F0D1F8264801230422002107F07C
:1013C000CBF821480C230422002107F0C5F81F4860
:1013D000F0230422002107F0BFF81B483023042229
:1013E000002107F0B9F84FF40053022216481021EB
:1013F00007F0B2F814484FF4005107F005F913480C
:1014000004230122182107F0A7F8082301220F481E
:10141000042107F0A1F801214FF4EA1007F008F9C0
:101420000B484FF480730222482107F095F8BDE87D
:10143000104007484FF400730322182107F08CB8BE
:1014400000102000000230000010014000080140A0
:10145000000C014070B5714888B0002106F0E8FD2D
:101460006F4A704B01920024042503934FF40072DD
:101470004FF400634FF48076029204930DEB050263
:101480004FF4805321466548ADF81C60CDE9055303
:101490008DF81E4006F0EAFD2146604806F024FE65
:1014A00021465E4806F032FE5F4806F01BFA5F48B0
:1014B00006F018FA4FF4803006F062FA31465A48C6
:1014C000012206F06DFA22465748022106F068FA1A
:1014D00031465648012206F063FA2246534802215B
:1014E00006F05EFA2146504806F082FA2A464E4837
:1014F000012106F087FA01224B48022106F082FA08
:1015000021464A4806F074FA2A464848012106F066
:1015100079FA46480122022106F074FA2346214650
:101520004148062206F08CFA23463F480F2201214B
:1015300006F086FA23463C480722022106F080FA8C
:10154000234639480822032106F07AFA2346214629
:101550003648052206F074FA234634480E2201214B
:1015600006F06EFA23462A463048022106F068FA51
:1015700023462E480C22032106F062FA2A484FF433
:101580006022012106F008FB01221146264806F0E0
:10159000E7FA26484FF46022012106F0FDFA012205
:1015A0001146224806F0DCFA234621461E480B224B
:1015B00006F09EFA234621461C480A2206F098FAB5
:1015C00019484FF4E042022106F0E6FA16480122DB
:1015D000022106F0C5FA15484FF4E042022106F058
:1015E000DBFA01220221114806F0BAFA0E4806F091
:1015F000C1F90E4806F0BEF90B4806F0A1F90B48F8
:1016000006F09EF9012005F09BFF074806F0A0F9BF
:10161000064806F09DF908B070BD00BF000002400A
:101620004C240140A0450020002401400028014036
:1016300070B5384888B0042106F0FAFC3649374ABC
:1016400001914FF48063012400254FF480760392CA
:10165000049301AA4FF480532E4806930421ADF859
:101660001C6002968DF81E50059406F0FFFC294878
:10167000042106F039FD0421264806F047FD2848DC
:1016800006F030F922463146254806F089F92A4607
:101690002348022106F084F92946214806F0A8F9DA
:1016A000224621461E4806F0ADF922461C4802217A
:1016B00006F0A8F90523294619480D2206F0C0F9BD
:1016C000214617484FF4602206F066FA224621466A
:1016D000134806F045FA0523294611480D2206F065
:1016E00007FA0F484FF4E042022106F055FA22466D
:1016F00002210B4806F034FA094806F03BF9084885
:1017000006F01EF9204605F01BFF054806F020F9FB
:1017100008B070BD000402404C3C01409C450020D4
:10172000003C014000B585B001A9002006F08AFA0E
:101730000A4806F075FA0A484FF48072CDE90102B2
:101740004FF4802301A90548039306F0ADFA03483E
:10175000022106F069FC05B000BD00BF0064004036
:101760000000090300B5014687B0032006F06AFABD
:1017700001A9012006F066FA00234FF4803101220E
:1017800001A8CDE90133CDE903318DF8142006F02D
:101790001DFB07B000BD00BF00B583B0014601903E
:1017A000022006F04FFA054A01999068086000236C
:1017B00006228A724B600B8103B000BD9840002066
:1017C000F0B52DED028B1C4D83B00446F0EE608A1F
:1017D000B0EE418AD5ED130A95ED141A019110204F
:1017E00005F010F895ED161AD5ED150A0746B0EE7E
:1017F000680A0C2005F006F8D5ED030AD5ED0E7A3F
:1018000060EEE70A0646B0EE480AB1EE601A0C2018
:1018100004F0F8FF03120199E17203EB06137ABAA0
:101820003111E3730023A173A28120746374A37444
:1018300003B0BDEC028BF0BD9844002084B0F0B53D
:101840002DED028B83B00AAC84E80F009DF8363092
:101850009DF835709DF839209DF83760BDF833004C
:101860002B4C9DF838E09DF83A10D4ED140A94ED15
:10187000130A0F9D9FED278A4FEA032C1B0943EAA9
:1018800007170CF470631E43130240BA120903F4E5
:1018900070630B4342EA0E1280B210210092019352
:1018A00004F0C4FF85ED000AD4ED160A94ED150A84
:1018B00038460C2104F0BAFF85ED010AD4ED170A71
:1018C0003046B0EE480A0C2104F0B0FF85ED020A64
:1018D000D4ED180A00980C21B0EE480A04F0A6FFD7
:1018E00085ED030A94ED030AD4ED0E7A019820EEFB
:1018F000670A0C21F1EE400A04F098FF85ED040A16
:1019000003B0BDEC028BBDE8F04004B0704700BFEF
:10191000984400200000000070B54FF480620C462F
:101920000021054609F027F94FF480720021204676
:1019300009F021F901260022C5E904222A60AA60E3
:10194000EA616E6000231B4ADFED1B5A9FED1B6AA4
:10195000DFED1B6A9FED1B7ADFED1B7ADFF878E085
:10196000DFF878C0194840F6B836EE604FF07E5187
:10197000A361E3616363E3632364A2642266636635
:10198000134AA366E3662367124BC4ED025A84ED43
:10199000036AC4ED086A84ED137AC4ED147AC4F8BE
:1019A00054E0C4F858C0A1636164E0656262A36258
:1019B00070BD00BF0000A04000007A44000020423B
:1019C0000000FA420000C8C20000C8420000FA430A
:1019D000000060410000A841000082C20000824275
:1019E00070B50E461E49A0F1040E00F57F754FF04C
:1019F000FF305EF8044F4FF0000C24FA0CF3DBB21A
:101A00005840082240F300030B40013A83EA50009B
:101A1000F8D10CF1080CBCF1200FEED17545E8D1DE
:101A20000F49B64606F58075DEF800404FF0000C11
:101A300024FA0CF3DBB25840082240F300030B40B9
:101A4000013A83EA5000F8D10CF1080CBCF1200FE8
:101A5000EED10EF1040EAE45E6D1C04370BD00BF1D
:101A60002083B8ED0368012B00F2BF824368B3F511
:101A7000006F80F0BA828268B2F5006F80F0B582A4
:101A800023F0800340F2017C634500F0AE8222F037
:101A90008002624500F0A982C368E14A013B93429B
:101AA00000F2A3820369DFF8A0C34FF6FF7213446C
:101AB000634500F29A8243691A44624500F29582B6
:101AC000C369072B00F29182D1ED027A9FEDE37A90
:101AD000F0EEE76AF4EE476AF1EE10FA00F2858262
:101AE0009FEDDB7AF4EEC77AF1EE10FAC0F27D8258
:101AF0009FEDCC7AF4EEC77AF1EE10FA00F275821F
:101B0000D1ED037ADFEDD56AB0EEE77AB4EE667A0E
:101B1000F1EE10FA00F269829FEDC37AF4EEC77A13
:101B2000F1EE10FAC0F261829FEDCA7AF4EEC77A44
:101B3000F1EE10FA00F25982D1ED062AB0EEE27A07
:101B4000B4EE667AF1EE10FA00F24F82F5EEC02A9A
:101B5000F1EE10FAC0F249829FEDB47AF4EEC72A92
:101B6000F1EE10FA00F2418291ED077AB0EEC76A09
:101B7000B4EE666AF1EE10FA00F23782B5EEC07A82
:101B8000F1EE10FAC0F23182DFEDB16AB4EEE67A1E
:101B9000F1EE10FA00F2298291ED087ADFEDAF6ADA
:101BA000B0EEC76AB4EE666AF1EE10FA00F21D827A
:101BB000B7EE006AB4EEC67AF1EE10FAC0F2158202
:101BC000DFEDA75AB4EEE57AF1EE10FA00F20D82DD
:101BD00091ED093AB0EEC37AB4EE667AF1EE10FAFE
:101BE00000F203829FED907AB4EEC73AF1EE10FA5C
:101BF000C0F2FB819FED8E7AB4EEC73AF1EE10FA97
:101C000000F2F38191ED0A7AF0EEC75AF4EE665ACB
:101C1000F1EE10FA00F2E981B4EEC67AF1EE10FAB4
:101C2000C0F2E381DFED836AB4EEE67AF1EE10FAFA
:101C300000F2DB81D1ED0D6A9FED887AB0EEE66AA5
:101C4000B4EE476AF1EE10FA00F2CF81F5EEC06A09
:101C5000F1EE10FAC0F2C9819FED7D6AF4EEC66A1A
:101C6000F1EE10FA00F2C181D1ED0E6AB0EEE66A33
:101C7000B4EE476AF1EE10FA00F2B7819FED6E6A9A
:101C8000F4EEC66AF1EE10FAC0F2AF81B2EE046A69
:101C9000F4EEC66AF1EE10FA00F2A781D1ED0F6AF8
:101CA000B0EEE66AB4EE476AF1EE10FA00F29D81FA
:101CB000F5EEC06AF1EE10FAC0F297819FED636A0B
:101CC000F4EEC66AF1EE10FA00F28F81D1ED106ADF
:101CD000B0EEE66AB4EE476AF1EE10FA00F28581E2
:101CE000F5EEC06AF1EE10FAC0F27F819FED537AF3
:101CF000F4EEC76AF1EE10FA00F27781D1ED116AC5
:101D00009FED567AB0EEE66AB4EE476AF1EE10FA4D
:101D100000F26B819FED4A6AF4EEC66AF1EE10FAAA
:101D2000C0F263819FED496AF4EEC66AF1EE10FAE3
:101D300000F25B81D1ED126AB0EEE66AB4EE476A5A
:101D4000F1EE10FA00F251819FED376AF4EEC66AA7
:101D5000F1EE10FAC0F24981B3EE046AF4EEC66AFD
:101D6000F1EE10FA00F24181D1ED133AF0EEE36AA0
:101D7000F4EE476AF1EE10FA00F237819FED317A06
:101D8000F4EEC73AF1EE10FAC0F22F81F5EEC03A48
:101D9000F1EE10FA00F2298191ED144A9FED2F7AAD
:101DA000F0EEC46AF4EE476AF1EE10FA00F21D811B
:101DB000B5EEC04AF1EE10FAC0F21781DFED236AEA
:101DC000B4EEE64AF1EE10FA00F20F81D1ED154AB9
:101DD000B0EEE46AB4EE476AF1EE10FA00F2058163
:101DE0009FED186AF4EEC64AF1EE10FAC0F2FD80DB
:101DF000F5EEC04AF1EE10FA00F2F78091ED165AB6
:101E0000B0EEC56AB4EE476AF1EE10FA00F2ED806A
:101E1000B5EEC05AF1EE10FAC0F2E78022E000BF42
:101E20009F8601000000FA44CDCCCC3D0000044266
:101E3000000020420000804217B7D1380050C3474D
:101E40006F12833A00007AC4FEFF010000007A445A
:101E50000000C8420000704200004843FFFF7F7F3F
:101E600000001643B4EEE65AF1EE10FA00F2BD801F
:101E700091ED177A1FED076AF0EEC76AF4EE466A35
:101E8000F1EE10FA00F2B180B5EEC07AF1EE10FA80
:101E9000C0F2AB805FED136AB4EEE67AF1EE10FAB1
:101EA00000F2A38091ED187AF0EEC76AF4EE466A6C
:101EB000F1EE10FA00F29980B5EEC07AF1EE10FA68
:101EC000C0F293805FED1E6AB4EEE67AF1EE10FA8E
:101ED00000F28B80D1ED196AB0EEE67AB4EE467A64
:101EE000F1EE10FA00F28180F5EEC06AF1EE10FA20
:101EF0007BDB1FED287AF4EEC76AF1EE10FA74D896
:101F000091ED1A7AF0EEC75AF4EE465AF1EE10FA55
:101F10006BD8B5EEC07AF1EE10FA66DB1FED326ACF
:101F2000B4EEC67AF1EE10FA5FD8D1ED1B5A1FED70
:101F3000352AF0EEE51AF4EE421AF1EE10FA54D812
:101F4000F5EEC05AF1EE10FA4FDBF4EEC65AF1EEA0
:101F500010FA4AD891ED1C6AF0EEC61AF4EE421A55
:101F6000F1EE10FA41D8B5EEC06AF1EE10FA3CDBA2
:101F70001FED452AB4EEC26AF1EE10FA35D8F4EE40
:101F8000E27AF1EE10FA30DBF4EEC37AF1EE10FAF9
:101F90002BDBF4EEC43AF1EE10FA26D5F4EEC54A86
:101FA000F1EE10FA21D5D90709D5F5EEC06AF1EEA8
:101FB00010FA1ADDF4EEE67AF1EE10FA15DB9A0764
:101FC00009D5B5EEC07AF1EE10FA0EDDB4EEE57A81
:101FD000F1EE10FA09D55B0709D5B5EEC06AF1EE4E
:101FE00010FACCBF0120002070470020704701206C
:101FF000704700BF30B5DFF83CC083B06045069D38
:10200000079C02D0002003B030BD0229FAD1B2F5FE
:10201000A07FF7D1214628460193FFF7E1FC019B01
:102020009842EFD12146284603B0BDE83040FFF783
:1020300019BD00BF4154484E401A0028D4BF0020AB
:102040000120704740B12AB15B1A002BD4BF002099
:10205000012070471046704782420CBF4FF0FF309E
:102060000120704711B10AB1082B01D00020704740
:10207000009BC01AB3F5006FB0FA80F04FEA501021
:1020800028BF0020704700BF431E00F1060C13F864
:10209000012FFF2A09D16345F9D1C279131DDBB2A3
:1020A000022B02D80A70012070470020704700BF41
:1020B00038B5C0F30D0444F4804440F44045204654
:1020C0000BF072FD002814BF2846204638BD00BF23
:1020D000084310B5C0F30D0420460BF065FD44EA3B
:1020E000C03080B210BD00BF10B504460BF05CFDDF
:1020F00028B914F4804F18BF6FF0010010BD4FF0E5
:10210000FF3010BDC0F30D00C1F30D01401AB0F552
:10211000005F03DDA0F5804000B2704710F5005F5E
:10212000B8BF00F5804000B2704700BF0378A52B10
:1021300029D143785A2B26D18378012B23D110B58E
:1021400083790C46CBB9DFF84CE0421E811D002399
:1021500012F801CF83EA0C0391421EF80330F7D145
:10216000C2799A4212D1C37823700379637043799C
:10217000A3708379E370002010BDC378072BE2D0F1
:102180004FF0FF3010BD4FF0FF3070476FF001008F
:1021900010BD00BF50DC000890F800C06CF07F0C50
:1021A00083F800C090F801C083F801C0807898706F
:1021B0004FEA122CD970100C110E1A7183F805C059
:1021C0009871D971704700BF08B5084908484FF4A5
:1021D000806208F01DFD4FF480720649064808F041
:1021E00017FD064B01221A7008BD00BF9840002061
:1021F000B846002098440020B8450020B54500208E
:10220000164B1B7803B9704730B5154C237883B053
:10221000DBB2CDE90031054605F0AAF9009B114A71
:10222000019903EB430C4FEA8C0E013342F80E0088
:1022300002EB8C0203F01F030B48157191602370B1
:1022400003781F2B04D803780133037003B030BD2B
:10225000064A13680133136003B030BDBE4A002044
:10226000BD4A0020C04A0020BC4A0020B84A0020D5
:102270002DE9F041794C0168236840F20172013385
:1022800091428AB0236006D1037A23B9437A13B905
:10229000827A082A05D0A3680133A3600AB0BDE89A
:1022A000F08104A90B300193FFF740FF18B1E368F8
:1022B0000133E360F2E705F05BF96949019B0A68C5
:1022C000821A132A844640F2328162680860013221
:1022D00062609DF81020062A00F06182072A00F053
:1022E0002A81032A01F2B582DFE802F0BCAF1902AD
:1022F0009DF812100F2900F2BA80DFE811F0EA0011
:102300000D010B0109010701050103010101B800DD
:10231000FD00F900F500F100ED00B8000F019DF897
:1023200012208E2A00F2A380DFE812F0F107EA07FC
:10233000E3078C07870782077D07A100A1007607C6
:10234000490745073E0737073007260721071C07BF
:1023500024031B03A100A100A100A100FB00530660
:102360004B0644065306FB004B06A100A100A1004A
:10237000A100A100A100A100A100A100A100A10055
:10238000A100A100A100A100A100A100A100A10045
:10239000A100A100A100A100A100A1003D063606F8
:1023A000FB005D0357035003490342033B0334031F
:1023B0002D0392088A0882087A0872086A0862085F
:1023C0005A0852084A0842083A0832082A082208DD
:1023D00018083D0A220A2C09FB08DA09D009B708B7
:1023E0009A089D098209DE08C10862095709140884
:1023F000F707FD05E20553053805C705AC051B05C4
:10240000FE04D304BB04A5048B04710465046204B8
:102410005A043C047607340419040D04D803D0038D
:10242000E200C903C203BB03B403AD03A6039F03C9
:1024300098036A036303E506DD06D506CD060807A3
:10244000ED06A20687066A0662069DF81220042A97
:102450000DD8DFE802F03C3937353300484C002016
:10246000B04500209DF81220002A00F00E820123C2
:10247000216901310022216105A90220CDE9013243
:1024800005F0E0FB00230693ADF81C3040F28173A9
:1024900005930823DDE9011204A88DF81E300DF123
:1024A0001F03FFF779FE9F4805A905F009FD0328E2
:1024B00000F07181A3690133A361EFE69A4ADBE77B
:1024C0009A4AD9E70F22D7E74FF48032D4E7984AE7
:1024D000D2E722680B46CFE7964AD2F86826CBE7C8
:1024E000944AD2F86426C7E7924AD2F86026C3E736
:1024F000914AD2F8FC22BFE78E4AD2F85C26BBE7AD
:10250000E269B9E7A269B7E76269B5E72269B3E7AB
:10251000E268B1E7A268AFE76268ADE7874A126890
:10252000AAE7019301F0B4FE019B0246A4E76369A8
:1025300001336361B2E69DF81220A2F12001C9B215
:10254000672940F2668102F17001C9B2672940F241
:102550003681F72A00F25081013A0B2A01F2798183
:10256000DFE812F012010A010201A10099008F00B8
:10257000790061004C00370021000C0070489DF884
:10258000132001788A42BFF472AF6E49097800784F
:102590002031091A0A446C4902F01F020C2000FB8A
:1025A0000212926868E766489DF8132001788A4213
:1025B000BFF45DAF6349097800782031091A0A44F5
:1025C000614902F01F020C2000FB02121279D2B204
:1025D00052E75B489DF8132001788A42BFF447AF69
:1025E0005849097800782031091A0A4402F01F027C
:1025F0000C20554900FB02F28A583DE751495048EA
:1026000000220A70514902700A60514A127800781B
:1026100042EA00220868B0F5803F36BF09684D499C
:1026200009040A4328E74A484FF0000C80F800C02C
:102630000278002A40F06D81414A444900781278BE
:1026400040EA02220868B0F5803F36BF0968414978
:1026500009040A4310E73E48012202700278002A6A
:1026600040F06181364A39490078127840EA022206
:102670000868B0F5803F36BF0968364909040A4347
:10268000FAE6354802885AB11B21019303F0C8FFCE
:10269000019B0122F0E6304A1188002900F04F81A9
:1026A00002230022E8E69DF81320013AD2B2132A51
:1026B000F6D8294A1288002AF2D10193FEF752FD7A
:1026C0000028EDD1254A9288002AE9D1194A92F8CA
:1026D0003D26002AE4D0184A92F8F522002ADFD0DD
:1026E00000F180404FF4805100F5843005F094FFF4
:1026F0000028D5D09DF813309FED197A194A164855
:1027000007EE903AF8EE677A632167EE877AC2EDBA
:10271000127A03F085FF9DF81320019B642101FBD1
:1027200002F2A9E60064004001E8030001D1E0A73D
:102730004154484EF83600207C3D0020684C002073
:10274000BC4A0020BD4A0020C04A0020B84A0020F0
:10275000BE4A00200000FFFF683D0020EC3600204C
:10276000CDCCCC3D98440020A9480193652103F0CD
:1027700057FF019B03227FE6A54801936D2103F0DB
:102780004FFF019B022277E6A14801931B2103F032
:1027900047FF019B7DE7E3690133E3617EE59D4AE5
:1027A0009DF811109C4C9D4B11709D48C4F800C0C1
:1027B00001224FF400611A7005F024FF6EE599487C
:1027C00000788A0801F0030138B9CDE902130192BB
:1027D000FFF7FAFCDDE90213019A934800EB420C83
:1027E00010F812009CF80120002840F08E808F48DD
:1027F00000EB8202525C3FE6F82A30D0F92A46D03C
:10280000FA2A7FF434AE874900220A7088490A7098
:102810003FE7844800788A0801F0030138B9CDE920
:1028200002130192FFF7D0FCDDE90213019A7E4802
:1028300010F812C000EB420E9EF80100BCF1000F30
:102840005ED1DFF8E8C10CEB80009DF813C000F802
:1028500001C0774841EA0222012101700CE6714A69
:1028600012781AB90193FFF7AFFC019B71496F48C9
:102870000193FFF7F7F800283FF4F9AD6D496B4875
:10288000FFF7AEF8019B0246F6E56B4AF4E5604AB5
:102890001288002A7FF404AF0193FEF763FC00283E
:1028A0007FF4FEAE654A9288002A7FF4F9AE604B51
:1028B0001A78002A3FF4F4AE5A4A019B127812B9F2
:1028C000FFF782FC019B5B4958480193FFF7CAF868
:1028D00000283FF4CCAD554959484FF4806208F0C8
:1028E00097F9544957484FF4807208F091F903F072
:1028F000BBF8019B002800F0688303230022BBE59E
:10290000DFF830C10CEB80009FE74A4800EB820201
:1029100070E74D4A4D4982F800C04D4A82F800C028
:10292000C1F800C08AE64A4A4849474D4FF0000CBA
:1029300085F800C082F800C0C1F800C094E6019399
:10294000FEF710FC00287FF4ABAE424991F83D162B
:1029500000293FF4A5AE2E487A2103F061FE019BC9
:1029600097E63D49D1F83C2CD1F82C1C92B242EAB2
:10297000014281E53849D1F8342CD1F8381C92B2A3
:1029800042EA014278E50520019301F093FC019BA6
:10299000024671E50420019301F08CFC019B024684
:1029A0006AE50320019301F085FC019B024663E583
:1029B0000220019301F07EFC019B02465CE50120B0
:1029C000019301F077FC019B024655E5002001933D
:1029D00001F070FC019B02464EE5019301F064FC9E
:1029E000019B024648E5019301F058FC019B024619
:1029F00042E50920019301F071FC019B02463BE591
:102A00000820019301F06AFC019B024634E500BFF7
:102A1000683D0020444C0020404C0020454C0020E4
:102A200000080140B54500205CE80008B8460020D9
:102A3000B4450020B84500204154484EEC360020F3
:102A40009840002098440020BD4A0020B84A002049
:102A5000BC4A0020F83600200020014007200193E6
:102A600001F03CFC019B024606E50620019301F0C3
:102A700035FC019B0246FFE40520019301F02EFC8A
:102A8000019B0246F8E40420019301F027FC019B1E
:102A90000246F1E40320019301F020FC019B024671
:102AA000EAE40220019301F019FC019B0246E3E4F1
:102AB0000120019301F012FC019B0246DCE400209E
:102AC000019301F00BFC019B0246D5E4D04AD2F8F9
:102AD000F81292F8F52242EA0122CDE4CC499FEDAA
:102AE000CD7AD1ED067AF4EEC77AF1EE10FA74DA07
:102AF0009FEDC97AF4EEC77AF1EE10FA6BD99FED2B
:102B0000C77A67EE877AFDEEE77A17EE902AD1ED65
:102B1000077A9FEDC07AF4EEC77AF1EE10FA92B21E
:102B200056DA9FEDBD7AF4EEC77AF1EE10FA4DD980
:102B30009FEDBA7A67EE877AFDEEE77A17EE901A84
:102B400042EA014298E4B24A9FEDB57AD2ED1C7A8E
:102B500067EE877AFCEEE77A17EE902A8CE4AC49B0
:102B60008A68D1F89800121AB2F5004F2BDAAD48F6
:102B70008242B8BF0246C868D1F89C10411AB1F52C
:102B8000004F92B21CDAA7488142B8BF014642EA20
:102B9000014271E49E49B1F89820D1F89C1042EAB4
:102BA000014269E4A049A14ADFF8BCC201F5007EF8
:102BB00051F8040F50408E450CFB00F2F8D15BE455
:102BC00047F6FF71E3E747F6FF72D4E79549B7E7A9
:102BD00047F6FF71B4E7934A99E747F6FF7296E725
:102BE000934994480193FEF7FBFE019B024643E4A0
:102BF000904A526940E490498E4AD1ED867A126833
:102C0000FCEEE77A17EE901A42EA014234E4884A71
:102C10009FED8A7AD2ED0A7AF4EEC77AF1EE10FAD5
:102C200076DA9FED877AF4EEC77AF1EE10FA6BD977
:102C30009FED7A7A67EE877AFDEEE77A17EE902AB3
:102C40001AE4804A9FED7D7AD2ED007AF4EEC77ADD
:102C5000F1EE10FA21DA9FED7A7AF4EEC77AF1EE0E
:102C600010FA16D99FED6D7A67EE877AFDEEE77A56
:102C700017EE902A00E4744A9FED747AD2ED007A40
:102C800067EE877AFCEEE77A17EE902A92B2FFF7AA
:102C9000F3BB4FF00042FFF7EFBB6FF00042FFF7CE
:102CA000EBBB6B4ADFED696A52ED017A92ED007A77
:102CB00067EEA67A27EE267AFCEEE77ABCEEC77AB4
:102CC00017EE902A17EE101A92B242EA0142FFF76D
:102CD000D3BB604A9FED597AD2ED007AF4EEC77A01
:102CE000F1EE10FA1CDA9FED567AF4EEC77AF1EEA7
:102CF00010FA11D99FED497A67EE877AFDEEE77AEF
:102D000017EE902AFFF7B8BB4FF00042FFF7B4BBB5
:102D10006FF00042FFF7B0BB4FF00042FFF7ACBBD3
:102D20006FF00042FFF7A8BB4B4A9FED447AD2ED0B
:102D3000007AF4EEC77AF1EE10FA80F211819FED7D
:102D4000407AF4EEC77AF1EE10FA40F205819FED79
:102D5000337A67EE877AFDEEE77A17EE902AFFF76F
:102D60008BBB3E4A9FED357AD2ED007AF4EEC77AFE
:102D7000F1EE10FA80F204819FED317AF4EEC77A19
:102D8000F1EE10FA40F2F8809FED247A67EE877A30
:102D9000FDEEE77A17EE902AFFF76EBB304A9FED03
:102DA000277AD2ED007AF4EEC77AF1EE10FA5DDA06
:102DB0009FED237AF4EEC77AF1EE10FA24D99FED55
:102DC000177A67EE877AFDEEE77A17EE902AFFF71B
:102DD00053BB244A9FED197AD2ED007AF4EEC77AFC
:102DE000F1EE10FA4ADA9FED167AF4EEC77AF1EEB8
:102DF00010FA3FD99FED097A67EE877AFDEEE77A00
:102E000017EE902AFFF738BB4FF00042FFF734BBB4
:102E10007C3D0020681103426F1203C200007A4417
:102E2000002474490080FFFFAC400020C59D1C8138
:102E30009844002098400020F83600206C12034A85
:102E40006C1203CAC4360020E836002000401C463D
:102E5000E4360020DC360020D8360020D4360020AE
:102E6000C8360020C0360020930100016FF00042F8
:102E7000FFF702BB4FF00042FFF7FEBA6FF00042CF
:102E8000FFF7FABAD04A9FEDD17AD2ED007AF4EE8C
:102E9000C77AF1EE10FA6BDA9FEDCD7AF4EEC77ACD
:102EA000F1EE10FA60D99FEDCB7A67EE877AFDEEEE
:102EB000E77A17EE902AFFF7DFBAC74A9FEDC37A89
:102EC000D2ED007AF4EEC77AF1EE10FA60DA9FEDF7
:102ED000C07AF4EEC77AF1EE10FA55D99FEDBD7ABB
:102EE00067EE877AFDEEE77A17EE902AFFF7C4BA0D
:102EF000BA4A9FEDB67AD2ED067AF4EEC77AF1EED1
:102F000010FA25DA9FEDB27AF4EEC77AF1EE10FAF4
:102F10001AD99FEDB07A67EE877AFDEEE77A17EE61
:102F2000902AFFF7A9BAAE4AAE491278097842EA68
:102F30000122AD490868B0F5803F36BF0968AB494A
:102F400009040A43FFF798BA4FF00042FFF794BA1A
:102F50006FF00042FFF790BA4FF00042FFF78CBAD3
:102F60006FF00042FFF788BA4FF00042FFF784BAD3
:102F70006FF00042FFF780BA4FF00042FFF77CBAD3
:102F80006FF00042FFF778BA4FF00042FFF774BAD3
:102F90006FF00042FFF770BA019301F073F9019BE3
:102FA0000246FFF769BA019301F066F9019B0246F8
:102FB000FFF762BA019301F0C3FB019B0246FFF7E2
:102FC0005BBA40F21542FFF757BA894A1070FFF713
:102FD00060BB884A9FED887AD2ED037A8749884A98
:102FE000B4EEE77AF1EE10FAB8BF0A46FFF744BA3A
:102FF00084490A8A91F8F51242EA0142FFF73CBA85
:103000007C4A9FED727AD2ED1C7AF4EEC77AF1EE2B
:1030100010FA80F29B809FED6E7AF4EEC77AF1EEA3
:1030200010FA40F28F809FED6B7A67EE877AFDEEA3
:10303000E77A17EE902AFFF71FBA6E4A9FED637A80
:10304000D2ED1B7AF4EEC77AF1EE10FA2FDA9FED8B
:10305000607AF4EEC77AF1EE10FA24D99FED5D7A2A
:1030600067EE877AFDEEE77A17EE902AFFF704BA4B
:10307000604A9FED567AD2ED1A7AF4EEC77AF1EEF5
:1030800010FA1CDA9FED527AF4EEC77AF1EE10FADC
:1030900011D99FED507A67EE877AFDEEE77A17EE49
:1030A000902AFFF7E9B94FF00042FFF7E5B96FF05A
:1030B0000042FFF7E1B94FF00042FFF7DDB96FF0D2
:1030C0000042FFF7D9B90D20019301F007F9019BE8
:1030D0000246FFF7D1B90C20019301F0FFF8019BE4
:1030E0000246FFF7C9B90B20019301F0F7F8019BE5
:1030F0000246FFF7C1B90A20019301F0EFF8019BE6
:103100000246FFF7B9B93B4A9FED307AD2ED197A02
:10311000F4EEC77AF1EE10FA20DA9FED2D7AF4EE94
:10312000C77AF1EE10FA15D99FED2A7A67EE877A01
:10313000FDEEE77A17EE902AFFF79EB9324AD26980
:10314000FFF79AB94FF00042FFF796B96FF00042CF
:10315000FFF792B94FF00042FFF78EB96FF00042CF
:10316000FFF78AB9274AD2F8B420FFF785B9274A72
:10317000D2F81824FFF780B9254A92F83E160029A4
:103180003FF4BBABD2F84626FFF776B9214AD18887
:10319000128942EA0142FFF76FB91E4A51889288AC
:1031A00042EA0142FFF768B91A4A5189128842EA95
:1031B0000142FFF761B9174AD268FFF75DB9114ABA
:1031C000128AFFF759B900BFD03600206C12034AAB
:1031D0006C1203CA00007A44CC3600201002002092
:1031E000BE4A0020BC4A0020B84A00200000FFFF71
:1031F000B44500209844002000002042A000800236
:10320000A000C0027C3D00209840002000600040EB
:10321000F8360020A0450020CF490A89C96842EA53
:103220000142FFF729B9CD4AD2F83022FFF724B97D
:10323000CA4AD2F82822FFF71FB9C84AD2F8402656
:10324000FFF71AB94FF48051C548019305F0E4F92E
:103250004FF400610646C24805F0E4F9C149C24A8C
:10326000031ED1F8440CC0F3C03ED2F81804D2F8C3
:1032700018C44FEA401000F02005D2F81804D1F825
:10328000202C4FEA022202F4807218BF01232A4345
:1032900042EA4302B14B93F83D36003B18BF01238D
:1032A00042EAC302AC4B93F8F532003B18BF01234E
:1032B00042EA0312CCF3400C42EA8E02C0F38000D3
:1032C00042EA8C1242EAC012D1F8200CD1F8201C3C
:1032D000019BC0F3001042EA4022C1F3002142EA00
:1032E0008122002E08BF42F0010242F00042FFF7A7
:1032F000C3B80193FDF736FF019B0246FFF7BCB848
:10330000019304F035F9019B0246FFF7B5B89249E5
:103310001346D1F8F822FFF7AFB8944A9FED947A9C
:10332000D2ED127AF4EEC77AF1EE10FA80F27C81D7
:103330009FED907AF4EEC77AF1EE10FA40F27081C8
:103340009FED8D7A67EE877AFDEEE77A17EE902A89
:10335000FFF792B8894AD269FFF78EB88849CA78D0
:1033600048780978120442EA00220A43FFF784B839
:103370000E20019300F0A8FF019B0246FFF77CB8E6
:103380000D20019300F0A0FF019B0246FFF774B8E7
:103390000C20019300F098FF019B0246FFF76CB8E8
:1033A0000B20019300F090FF019B0246FFF764B8E9
:1033B0000A20019300F088FF019B0246FFF75CB8EA
:1033C0000920019300F080FF019B0246FFF754B8EB
:1033D0000820019300F078FF019B0246FFF74CB8EC
:1033E0000720019300F070FF019B0246FFF744B8ED
:1033F0000620019300F068FF019B0246FFF73CB8EE
:103400000520019300F060FF019B0246FFF734B8EE
:103410000420019300F058FF019B0246FFF72CB8EF
:103420000320019300F050FF019B0246FFF724B8F0
:103430000220019300F048FF019B0246FFF71CB8F1
:103440000120019300F040FF019B0246FFF714B8F2
:103450000020019300F038FF019B0246FFF70CB8F3
:103460003D4A9FED437AD2ED337AF4EEC77AF1EE1E
:1034700010FA80F26F819FED3F7AF4EEC77AF1EE99
:1034800010FA40F263819FED3C7A67EE877AFDEE99
:10349000E77A17EE902AFEF7EFBF3249D1F83C2CBD
:1034A000D1F82C1C92B242EA0142FEF7E5BF2A4A4B
:1034B0009FED2F7AD2ED377AF4EEC77AF1EE10FA5B
:1034C00080F2F0809FED2B7AF4EEC77AF1EE10FADD
:1034D00040F2E4809FED287A67EE877AFDEEE77A86
:1034E00017EE902AFEF7C8BF1B4A9FED217AD2ED56
:1034F000367AF4EEC77AF1EE10FA80F29E819FEDF3
:103500001D7AF4EEC77AF1EE10FA40F292819FED47
:103510001A7A67EE877AFDEEE77A17EE902AFEF7C1
:10352000ABBF0D4A9FED127AD2ED117AF4EEC77A55
:10353000F1EE10FA45DA9FED0F7AF4EEC77AF1EE6C
:1035400010FA3AD99FED0C7A67EE877AFDEEE77AAA
:1035500017EE902AFEF790BF7C3D0020F836002041
:103560000008014000200140006000409844002015
:103570006C12034A6C1203CA00007A441002002045
:10358000683D0020B44A9FEDB57AD2ED2A7AF4EE78
:10359000C77AF1EE10FA1CDA9FEDB17AF4EEC77A31
:1035A000F1EE10FA11D99FEDAF7A67EE877AFDEE52
:1035B000E77A17EE902AFEF75FBF4FF00042FEF762
:1035C0005BBF6FF00042FEF757BF4FF00042FEF7BF
:1035D00053BF6FF00042FEF74FBFA3498A8D0878B2
:1035E00091F82010120442EA00220A43FEF744BF79
:1035F0009D499E4A107892F801C00A7C120442EA62
:103600000C22024391F8210042EA006291F8220064
:1036100091F8241042EA406242EA8162FEF72CBF30
:103620004FF00042FEF728BF6FF00042FEF724BFC4
:10363000894A9FED8A7AD2ED357AF4EEC77AF1EEB7
:1036400010FA37DA9FED867AF4EEC77AF1EE10FAC7
:103650002CD99FED847A67EE877AFDEEE77A17EE34
:10366000902AFEF709BF7C4A9FED7C7AD2ED347A2E
:10367000F4EEC77AF1EE10FA24DA9FED797AF4EEDF
:10368000C77AF1EE10FA19D99FED767A67EE877A4C
:10369000FDEEE77A17EE902AFEF7EEBE4FF00042FD
:1036A000FEF7EABE6FF00042FEF7E6BE4FF00042C2
:1036B000FEF7E2BE6FF00042FEF7DEBE4FF00042C2
:1036C000FEF7DABE6FF00042FEF7D6BE6849D1F8C9
:1036D000342CD1F8381C92B242EA0142FEF7CCBE3B
:1036E0005D499FED647AD1ED057AF4EEC77AF1EE8B
:1036F00010FA3ADA9FED607AF4EEC77AF1EE10FA3A
:1037000031D99FED587A67EE877AFDEEE77A17EEAA
:10371000902AD1ED067A9FED577AF4EEC77AF1EE52
:1037200010FA92B21CDA9FED547AF4EEC77AF1EEF9
:1037300010FA13D99FED4B7A67EE877AFDEEE77AA0
:1037400017EE901A42EA0142FEF796BE4FF0004291
:10375000FEF792BE6FF00042FEF78EBE4749F1E7DA
:1037600047F6FF71EEE7454AD3E747F6FF72D0E729
:10377000434A9FED3A7AD2ED037AF4EEC77AF1EE3E
:1037800010FA62DA9FED367AF4EEC77AF1EE10FAAB
:1037900057D99FED347A67EE877AFDEEE77A17EE18
:1037A000902AFEF769BE019300F0CAFF354A92885D
:1037B000151E294A92F8F52218BF0125161E324A15
:1037C00092F83D26804618BF01264FF40061171E6F
:1037D0002E4818BF012704F025FF011E2448D0F809
:1037E000442CC2F3C03CD0F8202CD0F8203CD0F8B8
:1037F00020EC4FEA821202F040020EF4807E42EA90
:103800000E0242EA450242EA860242EAC702C3F3D6
:10381000001042EA4C1242EAC01218BF0121B8F16E
:10382000000F18BF42F00102019B42EA0112FEF7AD
:1038300023BE4FF00042FEF71FBE6FF00042FEF7BE
:103840001BBE4FF00042FEF717BE6FF00042FEF7BE
:1038500013BE0423FEF70CBE7C3D00206C12034A0D
:103860006C1203CA00007A4410020020683D002058
:1038700000200140681103426F1203C20080FFFF65
:1038800098440020EC360020F83600200008014063
:10389000F0B5244C227887B00AB907B0F0BD03F028
:1038A00067FE214A1268801A0928F6D91F4B204A60
:1038B0005968157818681A8900F0E4FE1B4B074612
:1038C00059681A89186800F0EDFE4FF40061064649
:1038D000184804F099FE4FF000012170022001A960
:1038E00004F0B0F94FF00000ADF80C00ADF80200A4
:1038F00040F28170019008208DF80E00062047EA02
:1039000006420DF10F038DF80000002168468DF886
:103910000150FEF741FC01A9074804F0D1FA07B0B5
:10392000F0BD00BF454C0020404C0020EC3600208C
:10393000444C00200008014000640040014B18780E
:10394000704700BF454C002000B5114889B005F014
:103950000BF89FED0D7B4FF400724FF48271002342
:103960004FF40060CDE90013CDE902021823694647
:10397000074806938DED047B05F024F8044805F014
:103980003BF809B000BD00BF0000000001000000CE
:10399000003800400000000000B5114889B004F074
:1039A000E3FF9FED0D7B4FF400724FF48271002313
:1039B0004FF40060CDE90013CDE9020210236946FF
:1039C000074806938DED047B04F0FCFF044805F0E6
:1039D00013F809B000BD00BF0000000001000000A6
:1039E000003C004070B548488CB005F017F808A8B6
:1039F000002405F089F801254FF400134FF4FA6212
:103A000008A9414808930A9209948DF82C5005F0B2
:103A100083F83D4805F0DAFA21463B4805F0C0FA44
:103A20002946394805F0C4FA374805F0CDF801A811
:103A300005F0FEF8022601AA214633480394CDE999
:103A4000015605F0FBF821462F48602205F0F8F9F1
:103A500021462D48042205F051FA21462A48082221
:103A600005F024FA22462146274805F011FA01AA5A
:103A70002946254805F0E2F829462348602205F04A
:103A8000DFF929462048042205F038FA29461E4865
:103A9000082205F00BFA224629461B4805F0F8F9E2
:103AA00001AA3146184805F0C9F831461648602287
:103AB00005F0C6F931461448042205F01FFA3146D4
:103AC0001148082205F0F2F9224631460E4805F069
:103AD000DFF904A805F086F84FF0005304A90A485E
:103AE0000694CDE90443ADF81C4005F081F8214669
:103AF000054805F093F82946034805F06BF802489D
:103B000005F05CF80CB070BD002C014008B50D4804
:103B100005F062FA0B484FF4E13105F0A9FA0948C3
:103B2000042105F0E5FA0821064805F0DBFA05480E
:103B300005F0D2FABDE80840024840F2053105F030
:103B4000EDBA00BF0044004038B50546E9B20C4864
:103B500005F0D4FA41F2010401E0013C07D0084825
:103B6000072105F0D3FA0028F7D0284638BD054ACA
:103B700013684FF0FF3501331360284638BD00BF8E
:103B800000440040684C0020F0B52DED028BA74D9D
:103B90001446002285B02A600E46217C0746002983
:103BA00000F0A180E168DFEDA26A5B1A07EE903AAF
:103BB000F8EEE77AB7EE007A67EEA67AF4EEC77A07
:103BC000F1EE10FAC4ED057A00F19780F0EE006A8C
:103BD000F4EEE67AF1EE10FA00F1A78094ED068A91
:103BE000D0ED034A94ED025AD6ED157AD6ED295A56
:103BF00096ED0F6AD6ED106A96ED147AD6F858E075
:103C0000D6F85CC0316E04F5405303F5966034EE8F
:103C1000C88AC0ED004A03F2B44080ED005AB0EE0D
:103C2000C88A03F5976080ED008A03F2BC40C0EDBE
:103C3000005A04F5535080ED006A03F2C440C0ED11
:103C4000006A03F5996080ED007A03F2CC40C0ED84
:103C5000007A03F59A60F0EE648AC0F800E003F29F
:103C6000D44003F59B63C0F800C01960304601F0F2
:103C700081FCDFED707AB4EE678AF1EE10FA0DD8B0
:103C8000DFED6D7AB4EEE78AF1EE10FA06D4DFEDDF
:103C90006B7AB4EEE78AF1EE10FA5DDD304601F0A2
:103CA00069FCDFED677A68EE277A40F20112FDEEDB
:103CB000E77A00230120A4F82120237017EE901A40
:103CC00084F824000A20FEF79BFA18EE100AFCF78D
:103CD000EBFB02465B480B4605B0BDEC028BBDE832
:103CE000F04006F0BFBE5848029306F023FF0122C1
:103CF000029B22740022E360626104F539520023C2
:103D00005249A360136093608A6CC6F8A42004F53E
:103D10003051C6F8A8303431304601F0A7FCFB68BA
:103D2000A36105B0BDEC028BF0BD77EEC77A9FEDC5
:103D3000487A04F5305167EE877A04F53953343107
:103D40003046C4ED027AC3ED007A05B0BDEC028BBB
:103D5000BDE8F04001F08ABC9FED3D0A80EE080A04
:103D600009F0BCFE431E142B07464FF000023DD85D
:103D70002070D4ED067AF4EEE87AF1EE10FA2ED542
:103D8000344884F8202006F0D5FE2178324806F029
:103D900069FEA069FCF788FB02460B4618EE900A04
:103DA000CDE90223FCF780FBDDE90223CDE9000128
:103DB0002A4806F057FE94F820302B6023782349D8
:103DC00007EE903AF8EE677A00220123C1ED0A7AF5
:103DD000227484F8213005B0BDEC028BF0BD0123C4
:103DE00084F820301E4806F0A5FECEE7304601F0EC
:103DF000C1FB40F2011300220121A4F821302270FE
:103E000084F824100A203946FEF7FAF918EE100A51
:103E1000FCF74AFB024613480B46394605B0BDEC99
:103E2000028BBDE8F04006F01DBE00BF98400020A8
:103E3000D1CB0B38FFFF7F7FCDCC4C3EE4CB16417E
:103E400000007A44ACDE000888DE000898440020B8
:103E5000DB0FC94028DF000858DF00086CDF0008CE
:103E600040DF0008E8DE00082DE9F041C24E96ED83
:103E70000A7A2DED028BF3EE057AB4EEE77AF1EED5
:103E800010FA84B000F312811D46137C14460F46CD
:103E90008046002B00F0D880D3689FEDB87AEB1AEB
:103EA00007EE903AF8EEE77AB7EE006A67EE877AA7
:103EB000F4EEC67AF1EE10FAC2ED057A00F1D28086
:103EC0009FEDAF8A96ED0A7A67EE085AC5EE886ACA
:103ED00076EE866AF4EEE67AF1EE10FA78D4DFED4B
:103EE000A96A27EE267AC7EE086A36EE867AF4EEDD
:103EF000C77AF1EE10FA00F1E280084601F03AFBD1
:103F0000D6ED0A7ABDEEE77A17EE103A002B40F3B1
:103F1000928104EB432303F1300204F130010023CA
:103F200051F8040F91420344FAD107EE103AB8EE6B
:103F3000C77A9FED956A656B9FED938ADFED938A53
:103F400027EE866AD5F58035C7EE066A48BF05F2CA
:103F5000FF156D120027FDEEE66AC4ED076A07EE55
:103F6000107AF8EEC75A67EE886A65EEA75A6FF0C6
:103F70003F0265EE885A002165EEA85AB7EE005A56
:103F800013E036EEC56AB4EEC76AF1EE10FA03D557
:103F900037EE667AFDEEC77A17EE903A04EB8303AC
:103FA00001325B6B402A194433D007EE902AF8EEB9
:103FB000E77A77EEA57AFDEEE77A17EE903A002BD6
:103FC000B8EEE77ADDDA37EE267AFDEEC77AE3E778
:103FD000D2ED027A9FED6E7A77EE877A02F5395349
:103FE000084602F53051C2ED027A3431C3ED007A51
:103FF00001F03CFB94ED057AD4ED0C7AB4EEE77A4F
:10400000F1EE10FA00F3D08004B0BDEC028BBDE8F5
:10401000F0810029B8BF7F317F2D4FEAE112294698
:10402000C8BFA5F18001E06901F68C2304EB83038E
:10403000121A5A605748013706F014FD802F2BD012
:10404000D6ED0A7A01358AE75348039306F072FDEC
:10405000039BA38500236361012323744FF07E53E8
:10406000E560236304F539520023A3601360B26C4A
:10407000C7F8A42004F53051C7F8A83034313846C9
:1040800001F0F4FAD8F80C206369A261236304B04C
:10409000BDEC028BBDE8F08100220123227484F87C
:1040A000223004B0BDEC028BBDE8F0813B48152105
:1040B00004B0BDEC028BBDE8F04106F0D3BCD2EDFC
:1040C000027A9FED337A77EEC77A3846C2ED027AEC
:1040D000B36CC1F8A4300023C1F8A83002F53953FD
:1040E00002F53051C3ED007A343101F0BFFA94ED9E
:1040F000057AD4ED0C7AB4EEE77AF1EE10FA83DDAE
:10410000A78D002F80D096ED0A7AD4ED027ADFEDEC
:10411000256AD8F82432A06827EE087A67EEA66AE6
:10412000C6EE877AFDEEE77A17EE902A9B1ADD132A
:1041300005F480351D4404EB8703CDED037A596BFC
:104140000D4405EBD5756D105D63FCF7ADF92B469D
:10415000CDE90001039A1248394606F083FCD4EDFC
:104160000C7A9FED0A7AA38D77EE877A013BA385BF
:10417000C4ED0C7A48E700BF98440020D1CB0B383F
:10418000DB0FC940DB0F4941000000430000003C49
:104190005F975B39F0DF0008B8DF000888DF0008B0
:1041A000E0DF00080000804794ED026A96ED0A7A8D
:1041B0005FED046AD8F82432A78D66EE266A27EEF2
:1041C000087A16EE100AC6EE877AFDEEE77A17EE49
:1041D000902A9B1ADD1305F480351D4404EB8703F8
:1041E000CDED037A5D63FCF75FF92B46CDE9000165
:1041F000039A1248394606F035FC9FED116A94ED9A
:104200000C7ADFED106AA38D37EE067AFFEE007AA6
:1042100084ED0C7A96ED0A6A07EE103AE6EE267AFD
:10422000B8EEC77AB4EE677AF1EE10FA3FF4ECAE6E
:104230000133A385E8E69FED047A7AE6E0DF000823
:104240000000003C0000004300000000024B187812
:10425000003818BF01207047084D0020044B1B7820
:1042600023B1044A136843F001031360704700BF91
:10427000084D0020044D0020014B1868704700BF16
:10428000044D0020014B1868704700BF004D00200E
:10429000014B1868704700BFFC4C0020014B1868A8
:1042A000704700BFF84C0020014B1868704700BFF2
:1042B000F44C002005289DBF024B33F8100080B25B
:1042C00000207047E84C00200E289ABF024B53F89C
:1042D00020000020704700BFAC4C00200D289ABF82
:1042E000024B53F820000020704700BF744C0020A0
:1042F000024B1878003818BF01207047704C00201E
:10430000014B01229A637047AC4C002070B5044603
:104310004FF6FF7384B03748218063804FF480519B
:10432000164604F071F900230393039B3F2B06D834
:1043300000BF039B01330393039B3F2BF8D940F647
:10434000010501E0013D40D02B48022104F060FB53
:104350000028F7D02188284804F054FB40F60105D6
:1043600001E0013D40D02448012104F051FB002828
:10437000F7D0214804F048FB40F60105608001E0D9
:10438000013D34D01C48802104F042FB0128F7D0C5
:1043900000230293029B3F2B4FF000051CD91548C8
:1043A0004FF4805104F02EF900230193019B3F2B21
:1043B00006D800BF019B01330193019B3F2BF8D925
:1043C00063883380284604B070BD4FF0FF3500236A
:1043D0000293029B3F2BE2D800BF029B0133029362
:1043E000029B3F2BF8D9DAE76FF00105EFE76FF09A
:1043F0000205ECE7000C01400038004070B582B0C7
:1044000000230DF102024FF40041ADF80230ADF887
:104410000430ADF806300446FFF778FF4FF408414A
:10442000064601AA2046FFF771FF4FF408410546F2
:104430000DF106022046FFF769FF46EA0503034334
:1044400007D1BDF80630BDF8040040EA034002B0D1
:1044500070BD044A13684FF0FF3043F0040313604B
:1044600002B070BD044D002038B5044603F080F85A
:10447000354A364B1189D568186041EA0541996083
:10448000D2F89CC0B2F898109FED313AD2ED167A6E
:1044900092ED176A92ED187A92ED2A4AD2ED104AFF
:1044A00092ED0F5AD2ED115AD2ED096A108ADFED62
:1044B000293A41EA0C422849DA6067EE837A1861AA
:1044C000D1F808285A6126EE036AFCEEE77AD1F8A3
:1044D0000C289A6127EE037ABCEEC66A17EE902A82
:1044E00016EE101ABCEEC77A24EE234A64EEA34AF5
:1044F00025EE235A65EEA35A66EEA36A92B242EA0B
:10450000014217EE101ABDEEC44AFDEEE44ABDEEBC
:10451000C55AFDEEE55AFDEEE66A89B283ED074A1B
:10452000C3ED084A83ED095AC3ED0A5AC3ED0B6A7D
:104530001A6359633CB12046FFF760FF074A034BFB
:10454000506052685A6038BD7C3D0020744C002099
:1045500000401C4600007A4400000140AC4C0020A2
:104560002DE9F04F002787B003ACCDE90377019424
:104570003A4EDFF80CA13A4C059780464FF00109FE
:104580000DF10E0B14F8015B364BADF80A7043EADF
:10459000C5250DF10A02A9B24046FFF7B7FE002873
:1045A00049D0326842F004024FF000093260A2455F
:1045B0000BF1020BE6D1019C2B48002334F8022BAF
:1045C00020F813200133062BF8D12849DDF80E30EE
:1045D000C8F806300B602649DDF81240BDF80E2001
:1045E000BDF810000C60234CBDF81610216002438A
:1045F000BDF81230BDF8144025D1C3F30A03A02B37
:1046000021D11D4B9FED1D7AD3ED037AB4EEE77AED
:10461000F1EE10FAACBF4FF430734FF420739C42AC
:1046200011D140F21543994208BF09F1FF300AD178
:1046300007B0BDE8F08F5A46A9B24046FFF766FEC4
:104640000028AED1B3E7054A13684FF0FF3043F0BE
:104650000803136007B0BDE8F08F00BF044D0020D1
:1046600090E800080080FFFFE84C0020FC4C002090
:10467000F84C0020F44C0020984400200000204218
:1046800095E8000800B587B001AB83E807000DF19D
:1046900016024FF400411846FFF738FEBDF8160029
:1046A00007B000BD00B587B001AB83E807000DF18E
:1046B00016024FF408411846FFF728FEBDF8160011
:1046C00007B000BD30B585B004AB03E90700124860
:1046D000002104F0A3FA11484FF4006103F092FFA7
:1046E00000230F4A1C4642F8234001330F2BFAD116
:1046F0000C4A0D4B012515701C6002F039FF0B4B65
:104700000B4918600B4B0D700B4A1C700B4B14704F
:104710001C7005B030BD00BF002C014000080140F6
:10472000AC4C0020704C00206C4C00200C4D002044
:10473000134D0020124D0020114D0020104D00207F
:10474000054B187828B1054B1878B0FA80F040096D
:10475000704700F0FF007047124D0020704C0020A1
:1047600010B584B004AB03E90700002211461048DD
:10477000104C04F0EBFB0E480022012104F0E6FB94
:1047800000220B48022104F0E1FB0948002104F05B
:1047900045FA09484FF4006103F036FF074808491D
:1047A000084A0023237003700B70137004B010BD0F
:1047B000002C0140134D002000080140124D002044
:1047C000704C0020104D002030B5A04B89B001ACDA
:1047D00084E807001A7812B19D4A117851BB9D4AAE
:1047E00012780AB909B030BD9B4A156802F0C0FEC4
:1047F0000A220146284602F023FE0028F2D09748FC
:104800004FF4805103F008FF024600285DD1944D1B
:104810002B78002B2FD194E8070005AB03C341F29E
:10482000A1011A8005A80DF11202FFF76FFD012307
:104830002B70D7E702F09CFE8A4B1968401A0028BB
:10484000D0DB894A107800F0FF01002800F0BC801E
:1048500082484FF4805103F0DFFE7D4A002800F0CB
:10486000D380824800F0CEFD794A002313707E4A3F
:1048700000231370B6E77E4B009220461A60FFF7C4
:10488000BDFD7B4B7B495860D1F80408D861D1F855
:104890000C081862D1F808085862D1F8040C986224
:1048A000D1F80C0CD862D1F8080C1863A1F550416E
:1048B000009AD1F808185963654B20201A70FCF74C
:1048C00049FC644B009A1A708CE7624B00221A7004
:1048D00094E8070005AD03C541F2A1012A8005A8AF
:1048E0000DF11202FFF712FD634A9FED647AD2EDDB
:1048F000037A94E80700B4EEE77AF1EE10FA0DF1CE
:10490000140CACE80300A8BF4FF44B512A80B8BF89
:104910004FF44A510DF1120205A8FFF7F7FC94E895
:1049200007000DF1140CACE8030042F615412A8093
:1049300005A80DF11202FFF7E9FC2046FFF710FE73
:104940004B4A4F4900280CBF012000201060086826
:104950004C49506009684C48916000684B49D060F0
:10496000488880B21061888880B25061C888414907
:1049700080B29061D1F80408D061D1F80C081062BF
:10498000D1F808085062D1F8040C9062D1F80C0CF0
:10499000D062D1F8080C1063A1F55041D1F8081885
:1049A000516345D12D484FF4805103F035FE002866
:1049B0003ED0264B01241C7002F0DAFD294A244B1C
:1049C000143010601C700DE72848009100F0D2FDF3
:1049D0002F480099012204F0B9FA012211462C480F
:1049E00004F0B4FA01222A48022104F0AFFA284860
:1049F000012104F013F91C4B01221A7002F0B8FDDA
:104A0000184B05301860EDE6194910700860204613
:104A1000FFF7F4FC1649034620204B60FCF79AFB95
:104A20000123ADF8083094E80700FFF799FE1EE770
:104A3000074B002220201A70FCF78CFB0123ADF8F5
:104A4000083094E80700FFF78BFECBE6124D0020FC
:104A5000704C0020134D00200C4D00200008014038
:104A6000114D00206C4C0020104D00207C3D00209A
:104A7000AC4C00200000014098440020000020427F
:104A8000FC4C0020F84C0020F44C0020E84C0020A6
:104A9000002C0140F0B589B001AC84E8070094E82F
:104AA000070005AE03C64FF40041328005A80DF1A2
:104AB00012021F46FFF72AFC94E8070005AB03C368
:104AC00032804FF408410DF1120205A8BDF81250D2
:104AD000FFF71CFCBDF8124054EA05031FD12B0759
:104AE00043D46F0746D4AE0749D4ED074CD46005D4
:104AF0004FD4A10552D4E20555D4230658D46706F5
:104B00005BD4A6065ED4E50661D4200764D46107B1
:104B100067D4A2076AD4E3076DD409B0F0BD3B485F
:104B2000394605F09FFF6A056BD4AB0502D53848BE
:104B300005F098FFEF0502D5364805F093FF2E06E5
:104B400002D5354805F08EFF680602D5334805F0DA
:104B500089FFA90602D5324805F084FFEA06BED5D2
:104B6000304805F07FFF2B07BBD52F4805F07AFFB3
:104B70006F07B8D52D4805F075FFAE07B5D52C48A1
:104B800005F070FFED07B2D52A4805F06BFF600510
:104B9000AFD5294805F066FFA105ACD5274805F03B
:104BA00061FFE205A9D5264805F05CFF2306A6D5DE
:104BB000244805F057FF6706A3D5234805F052FFA8
:104BC000A606A0D5214805F04DFFE5069DD5204855
:104BD00005F048FF20079AD51E4805F043FF6107FE
:104BE00097D51D4805F03EFFA20794D51B4805F058
:104BF00039FFE30791D51A4809B0BDE8F04005F048
:104C000031BF184805F02EFF8FE700BFFCDF00081A
:104C10001CE0000828E0000830E0000838E0000848
:104C200040E000084CE0000858E0000864E000089C
:104C300070E000087CE0000888E0000890E00008D0
:104C400098E00008A0E00008A8E00008B0E0000834
:104C5000BCE00008C8E00008D4E00008E0E000087C
:104C6000ECE0000810E000082DE9F04389B001AC49
:104C700084E80700764F774A774D784900233B60F8
:104C80002B601360764A1360764A13601A4621F847
:104C900013200133062BFAD1FCF72EFA724BDFED0D
:104CA000737A93ED037AB4EEE77AF1EE10FA25D831
:104CB000DFF8C4916E4801234FF4006189F8003099
:104CC00003F0A0FC0A2002F03BFC2046FFF796FB15
:104CD00028602B68002B40F0A88005AB94E8070003
:104CE0001D4603C30DF112081A8041F2A10142468C
:104CF0002846FFF70BFB4FF44B5323E0DFF8789186
:104D00005B4801234FF4006189F8003003F07AFC1E
:104D10000A2002F015FC2046FFF770FB28602B6884
:104D2000002B7CD105AB94E807001D4603C30DF1B1
:104D300012081A8041F2A10142462846FFF7E6FA1E
:104D40004FF44A5394E807002E4603C619463280B2
:104D500028464246FFF7DAFA464800F02DFB94E871
:104D600007002B4603C3328042F6154142462846CF
:104D7000FFF7CCFA94E807002B4603C341F2A101E8
:104D8000328028464246FFF7C1FA012002F0D8FBE4
:104D9000384800F011FB36484FF4805103F03CFCDA
:104DA00018B93B6843F010033B602046FFF7D8FB7F
:104DB00028B92F484FF4805103F02EFCD8B994E85D
:104DC00007002B4603C341F2A1011A802846424640
:104DD000FFF79CFA012002F0B3FB25484FF4805105
:104DE00003F01AFC38B32046FFF7BAFB18BB3B6848
:104DF00023F008033B601E484FF4805103F00CFC85
:104E00000346C8B194E807000024FFF7A9FC89F81D
:104E10000040FCF771F9204609B0BDE8F0833A681C
:104E200042F0020205AB3A607DE73A6842F00202C6
:104E300005AB3A6052E70023202089F80030FCF7E8
:104E400089F994E80700FFF78BFC4FF0FF30E3E7A8
:104E5000044D0020FC4C0020004D0020E84C0020B8
:104E6000F84C0020F44C0020984400200000204220
:104E7000000801407C3D0020084D002008B50C21B1
:104E8000002003F017FC4FF480500222002103F0B1
:104E90004FF9BDE808404FF4805003F0A1B900BFBE
:104EA000044A072928BF07210023C0E90121037014
:104EB000704700BF00C0030810B5044603F096F920
:104EC00040F2073003F0FAFA606803F0C3F90123F7
:104ED000237010BD84B00DF1100C0CE9070002988E
:104EE000049900EB830004B003F054BA84B00DF1D0
:104EF000100C0CE907000298049900EB830004B041
:104F000003F048BA84B00DF1100C0CE907000298C8
:104F100010EE101A00EB830004B003F03BBA00BFA0
:104F200000B583B0019003F081F90198002303706C
:104F300003B000BD84B00DF1100C0CE9070051F86E
:104F4000230004B0704700BF84B00DF1100C0CE9D1
:104F5000070051F8230004B0704700BF84B00DF182
:104F6000100C0CE9070001EB830292ED000A04B07B
:104F7000704700BF08B590ED167AD0ED186A1C4B4B
:104F8000F7EE007A2DED048B37EEC77A9FED199A74
:104F9000D0ED178A1968184827EE097A77EEE88A63
:104FA00037EEE68AFCEEC77A17EE902AC9B903F00D
:104FB0006FFF1148012168EE898AFCEEE87A17EE4E
:104FC000902A03F065FF68EE097ABDEC048BFCEED5
:104FD000E77ABDE80840084817EE902A022103F05E
:104FE00057BF012103F054FF03480021E3E700BF4E
:104FF000984000200000FA44002C014070B55C4E3F
:1050000034688CB00546002C40F0A28021465948F7
:1050100002F0E6FD0346AB605748214602F0E0FD92
:1050200003465448EB60022102F0CCFD53480221B4
:1050300002F0C8FD40F6010401E0013C72D04D4889
:10504000042102F0E1FD0028F7D040F6010401E060
:10505000013C67D04948042102F0D6FD0028F7D072
:105060004448042102F0D6FD4448042102F0D2FD58
:105070000021424802F0B4FDD5F89820AB6895EDC8
:105080001C6AD5F89C409FED3E7A286107EE900A95
:105090009B1AF8EEE76A07EE903AF8EEE77AEB68CB
:1050A00067EE867A012285F8F5221B1BF169C5EDB2
:1050B000067ACDED077A66EE876AB1EE677A07EE7B
:1050C000903AF8EEE77AD5F8F822019167EE867A01
:1050D000013237EE677A00210A9140F20110002177
:1050E000C5F8F822274AADF82C008DF82E10C5ED32
:1050F000086ACDED096AC5ED077A85ED057A546E2B
:10510000936E03930294D46E136F059306A901A8BE
:1051100004948DED067ACDED087AFCF731F818BBD2
:105120000CB070BD1348042102F074FD1348042133
:1051300002F070FDD5F8FC3200220133802085F8A2
:10514000F522C5F8FC320CB0BDE87040FCF702B89F
:105150000021094802F044FD0346AB6005480021E8
:1051600002F03EFD03465CE7FBF7F4FF0CB070BDB8
:10517000984000200024014000280140003C0140EC
:105180001833533C9844002000B52DED028B87B0B6
:10519000CDE90210CDED050A8DED041A0192F0EE75
:1051A000408A01F07DFBB0EE408AB0EE680A01F063
:1051B00051FBF6EE007A67EEC06ADFED175A9FEDFD
:1051C000176A9DED041ADDED050A03980299019A0C
:1051D00067EEC87AB0EE667AA8EE257AE8EE656AE0
:1051E000F0EE675AE0EE065AE0EE467A21EE477A94
:1051F00021EE400A21EE661AA8EE200AA5EEA07A5A
:10520000A7EEA01A80ED000A81ED007A82ED001A67
:1052100007B0BDEC028B00BDD7B35DBFD7B35D3F18
:1052200000B52DED028B87B0CDE90110CDED050A5B
:105230008DED041ACDED031AF0EE408A01F030FB3B
:10524000B0EE408AB0EE680A01F004FBB6EE007AD8
:1052500067EE486A27EE407ADFED185A9FED186A2C
:105260009DED041ADDED050ADDED031A02980199A2
:10527000F0EE667AB0EE475AA8EE065AE0EE257ACE
:10528000A8EE467A67EE817A21EE451AE0EE656A6D
:10529000E8EE207AA0EE601AE6EEA17AA7EE611A97
:1052A0009FED086A67EE867A21EE061AC0ED007A55
:1052B00081ED001A07B0BDEC028B00BDD7B35D3F96
:1052C000D7B35DBFABAA2A3F00B52DED0A8BB0EE78
:1052D000609A85B0F0EE418AF0EE40AAB0EE611A15
:1052E000F0EE680AB0EE490AB0EE618A0192CDE9AB
:1052F000021001F051FAB0EE481AF0EE680AB0EE72
:1053000040AAB0EE490A01F02FFA3AEE00AAF6EEF2
:10531000009AAAEE699ADFED24BA9FED24CA9FEDA8
:1053200024BA29EE299AF0EE4C0A29EE2B9A89EE3E
:105330002A0A9FED209A30EE0B0A01F005FAF0EEF2
:10534000490A01F009FAEAEE698A039880ED000A39
:1053500068EEA98AF0EE4C0A68EEAB8A88EEAA0ADB
:1053600030EE0B0A01F0F0F9F0EE490A01F0F4F921
:10537000AAEE698A029981ED000A28EE298AF0EEE8
:105380004C0A28EE2B8A88EE2A0A30EE0B0A01F02E
:10539000DBF9F0EE490A01F0DFF9019A82ED000A2B
:1053A00005B0BDEC0A8B00BD3333933F0000000015
:1053B000D7A3F03ED7A3703FF8B54FF07C53836579
:1053C000C36503660446FFF7D5FD00264FF47A75E2
:1053D00037462046FFF712FED4E90223013D174469
:1053E0001E44F6D1064B83FB0721FA17C2EBA1122C
:1053F00083FB0631F317C3EBA113C4E92623F8BDE1
:10540000D34D6210F8B504210546144802F002FCA1
:105410001348042102F0FEFB0024264627462846B6
:10542000FFF7ECFD95F8F532A3B1072C13DDD5E9B4
:1054300002230134482C17441E44F0D1002FB8BF7A
:105440003F37002EB8BF3F36BF11B611C5F8987070
:10545000C5F89C60F8BD0134E1E700BF00240140BD
:10546000003C01402DE9F843344A354BDFED356A05
:10547000DFED355A2DED028BC267C0F8802093ED29
:10548000027A324AC0F8842066EEC76AF7EE007AE4
:10549000B0EE676AA6EEA56A2D4ADFED2E6A1268A5
:1054A000C0F8C82027EE267AC7EE866A80ED1D7AFE
:1054B00077EEE67A80ED1E7AC0ED227A9FED267AAD
:1054C000D3ED037AF4EEC77AF1EE10FA33D8234B1A
:1054D000DFF89C90DFED228A9FED228A224F03673E
:1054E0004FF0804800F1F4050024002607EE904AB2
:1054F000F8EEE77A013467EEA87AC7EE887A17EEFD
:10550000900AFAF7D1FF41EC100B07F05DFF42461D
:1055100051EC100B4B46FBF71FF832463B46FAF7AF
:1055200065FEFBF711FB802C45F8040BDED1BDECCA
:10553000028BBDE8F8830D4BCAE700BFEC51383D44
:1055400098440020D1CB0B38DB0FC940BD74933B8E
:105550009840002017B7D13800002042FFFFA43C3C
:10556000000000BC6F12033D0000F03FFFFF243D30
:105570003333F33F10B54FF47A72044600211648D6
:1055800003F086FC14484FF47A72012103F080FC8A
:105590004FF47A721048022103F07AFC00230022B3
:1055A000C4F8A430C4F8A830C4F8AC30C4F8B030A3
:1055B000E36323646361A361E3616364C4F89030CF
:1055C000C4F88C3063652365C4F8E830C4F8EC2077
:1055D000C4F8002310BD00BF002C014090ED397AC3
:1055E000D0ED387A90ED3A0ADFED1E0A77EEC77AF1
:1055F00090ED217A10B5A7EE270A82B0044680ED1F
:105600003A0A01F0A9F8184BD3ED060AF1EE600A48
:1056100001F09AF894ED3C7A84ED3A0A60EE407A13
:1056200084ED290AE7EE077AF5EE407AF1EE10FAFA
:1056300011D4F1EEE70A94ED2A0ACDED010A01F04A
:105640008BF8DDED010AF1EE600A01F07DF884EDE2
:105650002A0A02B010BDB0EE670A07F005FFF0EEAF
:10566000400AE8E7000000009844002010B52DED46
:10567000028B91ED830ACB68D1F814C2D1F81022C5
:10568000D0ED071A90ED061AD0ED050A044682B057
:1056900000F1400180ED0B0A8362C0F834C0026360
:1056A0003C30FFF7BDFD9FEDA05A94ED087ADFED89
:1056B0009F5AD4ED097A94ED106AD4ED0F6A94EDF7
:1056C000114AD4ED124A9A4B27EE057A26EE056A66
:1056D000A7EEA57ADFED977A84ED097A66EE856A02
:1056E00067EE277A9FED945A9FED947AA4EE256A8F
:1056F000E4EEA56A67EE857ADFED915A94ED2B5AB8
:1057000084ED116A67EEA57AD4ED295AC4ED387A92
:1057100075EEC57AC4ED126A93ED030AF4EEC77A0A
:10572000F1EE10FA84ED3C0A00F3F080DFED856ABB
:10573000F4EEE67AF1EE10FA00F1E28094ED2C6AD4
:10574000D4ED2A7ADFED7D6AC4ED2B5A37EEC67AA6
:10575000B4EEE67AF1EE10FA00F3D5809FED795AB7
:10576000B4EEC57AF1EE10FA00F1C78004F1A80199
:10577000C4ED295A04F1A400C4ED2C7AC1ED007ADD
:1057800001F022F8D4ED0F6AD4ED298A94ED1D7A48
:1057900094ED230ADFED6C7A94ED2A8AD4ED380A71
:1057A00078EEE68AA7EE280A94ED107A30EE270A02
:1057B00038EE478A84ED140A00F0CEFFD4ED380AA3
:1057C000F1EE600A00F0C0FFD4ED1F6A94ED1D7A7F
:1057D000D4ED237AD4ED380A84ED140A27EE267A24
:1057E000E7EE287AB0EE670AC4ED237A00F0B4FF42
:1057F000D4ED380AF1EE600A00F0A6FFD4ED147A79
:10580000D4ED380A84ED230A67EEE77AE0EEA07A59
:10581000F5EE407AF1EE10FA7BD4F1EEE78A94EDE2
:10582000240AD4ED1E7AD4ED206AB0EE407AA7EEB9
:10583000887A67EEA67ADFED446AA7EE880A77EEEB
:10584000267A84ED240AC4ED157A00F085FFD4EDA4
:10585000380AF1EE600A00F077FFF0EE406A94ED4E
:10586000150A94ED147AC4ED246A60EE007AF0EE25
:10587000680AE7EE077AB1EEE77A84ED397A00F04C
:105880006BFFF1EE680A00F05FFFF0EE407A04F182
:10589000540194ED380AC4ED157A04F1500000F07B
:1058A00093FFDFED2A7A94ED0D7A94ED0B0A94EDD7
:1058B000151AD4ED140AA7EE270A04F16C0204F1BC
:1058C000680104F16400FFF75FFC04F15800D4EDB7
:1058D0001B1A94ED1A1AD4ED190A94ED380A04F142
:1058E000600204F15C01FFF7EFFC204602B0BDEC62
:1058F000028BBDE81040FFF73DBB76EE667A35E7D8
:1059000075EE475A1AE776EE267A2FE775EE075AB4
:1059100014E7B0EE670ACDED010A07F0A5FDDDED55
:10592000010AF0EE408A7AE7CDCCCC3D6666663F50
:10593000984400203333933FD7A3703F0AD7233CCA
:105940003ACD133F0AD723BC00000000BAB151384A
:1059500000B5D0F80033D0ED337A90ED0A7A42F2F8
:105960002732934277EEC77A83B042D807EE103AD7
:10597000DFED216AB8EEC77A87EE266A1F4B0190E9
:10598000D0ED356A90ED370A90ED3C7AA6EEA70A85
:10599000D0ED0C6AD0ED347AF1EE040A77EEE67AB7
:1059A000D0ED366A37EE607AA6EEA70AE7EE060A71
:1059B000D3ED0E7ACDED000A80EE270A00F0CCFE82
:1059C000DDED000AF1EE600A00F0BEFE0198D0F8AD
:1059D000003380ED2A0A42F2273293424FF0000151
:1059E00098BF0133C0F8A41098BFC0F8003303B0CB
:1059F00000BDB7EE006AC1E700A00C469844002045
:105A000000230022C0F8DC30C0F8D430C0F8D83011
:105A1000C0F8CC30C0F8D030C0F8A830C0F80023AF
:105A2000704700BF10B54FF4805182B00A4802F0B1
:105A3000F3FD0446FBF796FB084A094B094992F827
:105A4000F52293F83D3689880092221E18BF012264
:105A500001F0E4FC02B010BD000801407C3D0020D4
:105A6000F8360020EC36002008B50B4801F03AFB70
:105A700070B1094801F06AFB38B1074801F0CAFC6F
:105A8000054801F00BFC013808BD034801F0C2FCD9
:105A90004FF0FF3008BD00BF8040002010B50378F4
:105AA0000446052B2AD8DFE803F027032A292727F5
:105AB0001B4B1A8918685968FEF752FE194B93F868
:105AC0002220CAB903F54053174AD3F8A4129162B1
:105AD000164893F8A8C2D3F8AC321549C0F800C0F4
