:020000040800F2
:100000000000012095AE00080D9200081192000832
:100010001D92000829920008359200080000000097
:1000200000000000000000000000000041920008F5
:100030004592000800000000499200084D92000817
:10004000E5AE0008E5AE0008E5AE0008E5AE000844
:10005000E5AE0008E5AE0008E5AE0008E5AE000834
:10006000E5AE0008E5AE0008E5AE0008E5AE000824
:10007000E5AE0008E5AE0008E5AE0008E5AE000814
:10008000E5AE0008E5AE0008E5AE0008E5AE000804
:1000900051920008E5AE0008E5AE0008E5AE0008A4
:1000A000E5AE0008D1930008E5AE0008E5AE000813
:1000B000E5AE0008E5AE0008E5AE0008E5AE0008D4
:1000C000E5AE0008E5AE0008E5AE0008E5AE0008C4
:1000D000E5AE0008E5AE0008CD940008E5AE0008E6
:1000E00059940008E5AE0008E5AE0008E5AE00084A
:1000F000E5AE0008E5AE0008E5AE0008E5AE000894
:10010000E5AE0008E5AE0008E5AE0008E5AE000883
:10011000E5AE0008E5AE0008E5AE0008E5AE000873
:10012000E5AE0008E5AE0008E5AE0008E5AE000863
:1001300001F0FF01102A2BDB10F0070F08D010F898
:10014000013B013A8B422DD010F0070F42B3F6D19C
:10015000F0B441EA012141EA014122F007047FF0B5
:1001600000070023F0E80256083C85EA010586EA0C
:10017000010685FA47F5A3FA87F586FA47F6A5FA48
:1001800087F68EB9EED1F0BC01F0FF0102F0070254
:1001900032B110F8013B013A83EA010313B1F8D1FF
:1001A0000020704701387047002D06BF35460338E0
:1001B000073815F0010F07D1013015F4807F02BF19
:1001C000013015F4C03F0130F0BC0138704700BF6A
:1001D000034613F8012B002AFBD1181A0138704787
:1001E00081F0004102E000BF83F0004330B54FEAE8
:1001F00041044FEA430594EA050F08BF90EA020F55
:100200001FBF54EA000C55EA020C7FEA645C7FEAE7
:10021000655C00F0E2804FEA5454D4EB5555B8BF0A
:100220006D420CDD2C4480EA020281EA030382EA7B
:10023000000083EA010180EA020281EA0303362D0D
:1002400088BF30BD11F0004F4FEA01314FF4801CE0
:100250004CEA113102D0404261EB410113F0004FF2
:100260004FEA03334CEA133302D0524263EB4303A9
:1002700094EA050F00F0A780A4F10104D5F1200E47
:100280000DDB02FA0EFC22FA05F2801841F10001A2
:1002900003FA0EF2801843FA05F359410EE0A5F176
:1002A00020050EF1200E012A03FA0EFC28BF4CF0A7
:1002B000020C43FA05F3C01851EBE37101F000455D
:1002C00007D54FF0000EDCF1000C7EEB00006EEB6A
:1002D0000101B1F5801F1BD3B1F5001F0CD34908F4
:1002E0005FEA30004FEA3C0C04F101044FEA44524B
:1002F00012F5800F80F09A80BCF1004F08BF5FEAD2
:10030000500C50F1000041EB045141EA050130BDB1
:100310005FEA4C0C404141EB0101013C28BFB1F5C3
:10032000801FE9D291F0000F04BF01460020B1FA0E
:1003300081F308BF2033A3F10B03B3F120020CDAE1
:100340000C3208DD02F1140CC2F10C0201FA0CF0BF
:1003500021FA02F10CE002F11402D8BFC2F1200C24
:1003600001FA02F120FA0CFCDCBF41EA0C019040DA
:10037000E41AA2BF01EB0451294330BD6FEA040423
:100380001F3C1CDA0C340EDC04F11404C4F120020E
:1003900020FA04F001FA02F340EA030021FA04F320
:1003A00045EA030130BDC4F10C04C4F1200220FA77
:1003B00002F001FA04F340EA0300294630BD21FAB5
:1003C00004F0294630BD94F0000F83F4801306BF7B
:1003D00081F480110134013D4EE77FEA645C18BF6F
:1003E0007FEA655C29D094EA050F08BF90EA020F06
:1003F00005D054EA000C04BF1946104630BD91EAFE
:10040000030F1EBF0021002030BD5FEA545C05D100
:100410004000494128BF41F0004130BD14F580043F
:100420003CBF01F5801130BD01F0004545F0FE41B3
:1004300041F470014FF0000030BD7FEA645C1ABFE8
:10044000194610467FEA655C1CBF0B46024650EA1F
:10045000013406BF52EA033591EA030F41F400214B
:1004600030BD00BF90F0000F04BF0021704730B5D1
:100470004FF4806404F132044FF000054FF00001A6
:1004800050E700BF90F0000F04BF0021704730B567
:100490004FF4806404F1320410F0004548BF40423C
:1004A0004FF000013EE700BF42004FEAE2014FEA91
:1004B00031014FEA02701FBF12F07F4393F07F4F6C
:1004C00081F06051704732F07F4208BF704793F06F
:1004D0007F4F04BF41F40021704730B54FF4607482
:1004E00001F0004521F000411CE700BF50EA010285
:1004F00008BF704730B54FF000050AE050EA01022E
:1005000008BF704730B511F0004502D5404261EB9D
:1005100041014FF4806404F132045FEA915C3FF4DE
:10052000D8AE4FF003025FEADC0C18BF03325FEA7B
:10053000DC0C18BF033202EBDC02C2F1200300FA2C
:1005400003FC20FA02F001FA03FE40EA0E0021FA51
:1005500002F11444BDE600BF70B54FF0FF0C4CF43F
:10056000E06C1CEA11541DBF1CEA135594EA0C0FF1
:1005700095EA0C0F00F0DEF82C4481EA030621EA2C
:100580004C5123EA4C5350EA013518BF52EA033567
:1005900041F4801143F4801338D0A0FB02CE4FF019
:1005A0000005E1FB02E506F00042E0FB03E54FF049
:1005B0000006E1FB03569CF0000F18BF4EF0010E41
:1005C000A4F1FF04B6F5007F64F5407404D25FEA3D
:1005D0004E0E6D4146EB060642EAC62141EA5551F0
:1005E0004FEAC52040EA5E504FEACE2EB4F1FD0C32
:1005F00088BFBCF5E06F1ED8BEF1004F08BF5FEAB0
:10060000500E50F1000041EB045170BD06F0004661
:1006100046EA010140EA020081EA0301B4EB5C040E
:10062000C2BFD4EB0C0541EA045170BD41F4801106
:100630004FF0000E013C00F3AB8014F1360FDEBF2B
:10064000002001F0004170BDC4F10004203C35DA07
:100650000C341BDC04F11404C4F1200500FA05F38A
:1006600020FA04F001FA05F240EA020001F000422B
:1006700021F0004110EBD37021FA04F642EB0601A1
:100680005EEA430E08BF20EAD37070BDC4F10C04CB
:10069000C4F1200500FA04F320FA05F001FA04F28F
:1006A00040EA020001F0004110EBD37041F100017B
:1006B0005EEA430E08BF20EAD37070BDC4F1200586
:1006C00000FA05F24EEA020E20FA04F301FA05F2EE
:1006D00043EA020321FA04F001F0004121FA04F296
:1006E00020EA020000EBD3705EEA430E08BF20EA66
:1006F000D37070BD94F0000F0FD101F000464000A0
:1007000041EB010111F4801F08BF013CF7D041EA21
:10071000060195F0000F18BF704703F00046520025
:1007200043EB030313F4801F08BF013DF7D043EAF6
:100730000603704794EA0C0F0CEA135518BF95EAAC
:100740000C0F0CD050EA410618BF52EA4306D1D133
:1007500081EA030101F000414FF0000070BD50EA52
:10076000410606BF1046194652EA430619D094EADC
:100770000C0F02D150EA013613D195EA0C0F05D1C6
:1007800052EA03361CBF104619460AD181EA03011A
:1007900001F0004141F0FE4141F470014FF00000D2
:1007A00070BD41F0FE4141F4780170BD70B54FF06D
:1007B000FF0C4CF4E06C1CEA11541DBF1CEA1355ED
:1007C00094EA0C0F95EA0C0F00F0A7F8A4EB0504CF
:1007D00081EA030E52EA03354FEA013100F08880C6
:1007E0004FEA03334FF0805545EA131343EA12638F
:1007F0004FEA022245EA111545EA10654FEA002644
:100800000EF000419D4208BF964244F1FD0404F5FC
:10081000407402D25B084FEA3202B61A65EB030558
:100820005B084FEA32024FF480104FF4002CB6EB15
:10083000020E75EB030E22BFB61A754640EA0C0095
:100840005B084FEA3202B6EB020E75EB030E22BFD5
:10085000B61A754640EA5C005B084FEA3202B6EB16
:10086000020E75EB030E22BFB61A754640EA9C00D5
:100870005B084FEA3202B6EB020E75EB030E22BFA5
:10088000B61A754640EADC0055EA060E18D04FEA63
:10089000051545EA16754FEA06164FEAC30343EA03
:1008A00052734FEAC2025FEA1C1CC0D111F4801FD0
:1008B0000BD141EA00014FF000004FF0004CB6E7C9
:1008C00011F4801F04BF01430020B4F1FD0C88BF68
:1008D000BCF5E06F3FF6AFAEB5EB030C04BFB6EB73
:1008E000020C5FEA500C50F1000041EB045170BD66
:1008F0000EF0004E4EEA113114EB5C04C2BFD4EB93
:100900000C0541EA045170BD41F480114FF0000E16
:10091000013C90E645EA060E8DE60CEA135594EA92
:100920000C0F08BF95EA0C0F3FF43BAF94EA0C0F95
:100930000AD150EA01347FF434AF95EA0C0F7FF40A
:1009400025AF104619462CE795EA0C0F06D152EA5E
:1009500003353FF4FDAE1046194622E750EA410642
:1009600018BF52EA43067FF4C5AE50EA41047FF453
:100970000DAF52EA43057FF4EBAE12E74FF0FF3CB8
:1009800006E000BF4FF0010C02E000BF4FF0010C89
:100990004DF804CD4FEA410C7FEA6C5C4FEA430C02
:1009A00018BF7FEA6C5C1BD001B050EA410C0CBF51
:1009B00052EA430C91EA030F02BF90EA020F0020B3
:1009C000704710F1000F91EA030F58BF994208BF1A
:1009D00090422CBFD8176FEAE37040F001007047D7
:1009E0004FEA410C7FEA6C5C02D150EA013C07D12E
:1009F0004FEA430C7FEA6C5CD6D152EA033CD3D079
:100A00005DF8040B704700BF8446104662468C4672
:100A10001946634600E000BF01B5FFF7B7FF0028A5
:100A200048BF10F1000F01BD4DF808EDFFF7F4FFCE
:100A30000CBF012000205DF808FB00BF4DF808ED59
:100A4000FFF7EAFF34BF012000205DF808FB00BF7C
:100A50004DF808EDFFF7E0FF94BF012000205DF89E
:100A600008FB00BF4DF808EDFFF7CEFF94BF012053
:100A700000205DF808FB00BF4DF808EDFFF7C4FF4C
:100A800034BF012000205DF808FB00BF4FEA410C95
:100A90007FEA6C5C02D150EA013C0AD14FEA430C78
:100AA0007FEA6C5C02D152EA033C02D14FF00000B5
:100AB00070474FF0010070474FEA410212F50012F3
:100AC00015D211D56FF47873B3EB625212D94FEA95
:100AD000C12343F0004343EA505311F0004F23FA7F
:100AE00002F018BF404270474FF00000704750EAD4
:100AF000013005D111F0004008BF6FF00040704791
:100B00004FF00000704700BF4A0011D212F50012EA
:100B100011D20DD56FF47873B3EB62520ED44FEA55
:100B2000C12343F0004343EA505323FA02F07047D5
:100B30004FF00000704750EA013002D14FF0FF3013
:100B400070474FF0000070474FEA4102B2F1E043B6
:100B500024BFB3F5001CDCF1FE5C0DD901F0004CA4
:100B60004FEAC0024CEA5070B2F1004F40EB8300F4
:100B700008BF20F00100704711F0804F21D113F120
:100B80003872BCBF01F00040704741F480114FEA59
:100B90005252C2F11802C2F1200C10FA0CF320FAE2
:100BA00002F018BF40F001004FEAC1234FEAD323FF
:100BB00003FA0CFC40EA0C0023FA02F34FEA430369
:100BC000CCE77FEA625307D150EA01331EBF4FF0F2
:100BD000FE4040F44000704701F0004040F0FE400D
:100BE00040F40000704700BF0348044B834202D02A
:100BF000034B03B118477047CC010020CC01002003
:100C0000000000000548064B1B1AD90F01EBA30199
:100C1000491002D0034B03B118477047CC010020A4
:100C2000CC0100200000000010B5064C237843B929
:100C3000FFF7DAFF044B13B10448AFF30080012340
:100C4000237010BDCC0100200000000044F8000813
:100C500008B5054B1BB105490548AFF30080BDE859
:100C60000840FFF7CFBF00BF00000000D001002008
:100C700044F8000808B5012009F0D4FB4FF4C06027
:100C800009F0A6FB40F2026009F0A2FB40F203600B
:100C900009F09EFB40F2046009F09AFB4FF4A0605B
:100CA00009F096FB40F2015009F092FB40F21970F6
:100CB00009F08EFB40F20E7009F08AFB40F20F70D3
:100CC00009F086FB40F20B6009F082FB40F20960FC
:100CD00009F07EFB40F20A6009F07AFB40F20F60F7
:100CE00009F076FBBDE8084040F2117009F070BBD6
:100CF00070B508F00DFAFFF7BDFF00F001FB03F03F
:100D000099FB03F003FB00F00DFD03F0B1FA03F0D3
:100D1000D7FA00F0A1FB00F08BFC04F04FFDC748B0
:100D20000BF010FDC6480BF00DFD0123002202213F
:100D3000C4480BF09FFCC448062107F0BBFFC24823
:100D400008F0B2F8002800F0B481C04DC04C6B69C7
:100D5000D4ED027A013304BF00236B612B690133A8
:100D600008BF0023F4EE677A08BF2B61F1EE10FA9A
:100D700080F19C81BFEE007AF4EE477AF1EE10FA32
:100D800000F09481D4ED037AF4EE677AF1EE10FA74
:100D900080F18981BFEE007AF4EE477AF1EE10FA25
:100DA00000F08181D4ED067AF4EE677AF1EE10FA64
:100DB00080F17681BFEE007AF4EE477AF1EE10FA18
:100DC00000F06E816B68D4ED077A013304BF012314
:100DD0006B60AB68013304BF0023AB60EB68013389
:100DE00008BF40F6B833F4EE677A08BFEB60F1EE67
:100DF00010FA80F15281BFEE007AF4EE477AF1EEFC
:100E000010FA00F04A81D4ED087AF4EE677AF1EE38
:100E100010FA80F13F81BFEE007AF4EE477AF1EEEE
:100E200010FA00F03781D4ED097AF4EE677AF1EE2A
:100E300010FA80F1FF80BFEE007AF4EE477AF1EE0F
:100E400010FA00F0F780D4ED127AF4EE677AF1EE42
:100E500010FA80F1EC80BFEE007AF4EE477AF1EE02
:100E600010FA00F0E480D4ED0A7AF4EE677AF1EE3D
:100E700010FA80F1D980BFEE007AF4EE477AF1EEF5
:100E800010FA00F0D180D4ED117AF4EE677AF1EE29
:100E900010FA80F1C580BFEE007AF4EE477AF1EEE9
:100EA00010FA00F0BD80D4ED0E7AF4EE677AF1EE20
:100EB00010FA80F1B180BFEE007AF4EE477AF1EEDD
:100EC00010FA00F0A980D4ED177AF4EE677AF1EE0B
:100ED00010FA80F19E80BFEE007AF4EE477AF1EED0
:100EE00010FA00F09680D4ED187AF4EE677AF1EEFD
:100EF00010FA80F18B80BFEE007AF4EE477AF1EEC3
:100F000010FA00F08380D4ED147A5248524EF4EE79
:100F1000677AD4ED137AF1EE10FA64BF4F4B236574
:100F2000F4EE677AD4ED167AF1EE10FA64BF4C4B0A
:100F3000E364F4EE677AD4ED157AF1EE10FA64BF4B
:100F4000484BA365F4EE677AF1EE10FA64BF464BA6
:100F5000636505F05DFC00214FF4CE6243480BF061
:100F600012FC6A69A36AC6F8382464202A69C6F8A4
:100F70003424C6F818323E4D08F0ECF864213046AF
:100F800007F0BAFB3B494FF4007206F23C400BF00D
:100F900047FC95E8070004F007FB002840F0998023
:100FA000354800F0DFFB354800F0F6FB0022114623
:100FB000282009F0BBF901220021142009F0B6F91C
:100FC00000220121192009F0B1F900220221262076
:100FD00009F0ACF92A4B062101221980DA7008F0D9
:100FE000D7F800286DD1002408F0F4F801F008F9D2
:100FF0004FF47A7008F0AEF8AB880134002BF3D0D0
:1010000095E80700234604F0E5F9EDE71D4B23665C
:1010100079E71D4BE36566E74FF07E53A36352E724
:101020004FF07E5363643EE7184BA3622BE7154BEA
:10103000A36418E7164B636205E700BF78F9000860
:1010400084F90008A4F9000880400020984000209E
:10105000984400207C3D0020F83600200000C84263
:101060000000C8C200008242000082C2442E00205C
:10107000EC360020B0400020E8010020FC010020F8
:10108000683D00200000A0400000FA430000A84195
:1010900000006041114B2362C5E60023E361B2E624
:1010A0000023A3618EE60E4BE3607BE60D4BA3604D
:1010B00068E60D490D4800F02FFC0D480BF042FB8F
:1010C00043E64FF4007000F047F80A480BF03AFB93
:1010D00089E709480BF036FB62E700BF0000FA42DF
:1010E0000000204200007A449844002098400020EC
:1010F000C0F9000858FA000810FA000808B51448AA
:101100004FF4006109F08AF81248002109F090FBC1
:10111000002211460F4809F023FD0E48002201214C
:1011200009F01EFD0B480022022109F019FD0022E2
:101130001146084809F0B6FC06480022012109F0D2
:10114000B1FCBDE8084003480022022109F0AABC16
:1011500000080140002C0140024A13680343136059
:10116000FFF7CCBF98450020014B1868704700BFBF
:1011700098450020024A136823EA00031360704771
:1011800098450020036813F0010204D00A7D002A6C
:1011900043D14FF4804213F0020F06D091F815C0EE
:1011A000BCF1000F0AD142F400425B0704D58B7DED
:1011B000002B74D142F480321046704790ED027AD1
:1011C000DFED4E7AF0EEC76AF4EE676AF1EE10FAE0
:1011D000E9D8D0ED036AB0EEE66AB4EE676AF1EEE4
:1011E00010FAE0D8B5EEC07AF1EE10FADBD9B4EE21
:1011F000E67AF1EE10FAD6DA91ED036AF0EEC65A0D
:10120000F4EE675AF1EE10FACDD8B4EEC67AF1EEEC
:1012100010FA69DD42F40062C7E7D0ED017A9FED74
:10122000377AF0EEE76AF4EE476AF1EE10FAB0D8DA
:10123000F5EEC07AF1EE10FAABD9D1ED006AF0EE1E
:10124000E66AF4EE476AF1EE10FAA2D891ED016A6F
:10125000B0EEC66AB4EE476AF1EE10FA99D8D1ED55
:10126000025AF0EEE55AF4EE475AF1EE10FA90D831
:10127000B4EEE66AF1EE10FAD8BFB0EE666AF4EEAC
:10128000C65AF1EE10FAD8BFF0EE465AF4EEE57AFF
:10129000F1EE10FA4CBF0122002292027BE7D0ED62
:1012A000047A9FED167AF0EEE76AF4EE476AF1EE03
:1012B00010FA3FF67FAFF5EEC07AF1EE10FA7FF646
:1012C00079AFD1ED046AB0EEE66AB4EE476AF1EEAA
:1012D00010FA3FF66FAFF4EEE67AF1EE10FA7FF512
:1012E0006BAF42F4005267E7F4EEC66AF1EE10FA13
:1012F0007FF55BAF42F4805257E700BFFFFF7F7F6F
:1013000010B55048012108F09DFF4F48012108F019
:1013100099FF4E484FF4A0530122182108F026FFF0
:101320004A484FF400630122042108F01FFF4FF4E4
:10133000004301224648102108F018FF44484FF4AA
:10134000004108F069FF43484FF42043012218216F
:1013500008F00CFF3F484FF480430122482108F079
:1013600005FF4FF4805301223A48102108F0FEFE99
:1013700038484FF4805108F04FFF35484FF4006370
:101380000222102108F0F2FE4FF48053032230486D
:10139000042108F0EBFE2E484FF4006108F03EFFF8
:1013A0002B484FF4E0630322182108F0DFFE2748A2
:1013B00003230422002108F0D9FE26480123042239
:1013C000002108F0D3FE21480C230422002108F05C
:1013D000CDFE1F48F0230422002108F0C7FE1B4861
:1013E00030230422002108F0C1FE4FF400530222F2
:1013F0001648102108F0BAFE14484FF4005108F0C6
:101400000DFF134804230122182108F0AFFE082322
:1014100001220F48042108F0A9FE01214FF4EA102F
:1014200008F010FF0B484FF480730222482108F0A7
:101430009DFEBDE8104007484FF4007303221821B9
:1014400008F094BE0010200000023000001001409F
:1014500000080140000C014070B5704888B00021C0
:1014600008F0F0FB6E4A6F4B0192002404250393B1
:101470004FF400724FF400634FF4807602920493AD
:101480000DEB05024FF4805321466448ADF81C6013
:10149000CDE905538DF81E4008F0F2FB21465F4868
:1014A00008F02CFC21465D4808F03AFC5E4808F044
:1014B00023F85E4808F020F84FF4803008F06AF80E
:1014C00031465948012208F075F822465648022153
:1014D00008F070F831465548012208F06BF82246B2
:1014E0005248022108F066F821464F4808F08AF871
:1014F0002A464D48012108F08FF801224A4802216E
:1015000008F08AF82146494808F07CF82A464748FE
:10151000012108F081F845480122022108F07CF8F9
:10152000234621464048062208F094F823463E48C8
:101530000F22012108F08EF823463B4807220221A2
:1015400008F088F8234638480822032108F082F87A
:10155000234621463548052208F07CF823463348C7
:101560000E22012108F076F823462A462F48022150
:1015700008F070F823462D480C22032108F06AF881
:1015800029484FF46022012108F010F90122114688
:10159000254808F0EFF825484FF46022012108F0B3
:1015A00005F901221146214808F0E4F823462146B6
:1015B0001D480B2208F0A6F8234621461B480A22A4
:1015C00008F0A0F822461848022108F0EFF8164863
:1015D0000122022108F0CEF822461448022108F028
:1015E000E5F801220221114808F0C4F80E4807F07E
:1015F000CBFF0E4807F0C8FF0B4807F0ABFF0B48C6
:1016000007F0A8FF012007F0A5FD074807F0AAFF93
:10161000064807F0A7FF08B070BD00BF00000240F9
:101620004C240140A0450020002401400028014036
:1016300070B5384888B0042108F004FB3649374AB1
:1016400001914FF48063012400254FF480760392CA
:10165000049301AA4FF480532E4806930421ADF859
:101660001C6002968DF81E50059408F009FB29486D
:10167000042108F043FB0421264808F051FB2848C8
:1016800007F03AFF22463146254807F093FF2A46E5
:101690002348022107F08EFF2946214807F0B2FFB8
:1016A000224621461E4807F0B7FF22461C48022169
:1016B00007F0B2FF0523294619480D2207F0CAFF9B
:1016C000214617484FF4602208F070F82246214660
:1016D000134808F04FF80523294611480D2208F059
:1016E00011F82A460E48022108F060F8224602212D
:1016F0000B4808F03FF80A4807F046FF084807F093
:1017000029FF204607F026FD054807F02BFF08B00B
:1017100070BD00BF000402404C3C01409C450020CD
:10172000003C014000B585B001A9002008F094F804
:101730000A4808F07FF80A484FF48072CDE90102A8
:101740004FF4802301A90548039308F0B7F8034834
:10175000022108F073FA05B000BD00BF006400402C
:101760000000090300B5014687B0032008F074F8B3
:1017700001A9012008F070F800234FF48031012204
:1017800001A8CDE90133CDE903318DF8142008F02B
:1017900027F907B000BD00BF00B583B00146019036
:1017A000022008F059F8054A019990680860002362
:1017B00006228A724B600B8103B000BD9840002066
:1017C000F0B52DED028B1C4D83B00446F0EE608A1F
:1017D000B0EE418AD5ED130A95ED141A019110204F
:1017E00006F000FE95ED161AD5ED150A0746B0EE87
:1017F000680A0C2006F0F6FDD5ED030AD5ED0E7A49
:1018000060EEE70A0646B0EE480AB1EE601A0C2018
:1018100006F0E8FD03120199E17203EB06137ABAB0
:101820003111E3730023A173A28120746374A37444
:1018300003B0BDEC028BF0BD9844002084B0F0B53D
:101840002DED028B83B00AAC84E80F009DF8363092
:101850009DF835709DF839209DF83760BDF833004C
:101860002B4C9DF838E09DF83A10D4ED140A94ED15
:10187000130A0F9D9FED278A4FEA032C1B0943EAA9
:1018800007170CF470631E43130240BA120903F4E5
:1018900070630B4342EA0E1280B210210092019352
:1018A00006F0B4FD85ED000AD4ED160A94ED150A94
:1018B00038460C2106F0AAFD85ED010AD4ED170A81
:1018C0003046B0EE480A0C2106F0A0FD85ED020A74
:1018D000D4ED180A00980C21B0EE480A06F096FDE7
:1018E00085ED030A94ED030AD4ED0E7A019820EEFB
:1018F000670A0C21F1EE400A06F088FD85ED040A26
:1019000003B0BDEC028BBDE8F04004B0704700BFEF
:10191000984400200000000070B54FF480620C462F
:10192000002105460AF02FFF4FF480720021204667
:101930000AF029FF01260022C5E904222A60AA60D4
:10194000C5F818226E6000231A4ADFED1B5A9FED7E
:101950001B6ADFED1B6A9FED1B7ADFED1B7ADFF858
:1019600078E0DFF878C0194840F6B836EE604FF0FE
:101970007E51A361E3616363E3632364A26422662F
:101980006366134AA366E3662367124BC4ED025AEB
:1019900084ED036AC4ED086A84ED137AC4ED147A09
:1019A000C4F854E0C4F858C0A1636164E0656262A1
:1019B000A36270BD0000A04000007A4400002042F5
:1019C0000000FA420000C8C20000C8420000FA430A
:1019D000000060410000A841000082C20000824275
:1019E00070B50E461E49A0F1040E00F57F754FF04C
:1019F000FF305EF8044F4FF0000C24FA0CF3DBB21A
:101A00005840082240F300030B40013A83EA50009B
:101A1000F8D10CF1080CBCF1200FEED17545E8D1DE
:101A20000F49B64606F58075DEF800404FF0000C11
:101A300024FA0CF3DBB25840082240F300030B40B9
:101A4000013A83EA5000F8D10CF1080CBCF1200FE8
:101A5000EED10EF1040EAE45E6D1C04370BD00BF1D
:101A60002083B8ED0368012B00F2BF824368B3F511
:101A7000006F80F0BA828268B2F5006F80F0B582A4
:101A800023F0800340F2017C634500F0AE8222F037
:101A90008002624500F0A982C368E14A013B93429B
:101AA00000F2A3820369DFF8A0C34FF6FF7213446C
:101AB000634500F29A8243691A44624500F29582B6
:101AC000D0F81832072B00F29082D1ED027A9FED08
:101AD000E37AF0EEE76AF4EE476AF1EE10FA00F20C
:101AE00084829FEDDB7AF4EEC77AF1EE10FAC0F251
:101AF0007C829FEDCC7AF4EEC77AF1EE10FA00F218
:101B00007482D1ED037ADFEDD56AB0EEE77AB4EEF8
:101B1000667AF1EE10FA00F268829FEDC37AF4EE75
:101B2000C77AF1EE10FAC0F260829FEDCA7AF4EE45
:101B3000C77AF1EE10FA00F25882D1ED062AB0EE23
:101B4000E27AB4EE667AF1EE10FA00F24E82F5EE29
:101B5000C02AF1EE10FAC0F248829FEDB47AF4EE9A
:101B6000C72AF1EE10FA00F2408291ED077AB0EE4A
:101B7000C76AB4EE666AF1EE10FA00F23682B5EE8C
:101B8000C07AF1EE10FAC0F23082DFEDB16AB4EE45
:101B9000E67AF1EE10FA00F2288291ED087ADFED94
:101BA000AF6AB0EEC76AB4EE666AF1EE10FA00F200
:101BB0001C82B7EE006AB4EEC67AF1EE10FAC0F2FB
:101BC0001482DFEDA75AB4EEE57AF1EE10FA00F2D6
:101BD0000C8291ED093AB0EEC37AB4EE667AF1EE7A
:101BE00010FA00F202829FED907AB4EEC73AF1EE5D
:101BF00010FAC0F2FA819FED8E7AB4EEC73AF1EE98
:101C000010FA00F2F28191ED0A7AF0EEC75AF4EE82
:101C1000665AF1EE10FA00F2E881B4EEC67AF1EEFF
:101C200010FAC0F2E281DFED836AB4EEE67AF1EEFB
:101C300010FA00F2DA81D1ED0D6A9FED887AB0EEEC
:101C4000E66AB4EE476AF1EE10FA00F2CE81F5EEE4
:101C5000C06AF1EE10FAC0F2C8819FED7D6AF4EE21
:101C6000C66AF1EE10FA00F2C081D1ED0E6AB0EE54
:101C7000E66AB4EE476AF1EE10FA00F2B6819FED23
:101C80006E6AF4EEC66AF1EE10FAC0F2AE81B2EE00
:101C9000046AF4EEC66AF1EE10FA00F2A681D1ED04
:101CA0000F6AB0EEE66AB4EE476AF1EE10FA00F29F
:101CB0009C81F5EEC06AF1EE10FAC0F296819FEDBC
:101CC000636AF4EEC66AF1EE10FA00F28E81D1ED8D
:101CD000106AB0EEE66AB4EE476AF1EE10FA00F26E
:101CE0008481F5EEC06AF1EE10FAC0F27E819FEDBC
:101CF000537AF4EEC76AF1EE10FA00F27681D1ED74
:101D0000116A9FED567AB0EEE66AB4EE476AF1EEDC
:101D100010FA00F26A819FED4A6AF4EEC66AF1EEAB
:101D200010FAC0F262819FED496AF4EEC66AF1EEE4
:101D300010FA00F25A81D1ED126AB0EEE66AB4EE02
:101D4000476AF1EE10FA00F250819FED376AF4EE27
:101D5000C66AF1EE10FAC0F24881B3EE046AF4EEFE
:101D6000C66AF1EE10FA00F24081D1ED133AF0EEBE
:101D7000E36AF4EE476AF1EE10FA00F236819FED65
:101D8000317AF4EEC73AF1EE10FAC0F22E81F5EE98
:101D9000C03AF1EE10FA00F2288191ED144A9FED5D
:101DA0002F7AF0EEC46AF4EE476AF1EE10FA00F210
:101DB0001C81B5EEC04AF1EE10FAC0F21681DFEDDB
:101DC000236AB4EEE64AF1EE10FA00F20E81D1ED8C
:101DD000154AB0EEE46AB4EE476AF1EE10FA00F28A
:101DE00004819FED186AF4EEC64AF1EE10FAC0F2D3
:101DF000FC80F5EEC04AF1EE10FA00F2F68091EDAB
:101E0000165AB0EEC56AB4EE476AF1EE10FA00F267
:101E1000EC80B5EEC05AF1EE10FAC0F2E68021E097
:101E20009F8601000000FA44CDCCCC3D0000044266
:101E3000000020420000804217B7D1380050C3474D
:101E40006F12833A00007AC4FEFF010000007A445A
:101E50000000C8420000704200004843FFFF7F7F3F
:101E600000001643B4EEE65AF1EE10FA00F2BD801F
:101E700091ED177A1FED076AF0EEC76AF4EE466A35
:101E8000F1EE10FA00F2B180B5EEC07AF1EE10FA80
:101E9000C0F2AB805FED136AB4EEE67AF1EE10FAB1
:101EA00000F2A38091ED187AF0EEC76AF4EE466A6C
:101EB000F1EE10FA00F29980B5EEC07AF1EE10FA68
:101EC000C0F293805FED1E6AB4EEE67AF1EE10FA8E
:101ED00000F28B80D1ED196AB0EEE67AB4EE467A64
:101EE000F1EE10FA00F28180F5EEC06AF1EE10FA20
:101EF0007BDB1FED287AF4EEC76AF1EE10FA74D896
:101F000091ED1A7AF0EEC75AF4EE465AF1EE10FA55
:101F10006BD8B5EEC07AF1EE10FA66DB1FED326ACF
:101F2000B4EEC67AF1EE10FA5FD8D1ED1B5A1FED70
:101F3000352AF0EEE51AF4EE421AF1EE10FA54D812
:101F4000F5EEC05AF1EE10FA4FDBF4EEC65AF1EEA0
:101F500010FA4AD891ED1C6AF0EEC61AF4EE421A55
:101F6000F1EE10FA41D8B5EEC06AF1EE10FA3CDBA2
:101F70001FED452AB4EEC26AF1EE10FA35D8F4EE40
:101F8000E27AF1EE10FA30DBF4EEC37AF1EE10FAF9
:101F90002BDBF4EEC43AF1EE10FA26D5F4EEC54A86
:101FA000F1EE10FA21D5D90709D5F5EEC06AF1EEA8
:101FB00010FA1ADDF4EEE67AF1EE10FA15DB9A0764
:101FC00009D5B5EEC07AF1EE10FA0EDDB4EEE57A81
:101FD000F1EE10FA09D55B0709D5B5EEC06AF1EE4E
:101FE00010FACCBF0120002070470020704701206C
:101FF000704700BF30B5DFF83CC083B06045069D38
:10200000079C02D0002003B030BD0229FAD1B2F5FE
:10201000A07FF7D1214628460193FFF7E1FC019B01
:102020009842EFD12146284603B0BDE83040FFF783
:1020300019BD00BF4154484E401A0028D4BF0020AB
:102040000120704740B12AB15B1A002BD4BF002099
:10205000012070471046704782420CBF4FF0FF309E
:102060000120704711B10AB1082B01D00020704740
:10207000009BC01AB3F5006FB0FA80F04FEA501021
:1020800028BF0020704700BF431E00F1060C13F864
:10209000012FFF2A09D16345F9D1C279131DDBB2A3
:1020A000022B02D80A70012070470020704700BF41
:1020B00038B5C0F30D0444F4804440F44045204654
:1020C0000DF07AFB002814BF2846204638BD00BF1B
:1020D000084310B5C0F30D0420460DF06DFB44EA33
:1020E000C03080B210BD00BF10B504460DF064FBD7
:1020F00028B914F4804F18BF6FF0010010BD4FF0E5
:10210000FF3010BDC0F30D00C1F30D01401AB0F552
:10211000005F03DDA0F5804000B2704710F5005F5E
:10212000B8BF00F5804000B2704700BF0378A52B10
:1021300029D143785A2B26D18378012B23D110B58E
:1021400083790C46CBB9DFF84CE0421E811D002399
:1021500012F801CF83EA0C0391421EF80330F7D145
:10216000C2799A4212D1C37823700379637043799C
:10217000A3708379E370002010BDC378072BE2D0F1
:102180004FF0FF3010BD4FF0FF3070476FF001008F
:1021900010BD00BF60F8000890F800C06CF07F0C24
:1021A00083F800C090F801C083F801C0807898706F
:1021B0004FEA122CD970100C110E1A7183F805C059
:1021C0009871D971704700BF08B5084908484FF4A5
:1021D00080620AF025FB4FF48072064906480AF037
:1021E0001FFB064B01221A7008BD00BF984000205B
:1021F000BC46002098440020BC450020B845002083
:1022000030B5294D2B7883B00BB903B030BD2749C9
:1022100027484FF480620AF003FB264926484FF412
:1022200080720AF0FDFA254B4FF000744FF48011D4
:10223000C3F88040C3F88010C3F88041C3F8801110
:10224000BFF34F8FBFF36F8F05F0AEF91B4B4FF409
:102250008011C3F880410246C3F880111C601960E8
:10226000BFF34F8FBFF36F8F58B91548154B2A70C6
:102270001A7015490270154A02230B70137003B0CF
:1022800030BD0190124806F00FFE019A0E4900235E
:102290002B70531D022B0D4B4FF0030094BF524285
:1022A000072208701A70B0E7B5450020BC46002030
:1022B00098400020BC4500209844002000E100E048
:1022C000B7450020B8450020B6450020B4450020A1
:1022D00080400020164B1B7803B9704730B5154C71
:1022E000237883B0DBB2CDE90031054606F04AFF22
:1022F000009B114A019903EB430C4FEA8C0E01330A
:1023000042F80E0002EB8C0203F01F030B4815711C
:102310009160237003781F2B04D803780133037076
:1023200003B030BD064A13680133136003B030BDFB
:10233000C24A0020C14A0020C44A0020C04A0020EE
:10234000BC4A00202DE9F0419A4C0168236840F214
:102350000172013391428AB0236006D1037A23B916
:10236000437A13B9827A082A05D0A3680133A3609F
:102370000AB0BDE8F08104A90B300193FFF7D6FE47
:1023800018B1E3680133E360F2E706F0FBFE8A4927
:10239000019B0A68821A132A84463CD96268086045
:1023A000013262609DF81020062A00F0ED81072AB4
:1023B00039D0022A00F0DA81012A00F04B82032A88
:1023C00000F0F981002A00F0EF8104232169013136
:1023D0000022216105A90220CDE9012307F03CFA82
:1023E00000230693ADF81C3040F281730593082357
:1023F000DDE9012104A88DF81E300DF11F03FFF760
:10240000CBFE6E4805A907F065FB032807D0A3693A
:102410000133A361ACE7636901336361A8E7E36952
:102420000133E361A4E79DF81220A2F12001C9B2B3
:10243000672940F2548402F17001C9B2672940F261
:102440008E84F72A00F27A84013A122ABDD8DFE896
:1024500012F03D0135012D01EE00E600C7009A00A3
:1024600082006D00D1005700420013001300760176
:102470005F014401130013009DF81320504B013AF3
:10248000D2B21B78132A94BF00220122022B18BF5C
:1024900042F00202019202F0EDFD019A08B942F009
:1024A00004020192FEF760FE019A08B142F00802B0
:1024B000444B93F8F532002B40F0F78442F01002C1
:1024C000019203F053FC019A002800F0D18542F0FC
:1024D000200202237EE73C489DF8132001788A42BF
:1024E00080F067813949097800782031091A0A4457
:1024F000374902F01F020C2000FB0212926869E7C4
:1025000031489DF8132001788A4280F052812F498A
:10251000097800782031091A0A442D4902F01F0277
:102520000C2000FB02121279D2B253E72749264849
:1025300000220A70274902700A60274A1278007840
:1025400042EA00220868B0F5803F36BF0968234997
:1025500009040A433EE720484FF0000C80F800C011
:102560000278002A40F08984174A1A4900781278C4
:1025700040EA02220868B0F5803F36BF0968174973
:1025800009040A4326E71448012202700278002A4F
:1025900040F07E840C4A0F490078127840EA02220B
:1025A0000868B0F5803F36BF09680C4909040A4342
:1025B00010E700BF4C4C0020B045002000640040F4
:1025C000683D00207C3D0020C04A0020C14A002018
:1025D000C44A0020BC4A0020C24A00200000FFFF7D
:1025E000A648028802B31B21019305F009FE019B56
:1025F0000122EFE6A2489DF8132001788A4280F07C
:10260000D880A049097800782031091A0A4402F0DC
:102610001F020C209C4900FB02F28A58DAE6974A16
:102620001188002900F0AB8502230022D2E69DF834
:102630001320013AD2B2132AF6D8904A1288002AFF
:10264000F2D10193FEF790FD0028EDD18F4A9288D8
:10265000002AE9D18E4A92F83D26002AE4D08D4A1C
:1026600092F8F522002ADFD000F180404FF480512B
:1026700000F5843007F0DAFD0028D5D09DF813303E
:102680009FED857A854A7D4807EE903AF8EE677AA5
:10269000632167EE877AC2ED127A05F0B1FD9DF8ED
:1026A0001320019B642101FB02F293E6734801931E
:1026B000652105F0A5FD019B03228BE66F48019380
:1026C0006D2105F09DFD019B022283E66B4801937D
:1026D0001B2105F095FD019B8AE7684B1B78022BB7
:1026E000A2D102F0C7FC00289ED0FEF73DFD0028D5
:1026F0009AD103F03BFB002896D103F013F9002890
:1027000092D1019003F0D6F8019B4FF47A7261E602
:1027100001939DF81330DFED620A5E4A07EE903AAE
:10272000F8EE677A92ED1E0A67EEA00A03F0E4FA6B
:1027300000283FF479AF9DF81320019B4AE60193EE
:102740009DF81330534A9FED560AD2ED200A07EE4A
:10275000903AF8EE677A27EE800A03F0CDFA002867
:102760003FF462AF9DF81320019B33E69DF8120001
:1027700000F16002D2B23B2A00F2A480019303F080
:10278000FBFA019B024625E6464A9DF81110464C8D
:10279000464B11704648C4F800C001224FF4006156
:1027A0001A7007F039FDE3E59DF81220002A00F0C9
:1027B000FD8201230AE69DF812100F29F9D801A223
:1027C00052F821F04F2800084B280008472800083D
:1027D000432800083F2800083B2800083728000845
:1027E00033280008B32700082B28000823280008F6
:1027F0001B280008132800080B280008B32700082E
:10280000052800082B4A1268E4E5214AD2F8682618
:10281000E0E51F4AD2F86426DCE51D4AD2F86026BE
:10282000D8E51C4AD2F8FC22D4E5194AD2F85C2635
:10283000D0E5E269CEE5A269CCE56269CAE5226924
:10284000C8E5E268C6E5A268C4E56268C2E5226838
:102850000B46BFE59DF81220042AAAD8DFE802F053
:102860000A0705030C00144AB4E50F22B2E54FF441
:102870008032AFE5114AADE5114AABE5683D002075
:10288000C04A0020C14A0020C44A0020EC36002083
:10289000F83600207C3D0020CDCCCC3D9844002073
:1028A0006F12833A484C0020444C0020494C0020D1
:1028B000000801406C4C002001D1E0A74154484E73
:1028C00001E80300FF283FF674AF01A252F820F0A0
:1028D000733100084D2F00083F2F0008C12F00085A
:1028E0006F2F0008652F00085B2F0008B327000832
:1028F000B3270008653100085D3100085531000834
:10290000473100083331000825310008153100082F
:102910000B31000801310008ED300008D930000803
:10292000B3270008B3270008B3270008B32700081F
:10293000CB300008AD300008A53000089730000803
:10294000AD300008CB300008A5300008B3270008E0
:10295000B3270008B3270008B3270008B3270008EF
:10296000B3270008B3270008B3270008B3270008DF
:10297000B3270008B3270008B3270008B3270008CF
:10298000B3270008B3270008B3270008B3270008BF
:10299000B3270008B3270008B3270008B3270008AF
:1029A000B3270008B3270008B3270008B32700089F
:1029B000893000089D370008CB3000088F370008A9
:1029C0008137000871370008613700085137000867
:1029D0004137000831370008213700081137000857
:1029E000CB360008BB360008AB3600089B36000823
:1029F0008B3600087B3600086B3600085B36000813
:102A00004B3600083B3600082B3600081B36000802
:102A10000B360008FB350008D73500084B35000899
:102A200005350008CF34000861340008D9330008A8
:102A3000C5330008B1330008893F00080F3F000884
:102A4000B93E0008833E0008493E0008193E0008D0
:102A5000033E0008FB3D00080B410008E940000868
:102A600025400008EF3F0008A34000086D40000823
:102A7000B13D00087B3D0008253D0008EF3C000803
:102A8000BF3C0008A33C00084D3C0008173C000870
:102A9000FD3B0008F53B0008AF3B0008913B0008F8
:102AA00065310008733B00083B3B00080D3B000804
:102AB000A13A00088F3A0008232800087F3A00084E
:102AC000053A0008F5390008E5390008D53900084D
:102AD000C5390008B5390008A5390008953900083E
:102AE000453A0008353A0008253A0008153A00082A
:102AF0005F3A0008553A00084D39000817390008B8
:102B0000C13800088B3800087B3800086B38000893
:102B10005B3800084B3800083B3800082B380008A9
:102B20001B3800080B380008FB370008EB3700089B
:102B3000DB370008CB370008BB370008AB3700088D
:102B4000A133000891330008813300087133000875
:102B5000B3270008B3270008B3270008B3270008ED
:102B6000B3270008B3270008B3270008B3270008DD
:102B7000B3270008B3270008B3270008B3270008CD
:102B8000B3270008B3270008B3270008B3270008BD
:102B9000B3270008B3270008B3270008B3270008AD
:102BA000B3270008B3270008B3270008B32700089D
:102BB000B3270008B3270008B3270008B32700088D
:102BC000B3270008B3270008B3270008B32700087D
:102BD000B3270008B3270008B3270008B32700086D
:102BE000B3270008B3270008B3270008B32700085D
:102BF000B3270008B3270008B3270008B32700084D
:102C0000B3270008B3270008B3270008B32700083C
:102C1000B3270008B3270008B3270008B32700082C
:102C2000B3270008B3270008B3270008B32700081C
:102C3000B3270008B3270008B3270008B32700080C
:102C40006133000851330008413300083133000874
:102C50002133000811330008D5320008C5320008BE
:102C6000B5320008A5320008953200088532000808
:102C700075320008653200085532000845320008F8
:102C800035320008253200081532000805320008E8
:102C9000F5310008E5310008D5310008C5310008DC
:102CA000B5310008A53100082F2F0008D12C0008ED
:102CB000D12C0008D12C0008D12C0008D12C000800
:102CC000D12C0008D12C0008D12C0008D12C0008F0
:102CD000019302F02DFE019B0246FFF77BBBA64B42
:102CE0001A7802F0FF03002A7FF49EACA348007814
:102CF0008A0801F0030138B9CDE902130192FFF708
:102D000063FADDE90213019A9D4810F812C000EB46
:102D1000420E9EF80100BCF1000F40F0A580DFF8E4
:102D200068C20CEB80009DF813C000F801C0954804
:102D300041EA022201210170FFF74CBBFB2A2BD094
:102D4000FC2A2ED0F82A34D0F92A49D0FA2A7FF466
:102D500030AD8A4900220A708A490A7048E4874ADD
:102D60001278880801F003013AB9CDE90213019005
:102D7000FFF72AFADDE902130198814A02EB400CC1
:102D800012F810009CF80120002872D17E4800EB58
:102D90008202525CFFF71EBB7C4A1278D2B2FFF768
:102DA00019BB7B4A1278D2B2FFF714BB794AFFF7FE
:102DB00011BB724A12781AB90193FFF705FA019B09
:102DC000754971480193FEF74DFE00283FF4F1ACC0
:102DD00071496D48FEF704FE019B0246FFF7FABAFF
:102DE0006E4A1288002A7FF41FAC0193FEF7BCF9EB
:102DF00000287FF419AC6A4A9288002A7FF414AC48
:102E0000604A1278002A3FF40FAC5B4B1A78002A14
:102E10007FF40AAC594A019B127812B9FFF7D4F932
:102E2000019B5D4958480193FEF71CFE00283FF4C2
:102E3000C0AC514B554901221A700A7054490A70AE
:102E4000584A4FF000704FF48011C2F88000C2F869
:102E50008010C2F88001C2F88011BFF34F8FBFF31A
:102E60006F8F019BFFF7C4BBDFF82CC10CEB800018
:102E700059E7494800EB82028BE74B4A4B4982F8FD
:102E800000C04B4A82F800C0C1F800C0FFF76EBB1B
:102E9000474A4649444D4FF0000C85F800C082F87F
:102EA00000C0C1F800C0FFF777BB019202F05EFFDF
:102EB000019A034600287FF40AAB002A40F0E18023
:102EC0009DF813109DF81220DFED3A7A00EE101AEB
:102ED000A2F112010129B8EE400A40F2CC800D2A7D
:102EE00020EE270A40F0C9800120019302F0CEFDB8
:102EF0009DF813309DF8122007EE903A123AD2B2A4
:102F0000012AF8EE677AB7EE007AFFEE006A98BF02
:102F1000B0EE667A67EE877A9FED277A019B67EEBF
:102F2000877AFDEEE77A17EE902AFFF753BAF6207C
:102F3000019302F021FF019B0246FFF74BBA019378
:102F4000FEF712F9019B0246FFF744BA019306F01F
:102F500019F9019B0246FFF73DBA184AD2F8302210
:102F6000FFF738BA154AD2F82822FFF733BA134AC6
:102F7000D2F84026FFF72EBAB5450020B84500200C
:102F800078040108B7450020BC460020B645002063
:102F9000B44500204154484EBC450020683D002007
:102FA000EC36002000E100E0C14A0020BC4A0020CD
:102FB000C04A0020CDCCCC3D0000C842F8360020ED
:102FC0004FF48051C748019307F030F94FF4006186
:102FD0000646C44807F030F9031EC348C349D0F879
:102FE000442CC2F3C035D1F81824D1F818E4D1F834
:102FF0001814C1F3800CD0F8201C4FEA42124FEA9B
:10300000012101F4807102F0200242EA0102B84974
:1030100091F83D1618BF0123003918BF012142EA7B
:10302000430242EAC102B349019B91F8F51200390B
:1030300018BF012142EA0112CEF3400E42EA850296
:1030400042EA8E1242EACC12D0F820CCD0F8201CF2
:10305000CCF3001042EA4022C1F3002142EA81226F
:10306000002E08BF42F0010242F00042FFF7B2B961
:103070000223FFF7AFB920EE670A123A50425041DF
:1030800033E70223FFF7A6B9019301F08FFD019BFF
:103090000246FFF79FB9019301F0ECFF019B024646
:1030A000FFF798B940F21542FFF794B9924A9FEDA5
:1030B000937AD2ED037A9249924AB4EEE77AF1EE2E
:1030C00010FAB8BF0A46FFF785B9019301F07AFDFF
:1030D000019B0246FFF77EB98349D1F83C2CD1F819
:1030E0002C1C92B242EA0142FFF774B97E49D1F832
:1030F000342CD1F8381C92B242EA0142FFF76AB987
:103100007C4AD2F8B420FFF765B9784AD2F818247F
:10311000FFF760B9764991F83E268AB1D1F8462684
:10312000FFF758B9784AD188128942EA0142FFF77D
:1031300051B9754A5188928842EA0142FFF74AB96B
:103140000323FFF747B9704A5189128842EA0142C6
:10315000FFF740B96C4AD268FFF73CB9654A128A5A
:10316000FFF738B963490A89C96842EA0142FFF7A3
:1031700031B9604A0346D2F8F822FFF72BB9019320
:10318000FDF7F2FF00287FF44FAA594991F83D1648
:1031900000293FF449AA5D487A2105F031F8019BE6
:1031A000FFF726BAF520019302F0E6FD019B0246E7
:1031B000FFF710B9F420019302F0DEFD019B0246F7
:1031C000FFF708B9F320019302F0D6FD019B0246F8
:1031D000FFF700B9F220019302F0CEFD019B0246F9
:1031E000FFF7F8B8F120019302F0C6FD019B0246FB
:1031F000FFF7F0B8F020019302F0BEFD019B0246FC
:10320000FFF7E8B8EF20019302F0B6FD019B0246FC
:10321000FFF7E0B8EE20019302F0AEFD019B0246FD
:10322000FFF7D8B8ED20019302F0A6FD019B0246FE
:10323000FFF7D0B8EC20019302F09EFD019B0246FF
:10324000FFF7C8B8EB20019302F096FD019B024600
:10325000FFF7C0B8EA20019302F08EFD019B024601
:10326000FFF7B8B8E920019302F086FD019B024602
:10327000FFF7B0B8E820019302F07EFD019B024603
:10328000FFF7A8B8E720019302F076FD019B024604
:10329000FFF7A0B8E620019302F06EFD019B024605
:1032A000FFF798B8E520019302F066FD019B024606
:1032B000FFF790B8E420019302F05EFD019B024607
:1032C000FFF788B8E320019302F056FD019B024608
:1032D000FFF780B8E220019302F04EFD019B024609
:1032E000FFF778B80008014000200140006000406E
:1032F000F83600207C3D0020984400200000204249
:10330000A0008002A000C002A0450020683D00206F
:10331000E120019302F030FD019B0246FFF75AB80D
:10332000E020019302F028FD019B0246FFF752B80E
:10333000DF20019302F020FD019B0246FFF74AB80F
:10334000DE20019302F018FD019B0246FFF742B810
:10335000DD20019302F010FD019B0246FFF73AB811
:10336000DC20019302F008FD019B0246FFF732B812
:103370009F20019302F000FD019B0246FFF72AB84F
:103380009E20019302F0F8FC019B0246FFF722B851
:103390009D20019302F0F0FC019B0246FFF71AB852
:1033A0009C20019302F0E8FC019B0246FFF712B853
:1033B000CA49D1F83C2CD1F82C1C92B242EA014205
:1033C000FFF708B8C549D1F8342CD1F8381C92B2AF
:1033D00042EA0142FEF7FEBFC14890F8F522002AFA
:1033E00072D0C04A1278022A6AD1BC4AD2F8442C60
:1033F00012F4004261D0D0ED057A9FEDBB7AF4EE75
:10340000C77AF1EE10FA55DA9FEDB87AF4EEC77A82
:10341000F1EE10FA4CD99FEDB67A67EE877AFDEEA1
:10342000E77A17EE902AD0ED067A9FEDAF7AF4EEA8
:10343000C77AF1EE10FA92B237DA9FEDAC7AF4EE79
:10344000C77AF1EE10FA26D99FEDA97A67EE877A4E
:10345000FDEEE77A17EE901A42EA0142FEF7BABF94
:103460009F4A9FEDA47AD2ED117AF4EEC77AF1EE7D
:1034700010FA16DA9FEDA07AF4EEC77AF1EE10FAA0
:103480000BD99FED9B7A67EE877AFDEEE77A17EE10
:10349000902AFEF79FBF9949DEE74FF00042FEF702
:1034A00099BF6FF00042FEF795BF47F6FF71D3E773
:1034B000924AB8E747F6FF72B5E70323FEF78ABFE3
:1034C00003230022FEF786BF0323FEF783BF844A4F
:1034D0009FED887AD2ED2A7AF4EEC77AF1EE10FAEF
:1034E0002FDA9FED857AF4EEC77AF1EE10FA24D93F
:1034F0009FED7F7A67EE877AFDEEE77A17EE902AE6
:10350000FEF768BF7E4A9FED7B7AD2ED037AF4EE38
:10351000C77AF1EE10FA6CDA9FED777AF4EEC77A9B
:10352000F1EE10FA61D99FED727A67EE877AFDEEBF
:10353000E77A17EE902AFEF74DBF4FF00042FEF7F4
:1035400049BF6FF00042FEF745BF019301F092FDC5
:103550006C4A9288151E624A92F8F52218BF01251E
:10356000161E694A92F83D26804618BF01264FF480
:103570000061171E654818BF012706F05DFE011E99
:103580005648D0F8442CC2F3C03CD0F8202CD0F8D8
:10359000203CD0F820EC4FEA821202F040020EF4F8
:1035A000807E42EA0E0242EA450242EA860242EA8E
:1035B000C702C3F3001042EA4C1242EAC01218BF1D
:1035C0000121B8F1000F18BF42F00102019B42EA4D
:1035D0000112FEF7FFBE4349CA7848780978120401
:1035E00042EA00220A43FEF7F5BE4FF00042FEF722
:1035F000F1BE6FF00042FEF7EDBE0E20019301F028
:10360000FDFA019B0246FEF7E5BE0D20019301F095
:10361000F5FA019B0246FEF7DDBE0C20019301F096
:10362000EDFA019B0246FEF7D5BE0B20019301F097
:10363000E5FA019B0246FEF7CDBE0A20019301F098
:10364000DDFA019B0246FEF7C5BE0920019301F099
:10365000D5FA019B0246FEF7BDBE0820019301F09A
:10366000CDFA019B0246FEF7B5BE0720019301F09B
:10367000C5FA019B0246FEF7ADBE0620019301F09C
:10368000BDFA019B0246FEF7A5BE0520019301F09D
:10369000B5FA019B0246FEF79DBE0420019301F09E
:1036A000ADFA019B0246FEF795BE0320019301F09F
:1036B000A5FA019B0246FEF78DBE0220019301F0A0
:1036C0009DFA019B0246FEF785BE0120019301F0A1
:1036D00095FA019B0246FEF77DBE00BF0020014027
:1036E0007C3D0020683D0020681103426F1203C238
:1036F00000007A446C12034A6C1203CA0080FFFF78
:1037000098440020EC360020F836002000080140E4
:103710000020019301F072FA019B0246FEF75ABEA7
:103720000520019301F060FA019B0246FEF752BEAC
:103730000420019301F058FA019B0246FEF74ABEAD
:103740000320019301F050FA019B0246FEF742BEAE
:103750000220019301F048FA019B0246FEF73ABEAF
:103760000120019301F040FA019B0246FEF732BEB0
:103770000020019301F038FA019B0246FEF72ABEB1
:10378000019301F02BFA019B0246FEF723BE019341
:1037900001F01EFA019B0246FEF71CBE019301F0E8
:1037A0000BFA019B0246FEF715BE9B20019302F027
:1037B000E3FA019B0246FEF70DBE9A20019302F048
:1037C000DBFA019B0246FEF705BE9920019302F049
:1037D000D3FA019B0246FEF7FDBD9820019302F04B
:1037E000CBFA019B0246FEF7F5BD9720019302F04C
:1037F000C3FA019B0246FEF7EDBD9620019302F04D
:10380000BBFA019B0246FEF7E5BD9520019302F04D
:10381000B3FA019B0246FEF7DDBD9420019302F04E
:10382000ABFA019B0246FEF7D5BD9320019302F04F
:10383000A3FA019B0246FEF7CDBD0320019302F0DF
:10384000F5F8019B0246FEF7C5BD0220019302F088
:10385000EDF8019B0246FEF7BDBD0120019302F089
:10386000E5F8019B0246FEF7B5BD0020019302F08A
:10387000DDF8019B0246FEF7ADBDD1490A8A91F8F9
:10388000F51242EA0142FEF7A5BDCE4A9FEDCE7A7F
:10389000D2ED1C7AF4EEC77AF1EE10FA2FDA9FED32
:1038A000CB7AF4EEC77AF1EE10FA24D99FEDC87AFC
:1038B00067EE877AFDEEE77A17EE902AFEF78ABD6B
:1038C000C04A9FEDC17AD2ED1B7AF4EEC77AF1EED1
:1038D00010FA1CDA9FEDBD7AF4EEC77AF1EE10FA19
:1038E00011D99FEDBB7A67EE877AFDEEE77A17EE86
:1038F000902AFEF76FBD4FF00042FEF76BBD6FF0F0
:103900000042FEF767BD4FF00042FEF763BD6FF067
:103910000042FEF75FBDAB4A9FEDAB7AD2ED1A7A5B
:10392000F4EEC77AF1EE10FA30DA9FEDA87AF4EEF1
:10393000C77AF1EE10FA25D99FEDA57A67EE877A5E
:10394000FDEEE77A17EE902AFEF744BD9D4A9FED03
:103950009E7AD2ED197AF4EEC77AF1EE10FA80F27F
:103960008A809FED9A7AF4EEC77AF1EE10FA7ED94A
:103970009FED977A67EE877AFDEEE77A17EE902A49
:10398000FEF728BD4FF00042FEF724BD6FF0004265
:10399000FEF720BD0820019301F03AF9019B024691
:1039A000FEF718BD0720019301F032F9019B024692
:1039B000FEF710BD0620019301F02AF9019B024693
:1039C000FEF708BD0520019301F022F9019B024694
:1039D000FEF700BD0420019301F01AF9019B024695
:1039E000FEF7F8BC0320019301F012F9019B024697
:1039F000FEF7F0BC0220019301F00AF9019B024698
:103A0000FEF7E8BC0120019301F002F9019B024698
:103A1000FEF7E0BC0C20019301F0FAF8019B02468E
:103A2000FEF7D8BC0B20019301F0F2F8019B02468F
:103A3000FEF7D0BC0A20019301F0EAF8019B024690
:103A4000FEF7C8BC0920019301F0E2F8019B024691
:103A5000FEF7C0BC5F4AD2F81822FEF7BBBC0D20AF
:103A6000019301F0D5F8019B0246FEF7B3BC4FF07D
:103A70000042FEF7AFBC6FF00042FEF7ABBC002087
:103A8000019301F0C5F8019B0246FEF7A3BC4C4A26
:103A9000D2F8F81292F8F52242EA0122FEF79ABC17
:103AA00047489FED4D7AD0ED067AF4EEC77AF1EEF5
:103AB00010FA3FDA9FED497AF4EEC77AF1EE10FA88
:103AC00036D99FED437A67EE877AFDEEE77A17EEF7
:103AD000902AD0ED077A9FED407AF4EEC77AF1EEA6
:103AE00010FA92B221DA9FED3D7AF4EEC77AF1EE48
:103AF00010FA18D99FED367A67EE877AFDEEE77AED
:103B000017EE901A42EA0142FEF764BC2C4A9FED80
:103B1000347AD2ED1C7A67EE877AFCEEE77A17EEFC
:103B2000902AFEF757BC2F49ECE747F6FF71E9E70B
:103B30002C4ACEE747F6FF72CBE721488268D0F8DF
:103B40009810521AB2F5004F1FDA26498A42B8BFC0
:103B50000A46C168D0F89C00091AB1F5004F92B22C
:103B600010DA20488142B8BF014642EA0142FEF71E
:103B700031BC1349B1F89820D1F89C1042EA0142B7
:103B8000FEF728BC47F6FF71EFE747F6FF72E0E764
:103B90001549164ADFF858C001F5007E51F8040FA8
:103BA00050408E450CFB00F2F8D1FEF713BC0549DE
:103BB00008480193FDF714FF019B0246FEF70ABC7B
:103BC0007C3D0020984400206C12034A6C1203CA0A
:103BD00000007A4498400020681103426F1203C22B
:103BE000002474490080FFFFAC400020C59D1C816B
:103BF00093010001D34A5269FEF7ECBBD249D14A86
:103C0000D1ED867A1268FCEEE77A17EE901A42EA56
:103C10000142FEF7DFBBCD4A9FEDCD7AD2ED0A7AA5
:103C2000F4EEC77AF1EE10FA2FDA9FEDCA7AF4EECD
:103C3000C77AF1EE10FA24D99FEDC77A67EE877A3A
:103C4000FDEEE77A17EE902AFEF7C4BBC34A9FED5C
:103C5000C07AD2ED007AF4EEC77AF1EE10FA1CDAEF
:103C60009FEDBC7AF4EEC77AF1EE10FA11D99FED10
:103C7000BA7A67EE877AFDEEE77A17EE902AFEF7BA
:103C8000A9BB4FF00042FEF7A5BB6FF00042FEF764
:103C9000A1BB4FF00042FEF79DBB6FF00042FEF764
:103CA00099BBAF4A9FEDAF7AD2ED007A67EE877A83
:103CB000FCEEE77A17EE902A92B2FEF78BBBAA4A87
:103CC000DFEDA86A52ED017A92ED007A67EEA67AEE
:103CD00027EE267AFCEEE77ABCEEC77A17EE902A3A
:103CE00017EE101A92B242EA0142FEF773BB9F4AE6
:103CF0009FED977AD2ED007AF4EEC77AF1EE10FAE2
:103D00002FDA9FED947AF4EEC77AF1EE10FA24D907
:103D10009FED917A67EE877AFDEEE77A17EE902AAB
:103D2000FEF758BB924A9FED8A7AD2ED007AF4EE04
:103D3000C77AF1EE10FA1CDA9FED867AF4EEC77AB4
:103D4000F1EE10FA11D99FED847A67EE877AFDEED5
:103D5000E77A17EE902AFEF73DBB4FF00042FEF7E0
:103D600039BB6FF00042FEF735BB4FF00042FEF763
:103D700031BB6FF00042FEF72DBB7E4A9FED747A97
:103D8000D2ED007AF4EEC77AF1EE10FA31DA9FED57
:103D9000717AF4EEC77AF1EE10FA26D99FED6E7AB9
:103DA00067EE877AFDEEE77A17EE902AFEF712BBF0
:103DB000714A9FED677AD2ED007AF4EEC77AF1EEA0
:103DC00010FA80F2D1819FED637AF4EEC77AF1EEBA
:103DD00010FA40F2C5819FED607A67EE877AFDEEBA
:103DE000E77A17EE902AFEF7F5BA4FF00042FEF799
:103DF000F1BA6FF00042FEF7EDBA604AD269FEF701
:103E0000E9BA5E498A8D087891F82010120442EAD6
:103E100000220A43FEF7DEBA5849594A107892F850
:103E200001C00A7C120442EA0C22024391F82100EC
:103E300042EA006291F8220091F8241042EA4062BE
:103E400042EA8162FEF7C6BA4E4A9FED417AD2ED50
:103E5000377AF4EEC77AF1EE10FA80F2BC809FED6B
:103E60003D7AF4EEC77AF1EE10FA40F2B0809FEDA1
:103E70003A7A67EE877AFDEEE77A17EE902AFEF738
:103E8000A9BA404A9FED327AD2ED367AF4EEC77A7B
:103E9000F1EE10FA2FDA9FED2F7AF4EEC77AF1EEF9
:103EA00010FA24D99FED2C7A67EE877AFDEEE77A37
:103EB00017EE902AFEF78EBA324A9FED257AD2EDA0
:103EC000357AF4EEC77AF1EE10FA1CDA9FED217A1A
:103ED000F4EEC77AF1EE10FA11D99FED1F7A67EE72
:103EE000877AFDEEE77A17EE902AFEF773BA4FF065
:103EF0000042FEF76FBA6FF00042FEF76BBA4FF068
:103F00000042FEF767BA6FF00042FEF763BA1D4A3F
:103F10009FED0F7AD2ED347AF4EEC77AF1EE10FA13
:103F200051DA9FED0C7AF4EEC77AF1EE10FA46D929
:103F30009FED097A67EE877AFDEEE77A17EE902A11
:103F4000FEF748BA98400020F83600209844002038
:103F50006C12034A6C1203CA00007A44C436002073
:103F6000E836002000401C46E4360020DC36002005
:103F7000D8360020D4360020D03600201002002091
:103F8000683D00207C3D00207D4A9FED7E7AD2ED89
:103F9000337AF4EEC77AF1EE10FA24DA9FED7A7AEA
:103FA000F4EEC77AF1EE10FA19D99FED787A67EE40
:103FB000877AFDEEE77A17EE902AFEF70BBA4FF0FC
:103FC0000042FEF707BA6FF00042FEF703BA4FF067
:103FD0000042FEF7FFB96FF00042FEF7FBB94FF069
:103FE0000042FEF7F7B96FF00042FEF7F3B9684AF6
:103FF0009FED647AD2ED007AF4EEC77AF1EE10FA12
:1040000030DA9FED617AF4EEC77AF1EE10FA25D935
:104010009FED5E7A67EE877AFDEEE77A17EE902ADB
:10402000FEF7D8B95B4A9FED577AD2ED067AF4EEE7
:10403000C77AF1EE10FA80F287809FED537AF4EEA2
:10404000C77AF1EE10FA7BD99FED507A67EE877A46
:10405000FDEEE77A17EE902AFEF7BCB94FF000426A
:10406000FEF7B8B96FF00042FEF7B4B94A4A9FEDC7
:10407000457AD2ED007AF4EEC77AF1EE10FA2FDA33
:104080009FED417AF4EEC77AF1EE10FA24D99FED54
:104090003F7A67EE877AFDEEE77A17EE902AFEF711
:1040A00099B93E4A9FED377AD2ED007AF4EEC77A9D
:1040B000F1EE10FA60DA9FED347AF4EEC77AF1EEA1
:1040C00010FA55D99FED317A67EE877AFDEEE77ADF
:1040D00017EE902AFEF77EB94FF00042FEF77AB94C
:1040E0006FF00042FEF776B92D4A2E491278097812
:1040F00042EA01222C490868B0F5803F36BF0968C2
:104100002A4909040A43FEF765B9294A9FED1D7A39
:10411000D2ED127AF4EEC77AF1EE10FA1CDA9FEDC6
:104120001A7AF4EEC77AF1EE10FA11D99FED177AE8
:1041300067EE877AFDEEE77A17EE902AFEF74AB926
:104140004FF00042FEF746B96FF00042FEF742B969
:104150004FF00042FEF73EB96FF00042FEF73AB969
:104160004FF00042FEF736B96FF00042FEF732B969
:104170004FF00042FEF72EB96FF00042FEF72AB969
:104180007C3D00206C12034A6C1203CA00007A4482
:10419000C036002010020020CC360020C836002097
:1041A000C24A0020C04A0020BC4A00200000FFFF95
:1041B00098440020F0B5244C227887B00AB907B0A3
:1041C000F0BD04F0DFFF214A1268801A0928F6D9F1
:1041D0001F4B204A5968157818681A8900F0ECFEC0
:1041E0001B4B074659681A89186800F0F5FE4FF412
:1041F00000610646184806F011F84FF000012170E2
:10420000022001A905F028FB4FF00000ADF80C00DA
:10421000ADF8020040F28170019008208DF80E0088
:10422000062047EA06420DF10F038DF80000002139
:1042300068468DF80150FDF7AFFF01A9074805F06A
:1042400049FC07B0F0BD00BF494C0020444C0020A1
:10425000EC360020484C002000080140006400407B
:10426000014B1878704700BF494C00200000000047
:1042700000B5114889B006F081F99FED0D7B4FF430
:1042800000724FF4827100234FF40060CDE90013F7
:10429000CDE9020218236946074806938DED047B99
:1042A00006F09AF9044806F0B1F909B000BD00BF64
:1042B0000000000001000000003800400000000085
:1042C00000B5114889B006F059F99FED0D7B4FF408
:1042D00000724FF4827100234FF40060CDE90013A7
:1042E000CDE9020210236946074806938DED047B51
:1042F00006F072F9044806F089F909B000BD00BF64
:104300000000000001000000003C004070B548487B
:104310008CB006F08DF908A8002406F0FFF90125FD
:104320004FF400134FF4FA6208A9414808930A9227
:1043300009948DF82C5006F0F9F93D4806F050FC30
:104340003B48202106F036FC2946394806F03AFC65
:10435000374806F043FA01A806F074FA022601AACB
:10436000214633480394CDE9015606F071FA2146FF
:104370002F48602206F06EFB21462D48042206F0ED
:10438000C7FB21462A48082206F09AFB224621460E
:10439000274806F087FB01AA2946254806F058FA67
:1043A00029462348602206F055FB2946204804226E
:1043B00006F0AEFB29461E48082206F081FB224685
:1043C00029461B4806F06EFB01AA3146184806F044
:1043D0003FFA31461648602206F03CFB314614484D
:1043E000042206F095FB31461148082206F068FBCE
:1043F000224631460E4806F055FB04A806F0FCF9AB
:104400004FF0005304A90A480694CDE90443ADF8DF
:104410001C4006F0F7F92146054806F009FA29463E
:10442000034806F0E1F9024806F0D2F90CB070BD7D
:10443000002C014008B50D4806F0D8FB0B484FF49E
:10444000E13106F01FFC0948042106F05BFC08215D
:10445000064806F051FC054806F048FCBDE8084057
:10446000024840F2053106F063BC00BF0044004042
:1044700038B50546E9B20C4806F04AFC41F20104A1
:1044800001E0013C07D00848072106F049FC00285C
:10449000F7D0284638BD054A13684FF0FF35013381
:1044A0001360284638BD00BF004400406C4C00201B
:1044B000F0B52DED028BAA4D1446002287B02A607C
:1044C000227C07460E46002A00F09280E268DFED6B
:1044D000A56A9B1A07EE903AF8EEE77AB7EE007AF3
:1044E00067EEA67AF4EEC77AF1EE10FAC4ED057A1B
:1044F00000F18880F0EE006AF4EEE67AF1EE10FA50
:1045000000F19880D0ED037A94ED068AA168CDED94
:10451000027A04F5405303F59662C2ED007A37EE55
:10452000C88A03F2B442B0EEC88A116003F59762FC
:1045300082ED008A03F2BC42D6F8A410116004F5A3
:104540005352F16B116003F2C442316C116003F5F8
:104550009962316D116003F2CC42716D116003F507
:104560009A62B16D116003F2D442F16D116003F5EE
:104570009B63326E1A60304602F0D2F99FED7A7A70
:10458000B4EE478AF1EE10FA0DD89FED787AB4EECA
:10459000C78AF1EE10FA06D49FED757AB4EEC78A99
:1045A000F1EE10FA5DDD304602F0BAF9DFED717A16
:1045B00068EE277A40F20112FDEEE77A002301202F
:1045C000A4F82120237017EE901A84F824000A2002
:1045D000FDF780FE18EE100AFBF766FF02466648FC
:1045E0000B4607B0BDEC028BBDE8F04008F042B8C6
:1045F0006248029308F0A6F80122029B227400226E
:10460000E360626104F5395200235D49A3601360E1
:1046100093608A6CC6F8A42004F53051C6F8A8301F
:104620003431304602F0F8F9FB68A36107B0BDEC05
:10463000028BF0BD77EEC77A9FED527A04F53051C8
:1046400067EE877A04F5395334313046C4ED027A87
:10465000C3ED007A07B0BDEC028BBDE8F04002F07C
:10466000DBB99FED480A80EE080A0BF03FF8444A98
:10467000074692ED0A0A0BF039F8431E142B46D870
:10468000002F44D0172F42DC3B1A002BB8BF5B42EF
:10469000022BDDED027A3ADC94ED067A2070B4EE5E
:1046A000E77AF1EE10FACDED027A4FD500233648C5
:1046B00084F8203008F046F8DDED027A217833489E
:1046C000CDED057A3A4607F0D5FFA069FBF7ECFE81
:1046D00002460B460598CDE90223FBF7E5FEDDE92E
:1046E0000223CDE900012A4807F0C4FF94F8201006
:1046F0002960217807EE901A2149F8EE677A0022A6
:104700000123C1ED0A7A227484F821308EE7304605
:1047100002F006F940F2011200230121A4F8212041
:10472000237084F824100A203946FDF7D3FD18EED3
:10473000100AFBF7B9FE024616480B46394607B089
:10474000BDEC028BBDE8F04007F094BF0123124896
:1047500084F8203007F0F6FFDDED027AAEE700BF07
:1047600098400020D1CB0B38FFFF7F7FCDCC4C3E53
:10477000E4CB164100007A44BCFA000898FA00081D
:1047800098440020DB0FC94038FB000868FB000894
:1047900088FB0008F8FA000850FB00082DE9F041FA
:1047A000C24E96ED0A7A2DED028BF3EE057AB4EE49
:1047B000E77AF1EE10FA84B000F312811D46137C03
:1047C00014460F468046002B00F0D880D3689FED3A
:1047D000B87AEB1A07EE903AF8EEE77AB7EE006A8D
:1047E00067EE877AF4EEC67AF1EE10FAC2ED057A3A
:1047F00000F1D2809FEDAF8A96ED0A7A67EE085AF3
:10480000C5EE886A76EE866AF4EEE67AF1EE10FA84
:1048100078D4DFEDA96A27EE267AC7EE086A36EE6D
:10482000867AF4EEC77AF1EE10FA00F1E2800846DB
:1048300002F076F8D6ED0A7ABDEEE77A17EE103A76
:10484000002B40F3928104EB432303F1300204F187
:104850003001002351F8040F91420344FAD107EECE
:10486000103AB8EEC77A9FED956A656B9FED938A13
:10487000DFED938A27EE866AD5F58035C7EE066AA6
:1048800048BF05F2FF156D120027FDEEE66AC4ED84
:10489000076A07EE107AF8EEC75A67EE886A65EE87
:1048A000A75A6FF03F0265EE885A002165EEA85ABC
:1048B000B7EE005A13E036EEC56AB4EEC76AF1EE01
:1048C00010FA03D537EE667AFDEEC77A17EE903A06
:1048D00004EB830301325B6B402A194433D007EEAB
:1048E000902AF8EEE77A77EEA57AFDEEE77A17EEF2
:1048F000903A002BB8EEE77ADDDA37EE267AFDEE55
:10490000C77AE3E7D2ED027A9FED6E7A77EE877A87
:1049100002F53953084602F53051C2ED027A3431BE
:10492000C3ED007A02F078F894ED057AD4ED0C7AB4
:10493000B4EEE77AF1EE10FA00F3D08004B0BDECEB
:10494000028BBDE8F0810029B8BF7F317F2D4FEA8F
:10495000E1122946C8BFA5F18001E06901F68C2368
:1049600004EB8303121A5A605748013707F082FE9E
:10497000802F2BD0D6ED0A7A01358AE7534803936E
:1049800007F0E0FE039BA3850023636101232374EA
:104990004FF07E53E560236304F539520023A36092
:1049A0001360B26CC7F8A42004F53051C7F8A830E2
:1049B0003431384602F030F8D8F80C206369A2612F
:1049C000236304B0BDEC028BBDE8F081002201231B
:1049D000227484F8223004B0BDEC028BBDE8F08173
:1049E0003B48152104B0BDEC028BBDE8F04107F057
:1049F00041BED2ED027A9FED337A77EEC77A384620
:104A0000C2ED027AB36CC1F8A4300023C1F8A8301B
:104A100002F5395302F53051C3ED007A343101F01B
:104A2000FBFF94ED057AD4ED0C7AB4EEE77AF1EE63
:104A300010FA83DDA78D002F80D096ED0A7AD4ED91
:104A4000027ADFED256AD8F82432A06827EE087ACA
:104A500067EEA66AC6EE877AFDEEE77A17EE902A31
:104A60009B1ADD1305F480351D4404EB8703CDED5F
:104A7000037A596B0D4405EBD5756D105D63FBF73B
:104A800013FD2B46CDE90001039A1248394607F081
:104A9000F1FDD4ED0C7A9FED0A7AA38D77EE877A3B
:104AA000013BA385C4ED0C7A48E700BF9844002081
:104AB000D1CB0B38DB0FC940DB0F4941000000436D
:104AC0000000003C5F975B390CFC0008D4FB000839
:104AD000A4FB0008FCFB00080000804794ED026A7C
:104AE00096ED0A7A5FED046AD8F82432A78D66EE57
:104AF000266A27EE087A16EE100AC6EE877AFDEED1
:104B0000E77A17EE902A9B1ADD1305F480351D44D1
:104B100004EB8703CDED037A5D63FBF7C5FC2B4601
:104B2000CDE90001039A1248394607F0A3FD9FED35
:104B3000116A94ED0C7ADFED106AA38D37EE067AD8
:104B4000FFEE007A84ED0C7A96ED0A6A07EE103AD1
:104B5000E6EE267AB8EEC77AB4EE677AF1EE10FA8E
:104B60003FF4ECAE0133A385E8E69FED047A7AE6E4
:104B7000FCFB00080000003C0000004300000000B7
:104B8000024B1878003818BF012070470C4D0020E8
:104B9000044B1B7823B1044A136843F001031360EC
:104BA000704700BF0C4D0020084D0020014B1868D5
:104BB000704700BF084D0020014B1868704700BFC8
:104BC000044D0020014B1868704700BF004D0020C5
:104BD000014B1868704700BFFC4C0020014B18685F
:104BE000704700BFF84C002005289DBF024B33F8EA
:104BF000100080B200207047EC4C00200E289ABFB5
:104C0000024B53F820000020704700BFB04C00203A
:104C10000D289ABF024B53F820000020704700BFB8
:104C2000784C0020024B1878003818BF01207047DC
:104C3000744C0020014B01229A637047B04C002055
:104C400070B504464FF6FF7384B037482180638007
:104C50004FF48051164605F0E1FA00230393039BBD
:104C60003F2B06D800BF039B01330393039B3F2BCD
:104C7000F8D940F6010501E0013D40D02B48022162
:104C800005F0D0FC0028F7D02188284805F0C4FCA6
:104C900040F6010501E0013D40D02448012105F026
:104CA000C1FC0028F7D0214805F0B8FC40F601050A
:104CB000608001E0013D34D01C48802105F0B2FC49
:104CC0000128F7D000230293029B3F2B4FF00005F1
:104CD0001CD915484FF4805105F09EFA002301932A
:104CE000019B3F2B06D800BF019B01330193019B21
:104CF0003F2BF8D963883380284604B070BD4FF04D
:104D0000FF3500230293029B3F2BE2D800BF029B9A
:104D100001330293029B3F2BF8D9DAE76FF00105CC
:104D2000EFE76FF00205ECE7000C014000380040AF
:104D300070B582B000230DF102024FF40041ADF8CE
:104D40000230ADF80430ADF806300446FFF778FFC6
:104D50004FF40841064601AA2046FFF771FF4FF4C1
:104D6000084105460DF106022046FFF769FF46EAB5
:104D70000503034307D1BDF80630BDF8040040EA3F
:104D8000034002B070BD044A13684FF0FF3043F097
:104D90000403136002B070BD084D002038B504460E
:104DA00004F0F0F9354A364B1189D568186041EAAC
:104DB00005419960D2F89CC0B2F898109FED313A45
:104DC000D2ED167A92ED176A92ED187A92ED2A4A90
:104DD000D2ED104A92ED0F5AD2ED115AD2ED096A76
:104DE000108ADFED293A41EA0C422849DA6067EE81
:104DF000837A1861D1F808285A6126EE036AFCEE1E
:104E0000E77AD1F80C289A6127EE037ABCEEC66ADD
:104E100017EE902A16EE101ABCEEC77A24EE234A3B
:104E200064EEA34A25EE235A65EEA35A66EEA36A02
:104E300092B242EA014217EE101ABDEEC44AFDEEEC
:104E4000E44ABDEEC55AFDEEE55AFDEEE66A89B2CA
:104E500083ED074AC3ED084A83ED095AC3ED0A5AA8
:104E6000C3ED0B6A1A6359633CB12046FFF760FF3C
:104E7000074A034B506052685A6038BD7C3D0020A1
:104E8000784C002000401C4600007A44000001409D
:104E9000B04C00202DE9F04F002787B003ACCDE9DE
:104EA000037701943A4EDFF80CA13A4C05978046FF
:104EB0004FF001090DF10E0B14F8015B364BADF804
:104EC0000A7043EAC5250DF10A02A9B24046FFF770
:104ED000B7FE002849D0326842F004024FF00009C2
:104EE0003260A2450BF1020BE6D1019C2B48002356
:104EF00034F8022B20F813200133062BF8D128496F
:104F0000DDF80E30C8F806300B602649DDF8124097
:104F1000BDF80E20BDF810000C60234CBDF8161033
:104F200021600243BDF81230BDF8144025D1C3F30F
:104F30000A03A02B21D11D4B9FED1D7AD3ED037ADF
:104F4000B4EEE77AF1EE10FAACBF4FF430734FF4E1
:104F500020739C4211D140F21543994208BF09F1D8
:104F6000FF300AD107B0BDE8F08F5A46A9B24046DB
:104F7000FFF766FE0028AED1B3E7054A13684FF08D
:104F8000FF3043F00803136007B0BDE8F08F00BFA7
:104F9000084D0020AC0401080080FFFFEC4C00200D
:104FA000004D0020FC4C0020F84C002098440020CC
:104FB00000002042B104010800B587B001AB83E8CE
:104FC00007000DF116024FF400411846FFF738FEB6
:104FD000BDF8160007B000BD00B587B001AB83E88F
:104FE00007000DF116024FF408411846FFF728FE9E
:104FF000BDF8160007B000BD30B585B004AB03E9BD
:1050000007001248002105F013FC11484FF400611D
:1050100005F002F900230F4A1C4642F823400133F1
:105020000F2BFAD10C4A0D4B012515701C6004F0B2
:10503000A9F80B4B0B4918600B4B0D700B4A1C70F9
:105040000B4B14701C7005B030BD00BF002C01402C
:1050500000080140B04C0020744C0020704C00202F
:10506000104D0020174D0020164D0020154D00203A
:10507000144D002008B5074B187810B1064B1B786B
:105080000BB1002008BD00F0B3FCB0FA80F040097D
:1050900008BD00BF164D0020744C002010B584B030
:1050A00004AB03E90700002211461148114C05F03A
:1050B00057FD0F480022012105F052FD00220C4847
:1050C000022105F04DFD0A48002105F0B1FB0A4818
:1050D0004FF4006105F0A2F800F090FC0748084981
:1050E000084A0023237003700B70137004B010BDC6
:1050F000002C0140174D002000080140164D0020F3
:10510000744C0020144D002030B5A04B89B001AC88
:1051100084E807001A7812B19D4A117851BB9D4A64
:1051200012780AB909B030BD9B4A156804F02AF814
:105130000A220146284603F08DFF0028F2D0974846
:105140004FF4805105F072F8024600285DD1944D6D
:105150002B78002B2FD194E8070005AB03C341F255
:10516000A1011A8005A80DF11202FFF769FD0123C4
:105170002B70D7E704F006F88A4B1968401A00280C
:10518000D0DB894A107800F0FF01002800F0BC80D5
:1051900082484FF4805105F049F87D4A002800F01C
:1051A000D380824801F00AFB794A002313707E4ABB
:1051B00000231370B6E77E4B009220461A60FFF77B
:1051C000B7FD7B4B7B495860D1F80408D861D1F812
:1051D0000C081862D1F808085862D1F8040C9862DB
:1051E000D1F80C0CD862D1F8080C1863A1F5504125
:1051F000009AD1F808185963654B20201A70FBF704
:10520000ABFF644B009A1A708CE7624B00221A7055
:1052100094E8070005AD03C541F2A1012A8005A865
:105220000DF11202FFF70CFD634A9FED647AD2ED97
:10523000037A94E80700B4EEE77AF1EE10FA0DF184
:10524000140CACE80300A8BF4FF44B512A80B8BF40
:105250004FF44A510DF1120205A8FFF7F1FC94E852
:1052600007000DF1140CACE8030042F615412A804A
:1052700005A80DF11202FFF7E3FC2046FFF70AFE36
:105280004B4A4F4900280CBF0120002010600868DD
:105290004C49506009684C48916000684B49D060A7
:1052A000488880B21061888880B25061C8884149BE
:1052B00080B29061D1F80408D061D1F80C08106276
:1052C000D1F808085062D1F8040C9062D1F80C0CA7
:1052D000D062D1F8080C1063A1F55041D1F808183C
:1052E000516345D12D484FF4805104F09FFF0028B1
:1052F0003ED0264B01241C7003F044FF294A244B66
:10530000143010601C700DE72848009101F008FB74
:105310002F480099012205F023FC012211462C4858
:1053200005F01EFC01222A48022105F019FC28483C
:10533000012105F07DFA1C4B01221A7003F022FFB7
:10534000184B05301860EDE61949107008602046CA
:10535000FFF7EEFC1649034620204B60FBF7FCFEEE
:105360000123ADF8083094E80700FFF797FE1EE729
:10537000074B002220201A70FBF7EEFE0123ADF848
:10538000083094E80700FFF789FECBE6164D0020B1
:10539000744C0020174D0020104D002000080140E3
:1053A000154D0020704C0020144D00207C3D002045
:1053B000B04C002000000140984400200000204232
:1053C000004D0020FC4C0020F84C0020EC4C00204C
:1053D000002C0140F0B589B001AC84E8070094E8E6
:1053E000070005AE03C64FF40041328005A80DF159
:1053F00012021F46FFF724FC94E8070005AB03C325
:1054000032804FF408410DF1120205A8BDF8125088
:10541000FFF716FCBDF8124054EA05031FD12B0715
:1054200043D46F0746D4AE0749D4ED074CD460058A
:105430004FD4A10552D4E20555D4230658D46706AB
:105440005BD4A6065ED4E50661D4200764D4610768
:1054500067D4A2076AD4E3076DD409B0F0BD3B4816
:10546000394607F007F96A056BD4AB0502D5384811
:1054700007F000F9EF0502D5364807F0FBF82E06D5
:1054800002D5354807F0F6F8680602D5334807F02C
:10549000F1F8A90602D5324807F0ECF8EA06BED5C5
:1054A000304807F0E7F82B07BBD52F4807F0E2F8A4
:1054B0006F07B8D52D4807F0DDF8AE07B5D52C48F5
:1054C00007F0D8F8ED07B2D52A4807F0D3F8600501
:1054D000AFD5294807F0CEF8A105ACD5274807F08D
:1054E000C9F8E205A9D5264807F0C4F82306A6D5D1
:1054F000244807F0BFF86706A3D5234807F0BAF899
:10550000A606A0D5214807F0B5F8E5069DD52048A8
:1055100007F0B0F820079AD51E4807F0ABF86107EE
:1055200097D51D4807F0A6F8A20794D51B4807F0A9
:10553000A1F8E30791D51A4809B0BDE8F04007F09B
:1055400099B8184807F096F88FE700BF18FC0008D4
:1055500038FC000844FC00084CFC000854FC00081F
:105560005CFC000868FC000874FC000880FC000873
:105570008CFC000898FC0008A4FC0008ACFC0008A7
:10558000B4FC0008BCFC0008C4FC0008CCFC00080B
:10559000D8FC0008E4FC0008F0FC0008FCFC000853
:1055A00008FD00082CFC00082DE9F04389B001AC8F
:1055B00084E80700764F774A774D784900233B60AF
:1055C0002B601360764A1360764A13601A4621F8FE
:1055D00013200133062BFAD1FBF790FD724BDFED60
:1055E000737A93ED037AB4EEE77AF1EE10FA25D8E8
:1055F000DFF8C4916E4801234FF4006189F8003050
:1056000004F00AFE0A2003F0A5FD2046FFF790FBF8
:1056100028602B68002B40F0A88005AB94E80700B9
:105620001D4603C30DF112081A8041F2A101424642
:105630002846FFF705FB4FF44B5323E0DFF8789142
:105640005B4801234FF4006189F8003004F0E4FD69
:105650000A2003F07FFD2046FFF76AFB28602B68D5
:10566000002B7CD105AB94E807001D4603C30DF168
:1056700012081A8041F2A10142462846FFF7E0FADB
:105680004FF44A5394E807002E4603C61946328069
:1056900028464246FFF7D4FA464801F08DF894E8D0
:1056A00007002B4603C3328042F615414246284686
:1056B000FFF7C6FA94E807002B4603C341F2A101A5
:1056C000328028464246FFF7BBFA012003F042FD34
:1056D000384801F071F836484FF4805104F0A6FDC7
:1056E00018B93B6843F010033B602046FFF7D2FB3C
:1056F00028B92F484FF4805104F098FDD8B994E8A8
:1057000007002B4603C341F2A1011A8028464246F6
:10571000FFF796FA012003F01DFD25484FF4805154
:1057200004F084FD38B32046FFF7B4FB18BB3B6898
:1057300023F008033B601E484FF4805104F076FDCF
:105740000346C8B194E807000024FFF7A7FC89F8D6
:105750000040FBF7D3FC204609B0BDE8F0833A686F
:1057600042F0020205AB3A607DE73A6842F002027D
:1057700005AB3A6052E70023202089F80030FBF7A0
:10578000EBFC94E80700FFF789FC4FF0FF30E3E7FC
:10579000084D0020004D0020044D0020EC4C00205E
:1057A000FC4C0020F84C00209844002000002042CF
:1057B000000801407C3D00200C4D002008B50C2164
:1057C000002004F081FD4FF480500222002104F0FB
:1057D000B9FABDE808404FF4805004F00BBB00BF9D
:1057E000044A072928BF07210023C0E901210370CB
:1057F000704700BF00C0030810B5044604F000FB6A
:1058000040F2073004F064FC606804F02DFB0123D3
:10581000237010BD84B00DF1100C0CE90700029844
:10582000049900EB830004B004F0BEBB84B00DF11A
:10583000100C0CE907000298049900EB830004B0F7
:1058400004F0B2BB84B00DF1100C0CE90700029813
:1058500010EE101A00EB830004B004F0A5BB00BFEB
:1058600000B583B0019004F0EBFA019800230370B7
:1058700003B000BD84B00DF1100C0CE9070051F825
:10588000230004B0704700BF84B00DF1100C0CE988
:10589000070051F8230004B0704700BF84B00DF139
:1058A000100C0CE9070001EB830292ED000A04B032
:1058B000704700BF30B40F480F4C1049104A114DCB
:1058C000002323600360104C0B60104810491360E4
:1058D0004FF6FF722B60228002800E4C0A800E4928
:1058E0000E480F4A23800B8001210380117030BCC9
:1058F000704700BF344E0020304E0020244E002060
:10590000284E00202C4E00201E4E0020204E00204D
:10591000224E0020184E00201A4E00201C4E00205F
:10592000384E0020014B1878704700BF384E0020D9
:10593000224A136853B11368F73808283CD8DFE8C7
:1059400000F00B111921262B333807000123F3E750
:105950001B4BD3F8C80070471A4B1878136840EAFD
:1059600003207047184A194B10881B8880B240EA00
:1059700003407047164A174B10881B8880B240EAD4
:1059800003407047144A1068B0FBF3F07047134AA5
:105990001068B0FBF3F07047114A124B10881B8857
:1059A00080B240EA034070470F4A1068B0FBF3F042
:1059B00070470E4B1868704700207047344E002027
:1059C0007C3D0020384E0020224E00201C4E00203E
:1059D000204E00201A4E00202C4E0020284E002081
:1059E0001E4E0020184E0020244E0020304E002075
:1059F000014B1878704700BF174E002030B4064D99
:105A0000064C07480749084A00232B70237030BC16
:105A100003800B6013607047174E0020164E002065
:105A2000144E0020104E00200C4E002003281DD8DC
:105A3000DFE800F0100805020D4B186870470D4BA9
:105A4000186870470C4A0D4B10881B8880B240EADA
:105A5000034070470A490B4A0B4B12781B880878A1
:105A60009BB2000440EA03201043704700207047B7
:105A70000C4E0020104E00200A4E0020084E002040
:105A8000164E0020174E0020144E00209FED597A2C
:105A9000F0EEC07AF4EEC77AF1EE10FAC0F2A98007
:105AA000B0EE007AF4EEC77AF1EE10FA00F2A180BF
:105AB000012800F29E8030B44F4B504C504D84ED85
:105AC000000A18704F48504C5049002300222B60A8
:105AD00002604F48226002604E4C4F4822600260D4
