:020000040800F2
:10000000000001205D880008496C00084D6C000864
:10001000596C0008656C0008716C00080000000055
:100020000000000000000000000000007D6C0008DF
:10003000816C000800000000856C0008896C0008D5
:10004000AD880008AD880008AD880008AD880008BC
:10005000AD880008AD880008AD880008AD880008AC
:10006000AD880008AD880008AD880008AD8800089C
:10007000AD880008AD880008AD880008AD8800088C
:10008000AD880008AD880008AD880008AD8800087C
:100090008D6C0008AD880008AD880008AD880008A8
:1000A000AD8800081D6E0008AD880008AD88000806
:1000B000AD880008AD880008AD880008AD8800084C
:1000C000AD880008AD880008AD880008AD8800083C
:1000D000AD880008AD880008156F0008AD880008DD
:1000E000A16E0008AD880008AD880008AD88000842
:1000F000AD880008AD880008AD880008AD8800080C
:10010000AD880008AD880008AD880008AD880008FB
:10011000AD880008AD880008AD880008AD880008EB
:10012000AD880008AD880008AD880008AD880008DB
:1001300001F0FF01102A2BDB10F0070F08D010F898
:10014000013B013A8B422DD010F0070F42B3F6D19C
:10015000F0B441EA012141EA014122F007047FF0B5
:1001600000070023F0E80256083C85EA010586EA0C
:10017000010685FA47F5A3FA87F586FA47F6A5FA48
:1001800087F68EB9EED1F0BC01F0FF0102F0070254
:1001900032B110F8013B013A83EA010313B1F8D1FF
:1001A0000020704701387047002D06BF35460338E0
:1001B000073815F0010F07D1013015F4807F02BF19
:1001C000013015F4C03F0130F0BC0138704700BF6A
:1001D000034613F8012B002AFBD1181A0138704787
:1001E00081F0004102E000BF83F0004330B54FEAE8
:1001F00041044FEA430594EA050F08BF90EA020F55
:100200001FBF54EA000C55EA020C7FEA645C7FEAE7
:10021000655C00F0E2804FEA5454D4EB5555B8BF0A
:100220006D420CDD2C4480EA020281EA030382EA7B
:10023000000083EA010180EA020281EA0303362D0D
:1002400088BF30BD11F0004F4FEA01314FF4801CE0
:100250004CEA113102D0404261EB410113F0004FF2
:100260004FEA03334CEA133302D0524263EB4303A9
:1002700094EA050F00F0A780A4F10104D5F1200E47
:100280000DDB02FA0EFC22FA05F2801841F10001A2
:1002900003FA0EF2801843FA05F359410EE0A5F176
:1002A00020050EF1200E012A03FA0EFC28BF4CF0A7
:1002B000020C43FA05F3C01851EBE37101F000455D
:1002C00007D54FF0000EDCF1000C7EEB00006EEB6A
:1002D0000101B1F5801F1BD3B1F5001F0CD34908F4
:1002E0005FEA30004FEA3C0C04F101044FEA44524B
:1002F00012F5800F80F09A80BCF1004F08BF5FEAD2
:10030000500C50F1000041EB045141EA050130BDB1
:100310005FEA4C0C404141EB0101013C28BFB1F5C3
:10032000801FE9D291F0000F04BF01460020B1FA0E
:1003300081F308BF2033A3F10B03B3F120020CDAE1
:100340000C3208DD02F1140CC2F10C0201FA0CF0BF
:1003500021FA02F10CE002F11402D8BFC2F1200C24
:1003600001FA02F120FA0CFCDCBF41EA0C019040DA
:10037000E41AA2BF01EB0451294330BD6FEA040423
:100380001F3C1CDA0C340EDC04F11404C4F120020E
:1003900020FA04F001FA02F340EA030021FA04F320
:1003A00045EA030130BDC4F10C04C4F1200220FA77
:1003B00002F001FA04F340EA0300294630BD21FAB5
:1003C00004F0294630BD94F0000F83F4801306BF7B
:1003D00081F480110134013D4EE77FEA645C18BF6F
:1003E0007FEA655C29D094EA050F08BF90EA020F06
:1003F00005D054EA000C04BF1946104630BD91EAFE
:10040000030F1EBF0021002030BD5FEA545C05D100
:100410004000494128BF41F0004130BD14F580043F
:100420003CBF01F5801130BD01F0004545F0FE41B3
:1004300041F470014FF0000030BD7FEA645C1ABFE8
:10044000194610467FEA655C1CBF0B46024650EA1F
:10045000013406BF52EA033591EA030F41F400214B
:1004600030BD00BF90F0000F04BF0021704730B5D1
:100470004FF4806404F132044FF000054FF00001A6
:1004800050E700BF90F0000F04BF0021704730B567
:100490004FF4806404F1320410F0004548BF40423C
:1004A0004FF000013EE700BF42004FEAE2014FEA91
:1004B00031014FEA02701FBF12F07F4393F07F4F6C
:1004C00081F06051704732F07F4208BF704793F06F
:1004D0007F4F04BF41F40021704730B54FF4607482
:1004E00001F0004521F000411CE700BF50EA010285
:1004F00008BF704730B54FF000050AE050EA01022E
:1005000008BF704730B511F0004502D5404261EB9D
:1005100041014FF4806404F132045FEA915C3FF4DE
:10052000D8AE4FF003025FEADC0C18BF03325FEA7B
:10053000DC0C18BF033202EBDC02C2F1200300FA2C
:1005400003FC20FA02F001FA03FE40EA0E0021FA51
:1005500002F11444BDE600BF70B54FF0FF0C4CF43F
:10056000E06C1CEA11541DBF1CEA135594EA0C0FF1
:1005700095EA0C0F00F0DEF82C4481EA030621EA2C
:100580004C5123EA4C5350EA013518BF52EA033567
:1005900041F4801143F4801338D0A0FB02CE4FF019
:1005A0000005E1FB02E506F00042E0FB03E54FF049
:1005B0000006E1FB03569CF0000F18BF4EF0010E41
:1005C000A4F1FF04B6F5007F64F5407404D25FEA3D
:1005D0004E0E6D4146EB060642EAC62141EA5551F0
:1005E0004FEAC52040EA5E504FEACE2EB4F1FD0C32
:1005F00088BFBCF5E06F1ED8BEF1004F08BF5FEAB0
:10060000500E50F1000041EB045170BD06F0004661
:1006100046EA010140EA020081EA0301B4EB5C040E
:10062000C2BFD4EB0C0541EA045170BD41F4801106
:100630004FF0000E013C00F3AB8014F1360FDEBF2B
:10064000002001F0004170BDC4F10004203C35DA07
:100650000C341BDC04F11404C4F1200500FA05F38A
:1006600020FA04F001FA05F240EA020001F000422B
:1006700021F0004110EBD37021FA04F642EB0601A1
:100680005EEA430E08BF20EAD37070BDC4F10C04CB
:10069000C4F1200500FA04F320FA05F001FA04F28F
:1006A00040EA020001F0004110EBD37041F100017B
:1006B0005EEA430E08BF20EAD37070BDC4F1200586
:1006C00000FA05F24EEA020E20FA04F301FA05F2EE
:1006D00043EA020321FA04F001F0004121FA04F296
:1006E00020EA020000EBD3705EEA430E08BF20EA66
:1006F000D37070BD94F0000F0FD101F000464000A0
:1007000041EB010111F4801F08BF013CF7D041EA21
:10071000060195F0000F18BF704703F00046520025
:1007200043EB030313F4801F08BF013DF7D043EAF6
:100730000603704794EA0C0F0CEA135518BF95EAAC
:100740000C0F0CD050EA410618BF52EA4306D1D133
:1007500081EA030101F000414FF0000070BD50EA52
:10076000410606BF1046194652EA430619D094EADC
:100770000C0F02D150EA013613D195EA0C0F05D1C6
:1007800052EA03361CBF104619460AD181EA03011A
:1007900001F0004141F0FE4141F470014FF00000D2
:1007A00070BD41F0FE4141F4780170BD70B54FF06D
:1007B000FF0C4CF4E06C1CEA11541DBF1CEA1355ED
:1007C00094EA0C0F95EA0C0F00F0A7F8A4EB0504CF
:1007D00081EA030E52EA03354FEA013100F08880C6
:1007E0004FEA03334FF0805545EA131343EA12638F
:1007F0004FEA022245EA111545EA10654FEA002644
:100800000EF000419D4208BF964244F1FD0404F5FC
:10081000407402D25B084FEA3202B61A65EB030558
:100820005B084FEA32024FF480104FF4002CB6EB15
:10083000020E75EB030E22BFB61A754640EA0C0095
:100840005B084FEA3202B6EB020E75EB030E22BFD5
:10085000B61A754640EA5C005B084FEA3202B6EB16
:10086000020E75EB030E22BFB61A754640EA9C00D5
:100870005B084FEA3202B6EB020E75EB030E22BFA5
:10088000B61A754640EADC0055EA060E18D04FEA63
:10089000051545EA16754FEA06164FEAC30343EA03
:1008A00052734FEAC2025FEA1C1CC0D111F4801FD0
:1008B0000BD141EA00014FF000004FF0004CB6E7C9
:1008C00011F4801F04BF01430020B4F1FD0C88BF68
:1008D000BCF5E06F3FF6AFAEB5EB030C04BFB6EB73
:1008E000020C5FEA500C50F1000041EB045170BD66
:1008F0000EF0004E4EEA113114EB5C04C2BFD4EB93
:100900000C0541EA045170BD41F480114FF0000E16
:10091000013C90E645EA060E8DE60CEA135594EA92
:100920000C0F08BF95EA0C0F3FF43BAF94EA0C0F95
:100930000AD150EA01347FF434AF95EA0C0F7FF40A
:1009400025AF104619462CE795EA0C0F06D152EA5E
:1009500003353FF4FDAE1046194622E750EA410642
:1009600018BF52EA43067FF4C5AE50EA41047FF453
:100970000DAF52EA43057FF4EBAE12E74FF0FF3CB8
:1009800006E000BF4FF0010C02E000BF4FF0010C89
:100990004DF804CD4FEA410C7FEA6C5C4FEA430C02
:1009A00018BF7FEA6C5C1BD001B050EA410C0CBF51
:1009B00052EA430C91EA030F02BF90EA020F0020B3
:1009C000704710F1000F91EA030F58BF994208BF1A
:1009D00090422CBFD8176FEAE37040F001007047D7
:1009E0004FEA410C7FEA6C5C02D150EA013C07D12E
:1009F0004FEA430C7FEA6C5CD6D152EA033CD3D079
:100A00005DF8040B704700BF8446104662468C4672
:100A10001946634600E000BF01B5FFF7B7FF0028A5
:100A200048BF10F1000F01BD4DF808EDFFF7F4FFCE
:100A30000CBF012000205DF808FB00BF4DF808ED59
:100A4000FFF7EAFF34BF012000205DF808FB00BF7C
:100A50004DF808EDFFF7E0FF94BF012000205DF89E
:100A600008FB00BF4DF808EDFFF7CEFF94BF012053
:100A700000205DF808FB00BF4DF808EDFFF7C4FF4C
:100A800034BF012000205DF808FB00BF4FEA410C95
:100A90007FEA6C5C02D150EA013C0AD14FEA430C78
:100AA0007FEA6C5C02D152EA033C02D14FF00000B5
:100AB00070474FF0010070474FEA410212F50012F3
:100AC00015D211D56FF47873B3EB625212D94FEA95
:100AD000C12343F0004343EA505311F0004F23FA7F
:100AE00002F018BF404270474FF00000704750EAD4
:100AF000013005D111F0004008BF6FF00040704791
:100B00004FF00000704700BF4A0011D212F50012EA
:100B100011D20DD56FF47873B3EB62520ED44FEA55
:100B2000C12343F0004343EA505323FA02F07047D5
:100B30004FF00000704750EA013002D14FF0FF3013
:100B400070474FF0000070474FEA4102B2F1E043B6
:100B500024BFB3F5001CDCF1FE5C0DD901F0004CA4
:100B60004FEAC0024CEA5070B2F1004F40EB8300F4
:100B700008BF20F00100704711F0804F21D113F120
:100B80003872BCBF01F00040704741F480114FEA59
:100B90005252C2F11802C2F1200C10FA0CF320FAE2
:100BA00002F018BF40F001004FEAC1234FEAD323FF
:100BB00003FA0CFC40EA0C0023FA02F34FEA430369
:100BC000CCE77FEA625307D150EA01331EBF4FF0F2
:100BD000FE4040F44000704701F0004040F0FE400D
:100BE00040F40000704700BF0348044B834202D02A
:100BF000034B03B118477047CC010020CC01002003
:100C0000000000000548064B1B1AD90F01EBA30199
:100C1000491002D0034B03B118477047CC010020A4
:100C2000CC0100200000000010B5064C237843B929
:100C3000FFF7DAFF044B13B10448AFF30080012340
:100C4000237010BDCC010020000000000CD2000871
:100C500008B5054B1BB105490548AFF30080BDE859
:100C60000840FFF7CFBF00BF00000000D001002008
:100C70000CD2000808B5012007F0B8F84FF4C060A6
:100C800007F08AF840F2026007F086F840F203604D
:100C900007F082F840F2046007F07EF84FF4A0609D
:100CA00007F07AF840F2015007F076F840F2197038
:100CB00007F072F840F20E7007F06EF840F20F7015
:100CC00007F06AF840F20B6007F066F840F209603E
:100CD00007F062F840F20A6007F05EF840F20F6039
:100CE00007F05AF8BDE8084040F2117007F054B818
:100CF00070B505F069FFFFF7BDFF00F02FFA02F0B5
:100D000069FB02F0D3FA00F03DFC02F081FA02F038
:100D1000A7FA00F0CFFA00F0BBFB03F03BFCC5489C
:100D200009F0F4F9C44809F0F1F901230022022185
:100D3000C24809F083F9C248062105F02BFDC048DE
:100D400005F012FE002800F0AC81BE4DBE4C6B6970
:100D5000D4ED027A013304BF00236B612B690133A8
:100D600008BF0023F4EE677A08BF2B61F1EE10FA9A
:100D700080F19481BFEE007AF4EE477AF1EE10FA3A
:100D800000F08C81D4ED037AF4EE677AF1EE10FA7C
:100D900080F18181BFEE007AF4EE477AF1EE10FA2D
:100DA00000F07981D4ED067AF4EE677AF1EE10FA6C
:100DB00080F16E81BFEE007AF4EE477AF1EE10FA20
:100DC00000F066816B68D4ED077A013304BF01231C
:100DD0006B60AB68013304BF0023AB60EB68013389
:100DE00008BF4FF47A73F4EE677A08BFEB60F1EE58
:100DF00010FA80F11B81BFEE007AF4EE477AF1EE33
:100E000010FA00F01381D4ED087AF4EE677AF1EE6F
:100E100010FA80F10881BFEE007AF4EE477AF1EE25
:100E200010FA00F00081D4ED097AF4EE677AF1EE61
:100E300010FA80F1F580BFEE007AF4EE477AF1EE19
:100E400010FA00F0ED80D4ED127AF4EE677AF1EE4C
:100E500010FA80F1E280BFEE007AF4EE477AF1EE0C
:100E600010FA00F0DA80D4ED0A7AF4EE677AF1EE47
:100E700010FA80F1CF80BFEE007AF4EE477AF1EEFF
:100E800010FA00F0C780D4ED117AF4EE677AF1EE33
:100E900010FA80F1BB80BFEE007AF4EE477AF1EEF3
:100EA00010FA00F0B380D4ED0E7AF4EE677AF1EE2A
:100EB00010FA80F1A780BFEE007AF4EE477AF1EEE7
:100EC00010FA00F09F80D4ED177AF4EE677AF1EE15
:100ED00010FA80F19480BFEE007AF4EE477AF1EEDA
:100EE00010FA00F08C80D4ED187AF4EE677AF1EE07
:100EF00010FA80F18180BFEE007AF4EE477AF1EECD
:100F000010FA79D0D4ED147A5048514EF4EE677A45
:100F1000D4ED137AF1EE10FA64BF4E4B2365F4EE74
:100F2000677AD4ED167AF1EE10FA64BF4A4BE364A7
:100F3000F4EE677AD4ED157AF1EE10FA64BF474B00
:100F4000A365F4EE677AF1EE10FA64BF444B636573
:100F500003F0BAFD00214FF44472424809F0F7F85B
:100F60006A69A36AC6F8D82064202A69C6F8D42022
:100F7000B3663D4D05F04AFE6421304605F036F972
:100F80003A494FF4007206F1DC0009F02DF995E8BA
:100F9000070003F0F1F9002840F08B80344800F09E
:100FA00011FB344800F028FB00221146282006F0EF
:100FB000A1FE01220021142006F09CFE0022012146
:100FC000192006F097FE00220221262006F092FE4C
:100FD000294B062101221980DA7000244FF47A701F
:100FE00005F014FEAB880134002BF7D095E807001C
:100FF000234603F0D7F8F1E7204B236682E7204B26
:10100000E36570E74FF07E53A3635CE74FF07E53D8
:10101000636448E71B4BA36235E7184BA36422E7E0
:10102000194B63620FE7194B2362FCE60023E3616F
:10103000E9E600BF40D300084CD300086CD3000899
:10104000C0390020D8390020D83D0020BC3600200F
:101050009833002000004841000048C1000082424F
:10106000000082C2442E00208C330020F039002082
:10107000E8010020FC010020A83600200000A0406C
:101080000000FA430000A841000060410000FA425D
:101090000023A36196E6094BE36083E6084BA36057
:1010A00070E60849084800F06FFB084809F02EF880
:1010B0004BE6074809F02AF870E700BF000020421D
:1010C00000007A44D83D0020D839002088D3000899
:1010D000D8D3000808B514484FF4006106F082FD2B
:1010E0001248002107F088F8002211460F4807F047
:1010F0001BFA0E480022012107F016FA0B480022C5
:10110000022107F011FA00221146084807F0AEF953
:1011100006480022012107F0A9F9BDE8084003486C
:101120000022022107F0A2B900080140002C014072
:10113000024A136803431360FFF7CCBFD83E002078
:10114000014B1868704700BFD83E0020024A136860
:1011500023EA000313607047D83E002010B55048C2
:10116000012106F053FD4F48012106F04FFD4E4886
:101170004FF4A0530122182106F0DCFC4A484FF43A
:1011800000630122042106F0D5FC4FF40043012244
:101190004648102106F0CEFC44484FF4004106F0CA
:1011A0001FFD43484FF420430122182106F0C2FCE2
:1011B0003F484FF480430122482106F0BBFC4FF426
:1011C000805301223A48102106F0B4FC38484FF40D
:1011D000805106F005FD35484FF4006302221021CE
:1011E00006F0A8FC4FF4805303223048042106F097
:1011F000A1FC2E484FF4006106F0F4FC2B484FF49C
:10120000E0630322182106F095FC274803230422FB
:10121000002106F08FFC264801230422002106F05D
:1012200089FC21480C230422002106F083FC1F487E
:10123000F0230422002106F07DFC1B483023042209
:10124000002106F077FC4FF40053022216481021CB
:1012500006F070FC14484FF4005106F0C3FC13482C
:1012600004230122182106F065FC082301220F48FF
:10127000042106F05FFC01214FF4EA1006F0C6FCE1
:101280000B484FF480730222482106F053FCBDE85E
:10129000104007484FF400730322182106F04ABC9F
:1012A0000010200000023000001001400008014042
:1012B000000C014070B5714888B0002106F0E6F9D5
:1012C0006F4A704B01920024042503934FF400727F
:1012D0004FF400634FF48076029204930DEB050205
:1012E0004FF4805321466548ADF81C60CDE90553A5
:1012F0008DF81E4006F0E8F92146604806F022FA13
:1013000021465E4806F030FA5F4805F019FE5F4856
:1013100005F016FE4FF4803005F060FE31465A4865
:10132000012205F06BFE22465748022105F066FEB9
:1013300031465648012205F061FE224653480221FB
:1013400005F05CFE2146504805F080FE2A464E48D6
:10135000012105F085FE01224B48022105F080FEA7
:1013600021464A4805F072FE2A464848012105F008
:1013700077FE46480122022105F072FE23462146EF
:101380004148062205F08AFE23463F480F220121EC
:1013900005F084FE23463C480722022105F07EFE2C
:1013A000234639480822032105F078FE23462146CA
:1013B0003648052205F072FE234634480E220121EC
:1013C00005F06CFE23462A463048022105F066FEF1
:1013D00023462E480C22032105F060FE2A484FF4D4
:1013E0006022012105F006FF01221146264805F082
:1013F000E5FE26484FF46022012105F0FBFE0122A4
:101400001146224805F0DAFE234621461E480B22EB
:1014100005F09CFE234621461C480A2205F096FE54
:1014200019484FF4E042022105F0E4FE164801227B
:10143000022105F0C3FE15484FF4E042022105F0F9
:10144000D9FE01220221114805F0B8FE0E4805F030
:10145000BFFD0E4805F0BCFD0B4805F09FFD0B4895
:1014600005F09CFD012005F0D1FB074805F09EFD2D
:10147000064805F09BFD08B070BD00BF00000240AB
:101480004C240140E03E002000240140002801409F
:1014900070B5384888B0042106F0F8F83649374A64
:1014A00001914FF48063012400254FF4807603926C
:1014B000049301AA4FF480532E4806930421ADF8FB
:1014C0001C6002968DF81E50059406F0FDF8294820
:1014D000042106F037F90421264806F045F928488A
:1014E00005F02EFD22463146254805F087FD2A46A7
:1014F0002348022105F082FD2946214805F0A6FD7A
:10150000224621461E4805F0ABFD22461C4802211A
:1015100005F0A6FD2B46294619480D2205F0BEFD13
:10152000214617484FF4602205F064FE224621460A
:10153000134805F043FE2B46294611480D2205F0BD
:1015400005FE0F484FF4E042022105F053FE22460B
:1015500002210B4805F032FE094805F039FD084824
:1015600005F01CFD204605F051FB054805F01EFD69
:1015700008B070BD000402404C3C0140DC3E00203D
:10158000003C014000B585B001A9002005F088FEAF
:101590000A4805F073FE0A484FF48072CDE9010253
:1015A0004FF4802301A90548039305F0ABFE0348DF
:1015B000022106F067F805B000BD00BF00640040DE
:1015C0000000090300B5014687B0032005F068FE5E
:1015D00001A9012005F064FE00234FF480310122AF
:1015E00001A8CDE90133CDE903318DF8142005F0D0
:1015F0001BFF07B000BD00BF00B583B001460190DE
:10160000022005F04DFE054A01999068086000230C
:1016100006228A724B600B8103B000BDD8390020CE
:10162000F0B52DED028B1E4D83B00446F0EE608ABE
:10163000B0EE418AD5ED130A95ED141A01911020F0
:1016400004F04AFC95ED161AD5ED150A0746B0EEE2
:10165000680A0C2004F040FCD5ED030A95ED0E7AE3
:10166000D5ED117A60EEC70A064660EEA70AB0EE25
:10167000480AB1EE601A0C2004F02EFC0312019906
:10168000E17203EB06137ABA3111E3730023A173FD
:10169000A28120746374A37403B0BDEC028BF0BD0F
:1016A000D83D002084B0F0B52DED028B83B00AAC9C
:1016B00084E80F009DF836309DF835709DF839208C
:1016C0009DF83760BDF833002D4C9DF838E09DF84B
:1016D0003A10D4ED140A94ED130A0F9D9FED298A58
:1016E0004FEA032C1B0943EA07170CF470631E43EF
:1016F000130240BA120903F470630B4342EA0E125C
:1017000080B210210092019304F0FAFB85ED000AEB
:10171000D4ED160A94ED150A38460C2104F0F0FBBE
:1017200085ED010AD4ED170A3046B0EE480A0C21C7
:1017300004F0E6FB85ED020AD4ED180A00980C21AE
:10174000B0EE480A04F0DCFB85ED030A94ED030AD1
:1017500094ED0E7AD4ED117A019820EE470A0C210F
:1017600020EE270AF1EE400A04F0CAFB85ED040AD8
:1017700003B0BDEC028BBDE8F04004B0704700BF81
:10178000D83D00200000000070B54FF480620C4688
:101790000546002108F0DBFC01264FF48072002191
:1017A000204608F0D4FC6E60002300224FF47A76C5
:1017B000C5E904222A60AA60EE60154ADFED156AC9
:1017C0009FED157ADFED157AA3614FF07E51E3614D
:1017D0006363E3632364124BDFF858E0DFF858C01B
:1017E0001048A1636164A2640F49236522660F4B10
:1017F0000F4AC4ED026A84ED037AC4ED087AC4F896
:1018000054E0C4F858C0E164E0656262A36270BD50
:101810000000A04000007A44000020420000FA428C
:10182000000048410000FA43000048C10000A84100
:1018300000006041000082C20000824270B50E4686
:101840001E49A0F1040E00F57F754FF0FF305EF8E1
:10185000044F4FF0000C24FA0CF3DBB2584008227E
:1018600040F300030B40013A83EA5000F8D10CF139
:10187000080CBCF1200FEED17545E8D10F49B646F2
:1018800006F58075DEF800404FF0000C24FA0CF3EA
:10189000DBB25840082240F300030B40013A83EAD0
:1018A0005000F8D10CF1080CBCF1200FEED10EF174
:1018B000040EAE45E6D1C04370BD00BF2083B8ED35
:1018C0000368012B00F22C8243687F2B00F22882F0
:1018D00083687F2B00F22482C368DE4A013B934277
:1018E00000F21E820369DFF8A4C34FF6FF721344AF
:1018F000634500F2158243691A44624500F2108282
:10190000D1ED027A9FEDD47AF0EEE76AF4EE476A01
:10191000F1EE10FA00F20482DFEDDD6AF4EEE67A11
:10192000F1EE10FAC0F2FC81DFEDCC6AF4EEE67A5B
:10193000F1EE10FA00F2F481D1ED037AF0EEE76AED
:10194000F4EE476AF1EE10FA00F2EA819FEDC47AF4
:10195000F4EEC77AF1EE10FAC0F2E2819FEDC17A9F
:10196000F4EEC77AF1EE10FA00F2DA81D1ED064A10
:10197000DFEDB96AB0EEE47AB4EE667AF1EE10FA11
:1019800000F2CE81F5EEC04AF1EE10FAC0F2C88145
:101990009FEDB57AF4EEC74AF1EE10FA00F2C0817D
:1019A00091ED077AB0EEC76AB4EE666AF1EE10FA0E
:1019B00000F2B681B5EEC07AF1EE10FAC0F2B08155
:1019C0009FEDB36AB4EEC67AF1EE10FA00F2A88188
:1019D00091ED087AB0EEC76AB4EE666AF1EE10FADD
:1019E00000F29E81F7EE006AB4EEE67AF1EE10FAAC
:1019F000C0F29681DFED9D6AB4EEE67AF1EE10FA60
:101A000000F28E8191ED095ADFED936AB0EEC57A4E
:101A1000B4EE667AF1EE10FA00F282819FED907AD0
:101A2000B4EEC75AF1EE10FAC0F27A819FED907AC7
:101A3000B4EEC75AF1EE10FA00F2728191ED0A7A13
:101A4000B0EEC76AB4EE666AF1EE10FA00F2688191
:101A5000B7EE006AB4EEC67AF1EE10FAC0F2608119
:101A60009FED846AB4EEC67AF1EE10FA00F2588166
:101A700091ED0D7AB0EEC76AB4EE666AF1EE10FA37
:101A800000F24E81B5EEC07AF1EE10FAC0F2488154
:101A9000DFED7F6AB4EEE67AF1EE10FA00F24081F3
:101AA000D1ED0E6A9FED6C7AB0EEE66AB4EE476A4D
:101AB000F1EE10FA00F234819FED6F6AF4EEC66A1F
:101AC000F1EE10FAC0F22C81B2EE046AF4EEC66AAE
:101AD000F1EE10FA00F22481D1ED0F6AB0EEE66A61
:101AE000B4EE476AF1EE10FA00F21A81F5EEC06A20
:101AF000F1EE10FAC0F214819FED606AF4EEC66A4E
:101B0000F1EE10FA00F20C81D1ED106AB0EEE66A47
:101B1000B4EE476AF1EE10FA00F20281F5EEC06A07
:101B2000F1EE10FAC0F2FC809FED556AF4EEC66A41
:101B3000F1EE10FA00F2F480D1ED116AB0EEE66A2F
:101B4000B4EE476AF1EE10FA00F2EA809FED4D7AAA
:101B5000F4EEC76AF1EE10FAC0F2E2809FED477A28
:101B6000F4EEC76AF1EE10FA00F2DA80D1ED126AF3
:101B70009FED397AB0EEE66AB4EE476AF1EE10FAFC
:101B800000F2CE809FED366AF4EEC66AF1EE10FAEE
:101B9000C0F2C680B3EE046AF4EEC66AF1EE10FA43
:101BA00000F2BE80D1ED135AF0EEE56AF4EE476A1A
:101BB000F1EE10FA00F2B480DFED336AF4EEE65A8B
:101BC000F1EE10FAC0F2AC80F5EEC05AF1EE10FA68
:101BD00000F2A68091ED146AF0EEC66AF4EE476A50
:101BE000F1EE10FA00F29C80B5EEC06AF1EE10FA48
:101BF000C0F296809FED214AB4EEC46AF1EE10FA6D
:101C000000F28E80D1ED156AB0EE473AB0EEE67A7A
:101C1000B4EE437AF1EE10FA00F282809FED1A7A68
:101C2000F4EEC76AF1EE10FA7ADBF5EEC06AF1EE77
:101C300010FA75D891ED167AF0EEC73AF4EE433A01
:101C4000F1EE10FA6CD8B5EEC07AF1EE10FA67DB5F
:101C500020E000BF9F860100FFFF7F7F0000FA4465
:101C6000CDCCCC3D00007042000004420000164381
:101C7000000020420000804217B7D13800007A44AB
:101C80000050C3476F12833A00007AC4FEFF010080
:101C90000000C842B4EEC47AF1EE10FA40D8D1ED9B
:101CA000173AF0EEE32AF4EE432AF1EE10FA37D8B1
:101CB000F5EEC03AF1EE10FA32DBF4EEC43AF1EE92
:101CC00010FA2DD891ED184AF0EE433AB0EEC43A2E
:101CD000B4EE633AF1EE10FA22D8B5EEC04AF1EE56
:101CE00010FA1DDB5FED163AB4EEE34AF1EE10FA9E
:101CF00016D8F4EEE47AF1EE10FA11DBF4EEC57AC0
:101D0000F1EE10FA0CDBF4EEC65AF1EE10FA07D53C
:101D1000F4EEC76AF1EE10FA4CBF012000207047C4
:101D20000020704730B5DFF83CC083B06045069DA9
:101D3000079C02D0002003B030BD0229FAD1B2F5D1
:101D4000A07FF7D1214628460193FFF777FD019B3D
:101D50009842EFD12146284603B0BDE83040FFF756
:101D6000AFBD00BF4154484E401A0028D4BF0020E8
:101D70000120704740B12AB15B1A002BD4BF00206C
:101D8000012070471046704782420CBF4FF0FF3071
:101D90000120704711B10AB1082B01D00020704713
:101DA000009BC01AB3F5006FB0FA80F04FEA5010F4
:101DB00028BF0020704700BF431E00F1060C13F837
:101DC000012FFF2A09D16345F9D1C279131DDBB276
:101DD000022B02D80A70012070470020704700BF14
:101DE00038B5C0F30D0444F4804440F44045204627
:101DF0000BF0C6F9002814BF2846204638BD00BFA6
:101E0000084310B5C0F30D0420460BF0B9F944EABD
:101E1000C03080B210BD00BF10B504460BF0B0F961
:101E200028B914F4804F18BF6FF0010010BD4FF0B7
:101E3000FF3010BDC0F30D00C1F30D01401AB0F525
:101E4000005F03DDA0F5804000B2704710F5005F31
:101E5000B8BF00F5804000B2704700BF0378A52BE3
:101E600029D143785A2B26D18378012B23D110B561
:101E700083790C46CBB9DFF84CE0421E811D00236C
:101E800012F801CF83EA0C0391421EF80330F7D118
:101E9000C2799A4212D1C37823700379637043796F
:101EA000A3708379E370002010BDC378072BE2D0C4
:101EB0004FF0FF3010BD4FF0FF3070476FF0010062
:101EC00010BD00BF28D2000890F800C06CF07F0C55
:101ED00083F800C090F801C083F801C08078987042
:101EE0004FEA122CD970100C110E1A7183F805C02C
:101EF0009871D971704700BF164B1B7803B97047B2
:101F000030B5154C237883B0DBB2CDE900310546FE
:101F100004F094FE009B114A019903EB430C4FEA35
:101F20008C0E013342F80E0002EB8C0203F01F030B
:101F30000B4815719160237003781F2B04D8037828
:101F40000133037003B030BD064A136801331360D8
:101F500003B030BDFA3E0020F93E0020FC3E0020D8
:101F6000F83E0020F43E00202DE9F0418A4C016843
:101F7000236840F201720133914288B0236006D198
:101F8000037A23B9437A13B9827A082A05D0A36861
:101F90000133A36008B0BDE8F08102A90B300093C3
:101FA000FFF75CFF18B1E3680133E360F2E704F088
:101FB00045FE7A49009B0A68821A132A844640F239
:101FC0003C8162680860013262609DF80820062A40
:101FD00000F01482072A00F03881032A01F2AA8057
:101FE000DFE802F0A59B19029DF80A100F2900F204
:101FF000A380DFE811F002010001FE00FC00FA00FE
:10200000F800F600F400A100F000EC00E800E400A5
:10201000E000A100DD009DF80A207A2A00F28C8001
:10202000DFE812F0FB07F407ED07950790078C0730
:1020300079028A008A0005012F082B0824081D0850
:1020400013080B0806080108820778078A008A002F
:102050008A008A00FF00F100EE007302F100FF0029
:10206000EE008A008A008A008A008A008A008A00BC
:102070008A008A008A008A008A008A008A008A0010
:102080008A008A008A008A008A008A008A008A0000
:102090008A008A002C042604FF006A0863085B0893
:1020A00053084B0843083B0833087007680760076C
:1020B00058075007480740071D0715070D07050774
:1020C000FD06F506ED06E506DB0685066A063B0617
:1020D0002006EA05E005CE05B30580053E051A0594
:1020E000FF04E704DC04D004B5040A04F003CA03C7
:1020F00092037203580332031803F202DB02C80290
:10210000AE029402880285027D02A60405019D04A8
:102110007F0473043A043204D5009DF80A100429A0
:1021200001F20580DFE801F0423432302E009DF8E4
:102130000A20002A00F07281012321690131002266
:10214000216103A90220CDE9003205F0A9F800239E
:102150000493ADF8143040F2817303930823DDE952
:10216000001202A88DF816300DF11703FFF7ACFE30
:102170000B4803A905F0D2F9032862D0A369013303
:10218000A36107E7074ADCE7074ADAE70F22D8E747
:102190004FF48032D5E700BF84400020F03E00209D
:1021A0000064004001E8030001D1E0A79C4AC8E7B1
:1021B0009C4A1268C5E79C4AD2F80823C1E79A4AAC
:1021C000D2F80423BDE7984AD2F80023B9E7974A2A
:1021D000D2F8FC22B5E7944AD2F8FC22B1E7E269D2
:1021E000AFE7A269ADE76269ABE72269A9E7E268F8
:1021F000A7E7A268A5E76268A3E722680B46A0E705
:1022000040F215429DE78A4A9FED8A7AD2ED037A21
:1022100089498A4AB4EEE77AF1EE10FAB8BF0A4665
:102220008FE7009301F080FC009B024689E77F491D
:102230000A89C96842EA014283E76369013363613D
:10224000A8E6E3690133E361A4E69DF80A20013AB8
:102250000B2A00F26F87DFE812F0CA00C200BA0052
:102260009900A6008F00790061004C003700210022
:102270000C0073489DF80B2001788A42BFF45CAFD4
:102280007049097800782031091A0A446E4902F031
:102290001F020C2000FB0212926852E768489DF86A
:1022A0000B2001788A42BFF447AF6649097800786D
:1022B0002031091A0A44644902F01F020C2000FB75
:1022C00002121279D2B23CE75D489DF80B200178EA
:1022D0008A42BFF431AF5B49097800782031091A8E
:1022E0000A4402F01F020C20574900FB02F28A58F0
:1022F00027E75449524800220A70544902700A6084
:10230000534A1278007842EA00220868B0F5803F0C
:1023100036BF09684F4909040A4312E74C4A4FF097
:10232000000C82F800C01178002940F0AA804448CF
:1023300046491278007842EA00220868B0F5803FEA
:1023400036BF0968434909040A43FAE6404A3C4853
:10235000012111701178002940F088803B491278E2
:10236000007842EA00220868B0F5803F36BF09686D
:10237000384909040A43E4E63748028882B11B2140
:10238000009303F0B7FC009B0122DAE69DF80B20D6
:10239000013AD2B2132A03D82F4A1288002A7AD0DF
:1023A00002230022CDE62C4A11880029F8D100939F
:1023B000FEF7C6FE0028F3D11B4991F8DD12002973
:1023C000EED025487A2103F095FC009BDCE72248FB
:1023D0000093652103F08EFC009B0322B1E61E48AA
:1023E00000936D2103F086FC009B0222A9E61A48A7
:1023F00000931B2103F07EFC009BC5E7174A9DF864
:102400000910174C174B11701748C4F800C001226F
:102410004FF400611A7005F0E3FBBBE5004A90E65B
:102420004154484EA440002098330020BC36002080
:10243000D83D002000002042A0008002A000C00281
:10244000F83E0020F93E0020FC3E0020F43E002033
:10245000FA3E00200000FFFFA83600208040002048
:102460007C4000208140002000080140C349C44D49
:102470004FF0000C85F800C080F800C0C1F800C023
:102480006DE7BF49BF4881F800C0BC4980F800C073
:10249000C1F800C04DE70093FEF752FE00287FF41C
:1024A0007FAFB94A9288002A7FF47AAFB74A92F890
:1024B000DD22002A3FF474AFB54A92F8F522002AD3
:1024C0003FF46EAF00F180404FF4805100F584304E
:1024D00005F090FB00283FF463AF9DF80B309FEDB3
:1024E000AD7AAD4AAD4807EE903AF8EE677A6321CF
:1024F00067EE877AC2ED127A03F0FCFB9DF80B20A1
:10250000009B642101FB02F21BE6009301F0E0FC5A
:10251000009B024615E69D4AD2F8802011E69E49AE
:102520009F480093FFF78AF9009B024609E69C4A00
:10253000526906E695499A4AD1ED1A7A1268FCEE7C
:10254000E77A17EE901A42EA0142FAE5924A9FEDC5
:10255000957AD2ED0A7AF4EEC77AF1EE10FA70DAD3
:102560009FED917AF4EEC77AF1EE10FA66D99FEDFD
:102570008F7A67EE877AFDEEE77A17EE902AE0E52C
:102580008B4A9FED887AD2ED557AF4EEC77AF1EE58
:1025900010FA1FDA9FED847AF4EEC77AF1EE10FAA2
:1025A00015D99FED827A67EE877AFDEEE77A17EE0E
:1025B000902AC6E57E4A9FED7F7AD2ED5E7A67EE7D
:1025C000877AFCEEE77A17EE902A92B2B9E54FF0DF
:1025D0000042B6E56FF00042B3E5754ADFED756A7B
:1025E000D2ED5C7A92ED5D7A67EEA67A27EE267AD6
:1025F000FCEEE77ABCEEC77A17EE902A17EE101AB7
:1026000092B242EA01429CE5694A9FED667AD2EDB8
:102610005B7AF4EEC77AF1EE10FA18DA9FED627A7F
:10262000F4EEC77AF1EE10FA0ED99FED607A67EEFC
:10263000877AFDEEE77A17EE902A82E54FF00042A6
:102640007FE56FF000427CE54FF0004279E56FF0E6
:10265000004276E5564A9FED537AD2ED5A7AF4EE6F
:10266000C77AF1EE10FA2CDA9FED4F7AF4EEC77AC2
:10267000F1EE10FA22D99FED4D7A67EE877AFDEEE2
:10268000E77A17EE902A5CE5494A9FED467AD2ED4B
:10269000597AF4EEC77AF1EE10FA18DA9FED427A21
:1026A000F4EEC77AF1EE10FA0ED99FED407A67EE9C
:1026B000877AFDEEE77A17EE902A42E54FF0004266
:1026C0003FE56FF000423CE54FF0004239E56FF026
:1026D000004236E5364A9FED337AD2ED587AF4EE71
:1026E000C77AF1EE10FA2CDA9FED2F7AF4EEC77A62
:1026F000F1EE10FA22D99FED2D7A67EE877AFDEE82
:10270000E77A17EE902A1CE5294A9FED267AD2ED4A
:10271000577AF4EEC77AF1EE10FA70DA9FED227A6A
:10272000F4EEC77AF1EE10FA66D99FED207A67EEE3
:10273000877AFDEEE77A17EE902A02E54FF0004225
:10274000FFE46FF00042FCE4194A9FED167AD2EDE7
:10275000567AF4EEC77AF1EE10FA4ADA9FED127A61
:10276000F4EEC77AF1EE10FA40D99FED107A67EED9
:10277000877AFDEEE77A17EE902AE2E4F43E002035
:10278000F93E0020F83E00208C33002098330020D2
:10279000BC360020CDCCCC3DD83D0020A836002052
:1027A000D83900206C12034A6C1203CA00007A4424
:1027B0001032002000401C46C74A9FEDC87AD2ED77
:1027C000547AF4EEC77AF1EE10FA4EDA9FEDC47A3D
:1027D000F4EEC77AF1EE10FA44D99FEDC27A67EEB3
:1027E000877AFDEEE77A17EE902AAAE44FF00042CE
:1027F000A7E46FF00042A4E44FF00042A1E46FF0C0
:1028000000429EE4B84A9FEDB57AD2ED067AF4EE26
:10281000C77AF1EE10FA22DA9FEDB17AF4EEC77AB8
:10282000F1EE10FA18D99FEDAF7A67EE877AFDEED8
:10283000E77A17EE902A84E4AC4AAD491278097819
:1028400042EA0122AB490868B0F5803F36BF09680B
:10285000A94909040A4374E44FF0004271E46FF09F
:1028600000426EE44FF000426BE46FF0004268E417
:10287000009301F053F9009B024662E4009301F0DB
:1028800047F9009B02465CE49C4AD2F8F81292F8A1
:10289000F52242EA012254E498499FED997AD1ED5C
:1028A000067AF4EEC77AF1EE10FA80F236849FEDE4
:1028B000957AF4EEC77AF1EE10FA40F22B849FED90
:1028C000897A67EE877AFDEEE77A17EE902AD1EDE6
:1028D000077A9FED8B7AF4EEC77AF1EE10FA92B296
:1028E00080F214849FED877AF4EEC77AF1EE10FA45
:1028F00040F209849FED7B7A67EE877AFDEEE77AF6
:1029000017EE901A42EA01421BE47C4A9FED7E7A60
:10291000D2ED1C7A67EE877AFCEEE77A17EE902A02
:102920000FE476498A68D1F89800121AB2F5004F80
:1029300080F2FA8375488242B8BF0246C868D1F86F
:102940009C10411AB1F5004F92B280F2EA836F48B1
:102950008142B8BF014642EA0142FFF7F2BB674934
:10296000B1F89820D1F89C1042EA0142FFF7E9BB88
:102970006749684ADFF8A8C101F5007E51F8040FE5
:1029800042408E450CFB02F2F8D1FFF7DABB624AF7
:102990009FED527AD2ED127AF4EEC77AF1EE10FA88
:1029A00018DA9FED4F7AF4EEC77AF1EE10FA0DD9EE
:1029B0009FED4C7A67EE877AFDEEE77A17EE902A64
:1029C000FFF7BFBB484AD269FFF7BBBB4FF00042DD
:1029D000FFF7B7BB6FF00042FFF7B3BB42498A8DE8
:1029E000087891F82010120442EA00220A43FFF707
:1029F000A8BB3D49494A107892F801C00A7C1204EC
:102A000042EA0C22024391F8210042EA006291F866
:102A1000220091F8241042EA406242EA8162FFF704
:102A200090BB364A9FED2D7AD2ED377AF4EEC77A15
:102A3000F1EE10FA30DA9FED2A7AF4EEC77AF1EE71
:102A400010FA25D99FED277A67EE877AFDEEE77AAF
:102A500017EE902AFFF775BB284A9FED207AD2ED3A
:102A6000367AF4EEC77AF1EE10FA80F282809FEDAA
:102A70001C7AF4EEC77AF1EE10FA76D99FED197A46
:102A800067EE877AFDEEE77A17EE902AFFF759BBDB
:102A90004FF00042FFF755BB6FF00042FFF751BB0C
:102AA000164A9FED0E7AD2ED357AF4EEC77AF1EE42
:102AB00010FA56DA9FED0A7AF4EEC77AF1EE10FAC0
:102AC0004BD99FED087A67EE877AFDEEE77A17EE2D
:102AD000902AFFF736BB00BF103200206C12034A69
:102AE0006C1203CA00007A4410020020FA3E002053
:102AF000F83E0020F43E00200000FFFFBC3600201E
:102B0000681103426F1203C2002474490080FFFF62
:102B1000EC390020C59D1C81D83D0020A83600203E
:102B200093010001D24A9FEDD37AD2ED347AF4EECC
:102B3000C77AF1EE10FA24DA9FEDCF7AF4EEC77A75
:102B4000F1EE10FA19D99FEDCD7A67EE877AFDEE96
:102B5000E77A17EE902AFFF7F4BA4FF00042FFF73A
:102B6000F0BA6FF00042FFF7ECBA4FF00042FFF707
:102B7000E8BA6FF00042FFF7E4BA4FF00042FFF707
:102B8000E0BA6FF00042FFF7DCBAB94A9FEDB97ABC
:102B9000D2ED337AF4EEC77AF1EE10FA1EDA9FED39
:102BA000B67AF4EEC77AF1EE10FA13D99FEDB37A44
:102BB00067EE877AFDEEE77A17EE902AFFF7C1BA43
:102BC000AF49D1F83C2CD1F82C1C92B242EA014218
:102BD000FFF7B7BA4FF00042FFF7B3BA6FF0004209
:102BE000FFF7AFBAA649D1F8342CD1F8381C92B20D
:102BF00042EA0142FFF7A5BA9D499FEDA27AD1EDC5
:102C0000057AF4EEC77AF1EE10FA72DA9FED9E7A49
:102C1000F4EEC77AF1EE10FA69D99FED987A67EE73
:102C2000877AFDEEE77A17EE902AD1ED067A9FEDCE
:102C3000957AF4EEC77AF1EE10FA92B254DA9FED7B
:102C4000927AF4EEC77AF1EE10FA4BD99FED8B7AB7
:102C500067EE877AFDEEE77A17EE901A42EA0142B4
:102C6000FFF76FBA824A9FED837AD2ED117AF4EEC4
:102C7000C77AF1EE10FA31DA9FED7F7AF4EEC77A77
:102C8000F1EE10FA26D99FED7D7A67EE877AFDEE98
:102C9000E77A17EE902AFFF754BA754A9FED757AD6
:102CA000D2ED2A7AF4EEC77AF1EE10FA80F2918032
:102CB0009FED717AF4EEC77AF1EE10FA40F285805A
:102CC0009FED6E7A67EE877AFDEEE77A17EE902A2F
:102CD000FFF737BA4FF00042FFF733BA6FF0004208
:102CE000FFF72FBA6949B9E747F6FF71B6E7674AB8
:102CF0009BE747F6FF7298E7654A9FED5E7AD2ED53
:102D0000037AF4EEC77AF1EE10FA5ADA9FED5A7AA6
:102D1000F4EEC77AF1EE10FA4FD99FED587A67EECC
:102D2000877AFDEEE77A17EE902AFFF70ABA00934A
:102D300001F0CEF8574A9288151E4D4A92F8F522B6
:102D400018BF0125161E544A92F8DD22804618BF8E
:102D500001264FF40061171E504818BF012704F0E8
:102D60004FFF011E4648D0F8442CC2F3C03CD0F8B7
:102D7000202CD0F8203CD0F820EC4FEA821202F050
:102D800040020EF4807E42EA0E0242EA450242EA26
:102D9000860242EAC702C3F3001042EA4C1242EA3A
:102DA000C01218BF0121B8F1000F18BF42F0010294
:102DB000009B42EA0112FFF7C4B94FF00042FFF74F
:102DC000C0B96FF00042FFF7BCB94FF00042FFF707
:102DD000B8B96FF00042FFF7B4B93149CA78487802
:102DE0000978120442EA00220A43FFF7AAB90E202A
:102DF000009300F0B5FE009B0246FFF7A2B90D203C
:102E0000009300F0ADFE009B0246FFF79AB90C203C
:102E1000009300F0A5FE009B0246FFF792B90B203D
:102E2000009300F09DFE009B0246FFF78AB90A203E
:102E3000009300F095FE009B0246FFF782B909203F
:102E4000009300F08DFE009B0246FFF77AB9082040
:102E5000009300F085FE009B0246FFF772B9072041
:102E6000009300F07DFE009B0246FFF76AB900BFA9
:102E7000BC3600206C12034A6C1203CA00007A446C
:102E800000200140681103426F1203C20080FFFF5F
:102E9000D83D00208C3300209833002000080140EA
:102EA000A83600200620009300F05AFE009B024640
:102EB000FFF747B90520009300F052FE009B024641
:102EC000FFF73FB90420009300F04AFE009B024642
:102ED000FFF737B90320009300F042FE009B024643
:102EE000FFF72FB90220009300F03AFE009B024644
:102EF000FFF727B90120009300F032FE009B024645
:102F0000FFF71FB90020009300F02AFE009B024645
:102F1000FFF717B98949D1F83C2CD1F82C1C92B293
:102F200042EA0142FFF70DB98449D1F8342CD1F8B7
:102F3000381C92B242EA0142FFF703B9804A926F0D
:102F4000FFF7FFB87E4AD2F8E022FFF7FAB84FF455
:102F500080517C48009304F04DFE4FF4006106461A
:102F6000784804F04DFE031E74487749D0F8442C8D
:102F7000C2F3C035D1F81824D1F818E4D1F81814E8
:102F8000C1F3800CD0F8201C4FEA42124FEA012115
:102F900001F4807102F0200242EA0102684991F8CE
:102FA000DD1218BF0123003918BF012142EA430294
:102FB00042EAC1026549009B91F8F512003918BF39
:102FC000012142EA0112CEF3400E42EA850242EAB2
:102FD0008E1242EACC12D0F820CCD0F8201CCCF3D0
:102FE000001042EA4022C1F3002142EA8122002E71
:102FF00008BF42F0010242F00042FFF7A2B800937E
:10300000FEF79EF8009B0246FFF79BB8009303F083
:1030100015FE009B0246FFF794B84C491346D1F8C1
:10302000F822FFF78EB8494AD2F8B420FFF789B8E2
:10303000454AD2F81824FFF784B8414991F8DE22B6
:1030400052B1D1F8E622FFF77CB8414AD188128903
:1030500042EA0142FFF775B80323FFF772B83C4A12
:103060005188928842EA0142FFF76BB8384A518989
:10307000128842EA0142FFF764B8354AD268FFF786
:1030800060B8324A128AFFF75CB80520009300F05E
:103090005DFD009B0246FFF754B80420009300F04A
:1030A00055FD009B0246FFF74CB80320009300F04B
:1030B0004DFD009B0246FFF744B80220009300F04C
:1030C00045FD009B0246FFF73CB80120009300F04D
:1030D0003DFD009B0246FFF734B80020009300F04E
:1030E00035FD009B0246FFF72CB8009300F028FD49
:1030F000009B0246FFF725B8009300F01BFD009BE4
:103100000246FFF71EB81349FFF7FCBB47F6FF71F5
:10311000FFF7F8BB0F4AFFF7DABB47F6FF72FFF77E
:10312000D6BB47F6FF7116E447F6FF7206E4134676
:10313000FFF703B80423FFF700B800BF00200140E9
:10314000983300200008014000600040BC36002099
:10315000E03E00200080FFFFF0B5244C227887B0CD
:103160000AB907B0F0BD03F069FD214A1268801A60
:103170000928F6D91F4B204A5968157818681A890A
:1031800000F04CFE1B4B074659681A89186800F07E
:1031900055FE4FF400610646184804F023FD4FF039
:1031A00000012170022001A904F07AF84FF000001C
:1031B000ADF80C00ADF8020040F2817001900820DB
:1031C0008DF80E00062047EA06420DF10F038DF838
:1031D0000000002168468DF80150FEF775FE01A938
:1031E000074804F09BF907B0F0BD00BF8140002004
:1031F0007C4000208C3300208040002000080140EB
:1032000000640040014B1878704700BF81400020E7
:1032100000B5114889B004F095FE9FED0D7B4FF489
:1032200000724FF4827100234FF40060CDE9001367
:10323000CDE9020218236946074806938DED047B09
:1032400004F0AEFE044804F0C5FE09B000BD00BFA6
:1032500000000000010000000038004000000000F5
:1032600000B5114889B004F06DFE9FED0D7B4FF461
:1032700000724FF4827100234FF40060CDE9001317
:10328000CDE9020210236946074806938DED047BC1
:1032900004F086FE044804F09DFE09B000BD00BFA6
:1032A0000000000001000000003C004070B54848EC
:1032B0008CB004F0A1FE08A8002404F013FF01253F
:1032C0004FF400134FF4FA6208A9414808930A9298
:1032D00009948DF82C5004F00DFF3D4805F064F979
:1032E00021463B4805F04AF92946394805F04EF990
:1032F000374804F057FF01A804F088FF022601AA0E
:10330000214633480394CDE9015604F085FF214658
:103310002F48602205F082F821462D48042205F04E
:10332000DBF821462A48082205F0AEF8224621465D
:10333000274805F09BF801AA2946254804F06CFFB0
:1033400029462348602205F069F8294620480422CE
:1033500005F0C2F829461E48082205F095F82246D5
:1033600029461B4805F082F801AA3146184804F0A6
:1033700053FF31461648602205F050F83146144894
:10338000042205F0A9F831461148082205F07CF81E
:10339000224631460E4805F069F804A804F010FFF3
:1033A0004FF0005304A90A480694CDE90443ADF850
:1033B0001C4004F00BFF2146054804F01DFF294680
:1033C000034804F0F5FE024804F0E6FE0CB070BDC0
:1033D000002C014008B50D4805F0ECF80B484FF4FF
:1033E000E13105F033F90948042105F06FF90821AE
:1033F000064805F065F9054805F05CF9BDE80840A8
:10340000024840F2053105F077B900BF00440040A2
:1034100038B50546E9B20C4805F05EF941F2010401
:1034200001E0013C07D00848072105F05DF90028BC
:10343000F7D0284638BD054A13684FF0FF350133F1
:103440001360284638BD00BF00440040A44000205F
:10345000F0B52DED028B9B4D1446002285B02A60FD
:103460000E46217C0746002900F08480E168DFEDEC
:10347000966A5B1A07EE903AF8EEE77AB7EE007AB2
:1034800067EEA67AF4EEC77AF1EE10FAC4ED057A8B
:103490007AD4F0EE006AF4EEE67AF1EE10FA00F17A
:1034A0008F8004F54053A168D0ED037A94ED068A2D
:1034B000C3F85411D6F8A410C3F85C11F16BC3F82B
:1034C0006011316CC3F86411316DC3F86811716D0E
:1034D000C3F86C1137EEC88AB16DC3F87011F16D85
:1034E000C3F87411B0EEC88A316EC3ED547A83ED1F
:1034F000568AC3F878113046F0EE678A01F06CFB0B
:10350000DFED727AB4EE678AF1EE10FA0DD8DFEDD6
:10351000707AB4EEE78AF1EE10FA06D4DFED6D7A38
:10352000B4EEE78AF1EE10FA62DD304601F054FBAA
:10353000DFED697A68EE277A40F20112FDEEE77A54
:1035400000230120A4F82120237017EE901A84F89C
:1035500024000A20FEF7D0FC18EE100AFCF7A4FFA6
:1035600002465E480B4605B0BDEC028BBDE8F0405C
:1035700006F064BD5A48029306F0C8FD0122029B82
:1035800022740022E360626104F5005202F5496092
:1035900002F6984200235349A360036013608A6CCB
:1035A000C6F8A42004F53051C6F8A83034313046AE
:1035B00001F08EFBFB68A36105B0BDEC028BF0BD92
:1035C00077EEC77A9FED487A04F5325367EE877A33
:1035D00004F53051103334313046C4ED027AC3ED76
:1035E000007A05B0BDEC028BBDE8F04001F070BB85
:1035F0009FED3D0A80EE080A09F05CFD431E142B86
:1036000007464FF000023DD82070D4ED067AF4EE64
:10361000E87AF1EE10FA2ED5344884F8202006F02E
:1036200075FD2178324806F009FDA069FCF73CFFE2
:1036300002460B4618EE900ACDE90223FCF734FF50
:10364000DDE90223CDE900012A4806F0F7FC94F8F1
:1036500020302B602378234907EE903AF8EE677A02
:1036600000220123C1ED0A7A227484F8213005B0CA
:10367000BDEC028BF0BD012384F820301E4806F01B
:1036800045FDCEE7304601F0A7FA40F201130022D3
:103690000121A4F82130227084F824100A20394630
:1036A000FEF72AFC18EE100AFCF7FEFE024613484D
:1036B0000B46394605B0BDEC028BBDE8F04006F084
:1036C000BDBC00BFD8390020D1CB0B38FFFF7F7FB6
:1036D000CDCC4C3EE4CB164100007A4444D40008E3
:1036E00020D40008D83D0020DB0FC940C0D400081A
:1036F000F0D4000804D50008D8D4000880D400080D
:103700002DE9F041C24E96ED0A7A2DED028BF3EED3
:10371000057AB4EEE77AF1EE10FA84B000F3128184
:103720001D46137C14460F468046002B00F0D880BF
:10373000D3689FEDB87AEB1A07EE903AF8EEE77A85
:10374000B7EE006A67EE877AF4EEC67AF1EE10FA09
:10375000C2ED057A00F1D2809FEDAF8A96ED0A7A2C
:1037600067EE085AC5EE886A76EE866AF4EEE67A67
:10377000F1EE10FA78D4DFEDA96A27EE267AC7EECB
:10378000086A36EE867AF4EEC77AF1EE10FA00F1A6
:10379000E280084601F020FAD6ED0A7ABDEEE77A1B
:1037A00017EE103A002B40F3928104EB432303F110
:1037B000300204F13001002351F8040F9142034418
:1037C000FAD107EE103AB8EEC77A9FED956A656BAD
:1037D0009FED938ADFED938A27EE866AD5F58035D3
:1037E000C7EE066A48BF05F2FF156D120027FDEE11
:1037F000E66AC4ED076A07EE107AF8EEC75A67EE7C
:10380000886A65EEA75A6FF03F0265EE885A00217C
:1038100065EEA85AB7EE005A13E036EEC56AB4EE6C
:10382000C76AF1EE10FA03D537EE667AFDEEC77A75
:1038300017EE903A04EB830301325B6B402A194484
:1038400033D007EE902AF8EEE77A77EEA57AFDEE10
:10385000E77A17EE903A002BB8EEE77ADDDA37EE2A
:10386000267AFDEEC77AE3E7D2ED027A9FED6E7A13
:1038700077EE877A02F53253084602F53051C2EDF1
:10388000027A3431C3ED047A01F022FA94ED057A1C
:10389000D4ED0C7AB4EEE77AF1EE10FA00F3D080B2
:1038A00004B0BDEC028BBDE8F0810029B8BF7F31C8
:1038B0007F2D4FEAE1122946C8BFA5F18001E069DA
:1038C00001F68C2304EB8303121A5A605748013720
:1038D00006F0B4FB802F2BD0D6ED0A7A01358AE7AB
:1038E0005348039306F012FC039BA38500236361F6
:1038F000012323744FF07E53E560236304F53253B4
:103900000022A2601A61B06CC7F8A40004F530511F
:10391000C7F8A8203431384601F0DAF9D8F80C207D
:103920006369A261236304B0BDEC028BBDE8F08142
:1039300000220123227484F8223004B0BDEC028BF3
:10394000BDE8F0813B48152104B0BDEC028BBDE819
:10395000F04106F073BBD2ED027A9FED337A77EE39
:10396000C77A0846C2ED027AB36CC1F8A4300023CE
:10397000C1F8A83002F5325302F53051C3ED047A94
:10398000343101F0A5F994ED057AD4ED0C7AB4EE5A
:10399000E77AF1EE10FA83DDA78D002F80D096ED47
:1039A0000A7AD4ED027ADFED256AD8F87430A0687F
:1039B00027EE087A67EEA66AC6EE877AFDEEE77A0A
:1039C00017EE902A9B1ADD1305F480351D4404EB95
:1039D0008703CDED037A596B0D4405EBD5756D105A
:1039E0005D63FCF761FD2B46CDE90001039A1248A7
:1039F000394606F023FBD4ED0C7A9FED0A7AA38DAD
:103A000077EE877A013BA385C4ED0C7A48E700BFC7
:103A1000D83D0020D1CB0B38DB0FC940DB0F49412B
:103A2000000000430000003C5F975B3988D5000828
:103A300050D5000820D5000878D500080000804740
:103A400094ED026A96ED0A7A5FED046AD8F8743054
:103A5000A78D66EE266A27EE087A16EE100AC6EEE5
:103A6000877AFDEEE77A17EE902A9B1ADD1305F4AC
:103A700080351D4404EB8703CDED037A5D63FCF7CD
:103A800013FD2B46CDE90001039A1248394606F092
:103A9000D5FA9FED116A94ED0C7ADFED106AA38DD3
:103AA00037EE067AFFEE007A84ED0C7A96ED0A6A1C
:103AB00007EE103AE6EE267AB8EEC77AB4EE677AE9
:103AC000F1EE10FA3FF4ECAE0133A385E8E69FED8A
:103AD000047A7AE678D500080000003C0000004334
:103AE00000000000024B1878003818BF0120704712
:103AF0000C410020044B1B7823B1044A136843F0A7
:103B000001031360704700BF0C41002008410020F2
:103B1000014B1868704700BF08410020014B18682E
:103B2000704700BF04410020014B1868704700BF78
:103B300000410020014B1868704700BFFC40002086
:103B4000014B1868704700BFF840002005289DBF52
:103B5000024B33F8100080B200207047EC40002088
:103B60000E289ABF024B53F820000020704700BF78
:103B7000B0400020024B1878003818BF0120704771
:103B8000AC400020014B01229A637047B0400020F6
:103B900070B504464FF6FF7384B0374821806380C8
:103BA0004FF48051164604F01DF800230393039B45
:103BB0003F2B06D800BF039B01330393039B3F2B8E
:103BC000F8D940F6010501E0013D40D02B48022123
:103BD00004F00CFA0028F7D02188284804F000FAF5
:103BE00040F6010501E0013D40D02448012104F0E8
:103BF000FDF90028F7D0214804F0F4F940F601055A
:103C0000608001E0013D34D01C48802104F0EEF9D1
:103C10000128F7D000230293029B3F2B4FF00005B1
:103C20001CD915484FF4805103F0DAFF00230193AB
:103C3000019B3F2B06D800BF019B01330193019BE1
:103C40003F2BF8D963883380284604B070BD4FF00D
:103C5000FF3500230293029B3F2BE2D800BF029B5B
:103C600001330293029B3F2BF8D9DAE76FF001058D
:103C7000EFE76FF00205ECE7000C01400038004070
:103C800070B582B000230DF102024FF40041ADF88F
:103C90000230ADF80430ADF806300446FFF778FF87
:103CA0004FF40841064601AA2046FFF771FF4FF482
:103CB000084105460DF106022046FFF769FF46EA76
:103CC0000503034304D0064A136843F0040313605A
:103CD000BDF80600BDF8043043EA004002B070BDF4
:103CE0000841002028B108B5FFF7CAFF014B586012
:103CF00008BD7047B04000202DE9F04F002787B085
:103D000003ACCDE9037701943A4EDFF80CA13A4CAD
:103D1000059780464FF001090DF10E0B14F8015B79
:103D2000364BADF80A7043EAC5250DF10A02A9B277
:103D30004046FFF72DFF002849D0326842F00402C8
:103D40004FF000093260A2450BF1020BE6D1019C55
:103D50002B48002334F8022B20F813200133062BC4
:103D6000F8D12849DDF80E30C8F806300B60264936
:103D7000DDF81240BDF80E20BDF810000C60234C99
:103D8000BDF8161021600243BDF81230BDF8144092
:103D900025D1C3F30A03A02B21D11D4B9FED1D7A22
:103DA000D3ED037AB4EEE77AF1EE10FAACBF4FF43C
:103DB00030734FF420739C4211D140F21543994265
:103DC00008BF09F1FF300AD107B0BDE8F08F5A46AD
:103DD000A9B24046FFF7DCFE0028AED1B3E7054AA2
:103DE00013684FF0FF3043F00803136007B0BDE8DD
:103DF000F08F00BF08410020A0DD00080080FFFF19
:103E0000EC40002000410020FC400020F840002051
:103E1000D83D002000002042A5DD000800B587B095
:103E200001AB83E807000DF116024FF4004118467C
:103E3000FFF7AEFEBDF8160007B000BD00B587B0B5
:103E400001AB83E807000DF116024FF40841184654
:103E5000FFF79EFEBDF8160007B000BD30B585B077
:103E600004AB03E907001148002104F0C5F910482C
:103E70004FF4006103F0B4FE00230E4A1C4642F8E2
:103E8000234001330F2BFAD10B4A0C4B012515703F
:103E90001C6002F0D3FE0A4B0A4918600A4A0B4B19
:103EA0000D7014701C7005B030BD00BF002C0140B7
:103EB00000080140B0400020AC400020A840002095
:103EC000104100201641002015410020144100201F
:103ED000054B187828B1054B1878B0FA80F04009E6
:103EE000704700F0FF00704715410020AC400020F3
:103EF00000B585B004AB03E90700002211460F4866
:103F000004F012FB0D480022012104F00DFB0022F9
:103F10000A48022104F008FB0848002104F06CF96B
:103F200007484FF4006103F05DFE06480649074A62
:103F3000002303700B70137005B000BD002C01400E
:103F4000000801401641002015410020AC4000202F
:103F500070B5834B88B001AC84E807001A7812B1C1
:103F6000804D2A785ABB804D2A780AB908B070BDB6
:103F70007E4A166802F062FE0A220146304602F0CE
:103F8000C5FD0028F2D07A484FF4805103F032FE8C
:103F90000246002833D1774E3378002B40F0A980B9
:103FA00094E8070005AB03C341F2A1011A8005A8FC
:103FB0000DF11202FFF7ECFD01233370D6E702F09A
:103FC0003DFE6D4B1B68C01A0028CFDB00246B48F8
:103FD0002C7000F001FE21466948012204F0A4FA89
:103FE00001221146664804F09FFA65480122022129
:103FF00004F09AFA6248012104F0FEF8B6E70022C4
:104000002A7094E8070005AE03C641F2A101328090
:1040100005A80DF11202FFF7BBFD5A4A9FED5A7A2F
:10402000D2ED037A94E80700B4EEE77AF1EE10FAE5
:1040300005AD03C5A8BF4FF44B513280B8BF4FF454
:104040004A510DF1120205A8FFF7A2FD94E80700FE
:1040500005AD03C542F61541328005A80DF11202E7
:10406000FFF796FD2046FFF747FE484A48490028DB
:104070000CBF0120002010600868464950600968A4
:104080004548916000684549D060488880B2106119
:10409000888880B25061C888414980B29061D1F867
:1040A0000408D061D1F80C081062D1F808085062F9
:1040B000D1F8040C9062D1F80C0CD062D1F8080C45
:1040C0001063A1F55041D1F8081851633AD128483E
:1040D0004FF4805103F08EFD002833D0204B012493
:1040E0001C7002F0ABFD244A1E4B143010601C7093
:1040F0003CE7264B009220461A60FFF7C1FD234B98
:1041000027495860D1F80408D861D1F80C08186222
:10411000D1F808085862D1F8040C9862D1F80C0C58
:10412000D862D1F8080C1863A1F55041009AD1F873
:10413000081859630B4B20201A70FCF7F9FF009AFE
:104140002A7013E7074B002220201A70FCF7F0FFBB
:104150000123ADF8083094E80700FFF7C9FE05E732
:1041600015410020AC4000201641002010410020E5
:104170000008014014410020A8400020BC36002067
:10418000002C0140D83D002000002042B04000201B
:1041900000410020FC400020F8400020EC400020BE
:1041A00000000140F0B589B001AC84E8070094E854
:1041B000070005AE03C64FF40041328005A80DF19B
:1041C00012021F46FFF7E4FC94E8070005AB03C3A7
:1041D00032804FF408410DF1120205A8BDF81250CB
:1041E000FFF7D6FCBDF8124054EA05031FD12B0798
:1041F00043D46F0746D4AE0749D4ED074CD46005CD
:104200004FD4A10552D4E20555D4230658D46706ED
:104210005BD4A6065ED4E50661D4200764D46107AA
:1042200067D4A2076AD4E3076DD409B0F0BD3B4858
:10423000394605F003FF6A056BD4AB0502D5384853
:1042400005F0FCFEEF0502D5364805F0F7FE2E0618
:1042500002D5354805F0F2FE680602D5334805F070
:10426000EDFEA90602D5324805F0E8FEEA06BED505
:10427000304805F0E3FE2B07BBD52F4805F0DEFEE6
:104280006F07B8D52D4805F0D9FEAE07B5D52C4837
:1042900005F0D4FEED07B2D52A4805F0CFFE600543
:1042A000AFD5294805F0CAFEA105ACD5274805F0D1
:1042B000C5FEE205A9D5264805F0C0FE2306A6D511
:1042C000244805F0BBFE6706A3D5234805F0B6FEDB
:1042D000A606A0D5214805F0B1FEE5069DD52048EB
:1042E00005F0ACFE20079AD51E4805F0A7FE610731
:1042F00097D51D4805F0A2FEA20794D51B4805F0EE
:104300009DFEE30791D51A4809B0BDE8F04005F0DD
:1043100095BE184805F092FE8FE700BF94D50008BF
:10432000B4D50008C0D50008C8D50008D0D500080D
:10433000D8D50008E4D50008F0D50008FCD5000861
:1043400008D6000814D6000820D6000828D6000891
:1043500030D6000838D6000840D6000848D60008F5
:1043600054D6000860D600086CD6000878D600083D
:1043700084D60008A8D500082DE9F04389B001AC27
:1043800084E80700784F794A794D7A4900233B60E9
:104390002B601360784A1360784A13601A4621F83C
:1043A00013200133062BFAD1FCF794FE744BDFED9A
:1043B000757A93ED037AB4EEE77AF1EE10FA25D828
:1043C000DFF8CC91704801234FF4006189F8003088
:1043D00003F006FC0A2002F019FC2046FFF750FC0F
:1043E00028602B68002B40F0AB8005AB94E80700F9
:1043F0001D4603C30DF112081A8041F2A101424685
:104400002846FFF7C5FB4FF44B5323E0DFF88091BC
:104410005D4801234FF4006189F8003003F0E0FBB0
:104420000A2002F0F3FB2046FFF72AFC28602B68E5
:10443000002B7FD105AB94E807001D4603C30DF1A7
:1044400012081A8041F2A10142462846FFF7A0FB5C
:104450004FF44A5394E807002E4603C619463280AB
:1044600028464246FFF794FB484800F007FB94E8D3
:1044700007002B4603C3328042F6154142462846C8
:10448000FFF786FB94E807002B4603C341F2A10126
:10449000328028464246FFF77BFB012002F0B6FB44
:1044A0003A4800F0EBFA38484FF4805103F0A2FB91
:1044B00018B93B6843F010033B602046FFF71CFC33
:1044C00028B931484FF4805103F094FBD8B994E8EF
:1044D00007002B4603C341F2A1011A802846424639
:1044E000FFF756FB012002F091FB27484FF4805163
:1044F00003F080FB50B32046FFF7FEFB30BB3B6868
:1045000023F008033B6020484FF4805103F072FB16
:104510000346E0B194E807000024FFF7E9FC89F8BE
:104520000040FCF7D7FD194800F0A8FA204609B072
:10453000BDE8F0833A6842F0020205AB3A607AE7E0
:104540003A6842F0020205AB3A604FE700232020B0
:1045500089F80030FCF7ECFD94E80700FFF7C8FC91
:104560004FF0FF30E3E700BF08410020004100208A
:1045700004410020EC400020FC400020F8400020D6
:10458000D83D00200000204200080140BC36002039
:104590000C41002008B50C21002003F079FB4FF4FA
:1045A00080500222002103F0F1F8BDE808404FF4EA
:1045B000805003F043B900BF044A072928BF0721F0
:1045C0000023C0E901210370704700BF00C0030849
:1045D00010B5044603F038F940F2073003F09CFAB6
:1045E000606803F065F90123237010BD84B00DF1FC
:1045F000100C0CE907000298049900EB830004B04A
:1046000003F0F6B984B00DF1100C0CE90700029824
:10461000049900EB830004B003F0EAB984B00DF113
:10462000100C0CE90700029810EE101A00EB830042
:1046300004B003F0DDB900BF00B583B0019003F012
:1046400023F901980023037003B000BD84B00DF17D
:10465000100C0CE9070051F8230004B0704700BFAC
:1046600084B00DF1100C0CE9070051F8230004B0E0
:10467000704700BF84B00DF1100C0CE9070001EB8E
:10468000830292ED000A04B0704700BF08B590EDB8
:10469000167AD0ED186A1C4BF7EE007A2DED048BDC
:1046A00037EEC77A9FED199AD0ED178A1968184826
:1046B00027EE097A77EEE88A37EEE68AFCEEC77ACB
:1046C00017EE902AC9B903F0D1FE1148012168EE16
:1046D000898AFCEEE87A17EE902A03F0C7FE68EEAE
:1046E000097ABDEC048BFCEEE77ABDE80840084887
:1046F00017EE902A022103F0B9BE012103F0B6FEA5
:1047000003480021E3E700BFD83900200000FA4445
:10471000002C014038B5484B1C680546002C7ED162
:104720002146464802F08AFD0346AB6044482146D4
:1047300002F084FD03464148EB60022102F070FD67
:104740004048022102F06CFD40F6010401E0013C0A
:1047500050D03A48042102F085FD0028F7D040F6F9
:10476000010401E0013C45D03648042102F07AFD05
:104770000028F7D03148042102F07AFD31480421A5
:1047800002F076FD00212F4802F058FDAA68D5F806
:104790009810EB68D5ED1C6ADFED2B5A2861521A90
:1047A00007EE102AD5F89C2007EE900A9B1AB8EE67
:1047B000E76A07EE903AB8EEC77AF8EEE77A27EEA6
:1047C000267A67EEA67AD5F8F83285ED067AF1EE0C
:1047D000476A26EE256A76EEE76A0122013385F8FC
:1047E000F52285ED086AC5ED077AC5ED056AC5F8BD
:1047F000F83238BD1148042102F03AFD1148042175
:1048000002F036FDD5F8FC320022013385F8F5229E
:10481000C5F8FC328020BDE83840FCF789BC002197
:10482000074802F00BFD0346AB600448002102F08C
:1048300005FD03467FE700BFD83900200024014072
:1048400000280140003C01401833533C00B52DEDD9
:10485000028B87B0CDE90210CDED050A8DED041A6B
:104860000192F0EE408A01F085FBB0EE408AB0EE96
:10487000680A01F059FBF6EE007A67EEC06ADFEDD8
:10488000175A9FED176A9DED041ADDED050A03988E
:104890000299019A67EEC87AB0EE667AA8EE257A98
:1048A000E8EE656AF0EE675AE0EE065AE0EE467A08
:1048B00021EE477A21EE400A21EE661AA8EE200A80
:1048C000A5EEA07AA7EEA01A80ED000A81ED007A8D
:1048D00082ED001A07B0BDEC028B00BDD7B35DBFFF
:1048E000D7B35D3F00B52DED028B87B0CDE9011048
:1048F000CDED050A8DED041ACDED031AF0EE408AD8
:1049000001F038FBB0EE408AB0EE680A01F00CFB13
:10491000B6EE007A67EE486A27EE407ADFED185A65
:104920009FED186A9DED041ADDED050ADDED031A11
:1049300002980199F0EE667AB0EE475AA8EE065A50
:10494000E0EE257AA8EE467A67EE817A21EE451AE6
:10495000E0EE656AE8EE207AA0EE601AE6EEA17A53
:10496000A7EE611A9FED086A67EE867A21EE061AB5
:10497000C0ED007A81ED001A07B0BDEC028B00BDDE
:10498000D7B35D3FD7B35DBFABAA2A3F00B52DEDCE
:104990000A8BB0EE609A85B0F0EE418AF0EE40AA44
:1049A000B0EE611AF0EE680AB0EE490AB0EE618A24
:1049B0000192CDE9021001F059FAB0EE481AF0EE7A
:1049C000680AB0EE40AAB0EE490A01F037FA3AEEB2
:1049D00000AAF6EE009AAAEE699ADFED24BA9FEDDE
:1049E00024CA9FED24BA29EE299AF0EE4C0A29EE4A
:1049F0002B9A89EE2A0A9FED209A30EE0B0A01F0DD
:104A00000DFAF0EE490A01F011FAEAEE698A03980C
:104A100080ED000A68EEA98AF0EE4C0A68EEAB8AD7
:104A200088EEAA0A30EE0B0A01F0F8F9F0EE490A16
:104A300001F0FCF9AAEE698A029981ED000A28EEDC
:104A4000298AF0EE4C0A28EE2B8A88EE2A0A30EEEC
:104A50000B0A01F0E3F9F0EE490A01F0E7F9019AD7
:104A600082ED000A05B0BDEC0A8B00BD3333933FE5
:104A700000000000D7A3F03ED7A3703FF8B54FF079
:104A80007C538365C36503660446FFF7FFFD00267C
:104A90004FF47A7537462046FFF73CFED4E90223EF
:104AA000013D17441E44F6D1064B83FB0721FA173C
:104AB000C2EBA11283FB0631F317C3EBA113C4E9C8
:104AC0002623F8BDD34D62102DE9F843344A354B07
:104AD000DFED356ADFED355A2DED028BC267C0F888
:104AE000802093ED027A324AC0F8842066EEC76ACD
:104AF000F7EE007AB0EE676AA6EEA56A2D4ADFED02
:104B00002E6A1268C0F8C82027EE267AC7EE866A99
:104B100080ED1D7A77EEE67A80ED1E7AC0ED227A7E
:104B20009FED267AD3ED037AF4EEC77AF1EE10FA10
:104B300033D8234BDFF89C90DFED228A9FED228A49
:104B4000224F03674FF0804800F1F405002400264F
:104B500007EE904AF8EEE77A013467EEA87AC7EEDE
:104B6000887A17EE900AFBF79FFC41EC100B07F0D8
:104B700017FF424651EC100B4B46FBF7EDFC32465B
:104B80003B46FBF733FBFBF7DFFF802C45F8040BBC
:104B9000DED1BDEC028BBDE8F8830D4BCAE700BF48
:104BA000EC51383DD83D0020D1CB0B38DB0FC9404C
:104BB000BD74933BD839002017B7D138000020428C
:104BC000FFFFA43C000000BC6F12033D0000F03F5B
:104BD000FFFF243D3333F33F10B54FF47A720446A0
:104BE0000021164803F042FC14484FF47A72012168
:104BF00003F03CFC4FF47A721048022103F036FCBB
:104C000000230022C4F8A430C4F8A830C4F8AC30A3
:104C1000C4F8B030E36323646361A361E361636458
:104C2000C4F89030C4F88C3063652365C4F8E8306C
:104C3000C4F8EC20C4F8002310BD00BF002C0140D4
:104C400090ED397AD0ED387A90ED3A0ADFED1E0A10
:104C500077EEC77A90ED217A10B5A7EE270A82B0D9
:104C6000044680ED3A0A01F0E1F8184BD3ED060A4C
:104C7000F1EE600A01F0D2F894ED3C7A84ED3A0A44
:104C800060EE407A84ED290AE7EE077AF5EE407A85
:104C9000F1EE10FA11D4F1EEE70A94ED2A0ACDED07
:104CA000010A01F0C3F8DDED010AF1EE600A01F03E
:104CB000B5F884ED2A0A02B010BDB0EE670A07F01D
:104CC000BFFEF0EE400AE8E700000000D83D0020FB
:104CD00030B52DED028B91ED170A4B6EB04D91ED75
:104CE000186AD1ED036AD0ED071A90ED061AD0EDDF
:104CF000050A83B080ED0B0A436395ED117AC6EE89
:104D0000077A044600F140013C30C4ED0C7A95ED81
:104D1000117AC6EE877AC4ED0A7AFFF7E3FD9FEDBC
:104D2000A15A94ED087ADFEDA05AD4ED097A94EDFA
:104D3000106AD4ED0F6A94ED114AD4ED124A27EEB1
:104D4000057A26EE056AA7EEA57ADFED987A84ED5E
:104D5000097A66EE856A67EE277A9FED955A9FED90
:104D6000957AA4EE256AE4EEA56A67EE857ADFED12
:104D7000925A94ED2B5A84ED116A67EEA57AD4ED20
:104D8000295AC4ED387A75EEC57AC4ED126A95EDEC
:104D9000030AF4EEC77AF1EE10FA84ED3C0A00F350
:104DA000F080DFED866AF4EEE67AF1EE10FA00F1BB
:104DB000E28094ED2C6AD4ED2A7ADFED7E6AC4EDB0
:104DC0002B5A37EEC67AB4EEE67AF1EE10FA00F31B
:104DD000D5809FED7A5AB4EEC57AF1EE10FA00F163
:104DE000C78004F1A801C4ED295A04F1A400C4ED60
:104DF0002C7AC1ED007A01F051F8D4ED0F6AD4EDB0
:104E0000298A94ED1D7A94ED230ADFED6D7A94EDF5
:104E10002A8AD4ED380A78EEE68AA7EE280A94EDBD
:104E2000107A30EE270A38EE478A84ED140A00F033
:104E3000FDFFD4ED380AF1EE600A00F0EFFFD4ED8B
:104E40001F6A94ED1D7AD4ED237AD4ED380A84EDEF
:104E5000140A27EE267AE7EE287AB0EE670AC4ED48
:104E6000237A00F0E3FFD4ED380AF1EE600A00F097
:104E7000D5FFD4ED147AD4ED380A84ED230A67EE19
:104E8000E77AE0EEA07AF5EE407AF1EE10FA7BD404
:104E9000F1EEE78A94ED240AD4ED1E7AD4ED206A6F
:104EA000B0EE407AA7EE887A67EEA67ADFED446A24
:104EB000A7EE880A77EE267A84ED240AC4ED157AE7
:104EC00000F0B4FFD4ED380AF1EE600A00F0A6FF5E
:104ED000F0EE406A94ED150A94ED147AC4ED246A5C
:104EE00060EE007AF0EE680AE7EE077AB1EEE77A54
:104EF00084ED397A00F09AFFF1EE680A00F08EFF37
:104F0000F0EE407A04F1540194ED380AC4ED157ABC
:104F100004F1500000F0C2FFDFED2A7A94ED0D7A23
:104F200094ED0B0A94ED151AD4ED140AA7EE270A96
:104F300004F16C0204F1680104F16400FFF786FCDF
:104F400004F15800D4ED1B1A94ED1A1AD4ED190A85
:104F500094ED380A04F1600204F15C01FFF716FDDC
:104F6000204603B0BDEC028BBDE83040FFF78EBB9E
:104F700076EE667A35E775EE475A1AE776EE267AC8
:104F80002FE775EE075A14E7B0EE670ACDED010A78
:104F900007F056FDDDED010AF0EE408A7AE700BF2A
:104FA000D83D0020CDCCCC3D6666663F3333933F81
:104FB000D7A3703F0AD7233C3ACD133F0AD723BC6F
:104FC00000000000BAB1513810B590ED330AD0EDB1
:104FD0000A7A044630EE670A82B0F6EE000A00F064
:104FE00025FFFEEE000A00F019FFD4F8003342F26C
:104FF0002732934246D807EE903A9FED247AF8EE96
:10500000E77AC7EE875A224B94ED357AD4ED377A9A
:1050100094ED0C6AD4ED3C6AE7EE007A94ED347AB4
:1050200037EE467A94ED366AE6EE077AF1EE040A38
:1050300076EEE06A93ED117AB0EE670AD3ED0E7A60
:10504000E6EEA50A67EE877ACDED010A80EE270A23
:1050500000F0ECFEDDED010AF1EE600A00F0DEFE8C
:10506000D4F8003384ED2A0A42F2273293424FF0FB
:10507000000198BF0133C4F8A41098BFC4F80033EE
:1050800002B010BDF7EE005ABDE700BF00A00C460D
:10509000D83D002000230022C0F8DC30C0F8D43016
:1050A000C0F8D830C0F8CC30C0F8D030C0F8A83044
:1050B000C0F80023704700BF08B50B4801F078FB2B
:1050C00070B1094801F0A8FB38B1074801F008FDAC
:1050D000054801F049FC013808BD034801F000FD16
:1050E0004FF0FF3008BD00BFC039002010B54FF4AD
:1050F000805182B00A4802F07DFD0446FCF720F89A
:10510000084A094B094992F8F52293F8DD3289885B
:105110000092221E18BF012201F0E6FC02B010BD71
:1051200000080140BC360020983300208C3300205A
:1051300010B503780446052B2AD8DFE803F02703CF
:105140002A2927271B4B1A8918685968FEF7D0FEB1
:10515000194B93F82220CAB91849194A0968916273
:1051600003F50053174893F848CFD3F84C3F16493E
:10517000C0F800C04FF400724361183005F034F8F5
:10518000114912484FF4007205F02EF80123E37024
:1051900010BD084B0122C270186859681A89FEF7C1
:1051A000A7FE0B48FFF718FDBDE810400848FFF7C1
:1051B00071BF00BF8C33002010020020543100204A
:1051C000D83D0020D8390020603100207434002000
:1051D000BC36002008B50D4804F098FF0C4804F0D8
:1051E00095FF0C4804F092FF0B4804F08FFF0B482A
:1051F00004F08CFF0A4804F089FF0A4804F086FF97
:10520000BDE80840084804F081BF00BF48D300084B
:1052100090D600089CD60008B0D60008CCD600086E
:10522000DCD60008F4D6000810D7000830B56C486A
:105230006C4C6D4D85B004F001FF6C486C4B6D4AB1
:105240006D49CDE900046D4C6D4804F0F7FE6D48E2
:1052500004F05CFF606CFBF727F96B4A6B4B009521
:10526000CDE902016A496B4804F0E8FEA06BFBF748
:105270001BF9694A654B0095CDE902016749684809
:1052800004F0DCFE674804F041FFA068FBF70CF96E
:10529000654B664A0093CDE90201654B6549664856
:1052A00004F0CCFEE068FBF7FFF8644B644A00931F
:1052B000CDE90201634B64495F4804F0BFFE206DF5
:1052C000FBF7F2F82B46CDE90201604A00956049F0
:1052D000594804F0B3FEA06DFBF7E6F82B46CDE984
:1052E00002015C4A00955C4953485C4D04F0A6FEFF
:1052F000E06DFBF7D9F85A4B5A4A0093CDE9020109
:10530000504B59494C4804F099FE206EFBF7CCF8FD
:10531000564B574A0093CDE902014A4B554946483E
:1053200004F08CFEA069FBF7BFF8534B534A00937F
:10533000CDE90201434B52493F4804F07FFE206A09
:10534000FBF7B2F84F4B504A0093CDE902012F4BC7
:105350004E49394804F072FE606AFBF7A5F84C4BE1
:105360004C4A0093CDE90201364B4B49324804F0D8
:1053700065FEA06C494CFBF797F8CDE9020148495E
:10538000304B484A00912C48474904F057FE4748A3
:1053900004F0BCFE6368464A46494748CDE90053DD
:1053A0001A4B04F04BFEA3680193444A174B44493F
:1053B0000095414804F042FEE068424B424A4349AE
:1053C000CDE90030114B424804F038FE414804F06A
:1053D00035FE414805B0BDE8304004F02FBE00BFA7
:1053E00028D700087CD70008D0D700088CD7000841
:1053F00044D7000848D7000854D70008D83D0020FB
:105400005CD7000890D70008A0D700089CD70008F8
:10541000ACD70008B0D70008D4D70008ECD70008F4
:10542000F0D7000810D8000860D8000824D8000879
:1054300020D800083CD8000840D8000884D80008CC
:105440006CD8000868D8000880D800088CD80008FC
:10545000A8D80008ACD80008CCD80008E8D90008C3
:10546000F0D80008D0D80008ECD800081CD90008F3
:10547000F8D8000818D900083CD9000820D900083D
:1054800038D9000864D9000844D9000860D9000858
:1054900084D9000868D9000880D90008D8390020CC
:1054A000A8D900088CD90008A4D90008B0D90008F0
:1054B000BCD90008C4D90008C8D90008ECD9000834
:1054C000F8D900083CDA0008FCD900081CDA00080A
:1054D00020DA000844DA000890DA000800B5037802
:1054E00083B0042B18D8DFE803F025190817030050
:1054F00003B05DF804EBFFF799BE0190FFF7F6FDEE
:105500000146002856D13348C0F8B810FFF764FBB5
:10551000FEF7DEFC002854D003B000BD0190FFF779
:10552000E5FD034658B1019A002101235170D37063
:1055300003B000BD03B05DF804EBFFF74BBE254A96
:105540002548DFF8A0C02549D2F8B420DCF828E0CF
:10555000A0F8213080F824300374826200F50050F6
:105560000A6880F8482F4A69C0F84C2F00F6447C3E
:1055700018314FF4007200F57560CCF800E001932B
:1055800004F032FEDFF860C0019BCCF8D8304FF455
:10559000007219460CF1DC0004F0D9FD1049019AA3
:1055A000088960F30F020868496803B05DF804EBEE
:1055B000FEF754BC0620FCF79FFC0648FFF76AFD87
:1055C000B1E7074B1989024661F30F021868596861
:1055D000EBE700BFBC36002010020020D8390020C5
:1055E0008C330020D83D002098330020F0B5837B19
:1055F00083B00446002B68D1437822789A4240F069
:105600008480022B00F08B80052B00F0BA80012BE8
:1056100059D1B04A0193106851681289FEF798FC7D
:10562000FEF756FC0546002800F0CE80AA4B93F802
:105630002130002B00F02F81A74B93F82230002B54
:1056400000F03A81A44D95F82430002B40F0F4800E
:10565000A14BA24EDB6996ED1A7AA14F9FEDA10AEC
:105660007B615A4207EE902AF8EEE77AF7EE000ADD
:1056700067EE877A1D4627EE800A07F065F9DFEDB1
:105680009A7A60EE277A17EE900AFAF70DFF0B462A
:1056900002462946954804F0D1FC95494FF4007222
:1056A00006F1DC0004F0A0FD91494FF4007207F10F
:1056B000180004F099FDFFF7FFFC002840F0068178
:1056C00000236370E37003B0F0BD824B1868596823
:1056D0001A89FEF73DFC87484FF4805102F08AFAA0
:1056E0000546FEF7F5FB002854D1238A40F6B73271
:1056F000591C93422182E6D9227800230121A37309
:1057000023826370E170002ADDD02046FFF710FD90
:10571000E378002B7BD12378022B7FF475AF6D4BA0
:10572000186859681A89FEF713FCFEF7D1FB0028A8
:10573000C9D06B4BDA68002A05DD6F49D1F8B81083
:105740008A42C0F2B280FFF7D1FC002865D16A48D6
:10575000FFF73AFC6848FFF773FA60496648FFF7BD
:10576000B7FA6378022BAED15D4BDB68002BAADD64
:105770006149D1F8B8209342A5DB0132C1F8B820C5
:10578000A1E75D4B5548D3F8B41003B0BDE8F04035
:1057900000F04CBF514A92F8DD22002AA5D0564AAB
:1057A00092F8F522002AA0D04A4B002D9DD000226D
:1057B0004FF4F0709A80FBF7C9FC00220121637856
:1057C000A2732282E17018E74B4A434BD2F8B4200F
:1057D000986A41F27071121A8A427FF674AF022100
:1057E0000620FCF789FB3B4B198918682A4661F3B0
:1057F0000F025968FEF77CFB3749019B81F8243082
:1058000040F20112A1F821206570E3705BE7637834
:1058100023702046FFF762FE7DE701460620FCF775
:105820006BFB2C4B1A8918685968FEF761FB002244
:1058300001236270E37046E73049294BD1ED007ACD
:105840002F4905F50052C1ED0A7A92F8481FCDEDB7
:10585000017A1960D2F84C6F5E6103F1180002F50D
:1058600075614FF4007204F0BFFC1C48DDED017A55
:105870002449C0ED1A7AC0F8D8604FF40072DC30C9
:1058800004F0B2FC204804F041FC002385F82430E9
:105890006370E37017E718491048D1F8B4300E4A26
:1058A00003B0BDE8F040FDF7D3BD0520FCF724FBB5
:1058B0001148FFF7EFFBB4E70F490848D1F8B430BF
:1058C000054A03B0BDE8F040FDF71ABF0F4804F0E9
:1058D0001DFCF5E68C3300201002002098330020D8
:1058E000D839002000008037DB0FC940F4DA000807
:1058F000442C002000080140BC3600205431002018
:10590000D83D0020F0390020BCDA000808DB000890
:1059100038B5417BA1F161030446172B19D8DFE8A4
:1059200013F028004700660085001800A000BF00A3
:10593000DA00F900180004011F013E0118001800E8
:1059400049011800180018006801180073011800B8
:105950009201CC4804F072FB251DFFF7ADFB002837
:1059600040F08C81FFF762FC0023A38163606B60D1
:1059700038BD051D284602F09AFF51EC100BFBF7CD
:10598000E3F8F3EE040A00EE100A07F04FFBDFED38
:10599000BE0A07F023FBBD4B10EE100A83ED120A7E
:1059A000FAF782FD02460B46B94804F047FBD4E7FC
:1059B000051D284602F07BFF51EC100BFBF7C4F8E5
:1059C000DFEDB40A00EE100A07F030FBDFEDB20A9B
:1059D00007F004FBAD4B10EE100A83ED020AFAF754
:1059E00063FD02460B46AD4804F028FBB5E7051DF4
:1059F000284602F05CFF51EC100BFBF7A5F8DFED39
:105A0000A80A00EE100A07F011FBDFED9F0A07F06D
:105A1000E5FA9E4B10EE100A83ED090AFAF744FDF1
:105A200002460B469F4804F009FB96E7051D2846F1
:105A300002F03DFF51EC100BFBF786F8DFED920A08
:105A400000EE100A07F0CAFA904B10EE100A83ED30
:105A5000180AFAF729FD02460B46934804F0EEFABD
:105A60007BE7051D284602F022FF51EC100BFBF7E7
:105A70006BF8DFED8E0A00EE100A07F0D7FADFEDC3
:105A8000820A07F0ABFA814B10EE100A83ED060A8A
:105A9000FAF70AFD02460B46854804F0CFFA5CE7A8
:105AA000051D284602F003FF51EC100BFBF74CF8E4
:105AB000DFED800A00EE100A07F090FA734B10EE4B
:105AC000100A83ED110AFAF7EFFC02460B467A48FA
:105AD00004F0B4FA41E7051D284602F0E8FE51EC57
