:020000040800F2
:1000000000000120BD4B0008792600087D2600086D
:100010008926000895260008A12600080000000097
:10002000000000000000000000000000AD260008F5
:10003000B126000800000000B5260008B926000817
:100040000D4C00080D4C00080D4C00080D4C00082C
:100050000D4C00080D4C00080D4C00080D4C00081C
:100060000D4C00080D4C00080D4C00080D4C00080C
:100070000D4C00080D4C00080D4C00080D4C0008FC
:100080000D4C00080D4C00080D4C00080D4C0008EC
:10009000BD2600080D4C00080D4C00080D4C000852
:1000A0000D4C0008DD2600080D4C00080D4C000822
:1000B0000D4C00080D4C00080D4C00080D4C0008BC
:1000C0000D4C00080D4C00080D4C00080D4C0008AC
:1000D0000D4C00080D4C0008752700080D4C000859
:1000E000312700080D4C00080D4C00080D4C00088D
:1000F0000D4C00080D4C00080D4C00080D4C00087C
:100100000D4C00080D4C00080D4C00080D4C00086B
:100110000D4C00080D4C00080D4C00080D4C00085B
:100120000D4C00080D4C00080D4C00080D4C00084B
:1001300001F0FF01102A2BDB10F0070F08D010F898
:10014000013B013A8B422DD010F0070F42B3F6D19C
:10015000F0B441EA012141EA014122F007047FF0B5
:1001600000070023F0E80256083C85EA010586EA0C
:10017000010685FA47F5A3FA87F586FA47F6A5FA48
:1001800087F68EB9EED1F0BC01F0FF0102F0070254
:1001900032B110F8013B013A83EA010313B1F8D1FF
:1001A0000020704701387047002D06BF35460338E0
:1001B000073815F0010F07D1013015F4807F02BF19
:1001C000013015F4C03F0130F0BC0138704700BF6A
:1001D000034613F8012B002AFBD1181A0138704787
:1001E00081F0004102E000BF83F0004330B54FEAE8
:1001F00041044FEA430594EA050F08BF90EA020F55
:100200001FBF54EA000C55EA020C7FEA645C7FEAE7
:10021000655C00F0E2804FEA5454D4EB5555B8BF0A
:100220006D420CDD2C4480EA020281EA030382EA7B
:10023000000083EA010180EA020281EA0303362D0D
:1002400088BF30BD11F0004F4FEA01314FF4801CE0
:100250004CEA113102D0404261EB410113F0004FF2
:100260004FEA03334CEA133302D0524263EB4303A9
:1002700094EA050F00F0A780A4F10104D5F1200E47
:100280000DDB02FA0EFC22FA05F2801841F10001A2
:1002900003FA0EF2801843FA05F359410EE0A5F176
:1002A00020050EF1200E012A03FA0EFC28BF4CF0A7
:1002B000020C43FA05F3C01851EBE37101F000455D
:1002C00007D54FF0000EDCF1000C7EEB00006EEB6A
:1002D0000101B1F5801F1BD3B1F5001F0CD34908F4
:1002E0005FEA30004FEA3C0C04F101044FEA44524B
:1002F00012F5800F80F09A80BCF1004F08BF5FEAD2
:10030000500C50F1000041EB045141EA050130BDB1
:100310005FEA4C0C404141EB0101013C28BFB1F5C3
:10032000801FE9D291F0000F04BF01460020B1FA0E
:1003300081F308BF2033A3F10B03B3F120020CDAE1
:100340000C3208DD02F1140CC2F10C0201FA0CF0BF
:1003500021FA02F10CE002F11402D8BFC2F1200C24
:1003600001FA02F120FA0CFCDCBF41EA0C019040DA
:10037000E41AA2BF01EB0451294330BD6FEA040423
:100380001F3C1CDA0C340EDC04F11404C4F120020E
:1003900020FA04F001FA02F340EA030021FA04F320
:1003A00045EA030130BDC4F10C04C4F1200220FA77
:1003B00002F001FA04F340EA0300294630BD21FAB5
:1003C00004F0294630BD94F0000F83F4801306BF7B
:1003D00081F480110134013D4EE77FEA645C18BF6F
:1003E0007FEA655C29D094EA050F08BF90EA020F06
:1003F00005D054EA000C04BF1946104630BD91EAFE
:10040000030F1EBF0021002030BD5FEA545C05D100
:100410004000494128BF41F0004130BD14F580043F
:100420003CBF01F5801130BD01F0004545F0FE41B3
:1004300041F470014FF0000030BD7FEA645C1ABFE8
:10044000194610467FEA655C1CBF0B46024650EA1F
:10045000013406BF52EA033591EA030F41F400214B
:1004600030BD00BF90F0000F04BF0021704730B5D1
:100470004FF4806404F132044FF000054FF00001A6
:1004800050E700BF90F0000F04BF0021704730B567
:100490004FF4806404F1320410F0004548BF40423C
:1004A0004FF000013EE700BF42004FEAE2014FEA91
:1004B00031014FEA02701FBF12F07F4393F07F4F6C
:1004C00081F06051704732F07F4208BF704793F06F
:1004D0007F4F04BF41F40021704730B54FF4607482
:1004E00001F0004521F000411CE700BF50EA010285
:1004F00008BF704730B54FF000050AE050EA01022E
:1005000008BF704730B511F0004502D5404261EB9D
:1005100041014FF4806404F132045FEA915C3FF4DE
:10052000D8AE4FF003025FEADC0C18BF03325FEA7B
:10053000DC0C18BF033202EBDC02C2F1200300FA2C
:1005400003FC20FA02F001FA03FE40EA0E0021FA51
:1005500002F11444BDE600BF70B54FF0FF0C4CF43F
:10056000E06C1CEA11541DBF1CEA135594EA0C0FF1
:1005700095EA0C0F00F0DEF82C4481EA030621EA2C
:100580004C5123EA4C5350EA013518BF52EA033567
:1005900041F4801143F4801338D0A0FB02CE4FF019
:1005A0000005E1FB02E506F00042E0FB03E54FF049
:1005B0000006E1FB03569CF0000F18BF4EF0010E41
:1005C000A4F1FF04B6F5007F64F5407404D25FEA3D
:1005D0004E0E6D4146EB060642EAC62141EA5551F0
:1005E0004FEAC52040EA5E504FEACE2EB4F1FD0C32
:1005F00088BFBCF5E06F1ED8BEF1004F08BF5FEAB0
:10060000500E50F1000041EB045170BD06F0004661
:1006100046EA010140EA020081EA0301B4EB5C040E
:10062000C2BFD4EB0C0541EA045170BD41F4801106
:100630004FF0000E013C00F3AB8014F1360FDEBF2B
:10064000002001F0004170BDC4F10004203C35DA07
:100650000C341BDC04F11404C4F1200500FA05F38A
:1006600020FA04F001FA05F240EA020001F000422B
:1006700021F0004110EBD37021FA04F642EB0601A1
:100680005EEA430E08BF20EAD37070BDC4F10C04CB
:10069000C4F1200500FA04F320FA05F001FA04F28F
:1006A00040EA020001F0004110EBD37041F100017B
:1006B0005EEA430E08BF20EAD37070BDC4F1200586
:1006C00000FA05F24EEA020E20FA04F301FA05F2EE
:1006D00043EA020321FA04F001F0004121FA04F296
:1006E00020EA020000EBD3705EEA430E08BF20EA66
:1006F000D37070BD94F0000F0FD101F000464000A0
:1007000041EB010111F4801F08BF013CF7D041EA21
:10071000060195F0000F18BF704703F00046520025
:1007200043EB030313F4801F08BF013DF7D043EAF6
:100730000603704794EA0C0F0CEA135518BF95EAAC
:100740000C0F0CD050EA410618BF52EA4306D1D133
:1007500081EA030101F000414FF0000070BD50EA52
:10076000410606BF1046194652EA430619D094EADC
:100770000C0F02D150EA013613D195EA0C0F05D1C6
:1007800052EA03361CBF104619460AD181EA03011A
:1007900001F0004141F0FE4141F470014FF00000D2
:1007A00070BD41F0FE4141F4780170BD70B54FF06D
:1007B000FF0C4CF4E06C1CEA11541DBF1CEA1355ED
:1007C00094EA0C0F95EA0C0F00F0A7F8A4EB0504CF
:1007D00081EA030E52EA03354FEA013100F08880C6
:1007E0004FEA03334FF0805545EA131343EA12638F
:1007F0004FEA022245EA111545EA10654FEA002644
:100800000EF000419D4208BF964244F1FD0404F5FC
:10081000407402D25B084FEA3202B61A65EB030558
:100820005B084FEA32024FF480104FF4002CB6EB15
:10083000020E75EB030E22BFB61A754640EA0C0095
:100840005B084FEA3202B6EB020E75EB030E22BFD5
:10085000B61A754640EA5C005B084FEA3202B6EB16
:10086000020E75EB030E22BFB61A754640EA9C00D5
:100870005B084FEA3202B6EB020E75EB030E22BFA5
:10088000B61A754640EADC0055EA060E18D04FEA63
:10089000051545EA16754FEA06164FEAC30343EA03
:1008A00052734FEAC2025FEA1C1CC0D111F4801FD0
:1008B0000BD141EA00014FF000004FF0004CB6E7C9
:1008C00011F4801F04BF01430020B4F1FD0C88BF68
:1008D000BCF5E06F3FF6AFAEB5EB030C04BFB6EB73
:1008E000020C5FEA500C50F1000041EB045170BD66
:1008F0000EF0004E4EEA113114EB5C04C2BFD4EB93
:100900000C0541EA045170BD41F480114FF0000E16
:10091000013C90E645EA060E8DE60CEA135594EA92
:100920000C0F08BF95EA0C0F3FF43BAF94EA0C0F95
:100930000AD150EA01347FF434AF95EA0C0F7FF40A
:1009400025AF104619462CE795EA0C0F06D152EA5E
:1009500003353FF4FDAE1046194622E750EA410642
:1009600018BF52EA43067FF4C5AE50EA41047FF453
:100970000DAF52EA43057FF4EBAE12E74FF0FF3CB8
:1009800006E000BF4FF0010C02E000BF4FF0010C89
:100990004DF804CD4FEA410C7FEA6C5C4FEA430C02
:1009A00018BF7FEA6C5C1BD001B050EA410C0CBF51
:1009B00052EA430C91EA030F02BF90EA020F0020B3
:1009C000704710F1000F91EA030F58BF994208BF1A
:1009D00090422CBFD8176FEAE37040F001007047D7
:1009E0004FEA410C7FEA6C5C02D150EA013C07D12E
:1009F0004FEA430C7FEA6C5CD6D152EA033CD3D079
:100A00005DF8040B704700BF8446104662468C4672
:100A10001946634600E000BF01B5FFF7B7FF0028A5
:100A200048BF10F1000F01BD4DF808EDFFF7F4FFCE
:100A30000CBF012000205DF808FB00BF4DF808ED59
:100A4000FFF7EAFF34BF012000205DF808FB00BF7C
:100A50004DF808EDFFF7E0FF94BF012000205DF89E
:100A600008FB00BF4DF808EDFFF7CEFF94BF012053
:100A700000205DF808FB00BF4DF808EDFFF7C4FF4C
:100A800034BF012000205DF808FB00BF4FEA410C95
:100A90007FEA6C5C02D150EA013C0AD14FEA430C78
:100AA0007FEA6C5C02D152EA033C02D14FF00000B5
:100AB00070474FF0010070474FEA410212F50012F3
:100AC00015D211D56FF47873B3EB625212D94FEA95
:100AD000C12343F0004343EA505311F0004F23FA7F
:100AE00002F018BF404270474FF00000704750EAD4
:100AF000013005D111F0004008BF6FF00040704791
:100B00004FF00000704700BF4FEA4102B2F1E043EE
:100B100024BFB3F5001CDCF1FE5C0DD901F0004CE4
:100B20004FEAC0024CEA5070B2F1004F40EB830034
:100B300008BF20F00100704711F0804F21D113F160
:100B40003872BCBF01F00040704741F480114FEA99
:100B50005252C2F11802C2F1200C10FA0CF320FA22
:100B600002F018BF40F001004FEAC1234FEAD3233F
:100B700003FA0CFC40EA0C0023FA02F34FEA4303A9
:100B8000CCE77FEA625307D150EA01331EBF4FF032
:100B9000FE4040F44000704701F0004040F0FE404D
:100BA00040F40000704700BF0348044B834202D06A
:100BB000034B03B118477047CC010020CC01002043
:100BC000000000000548064B1B1AD90F01EBA301DA
:100BD000491002D0034B03B118477047CC010020E5
:100BE000CC0100200000000010B5064C237843B96A
:100BF000FFF7DAFF044B13B10448AFF30080012381
:100C0000237010BDCC01002000000000487B0008CC
:100C100008B5054B1BB105490548AFF30080BDE899
:100C20000840FFF7CFBF00BF00000000D001002048
:100C3000487B000808B5012002F086FB4FF4C06035
:100C400002F058FB40F2026002F054FB40F20360F5
:100C500002F050FB40F2046002F04CFB4FF4A06045
:100C600002F048FB40F2015002F044FB40F21970E0
:100C700002F040FB40F20E7002F03CFB40F20F70BD
:100C800002F038FB40F20B6002F034FB40F20960E6
:100C900002F030FB40F20A6002F02CFB40F20F60E1
:100CA00002F028FBBDE8084040F2117002F022BBC0
:100CB00070B501F0A1FCFFF7BDFF00F0EBF800F00C
:100CC00031FF00F09BFE00F0F5FA00F049FE00F065
:100CD0006FFE00F087F900F073FA01F00FF803F0EF
:100CE0002DFF4548454C464E464D04F01BFD4648F9
:100CF00004F018FD012300220221444804F0AAFC5C
:100D0000434804F00FFD4FF480720021204604F0A8
:100D10002AFD00214FF48062304604F024FD4FF09C
:100D20007E533C4A3C48A3626364A363A26001F023
:100D300093F800214FF44472384804F014FD7269AE
:100D4000A36AC5F8D82064203269AB66C5F8D42000
:100D500001F074FC2846642101F0EEF94FF40072B2
:100D6000002105F1DC0004F0FEFC2D482D4E2E4C38
:100D700000F0C0FA2D4800F0D7FA002211461920E1
:100D800002F066FA01220021282002F061FA022214
:100D90000021142002F05CFA062201233280F37055
:100DA000002503F067F901F061FC2368C01AB0F573
:100DB0007A7FF6D301F05AFC012120601C4801F033
:100DC00059FE01211B4801F055FE012001F036FCBF
:100DD00000F060FD03F084FE17484FF400513DB968
:100DE0003378022B04D002F0B1F985F0FF05D8E783
:100DF00002F0AAF9F9E700BF787C00087C3B0020EC
:100E00007C3700205C310020847C0008A47C000832
:100E1000C07C000800007A447C340020402E002072
:100E2000EC0100206C340020E801002000020020CA
:100E300000240140003C0140001001400F4A08B569
:100E400013684FF4006103430D48136002F07EF90C
:100E50000C48002102F07EFC00221146094802F0F5
:100E6000B3FD08480022012102F0AEFDBDE80840B4
:100E700004480022022102F0A7BD00BF7C3C0020F4
:100E800000080140002C0140014B1868704700BF6A
:100E90007C3C002010B54E48012102F065F94D4818
:100EA000012102F061F94C484FF4A05301221821AE
:100EB00002F0F4F848484FF400630122042102F0E4
:100EC000EDF84FF4004301224448102102F0E6F807
:100ED00042484FF4004102F037F941484FF42043B3
:100EE0000122182102F0DAF83D484FF48043012234
:100EF000482102F0D3F84FF48053012238481021E2
:100F000002F0CCF836484FF4805102F01DF9334816
:100F10004FF400630222102102F0C0F84FF4805316
:100F200003222E48042102F0B9F82C484FF4006146
:100F300002F00CF929484FF4E0630322182102F073
:100F4000ADF8254803230422002102F0A7F8244825
:100F500001230422002102F0A1F81F480C230422DF
:100F6000002102F09BF81D48F0230422002102F02A
:100F700095F8194830230422002102F08FF8164812
:100F80004FF400530222102102F088F81348042382
:100F90000122182102F082F8082301220F480421BF
:100FA00002F07CF801214FF4EA1002F0DDF80C4861
:100FB0004FF480730222482102F070F8BDE810401F
:100FC00007484FF400730322182102F067B800BFEE
:100FD0000010200000023000001001400008014015
:100FE000000C014070B5714888B0002101F078FF15
:100FF0006F4A704B01920024042503934FF4007252
:101000004FF400634FF48076029204930DEB0502D7
:101010004FF4805321466548ADF81C60CDE9055377
:101020008DF81E4001F07AFF2146604801F0B4FFC0
:1010300021465E4801F0C2FF5F4801F0ABFB5F480C
:1010400001F0A8FB4FF4803001F0F2FB31465A4822
:10105000012201F0FDFB22465748022101F0F8FB76
:1010600031465648012201F0F3FB22465348022143
:1010700001F0EEFB2146504801F012FC2A464E4892
:10108000012101F017FC01224B48022101F012FC62
:1010900021464A4801F004FC2A464848012101F053
:1010A00009FC46480122022101F004FC23462146A6
:1010B0004148062201F01CFC23463F480F22012133
:1010C00001F016FC23463C480722022101F010FCE7
:1010D000234639480822032101F00AFC2346214611
:1010E0003648052201F004FC234634480E22012133
:1010F00001F0FEFB23462A463048022101F0F8FBAE
:1011000023462E480C22032101F0F2FB2A484FF41B
:101110006022012101F098FC01221146264801F0CD
:1011200077FC26484FF46022012101F08DFC01225A
:101130001146224801F06CFC234621461E480B2232
:1011400001F02EFC234621461C480A2201F028FC0F
:1011500019484FF4E042022101F076FC16480122C2
:10116000022101F055FC15484FF4E042022101F044
:101170006BFC01220221114801F04AFC0E4801F0EB
:1011800051FB0E4801F04EFB0B4801F031FB0B48C0
:1011900001F02EFB012001F051FA074801F030FB6D
:1011A000064801F02DFB08B070BD00BF00000240F2
:1011B0004C240140843C00200024014000280140D0
:1011C00070B5384888B0042101F08AFE3649374AA4
:1011D00001914FF48063012400254FF4807603923F
:1011E000049301AA4FF480532E4806930421ADF8CE
:1011F0001C6002968DF81E50059401F08FFE294860
:10120000042101F0C9FE0421264801F0D7FE284838
:1012100001F0C0FA22463146254801F019FB2A4662
:101220002348022101F014FB2946214801F038FB34
:10123000224621461E4801F03DFB22461C48022161
:1012400001F038FB2B46294619480D2201F050FBCE
:10125000214617484FF4602201F0F6FB2246214652
:10126000134801F0D5FB2B46294611480D2201F009
:1012700097FB0F484FF4E042022101F0E5FB2246C4
:1012800002210B4801F0C4FB094801F0CBFA0848E1
:1012900001F0AEFA204601F0D1F9054801F0B0FAAC
:1012A00008B070BD000402404C3C0140803C00206E
:1012B000003C014000B585B001A9002001F01AFCF6
:1012C0000A4801F005FC0A484FF48072CDE901029A
:1012D0004FF4802301A90548039301F03DFC034826
:1012E000022101F0F9FD05B000BD00BF006400401F
:1012F0000000090300B5014687B0032001F0FAFBA6
:1013000001A9012001F0F6FB00234FF480310122F6
:1013100001A8CDE90133CDE903318DF8142001F0A6
:10132000ADFC07B000BD00BF00B583B00146019021
:10133000022001F0DFFB0199002340F281700822B6
:1013400008608A724B600B8103B000BD38B5C0F3F2
:101350000D0444F4804440F44045204606F0E4FB8C
:10136000002814BF2846204638BD00BF10B50446EB
:1013700006F0DAFB28B914F4804F18BF6FF00100B3
:1013800010BD4FF0FF3010BDC0F30D00C1F30D01D3
:10139000401AB0F5005F03DDA0F5804000B2704751
:1013A00010F5005FB8BF00F5804000B2704700BF85
:1013B0000378A52B20D143785A2B1DD18378012B9C
:1013C0001AD18379C3B910B5DFF838E00C46421E54
:1013D000811D12F801CF83EA0C0391421EF80330FD
:1013E000F7D1C2799A420AD1C37823700379637026
:1013F0004379A370002010BD4FF0FF3070476FF0AD
:10140000010010BD607B00080378A52B3ED1437816
:101410005A2B3BD18378012B38D110B5DFF884E00B
:101420000C46421E811D002312F801CF83EA0C03F3
:1014300091421EF80330F7D1C2799A422CD1C37879
:10144000042B10D0052B2AD1427912BB827902BB22
:101450002370037994461146637084F802C0E170EA
:101460002271002010BD90F805C0BCF1050F10D806
:1014700090F806E00EF00F0109290AD8BEF14F0FCF
:101480004FEA1E1205D823700379E5E74FF0FF30CD
:1014900070476FF0020010BD6FF0010010BD6FF0DB
:1014A000030010BD607B000890F800C06CF07F0C5A
:1014B00083F800C090F801C083F801C0807898706C
:1014C0004FEA122CD970100C110E1A7183F805C056
:1014D0009871D971704700BF70B58B4C0168236853
:1014E00040F20172013391428AB0236006D1037A3F
:1014F00023B9437A13B9837A082B04D0A368013344
:10150000A3600AB070BD04A90B30FFF751FF18B1FA
:10151000E3680133E360F4E7019001F0A7F87B4949
:10152000019B0A68821A132A03D863690133636135
:10153000E7E7626808609DF810108DF80F300132FF
:101540006260032900F29581DFE801F04E7B100212
:101550009DF812300F2B4BD8DFE803F09DA19F9B25
:10156000999795AF4AABA7A3B5B14AB99DF81200B8
:1015700037283DD8DFE810F071016D0169011401D1
:1015800010010D0109013C003C0003010001FD00B8
:10159000F700F100EB00E200C400C000B700AE00AD
:1015A0006E006E006E006E006E006E006E006E00CB
:1015B0006E006E006E006E006E006E006E006E00BB
:1015C0006E006E006E006E006E006E006E006E00AB
:1015D0006E006E006E006E006E006E006E006E009B
:1015E0006E006E006E006E009DF81230002B3DD034
:1015F00001238DF80F30002223690133236105A9EF
:101600000220019201F076FA40F2817305930023E3
:101610000693ADF81C300823019A9DF80F108DF841
:101620001E3004A80DF11F03FFF73EFF384805A93F
:1016300001F09EFB032800F01481A3690133A3612C
:101640005FE79DF81230052BD2D8DFE803F00F15C5
:1016500018131A110DF10F0103F0F6F802469DF868
:101660000F30012BC8D0042BC6D0C8E7294AC6E7E3
:10167000294AC4E7294AC2E74FF48032EFE7284AF3
:10168000BDE7284ABBE7A269B9E76269B7E7226903
:10169000B5E7E268B3E72268B1E7A268AFE762683E
:1016A000ADE7214BD3F80023A9E7204BD3F8FC2268
:1016B000A5E71D4BD3F8FC22A1E7E2699FE71A4B8F
:1016C000D3F808239BE7184BD3F8042397E7184B6C
:1016D0001A6894E7174BD3F83C2CD3F82C3C92B201
:1016E00042EA03428BE7134BD3F8342CD3F8383C4F
:1016F00092B242EA034282E70C4BD3F8B4207EE771
:101700000D4BD3F818247AE7983C0020943C002035
:10171000006400404154484E060A050101D1E0A78B
:101720000F00010001E803005C3100207C34002040
:10173000B83C002000200140006000404F4B93F86F
:10174000DE22002A00F09180D3F8E62257E74C4BC6
:10175000D9881A8942EA014251E7494B59889A8847
:1017600042EA01424BE7464B59891A8842EA014254
:1017700045E7434BDA6842E7424B1A8A3FE7414B61
:101780001A89DB6842EA034239E73C4BD3F88020F0
:1017900035E73A4B9A6F32E7384BD3F8E0222EE721
:1017A0004FF48051384801F0D3FC4FF400610646F5
:1017B000354801F0D3FC3549354AD1F8443C051E83
:1017C000C3F3C03ED2F81834D2F818C4D2F81804C3
:1017D000D1F8202C4FEA43134FEA022203F02003F2
:1017E00002F4807242EA0302244B93F8DD3218BF00
:1017F0000125003B18BF012342EA450242EAC30229
:10180000204B93F8F532003B18BF012342EA031244
:10181000CCF3400C42EA8E02C0F3800042EA8C1204
:1018200042EAC012D1F8200CD1F8203CC0F30011DC
:1018300042EA4122C3F3002342EA8322002E08BF7A
:1018400042F0010242F0004209E7FFF71DFB0246A9
:1018500005E700F00BFF024601E70A4BD3F8F82238
:10186000CDE6E3690133E3614BE603238DF80F30E6
:10187000C5E604238DF80F30BDE600BF5C310020C3
:10188000843C00207C3400200008014000200140FE
:101890000060004030B58BB000F0E8FE0546FFF771
:1018A000F3FA4FF400610446254801F057FC25493E
:1018B000DFF8A8C0D1F8441C031E2348C1F3C0318F
:1018C000D0F8182406920091BCF8E8E2CDF814E0B4
:1018D000BCF8E6E2CDF810E0BCF8E0E2CDF80CE0B0
:1018E000BCF8E2E2CDF808E09CF8DDC2CDF804C017
:1018F00018BF012322462946144803F0ABFE144BBF
:101900001449B3F806C01A895888CDE9072C9A887B
:10191000B3F80AE0CDE905201888B3F80EC09A891B
:10192000CDE9030ED1E90330CDE9012C8A6891F8A5
:10193000F5120090084803F08DFE0BB030BD00BFDB
:10194000000801400020014000600040187D0008B0
:10195000843C00207C3400207C7D00085C31002029
:1019600000B5114889B001F09BFD9FED0D7B4FF450
:1019700000724FF4827100234FF40060CDE9001330
:10198000CDE9020218236946074806938DED047BD2
:1019900001F0B4FD044801F0CBFD09B000BD00BF6B
:1019A00000000000010000000038004000000000BE
:1019B00000B5114889B001F073FD9FED0D7B4FF428
:1019C00000724FF4827100234FF40060CDE90013E0
:1019D000CDE9020210236946074806938DED047B8A
:1019E00001F08CFD044801F0A3FD09B000BD00BF6B
:1019F0000000000001000000003C004070B54848B5
:101A00008CB001F0A7FD08A80024012501F018FE04
:101A10004FF400134FF4FA6208A9414808930A9260
:101A200009948DF82C5001F013FE3D4802F040F867
:101A300021463B4802F026F82946394802F02AF8A8
:101A4000374801F05DFE01A801F08EFE022601AAD2
:101A5000214633480394CDE9015601F08BFE21461F
:101A60002F48602201F088FF21462D48042201F012
:101A7000E1FF21462A48082201F0B4FF2246214610
:101A8000274801F0A1FF01AA2946254801F072FE6E
:101A900029462348602201F06FFF2946204804228E
:101AA00001F0C8FF29461E48082201F09BFF22468C
:101AB00029461B4801F088FF01AA3146184801F069
:101AC00059FE31461648602201F056FF314614484F
:101AD000042201F0AFFF31461148082201F082FFD5
:101AE000224631460E4801F06FFF04A801F016FEB1
:101AF0004FF0005304A90A480694CDE90443ADF819
:101B00001C4001F011FE2946054801F023FE29463C
:101B1000034801F0FBFD024801F0ECFD0CB070BD84
:101B2000002C014008B50D4801F0C8FF0B484FF4E8
:101B3000E13102F00FF80948042102F04BF80821C6
:101B4000064802F041F8054802F038F8BDE80840C0
:101B5000024840F2053102F053B800BF0044004093
:101B600038B50546E9B20C4802F03AF841F20104F2
:101B700001E0013C07D00848072102F039F80028AD
:101B8000F7D0284638BD054A13684FF0FF350133BA
:101B90001360284638BD00BF00440040B83C002018
:101BA00070B504464FF6FF7384B0374821806380D8
:101BB0004FF48051164601F0C9FA00230393039BAA
:101BC0003F2B06D800BF039B01330393039B3F2B9E
:101BD000F8D940F6010501E0013D40D02B48022133
:101BE00001F0B2FC0028F7D02188284801F0A6FCBB
:101BF00040F6010501E0013D40D02448012101F0FB
:101C0000A3FC0028F7D0214801F09AFC40F601051A
:101C1000608001E0013D34D01C48802101F094FC3B
:101C20000128F7D000230293029B3F2B4FF00005C1
:101C30001CD915484FF4805101F086FA0023019316
:101C4000019B3F2B06D800BF019B01330193019BF1
:101C50003F2BF8D963883380284604B070BD4FF01D
:101C6000FF3500230293029B3F2BE2D800BF029B6B
:101C700001330293029B3F2BF8D9DAE76FF001059D
:101C8000EFE76FF00205ECE7000C01400038004080
:101C900000B587B001AB83E807000DF116024FF4E1
:101CA00000411846FFF77CFFBDF8160007B000BDE5
:101CB00000B587B001AB83E807000DF116024FF4C1
:101CC00008411846FFF76CFFBDF8160007B000BDCD
:101CD00000B587B00DF1040C8CE80700064941EA15
:101CE000C3210DF1160201F478416046FFF758FF59
:101CF000BDF8160007B000BD0080FFFF08B50C213D
:101D0000002001F073FA4FF480500222002101F00C
:101D100067F9BDE808404FF4805001F0B9B900BF41
:101D200038B5484B1C680546002C7ED121464648F4
:101D300000F0AEFE0346AB604448214600F0A8FE2A
:101D400003464148EB60022100F094FE4048022126
:101D500000F090FE40F6010401E0013C50D03A480A
:101D6000042100F0A9FE0028F7D040F6010401E0AC
:101D7000013C45D03648042100F09EFE0028F7D0F3
:101D80003148042100F09EFE3148042100F09AFE03
:101D900000212F4800F07CFEAA68D5F89810EB6867
:101DA000D5ED1C6ADFED2B5A2861521A07EE102A76
:101DB000D5F89C2007EE900A9B1AB8EEE76A07EE6A
:101DC000903AB8EEC77AF8EEE77A27EE267A67EE11
:101DD000A67AD5F8F83285ED067AF1EE476A26EE56
:101DE000256A76EEE76A0122013385F8F52285ED52
:101DF000086AC5ED077AC5ED056AC5F8F83238BD41
:101E00001148042100F05EFE1148042100F05AFE42
:101E1000D5F8FC320022013385F8F522C5F8FC32F2
:101E20008020BDE83840FFF709B80021074800F0DE
:101E30002FFE0346AB600448002100F029FE034654
:101E40007FE700BF7C3700200024014000280140CC
:101E5000003C01401833533C2DE9F843344A354BDC
:101E6000DFED356ADFED355A2DED028BC267C0F824
:101E7000802093ED027A324AC0F8842066EEC76A69
:101E8000F7EE007AB0EE676AA6EEA56A2D4ADFED9E
:101E90002E6A1268C0F8C82027EE267AC7EE866A36
:101EA00080ED1D7A77EEE67A80ED1E7AC0ED227A1B
:101EB0009FED267AD3ED037AF4EEC77AF1EE10FAAD
:101EC00033D8234BDFF89C90DFED228A9FED228AE6
:101ED000224F03674FF0804800F1F40500240026EC
:101EE00007EE904AF8EEE77A013467EEA87AC7EE7B
:101EF000887A17EE900AFEF7D7FA41EC100B05F03E
:101F0000AFFB424651EC100B4B46FEF725FB324629
:101F10003B46FEF76BF9FEF7F7FD802C45F8040B06
:101F2000DED1BDEC028BBDE8F8830D4BCAE700BFE4
:101F3000EC51383D7C3B0020D1CB0B38DB0FC94046
:101F4000BD74933B7C37002017B7D1380000204286
:101F5000FFFFA43C000000BC6F12033D0000F03FF7
:101F6000FFFF243D3333F33F70B5054684B0354859
:101F70000E464FF4004101F0E9F800230393039B60
:101F80003F2B06D800BF039B01330393039B3F2BDA
:101F9000F8D940F6010401E0013C3ED02A48022174
:101FA00001F0D2FA0028F7D02748294601F0C6FAF6
:101FB00040F6010401E0013C3ED02348012101F03C
:101FC000C3FA0028F7D0204801F0BAFA40F601041D
:101FD000308001E0013C32D01B48802101F0B4FA8E
:101FE0000128F7D000230293029B3F2B4FF00004FF
:101FF0001AD914484FF4004101F0A6F800230193C8
:10200000019B3F2B06D800BF019B01330193019B2D
:102010003F2BF8D9204604B070BD4FF0FF340023A9
:102020000293029B3F2BE4D800BF029B0133029333
:10203000029B3F2BF8D9DCE76FF00104EFE76FF06C
:102040000204ECE700080140003C0040F0B5064601
:1020500083B008461746FFF779F9044643F6FF7048
:10206000FFF774F901A905462046FFF77DFF48BB3D
:102070000DF106012846FFF777FF18BBBDF80640B3
:102080002046FFF773F9431CA6F8E0420BD002305C
:1020900012D0C4F30D043C8001A92846FFF764FF69
:1020A00080B903B0F0BDD6F800330133C6F8003371
:1020B0006FF0010003B0F0BDD6F804330133C6F869
:1020C0000433F5E7D6F8FC3201334FF48070C6F8DC
:1020D000FC32FEF7B3FE4FF0FF30E2E710B582B0FE
:1020E0000DF1020243F6FC710446FFF7AFFFF0B9B1
:1020F00001AA43F6FD712046FFF7A8FFB8B90DF11C
:10210000060201212046FFF7A1FF80B9BDF8063085
:10211000BDF80210BDF80420A4F8EA32A4F8E612D3
:10212000A4F8E822012384F8DE3202B010BD0023B7
:102130004FF0FF30F7E700BF2DE9F04F04464FF0B6
:1021400000080E4687B043F6FF70FFF7FFF84645DC
:10215000A4F8DD82A4F8EC8240F3848001230746D2
:10216000CDF8088003939A46C1460DF11601384612
:10217000FFF7FAFE90BB012E44D04FF0010B002573
:102180000DF116013846FFF7EFFE48BBBDF816808B
:1021900001904046FFF7EAF8431C019AA4F8E08258
:1021A000C8F30D0C05F101053AD0023054D00BF103
:1021B000010B5E45A4F8E2C284F8DDA2A4F8EC228B
:1021C000DED11F2D1ED92046FFF788FFB0FA80F020
:1021D000400984F8DE0207B0BDE8F08F4FF0000B35
:1021E000D4F8FC12B4F8EC2284F8DD920BF1010B68
:1021F0000131013201235E45C4F8FC12A4F8EC223F
:102200000293BCD1039D032D1AD0142000F016FABE
:102210006B1C03930023A4F8DD32A4F8EC32A4E78E
:10222000D4F800230132C4F800230BF1010B5E4502
:102230004FF0000584F8DD92A2D1039D032DE4D177
:10224000029A002384F8DD329A4214BF4FF4807062
:102250004020FEF7F3FDB6E7D4F804230132C4F8BA
:102260000423E2E70125032D4FF014000CD00135C3
:1022700000F0E4F94FF00003032DA4F8DD32A4F8D8
:10228000EC824FF01400F2D100230293D8E700BF94
:1022900070B52DED028B044684B043F6FF70B0EEAE
:1022A000408AFFF753F8D4F8F03201330DF10E01F4
:1022B000C4F8F032FFF758FE002840F0C380BDF8A4
:1022C0000E30019305461846FFF750F8019BA4F81D
:1022D000E032421C00F00881023000F0DD80D4F8CA
:1022E000F422C3F30D06002A40F0ED80002366F3CC
:1022F0000F03D4ED016A012166F31F43B5000A44C0
:10230000C4F8E232002384F8DD12C4F8F422A4F801
:10231000EC32C4ED026A4C2204F10C01656704F151
:102320001000CDED016A03F005FA6B125A1C02F0A1
:102330007F0204EB830304EB8202D3F8DC30D2F893
:10234000DC209FED7B6ADDED016AC5F30801D21A3E
:1023500001FB02F203EB62232B447649A3670A696F
:102360009A1A07EE102ABAEEC87AFDEEC77AF8EE8E
:10237000E77A37EE677A27EE067AB5EEC07AF1EEA5
:1023800010FA01D537EE067A4A6994ED1A6ADFED44
:102390006A5A9FED675A84ED017A9B1A07EE903ACC
:1023A000F8EEE77A67EE867A67EEA57AFDEEE75AF1
:1023B000F8EEE55A77EEE57A67EE857AF5EEC07AC3
:1023C000F1EE10FA01D577EE857A77EE666ADFEDE9
:1023D0005B5AC4ED177AF4EEE56AF1EE10FA48DCC8
:1023E000DFED577AD4F8801094F8DC22F4EEE76A37
:1023F000F1EE10FA4CBF012300230B44C4F88030E7
:10240000002A41D007EE903ADFED496AF8EEE77A0C
:1024100067EEA67A37EE277AD4ED166A84ED037A52
:10242000F3EE037A77EE666A68EE277A86EEA77A8D
:1024300026EE076A84ED187A84ED196A04B0BDECC3
:10244000028B70BDD4E9BE21B4F8EC320131013207
:10245000C4E9BE210020013384F8DD02A4F8EC3287
:102460004FF4807004B0BDEC028BBDE87040FEF705
:10247000E5BCD4F8801094F8DC224FF0FF330B4415
:10248000C4F88030002ABDD10123DFED2E7AC4F8D4
:10249000802084F8DC32BDE7D4F804330133C4F87B
:1024A0000433B4F8EC32D4F8F82201339BB2013291
:1024B0000021022BC4F8F822A4F8EC3284F8DD12D3
:1024C000BCD94020CEE7B4F8E4123046FEF75CFFFA
:1024D00000F50070B0F5806F0CD8B4F8E432B34268
:1024E0001DD0D4F8F42201E7D4F800330133C4F846
:1024F0000033D6E7B4F8EC32D4F80813D4F8F82255
:1025000084F8DD5201339BB201310132022BC4F851
:102510000813C4F8F822A4F8EC328FD9D1E7D4F824
:102520000C33D4F8F4220133C4F80C33DEE600BFD8
:10253000DB0FC9407C37002000008037DB0F4940AB
:10254000DB0F49C0000000000120704708B503F010
:1025500013F9162303604FF0FF3008BD08B503F0F0
:102560000BF916230360FEE770B5161E07DD0C4657
:102570008D19AFF3008004F8010BA542F9D1304664
:1025800070BD00BF70B5161E07DD0C468D1914F81E
:10259000010BFFF7E5FAA542F9D1304670BD00BF47
:1025A0004FF0FF30704700BF4FF400534B600020E6
:1025B000704700BF01207047002070470C4A08B5E3
:1025C000136833B118446946884208D81060184629
:1025D00008BD084B1360184469468842F6D903F0D9
:1025E000CBF80C2303604FF0FF33184608BD00BF43
:1025F000BC3C0020E03E00200D4B0E4A1B68A2FBB5
:1026000003239B09013BB3F1807F00D3FEE74FF02A
:10261000E02209495361F02081F823004FF0000CBB
:1026200007201023C2F818C0106181F823307047CA
:1026300000000020D34D621000ED00E0024A10605F
:102640001368002BFCD17047C43C00200549064AA2
:102650000B6801330B60136813B11368013B1360FF
:10266000704700BFC03C0020C43C0020014B1868EC
:10267000704700BFC03C0020704700BF08B5022073
:10268000FEF7DCFBFEE700BF08B50420FEF7D6FB33
:10269000FEE700BF08B50820FEF7D0FBFEE700BF4D
:1026A00008B51020FEF7CAFBFEE700BF704700BF69
:1026B000704700BF704700BFFFF7C8BF08B50548A7
:1026C000054A002100F0A8FBBDE80840024801F0DF
:1026D00005BF00BF00640040EC01002008B50F48B2
:1026E000012101F017F801F09FFB0D4A1378013327
:1026F000DBB21D2B07D813700A4AD2F8B43001336D
:10270000C2F8B43008BD002306481370FFF708FB79
:102710009FED050A0548FFF7BBFDEDE7002C0140E2
:10272000C83C00207C3400206F12833A5C310020CA
:1027300008B54FF4805000F0ABFC0C484FF48051CA
:1027400000F006FD00B108BD01F040FB18B1084BD8
:1027500001229A8008BD05484FF4006100F0FEFC9C
:102760000028F0D02020FEF769FBF0E700080140C8
:102770005031002008B50549054801F04DFA00B96F
:1027800008BDBDE80840024801F02EBA0503050067
:102790000044004008B5154B98421BD003F5A053E8
:1027A00098420DD0A3F5C05398421DD140F2093094
:1027B00000F0AEFDBDE8084040F2093000F0B6BDC3
:1027C00040F20F3000F0A4FDBDE8084040F20F30A9
:1027D00000F0ACBD40F20A3000F09AFDBDE80840C0
:1027E00040F20A3000F0A2BD08BD00BF0028014041
:1027F0008368DB0703D4836843F001038360704779
:10280000826842F0080200F1080382601A6811072A
:10281000FCD4826842F0040282601A685207FCD439
:10282000704700BF836843F480738360704700BFC4
:10283000064BD3F8042422F47022C3F80424D3F8FE
:1028400004240243C3F80424704700BF0020014061
:1028500001F480738AB11BB1436843F48073436011
:102860004B0503D5436843F480634360890715D55E
:10287000836843F00203836070471BB1436823F40D
:10288000807343604A0503D5436823F48063436043
:102890008B0703D5836823F002038360704700BF72
:1028A000836819B143F400638360704723F40063C5
:1028B0008360704701290ED0022900D07047836BD6
:1028C00023F440138363013A836B120502F4401230
:1028D0001A4382637047C36A23F47003C362013AE8
:1028E000C36A120502F470021A43C262704700BF45
:1028F000052900B52ED8D0F834C001EB81014FF086
:102900001F0E0EFA01FE2CEA0E0C02FA01F141EA4A
:102910000C014163092A0DD8016902EB42024FF014
:10292000070C0CFA02FC21EA0C0103FA02F20A433A
:10293000026100BD112AFCD80A3AC16802EB4202CA
:102940004FF0070C0CFA02FC21EA0C0193400B43F8
:10295000C36000BD0B2910D80639D0F830C001EB98
:1029600081014FF01F0E0EFA01FE2CEA0E0C02FA46
:1029700001F141EA0C010163CCE70F29CAD80C39F7
:10298000D0F82CC001EB81014FF01F0E0EFA01FEB2
:102990002CEA0E0C02FA01F141EA0C01C162B9E71E
:1029A000D0F838C00331CCF3015CA1EB0C0101EB92
:1029B00081014FF01F0C00B50CFA01FED0F838C0B1
:1029C00002FA01F12CEA0E0C41EA0C01092A81639A
:1029D0000DD8016902EB42024FF0070C0CFA02FC21
:1029E00021EA0C0103FA02F20A43026100BD112A36
:1029F000FCD80A3AC16802EB42024FF0070C0CFA0D
:102A000002FC21EA0C0193400B43C36000BD00BFF0
:102A100001F001035AB11BB1836843F48013836052
:102A20008A070FD5836843F40043836070471BB166
:102A3000836823F4801383608B0703D5836823F4B2
:102A400000438360704700BF01290AD0022900D0EB
:102A50007047836823F4E043836083681343836093
:102A60007047836823F46023836083681343836023
:102A7000704700BFCA0703D5836843F480038360AF
:102A80008B0703D5836843F400138360704700BF4E
:102A900003290FD8DFE801F00B080502806C80B233
:102AA0007047406C80B27047006C80B27047C06B5A
:102AB00080B270470020704703680B4214BF0120AA
:102AC00000207047036823EA01030360704700BFDA
:102AD00008B5074B984200D008BD40F2194000F0FD
:102AE00017FCBDE8084040F2194000F01FBC00BFD1
:102AF0000064004029B103282CD8DFE800F00E184C
:102B00002103FEE70023C1F80B30C1F80F308B72B0
:102B10004B60CB740B810B607047002340F2FF3099
:102B20004FF4003248810B810A604B6070470023EC
:102B30004FF480320B740B604B608B60CA6070473F
:102B40000023C1F80B30C1F80F308B724B600B8142
:102B50000B607047FEE700BF036823F0020300B577
:102B600003600368844643F001034CF8043B436868
:102B7000DB07864608D44FF6FF7301E0013B03D024
:102B8000DCF80020D007F9D5DEF8040010F00100D1
:102B900070D04B788A781B06120402F4702203F07E
:102BA000407313430A7843EA8273CA78120502F429
:102BB000E00213434A89013AC2F309021343CEF8F3
:102BC0001C300B79012BDEF800300CBF43F0800382
:102BD00023F08003CEF800304B79012BDEF8003073
:102BE0000CBF43F0400323F04003CEF800308B7954
:102BF000012BDEF800300CBF43F0200323F020034C
:102C0000CEF80030CB79012BDEF800300CBF43F05A
:102C1000100323F01003CEF800300B7A012BDEF8FE
:102C200000300CBF43F0080323F00803CEF8003057
:102C30004B7A012BDEF800300CBF43F0040323F085
:102C40000403CEF80030DEF8003023F00103CEF8A4
:102C50000030DEF80430DA070DD54FF6FF7000E0E3
:102C600040B1DCF80030DB0700F1FF30F8D4003869
:102C700018BF012000BD012000BD00BF3B494389B2
:102C8000D1F8002642F0010200B5C1F80026D1F8C3
:102C90001CC6B0F80EE001229A402CEA020CC1F8E2
:102CA0001CC6BEF1000F45D1D1F80CC603F100637C
:102CB0002CEA020CC1F80CC603F6C843B0F806C0F3
:102CC0004188DB0041EA0C41B0F804C0196001887A
:102CD00041EA0C415960838924492BBBD1F8043661
:102CE00023EA0203C1F8043603892049B3B9D1F8B5
:102CF000143623EA0203C1F81436037C012B05D1F4
:102D00001A49D1F81C361343C1F81C36174AD2F8B9
:102D1000003623F00103C2F8003600BDD1F81436A6
:102D20001343C1F81436E8E7D1F804361343C1F869
:102D30000436D9E7BEF1010FCDD1D1F80CC603F1AD
:102D400000634CEA020CC1F80CC603F6C843B0F8A5
:102D500000C04188DB0041EA0C41B0F804C01960B2
:102D6000C18841EA0C415960B5E700BF00600040EE
:102D700082685201034605D48268120143D510339C
:102D8000012000E00020D3F8802102F0010210B5FC
:102D9000C3F8802191F808E04A7A03F5C07CBEF1BF
:102DA000000F26D04C6842EAC40242EA0E02D3F871
:102DB00080E142EA0E02C3F88021D3F8842122F098
:102DC0000F02C3F88421D3F884E18A7A42EA0E0222
:102DD000C3F88421D1F80B20C3F88821D1F80F2043
:102DE000C3F88C21DCF8003043F00103CCF800304C
:102DF00010BD0C68D3F880E142EA445242EA0E0268
:102E0000C3F88021D9E78268D20002D5203302209E
:102E1000B9E70320704700BF00EB0113D3F8B0C13E
:102E20000CF0040C82F808C0BCF1000F47D1D3F8B5
:102E3000B0C14FEA5C5CC2F800C0D3F8B0C10CF07E
:102E4000020C82F809C0D3F8B4C14FEA1C2C82F8F6
:102E500013C0D3F8B4C10CF00F0C82F80AC0D3F839
:102E6000B8C182F80BC0D3F8B8C14FEA1C2C82F865
:102E70000CC0D3F8B8C14FEA1C4C82F80DC0D3F88F
:102E8000B8C14FEA1C6C82F80EC0D3F8BCC182F8FE
:102E90000FC0D3F8BCC14FEA1C2C82F810C0D3F885
:102EA000BCC14FEA1C4C82F811C0D3F8BC311B0ED8
:102EB000937459B9C36843F02003C3607047D3F8D3
:102EC000B0C14FEADC0CC2F804C0B6E7036943F0B6
:102ED00020030361704700BF43690B4343617047A0
:102EE0000D4B984215D001EB810300EB83030022C8
:102EF000D3F808C02CF0010CC3F808C09A60DA605F
:102F00001A615A61426889000F238B401343436062
:102F100070470429E7D9FEE7000402401D4B9842A0
:102F200034D001EB810100EB8100136810B4036120
:102F300093684361138AC360D468536881682343EC
:102F4000546921F47C5123430B438360137E012B8E
:102F500083680CBF43F0400323F040038360537E3B
:102F6000012B83680CBF43F0800323F08003836050
:102F7000937E2BB1836843F0100310BC83607047CD
:102F8000836823F0100310BC836070470429C8D9FC
:102F9000FEE700BF00040240074B984208D001EB57
:102FA0008101890008300B5843F020030B50704713
:102FB0000429F4D9FEE700BF00040240074B984201
:102FC00008D001EB8101890008300B5843F0010360
:102FD0000B5070470429F4D9FEE700BF00040240FB
:102FE0002A4BD3F800C42CEA000CC3F800C4D3F871
:102FF00004C42CEA000CC3F804C4D3F808C42CEAB7
:10300000000CC3F808C4D3F80CC42CEA000CC3F8B5
:103010000CC449B3012905D0012A0BD0022A29D0BA
:10302000AAB17047D3F80414012A41EA0001C3F899
:103030000414F3D1154BD3F8082422EA0002C3F894
:103040000824D3F80C240243C3F80C2470470F4B18
:10305000D3F808240243C3F80824D3F80C2422EA46
:103060000002C3F80C247047D3F800140143C3F8DE
:103070000014D1E7054BD3F808240243C3F8082411
:10308000D3F80C240243C3F80C247047000001401D
:10309000014BC3F814047047000001402DE9F043D0
:1030A0000C461D46E306014604F00F0602D5042A2D
:1030B00044D0164300224FF001080F2706E0482CA9
:1030C00008BF08610B600132082A13D008FA02FC1D
:1030D0004FEA820E1CEA050007FA0EF906FA0EFE08
:1030E000F1D00B68282C23EA09034EEA0303E6D14A
:1030F0004861E7E700234FF001080F2709E0482C5B
:1031000008BF0861C1F804E00132102A03F104038A
:1031100012D008FA02FC1CEA050007FA03F906FAC5
:1031200003FEF1D0D1F804C0282C2CEA090C4EEA99
:103130000C0EE4D14861E5E7BDE8F083C36B2B4397
:1031400046F00306C363B5E701617047416170470C
:1031500083680B4214BF012000207047C3680B42F4
:1031600014BF01200020704700281F4B00F4401CB2
:10317000B4BFDB695B68BCF5401F00B582B227D0E5
:1031800010F4801F19D14FEA505C4FEA0C1C02FA70
:103190000CFC23EA0C0343F0E0634FEA505C4FEA77
:1031A0000C1C02FA0CF21A43002918BF13460E4AEF
:1031B0000028B4BFD361536000BDC0F3034E4FF08D
:1031C000030C0CFA0EFC23EA0C0343F0E063E4E783
:1031D000DFF814E0DEF804C02CF0E06C23F0E063CC
:1031E000CEF804C0D9E700BF0000014001F003039E
:1031F0009B000F22032902FA03F200FA03F0134B9B
:1032000007D8996821EA02029A609A6802439A6094
:103210007047072907D8D96821EA0202DA60DA681C
:103220000243DA6070470B2907D8196921EA0202C4
:103230001A611A6902431A617047596921EA020248
:103240005A615A6902435A61704700BF0000014049
:10325000DFF898C0DCF80C3003F4E063B3F5E06FFE
:1032600036D0DCF80C3003F4E063B3F5C06F1BD04C
:10327000DCF80C3003F4E063B3F5A06F10D0DCF899
:103280000C3003F4E063B3F5806F25D0DCF80C302C
:1032900003F4E063B3F5407F22D0134BCCF80C303D
:1032A00002F00302022302E002F007020323DFF828
:1032B00040C0994011430CEB00030901420983F817
:1032C000001300F01F00012383404CF822307047A8
:1032D00002F00F020423EAE702F001020123E6E70D
:1032E00000221346E3E700BF0005FA0500ED00E009
:1032F00000E100E0830903F1804303F5043300F0AB
:103300001F001968012282400A431A60704700BFFB
:10331000830903F1804303F5043300F01F001968AB
:10332000012282400A431A60704700BF830903F1FB
:10333000804303F5043300F01F001A680121814027
:1033400022EA01021A607047174A5368D26A23F0D2
:10335000805323F4404322F000510B2809D8DFE8C2
:1033600000F006060606081808180C0C0C0C43EAB8
:1033700080330D4A5360D1627047DFF834C042F0A9
:1033800000510CEA803C084A43EA0C035360D162C6
:103390007047064A02EA80321343034A43F08053DF
:1033A0005360D162704700BF0010024000C0FEFFB2
:1033B00000C0FCFF10B5DFF8E4C086469CE80F00B3
:1033C00088B008AC04E90F00DCE90401CDE9000194
:1033D000CDE902012D4A536803F00C03082B24D0D9
:1033E0002B482A4A536851685268C3F303136B444D
:1033F0001B7C20FA03F3BEF1030F44D8DFE80EF084
:103400000812020AC1F302216944087823FA00F085
:1034100008B010BDC2F3C2226A44107A23FA00F049
:1034200008B010BD184608B010BD5368D90311D4B8
:10343000184A164B586859685B680C01C0F3834002
:1034400014D5590018D540F030003F2812D102FBA6
:1034500000F0C6E7D36A5A000C4B58BF0C4A5B68B1
:1034600048BF0D4A9B03E4D55208E2E75B0006D54E
:1034700040F020000130EAE740F01000FAE70F28A2
:10348000F8D00230E3E70020C2E700BF001002409E
:1034900000127A0000093D00006CDC02607C00082C
:1034A00008B5154B984212D003F57443984204D0E6
:1034B000A3F57843984214D008BD4FF44370FFF74A
:1034C00027FFBDE808404FF44370FFF72FBF40F2DD
:1034D0000F40FFF71DFFBDE8084040F20F40FFF727
:1034E00025BF40F20E40FFF713FFBDE8084040F251
:1034F0000E40FFF71BBF00BF003C004010B4D1E9F5
:1035000001420B6823431343CA680C69D1E905C122
:1035100013432343026843EA0C0302F441520B4372
:1035200013430360C36923F4006310BCC361704795
:10353000036843F040030360704700BFC1607047F9
:10354000C06880B2704700BF83680B4214BF01207F
:103550000020704708B5374B98424CD015D8A3F5DA
:103560000063984251D039D8B0F1804F22D0A3F5F2
:10357000806398425DD140F20140FFF7C9FEBDE88B
:10358000084040F20140FFF7D1BE2B4B984246D095
:1035900003F50063984217D0A3F59033984248D1C1
:1035A00040F20540FFF7B4FEBDE8084040F2054098
:1035B000FFF7BCBE4FF48060FFF7AAFEBDE80840ED
:1035C0004FF48060FFF7B2BE40F20D30FFF7A0FE6F
:1035D000BDE8084040F20D30FFF7A8BE174B9842F7
:1035E00027D140F20340FFF793FEBDE8084040F2C8
:1035F0000340FFF79BBE40F20440FFF789FEBDE8A1
:10360000084040F20440FFF791BE40F20240FFF74D
:103610007FFEBDE8084040F20240FFF787BE40F25F
:103620000B30FFF775FEBDE8084040F20B30FFF7A6
:103630007DBE08BD00100040002C0140000C004081
:1036400000234FF6FF72C0E90033826003737047B6
:10365000254B0A888262984215D020F44063B3F16A
:10366000804F10D0214B98420DD0214B20F4806226
:1036700010B49A428C68C4622CD1436943F00103B0
:1036800010BC4361704703684A8823F070030360ED
:10369000D0F800C08B8842EA0C0202600268134333
:1036A00003608B68C3620268CB8822F440720260B8
:1036B000D0F800C00C4A43EA0C039042036002D0E9
:1036C0000A4B984201D10B7B0363436943F001032A
:1036D000436170470268CB8822F44072026002683E
:1036E00013430360C9E700BF002C014000340140D0
:1036F00000100040036843F001030360704700BFFF
:10370000036843F080030360704700BFC3680B4346
:10371000C3607047C9430161704700BF0023036065
:103720004360836083817047B1F802C00B888A8848
:1037300043EA0C03B1F806C013430A8943EA0C03B9
:10374000B1F80AC013438A8943EA0C0313439BB2BE
:1037500043647047436C01290CBF43F4004323F4D6
:1037600000434364704700BF0023036043608360ED
:10377000704700BF032929D8DFE811F0AF006C00C3
:1037800029000400036A1188B2F804C023F48053AE
:103790000362C36923F44073C361036A43EA0133DC
:1037A0000362036A724923F400530362036A884286
:1037B00043EA0C33036240F0D6804368128923F455
:1037C00080434360436843EA821343607047036A5F
:1037D0001188B2F804C023F480730362C36923F034
:1037E0000303C361036A43EA01230362036A604976
:1037F00023F400730362036A884243EA0C230362E2
:1038000002D05C4B9842E1D1036AB2F802C0D18881
:1038100023F480630362036A43EA0C230362036AAE
:1038200023F400630362036A43EA012303624368EB
:103830001189528923F480534360436843EA01139A
:103840004360436823F400534360436843EA021330
:1038500043607047036A1188B2F804C023F0100374
:103860000362836923F440738361036A43EA0113AB
:103870000362036A3E4923F020030362036A88421D
:1038800043EA0C13036202D03A4B98429ED1036A7A
:10389000B2F802C0D18823F040030362036A43EA0E
:1038A0000C130362036A23F080030362036A43EA92
:1038B0000113036243681189528923F480634360D2
:1038C000436843EA81034360436823F40063436031
:1038D000436843EA820343607047036A118823F018
:1038E00001030362D0F818C093882CF0030CC0F8D1
:1038F00018C0D0F820C041EA0C010162016ADFF86B
:1039000070C021F002010162016A604543EA0103CF
:10391000036203D0174B98427FF458AF036A518873
:1039200023F004030362D0F820C0D38841EA0C01DD
:103930000162016A21F008010162016A0B4303621E
:103940004368118923F480734360D0F804C053891D
:1039500041EA0C014160426822F400724260426810
:10396000134343607047034B98427FF42FAF24E723
:10397000002C01400034014003290BD8DFE801F09E
:103980001C130B02C36923F4E043C361C36943EA18
:103990000223C3617047C36923F07003C361C36925
:1039A0001343C3617047836923F4E04383618369F0
:1039B00043EA022383617047836923F070038361C4
:1039C0008369134383617047032904D8DFE801F05A
:1039D0000806040202647047C2637047826370473E
:1039E0004263704703290BD8DFE801F01C130B0278
:1039F000C36923F40063C361C36943EA0223C3615B
:103A00007047C36923F00803C361C3691343C361EB
:103A10007047836923F400638361836943EA022367
:103A200083617047836923F00803836183691343CB
:103A30008361704703290BD8DFE801F01C130B02E8
:103A4000C36923F48063C361C36943EA0223C3618A
:103A50007047C36923F00403C361C3691343C3619F
:103A60007047836923F480638361836943EA022397
:103A700083617047836923F004038361836913437F
:103A800083617047436823F07003436043680B43CE
:103A90004360704721B9836843F0800383607047B7
:103AA000012900D07047836823F08003836070474A
:103AB000836823F007038360704700BF08B5234B7A
:103AC000984238D010D9224B98422AD003F5684347
:103AD00098421BD140F20E30FFF71AFCBDE80840B7
:103AE00040F20E30FFF722BCA3F5006398420ED0DF
:103AF00003F58063984209D140F21240FFF708FCB9
:103B0000BDE8084040F21240FFF710BC08BD40F28B
:103B10001140FFF7FDFBBDE8084040F21140FFF700
:103B200005BC40F21440FFF7F3FBBDE8084040F24B
:103B30001440FFF7FBBB40F21340FFF7E9FBBDE881
:103B4000084040F21340FFF7F1BB00BF004C0040BB
:103B50000050004000B5174B984283B0024617D082
:103B60000ED9154B984213D003F5684398421ED1E5
:103B7000CDE900010320FFF71DFCDDE900210EE087
:103B8000A3F50063984203D003F5806398420ED1F9
:103B90000220CDE90021FFF70DFCDDE9002100EB5B
:103BA0005103B3FBF1F39BB2936003B000BD00205F
:103BB000F5E700BF004C004000500040C36843F4EC
:103BC0000053C360704700BFC36823F008030B4372
:103BD000C3607047C36823F004030B43C36070479E
:103BE000C1F30801416070474068C0F308007047A6
:103BF0008B0901F01F011858C84000F00100704700
:103C00008A09012352F800C001F01F018B4043EAEA
:103C10000C031350704700BFC1F389128B0D52F88B
:103C200000C01858C1F30442012303FA02F201F064
:103C30001F01024203FA01F314BF0120002013EA1E
:103C40000C0F00F0010008BF002070474249434BB1
:103C5000D1F8882042F4700282B0C1F88820196837
:103C600041F0010119605968002041F0800159605C
:103C70000190019B44F61F62934205D8019B0133DA
:103C80000193019B9342F9D934494B6823F0030314
:103C90004B600B6823F084734FF41F0223F48033CE
:103CA0000B608A600A68002022F480220A60486063
:103CB000C8620A6842F001024FF4A0630A6001E0A2
:103CC000013B02D00A689007FAD5244B1A68920784
:103CD00041D5DA69224942F08052DA610A6842F439
:103CE00040420A605A685A605A685A605A6842F4F8
:103CF00080625A605A6822F0904222F470125A6030
:103D00005A6842F0036242F480225A601A6842F014
:103D100080721A601A689001FCD5114A136843F446
:103D2000803313605368D903FCD513680C4943F4FE
:103D3000003313604B689A03FCD5084A536823F09C
:103D400003035360536843F00203536053681B0737
:103D5000FCD502B07047FEE700ED00E00010024025
:103D60000070004010B586B01C468DF800008DF83C
:103D70000110022001A98DF80220FEF7BBFE0022EF
:103D800040F281730820CDE901322146ADF80C20C4
:103D90000DF10F03089A8DF80E006846FDF784FBBD
:103DA000084801A9FEF7E4FF0328074A04D09369F5
:103DB0000133936106B010BDD3690133D36106B0FE
:103DC00010BD00BF00640040983C0020044BD3F8B5
:103DD000B400A0F10100B0FA80F04009704700BFC4
:103DE000D03C002008B50E484FF40061FFF7AEF953
:103DF0000C480021FFF7AEFC0A484FF4FA6200219C
:103E0000FFF7E2FD07484FF4FA620121FFF7DCFDFE
:103E1000BDE8084003484FF4FA620221FFF7D4BD21
:103E200000080140002C014030B5884C2368032B6A
:103E300083B027D0D4F8B430012B0AD02368012BEB
:103E400007D02368022B04D003B0BDE83040FFF751
:103E5000C9BF7F484FF4FA620021FFF7B5FD7C48E7
:103E60004FF4FA620121FFF7AFFD79484FF4FA628F
:103E70000221FFF7A9FD7648002103B0BDE83040DC
:103E8000FFF768BC23690133012B236100F08680B2
:103E9000626C7049013202FB01F1B1F1553F62647D
:103EA00037D962699A4216D86B484FF40061FFF720
:103EB0004DF9FFF797FF042201232260A361FCF76D
:103EC000E3FF664BB3F8E232E061E385FEF7CEFB39
:103ED000206203B030BDFCF7D7FF38B95E484FF41D
:103EE0008051FFF735F9002840F0A6805A484FF47A
:103EF0008051FFF72DF910B9012384F8603056483E
:103F00004FF40061FFF722F9FFF76CFF052204234D
:103F1000D3E753480093FDF703FF5148B4F840C07E
:103F2000009BD0E90212B4F84200D4F838E01FFA3E
:103F30008CFCA1EB0C0180B2121A81EAE170A0EBBB
:103F4000E17086453CBFA0632163E16B82EAE27CBD
:103F5000ACEBE27C61453CBFC4F83CC062636428C2
:103F600002DCBCF1640F15DD4FF400613A480093A8
:103F7000FFF7ECF8FFF736FF05222260A261FCF79D
:103F800083FF364AE061B2F8E222E285FEF76EFB7B
:103F9000009B20622268032A83D09AE70093FCF7F3
:103FA00073FF009B0028A1D1CDE900304FF4805170
:103FB0002948FFF7CDF8002898D0D4F808E0294A1E
:103FC000606832F81E20019900EB400C264800FB87
:103FD00002F202F5F412254802F59062A0FB0202FB
:103FE0009409234A1A4812F80CE00CEB0205BEF1C2
:103FF000000F14BF22464FF4FA62FFF7E5FC6A781F
:1040000000991348002A14BF22464FF4FA62FFF7C2
:10401000DBFCAB780E48002B4FF0020114BF2246A8
:104020004FF4FA62FFF7D0FC0B484FF4006103B085
:10403000BDE83040FFF788B807484FF40061FFF74C
:104040008DF800283FF452AF43E700BFD03C00207A
:10405000002C0140ABAAAAAA000801405C31002054
:104060007C340020447E000830F8FFFFD34D6210FE
:10407000247E000870B53748374C86B04FF4805125
:10408000FFF766F8D4F8B430064613B92268032A5D
:104090000CD12368012B33D02368022B00F0AF81B1
:1040A000D4F8B430012B5DD006B070BD94F8602018
:1040B000002AEED0294D274884F860304FF4006183
:1040C0000393FFF741F82989039A286861F30F02E7
:1040D0006968FDF7DDFD2B89039A6968A4F858002B
:1040E00063F30F022868FDF7E3FD4FF40061034618
:1040F0001848A4F85A30FFF729F82368012BCBD1D0
:104100000393FEF7B3FA626A801A0928CCD9FCF748
:10411000BBFE38B90F484FF48051FFF719F800285B
:1041200040F0C6814FF400610A48FFF70FF8FFF72F
:1041300059FE052204232260A361FCF7A5FE084B6B
:10414000B3F8E232E061E385FEF790FA206206B050
:1041500070BD00BF00080140D03C0020503100205D
:104160005C310020FEF782FAD4F8B830C01A092872
:104170009AD9CC4B59681A891868FDF789FDC94B43
:10418000024659681868A4F854201A89FDF790FD72
:104190004FF6FF710246ADF81610A4F8562041F212
:1041A000A1010DF11602BF48FDF7FAFC41F2A1038F
:1041B000A4F86830BDF81630A4F87830831C022BC0
:1041C00094BF404203204FF6FF7384F888000DF13E
:1041D000160243F2DC21B348ADF81630FDF7E0FCDF
:1041E00043F2DC23A4F86A30BDF81630A4F87A3024
:1041F000831C022B94BF404203204FF6FF7384F8C8
:1042000089000DF1160242F61541A648ADF81630A8
:10421000FDF7C6FC42F61543A4F86C30BDF8163025
:10422000A4F87C30831C022B94BF404203204FF63D
:10423000FF7384F88A000DF116024FF4004199488B
:10424000ADF81630FDF7ACFC821C022A4FF4004397
:10425000A4F86E3098BF4042BDF81630A4F87E3006
:1042600088BF03204FF6FF7284F88B00ADF816204C
:104270004FF408410DF116028A48A4F85030FDF7BA
:104280008FFC821C022A4FF40843A4F8703098BFB8
:104290004042BDF81630A4F8803088BF03204FF6A6
:1042A000FF7284F88C00ADF816204FF410410DF128
:1042B00016027C48A4F85230FDF772FC821C022AD8
:1042C0004FF41043A4F8723098BF4042BDF8163046
:1042D000A4F8823088BF03204FF6FF7284F88D0067
:1042E000ADF816204FF430410DF116026D48A4F8D8
:1042F0006230FDF755FC821C022A4FF43043A4F8CB
:10430000743098BF4042BDF81630A4F8843088BF9E
:1043100003204FF6FF7184F88E000DF11602ADF800
:1043200016106048A4F864304FF42841FDF738FCBB
:104330004FF42843A4F87630831C022BBDF81620D6
:10434000594BA4F8862094BF4042032084F88F0084
:10435000A4F86620D3F80028C4F89020D3F80428E5
:10436000C4F89420D3F80828C4F8982003F55043E3
:10437000D3F8042CC4F89C20D3F80C2CC4F8A0204B
:10438000D3F8082CC4F8A420D3F80428C4F8A82033
:10439000D3F80C28C4F8AC20D3F80838C4F8B030EF
:1043A000002E6ED00022A318013293F8881001F07D
:1043B000FF03002965D1082AF5D1B4F8502092B244
:1043C000002A5ED1B4F8522092B2002A59D1B4F832
:1043D000622022F001025205520DA02A51D1B4F8F8
:1043E000642092B2B2F5377F4BD1B4F8662040F228
:1043F000154192B28A4244D10122A26442E0FEF702
:1044000035F9A36AC01A09287FF64EAE27484FF443
:104410000061FEF799FE234B59681A891868FDF769
:1044200037FC204B844659681A891868A4F85CC088
:10443000FDF73EFC4FF4006103461C48A4F85E30D3
:10444000FEF784FEB4F85C309BB2002B7FF46AAEBA
:10445000B4F85E309BB2002B7FF464AEFCF714FD21
:1044600000287FF45FAE00F1804000F584304FF407
:104470008051FEF76DFE00283FF454AE0323236005
:1044800012E603230393FFF7ADFC0022C4F8B42027
:1044900094F8BC10A06C0090039B0620FFF762FC10
:1044A00006B070BD503100200030004000080140CF
:1044B00008484FF40061FEF751FE00283FF432AE89
:1044C00005480399FFF746F9FEF7D0F80223A062EA
:1044D0002360E9E500080140002C0140026840F239
:1044E00001739A4228D1037A33BB427A22BB837A82
:1044F000082B21D170B5817B062986B0034652D0A6
:10450000081F012835D9032910D9A84801680129B5
:10451000044616D00168032913D00421C0F8B42042
:1045200003938264C164FFF75DFC039B184606B0E9
:10453000BDE87040FCF7D0BF9D4A9368013393609B
:1045400070479C4803934FF40061FEF7FFFDFFF7AF
:1045500049FC052102222160A261FCF795FC964AE4
:10456000E061B2F8E222E285FEF780F8039B206268
:10457000DCE704A903F10B00FCF746FF70B90390D8
:10458000FEF774F88D49039B0A68821A132A61D8D2
:10459000874A53690133536106B070BD844AD368BA
:1045A0000133D360F8E704A90B30FCF701FF0028C2
:1045B000F4D19DF81230002BF0D17C499DF81150B8
:1045C0008B640222CA640B68012B0C4671D00B6805
:1045D000032B6ED0D1F8B430002B6AD1FCF754FC19
:1045E00030F0200340F0BA80724803934FF48051BA
:1045F000FEF7AEFD039B30B9FCF746FC10F0200F30
:10460000039B00F0AB80039384F8BC50FEF72EF8B8
:104610000121039BC4F8B8000022C4F8B4100320A1
:1046200003F1340124F8112003F13C0124F8112096
:10463000E1180133082B81F88800F1D1FFF7D2FB94
:104640005F480021FFF786F85A484FF40061FEF7F3
:104650007BFDA1E7DFF858C10860DCF804209DF875
:10466000101001320529CCF8042039D0FDF7FEFFE7
:104670004E4A1368012B1446054622D01368032BBB
:104680001FD0136AC31AB3F5FA7F1AD3FCF7FCFBE9
:10469000064610B9A36C002B68D1FCF7F5FB032389
:1046A00000909DF812209DF811100420FFF75AFB8E
:1046B00072E700220092022329460620FFF752FBF0
:1046C0006AE72168A3696068A268000240EA0310F3
:1046D0000843E36840EA024040EA03600223DFE760
:1046E00032499DF81150C1F8B43003228B64CA647A
:1046F0000B68012B0C461BD00B68032B18D0FFF75F
:1047000071FB2368A2696068D4F808E0D4F80CC093
:10471000000240EA0210184340EA0E4040EA0C60F2
:104720000023009029461A460520FFF71BFB33E7BC
:104730004FF400611F48FEF709FDFFF753FB052208
:1047400002232260A361FCF79FFB1B4AE061B2F8E1
:10475000E222E285FDF78AFF2062D2E70022009282
:10476000032329460620FFF7FDFA15E711484FF409
:104770008051FEF7EDFC00288FD00E484FF4006109
:10478000FEF7ECFC0346002887D10B480D4990F852
:10479000DD2291F8F5120AB1B1B90126003918BF2E
:1047A000012146EA410003237AE700BFD03C002004
:1047B000983C0020000801405C310020CC3C0020E7
:1047C000002C01407C3400209DF8122062609DF88E
:1047D0001320A260B0F8E2129DF814201748E2609E
:1047E00030F8122003931E2000FB02F262610122C6
:1047F0002361A361E361A363E3632363636363648E
:10480000A18565622260FFF7EDFA03990C48FEF777
:10481000A1FF0C484FF40061FEF796FC2268A169E5
:104820006068039B000240EA01101043A26840EA5E
:104830000240E26840EA026032E700BF387E0008CA
:10484000002C01400008014038B5143800230B70DB
:10485000232800F23D81DFE810F02B0124011D0127
:1048600017010401F300EB00E800DF00D600D100DF
:10487000B100A8009F0096008D0084007B007200AC
:104880006900650061005D005900550051004D0050
:104890004900450042003D00380033002E00290049
:1048A00024008D4BB3F85E0080B238BD8A4BB3F85C
:1048B0005C0080B238BD884BB3F85A0080B238BD76
:1048C000854BB3F8580080B238BD834BB3F856001F
:1048D00080B238BD804BB3F8540080B238BD7E4BF7
:1048E000D86C38BD7C4BD3F8B00038BD7A4BD3F8C8
:1048F000AC0038BD784BD3F8A80038BD764BD3F860
:10490000A40038BD744BD3F8A00038BD724BD3F867
:104910009C0038BD704BD3F8980038BD6E4BD3F86F
:10492000940038BD6C4BD3F8900038BD6A4BB3F897
:104930007600B3F8863080B240EA034038BD664B5B
:10494000B3F87400B3F8843080B240EA034038BD55
:10495000614BB3F87200B3F8823080B240EA034092
:1049600038BD5D4BB3F87000B3F8803080B240EAD8
:10497000034038BD584BB3F86E00B3F87E3080B2B8
:1049800040EA034038BD544BB3F86C00B3F87C30B8
:1049900080B240EA034038BD4F4BB3F86A00B3F829
:1049A0007A3080B240EA034038BD4B4BB3F8680020
:1049B000B3F8783080B240EA034038BD464B93F8F4
:1049C000881093F889C093F88A0093F88B2000012F
:1049D00040EA8C00084340EA821093F88C2040EAB9
:1049E000022093F88D2040EA822093F88E2093F8DD
:1049F0008F3040EA023040EA833038BD364BB3F89E
:104A0000660080B238BD344BB3F85000B3F8523072
:104A100080B240EA034038BD2F4BB3F86200B3F8D0
:104A2000643080B240EA034038BD2B4B986C38BDEF
:104A30002A4A0523516810681289FDF749F938BDE3
:104A4000264C0223616822892068FDF741F96168DC
:104A50002289054606232068FDF73AF945EA004019
:104A600038BD1E4B59681A891868FDF711F91B4BA0
:104A7000D88059681A891868FDF71AF9174BDA882F
:104A8000188142EA004038BD134B1869DB6940EADF
:104A9000034038BD104B988DDB8D80B240EA034057
:104AA00038BD0D4B186B5B6B80B240EA034038BDDC
:104AB000094B1968D3F818C058689A68DB68000277
:104AC00040EA0C10084340EA024040EA036038BD67
:104AD00001230B70002038BDD03C00205031002055
:104AE000F0B514488FB00168826943680D918668FB
:104AF0000C92C7680B930369026B416B0893848D1A
:104B000009920A91C58DFCF7BFF9089B0A99099A89
:104B10000491A4B2ADB2CDE90650CDE90173039280
:104B20000D990594DDE90B320096034800F092FDE3
:104B30000FB0F0BDD03C0020C07D00082DE9F04151
:104B4000DFF874801B4D00260123C8F80060C8F808
:104B50001860C8F81C60C8F82060C8F84460C8F83D
:104B60004860C8F84C30C8F8B460FFF73BF93746E6
:104B700034462846FDF7D4F8072C98BF0134F8D9FD
:104B8000D5E902230134482C17441E44F1D1BF0952
:104B9000B609A8F84070A8F84260B8F84020B8F804
:104BA000423092B29BB2C5E92623BDE8F041FFF73F
:104BB00019B900BF7C340020D03C0020DFF834D08D
:104BC0000D480E490E4A002302E0D458C450043365
:104BD000C4188C42F9D30B4A0B4C002301E013603C
:104BE0000432A242FBD3FFF731F800F0CBFDFCF713
:104BF0005FF870470000012000000020CC01002079
:104C000018820008CC010020DC3E0020FEE72DE9E0
:104C1000FF4757EC106B002F0C469146DDF830A093
:104C200019464FF0000203DA07F100431F462D2218
:104C30000D9D0A7025F02005462D04D0452D00D18C
:104C40000134022100E0032103AB019302AB009386
:104C500047EC106B5346224600F056FE472D804627
:104C60001AD119F0010F0ED000EB04090022002325
:104C700030463946FBF7D8FE08B1CDF80C9030220B
:104C8000039B4B451ED3039B0E9AA3EB08034046A0
:104C9000136004B0BDE8F087462D00EB0409E5D1B0
:104CA0000378302B0AD10022002330463946FBF727
:104CB000BBFE18B9C4F10104CAF80040DAF80030AC
:104CC0009944D3E7591C03911A70D9E7F7B5002925
:104CD000BABF49422D232B230929027043702ADDD4
:104CE0000DF10704871CA6460A26A446B1FBF6F57B
:104CF00006FB15123032632904F1FF340CF8012C45
:104D00002946F2DC3031ACF1020204F8011C411CEE
:104D1000144672450AD30DF10903A3EB0C03A64513
:104D200038BF00233B44181A03B0F0BD12F8013B12
:104D300001F8013FEDE7302330318370C170031D6E
:104D4000F1E700002DE9F04F8FB00C46DDF86080F0
:104D500016461F46054600F03DFD036807931846BA
:104D6000FBF736FA00230C93D8F8003094F818A01B
:104D7000D4F800B00890073323F00703B3EC027BAC
:104D80008DED047BC8F80030DDE9048323F0004991
:104D900084ED127B9A4B4FF0FF3240464946FBF7B9
:104DA00075FE70BB964B4FF0FF3240464946FBF70D
:104DB0004FFE30BBDDE9040100220023FBF73EFE7D
:104DC00010B12D2384F843308E4A8F4BBAF1470F30
:104DD0008CBF90469846032323612BF00403236085
:104DE0004FF00009009733460DAA2146284600F0EF
:104DF000CDF9013040F08C804FF0FF300FB0BDE8AE
:104E0000F08FDDE9042310461946FBF73FFE40B161
:104E1000059B7E4A002BBCBF2D2384F843307C4B7E
:104E2000D4E763685A1C0AF0DF093BD106236360AC
:104E30004BF480620023226003930CABCDE901A305
:104E40000BAB009361689DED040B0DF12B0328461D
:104E5000FFF7DDFEB9F1470F0B99804629D1C81C39
:104E600002DB63688B4241DAAAF1020A5FFA8AFA2E
:104E70000139524604F150000B91FFF727FF0C9ABD
:104E80001318012A8146236102DC2268D20701D56A
:104E9000013323619DF82B30002BA3D02D2384F800
:104EA00043309FE7B9F1470FC2D1002BC0D1012396
:104EB000BDE7BAF1650FDBD9BAF1660F18D1002949
:104EC00063680BDD216113B92268D00702D5013375
:104ED0000B442361A1654FF00009DBE713B9226899
:104EE000D20701D50233F4E70123F2E74FF0670A56
:104EF0000C9B8B4205DC23682161D807EAD54B1C4B
:104F0000E7E70029D4BFC1F1020201221344E0E720
:104F100023685A0507D42369424631462846B847D4
:104F2000013028D168E7BAF1650F40F2DB80D4E99F
:104F3000120100220023FBF777FD90B3354A0123CD
:104F400031462846B84701303FF456AFDDE90B380B
:104F5000434502DB2368D8070DD5DDE90723314639
:104F60002846B84701303FF447AF4FF0000908F139
:104F7000FF38C84509DC23689B0700F10481E0681D
:104F80000D9B9842B8BF184638E7012304F11A0276
:104F900031462846B84701303FF42EAF09F10109E8
:104FA000E7E70B9B834237DC1A4A01233146284648
:104FB000B84701303FF420AFDDE90B3959EA03036C
:104FC00002D12368D907D6D5DDE907233146284623
:104FD000B84701303FF410AF4FF0000A0B9B5B4223
:104FE000534501DC4B4697E7012304F11A02314691
:104FF0002846B84701303FF4FFAE0AF1010AEDE759
:10500000FFFFEF7F5C7E0008587E0008647E00088A
:10501000607E0008687E0008A36DDDF830B05B4557
:10502000A8BF5B46002B049337DC4FF0000904F166
:105030001A02049BD4F858A0002BACBFAAEB0303C0
:1050400053464B4531DC0B9B9B453ADC2368DA0722
:1050500037D40B9BABEB0309ABEB0A039945A8BF15
:105060009946B9F1000F34DC4FF000080B9BB9F101
:10507000000FABEB0303A8BFA3EB090343457FF786
:105080007AAF012304F11A0231462846B8470130AD
:105090003FF4B2AE08F10108E8E7049B424631460E
:1050A0002846B8470130C0D1A6E60123314628463C
:1050B0000992B84701303FF49FAE099A09F10109FE
:1050C000B7E7DDE9072331462846B8470130C0D1AC
:1050D00092E64B4608EB0A0231462846B8470130B3
:1050E000C2D189E6DDF830A0BAF1010F01DCDB079F
:1050F00035D50123424631462846B84701303FF4B2
:105100007BAEDDE9072331462846B84701303FF43E
:1051100073AED4E91201002200230AF1FF3AFBF733
:1051200083FCC8B9534608F1010231462846B84706
:1051300001300DD160E6012304F11A023146284600
:10514000B84701303FF458AE08F10108D045F2DB12
:105150004B4604F15002E0E64FF00008F6E7012369
:105160004246E2E7012304F1190231462846B847D6
:1051700001303FF441AE08F10108E3680D995B1A74
:105180004345EFDCFBE64FF00008F6E72DE9F0477A
:10519000914698468A680B69089E9342B8BF1346A9
:1051A000C9F8003091F8432007460C4612B101338C
:1051B000C9F800302368990642BFD9F8003002339D
:1051C000C9F80030256815F0060507D104F1190A61
:1051D000E368D9F800209B1AAB4229DC94F84330ED
:1051E0002268003B18BF012392062ED404F143022B
:1051F00041463846B047013021D02368A168226972
:1052000003F00603042B01BFE568D9F80030ED1A5E
:1052100025EAE57518BF00258B1A2B449142C8BFBB
:105220001D464FF000091A344D451AD1002008E000
:105230000123524641463846B047013003D14FF072
:10524000FF30BDE8F0870135C2E7E1185A1C302075
:1052500081F84300224494F8451082F84310023349
:10526000C4E70123224641463846B0470130E6D024
:1052700009F10109D8E700002DE9F04398460B7EBB
:1052800085B0782B174606460C9A0C4609D8622B37
:1052900001F1430108D8002B00F0DC80582B00F00E
:1052A000BD8004F1420539E0A3F163001528F8D868
:1052B00001A555F820F000BF115300082553000840
:1052C000A3520008A3520008A3520008A3520008EA
:1052D00025530008A3520008A3520008A352000857
:1052E000A35200083554000851530008E353000846
:1052F000A3520008A35200085D540008A3520008FE
:1053000051530008A3520008A3520008EB530008B1
:105310001368191D1B68116004F1420584F84230BE
:105320000123A8E013682568181D1060280601D520
:105330001B6803E06A06FBD5B3F90030002B03DAE3
:105340002D225B4284F84320DFF878C10A2213E063
:105350002568106815F0800F50F8043B02D16D06E7
:1053600048BF9BB21060227EDFF858C16F2A5DD122
:105370000822002084F843006568A560002D05DB45
:1053800020681D4320F00400206051D00D46B3FB7F
:10539000F2F002FB103E9A421CF80EE005F801ED17
:1053A0000346F4D9082A0BD12368DA0708D5236904
:1053B00062689A42DEBF302305F8013C05F1FF35F3
:1053C000491B2161CDF800803B4603AA21463046A7
:1053D000FFF7DCFE013053D14FF0FF3005B0BDE8E0
:1053E000F083236843F020032360DFF8DCC07823D8
:1053F00084F845302068156810F0800F55F8043B9C
:1054000003D110F0400F18BF9BB21560C50744BF11
:1054100040F02000206023B11022AAE7DFF8A4C0EA
:10542000E6E7226822F020022260F5E70A22A0E7E0
:105430000D46B7E71368D4F800C060691D1D1560FC
:105440001CF0800F1B6801D0186003E01CF0400FB7
:10545000FAD01880002323610D46B3E71368191DA5
:1054600011601D68626800212846FAF761FE08B1E4
:10547000401B606063682361002384F84330A1E728
:1054800023692A4639463046C0470130A4D02368F4
:105490009B0714D4E068039B9842B8BF18469DE769
:1054A000012304F1190239463046C047013093D038
:1054B0000135E36803995B1AAB42F1DCEAE70025AA
:1054C000F7E700BF6A7E00087B7E0008002310B566
:1054D0000446C0E90033C0E9043383608181436638
:1054E000C2818361194608225C3000F03CF90D4B03
:1054F00063620D4BA3620D4BE3620D4B23630D4BB7
:1055000024629C4206D003F16802944202D0D03358
:105510009C4205D104F15800BDE8104000F056B996
:1055200010BD00BFE56F0008077000083F7000085D
:1055300065700008903D0020024A0349034800F0CE
:105540006BB800BF040000206D71000880010020CE
:1055500041680C4B994210B5044601D001F006FE9B
:10556000A168094B994202D0204601F0FFFDE16895
:10557000064B994204D02046BDE8104001F0F6BD2C
:1055800010BD00BF903D0020F83D0020603E00208F
:1055900010B50A4B0A4A1A600A4800220421FFF794
:1055A00095FF094801220921FFF790FFBDE810404F
:1055B000064802221221FFF789BF00BFC83E002023
:1055C00039550008903D0020F83D0020603E002045
:1055D000014800F0FCB800BFCD3E0020014800F0BB
:1055E000F7B800BFCD3E002010B50446FFF7F0FF2E
:1055F000236A1BB1BDE81040FFF7F0BF044B2362E4
:10560000044B1B68002BF5D1FFF7C2FFF2E700BF88
:1056100051550008C83E00202DE9F84380468946D0
:1056200014460026D4E90175013F05D52468002CF5
:10563000F8D13046BDE8F883AB89012B07D9B5F91D
:105640000E30013303D029464046C847064368352B
:10565000EAE700000FB407B5064904AB086853F841
:10566000042B8168019301F005F803B05DF804EBA9
:1056700004B070477C010020036A70B58468054659
:105680000E460BB9FFF7B0FF636EDB0705D4A389A5
:10569000980502D4A06D00F09AF8A389190702D5E5
:1056A0002369002B35D12146284601F0C5FD80B382
:1056B0004FF0FF35636EDA0705D4A3899B0502D44A
:1056C000A06D00F085F8284670BD002B04DAA269B1
:1056D000934217DB0A2915D023685A1C22601970DF
:1056E000A36816F8011F013BA3600029EDD18B428E
:1056F00011DA22460A21284601F060FD0130D7D098
:105700000A25D7E72246284601F058FD0130E7D1A7
:10571000CEE7013EE4E723685A1C22600A221A7091
:10572000EEE70000024B01461868FFF7A5BF00BF77
:105730007C010020884210B501EB020402D98442AA
:10574000234607D8431EA14207D011F8012B03F8C6
:10575000012FF8E70244824200D110BD13F8011D69
:1057600002F8011DF7E702440346934200D1704757
:1057700003F8011BF9E70000014B1868704700BFF0
:105780007C01002070B50D4B0D4C00261D1BB6EBA7
:10579000A50F09D102F0D8F90A4C0B4B00261D1BAE
:1057A000B6EBA50F05D170BD54F8043B9847013600
:1057B000EDE754F8043B98470136F1E71082000802
:1057C0001082000810820008148200087047704799
:1057D0007047000000487047000100200A449142D1
:1057E00000F1FF3300D1704710B511F8014B03F8F9
:1057F000014F9142F9D110BD2DE9F74F03690C69B2
:10580000A34280467EDB013C01F11407A30000F1B6
:105810001405009305EB8403019357F8243055F8E1
:10582000242001339A4207EB8409B2FBF3F62ED30E
:105830004FF0000ABC46AE46D3465CF8043B98B233
:1058400006FB00A0020C1B0C06FB0323DEF8002065
:1058500080B292B2121A5A44DEF800004FEA134A9C
:105860009BB2C3EB224303EB104392B242EA0342E2
:10587000E1454EF8042B4FEA234BDED2009BEB5858
:105880002BB9019B1A1F954230D3C8F810404046EF
:1058900001F09CFA002825DB01362946002057F844
:1058A000042BD1F800C01FFA82FE1FFA8CF3A3EB81
:1058B0000E030344120CC2EB234202EB1C429BB2C8
:1058C00043EA0243B94541F8043B4FEA2240E6D29D
:1058D00055F8242005EB840322B9043B9D420BD3E9
:1058E000C8F81040304603B0BDE8F08F1368002BB5
:1058F000CBD1043A013CC6E71A68002AF0D1043B38
:10590000013CEBE70020EEE72DE9F04F99B08DED7B
:105910000E0B0C92C269229C0A9157EC106B8146C7
:10592000139382B9102000F0C5FD0246C9F81C008F
:1059300020B9A94BEF21A94801F0B4FD0023C0E92B
:1059400001330360C360116859B152684A60012392
:1059500093408B60484600F0EBFFD9F81C300022E2
:105960001A60B7F10008B5BF01230023236023604C
:105970009B4BBCBF28F00048CDF83C8033EA0803BD
:105980001AD1139AC8F3130842F20F7358EA0608A3
:10599000136000F06185239B53B9924B21E0924B39
:1059A00000930833239A1360009819B0BDE8F08F74
:1059B0008C4B00930333F5E79DED0E7B002251ECF9
:1059C000170B00238DED067BFBF72EF8824650B1B6
:1059D000139A01231360239B13B1239A834B136003
:1059E000834B0093E0E79DED060B16AA17A94846E6
:1059F00001F0A0FA5FEA1854169D019079D0079B38
:105A0000CDF850A0C3F31303DDE9060143F07F5343
:105A100043F44013A4F2FF3419460022754BFAF701
:105A2000E3FB67A3D3E90023FAF796FD66A3D3E966
:105A30000023FAF7DBFB064620460F46FAF722FD65
:105A400063A3D3E90023FAF787FD02460B463046ED
:105A50003946FAF7CBFB06460F46FBF72DF8002236
:105A60008046002330463946FAF7E8FF48B1404601
:105A7000FAF708FD32463B46FAF7D6FF08B908F1B7
:105A8000FF38B8F1160F51D85B4B03EBC803D3E9CD
:105A90000023DDE90601FAF7D1FF002848D008F11C
:105AA000FF38002312932D1B6B1E089343BF002366
:105AB000C5F1010708930027B8F1000F3ADB089BF6
:105AC000CDF8348043440893002309930A9B092BA3
:105AD00062D8052BC4BF043B0A930A9BA3F10203BF
