:020000040800F2
:10000000000001209D860008A96A0008AD6A00086A
:10001000B96A0008C56A0008D16A0008000000003B
:10002000000000000000000000000000DD6A000881
:10003000E16A000800000000E56A0008E96A0008BB
:10004000ED860008ED860008ED860008ED860008C4
:10005000ED860008ED860008ED860008ED860008B4
:10006000ED860008ED860008ED860008ED860008A4
:10007000ED860008ED860008ED860008ED86000894
:10008000ED860008ED860008ED860008ED86000884
:10009000ED6A0008ED860008ED860008ED86000890
:1000A000ED8600087D6C0008ED860008ED860008EE
:1000B000ED860008ED860008ED860008ED86000854
:1000C000ED860008ED860008ED860008ED86000844
:1000D000ED860008ED860008556D0008ED860008E5
:1000E000FD6C0008ED860008ED860008ED8600082E
:1000F000ED860008ED860008ED860008ED86000814
:10010000ED860008ED860008ED860008ED86000803
:10011000ED860008ED860008ED860008ED860008F3
:10012000ED860008ED860008ED860008ED860008E3
:1001300001F0FF01102A2BDB10F0070F08D010F898
:10014000013B013A8B422DD010F0070F42B3F6D19C
:10015000F0B441EA012141EA014122F007047FF0B5
:1001600000070023F0E80256083C85EA010586EA0C
:10017000010685FA47F5A3FA87F586FA47F6A5FA48
:1001800087F68EB9EED1F0BC01F0FF0102F0070254
:1001900032B110F8013B013A83EA010313B1F8D1FF
:1001A0000020704701387047002D06BF35460338E0
:1001B000073815F0010F07D1013015F4807F02BF19
:1001C000013015F4C03F0130F0BC0138704700BF6A
:1001D000034613F8012B002AFBD1181A0138704787
:1001E00081F0004102E000BF83F0004330B54FEAE8
:1001F00041044FEA430594EA050F08BF90EA020F55
:100200001FBF54EA000C55EA020C7FEA645C7FEAE7
:10021000655C00F0E2804FEA5454D4EB5555B8BF0A
:100220006D420CDD2C4480EA020281EA030382EA7B
:10023000000083EA010180EA020281EA0303362D0D
:1002400088BF30BD11F0004F4FEA01314FF4801CE0
:100250004CEA113102D0404261EB410113F0004FF2
:100260004FEA03334CEA133302D0524263EB4303A9
:1002700094EA050F00F0A780A4F10104D5F1200E47
:100280000DDB02FA0EFC22FA05F2801841F10001A2
:1002900003FA0EF2801843FA05F359410EE0A5F176
:1002A00020050EF1200E012A03FA0EFC28BF4CF0A7
:1002B000020C43FA05F3C01851EBE37101F000455D
:1002C00007D54FF0000EDCF1000C7EEB00006EEB6A
:1002D0000101B1F5801F1BD3B1F5001F0CD34908F4
:1002E0005FEA30004FEA3C0C04F101044FEA44524B
:1002F00012F5800F80F09A80BCF1004F08BF5FEAD2
:10030000500C50F1000041EB045141EA050130BDB1
:100310005FEA4C0C404141EB0101013C28BFB1F5C3
:10032000801FE9D291F0000F04BF01460020B1FA0E
:1003300081F308BF2033A3F10B03B3F120020CDAE1
:100340000C3208DD02F1140CC2F10C0201FA0CF0BF
:1003500021FA02F10CE002F11402D8BFC2F1200C24
:1003600001FA02F120FA0CFCDCBF41EA0C019040DA
:10037000E41AA2BF01EB0451294330BD6FEA040423
:100380001F3C1CDA0C340EDC04F11404C4F120020E
:1003900020FA04F001FA02F340EA030021FA04F320
:1003A00045EA030130BDC4F10C04C4F1200220FA77
:1003B00002F001FA04F340EA0300294630BD21FAB5
:1003C00004F0294630BD94F0000F83F4801306BF7B
:1003D00081F480110134013D4EE77FEA645C18BF6F
:1003E0007FEA655C29D094EA050F08BF90EA020F06
:1003F00005D054EA000C04BF1946104630BD91EAFE
:10040000030F1EBF0021002030BD5FEA545C05D100
:100410004000494128BF41F0004130BD14F580043F
:100420003CBF01F5801130BD01F0004545F0FE41B3
:1004300041F470014FF0000030BD7FEA645C1ABFE8
:10044000194610467FEA655C1CBF0B46024650EA1F
:10045000013406BF52EA033591EA030F41F400214B
:1004600030BD00BF90F0000F04BF0021704730B5D1
:100470004FF4806404F132044FF000054FF00001A6
:1004800050E700BF90F0000F04BF0021704730B567
:100490004FF4806404F1320410F0004548BF40423C
:1004A0004FF000013EE700BF42004FEAE2014FEA91
:1004B00031014FEA02701FBF12F07F4393F07F4F6C
:1004C00081F06051704732F07F4208BF704793F06F
:1004D0007F4F04BF41F40021704730B54FF4607482
:1004E00001F0004521F000411CE700BF50EA010285
:1004F00008BF704730B54FF000050AE050EA01022E
:1005000008BF704730B511F0004502D5404261EB9D
:1005100041014FF4806404F132045FEA915C3FF4DE
:10052000D8AE4FF003025FEADC0C18BF03325FEA7B
:10053000DC0C18BF033202EBDC02C2F1200300FA2C
:1005400003FC20FA02F001FA03FE40EA0E0021FA51
:1005500002F11444BDE600BF70B54FF0FF0C4CF43F
:10056000E06C1CEA11541DBF1CEA135594EA0C0FF1
:1005700095EA0C0F00F0DEF82C4481EA030621EA2C
:100580004C5123EA4C5350EA013518BF52EA033567
:1005900041F4801143F4801338D0A0FB02CE4FF019
:1005A0000005E1FB02E506F00042E0FB03E54FF049
:1005B0000006E1FB03569CF0000F18BF4EF0010E41
:1005C000A4F1FF04B6F5007F64F5407404D25FEA3D
:1005D0004E0E6D4146EB060642EAC62141EA5551F0
:1005E0004FEAC52040EA5E504FEACE2EB4F1FD0C32
:1005F00088BFBCF5E06F1ED8BEF1004F08BF5FEAB0
:10060000500E50F1000041EB045170BD06F0004661
:1006100046EA010140EA020081EA0301B4EB5C040E
:10062000C2BFD4EB0C0541EA045170BD41F4801106
:100630004FF0000E013C00F3AB8014F1360FDEBF2B
:10064000002001F0004170BDC4F10004203C35DA07
:100650000C341BDC04F11404C4F1200500FA05F38A
:1006600020FA04F001FA05F240EA020001F000422B
:1006700021F0004110EBD37021FA04F642EB0601A1
:100680005EEA430E08BF20EAD37070BDC4F10C04CB
:10069000C4F1200500FA04F320FA05F001FA04F28F
:1006A00040EA020001F0004110EBD37041F100017B
:1006B0005EEA430E08BF20EAD37070BDC4F1200586
:1006C00000FA05F24EEA020E20FA04F301FA05F2EE
:1006D00043EA020321FA04F001F0004121FA04F296
:1006E00020EA020000EBD3705EEA430E08BF20EA66
:1006F000D37070BD94F0000F0FD101F000464000A0
:1007000041EB010111F4801F08BF013CF7D041EA21
:10071000060195F0000F18BF704703F00046520025
:1007200043EB030313F4801F08BF013DF7D043EAF6
:100730000603704794EA0C0F0CEA135518BF95EAAC
:100740000C0F0CD050EA410618BF52EA4306D1D133
:1007500081EA030101F000414FF0000070BD50EA52
:10076000410606BF1046194652EA430619D094EADC
:100770000C0F02D150EA013613D195EA0C0F05D1C6
:1007800052EA03361CBF104619460AD181EA03011A
:1007900001F0004141F0FE4141F470014FF00000D2
:1007A00070BD41F0FE4141F4780170BD70B54FF06D
:1007B000FF0C4CF4E06C1CEA11541DBF1CEA1355ED
:1007C00094EA0C0F95EA0C0F00F0A7F8A4EB0504CF
:1007D00081EA030E52EA03354FEA013100F08880C6
:1007E0004FEA03334FF0805545EA131343EA12638F
:1007F0004FEA022245EA111545EA10654FEA002644
:100800000EF000419D4208BF964244F1FD0404F5FC
:10081000407402D25B084FEA3202B61A65EB030558
:100820005B084FEA32024FF480104FF4002CB6EB15
:10083000020E75EB030E22BFB61A754640EA0C0095
:100840005B084FEA3202B6EB020E75EB030E22BFD5
:10085000B61A754640EA5C005B084FEA3202B6EB16
:10086000020E75EB030E22BFB61A754640EA9C00D5
:100870005B084FEA3202B6EB020E75EB030E22BFA5
:10088000B61A754640EADC0055EA060E18D04FEA63
:10089000051545EA16754FEA06164FEAC30343EA03
:1008A00052734FEAC2025FEA1C1CC0D111F4801FD0
:1008B0000BD141EA00014FF000004FF0004CB6E7C9
:1008C00011F4801F04BF01430020B4F1FD0C88BF68
:1008D000BCF5E06F3FF6AFAEB5EB030C04BFB6EB73
:1008E000020C5FEA500C50F1000041EB045170BD66
:1008F0000EF0004E4EEA113114EB5C04C2BFD4EB93
:100900000C0541EA045170BD41F480114FF0000E16
:10091000013C90E645EA060E8DE60CEA135594EA92
:100920000C0F08BF95EA0C0F3FF43BAF94EA0C0F95
:100930000AD150EA01347FF434AF95EA0C0F7FF40A
:1009400025AF104619462CE795EA0C0F06D152EA5E
:1009500003353FF4FDAE1046194622E750EA410642
:1009600018BF52EA43067FF4C5AE50EA41047FF453
:100970000DAF52EA43057FF4EBAE12E74FF0FF3CB8
:1009800006E000BF4FF0010C02E000BF4FF0010C89
:100990004DF804CD4FEA410C7FEA6C5C4FEA430C02
:1009A00018BF7FEA6C5C1BD001B050EA410C0CBF51
:1009B00052EA430C91EA030F02BF90EA020F0020B3
:1009C000704710F1000F91EA030F58BF994208BF1A
:1009D00090422CBFD8176FEAE37040F001007047D7
:1009E0004FEA410C7FEA6C5C02D150EA013C07D12E
:1009F0004FEA430C7FEA6C5CD6D152EA033CD3D079
:100A00005DF8040B704700BF8446104662468C4672
:100A10001946634600E000BF01B5FFF7B7FF0028A5
:100A200048BF10F1000F01BD4DF808EDFFF7F4FFCE
:100A30000CBF012000205DF808FB00BF4DF808ED59
:100A4000FFF7EAFF34BF012000205DF808FB00BF7C
:100A50004DF808EDFFF7E0FF94BF012000205DF89E
:100A600008FB00BF4DF808EDFFF7CEFF94BF012053
:100A700000205DF808FB00BF4DF808EDFFF7C4FF4C
:100A800034BF012000205DF808FB00BF4FEA410C95
:100A90007FEA6C5C02D150EA013C0AD14FEA430C78
:100AA0007FEA6C5C02D152EA033C02D14FF00000B5
:100AB00070474FF0010070474FEA410212F50012F3
:100AC00015D211D56FF47873B3EB625212D94FEA95
:100AD000C12343F0004343EA505311F0004F23FA7F
:100AE00002F018BF404270474FF00000704750EAD4
:100AF000013005D111F0004008BF6FF00040704791
:100B00004FF00000704700BF4A0011D212F50012EA
:100B100011D20DD56FF47873B3EB62520ED44FEA55
:100B2000C12343F0004343EA505323FA02F07047D5
:100B30004FF00000704750EA013002D14FF0FF3013
:100B400070474FF0000070474FEA4102B2F1E043B6
:100B500024BFB3F5001CDCF1FE5C0DD901F0004CA4
:100B60004FEAC0024CEA5070B2F1004F40EB8300F4
:100B700008BF20F00100704711F0804F21D113F120
:100B80003872BCBF01F00040704741F480114FEA59
:100B90005252C2F11802C2F1200C10FA0CF320FAE2
:100BA00002F018BF40F001004FEAC1234FEAD323FF
:100BB00003FA0CFC40EA0C0023FA02F34FEA430369
:100BC000CCE77FEA625307D150EA01331EBF4FF0F2
:100BD000FE4040F44000704701F0004040F0FE400D
:100BE00040F40000704700BF0348044B834202D02A
:100BF000034B03B118477047CC010020CC01002003
:100C0000000000000548064B1B1AD90F01EBA30199
:100C1000491002D0034B03B118477047CC010020A4
:100C2000CC0100200000000010B5064C237843B929
:100C3000FFF7DAFF044B13B10448AFF30080012340
:100C4000237010BDCC010020000000004CD0000833
:100C500008B5054B1BB105490548AFF30080BDE859
:100C60000840FFF7CFBF00BF00000000D001002008
:100C70004CD0000808B5012006F0D8FF4FF4C06042
:100C800006F0AAFF40F2026006F0A6FF40F2036001
:100C900006F0A2FF40F2046006F09EFF4FF4A06051
:100CA00006F09AFF40F2015006F096FF40F21970EC
:100CB00006F092FF40F20E7006F08EFF40F20F70C9
:100CC00006F08AFF40F20B6006F086FF40F20960F2
:100CD00006F082FF40F20A6006F07EFF40F20F60ED
:100CE00006F07AFFBDE8084040F2117006F074BFCC
:100CF00070B505F099FEFFF7BDFF00F02FFA02F086
:100D0000D9FA02F043FA00F03DFC02F0F1F902F0EA
:100D100017FA00F0CFFA00F0BBFB03F077FBC548F1
:100D200009F014F9C44809F011F901230022022145
:100D3000C24809F0A3F8C248062105F05BFCC04890
:100D400005F042FD002800F0AC81BE4DBE4C6B6941
:100D5000D4ED027A013304BF00236B612B690133A8
:100D600008BF0023F4EE677A08BF2B61F1EE10FA9A
:100D700080F19481BFEE007AF4EE477AF1EE10FA3A
:100D800000F08C81D4ED037AF4EE677AF1EE10FA7C
:100D900080F18181BFEE007AF4EE477AF1EE10FA2D
:100DA00000F07981D4ED067AF4EE677AF1EE10FA6C
:100DB00080F16E81BFEE007AF4EE477AF1EE10FA20
:100DC00000F066816B68D4ED077A013304BF01231C
:100DD0006B60AB68013304BF0023AB60EB68013389
:100DE00008BF4FF47A73F4EE677A08BFEB60F1EE58
:100DF00010FA80F11B81BFEE007AF4EE477AF1EE33
:100E000010FA00F01381D4ED087AF4EE677AF1EE6F
:100E100010FA80F10881BFEE007AF4EE477AF1EE25
:100E200010FA00F00081D4ED097AF4EE677AF1EE61
:100E300010FA80F1F580BFEE007AF4EE477AF1EE19
:100E400010FA00F0ED80D4ED127AF4EE677AF1EE4C
:100E500010FA80F1E280BFEE007AF4EE477AF1EE0C
:100E600010FA00F0DA80D4ED0A7AF4EE677AF1EE47
:100E700010FA80F1CF80BFEE007AF4EE477AF1EEFF
:100E800010FA00F0C780D4ED117AF4EE677AF1EE33
:100E900010FA80F1BB80BFEE007AF4EE477AF1EEF3
:100EA00010FA00F0B380D4ED0E7AF4EE677AF1EE2A
:100EB00010FA80F1A780BFEE007AF4EE477AF1EEE7
:100EC00010FA00F09F80D4ED177AF4EE677AF1EE15
:100ED00010FA80F19480BFEE007AF4EE477AF1EEDA
:100EE00010FA00F08C80D4ED187AF4EE677AF1EE07
:100EF00010FA80F18180BFEE007AF4EE477AF1EECD
:100F000010FA79D0D4ED147A5048514EF4EE677A45
:100F1000D4ED137AF1EE10FA64BF4E4B2365F4EE74
:100F2000677AD4ED167AF1EE10FA64BF4A4BE364A7
:100F3000F4EE677AD4ED157AF1EE10FA64BF474B00
:100F4000A365F4EE677AF1EE10FA64BF444B636573
:100F500003F0F6FC00214FF44472424809F017F800
:100F60006A69A36AC6F8D82064202A69C6F8D42022
:100F7000B3663D4D05F07AFD6421304605F066F814
:100F80003A494FF4007206F1DC0009F04DF895E89B
:100F9000070003F031F9002840F08B80344800F05E
:100FA00011FB344800F028FB00221146282006F0EF
:100FB000C1FD01220021142006F0BCFD0022012108
:100FC000192006F0B7FD00220221262006F0B2FD0E
:100FD000294B062101221980DA7000244FF47A701F
:100FE00005F044FDAB880134002BF7D095E80700ED
:100FF000234603F017F8F1E7204B236682E7204BE6
:10100000E36570E74FF07E53A3635CE74FF07E53D8
:10101000636448E71B4BA36235E7184BA36422E7E0
:10102000194B63620FE7194B2362FCE60023E3616F
:10103000E9E600BF80D100088CD10008ACD10008DF
:10104000C0390020D8390020D83D0020BC3600200F
:101050009833002000004841000048C1000082424F
:10106000000082C2442E00208C330020F039002082
:10107000E8010020FC010020A83600200000A0406C
:101080000000FA430000A841000060410000FA425D
:101090000023A36196E6094BE36083E6084BA36057
:1010A00070E60849084800F06FFB084808F04EFF5A
:1010B0004BE6074808F04AFF70E700BF00002042F7
:1010C00000007A44D83D0020D8390020C8D100085B
:1010D00018D2000808B514484FF4006106F0A2FCCD
:1010E0001248002106F0A8FF002211460F4807F021
:1010F0003BF90E480022012107F036F90B48002287
:10110000022107F031F900221146084807F0CEF815
:1011100006480022012107F0C9F8BDE8084003484D
:101120000022022107F0C2B800080140002C014053
:10113000024A136803431360FFF7CCBFD83E002078
:10114000014B1868704700BFD83E0020024A136860
:1011500023EA000313607047D83E002010B55048C2
:10116000012106F073FC4F48012106F06FFC4E4848
:101170004FF4A0530122182106F0FCFB4A484FF41B
:1011800000630122042106F0F5FB4FF40043012225
:101190004648102106F0EEFB44484FF4004106F0AB
:1011A0003FFC43484FF420430122182106F0E2FBA4
:1011B0003F484FF480430122482106F0DBFB4FF407
:1011C000805301223A48102106F0D4FB38484FF4EE
:1011D000805106F025FC35484FF4006302221021AF
:1011E00006F0C8FB4FF4805303223048042106F078
:1011F000C1FB2E484FF4006106F014FC2B484FF45D
:10120000E0630322182106F0B5FB274803230422DC
:10121000002106F0AFFB264801230422002106F03E
:10122000A9FB21480C230422002106F0A3FB1F4840
:10123000F0230422002106F09DFB1B4830230422EA
:10124000002106F097FB4FF40053022216481021AC
:1012500006F090FB14484FF4005106F0E3FB1348EE
:1012600004230122182106F085FB082301220F48E0
:10127000042106F07FFB01214FF4EA1006F0E6FBA3
:101280000B484FF480730222482106F073FBBDE83F
:10129000104007484FF400730322182106F06ABB80
:1012A0000010200000023000001001400008014042
:1012B000000C014070B5714888B0002106F006F9B5
:1012C0006F4A704B01920024042503934FF400727F
:1012D0004FF400634FF48076029204930DEB050205
:1012E0004FF4805321466548ADF81C60CDE90553A5
:1012F0008DF81E4006F008F92146604806F042F9D4
:1013000021465E4806F050F95F4805F039FD5F4818
:1013100005F036FD4FF4803005F080FD31465A4827
:10132000012205F08BFD22465748022105F086FD7B
:1013300031465648012205F081FD224653480221DC
:1013400005F07CFD2146504805F0A0FD2A464E4898
:10135000012105F0A5FD01224B48022105F0A0FD69
:1013600021464A4805F092FD2A464848012105F0E9
:1013700097FD46480122022105F092FD23462146B1
:101380004148062205F0AAFD23463F480F220121CD
:1013900005F0A4FD23463C480722022105F09EFDEE
:1013A000234639480822032105F098FD23462146AB
:1013B0003648052205F092FD234634480E220121CD
:1013C00005F08CFD23462A463048022105F086FDB3
:1013D00023462E480C22032105F080FD2A484FF4B5
:1013E0006022012105F026FE01221146264805F063
:1013F00005FE26484FF46022012105F01BFE012264
:101400001146224805F0FAFD234621461E480B22CC
:1014100005F0BCFD234621461C480A2205F0B6FD16
:1014200019484FF4E042022105F004FE164801225B
:10143000022105F0E3FD15484FF4E042022105F0DA
:10144000F9FD01220221114805F0D8FD0E4805F0F2
:10145000DFFC0E4805F0DCFC0B4805F0BFFC0B4838
:1014600005F0BCFC012005F001FB074805F0BEFCBF
:10147000064805F0BBFC08B070BD00BF000002408C
:101480004C240140E03E002000240140002801409F
:1014900070B5384888B0042106F018F83649374A44
:1014A00001914FF48063012400254FF4807603926C
:1014B000049301AA4FF480532E4806930421ADF8FB
:1014C0001C6002968DF81E50059406F01DF8294800
:1014D000042106F057F80421264806F065F828484C
:1014E00005F04EFC22463146254805F0A7FC2A4669
:1014F0002348022105F0A2FC2946214805F0C6FC3C
:10150000224621461E4805F0CBFC22461C480221FB
:1015100005F0C6FC2B46294619480D2205F0DEFCD5
:10152000214617484FF4602205F084FD22462146EB
:10153000134805F063FD2B46294611480D2205F09E
:1015400025FD0F484FF4E042022105F073FD2246CD
:1015500002210B4805F052FD094805F059FC0848E6
:1015600005F03CFC204605F081FA054805F03EFCFC
:1015700008B070BD000402404C3C0140DC3E00203D
:10158000003C014000B585B001A9002005F0A8FD90
:101590000A4805F093FD0A484FF48072CDE9010234
:1015A0004FF4802301A90548039305F0CBFD0348C0
:1015B000022105F087FF05B000BD00BF00640040B8
:1015C0000000090300B5014687B0032005F088FD3F
:1015D00001A9012005F084FD00234FF48031012290
:1015E00001A8CDE90133CDE903318DF8142005F0D0
:1015F0003BFE07B000BD00BF00B583B001460190BF
:10160000022005F06DFD054A0199906808600023ED
:1016100006228A724B600B8103B000BDD8390020CE
:10162000F0B52DED028B1E4D83B00446F0EE608ABE
:10163000B0EE418AD5ED130A95ED141A01911020F0
:1016400004F07AFB95ED161AD5ED150A0746B0EEB3
:10165000680A0C2004F070FBD5ED030A95ED0E7AB4
:10166000D5ED117A60EEC70A064660EEA70AB0EE25
:10167000480AB1EE601A0C2004F05EFB03120199D7
:10168000E17203EB06137ABA3111E3730023A173FD
:10169000A28120746374A37403B0BDEC028BF0BD0F
:1016A000D83D002084B0F0B52DED028B83B00AAC9C
:1016B00084E80F009DF836309DF835709DF839208C
:1016C0009DF83760BDF833002D4C9DF838E09DF84B
:1016D0003A10D4ED140A94ED130A0F9D9FED298A58
:1016E0004FEA032C1B0943EA07170CF470631E43EF
:1016F000130240BA120903F470630B4342EA0E125C
:1017000080B210210092019304F02AFB85ED000ABB
:10171000D4ED160A94ED150A38460C2104F020FB8E
:1017200085ED010AD4ED170A3046B0EE480A0C21C7
:1017300004F016FB85ED020AD4ED180A00980C217E
:10174000B0EE480A04F00CFB85ED030A94ED030AA1
:1017500094ED0E7AD4ED117A019820EE470A0C210F
:1017600020EE270AF1EE400A04F0FAFA85ED040AA9
:1017700003B0BDEC028BBDE8F04004B0704700BF81
:10178000D83D00200000000070B54FF480620C4688
:101790000546002108F0FBFB01264FF48072002172
:1017A000204608F0F4FB6E60002300224FF47A76A6
:1017B000C5E904222A60AA60EE60154ADFED156AC9
:1017C0009FED157ADFED157AA3614FF07E51E3614D
:1017D0006363E3632364124BDFF858E0DFF858C01B
:1017E0001048A1636164A2640F49236522660F4B10
:1017F0000F4AC4ED026A84ED037AC4ED087AC4F896
:1018000054E0C4F858C0E164E0656262A36270BD50
:101810000000A04000007A44000020420000FA428C
:10182000000048410000FA43000048C10000A84100
:1018300000006041000082C20000824270B50E4686
:101840001E49A0F1040E00F57F754FF0FF305EF8E1
:10185000044F4FF0000C24FA0CF3DBB2584008227E
:1018600040F300030B40013A83EA5000F8D10CF139
:10187000080CBCF1200FEED17545E8D10F49B646F2
:1018800006F58075DEF800404FF0000C24FA0CF3EA
:10189000DBB25840082240F300030B40013A83EAD0
:1018A0005000F8D10CF1080CBCF1200FEED10EF174
:1018B000040EAE45E6D1C04370BD00BF2083B8ED35
:1018C0000368012B00F22C8243687F2B00F22882F0
:1018D00083687F2B00F22482C368DE4A013B934277
:1018E00000F21E820369DFF8A4C34FF6FF721344AF
:1018F000634500F2158243691A44624500F2108282
:10190000D1ED027A9FEDD47AF0EEE76AF4EE476A01
:10191000F1EE10FA00F20482DFEDDD6AF4EEE67A11
:10192000F1EE10FAC0F2FC81DFEDCC6AF4EEE67A5B
:10193000F1EE10FA00F2F481D1ED037AF0EEE76AED
:10194000F4EE476AF1EE10FA00F2EA819FEDC47AF4
:10195000F4EEC77AF1EE10FAC0F2E2819FEDC17A9F
:10196000F4EEC77AF1EE10FA00F2DA81D1ED064A10
:10197000DFEDB96AB0EEE47AB4EE667AF1EE10FA11
:1019800000F2CE81F5EEC04AF1EE10FAC0F2C88145
:101990009FEDB57AF4EEC74AF1EE10FA00F2C0817D
:1019A00091ED077AB0EEC76AB4EE666AF1EE10FA0E
:1019B00000F2B681B5EEC07AF1EE10FAC0F2B08155
:1019C0009FEDB36AB4EEC67AF1EE10FA00F2A88188
:1019D00091ED087AB0EEC76AB4EE666AF1EE10FADD
:1019E00000F29E81F7EE006AB4EEE67AF1EE10FAAC
:1019F000C0F29681DFED9D6AB4EEE67AF1EE10FA60
:101A000000F28E8191ED095ADFED936AB0EEC57A4E
:101A1000B4EE667AF1EE10FA00F282819FED907AD0
:101A2000B4EEC75AF1EE10FAC0F27A819FED907AC7
:101A3000B4EEC75AF1EE10FA00F2728191ED0A7A13
:101A4000B0EEC76AB4EE666AF1EE10FA00F2688191
:101A5000B7EE006AB4EEC67AF1EE10FAC0F2608119
:101A60009FED846AB4EEC67AF1EE10FA00F2588166
:101A700091ED0D7AB0EEC76AB4EE666AF1EE10FA37
:101A800000F24E81B5EEC07AF1EE10FAC0F2488154
:101A9000DFED7F6AB4EEE67AF1EE10FA00F24081F3
:101AA000D1ED0E6A9FED6C7AB0EEE66AB4EE476A4D
:101AB000F1EE10FA00F234819FED6F6AF4EEC66A1F
:101AC000F1EE10FAC0F22C81B2EE046AF4EEC66AAE
:101AD000F1EE10FA00F22481D1ED0F6AB0EEE66A61
:101AE000B4EE476AF1EE10FA00F21A81F5EEC06A20
:101AF000F1EE10FAC0F214819FED606AF4EEC66A4E
:101B0000F1EE10FA00F20C81D1ED106AB0EEE66A47
:101B1000B4EE476AF1EE10FA00F20281F5EEC06A07
:101B2000F1EE10FAC0F2FC809FED556AF4EEC66A41
:101B3000F1EE10FA00F2F480D1ED116AB0EEE66A2F
:101B4000B4EE476AF1EE10FA00F2EA809FED4D7AAA
:101B5000F4EEC76AF1EE10FAC0F2E2809FED477A28
:101B6000F4EEC76AF1EE10FA00F2DA80D1ED126AF3
:101B70009FED397AB0EEE66AB4EE476AF1EE10FAFC
:101B800000F2CE809FED366AF4EEC66AF1EE10FAEE
:101B9000C0F2C680B3EE046AF4EEC66AF1EE10FA43
:101BA00000F2BE80D1ED135AF0EEE56AF4EE476A1A
:101BB000F1EE10FA00F2B480DFED336AF4EEE65A8B
:101BC000F1EE10FAC0F2AC80F5EEC05AF1EE10FA68
:101BD00000F2A68091ED146AF0EEC66AF4EE476A50
:101BE000F1EE10FA00F29C80B5EEC06AF1EE10FA48
:101BF000C0F296809FED214AB4EEC46AF1EE10FA6D
:101C000000F28E80D1ED156AB0EE473AB0EEE67A7A
:101C1000B4EE437AF1EE10FA00F282809FED1A7A68
:101C2000F4EEC76AF1EE10FA7ADBF5EEC06AF1EE77
:101C300010FA75D891ED167AF0EEC73AF4EE433A01
:101C4000F1EE10FA6CD8B5EEC07AF1EE10FA67DB5F
:101C500020E000BF9F860100FFFF7F7F0000FA4465
:101C6000CDCCCC3D00007042000004420000164381
:101C7000000020420000804217B7D13800007A44AB
:101C80000050C3476F12833A00007AC4FEFF010080
:101C90000000C842B4EEC47AF1EE10FA40D8D1ED9B
:101CA000173AF0EEE32AF4EE432AF1EE10FA37D8B1
:101CB000F5EEC03AF1EE10FA32DBF4EEC43AF1EE92
:101CC00010FA2DD891ED184AF0EE433AB0EEC43A2E
:101CD000B4EE633AF1EE10FA22D8B5EEC04AF1EE56
:101CE00010FA1DDB5FED163AB4EEE34AF1EE10FA9E
:101CF00016D8F4EEE47AF1EE10FA11DBF4EEC57AC0
:101D0000F1EE10FA0CDBF4EEC65AF1EE10FA07D53C
:101D1000F4EEC76AF1EE10FA4CBF012000207047C4
:101D20000020704730B5DFF83CC083B06045069DA9
:101D3000079C02D0002003B030BD0229FAD1B2F5D1
:101D4000A07FF7D1214628460193FFF777FD019B3D
:101D50009842EFD12146284603B0BDE83040FFF756
:101D6000AFBD00BF4154484E401A0028D4BF0020E8
:101D70000120704740B12AB15B1A002BD4BF00206C
:101D8000012070471046704782420CBF4FF0FF3071
:101D90000120704711B10AB1082B01D00020704713
:101DA000009BC01AB3F5006FB0FA80F04FEA5010F4
:101DB00028BF0020704700BF431E00F1060C13F837
:101DC000012FFF2A09D16345F9D1C279131DDBB276
:101DD000022B02D80A70012070470020704700BF14
:101DE00038B5C0F30D0444F4804440F44045204627
:101DF0000BF0E6F8002814BF2846204638BD00BF87
:101E0000084310B5C0F30D0420460BF0D9F844EA9E
:101E1000C03080B210BD00BF10B504460BF0D0F842
:101E200028B914F4804F18BF6FF0010010BD4FF0B7
:101E3000FF3010BDC0F30D00C1F30D01401AB0F525
:101E4000005F03DDA0F5804000B2704710F5005F31
:101E5000B8BF00F5804000B2704700BF0378A52BE3
:101E600029D143785A2B26D18378012B23D110B561
:101E700083790C46CBB9DFF84CE0421E811D00236C
:101E800012F801CF83EA0C0391421EF80330F7D118
:101E9000C2799A4212D1C37823700379637043796F
:101EA000A3708379E370002010BDC378072BE2D0C4
:101EB0004FF0FF3010BD4FF0FF3070476FF0010062
:101EC00010BD00BF68D0000890F800C06CF07F0C17
:101ED00083F800C090F801C083F801C08078987042
:101EE0004FEA122CD970100C110E1A7183F805C02C
:101EF0009871D971704700BF164B1B7803B97047B2
:101F000030B5154C237883B0DBB2CDE900310546FE
:101F100004F0C4FD009B114A019903EB430C4FEA06
:101F20008C0E013342F80E0002EB8C0203F01F030B
:101F30000B4815719160237003781F2B04D8037828
:101F40000133037003B030BD064A136801331360D8
:101F500003B030BDFA3E0020F93E0020FC3E0020D8
:101F6000F83E0020F43E00202DE9F041894C016844
:101F7000236840F201720133914288B0236006D198
:101F8000037A23B9437A13B9827A082A05D0A36861
:101F90000133A36008B0BDE8F08102A90B300093C3
:101FA000FFF75CFF18B1E3680133E360F2E704F088
:101FB00075FD7949009B0A68821A132A40F23B8119
:101FC000626808609DF8081001320729626000F01D
:101FD0003681032901F26D80DFE801F0A59B19022B
:101FE0009DF80A100F2900F2A380DFE811F0EE003F
:101FF000EC00EA00050103010101FF00FD00A10062
:10200000F900F500F100E600E200A100DF009DF814
:102010000A207A2A00F28C80DFE812F0680362035B
:102020005C0305037A03770390038A008A00F000BB
:102030000203FF02F902F302EB02E402E002DC0217
:1020400087037E038A008A008A008A000701F9005C
:10205000F6009403F9000701F6008A008A008A005E
:102060008A008A008A008A008A008A008A008A0020
:102070008A008A008A008A008A008A008A008A0010
:102080008A008A008A008A008A008A00C4039A03B0
:102090000701FA03F403ED03E603DF03D803D103DA
:1020A000CA036B0464045D0456044F0448044104ED
:1020B0003A0433042C0425041E04170410040904F4
:1020C0000004F307D807AD07920758073307210725
:1020D0000607DB06C00695067A06620657064B061B
:1020E00030060F06F405C905AE0579055E05330512
:1020F0001805ED04D504BF04A40489047D047A0402
:102100007204C802F000C002A502990260025802DF
:10211000DE009DF80A20042A00F2CE87DFE802F0F4
:102120003633312F38009DF80A20002A00F06281F2
:102130000123216901310022216103A90220CDE997
:10214000003204F0CDFF00230493ADF8143040F2C8
:10215000817303930823DDE9001202A88DF816307D
:102160000DF11703FFF7B0FE0C4803A905F0F6F8D0
:10217000032800F03B81A3690133A3610AE7084A01
:10218000DBE70F22D9E74FF48032D6E7054AD4E7E0
:10219000054AD2E77C400020F03E00200064004069
:1021A00001D1E0A74154484E01E803009D4A12685E
:1021B000C3E79D4AD2F80823BFE79B4AD2F804231D
:1021C000BBE7A268B9E76268B7E722680B46B4E7E5
:1021D000954AD2F80023B0E7944AD2F8FC22ACE743
:1021E000914AD2F8FC22A8E7E269A6E7A269A4E72F
:1021F0006269A2E72269A0E7E2689EE78B490A8943
:10220000C96842EA014298E740F2154295E7884AD8
:102210009FED887AD2ED037A8749884AB4EEE77A4F
:10222000F1EE10FAB8BF0A4687E7009301F0ECFB25
:10223000009B024681E7636901336361AAE69DF86A
:102240000A20013A0B2A00F23487DFE812F0C800B6
:10225000C000B8009700A4008D00780061004C0019
:10226000370021000C0076489DF80B2001788A4247
:10227000BFF45EAF7349097800782031091A0A4427
:10228000714902F01F020C2000FB0212926854E711
:102290006B489DF80B2001788A42BFF449AF694929
:1022A000097800782031091A0A44674902F01F02B0
:1022B0000C2000FB02121279D2B23EE760489DF872
:1022C0000B2001788A42BFF433AF5E490978007869
:1022D0002031091A0A4402F01F020C205A4900FB5F
:1022E00002F28A5829E75749554800220A7057498F
:1022F00002700A60564A1278007842EA00220868A2
:10230000B0F5803F36BF0968524909040A4314E713
:102310004F4A4FF0000C82F800C01178002976D1A6
:1023200047484A491278007842EA00220868B0F526
:10233000803F36BF0968474909040A43FDE6444A1D
:102340003F48012111701178002955D13F49127879
:10235000007842EA00220868B0F5803F36BF09687D
:102360003C4909040A43E8E63B48028882B11B2144
:10237000009303F0EFFB009B0122DEE69DF80B20AB
:10238000013AD2B2132A03D8334A1288002A67D0FE
:1023900002230022D1E6304A11880029F8D10093A7
:1023A000FEF7CEFE0028F3D11F4991F8DD12002977
:1023B000EED029487A2103F0CDFB009BDCE72648CC
:1023C0000093652103F0C6FB009B0322B5E622487B
:1023D00000936D2103F0BEFB009B0222ADE61E4878
:1023E00000931B2103F0B6FB009BC5E7E3690133B3
:1023F000E361CFE5194AA0E61449124D4FF0000CF5
:1024000085F800C080F800C0C1F800C09FE70D4902
:102410000B4881F800C00D4980F800C0C1F800C029
:1024200080E700BF9C40002098330020BC3600208D
:10243000D83D002000002042A0008002A000C00281
:10244000F83E0020F93E0020FC3E0020F43E002033
:10245000FA3E00200000FFFFA83600204154484EFD
:102460000093FEF76DFE002892D1BC4A9288002AA4
:102470008ED1BB4A92F8DD22002A89D0B94A92F85F
:10248000F522002A84D000F180404FF4805100F5FD
:10249000843005F0CFFA00283FF47AAF9DF80B3076
:1024A0009FEDB17AB14AB24807EE903AF8EE677AFA
:1024B000632167EE877AC2ED127A03F04BFB9DF839
:1024C0000B20009B642101FB02F236E6A54AD2F8FC
:1024D000F81292F8F52242EA01222EE6A1499FED78
:1024E000A57AD1ED067AF4EEC77AF1EE10FA80F211
:1024F00009819FEDA17AF4EEC77AF1EE10FA40F26D
:10250000FF809FED9E7A67EE877AFDEEE77A17EE01
:10251000902AD1ED077A9FED977AF4EEC77AF1EE23
:1025200010FA92B280F2E9809FED937AF4EEC77AC6
:10253000F1EE10FA40F2DF809FED907A67EE877A35
:10254000FDEEE77A17EE901A42EA0142F5E5854A78
:102550009FED8B7AD2ED1C7A67EE877AFCEEE77AF4
:1025600017EE902AE9E57F498A68D1F89800121A97
:10257000B2F5004F2BDA83488242B8BF0246C868E2
:10258000D1F89C10411AB1F5004F92B21CDA7D4887
:102590008142B8BF014642EA0142CEE57149B1F835
:1025A0009820D1F89C1042EA0142C6E57649774A64
:1025B000DFF8ECC101F5007E51F8040F42408E4572
:1025C0000CFB02F2F8D1B8E547F6FF71E3E747F6F6
:1025D000FF72D4E7634AD2F8B420AEE56C4AD2F871
:1025E0001824AAE55E4991F8DE2242B1D1F8E6222C
:1025F000A3E5684AD188128942EA01429DE5032396
:102600009BE5644A5188928842EA014295E5614A15
:102610005189128842EA01428FE55E4AD2688CE510
:10262000504A128A89E54FF480515B48009305F0C7
:1026300001FA4FF400610646574805F001FA031EFF
:1026400056485349D0F8442CC2F3C035D1F8182469
:10265000D1F818E4D1F81814C1F3800CD0F8201C7C
:102660004FEA42124FEA012101F4807102F0200288
:1026700042EA01023A4991F8DD1218BF01230039FC
:1026800018BF012142EA430242EAC1023549009BD8
:1026900091F8F512003918BF012142EA0112CEF378
:1026A000400E42EA850242EA8E1242EACC12D0F88B
:1026B00020CCD0F8201CCCF3001042EA4022C1F319
:1026C000002142EA8122002E08BF42F0010242F0BE
:1026D000004232E50093FEF733FD009B02462CE5F5
:1026E000009304F0DBF9009B024626E51D491346E2
:1026F000D1F8F82221E5234926E747F6FF7123E7C1
:10270000204A06E747F6FF7203E7154A926F14E581
:10271000134AD2F8E02210E52049D1F83C2CD1F838
:102720002C1C92B242EA014207E51C49D1F8342C34
:10273000D1F8381C92B242EA0142FEE4084AD2F8CB
:102740008020FAE4009301F009FB009B0246F4E4C8
:10275000009301F053F9009B0246EEE48C33002015
:1027600098330020BC360020CDCCCC3DD83D002095
:10277000A8360020681103426F1203C200007A4499
:10278000002474490080FFFFEC390020C59D1C81A6
:1027900000600040E03E00200008014000200140B1
:1027A00093010001009301F023F9009B0246C4E469
:1027B0000520009301F03AF9009B0246BDE4042095
:1027C000009301F033F9009B0246B6E40320009326
:1027D00001F02CF9009B0246AFE40220009301F0C7
:1027E00025F9009B0246A8E40120009301F01EF9A0
:1027F000009B0246A1E40020009301F017F9009B22
:1028000002469AE4009301F00BF9009B024694E41F
:10281000009301F0FFF8009B02468EE4C949CA7894
:1028200048780978120442EA00220A4385E40E201F
:10283000009301F005F9009B02467EE40D20009311
:1028400001F0FEF8009B024677E40C20009301F0B3
:10285000F7F8009B024670E40B20009301F0F0F8BB
:10286000009B024669E40A20009301F0E9F8009B0E
:10287000024662E40920009301F0E2F8009B024660
:102880005BE40820009301F0DBF8009B024654E46F
:102890000720009301F0D4F8009B02464DE4062087
:1028A000009301F0CDF8009B024646E4052000931A
:1028B00001F0C6F8009B02463FE40420009301F0BB
:1028C000BFF8009B024638E40320009301F0B8F8FB
:1028D000009B024631E40220009301F0B1F8009B16
:1028E00002462AE40120009301F0AAF8009B024668
:1028F00023E40020009301F0A3F8009B02461CE4AF
:10290000914992480093FEF799FF009B024614E418
:102910008E4A526911E48E498C4AD1ED1A7A1268B6
:10292000FCEEE77A17EE901A42EA014205E4864A85
:102930009FED887AD2ED0A7AF4EEC77AF1EE10FABA
:1029400078DA9FED857AF4EEC77AF1EE10FA6DD958
:102950009FED827A67EE877AFDEEE77A17EE902A8E
:10296000FFF7EBBB7E4A9FED7B7AD2ED557AF4EE12
:10297000C77AF1EE10FA22DA9FED777AF4EEC77A91
:10298000F1EE10FA17D99FED757A67EE877AFDEEB2
:10299000E77A17EE902AFFF7D0BB714A9FED717A64
:1029A000D2ED5E7A67EE877AFCEEE77A17EE902A30
:1029B00092B2FFF7C2BB4FF00042FFF7BEBB6FF011
:1029C0000042FFF7BABB664ADFED666AD2ED5C7A79
:1029D00092ED5D7A67EEA67A27EE267AFCEEE77A2C
:1029E000BCEEC77A17EE902A17EE101A92B242EA9E
:1029F0000142FFF7A2BB5A4A9FED567AD2ED5B7AAD
:102A0000F4EEC77AF1EE10FA1CDA9FED537AF4EE89
:102A1000C77AF1EE10FA11D99FED507A67EE877AF6
:102A2000FDEEE77A17EE902AFFF787BB4FF00042E2
:102A3000FFF783BB6FF00042FFF77FBB4FF0004210
:102A4000FFF77BBB6FF00042FFF777BB444A9FED77
:102A5000417AD2ED5A7AF4EEC77AF1EE10FA2FDA13
:102A60009FED3D7AF4EEC77AF1EE10FA24D99FED8E
:102A70003B7A67EE877AFDEEE77A17EE902AFFF74A
:102A80005CBB374A9FED337AD2ED597AF4EEC77AC0
:102A9000F1EE10FA1CDA9FED307AF4EEC77AF1EE1F
:102AA00010FA11D99FED2D7A67EE877AFDEEE77A5D
:102AB00017EE902AFFF741BB4FF00042FFF73DBBF6
:102AC0006FF00042FFF739BB4FF00042FFF735BB14
:102AD0006FF00042FFF731BB214A9FED1E7AD2ED25
:102AE000587AF4EEC77AF1EE10FA41DA9FED1A7ACD
:102AF000F4EEC77AF1EE10FA36D99FED187A67EE48
:102B0000877AFDEEE77A17EE902AFFF716BB144A94
:102B10009FED107AD2ED577AF4EEC77AF1EE10FA03
:102B20006CDA9FED0D7AF4EEC77AF1EE10FA61D906
:102B30009FED0A7A67EE877AFDEEE77A17EE902A24
:102B4000FFF7FBBAA8360020D83D0020D839002076
:102B5000983300206C12034A6C1203CA00007A44B6
:102B60001032002000401C464FF00042FFF7E5BA4B
:102B70006FF00042FFF7E1BAC74A9FEDC87AD2ED85
:102B8000567AF4EEC77AF1EE10FA2FDA9FEDC47A96
:102B9000F4EEC77AF1EE10FA24D99FEDC27A67EE0F
:102BA000877AFDEEE77A17EE902AFFF7C6BABA4A9F
:102BB0009FEDBA7AD2ED547AF4EEC77AF1EE10FABC
:102BC00058DA9FEDB77AF4EEC77AF1EE10FA4DD9E4
:102BD0009FEDB47A67EE877AFDEEE77A17EE902ADA
:102BE000FFF7ABBA4FF00042FFF7A7BA6FF0004211
:102BF000FFF7A3BA4FF00042FFF79FBA6FF0004211
:102C0000FFF79BBAA84A9FEDA57AD2ED067AF4EEBB
:102C1000C77AF1EE10FA25DA9FEDA17AF4EEC77AC1
:102C2000F1EE10FA1AD99FED9F7A67EE877AFDEEE2
:102C3000E77A17EE902AFFF780BA9C4A9C491278EF
:102C4000097842EA01229B490868B0F5803F36BF07
:102C50000968994909040A43FFF76FBA4FF0004227
:102C6000FFF76BBA6FF00042FFF767BA4FF0004210
:102C7000FFF763BA6FF00042FFF75FBA8F4A9FED2C
:102C8000877AD2ED127AF4EEC77AF1EE10FA18DAFA
:102C90009FED837AF4EEC77AF1EE10FA0DD99FED2D
:102CA000817A67EE877AFDEEE77A17EE902AFFF7D2
:102CB00044BA7D4AD269FFF740BA4FF00042FFF7AD
:102CC0003CBA6FF00042FFF738BA77498A8D08782E
:102CD00091F82010120442EA00220A43FFF72DBAAD
:102CE0007149774A107892F801C00A7C120442EACE
:102CF0000C22024391F8210042EA006291F822007E
:102D000091F8241042EA406242EA8162FFF715BA64
:102D10006C4A9FED627AD2ED377AF4EEC77AF1EE23
:102D200010FA2FDA9FED5E7AF4EEC77AF1EE10FA20
:102D300024D99FED5C7A67EE877AFDEEE77A17EE8D
:102D4000902AFFF7FAB95F4A9FED547AD2ED367AAE
:102D5000F4EEC77AF1EE10FA1CDA9FED517AF4EE38
:102D6000C77AF1EE10FA11D99FED4E7A67EE877AA5
:102D7000FDEEE77A17EE902AFFF7DFB94FF0004239
:102D8000FFF7DBB96FF00042FFF7D7B94FF0004211
:102D9000FFF7D3B96FF00042FFF7CFB9494A9FED73
:102DA0003F7AD2ED357AF4EEC77AF1EE10FA2FDAE7
:102DB0009FED3B7AF4EEC77AF1EE10FA24D99FED3D
:102DC000397A67EE877AFDEEE77A17EE902AFFF7F9
:102DD000B4B93C4A9FED317AD2ED347AF4EEC77A39
:102DE000F1EE10FA1CDA9FED2E7AF4EEC77AF1EECE
:102DF00010FA11D99FED2B7A67EE877AFDEEE77A0C
:102E000017EE902AFFF799B94FF00042FFF795B9F6
:102E10006FF00042FFF791B94FF00042FFF78DB914
:102E20006FF00042FFF789B9264A9FED1C7AD2ED78
:102E3000337AF4EEC77AF1EE10FA1EDA9FED187AC3
:102E4000F4EEC77AF1EE10FA13D99FED167A67EE19
:102E5000877AFDEEE77A17EE902AFFF76EB91A49E6
:102E6000D1F83C2CD1F82C1C92B242EA0142FFF777
:102E700064B94FF00042FFF760B96FF00042FFF70E
:102E80005CB91149D1F8342CD1F8381C92B242EA1D
:102E90000142FFF752B900BF103200206C12034A02
:102EA0006C1203CA00007A4410020020FA3E00208F
:102EB000F83E0020F43E00200000FFFFD83D002037
:102EC000A8360020BC360020002001407C499FED40
:102ED0007D7AD1ED057AF4EEC77AF1EE10FA80F240
:102EE000E5809FED797AF4EEC77AF1EE10FA40F2C0
:102EF000DB809FED767A67EE877AFDEEE77A17EE54
:102F0000902AD1ED067A9FED6F7AF4EEC77AF1EE52
:102F100010FA92B280F2C5809FED6B7AF4EEC77A18
:102F2000F1EE10FA40F2BB809FED687A67EE877A87
:102F3000FDEEE77A17EE901A42EA0142FFF7FDB87C
:102F40005F4A9FED637AD2ED117AF4EEC77AF1EE23
:102F500010FA2FDA9FED5F7AF4EEC77AF1EE10FAED
:102F600024D99FED5A7A67EE877AFDEEE77A17EE5D
:102F7000902AFFF7E2B8524A9FED557AD2ED2A7AAD
:102F8000F4EEC77AF1EE10FA1CDA9FED527AF4EE05
:102F9000C77AF1EE10FA11D99FED4C7A67EE877A75
:102FA000FDEEE77A17EE902AFFF7C7B84FF0004220
:102FB000FFF7C3B86FF00042FFF7BFB84FF0004211
:102FC000FFF7BBB86FF00042FFF7B7B8424A9FED7A
:102FD000407AD2ED037AF4EEC77AF1EE10FA5ADABB
:102FE0009FED3C7AF4EEC77AF1EE10FA4FD99FEDDF
:102FF000377A67EE877AFDEEE77A17EE902AFFF7C9
:103000009CB8009300F0AAFE344A9288151E2C4A00
:1030100092F8F52218BF0125161E314A92F8DD22DA
:10302000804618BF01264FF40061171E2D4818BFB7
:10303000012704F005FD011E2B48D0F8442CC2F3F3
:10304000C03CD0F8202CD0F8203CD0F820EC4FEA3F
:10305000821202F040020EF4807E42EA0E0242EA40
:10306000450242EA860242EAC702C3F3001042EA7E
:103070004C1242EAC01218BF0121B8F1000F18BF6C
:1030800042F00102009B42EA0112FFF756B84FF0EE
:103090000042FFF752B86FF00042FFF74EB81349F5
:1030A0004AE747F6FF7147E7104A2AE747F6FF72FB
:1030B00027E70423FFF73DB80B46FFF73AB800BFF8
:1030C000BC360020681103426F1203C200007A442C
:1030D0006C12034A6C1203CAD83D00208C330020C6
:1030E0009833002000080140002001400080FFFFCD
:1030F00000B5114889B004F045FE9FED0D7B4FF4FB
:1031000000724FF4827100234FF40060CDE9001388
:10311000CDE9020218236946074806938DED047B2A
:1031200004F05EFE044804F075FE09B000BD00BF67
:103130000000000001000000003800400000000016
:1031400000B5114889B004F01DFE9FED0D7B4FF4D2
:1031500000724FF4827100234FF40060CDE9001338
:10316000CDE9020210236946074806938DED047BE2
:1031700004F036FE044804F04DFE09B000BD00BF67
:103180000000000001000000003C004070B548480D
:103190008CB004F051FE08A8002404F0C3FE012501
:1031A0004FF400134FF4FA6208A9414808930A92B9
:1031B00009948DF82C5004F0BDFE3D4805F014F93B
:1031C00021463B4805F0FAF82946394805F0FEF853
:1031D000374804F007FF01A804F038FF022601AACF
:1031E000214633480394CDE9014604F035FF2146DA
:1031F0002F48602205F032F821462D48042205F0C0
:103200008BF821462A48082205F05EF8224621461E
:10321000274805F04BF801AA2946254804F01CFF71
:1032200029462348602205F019F82946204804223F
:1032300005F072F829461E48082205F045F8224696
:1032400029461B4805F032F801AA3146184804F017
:1032500003FF31461648602205F000F83146144855
:10326000042205F059F831461148082205F02CF8DF
:10327000224631460E4805F019F804A804F0C0FEB5
:103280004FF0005304A90A480694CDE90443ADF871
:103290001C4004F0BBFE2146054804F0CDFE294643
:1032A000034804F0A5FE024804F096FE0CB070BD81
:1032B000002C014008B50D4805F09CF80B484FF470
:1032C000E13105F0E3F80948042105F01FF9082170
:1032D000064805F015F9054805F00CF9BDE8084069
:1032E000024840F2053105F027B900BF0044004014
:1032F00038B50546E9B20C4805F00EF941F2010473
:1033000001E0013C07D00848072105F00DF900282D
:10331000F7D0284638BD054A13684FF0FF35013312
:103320001360284638BD00BF004400409C40002088
:10333000F0B52DED028B9B4D1446002285B02A601E
:103340000E46217C0746002900F08480E168DFED0D
:10335000966A5B1A07EE903AF8EEE77AB7EE007AD3
:1033600067EEA67AF4EEC77AF1EE10FAC4ED057AAC
:103370007AD4F0EE006AF4EEE67AF1EE10FA00F19B
:103380008F8004F54053A168D0ED037A94ED068A4E
:10339000C3F85411D6F8A410C3F85C11F16BC3F84C
:1033A0006011316CC3F86411316DC3F86811716D2F
:1033B000C3F86C1137EEC88AB16DC3F87011F16DA6
:1033C000C3F87411B0EEC88A316EC3ED547A83ED40
:1033D000568AC3F878113046F0EE678A01F038FB60
:1033E000DFED727AB4EE678AF1EE10FA0DD8DFEDF8
:1033F000707AB4EEE78AF1EE10FA06D4DFED6D7A5A
:10340000B4EEE78AF1EE10FA62DD304601F020FBFF
:10341000DFED697A68EE277A40F20112FDEEE77A75
:1034200000230120A4F82120237017EE901A84F8BD
:1034300024000A20FEF760FD18EE100AFDF734F8AC
:1034400002465E480B4605B0BDEC028BBDE8F0407D
:1034500006F014BD5A48029306F078FD0122029B43
:1034600022740022E360626104F5005202F54960B3
:1034700002F6984200235349A360036013608A6CEC
:10348000C6F8A42004F53051C6F8A83034313046CF
:1034900001F05AFBFB68A36105B0BDEC028BF0BDE7
:1034A00077EEC77A9FED487A04F5325367EE877A54
:1034B00004F53051103334313046C4ED027AC3ED97
:1034C000007A05B0BDEC028BBDE8F04001F03CBBDA
:1034D0009FED3D0A80EE080A09F00CFD431E142BF7
:1034E00007464FF000023DD82070D4ED067AF4EE86
:1034F000E87AF1EE10FA2ED5344884F8202006F050
:1035000025FD2178324806F0B9FCA069FCF7CCFF14
:1035100002460B4618EE900ACDE90223FCF7C4FFE1
:10352000DDE90223CDE900012A4806F0A7FC94F862
:1035300020302B602378234907EE903AF8EE677A23
:1035400000220123C1ED0A7A227484F8213005B0EB
:10355000BDEC028BF0BD012384F820301E4806F03C
:10356000F5FCCEE7304601F073FA40F20113002279
:103570000121A4F82130227084F824100A20394651
:10358000FEF7BAFC18EE100AFCF78EFF024613484D
:103590000B46394605B0BDEC028BBDE8F04006F0A5
:1035A0006DBC00BFD8390020D1CB0B38FFFF7F7F27
:1035B000CDCC4C3EE4CB164100007A4484D20008C6
:1035C00060D20008D83D0020DB0FC94000D30008BE
:1035D00030D3000844D3000818D30008C0D2000834
:1035E0002DE9F041C24E96ED0A7A2DED028BF3EEF5
:1035F000057AB4EEE77AF1EE10FA84B000F31281A6
:103600001D46137C14460F468046002B00F0D880E0
:10361000D3689FEDB87AEB1A07EE903AF8EEE77AA6
:10362000B7EE006A67EE877AF4EEC67AF1EE10FA2A
:10363000C2ED057A00F1D2809FEDAF8A96ED0A7A4D
:1036400067EE085AC5EE886A76EE866AF4EEE67A88
:10365000F1EE10FA78D4DFEDA96A27EE267AC7EEEC
:10366000086A36EE867AF4EEC77AF1EE10FA00F1C7
:10367000E280084601F0ECF9D6ED0A7ABDEEE77A71
:1036800017EE103A002B40F3928104EB432303F131
:10369000300204F13001002351F8040F9142034439
:1036A000FAD107EE103AB8EEC77A9FED956A656BCE
:1036B0009FED938ADFED938A27EE866AD5F58035F4
:1036C000C7EE066A48BF05F2FF156D120027FDEE32
:1036D000E66AC4ED076A07EE107AF8EEC75A67EE9D
:1036E000886A65EEA75A6FF03F0265EE885A00219E
:1036F00065EEA85AB7EE005A13E036EEC56AB4EE8E
:10370000C76AF1EE10FA03D537EE667AFDEEC77A96
:1037100017EE903A04EB830301325B6B402A1944A5
:1037200033D007EE902AF8EEE77A77EEA57AFDEE31
:10373000E77A17EE903A002BB8EEE77ADDDA37EE4B
:10374000267AFDEEC77AE3E7D2ED027A9FED6E7A34
:1037500077EE877A02F53253084602F53051C2ED12
:10376000027A3431C3ED047A01F0EEF994ED057A72
:10377000D4ED0C7AB4EEE77AF1EE10FA00F3D080D3
:1037800004B0BDEC028BBDE8F0810029B8BF7F31E9
:103790007F2D4FEAE1122946C8BFA5F18001E069FB
:1037A00001F68C2304EB8303121A5A605748013741
:1037B00006F064FB802F2BD0D6ED0A7A01358AE71C
:1037C0005348039306F0C2FB039BA3850023636168
:1037D000012323744FF07E53E560236304F53253D5
:1037E0000022A2601A61B06CC7F8A40004F5305141
:1037F000C7F8A8203431384601F0A6F9D8F80C20D3
:103800006369A261236304B0BDEC028BBDE8F08163
:1038100000220123227484F8223004B0BDEC028B14
:10382000BDE8F0813B48152104B0BDEC028BBDE83A
:10383000F04106F023BBD2ED027A9FED337A77EEAA
:10384000C77A0846C2ED027AB36CC1F8A4300023EF
:10385000C1F8A83002F5325302F53051C3ED047AB5
:10386000343101F071F994ED057AD4ED0C7AB4EEAF
:10387000E77AF1EE10FA83DDA78D002F80D096ED68
:103880000A7AD4ED027ADFED256AD8F87430A068A0
:1038900027EE087A67EEA66AC6EE877AFDEEE77A2B
:1038A00017EE902A9B1ADD1305F480351D4404EBB6
:1038B0008703CDED037A596B0D4405EBD5756D107B
:1038C0005D63FCF7F1FD2B46CDE90001039A124838
:1038D000394606F0D3FAD4ED0C7A9FED0A7AA38D1F
:1038E00077EE877A013BA385C4ED0C7A48E700BFE9
:1038F000D83D0020D1CB0B38DB0FC940DB0F49414D
:10390000000000430000003C5F975B39C8D300080B
:1039100090D3000860D30008B8D3000800008047A7
:1039200094ED026A96ED0A7A5FED046AD8F8743075
:10393000A78D66EE266A27EE087A16EE100AC6EE06
:10394000877AFDEEE77A17EE902A9B1ADD1305F4CD
:1039500080351D4404EB8703CDED037A5D63FCF7EE
:10396000A3FD2B46CDE90001039A1248394606F023
:1039700085FA9FED116A94ED0C7ADFED106AA38D44
:1039800037EE067AFFEE007A84ED0C7A96ED0A6A3D
:1039900007EE103AE6EE267AB8EEC77AB4EE677A0A
:1039A000F1EE10FA3FF4ECAE0133A385E8E69FEDAB
:1039B000047A7AE6B8D300080000003C0000004317
:1039C00000000000024B1878003818BF0120704733
:1039D00004410020044B1B7823B1044A136843F0D0
:1039E00001031360704700BF044100200041002024
:1039F000014B1868704700BF00410020014B186858
:103A0000704700BFFC400020014B1868704700BFA2
:103A1000F8400020014B1868704700BFF4400020B8
:103A2000014B1868704700BFF040002005289DBF7B
:103A3000024B33F8100080B200207047E4400020B1
:103A40000E289ABF024B53F820000020704700BF99
:103A5000A8400020024B1878003818BF012070479A
:103A6000A4400020014B01229A637047A840002027
:103A700070B504464FF6FF7384B0374821806380E9
:103A80004FF48051164603F0CDFF00230393039BB0
:103A90003F2B06D800BF039B01330393039B3F2BAF
:103AA000F8D940F6010501E0013D40D02B48022144
:103AB00004F0BCF90028F7D02188284804F0B0F9B8
:103AC00040F6010501E0013D40D02448012104F009
:103AD000ADF90028F7D0214804F0A4F940F601051B
:103AE000608001E0013D34D01C48802104F09EF943
:103AF0000128F7D000230293029B3F2B4FF00005D3
:103B00001CD915484FF4805103F08AFF002301931C
:103B1000019B3F2B06D800BF019B01330193019B02
:103B20003F2BF8D963883380284604B070BD4FF02E
:103B3000FF3500230293029B3F2BE2D800BF029B7C
:103B400001330293029B3F2BF8D9DAE76FF00105AE
:103B5000EFE76FF00205ECE7000C01400038004091
:103B600070B582B000230DF102024FF40041ADF8B0
:103B70000230ADF80430ADF806300446FFF778FFA8
:103B80004FF40841064601AA2046FFF771FF4FF4A3
:103B9000084105460DF106022046FFF769FF46EA97
:103BA0000503034304D0064A136843F0040313607B
:103BB000BDF80600BDF8043043EA004002B070BD15
:103BC000004100202DE9F04F002787B003ACCDE97C
:103BD000037701943A4EDFF80CA13A4C05978046E2
:103BE0004FF001090DF10E0B14F8015B364BADF8E7
:103BF0000A7043EAC5250DF10A02A9B24046FFF753
:103C000037FF002849D0326842F004024FF0000923
:103C10003260A2450BF1020BE6D1019C2B48002338
:103C200034F8022B20F813200133062BF8D1284951
:103C3000DDF80E30C8F806300B602649DDF812407A
:103C4000BDF80E20BDF810000C60234CBDF8161016
:103C500021600243BDF81230BDF8144025D1C3F3F2
:103C60000A03A02B21D11D4B9FED1D7AD3ED037AC2
:103C7000B4EEE77AF1EE10FAACBF4FF430734FF4C4
:103C800020739C4211D140F21543994208BF09F1BB
:103C9000FF300AD107B0BDE8F08F5A46A9B24046BE
:103CA000FFF7E6FE0028AED1B3E7054A13684FF0F0
:103CB000FF3043F00803136007B0BDE8F08F00BF8A
:103CC00000410020E0DB00080080FFFFE44000200E
:103CD000F8400020F4400020F0400020D83D0020B3
:103CE00000002042E5DB000830B585B004AB03E9F5
:103CF00007001148002104F09FF910484FF40061BB
:103D000003F08EFE00230E4A1C4642F82340013386
:103D10000F2BFAD10B4A0C4B012515701C6002F0D9
:103D2000BDFE0A4B0A4918600A4A0B4B0D7014700D
:103D30001C7005B030BD00BF002C014000080140E0
:103D4000A8400020A4400020A040002008410020FE
:103D50000E4100200D4100200C410020024B18783C
:103D6000003818BF012070470D41002000B585B014
:103D700004AB03E90700002211460F4804F0F4FAEF
:103D80000D480022012104F0EFFA00220A48022126
:103D900004F0EAFA0848002104F04EF907484FF40D
:103DA000006103F03FFE06480649074A00230370FE
:103DB0000B70137005B000BD002C014000080140DD
:103DC0000E4100200D410020A440002070B5844B1E
:103DD00088B001AC84E807001A7812B1814D2A78C6
:103DE00052BB814D2A780AB908B070BD7F4A166867
:103DF00002F054FE0A220146304602F0B7FD0028C8
:103E0000F2D07B484FF4805103F014FE0246E8B92B
:103E1000784E3378002B40F0AB8094E8070005AB78
:103E200003C341F2A1011A8005A80DF11202FFF7A8
:103E30001FFE01233370D7E702F030FE6E4B1B6884
:103E4000C01A0028D0DB00232B70CDE700222A7097
:103E500094E8070005AE03C641F2A101328005A82F
:103E60000DF11202FFF704FE644A9FED657AD2ED70
:103E7000037A94E80700B4EEE77AF1EE10FA05ADA4
:103E800003C5A8BF4FF44B513280B8BF4FF44A511D
:103E90000DF1120205A8FFF7EBFD94E8070005AD50
:103EA00003C542F61541328005A80DF11202FFF755
:103EB000DFFD2046FFF786FE524A5349051E0CBF20
:103EC000012000201060096851605049504809687D
:103ED000916050490968D160B0F802C04E491FFA9C
:103EE0008CFCC2F810C0B0F804C01FFA8CFCC2F8F9
:103EF00014C0C08880B29061D1F80408D061D1F8B4
:103F00000C081062D1F808085062D1F8040C9062D5
:103F1000D1F80C0CD062D1F8081C11633F49D1F8DC
:103F2000081851634DD132484FF4805103F082FD9F
:103F3000002846D02A4B01241C7002F0AFFD2E4A07
:103F4000284B053010602946224635481C7004F085
:103F50000BFA22462146324804F006FA304822463F
:103F6000022104F001FA2E48214604F065F83BE7EF
:103F7000244B009220461A60FFF7F2FD214B2649A0
:103F80005860D1F80408D861D1F80C081862D1F84B
:103F900008085862D1F8040C9862D1F80C0CD86269
:103FA000D1F8080C1863A1F55041009AD1F808180F
:103FB00059630C4B20201A70FDF7BAF8009A2A704A
:103FC00012E7084B002220201A70FDF7B1F80123F8
:103FD000ADF8083094E80700FFF7C8FE04E700BF1B
:103FE0000D410020A44000200E4100200841002087
:103FF000000801400C410020A0400020D83D0020D6
:1040000000002042A8400020F8400020F44000209A
:10401000E4400020F040002000000140003000405B
:10402000002C0140F0B589B001AC84E8070094E8A9
:10403000070005AE03C64FF40041328005A80DF11C
:1040400012021F46FFF714FD94E8070005AB03C3F7
:1040500032804FF408410DF1120205A8BDF812504C
:10406000FFF706FDBDF8124054EA05031FD12B07E8
:1040700043D46F0746D4AE0749D4ED074CD460054E
:104080004FD4A10552D4E20555D4230658D467066F
:104090005BD4A6065ED4E50661D4200764D461072C
:1040A00067D4A2076AD4E3076DD409B0F0BD3B48DA
:1040B000394605F0E3FE6A056BD4AB0502D53848F6
:1040C00005F0DCFEEF0502D5364805F0D7FE2E06DA
:1040D00002D5354805F0D2FE680602D5334805F012
:1040E000CDFEA90602D5324805F0C8FEEA06BED5C7
:1040F000304805F0C3FE2B07BBD52F4805F0BEFEA8
:104100006F07B8D52D4805F0B9FEAE07B5D52C48D8
:1041100005F0B4FEED07B2D52A4805F0AFFE600504
:10412000AFD5294805F0AAFEA105ACD5274805F072
:10413000A5FEE205A9D5264805F0A0FE2306A6D5D2
:10414000244805F09BFE6706A3D5234805F096FE9C
:10415000A606A0D5214805F091FEE5069DD520488C
:1041600005F08CFE20079AD51E4805F087FE6107F2
:1041700097D51D4805F082FEA20794D51B4805F08F
:104180007DFEE30791D51A4809B0BDE8F04005F07F
:1041900075BE184805F072FE8FE700BFD4D3000843
:1041A000F4D3000800D4000808D4000810D4000894
:1041B00018D4000824D4000830D400083CD40008E7
:1041C00048D4000854D4000860D4000868D400081B
:1041D00070D4000878D4000880D4000888D400087F
:1041E00094D40008A0D40008ACD40008B8D40008C7
:1041F000C4D40008E8D300082DE9F04389B001AC2D
:1042000084E80700764F774A774D784900233B6072
:104210002B601360764A1360764A13601A4621F8C1
:1042200013200133062BFAD1FCF754FF724BDFED5C
:10423000737A93ED037AB4EEE77AF1EE10FA25D8AB
:10424000DFF8C4916E4801234FF4006189F8003013
:1042500003F0E6FB0A2002F009FC2046FFF780FC91
:1042600028602B68002B40F0A88005AB94E807007D
:104270001D4603C30DF112081A8041F2A101424606
:104280002846FFF7F5FB4FF44B5323E0DFF8789116
:104290005B4801234FF4006189F8003003F0C0FB54
:1042A0000A2002F0E3FB2046FFF75AFC28602B6847
:1042B000002B7CD105AB94E807001D4603C30DF12C
:1042C00012081A8041F2A10142462846FFF7D0FBAE
:1042D0004FF44A5394E807002E4603C6194632802D
:1042E00028464246FFF7C4FB464800F003FB94E82B
:1042F00007002B4603C3328042F61541424628464A
:10430000FFF7B6FB94E807002B4603C341F2A10177
:10431000328028464246FFF7ABFB012002F0A6FBA5
:10432000384800F0E7FA36484FF4805103F082FB3A
:1043300018B93B6843F010033B602046FFF742FC8E
:1043400028B92F484FF4805103F074FBD8B994E892
:1043500007002B4603C341F2A1011A8028464246BA
:10436000FFF786FB012002F081FB25484FF48051C6
:1043700003F060FB38B32046FFF724FC18BB3B6812
:1043800023F008033B601E484FF4805103F052FBBA
:104390000346C8B194E807000024FFF7E7FC89F85A
:1043A0000040FCF797FE204609B0BDE8F0833A686C
:1043B00042F0020205AB3A607DE73A6842F0020241
:1043C00005AB3A6052E70023202089F80030FCF763
:1043D000AFFE94E80700FFF7C9FC4FF0FF30E3E7BA
:1043E00000410020F8400020FC400020E440002074
:1043F000F4400020F0400020D83D00200000204282
:1044000000080140BC3600200441002008B50C2102
:10441000002003F05DFB4FF480500222002103F0E6
:10442000D5F8BDE808404FF4805003F027B900BF2D
:10443000044A072928BF07210023C0E9012103708E
:10444000704700BF00C0030810B5044603F01CF914
:1044500040F2073003F080FA606803F049F9012365
:10446000237010BD84B00DF1100C0CE90700029808
:10447000049900EB830004B003F0DAB984B00DF1C5
:10448000100C0CE907000298049900EB830004B0BB
:1044900003F0CEB984B00DF1100C0CE907000298BE
:1044A00010EE101A00EB830004B003F0C1B900BF96
:1044B00000B583B0019003F007F901980023037061
:1044C00003B000BD84B00DF1100C0CE9070051F8E9
:1044D000230004B0704700BF84B00DF1100C0CE94C
:1044E000070051F8230004B0704700BF84B00DF1FD
:1044F000100C0CE9070001EB830292ED000A04B0F6
:10450000704700BF08B590ED167AD0ED186A1C4BC5
:10451000F7EE007A2DED048B37EEC77A9FED199AEE
:10452000D0ED178A1968184827EE097A77EEE88ADD
:1045300037EEE68AFCEEC77A17EE902AC9B903F087
:10454000B5FE1148012168EE898AFCEEE87A17EE83
:10455000902A03F0ABFE68EE097ABDEC048BFCEE0A
:10456000E77ABDE80840084817EE902A022103F0D8
:104570009DBE012103F09AFE03480021E3E700BF3E
:10458000D83900200000FA44002C014038B5484BCF
:104590001C680546002C7ED12146464802F06EFD7F
:1045A0000346AB604448214602F068FD034641489B
:1045B000EB60022102F054FD4048022102F050FD60
:1045C00040F6010401E0013C50D03A48042102F0D9
:1045D00069FD0028F7D040F6010401E0013C45D018
:1045E0003648042102F05EFD0028F7D0314804214E
:1045F00002F05EFD3148042102F05AFD00212F48EF
:1046000002F03CFDAA68D5F89810EB68D5ED1C6A5D
:10461000DFED2B5A2861521A07EE102AD5F89C209C
:1046200007EE900A9B1AB8EEE76A07EE903AB8EEEA
:10463000C77AF8EEE77A27EE267A67EEA67AD5F8FB
:10464000F83285ED067AF1EE476A26EE256A76EEB7
:10465000E76A0122013385F8F52285ED086AC5ED88
:10466000077AC5ED056AC5F8F83238BD114804214E
:1046700002F01EFD1148042102F01AFDD5F8FC32AB
:104680000022013385F8F522C5F8FC328020BDE810
:104690003840FCF74DBD0021074802F0EFFC03460F
:1046A000AB600448002102F0E9FC03467FE700BF4D
:1046B000D83900200024014000280140003C01407E
:1046C0001833533C00B52DED028B87B0CDE90210B5
:1046D000CDED050A8DED041A0192F0EE408A01F04D
:1046E00079FBB0EE408AB0EE680A01F04DFBF6EEC1
:1046F000007A67EEC06ADFED175A9FED176A9DEDED
:10470000041ADDED050A03980299019A67EEC87A4A
:10471000B0EE667AA8EE257AE8EE656AF0EE675AA2
:10472000E0EE065AE0EE467A21EE477A21EE400AA4
:1047300021EE661AA8EE200AA5EEA07AA7EEA01A2E
:1047400080ED000A81ED007A82ED001A07B0BDEC21
:10475000028B00BDD7B35DBFD7B35D3F00B52DED74
:10476000028B87B0CDE90110CDED050A8DED041A5D
:10477000CDED031AF0EE408A01F02CFBB0EE408A3A
:10478000B0EE680A01F000FBB6EE007A67EE486A08
:1047900027EE407ADFED185A9FED186A9DED041A56
:1047A000DDED050ADDED031A02980199F0EE667A57
:1047B000B0EE475AA8EE065AE0EE257AA8EE467A01
:1047C00067EE817A21EE451AE0EE656AE8EE207A1E
:1047D000A0EE601AE6EEA17AA7EE611A9FED086AD4
:1047E00067EE867A21EE061AC0ED007A81ED001A96
:1047F00007B0BDEC028B00BDD7B35D3FD7B35DBF43
:10480000ABAA2A3F00B52DED0A8BB0EE609A85B0B9
:10481000F0EE418AF0EE40AAB0EE611AF0EE680ABE
:10482000B0EE490AB0EE618A0192CDE9021001F0C2
:104830004DFAB0EE481AF0EE680AB0EE40AAB0EEBB
:10484000490A01F02BFA3AEE00AAF6EE009AAAEE17
:10485000699ADFED24BA9FED24CA9FED24BA29EEB0
:10486000299AF0EE4C0A29EE2B9A89EE2A0A9FED3E
:10487000209A30EE0B0A01F001FAF0EE490A01F03D
:1048800005FAEAEE698A039880ED000A68EEA98AC3
:10489000F0EE4C0A68EEAB8A88EEAA0A30EE0B0AFC
:1048A00001F0ECF9F0EE490A01F0F0F9AAEE698A9C
:1048B000029981ED000A28EE298AF0EE4C0A28EED2
:1048C0002B8A88EE2A0A30EE0B0A01F0D7F9F0EEB7
:1048D000490A01F0DBF9019A82ED000A05B0BDEC4E
:1048E0000A8B00BD3333933F00000000D7A3F03E96
:1048F000D7A3703FF8B500238365C36503660446FC
:10490000FFF700FE00264FF47A7537462046FFF782
:104910003DFED4E90223013D17441E44F6D1074B66
:1049200083FB0721FA17C2EBA11283FB0631F317B1
:10493000C3EBA113C4E92623F8BD00BFD34D621019
:104940002DE9F843344A354BDFED356ADFED355A52
:104950002DED028BC267C0F8802093ED027A324AB7
:10496000C0F8842066EEC76AF7EE007AB0EE676A98
:10497000A6EEA56A2D4ADFED2E6A1268C0F8C8209F
:1049800027EE267AC7EE866A80ED1D7A77EEE67A04
:1049900080ED1E7AC0ED227A9FED267AD3ED037A60
:1049A000F4EEC77AF1EE10FA33D8234BDFF89C907F
:1049B000DFED228A9FED228A224F03674FF0804865
:1049C00000F1F4050024002607EE904AF8EEE77A9D
:1049D000013467EEA87AC7EE887A17EE900AFBF7E3
:1049E00063FD41EC100B07F0FBFE424651EC100B4F
:1049F0004B46FBF7B1FD32463B46FBF7F7FBFCF7B6
:104A0000A3F8802C45F8040BDED1BDEC028BBDE889
:104A1000F8830D4BCAE700BFEC51383DD83D00206C
:104A2000D1CB0B38DB0FC940BD74933BD839002084
:104A300017B7D13800002042FFFFA43C000000BCA3
:104A40006F12033D0000F03FFFFF243D3333F33F7F
:104A500010B54FF47A7204460021164803F026FC84
:104A600014484FF47A72012103F020FC4FF47A725B
:104A70001048022103F01AFC00230022C4F8A430DD
:104A8000C4F8A830C4F8AC30C4F8B030E363236491
:104A90006361A361E3616364C4F89030C4F88C304F
:104AA00063652365C4F8E830C4F8EC20C4F800233B
:104AB00010BD00BF002C014090ED397AD0ED387A5E
:104AC00090ED3A0ADFED1E0A77EEC77A90ED217A73
:104AD00010B5A7EE270A82B0044680ED3A0A01F02D
:104AE000D5F8184BD3ED060AF1EE600A01F0C6F8CE
:104AF00094ED3C7A84ED3A0A60EE407A84ED290A1E
:104B0000E7EE077AF5EE407AF1EE10FA11D4F1EE05
:104B1000E70A94ED2A0ACDED010A01F0B7F8DDEDC0
:104B2000010AF1EE600A01F0A9F884ED2A0A02B048
:104B300010BDB0EE670A07F0A3FEF0EE400AE8E70A
:104B400000000000D83D002030B52DED028B91ED26
:104B5000170A4B6EB04D91ED186AD1ED036AD0ED96
:104B6000071A90ED061AD0ED050A83B080ED0B0A06
:104B7000436395ED117AC6EE077A044600F14001D1
:104B80003C30C4ED0C7A95ED117AC6EE877AC4ED0F
:104B90000A7AFFF7E3FD9FEDA15A94ED087ADFED65
:104BA000A05AD4ED097A94ED106AD4ED0F6A94ED11
:104BB000114AD4ED124A27EE057A26EE056AA7EED1
:104BC000A57ADFED987A84ED097A66EE856A67EE5C
:104BD000277A9FED955A9FED957AA4EE256AE4EE2B
:104BE000A56A67EE857ADFED925A94ED2B5A84ED33
:104BF000116A67EEA57AD4ED295AC4ED387A75EEBC
:104C0000C57AC4ED126A95ED030AF4EEC77AF1EEA7
:104C100010FA84ED3C0A00F3F080DFED866AF4EED2
:104C2000E67AF1EE10FA00F1E28094ED2C6AD4ED10
:104C30002A7ADFED7E6AC4ED2B5A37EEC67AB4EEDF
:104C4000E67AF1EE10FA00F3D5809FED7A5AB4EED1
:104C5000C57AF1EE10FA00F1C78004F1A801C4EDA5
:104C6000295A04F1A400C4ED2C7AC1ED007A01F0B8
:104C700045F8D4ED0F6AD4ED298A94ED1D7A94EDB0
:104C8000230ADFED6D7A94ED2A8AD4ED380A78EEA6
:104C9000E68AA7EE280A94ED107A30EE270A38EE5D
:104CA000478A84ED140A00F0F1FFD4ED380AF1EEE2
:104CB000600A00F0E3FFD4ED1F6A94ED1D7AD4ED95
:104CC000237AD4ED380A84ED140A27EE267AE7EE2B
:104CD000287AB0EE670AC4ED237A00F0D7FFD4ED4E
:104CE000380AF1EE600A00F0C9FFD4ED147AD4ED71
:104CF000380A84ED230A67EEE77AE0EEA07AF5EE53
:104D0000407AF1EE10FA7BD4F1EEE78A94ED240AB2
:104D1000D4ED1E7AD4ED206AB0EE407AA7EE887A00
:104D200067EEA67ADFED446AA7EE880A77EE267A68
:104D300084ED240AC4ED157A00F0A8FFD4ED380AFA
:104D4000F1EE600A00F09AFFF0EE406A94ED150A69
:104D500094ED147AC4ED246A60EE007AF0EE680AED
:104D6000E7EE077AB1EEE77A84ED397A00F08EFF4C
:104D7000F1EE680A00F082FFF0EE407A04F154018F
:104D800094ED380AC4ED157A04F1500000F0B6FF36
:104D9000DFED2A7A94ED0D7A94ED0B0A94ED151A55
:104DA000D4ED140AA7EE270A04F16C0204F168019D
:104DB00004F16400FFF786FC04F15800D4ED1B1ADF
:104DC00094ED1A1AD4ED190A94ED380A04F1600230
:104DD00004F15C01FFF716FD204603B0BDEC028B29
:104DE000BDE83040FFF78EBB76EE667A35E775EEAC
:104DF000475A1AE776EE267A2FE775EE075A14E738
:104E0000B0EE670ACDED010A07F03AFDDDED010ACB
:104E1000F0EE408A7AE700BFD83D0020CDCCCC3DF3
:104E20006666663F3333933FD7A3703F0AD7233C70
:104E30003ACD133F0AD723BC00000000BAB1513865
:104E400010B590ED330AD0ED0A7A044630EE670AC9
:104E500082B0F6EE000A00F019FFFEEE000A00F044
:104E60000DFFD4F8003342F22732934246D807EEC2
:104E7000903A9FED247AF8EEE77AC7EE875A224BF4
:104E800094ED357AD4ED377A94ED0C6AD4ED3C6A22
:104E9000E7EE007A94ED347A37EE467A94ED366A8E
:104EA000E6EE077AF1EE040A76EEE06A93ED117A07
:104EB000B0EE670AD3ED0E7AE6EEA50A67EE877AC2
:104EC000CDED010A80EE270A00F0E0FEDDED010ADB
:104ED000F1EE600A00F0D2FED4F8003384ED2A0A25
:104EE00042F2273293424FF0000198BF0133C4F8D9
:104EF000A41098BFC4F8003302B010BDF7EE005AFA
:104F0000BDE700BF00A00C46D83D002000230022D2
:104F1000C0F8DC30C0F8D430C0F8D830C0F8CC309D
:104F2000C0F8D030C0F8A830C0F80023704700BFE8
:104F300008B50B4801F06CFB70B1094801F09CFB0F
:104F400038B1074801F0FCFC054801F03DFC013890
:104F500008BD034801F0F4FC4FF0FF3008BD00BF6E
:104F6000C039002010B54FF4805182B00A4802F0D9
:104F700061FD0446FCF7E4F8084A094B094992F838
:104F8000F52293F8DD3289880092221E18BF012293
:104F900001F0DAFC02B010BD00080140BC36002070
:104FA000983300208C33002010B503780446052B7D
:104FB0002AD8DFE803F027032A2927271B4B1A8961
:104FC00018685968FEF7D2FE194B93F82220CAB927
:104FD0001849194A0968916203F50053174893F874
:104FE00048CFD3F84C3F1649C0F800C04FF40072C8
:104FF0004361183005F018F8114912484FF4007257
:1050000005F012F80123E37010BD084B0122C270B5
:10501000186859681A89FEF7A9FE0B48FFF718FDB2
:10502000BDE810400848FFF771BF00BF8C33002077
:105030001002002054310020D83D0020D839002033
:105040006031002074340020BC36002008B50D48C3
:1050500004F07CFF0C4804F079FF0C4804F076FF64
:105060000B4804F073FF0B4804F070FF0A4804F08B
:105070006DFF0A4804F06AFFBDE80840084804F0E4
:1050800065BF00BF88D10008D0D40008DCD4000878
:10509000F0D400080CD500081CD5000834D5000851
:1050A00050D5000830B56C486C4C6D4D85B004F09F
:1050B000E5FE6C486C4B6D4A6D49CDE900046D4CC2
:1050C0006D4804F0DBFE6D4804F040FF606CFBF7B8
:1050D000EBF96B4A6B4B0095CDE902016A496B48CD
:1050E00004F0CCFEA06BFBF7DFF9694A654B009535
:1050F000CDE902016749684804F0C0FE674804F042
:1051000025FFA068FBF7D0F9654B664A0093CDE90F
:105110000201654B6549664804F0B0FEE068FBF7A4
:10512000C3F9644B644A0093CDE90201634B6449BF
:105130005F4804F0A3FE206DFBF7B6F92B46CDE9DE
:105140000201604A00956049594804F097FEA06D3D
:10515000FBF7AAF92B46CDE902015C4A00955C49B0
:1051600053485C4D04F08AFEE06DFBF79DF95A4B05
:105170005A4A0093CDE90201504B59494C4804F07A
:105180007DFE206EFBF790F9564B574A0093CDE910
:1051900002014A4B5549464804F070FEA069FBF7EE
:1051A00083F9534B534A0093CDE90201434B5249D3
:1051B0003F4804F063FE206AFBF776F94F4B504AF4
:1051C0000093CDE902012F4B4E49394804F056FEB9
:1051D000606AFBF769F94C4B4C4A0093CDE9020138
:1051E000364B4B49324804F049FEA06C494CFBF762
:1051F0005BF9CDE902014849304B484A00912C48FF
:10520000474904F03BFE474804F0A0FE6368464A65
:1052100046494748CDE900531A4B04F02FFEA368D6
:105220000193444A174B44490095414804F026FE37
:10523000E068424B424A4349CDE90030114B4248B5
:1052400004F01CFE414804F019FE414805B0BDE8D9
:10525000304004F013BE00BF68D50008BCD500087C
:1052600010D60008CCD5000884D5000888D50008E1
:1052700094D50008D83D00209CD50008D0D5000862
:10528000E0D50008DCD50008ECD50008F0D5000812
:1052900014D600082CD6000830D6000850D60008D6
:1052A000A0D6000864D6000860D600087CD60008A6
:1052B00080D60008C4D60008ACD60008A8D60008DE
:1052C000C0D60008CCD60008E8D60008ECD6000806
:1052D0000CD7000828D8000830D7000810D70008DD
:1052E0002CD700085CD7000838D7000858D700082A
:1052F0007CD7000860D7000878D70008A4D700083A
:1053000084D70008A0D70008C4D70008A8D7000891
:10531000C0D70008D8390020E8D70008CCD700084B
:10532000E4D70008F0D70008FCD7000804D800082C
:1053300008D800082CD8000838D800087CD8000805
:105340003CD800085CD8000860D8000884D8000861
:10535000D0D8000800B5037883B0042B2BD8DFE841
:1053600003F02C20082A030003B05DF804EBFFF7DC
:1053700099BE0190FFF7F6FD0346002852D12D4853
:105380000193C0F8B830FFF763FB2B49019A0889F5
:1053900060F30F020868496803B05DF804EBFEF79C
:1053A000A3BC0190FFF7DEFD034658B1019A00212E
:1053B00001235170D37003B000BD03B05DF804EB5E
:1053C000FFF744BE1B4A1D48DFF878C01C49D2F8DD
:1053D000B420DCF828E0A0F8213080F824300374F1
:1053E000826200F500500A6880F8482F4A69C0F8C8
:1053F0004C2F00F6447C18314FF4007200F57560B4
:105400000193CCF800E004F00FFEDFF83CC0019BF4
:10541000CCF8D8304FF4007219460CF1DC0004F0DF
:10542000B6FDB2E701210620FCF766FD0148FFF753
:105430006DFDBBE7BC3600208C330020100200203D
:10544000D8390020D83D002098330020F0B5837B68
:1054500083B00446002B68D1437822789A4240F00A
:105460008480022B00F08B80052B00F0BA80012B8A
:1054700059D1B04A0193106851681289FEF7A6FC11
:10548000FEF76CFC0546002800F0CE80AA4B93F88E
:105490002130002B00F02F81A74B93F82230002BF6
:1054A00000F03A81A44D95F82430002B40F0F480B0
:1054B000A14BA24EDB6996ED1A7AA14F9FEDA10A8E
:1054C0007B615A4207EE902AF8EEE77AF7EE000A7F
:1054D00067EE877A1D4627EE800A07F055F9DFED63
:1054E0009A7A60EE277A17EE900AFAF7DDFF0B46FC
:1054F00002462946954804F0C1FC95494FF40072D4
:1055000006F1DC0004F090FD91494FF4007207F1C0
:10551000180004F089FDFFF70BFD002840F006811C
:1055200000236370E37003B0F0BD824B18685968C4
:105530001A89FEF74BFC87484FF4805102F07AFA43
:105540000546FEF70BFC002854D1238A40F6B732FB
:10555000591C93422182E6D9227800230121A373AA
:1055600023826370E170002ADDD02046FFF71CFD26
:10557000E378002B7BD12378022B7FF475AF6D4B42
:10558000186859681A89FEF721FCFEF7E7FB002826
:10559000C9D06B4BDA68002A05DD6F49D1F8B81025
:1055A0008A42C0F2B280FFF7DDFC002865D16A486C
:1055B000FFF746FC6848FFF77FFA60496648FFF747
:1055C000C3FA6378022BAED15D4BDB68002BAADDFA
:1055D0006149D1F8B8209342A5DB0132C1F8B82067
:1055E000A1E75D4B5548D3F8B41003B0BDE8F040D7
:1055F00000F04CBF514A92F8DD22002AA5D0564A4D
:1056000092F8F522002AA0D04A4B002D9DD000220E
:105610004FF4F0709A80FBF799FD00220121637826
:10562000A2732282E17018E74B4A434BD2F8B420B0
:10563000986A41F27071121A8A427FF674AF0221A1
:105640000620FCF759FC3B4B198918682A4661F380
:105650000F025968FEF78AFB3749019B81F8243015
:1056600040F20112A1F821206570E3705BE76378D6
:1056700023702046FFF76EFE7DE700210620FCF731
:105680003BFC2C4B1A8918685968FEF76FFB002207
:1056900001236270E37046E73049294BD1ED007A6F
:1056A0002F4905F50052C1ED0A7A92F8481FCDED59
:1056B000017A1960D2F84C6F5E6103F1180002F5AF
:1056C00075614FF4007204F0AFFC1C48DDED017A07
:1056D0002449C0ED1A7AC0F8D8604FF40072DC306B
:1056E00004F0A2FC204804F031FC002385F82430AB
:1056F0006370E37017E718491048D1F8B4300E4AC8
:1057000003B0BDE8F040FDF713BE0520FCF7F4FB45
:105710001148FFF7FBFBB4E70F490848D1F8B43054
:10572000054A03B0BDE8F040FDF75ABF0F4804F04A
:105730000DFCF5E68C330020100200209833002089
:10574000D839002000008037DB0FC94034D9000869
:10575000442C002000080140BC36002054310020B9
:10576000D83D0020F0390020FCD8000848D90008B6
:1057700038B5417BA1F161030446172B19D8DFE846
:1057800013F028004700660085001800A000BF0045
:10579000DA00F900180004011F013E01180018008A
:1057A000490118001800180068011800730118005A
:1057B0009201CC4804F062FB251DFFF7B9FB0028DD
:1057C00040F08C81FFF76EFC0023A38163606B6067
:1057D00038BD051D284602F08AFF51EC100BFBF77F
:1057E000B3F9F3EE040A00EE100A07F03FFBDFED19
:1057F000BE0A07F013FBBD4B10EE100A83ED120A30
:10580000FAF752FE02460B46B94804F037FBD4E7DC
:10581000051D284602F06BFF51EC100BFBF794F9C5
:10582000DFEDB40A00EE100A07F020FBDFEDB20A4C
:1058300007F0F4FAAD4B10EE100A83ED020AFAF706
:1058400033FE02460B46AD4804F018FBB5E7051DD4
:10585000284602F04CFF51EC100BFBF775F9DFED19
:10586000A80A00EE100A07F001FBDFED9F0A07F01F
:10587000D5FA9E4B10EE100A83ED090AFAF714FED2
:1058800002460B469F4804F0F9FA96E7051D2846A4
:1058900002F02DFF51EC100BFBF756F9DFED920AE9
:1058A00000EE100A07F0BAFA904B10EE100A83EDE2
:1058B000180AFAF7F9FD02460B46934804F0DEFA9F
:1058C0007BE7051D284602F012FF51EC100BFBF799
:1058D0003BF9DFED8E0A00EE100A07F0C7FADFEDA4
:1058E000820A07F09BFA814B10EE100A83ED060A3C
:1058F000FAF7DAFD02460B46854804F0BFFA5CE78A
:10590000051D284602F0F3FE51EC100BFBF71CF9C5
:10591000DFED800A00EE100A07F080FA734B10EEFC
:10592000100A83ED110AFAF7BFFD02460B467A48CA
:1059300004F0A4FA41E7051D284602F0D8FE51EC18
:10594000100BFBF701F9DFED750A00EE100A07F006
:105950008DFADFED650A07F061FA644B10EE100A6C
:1059600083ED080AFAF7A0FD02460B466C4804F0E6
:1059700085FA22E7051D284602F0BCFE694B014668
:105980005960694804F07AFA17E7051D284602F0C5
:10599000AEFE51EC100BFBF7D7F8DFED640A00EE1A
:1059A000100A07F03BFA514B10EE100A83ED0E0A75
:1059B000FAF77AFD02460B465D4804F05FFAFCE612
:1059C000051D284602F093FE51EC100BFBF7BCF8C6
:1059D000DFED580A00EE100A07F048FADFED420A40
:1059E00007F01CFA414B10EE100A83ED030AFAF798
:1059F0005BFD02460B46504804F040FADDE6051D0B
:105A0000284602F077FE474B014699604B4804F068
:105A100035FAD2E6051D284602F069FE51EC100B5E
:105A2000FBF792F8DFED300A00EE100A07F0F6F906
:105A30002E4BF1EE407A83ED140AC3ED137A10EE8B
:105A4000100AFAF731FD02460B463D4804F016FAFB
:105A5000B3E6051D284602F04DFE324B0146D960E3
:105A6000384804F00BFAA8E6051D284602F03FFE70
:105A700051EC100BFBF768F8DFED1B0A00EE100A83
:105A800007F0CCF9194BF1EE407A83ED160AC3ED1D
:105A9000157A10EE100AFAF707FD02460B462A485F
:105AA00004F0ECF989E6051D284602F020FE51ECD1
:105AB000100BFBF749F8DFED0C0A00EE100A07F0B7
:105AC000ADF90A4B10EE100A83ED170AFAF7ECFC59
:105AD00002460B461D4804F0D1F96EE61C4804F05E
