:020000040800F2
:1000000000000120917400080159000805590008FA
:10001000115900081D590008295900080000000066
:10002000000000000000000000000000355900083A
:1000300039590008000000003D59000841590008E6
:10004000E1740008E1740008E1740008E17400083C
:10005000E1740008E1740008E1740008E17400082C
:10006000E1740008E1740008E1740008E17400081C
:10007000E1740008E1740008E1740008E17400080C
:10008000E1740008E1740008E1740008E1740008FC
:1000900045590008E1740008E1740008E1740008A3
:1000A000E1740008715A0008E1740008E174000866
:1000B000E1740008E1740008E1740008E1740008CC
:1000C000E1740008E1740008E1740008E1740008BC
:1000D000E1740008E1740008495B0008E17400085D
:1000E000F15A0008E1740008E1740008E1740008A6
:1000F000E1740008E1740008E1740008E17400088C
:10010000E1740008E1740008E1740008E17400087B
:10011000E1740008E1740008E1740008E17400086B
:10012000E1740008E1740008E1740008E17400085B
:1001300001F0FF01102A2BDB10F0070F08D010F898
:10014000013B013A8B422DD010F0070F42B3F6D19C
:10015000F0B441EA012141EA014122F007047FF0B5
:1001600000070023F0E80256083C85EA010586EA0C
:10017000010685FA47F5A3FA87F586FA47F6A5FA48
:1001800087F68EB9EED1F0BC01F0FF0102F0070254
:1001900032B110F8013B013A83EA010313B1F8D1FF
:1001A0000020704701387047002D06BF35460338E0
:1001B000073815F0010F07D1013015F4807F02BF19
:1001C000013015F4C03F0130F0BC0138704700BF6A
:1001D000034613F8012B002AFBD1181A0138704787
:1001E00081F0004102E000BF83F0004330B54FEAE8
:1001F00041044FEA430594EA050F08BF90EA020F55
:100200001FBF54EA000C55EA020C7FEA645C7FEAE7
:10021000655C00F0E2804FEA5454D4EB5555B8BF0A
:100220006D420CDD2C4480EA020281EA030382EA7B
:10023000000083EA010180EA020281EA0303362D0D
:1002400088BF30BD11F0004F4FEA01314FF4801CE0
:100250004CEA113102D0404261EB410113F0004FF2
:100260004FEA03334CEA133302D0524263EB4303A9
:1002700094EA050F00F0A780A4F10104D5F1200E47
:100280000DDB02FA0EFC22FA05F2801841F10001A2
:1002900003FA0EF2801843FA05F359410EE0A5F176
:1002A00020050EF1200E012A03FA0EFC28BF4CF0A7
:1002B000020C43FA05F3C01851EBE37101F000455D
:1002C00007D54FF0000EDCF1000C7EEB00006EEB6A
:1002D0000101B1F5801F1BD3B1F5001F0CD34908F4
:1002E0005FEA30004FEA3C0C04F101044FEA44524B
:1002F00012F5800F80F09A80BCF1004F08BF5FEAD2
:10030000500C50F1000041EB045141EA050130BDB1
:100310005FEA4C0C404141EB0101013C28BFB1F5C3
:10032000801FE9D291F0000F04BF01460020B1FA0E
:1003300081F308BF2033A3F10B03B3F120020CDAE1
:100340000C3208DD02F1140CC2F10C0201FA0CF0BF
:1003500021FA02F10CE002F11402D8BFC2F1200C24
:1003600001FA02F120FA0CFCDCBF41EA0C019040DA
:10037000E41AA2BF01EB0451294330BD6FEA040423
:100380001F3C1CDA0C340EDC04F11404C4F120020E
:1003900020FA04F001FA02F340EA030021FA04F320
:1003A00045EA030130BDC4F10C04C4F1200220FA77
:1003B00002F001FA04F340EA0300294630BD21FAB5
:1003C00004F0294630BD94F0000F83F4801306BF7B
:1003D00081F480110134013D4EE77FEA645C18BF6F
:1003E0007FEA655C29D094EA050F08BF90EA020F06
:1003F00005D054EA000C04BF1946104630BD91EAFE
:10040000030F1EBF0021002030BD5FEA545C05D100
:100410004000494128BF41F0004130BD14F580043F
:100420003CBF01F5801130BD01F0004545F0FE41B3
:1004300041F470014FF0000030BD7FEA645C1ABFE8
:10044000194610467FEA655C1CBF0B46024650EA1F
:10045000013406BF52EA033591EA030F41F400214B
:1004600030BD00BF90F0000F04BF0021704730B5D1
:100470004FF4806404F132044FF000054FF00001A6
:1004800050E700BF90F0000F04BF0021704730B567
:100490004FF4806404F1320410F0004548BF40423C
:1004A0004FF000013EE700BF42004FEAE2014FEA91
:1004B00031014FEA02701FBF12F07F4393F07F4F6C
:1004C00081F06051704732F07F4208BF704793F06F
:1004D0007F4F04BF41F40021704730B54FF4607482
:1004E00001F0004521F000411CE700BF50EA010285
:1004F00008BF704730B54FF000050AE050EA01022E
:1005000008BF704730B511F0004502D5404261EB9D
:1005100041014FF4806404F132045FEA915C3FF4DE
:10052000D8AE4FF003025FEADC0C18BF03325FEA7B
:10053000DC0C18BF033202EBDC02C2F1200300FA2C
:1005400003FC20FA02F001FA03FE40EA0E0021FA51
:1005500002F11444BDE600BF70B54FF0FF0C4CF43F
:10056000E06C1CEA11541DBF1CEA135594EA0C0FF1
:1005700095EA0C0F00F0DEF82C4481EA030621EA2C
:100580004C5123EA4C5350EA013518BF52EA033567
:1005900041F4801143F4801338D0A0FB02CE4FF019
:1005A0000005E1FB02E506F00042E0FB03E54FF049
:1005B0000006E1FB03569CF0000F18BF4EF0010E41
:1005C000A4F1FF04B6F5007F64F5407404D25FEA3D
:1005D0004E0E6D4146EB060642EAC62141EA5551F0
:1005E0004FEAC52040EA5E504FEACE2EB4F1FD0C32
:1005F00088BFBCF5E06F1ED8BEF1004F08BF5FEAB0
:10060000500E50F1000041EB045170BD06F0004661
:1006100046EA010140EA020081EA0301B4EB5C040E
:10062000C2BFD4EB0C0541EA045170BD41F4801106
:100630004FF0000E013C00F3AB8014F1360FDEBF2B
:10064000002001F0004170BDC4F10004203C35DA07
:100650000C341BDC04F11404C4F1200500FA05F38A
:1006600020FA04F001FA05F240EA020001F000422B
:1006700021F0004110EBD37021FA04F642EB0601A1
:100680005EEA430E08BF20EAD37070BDC4F10C04CB
:10069000C4F1200500FA04F320FA05F001FA04F28F
:1006A00040EA020001F0004110EBD37041F100017B
:1006B0005EEA430E08BF20EAD37070BDC4F1200586
:1006C00000FA05F24EEA020E20FA04F301FA05F2EE
:1006D00043EA020321FA04F001F0004121FA04F296
:1006E00020EA020000EBD3705EEA430E08BF20EA66
:1006F000D37070BD94F0000F0FD101F000464000A0
:1007000041EB010111F4801F08BF013CF7D041EA21
:10071000060195F0000F18BF704703F00046520025
:1007200043EB030313F4801F08BF013DF7D043EAF6
:100730000603704794EA0C0F0CEA135518BF95EAAC
:100740000C0F0CD050EA410618BF52EA4306D1D133
:1007500081EA030101F000414FF0000070BD50EA52
:10076000410606BF1046194652EA430619D094EADC
:100770000C0F02D150EA013613D195EA0C0F05D1C6
:1007800052EA03361CBF104619460AD181EA03011A
:1007900001F0004141F0FE4141F470014FF00000D2
:1007A00070BD41F0FE4141F4780170BD70B54FF06D
:1007B000FF0C4CF4E06C1CEA11541DBF1CEA1355ED
:1007C00094EA0C0F95EA0C0F00F0A7F8A4EB0504CF
:1007D00081EA030E52EA03354FEA013100F08880C6
:1007E0004FEA03334FF0805545EA131343EA12638F
:1007F0004FEA022245EA111545EA10654FEA002644
:100800000EF000419D4208BF964244F1FD0404F5FC
:10081000407402D25B084FEA3202B61A65EB030558
:100820005B084FEA32024FF480104FF4002CB6EB15
:10083000020E75EB030E22BFB61A754640EA0C0095
:100840005B084FEA3202B6EB020E75EB030E22BFD5
:10085000B61A754640EA5C005B084FEA3202B6EB16
:10086000020E75EB030E22BFB61A754640EA9C00D5
:100870005B084FEA3202B6EB020E75EB030E22BFA5
:10088000B61A754640EADC0055EA060E18D04FEA63
:10089000051545EA16754FEA06164FEAC30343EA03
:1008A00052734FEAC2025FEA1C1CC0D111F4801FD0
:1008B0000BD141EA00014FF000004FF0004CB6E7C9
:1008C00011F4801F04BF01430020B4F1FD0C88BF68
:1008D000BCF5E06F3FF6AFAEB5EB030C04BFB6EB73
:1008E000020C5FEA500C50F1000041EB045170BD66
:1008F0000EF0004E4EEA113114EB5C04C2BFD4EB93
:100900000C0541EA045170BD41F480114FF0000E16
:10091000013C90E645EA060E8DE60CEA135594EA92
:100920000C0F08BF95EA0C0F3FF43BAF94EA0C0F95
:100930000AD150EA01347FF434AF95EA0C0F7FF40A
:1009400025AF104619462CE795EA0C0F06D152EA5E
:1009500003353FF4FDAE1046194622E750EA410642
:1009600018BF52EA43067FF4C5AE50EA41047FF453
:100970000DAF52EA43057FF4EBAE12E74FF0FF3CB8
:1009800006E000BF4FF0010C02E000BF4FF0010C89
:100990004DF804CD4FEA410C7FEA6C5C4FEA430C02
:1009A00018BF7FEA6C5C1BD001B050EA410C0CBF51
:1009B00052EA430C91EA030F02BF90EA020F0020B3
:1009C000704710F1000F91EA030F58BF994208BF1A
:1009D00090422CBFD8176FEAE37040F001007047D7
:1009E0004FEA410C7FEA6C5C02D150EA013C07D12E
:1009F0004FEA430C7FEA6C5CD6D152EA033CD3D079
:100A00005DF8040B704700BF8446104662468C4672
:100A10001946634600E000BF01B5FFF7B7FF0028A5
:100A200048BF10F1000F01BD4DF808EDFFF7F4FFCE
:100A30000CBF012000205DF808FB00BF4DF808ED59
:100A4000FFF7EAFF34BF012000205DF808FB00BF7C
:100A50004DF808EDFFF7E0FF94BF012000205DF89E
:100A600008FB00BF4DF808EDFFF7CEFF94BF012053
:100A700000205DF808FB00BF4DF808EDFFF7C4FF4C
:100A800034BF012000205DF808FB00BF4FEA410C95
:100A90007FEA6C5C02D150EA013C0AD14FEA430C78
:100AA0007FEA6C5C02D152EA033C02D14FF00000B5
:100AB00070474FF0010070474FEA410212F50012F3
:100AC00015D211D56FF47873B3EB625212D94FEA95
:100AD000C12343F0004343EA505311F0004F23FA7F
:100AE00002F018BF404270474FF00000704750EAD4
:100AF000013005D111F0004008BF6FF00040704791
:100B00004FF00000704700BF4A0011D212F50012EA
:100B100011D20DD56FF47873B3EB62520ED44FEA55
:100B2000C12343F0004343EA505323FA02F07047D5
:100B30004FF00000704750EA013002D14FF0FF3013
:100B400070474FF0000070474FEA4102B2F1E043B6
:100B500024BFB3F5001CDCF1FE5C0DD901F0004CA4
:100B60004FEAC0024CEA5070B2F1004F40EB8300F4
:100B700008BF20F00100704711F0804F21D113F120
:100B80003872BCBF01F00040704741F480114FEA59
:100B90005252C2F11802C2F1200C10FA0CF320FAE2
:100BA00002F018BF40F001004FEAC1234FEAD323FF
:100BB00003FA0CFC40EA0C0023FA02F34FEA430369
:100BC000CCE77FEA625307D150EA01331EBF4FF0F2
:100BD000FE4040F44000704701F0004040F0FE400D
:100BE00040F40000704700BF0348044B834202D02A
:100BF000034B03B118477047CC010020CC01002003
:100C0000000000000548064B1B1AD90F01EBA30199
:100C1000491002D0034B03B118477047CC010020A4
:100C2000CC0100200000000010B5064C237843B929
:100C3000FFF7DAFF044B13B10448AFF30080012340
:100C4000237010BDCC0100200000000094BE0008FD
:100C500008B5054B1BB105490548AFF30080BDE859
:100C60000840FFF7CFBF00BF00000000D001002008
:100C700094BE000808B5012005F0D2FE4FF4C06014
:100C800005F0A4FE40F2026005F0A0FE40F2036011
:100C900005F09CFE40F2046005F098FE4FF4A06061
:100CA00005F094FE40F2015005F090FE40F21970FC
:100CB00005F08CFE40F20E7005F088FE40F20F70D9
:100CC00005F084FE40F20B6005F080FE40F2096002
:100CD00005F07CFE40F20A6005F078FE40F20F60FD
:100CE00005F074FEBDE8084040F2117005F06EBEDC
:100CF00070B504F0C5FDFFF7BDFF00F02FFA01F05D
:100D000089FC01F0F3FB00F03DFC01F0A1FB01F0D8
:100D1000C7FB00F0CFFA00F0BBFB02F051FCC54866
:100D200008F010F8C44808F00DF801230022022151
:100D3000C24807F09FFFC248062104F087FBC04865
:100D400004F06EFC002800F0AC81BE4DBE4C6B6917
:100D5000D4ED027A013304BF00236B612B690133A8
:100D600008BF0023F4EE677A08BF2B61F1EE10FA9A
:100D700080F19481BFEE007AF4EE477AF1EE10FA3A
:100D800000F08C81D4ED037AF4EE677AF1EE10FA7C
:100D900080F18181BFEE007AF4EE477AF1EE10FA2D
:100DA00000F07981D4ED067AF4EE677AF1EE10FA6C
:100DB00080F16E81BFEE007AF4EE477AF1EE10FA20
:100DC00000F066816B68D4ED077A013304BF01231C
:100DD0006B60AB68013304BF0023AB60EB68013389
:100DE00008BF4FF47A73F4EE677A08BFEB60F1EE58
:100DF00010FA80F11B81BFEE007AF4EE477AF1EE33
:100E000010FA00F01381D4ED087AF4EE677AF1EE6F
:100E100010FA80F10881BFEE007AF4EE477AF1EE25
:100E200010FA00F00081D4ED097AF4EE677AF1EE61
:100E300010FA80F1F580BFEE007AF4EE477AF1EE19
:100E400010FA00F0ED80D4ED127AF4EE677AF1EE4C
:100E500010FA80F1E280BFEE007AF4EE477AF1EE0C
:100E600010FA00F0DA80D4ED0A7AF4EE677AF1EE47
:100E700010FA80F1CF80BFEE007AF4EE477AF1EEFF
:100E800010FA00F0C780D4ED117AF4EE677AF1EE33
:100E900010FA80F1BB80BFEE007AF4EE477AF1EEF3
:100EA00010FA00F0B380D4ED0E7AF4EE677AF1EE2A
:100EB00010FA80F1A780BFEE007AF4EE477AF1EEE7
:100EC00010FA00F09F80D4ED177AF4EE677AF1EE15
:100ED00010FA80F19480BFEE007AF4EE477AF1EEDA
:100EE00010FA00F08C80D4ED187AF4EE677AF1EE07
:100EF00010FA80F18180BFEE007AF4EE477AF1EECD
:100F000010FA79D0D4ED147A5048514EF4EE677A45
:100F1000D4ED137AF1EE10FA64BF4E4B2365F4EE74
:100F2000677AD4ED167AF1EE10FA64BF4A4BE364A7
:100F3000F4EE677AD4ED157AF1EE10FA64BF474B00
:100F4000A365F4EE677AF1EE10FA64BF444B636573
:100F500002F0D0FD00214FF44472424807F013FF25
:100F60006A69A36AC6F8D82064202A69C6F8D42022
:100F7000B3663D4D04F0A6FC6421304603F0A8FFA3
:100F80003A494FF4007206F1DC0007F049FF95E89A
:100F9000070002F017FA002840F08B80344800F078
:100FA00011FB344800F028FB00221146282005F0F0
:100FB000BBFC01220021142005F0B6FC0022012117
:100FC000192005F0B1FC00220221262005F0ACFC1E
:100FD000294B062101221980DA7000244FF47A701F
:100FE00004F070FCAB880134002BF7D095E80700C3
:100FF000234602F0FDF8F1E7204B236682E7204B01
:10100000E36570E74FF07E53A3635CE74FF07E53D8
:10101000636448E71B4BA36235E7184BA36422E7E0
:10102000194B63620FE7194B2362FCE60023E3616F
:10103000E9E600BFC8BF0008D4BF0008F4BF00083D
:101040007837002090370020903B00207834002033
:101050005831002000004841000048C10000824291
:10106000000082C23C2E00204C310020A837002016
:10107000E8010020FC010020683400200000A040AE
:101080000000FA430000A841000060410000FA425D
:101090000023A36196E6094BE36083E6084BA36057
:1010A00070E60849084800F06FFB084807F04AFE60
:1010B0004BE6074807F046FE70E700BF00002042FD
:1010C00000007A44903B00209037002010C00008B8
:1010D00060C0000808B514484FF4006105F09CFB9F
:1010E0001248002105F0A2FE002211460F4806F02A
:1010F00035F80E480022012106F030F80B48002296
:10110000022106F02BF800221146084805F0C8FF1E
:1011100006480022012105F0C3FFBDE8084003484E
:101120000022022105F0BCBF00080140002C014054
:10113000024A136803431360FFF7CCBF903C0020C2
:10114000014B1868704700BF903C0020024A1368AA
:1011500023EA000313607047903C002010B550480C
:10116000012105F06DFB4F48012105F069FB4E4858
:101170004FF4A0530122182105F0F6FA4A484FF423
:1011800000630122042105F0EFFA4FF4004301222D
:101190004648102105F0E8FA44484FF4004105F0B4
:1011A00039FB43484FF420430122182105F0DCFAB3
:1011B0003F484FF480430122482105F0D5FA4FF40F
:1011C000805301223A48102105F0CEFA38484FF4F6
:1011D000805105F01FFB35484FF4006302221021B7
:1011E00005F0C2FA4FF4805303223048042105F081
:1011F000BBFA2E484FF4006105F00EFB2B484FF46C
:10120000E0630322182105F0AFFA274803230422E4
:10121000002105F0A9FA264801230422002105F047
:10122000A3FA21480C230422002105F09DFA1F484F
:10123000F0230422002105F097FA1B4830230422F2
:10124000002105F091FA4FF40053022216481021B4
:1012500005F08AFA14484FF4005105F0DDFA1348FE
:1012600004230122182105F07FFA082301220F48E8
:10127000042105F079FA01214FF4EA1005F0E0FAB3
:101280000B484FF480730222482105F06DFABDE847
:10129000104007484FF400730322182105F064BA88
:1012A0000010200000023000001001400008014042
:1012B000000C014070B5714888B0002105F000F8BD
:1012C0006F4A704B01920024042503934FF400727F
:1012D0004FF400634FF48076029204930DEB050205
:1012E0004FF4805321466548ADF81C60CDE90553A5
:1012F0008DF81E4005F002F82146604805F03CF8E4
:1013000021465E4805F04AF85F4804F033FC5F4828
:1013100004F030FC4FF4803004F07AFC31465A4837
:10132000012204F085FC22465748022104F080FC8B
:1013300031465648012204F07BFC224653480221E4
:1013400004F076FC2146504804F09AFC2A464E48A8
:10135000012104F09FFC01224B48022104F09AFC79
:1013600021464A4804F08CFC2A464848012104F0F2
:1013700091FC46480122022104F08CFC23462146C0
:101380004148062204F0A4FC23463F480F220121D5
:1013900004F09EFC23463C480722022104F098FCFE
:1013A000234639480822032104F092FC23462146B3
:1013B0003648052204F08CFC234634480E220121D5
:1013C00004F086FC23462A463048022104F080FCC3
:1013D00023462E480C22032104F07AFC2A484FF4BD
:1013E0006022012104F020FD01221146264804F06C
:1013F000FFFC26484FF46022012104F015FD012274
:101400001146224804F0F4FC234621461E480B22D4
:1014100004F0B6FC234621461C480A2204F0B0FC26
:1014200019484FF4E042022104F0FEFC1648012264
:10143000022104F0DDFC15484FF4E042022104F0E3
:10144000F3FC01220221114804F0D2FC0E4804F002
:10145000D9FB0E4804F0D6FB0B4804F0B9FB0B484F
:1014600004F0B6FB012004F02DFA074804F0B8FBA5
:10147000064804F0B5FB08B070BD00BF0000024094
:101480004C240140983C00200024014000280140E9
:1014900070B5384888B0042104F012FF3649374A45
:1014A00001914FF48063012400254FF4807603926C
:1014B000049301AA4FF480532E4806930421ADF8FB
:1014C0001C6002968DF81E50059404F017FF294801
:1014D000042104F051FF0421264804F05FFF28484E
:1014E00004F048FB22463146254804F0A1FB2A4679
:1014F0002348022104F09CFB2946214804F0C0FB4C
:10150000224621461E4804F0C5FB22461C48022103
:1015100004F0C0FB2B46294619480D2204F0D8FBE5
:10152000214617484FF4602204F07EFC22462146F3
:10153000134804F05DFC2B46294611480D2204F0A7
:101540001FFC0F484FF4E042022104F06DFC2246DC
:1015500002210B4804F04CFC094804F053FB0848F6
:1015600004F036FB204604F0ADF9054804F038FBE2
:1015700008B070BD000402404C3C0140943C002087
:10158000003C014000B585B001A9002004F0A2FC98
:101590000A4804F08DFC0A484FF48072CDE901023C
:1015A0004FF4802301A90548039304F0C5FC0348C8
:1015B000022104F081FE05B000BD00BF00640040C0
:1015C0000000090300B5014687B0032004F082FC47
:1015D00001A9012004F07EFC00234FF48031012298
:1015E00001A8CDE90133CDE903318DF8142004F0D1
:1015F00035FD07B000BD00BF00B583B001460190C6
:10160000022004F067FC054A0199906808600023F5
:1016100006228A724B600B8103B000BD9037002018
:10162000F0B52DED028B1E4D83B00446F0EE608ABE
:10163000B0EE418AD5ED130A95ED141A01911020F0
:1016400003F0BCFA95ED161AD5ED150A0746B0EE73
:10165000680A0C2003F0B2FAD5ED030A95ED0E7A74
:10166000D5ED117A60EEC70A064660EEA70AB0EE25
:10167000480AB1EE601A0C2003F0A0FA0312019997
:10168000E17203EB06137ABA3111E3730023A173FD
:10169000A28120746374A37403B0BDEC028BF0BD0F
:1016A000903B002084B0F0B52DED028B83B00AACE6
:1016B00084E80F009DF836309DF835709DF839208C
:1016C0009DF83760BDF833002D4C9DF838E09DF84B
:1016D0003A10D4ED140A94ED130A0F9D9FED298A58
:1016E0004FEA032C1B0943EA07170CF470631E43EF
:1016F000130240BA120903F470630B4342EA0E125C
:1017000080B210210092019303F06CFA85ED000A7B
:10171000D4ED160A94ED150A38460C2103F062FA4E
:1017200085ED010AD4ED170A3046B0EE480A0C21C7
:1017300003F058FA85ED020AD4ED180A00980C213E
:10174000B0EE480A03F04EFA85ED030A94ED030A61
:1017500094ED0E7AD4ED117A019820EE470A0C210F
:1017600020EE270AF1EE400A03F03CFA85ED040A68
:1017700003B0BDEC028BBDE8F04004B0704700BF81
:10178000903B00200000000070B54FF480620C46D2
:101790000546002107F0F7FA01264FF48072002178
:1017A000204607F0F0FA6E60002300224FF47A76AC
:1017B000C5E904222A60AA60EE60154ADFED156AC9
:1017C0009FED157ADFED157AA3614FF07E51E3614D
:1017D0006363E3632364124BDFF858E0DFF858C01B
:1017E0001048A1636164A2640F49236522660F4B10
:1017F0000F4AC4ED026A84ED037AC4ED087AC4F896
:1018000054E0C4F858C0E164E0656262A36270BD50
:101810000000A04000007A44000020420000FA428C
:10182000000048410000FA43000048C10000A84100
:1018300000006041000082C20000824270B50E4686
:101840001E49A0F1040E00F57F754FF0FF305EF8E1
:10185000044F4FF0000C24FA0CF3DBB2584008227E
:1018600040F300030B40013A83EA5000F8D10CF139
:10187000080CBCF1200FEED17545E8D10F49B646F2
:1018800006F58075DEF800404FF0000C24FA0CF3EA
:10189000DBB25840082240F300030B40013A83EAD0
:1018A0005000F8D10CF1080CBCF1200FEED10EF174
:1018B000040EAE45E6D1C04370BD00BF2083B8ED35
:1018C0000368012B00F22C8243687F2B00F22882F0
:1018D00083687F2B00F22482C368DE4A013B934277
:1018E00000F21E820369DFF8A4C34FF6FF721344AF
:1018F000634500F2158243691A44624500F2108282
:10190000D1ED027A9FEDD47AF0EEE76AF4EE476A01
:10191000F1EE10FA00F20482DFEDDD6AF4EEE67A11
:10192000F1EE10FAC0F2FC81DFEDCC6AF4EEE67A5B
:10193000F1EE10FA00F2F481D1ED037AF0EEE76AED
:10194000F4EE476AF1EE10FA00F2EA819FEDC47AF4
:10195000F4EEC77AF1EE10FAC0F2E2819FEDC17A9F
:10196000F4EEC77AF1EE10FA00F2DA81D1ED064A10
:10197000DFEDB96AB0EEE47AB4EE667AF1EE10FA11
:1019800000F2CE81F5EEC04AF1EE10FAC0F2C88145
:101990009FEDB57AF4EEC74AF1EE10FA00F2C0817D
:1019A00091ED077AB0EEC76AB4EE666AF1EE10FA0E
:1019B00000F2B681B5EEC07AF1EE10FAC0F2B08155
:1019C0009FEDB36AB4EEC67AF1EE10FA00F2A88188
:1019D00091ED087AB0EEC76AB4EE666AF1EE10FADD
:1019E00000F29E81F7EE006AB4EEE67AF1EE10FAAC
:1019F000C0F29681DFED9D6AB4EEE67AF1EE10FA60
:101A000000F28E8191ED095ADFED936AB0EEC57A4E
:101A1000B4EE667AF1EE10FA00F282819FED907AD0
:101A2000B4EEC75AF1EE10FAC0F27A819FED907AC7
:101A3000B4EEC75AF1EE10FA00F2728191ED0A7A13
:101A4000B0EEC76AB4EE666AF1EE10FA00F2688191
:101A5000B7EE006AB4EEC67AF1EE10FAC0F2608119
:101A60009FED846AB4EEC67AF1EE10FA00F2588166
:101A700091ED0D7AB0EEC76AB4EE666AF1EE10FA37
:101A800000F24E81B5EEC07AF1EE10FAC0F2488154
:101A9000DFED7F6AB4EEE67AF1EE10FA00F24081F3
:101AA000D1ED0E6A9FED6C7AB0EEE66AB4EE476A4D
:101AB000F1EE10FA00F234819FED6F6AF4EEC66A1F
:101AC000F1EE10FAC0F22C81B2EE046AF4EEC66AAE
:101AD000F1EE10FA00F22481D1ED0F6AB0EEE66A61
:101AE000B4EE476AF1EE10FA00F21A81F5EEC06A20
:101AF000F1EE10FAC0F214819FED606AF4EEC66A4E
:101B0000F1EE10FA00F20C81D1ED106AB0EEE66A47
:101B1000B4EE476AF1EE10FA00F20281F5EEC06A07
:101B2000F1EE10FAC0F2FC809FED556AF4EEC66A41
:101B3000F1EE10FA00F2F480D1ED116AB0EEE66A2F
:101B4000B4EE476AF1EE10FA00F2EA809FED4D7AAA
:101B5000F4EEC76AF1EE10FAC0F2E2809FED477A28
:101B6000F4EEC76AF1EE10FA00F2DA80D1ED126AF3
:101B70009FED397AB0EEE66AB4EE476AF1EE10FAFC
:101B800000F2CE809FED366AF4EEC66AF1EE10FAEE
:101B9000C0F2C680B3EE046AF4EEC66AF1EE10FA43
:101BA00000F2BE80D1ED135AF0EEE56AF4EE476A1A
:101BB000F1EE10FA00F2B480DFED336AF4EEE65A8B
:101BC000F1EE10FAC0F2AC80F5EEC05AF1EE10FA68
:101BD00000F2A68091ED146AF0EEC66AF4EE476A50
:101BE000F1EE10FA00F29C80B5EEC06AF1EE10FA48
:101BF000C0F296809FED214AB4EEC46AF1EE10FA6D
:101C000000F28E80D1ED156AB0EE473AB0EEE67A7A
:101C1000B4EE437AF1EE10FA00F282809FED1A7A68
:101C2000F4EEC76AF1EE10FA7ADBF5EEC06AF1EE77
:101C300010FA75D891ED167AF0EEC73AF4EE433A01
:101C4000F1EE10FA6CD8B5EEC07AF1EE10FA67DB5F
:101C500020E000BF9F860100FFFF7F7F0000FA4465
:101C6000CDCCCC3D00007042000004420000164381
:101C7000000020420000804217B7D13800007A44AB
:101C80000050C3476F12833A00007AC4FEFF010080
:101C90000000C842B4EEC47AF1EE10FA40D8D1ED9B
:101CA000173AF0EEE32AF4EE432AF1EE10FA37D8B1
:101CB000F5EEC03AF1EE10FA32DBF4EEC43AF1EE92
:101CC00010FA2DD891ED184AF0EE433AB0EEC43A2E
:101CD000B4EE633AF1EE10FA22D8B5EEC04AF1EE56
:101CE00010FA1DDB5FED163AB4EEE34AF1EE10FA9E
:101CF00016D8F4EEE47AF1EE10FA11DBF4EEC57AC0
:101D0000F1EE10FA0CDBF4EEC65AF1EE10FA07D53C
:101D1000F4EEC76AF1EE10FA4CBF012000207047C4
:101D20000020704730B5DFF83CC083B06045069DA9
:101D3000079C02D0002003B030BD0229FAD1B2F5D1
:101D4000A07FF7D1214628460193FFF777FD019B3D
:101D50009842EFD12146284603B0BDE83040FFF756
:101D6000AFBD00BF4154484E401A0028D4BF0020E8
:101D70000120704740B12AB15B1A002BD4BF00206C
:101D8000012070471046704782420CBF4FF0FF3071
:101D90000120704711B10AB1082B01D00020704713
:101DA000009BC01AB3F5006FB0FA80F04FEA5010F4
:101DB00028BF0020704700BF431E00F1060C13F837
:101DC000012FFF2A09D16345F9D1C279131DDBB276
:101DD000022B02D80A70012070470020704700BF14
:101DE00038B5C0F30D0444F4804440F44045204627
:101DF0000AF00AF8002814BF2846204638BD00BF64
:101E0000084310B5C0F30D04204609F0FDFF44EA75
:101E1000C03080B210BD00BF10B5044609F0F4FF19
:101E200028B914F4804F18BF6FF0010010BD4FF0B7
:101E3000FF3010BDC0F30D00C1F30D01401AB0F525
:101E4000005F03DDA0F5804000B2704710F5005F31
:101E5000B8BF00F5804000B2704700BF0378A52BE3
:101E600020D143785A2B1DD18378012B1AD1837945
:101E7000C3B910B5DFF838E00C46421E811D12F8D8
:101E800001CF83EA0C0391421EF80330F7D1C279E7
:101E90009A420AD1C3782370037963704379A3709F
:101EA000002010BD4FF0FF3070476FF0010010BDF3
:101EB000B0BE000890F800C06CF07F0C83F800C042
:101EC00090F801C083F801C0807898704FEA122C16
:101ED000D970100C110E1A7183F805C09871D97160
:101EE000704700BF70B5864C0168236840F20172EC
:101EF0000133914288B0236006D1037A23B9437A33
:101F000013B9827A082A04D0A3680133A36008B009
:101F100070BD02A90B300093FFF7A0FF18B1E36872
:101F20000133E360F3E703F0E5FC7649009B0A68C0
:101F3000821A132A03D8636901336361E7E7626891
:101F400008609DF8081001326260032900F27C826B
:101F5000DFE801F0689210029DF80A100F2964D89A
:101F6000DFE801F09FA4A2ACAAA8A6BA63B6B2AEFD
:101F7000C0BC63C49DF80A20512A56D8DFE812F08D
:101F80007C01760170011A01160113010F01550041
:101F90005500090106010301FD00F700F100E8000A
:101FA000E400E0008A01810155005500550055000C
:101FB000B900D200A5019F01D200B900A5015500CA
:101FC0005500550055005500550055005500550069
:101FD0005500550055005500550055005500550059
:101FE0005500550055005500550055005500550049
:101FF00099019301B900D801D201CB01C401BD01FF
:10200000B601AF01A80155024E0232022B02240292
:102010001D0216020F0208020102FA01F301EC018F
:10202000E501DE019DF80A2082B301232169013117
:102030000022216103A90220CDE9003203F04AFF0A
:1020400000230493ADF8143040F281730393082306
:10205000DDE9001202A88DF816300DF11703FFF725
:1020600029FF294803A904F073F8032800F0E4814C
:10207000A3690133A3614AE79DF80A20042A00F20C
:10208000E181DFE802F003090C0705001F4AD1E7F0
:102090001F4ACFE71F4ACDE74FF48032CAE70F222D
:1020A000C8E722680B46C5E7A268C3E76268C1E7D4
:1020B000A269BFE76269BDE72269BBE7E268B9E7E9
:1020C000154AD2F80023B5E7144AD2F8FC22B1E74A
:1020D000114AD2F8FC22ADE7E269ABE70E4AD2F82A
:1020E0000823A7E70C4AD2F80423A3E70C4A126896
:1020F000A0E7009300F0B6FD009B02469AE700BF00
:10210000AC3C0020A83C0020006400404154484EF4
:1021100001E8030001D1E0A7583100207834002005
:10212000CC3C0020B34A9FEDB47AD2ED037AB34998
:10213000B34AB4EEE77AF1EE10FAB8BF0A4679E78F
:10214000B04AD2F8B42075E7AF4AD2F8182471E744
:10215000AE4991F8DE22002A00F07281D1F8E62221
:1021600068E7AB4AD188128942EA014262E7A84A8D
:102170005188928842EA01425CE7A54A5189128857
:1021800042EA014256E7A24AD26853E79D4A128AC0
:1021900050E79C490A89C96842EA01424AE79B4ADA
:1021A000D2F8802046E7994A926F43E7974AD2F8DF
:1021B000E0223FE74FF480519648009304F034FB4F
:1021C0004FF400610646934804F034FB92498E4A6E
:1021D000031ED1F8440CC0F3C03ED2F81804D2F864
:1021E00018C44FEA401000F02005D2F81804D1F8C6
:1021F000202C4FEA022202F4807218BF01232A43E6
:1022000042EA4302814B93F8DD32003B18BF0123C1
:1022100042EAC3027B4B93F8F532003B18BF01231F
:1022200042EA0312CCF3400C42EA8E02C0F3800073
:1022300042EA8C1242EAC012D1F8200CD1F8201CDC
:10224000009BC0F3001042EA4022C1F3002142EAA1
:102250008122002E08BF42F0010242F00042E9E66E
:102260000093FEF76DFF009B0246E3E6009303F048
:1022700041FB009B0246DDE662491346D1F8F82295
:10228000D8E66549D1F83C2CD1F82C1C92B242EA30
:102290000142CFE66049D1F8342CD1F8381C92B213
:1022A00042EA0142C6E6009300F0D6FC009B0246DB
:1022B000C0E6009300F0CAFC009B0246BAE6009319
:1022C00000F06CFF009B0246B4E640F21542B1E616
:1022D0000520009300F0D8FC009B0246AAE60420EB
:1022E000009300F0D1FC009B0246A3E6032000937C
:1022F00000F0CAFC009B02469CE60220009300F01E
:10230000C3FC009B024695E60120009300F0BCFC54
:10231000009B02468EE60020009300F0B5FC009B77
:10232000024687E6009300F0A9FC009B024681E686
:10233000009300F09DFC009B02467BE60E2000937C
:1023400000F0ACFC009B024674E60D20009300F008
:10235000A5FC009B02466DE60C20009300F09EFC5D
:10236000009B024666E60B20009300F097FC009B62
:1023700002465FE60A20009300F090FC009B0246B4
:1023800058E60920009300F089FC009B024651E6C4
:102390000820009300F082FC009B02464AE60720DA
:1023A000009300F07BFC009B024643E6062000936E
:1023B00000F074FC009B02463CE60520009300F010
:1023C0006DFC009B024635E60420009300F066FC9D
:1023D000009B02462EE60320009300F05FFC009B6A
:1023E000024627E60220009300F058FC009B0246BC
:1023F00020E600BF903B002000002042A0008002A9
:10240000A000C00278340020006000405831002055
:10241000983C00200008014000200140012000936A
:1024200000F03CFC009B024604E60020009300F014
:1024300035FC009B0246FDE5E3690133E36166E597
:102440000323F7E50B46F1E50423EFE50000000068
:1024500000B5114889B004F08FFB9FED0D7B4FF460
:1024600000724FF4827100234FF40060CDE9001335
:10247000CDE9020218236946074806938DED047BD7
:1024800004F0A8FB044804F0BFFB09B000BD00BF86
:1024900000000000010000000038004000000000C3
:1024A00000B5114889B004F067FB9FED0D7B4FF438
:1024B00000724FF4827100234FF40060CDE90013E5
:1024C000CDE9020210236946074806938DED047B8F
:1024D00004F080FB044804F097FB09B000BD00BF86
:1024E0000000000001000000003C004070B54848BA
:1024F0008CB004F09BFB08A8002404F00DFC01251F
:102500004FF400134FF4FA6208A9414808930A9265
:1025100009948DF82C5004F007FC3D4804F05EFE51
:1025200021463B4804F044FE2946394804F048FE61
:10253000374804F051FC01A804F082FC022601AAED
:10254000214633480394CDE9014604F07FFC21463F
:102550002F48602204F07CFD21462D48042204F01F
:10256000D5FD21462A48082204F0A8FD224621462E
:10257000274804F095FD01AA2946254804F066FC89
:1025800029462348602204F063FD2946204804229E
:1025900004F0BCFD29461E48082204F08FFD2246A7
:1025A00029461B4804F07CFD01AA3146184804F076
:1025B0004DFC31461648602204F04AFD314614486D
:1025C000042204F0A3FD31461148082204F076FDF0
:1025D000224631460E4804F063FD04A804F00AFCCC
:1025E0004FF0005304A90A480694CDE90443ADF81E
:1025F0001C4004F005FC2146054804F017FC294660
:10260000034804F0EFFB024804F0E0FB0CB070BD9F
:10261000002C014008B50D4804F0E6FD0B484FF4CE
:10262000E13104F02DFE0948042104F069FE08217F
:10263000064804F05FFE054804F056FEBDE8084079
:10264000024840F2053104F071BE00BF0044004072
:1026500038B50546E9B20C4804F058FE41F20104D1
:1026600001E0013C07D00848072104F057FE00288C
:10267000F7D0284638BD054A13684FF0FF350133BF
:102680001360284638BD00BF00440040CC3C002009
:10269000F0B52DED028B604D1446002687B02E60FC
:1026A0000A46217C0746002975D0E168DFED5B6AA8
:1026B0005B1A07EE903AF8EEE77AB7EE007A67EE2B
:1026C000A67AF4EEC77AF1EE10FAC4ED057A6ED46C
:1026D000F0EE006AF4EEE67AF1EE10FA00F1838093
:1026E000104601F08FFA94ED067A97ED038ADFED3C
:1026F0004C6A8DED027A78EE477AF0EEE77AC6EE14
:10270000A77A17EE900AFDF7CFFE41EC100B09F007
:10271000BDF951EC100BFEF7F7F99DED027A207030
:10272000B4EEC87AF1EE10FA2FD401233D4884F8B4
:10273000203006F007FB21783B4806F09BFAA069A1
:10274000FDF7B2FE02460B4618EE100ACDE9022351
:10275000FDF7AAFEDDE90223CDE90001334806F0CA
:1027600089FA94F820302B602378314907EE903AAB
:10277000F8EE677A00220123C1ED0A7A227484F808
:10278000213007B0BDEC028BF0BD84F820602948F1
:1027900006F0D8FACFE728480593029206F0D2FA5D
:1027A0000121059B2174029AE3600021616104F517
:1027B000005101F6884501F5496100231C48A360DA
:1027C0002B600B60806CC2F8A40004F53051C2F895
:1027D000A8302C31104601F087FAFB68A36107B0DE
:1027E000BDEC028BF0BD77EEC77A9FED0D7A04F554
:1027F000325367EE877A04F5305108332C31104696
:10280000C4ED027AC3ED007A07B0BDEC028BBDE8DF
:10281000F04001F069BA00BF90370020D1CB0B38EF
:10282000DB0FC940E4C00008FCC0000810C100086C
:10283000903B0020CCC00008A8C000082DE9F04162
:10284000C24E96ED0A7A2DED028BF3EE057AB4EEC8
:10285000E77AF1EE10FA84B000F312811D46137C82
:1028600014460F468046002B00F0D880D3689FEDB9
:10287000B87AEB1A07EE903AF8EEE77AB7EE006A0C
:1028800067EE877AF4EEC67AF1EE10FAC2ED057AB9
:1028900000F1D2809FEDAF8A96ED0A7A67EE085A72
:1028A000C5EE886A76EE866AF4EEE67AF1EE10FA04
:1028B00078D4DFEDA96A27EE267AC7EE086A36EEED
:1028C000867AF4EEC77AF1EE10FA00F1E28008465B
:1028D00001F098F9D6ED0A7ABDEEE77A17EE103AD4
:1028E000002B40F3928104EB432303F1280204F10F
:1028F0002801002351F8040F91420344FAD107EE56
:10290000103AB8EEC77A9FED956AE56A9FED938A13
:10291000DFED938A27EE866AD5F58035C7EE066A25
:1029200048BF05F2FF156D120027FDEEE66AC4ED03
:10293000076A07EE107AF8EEC75A67EE886A65EE06
:10294000A75A6FF03F0265EE885A002165EEA85A3B
:10295000B7EE005A13E036EEC56AB4EEC76AF1EE80
:1029600010FA03D537EE667AFDEEC77A17EE903A85
:1029700004EB83030132DB6A402A194433D007EEAB
:10298000902AF8EEE77A77EEA57AFDEEE77A17EE71
:10299000903A002BB8EEE77ADDDA37EE267AFDEED4
:1029A000C77AE3E7D2ED027A9FED6E7A77EE877A07
:1029B00002F53253084602F53051C2ED027A2C314D
:1029C000C3ED027A01F090F994ED057AD4ED0A7A1C
:1029D000B4EEE77AF1EE10FA00F3D08004B0BDEC6B
:1029E000028BBDE8F0810029B8BF7F317F2D4FEA0F
:1029F000E1122946C8BFA5F18001E06901F68A23EA
:102A000004EB8303121A5A605748013706F032F973
:102A1000802F2BD0D6ED0A7A01358AE753480393ED
:102A200006F090F9039BA3840023636101232374C0
:102A30004FF07E53E560A36204F532530022A2609A
:102A40009A60B06CC7F8A40004F53051C7F8A8200C
:102A50002C31384601F048F9D8F80C206369A2619E
:102A6000A36204B0BDEC028BBDE8F081002201231B
:102A7000227484F8223004B0BDEC028BBDE8F081F2
:102A80003B48152104B0BDEC028BBDE8F04106F0D7
:102A9000F1B8D2ED027A9FED337A77EEC77A084625
:102AA000C2ED027AB36CC1F8A4300023C1F8A8309B
:102AB00002F5325302F53051C3ED027A2C3101F0A8
:102AC00013F994ED057AD4ED0A7AB4EEE77AF1EED3
:102AD00010FA83DDA78C002F80D096ED0A7AD4ED12
:102AE000027ADFED256AD8F87430A06827EE087AFC
:102AF00067EEA66AC6EE877AFDEEE77A17EE902AB1
:102B00009B1ADD1305F480351D4404EB8703CDEDDE
:102B1000037AD96A0D4405EBD5756D10DD62FDF7BA
:102B2000C3FC2B46CDE90001039A1248394606F052
:102B3000A1F8D4ED0A7A9FED0A7AA38C77EE877A12
:102B4000013BA384C4ED0A7A48E700BF903B002014
:102B5000D1CB0B38DB0FC940DB0F494100000043EC
:102B60000000003C5F975B3994C100085CC100081D
:102B70002CC1000884C100080000804794ED026A5F
:102B800096ED0A7A5FED046AD8F87430A78C66EE89
:102B9000266A27EE087A16EE100AC6EE877AFDEE50
:102BA000E77A17EE902A9B1ADD1305F480351D4451
:102BB00004EB8703CDED037ADD62FDF775FC2B4650
:102BC000CDE90001039A1248394606F053F89FED0B
:102BD000116A94ED0A7ADFED106AA38C37EE067A5B
:102BE000FFEE007A84ED0A7A96ED0A6A07EE103A53
:102BF000E6EE267AB8EEC77AB4EE677AF1EE10FA0E
:102C00003FF4ECAE0133A384E8E69FED047A7AE664
:102C100084C100080000003C0000004300000000E8
:102C2000024B1878003818BF01207047303D002053
:102C3000044B1B7823B1044A136843F0010313606B
:102C4000704700BF303D00202C3D0020014B18682C
:102C5000704700BF2C3D0020014B1868704700BF33
:102C6000283D0020014B1868704700BF243D00201C
:102C7000014B1868704700BF203D0020014B1868C9
:102C8000704700BF1C3D002005289DBF024B33F854
:102C9000100080B200207047103D00200E289ABF1F
:102CA000024B53F820000020704700BFD43C0020A6
:102CB000024B1878003818BF01207047D03C002024
:102CC000014B01229A637047D43C002070B5044642
:102CD0004FF6FF7384B03748218063804FF48051F2
:102CE000164603F099FD00230393039B3F2B06D860
:102CF00000BF039B01330393039B3F2BF8D940F69E
:102D0000010501E0013D40D02B48022103F088FF7E
:102D10000028F7D02188284803F07CFF40F6010501
:102D200001E0013D40D02448012103F079FF002853
:102D3000F7D0214803F070FF40F60105608001E004
:102D4000013D34D01C48802103F06AFF0128F7D0F0
:102D500000230293029B3F2B4FF000051CD915481E
:102D60004FF4805103F056FD00230193019B3F2B4C
:102D700006D800BF019B01330193019B3F2BF8D97B
:102D800063883380284604B070BD4FF0FF350023C0
:102D90000293029B3F2BE2D800BF029B01330293B8
:102DA000029B3F2BF8D9DAE76FF00105EFE76FF0F0
:102DB0000205ECE7000C01400038004070B582B01D
:102DC00000230DF102024FF40041ADF80230ADF8DE
:102DD0000430ADF806300446FFF778FF4FF40841A1
:102DE000064601AA2046FFF771FF4FF40841054649
:102DF0000DF106022046FFF769FF46EA050303438B
:102E000004D0064A136843F004031360BDF80600BB
:102E1000BDF8043043EA004002B070BD2C3D0020F4
:102E20002DE9F04F002787B003ACCDE9037701947B
:102E30003A4EDFF80CA13A4C059780464FF0010955
:102E40000DF10E0B14F8015B364BADF80A7043EA36
:102E5000C5250DF10A02A9B24046FFF737FF002849
:102E600049D0326842F004024FF000093260A245B6
:102E70000BF1020BE6D1019C2B48002334F8022B06
:102E800020F813200133062BF8D12849DDF80E3045
:102E9000C8F806300B602649DDF81240BDF80E2058
:102EA000BDF810000C60234CBDF8161021600243E1
:102EB000BDF81230BDF8144025D1C3F30A03A02B8E
:102EC00021D11D4B9FED1D7AD3ED037AB4EEE77A45
:102ED000F1EE10FAACBF4FF430734FF420739C4204
:102EE00011D140F21543994208BF09F1FF300AD1D0
:102EF00007B0BDE8F08F5A46A9B24046FFF7E6FE9C
:102F00000028AED1B3E7054A13684FF0FF3043F015
:102F10000803136007B0BDE8F08F00BF2C3D002010
:102F200074C900080080FFFF103D0020243D0020F0
:102F3000203D00201C3D0020903B0020000020424E
:102F400079C9000830B585B004AB03E907000F4824
:102F5000002103F06BFF0E484FF4006103F05AFCB0
:102F600000230C4A1C4642F8234001330F2BFAD1B0
:102F7000094B01251D7002F0BDFC084B084A186082
:102F8000084B15701C7005B030BD00BF002C01400F
:102F900000080140D43C0020D03C0020343D0020FB
:102FA000393D0020383D002030B56D4B89B001AC73
:102FB00084E807001A780AB909B030BD694A156873
:102FC00002F098FC0A220146284602F0FBFB00288A
:102FD000F2D0634B644800224FF480511A7003F022
:102FE00023FC0346002800F08D8094E8070005AB21
:102FF00003C341F2A1011A8005A80DF1120200934A
:10300000FFF764FE594A9FED5A7AD2ED037A009B8E
:1030100094E80700B4EEE77AF1EE10FA0DF1140C23
:10302000ACE80300A8BF4FF44B511A80B8BF4FF46F
:103030004A510DF1120205A8FFF748FE94E8070077
:10304000009B0DF1140CACE8030042F615411A8008
:1030500005A80DF11202FFF739FE2046FFF7E0FE4A
:10306000444B021E0CBF012100211546424A196043
:103070001168424A59601168414A99601168414A91
:10308000D9605188404889B21961918889B25961E3
:10309000D2883E4992B29A61D0F80428DA61D0F819
:1030A0000C281A62D0F808285A62D0F8042C9A62C8
:1030B000D0F80C2CDA62D0F8082C1A63D1F8082862
:1030C0005A6345D128484FF4805103F0ADFB0028E6
:1030D0003ED02F492F4B304801240C702246294600
:1030E0001D7004F03BF8224621462B4804F036F8C8
:1030F00029482246022104F031F82748214603F0EE
:1031000095FE59E71B49009320460B60FFF756FEDA
:1031100018491D4A4860D2F80408C861D2F80C0862
:103120000862D2F808084862D2F8040C8862D2F823
:103130000C0CC862D2F8082C14480A63154AD0F85F
:103140000848009B4C6320201370FDF7F1FF33E724
:10315000104B002220201A70FDF7EAFF09B030BDA5
:10316000393D0020343D002000080140903B002004
:1031700000002042D43C0020243D0020203D0020BF
:103180001C3D0020103D00200000014000300040A8
:10319000383D0020D03C0020002C0140024B187824
:1031A000003818BF01207047383D002000B585B0B9
:1031B00004AB03E907000948002103F037FE084883
:1031C0004FF4006103F028FB06480749074A002333
:1031D00003700B70137005B000BD00BF002C0140E0
:1031E00000080140393D0020383D0020D03C00203F
:1031F000F0B589B001AC84E8070094E8070005AE9B
:1032000003C64FF40041328005A80DF112021F469B
:10321000FFF75CFD94E8070005AB03C332804FF471
:1032200008410DF1120205A8BDF81250FFF74EFD3E
:10323000BDF8124054EA05031FD12B0743D46F0792
:1032400046D4AE0749D4ED074CD460054FD4A10550
:1032500052D4E20555D4230658D467065BD4A6069B
:103260005ED4E50661D4200764D4610767D4A20761
:103270006AD4E3076DD409B0F0BD3B48394605F088
:10328000F9FC6A056BD4AB0502D5384805F0F2FCB1
:10329000EF0502D5364805F0EDFC2E0602D535487F
:1032A00005F0E8FC680602D5334805F0E3FCA90602
:1032B00002D5324805F0DEFCEA06BED5304805F0FE
:1032C000D9FC2B07BBD52F4805F0D4FC6F07B8D528
:1032D0002D4805F0CFFCAE07B5D52C4805F0CAFC4B
:1032E000ED07B2D52A4805F0C5FC6005AFD52948E1
:1032F00005F0C0FCA105ACD5274805F0BBFCE205F4
:10330000A9D5264805F0B6FC2306A6D5244805F025
:10331000B1FC6706A3D5234805F0ACFCA606A0D5F2
:10332000214805F0A7FCE5069DD5204805F0A2FC44
:1033300020079AD51E4805F09DFC610797D51D48CA
:1033400005F098FCA20794D51B4805F093FCE30711
:1033500091D51A4809B0BDE8F04005F08BBC18487B
:1033600005F088FC8FE700BFA0C10008C0C10008BD
:10337000CCC10008D4C10008DCC10008E4C10008C9
:10338000F0C10008FCC1000808C2000814C200080F
:1033900020C200082CC2000834C200083CC2000849
:1033A00044C200084CC2000854C2000860C20008B1
:1033B0006CC2000878C2000884C2000890C20008ED
:1033C000B4C100082DE9F04188B001AC84E80700E1
:1033D0006C4F6D4A6D4D6E4900233B602B6013604E
:1033E0006C4A13606C4A13601A4621F813200133AB
:1033F000062BFAD1FDF76EFE684B9FED697AD3ED8F
:10340000037A684E6848B4EEE77AF1EE10FA4FF0AE
:1034100001034FF40061A8BF4FF003083370B8BF39
:103420004FF0020803F0F6F90A2002F04BFA2046AA
:10343000FFF7C4FC28602B681BB13B6843F0020314
:103440003B6094E8070005AD03C541F2A1012A8065
:1034500005A80DF11202FFF739FC544800F024FBD7
:1034600094E80700B8F1030F05AB03C314BF4FF492
:103470004A514FF44B512A8005A80DF11202FFF773
:1034800025FC94E8070005AB03C32A8042F61541EA
:103490000DF1120205A8FFF719FC94E8070005AB2F
:1034A00003C341F2A1012A8005A80DF11202FFF722
:1034B0000DFC012002F006FA3B484FF4805103F066
:1034C000B3F918B93B6843F010033B602046FFF79F
:1034D000A7FC28B934484FF4805103F0A5F9E0B9AE
:1034E00094E8070005AB03C341F2A1011A8005A8C7
:1034F0000DF11202FFF7EAFB012002F0E3F92A487E
:103500004FF4805103F090F928B32046FFF788FC70
:1035100008BB3B6823F008033B6023484FF480510D
:1035200003F082F90446B8B12148002103F07EFC83
:103530001D484FF4006103F06FF91E491E4A1F4BEE
:1035400000240C7014701C703470FDF7C3FD20460D
:1035500008B0BDE8F081002420203470FDF7E8FDBC
:103560001348214603F062FC0F484FF4006103F05A
:1035700053F91049104A114B0C704FF0FF30147082
:103580001C70E5E72C3D0020243D0020283D002054
:10359000103D0020203D00201C3D0020903B0020DD
:1035A00000002042303D0020000801407834002017
:1035B000002C0140393D0020383D0020D03C002047
:1035C00008B50C21002003F07DF94FF48050022251
:1035D000002102F0F5FEBDE808404FF4805002F0F3
:1035E00047BF00BF044A072928BF07210023C0E9BD
:1035F00001210370704700BF00C0030810B50446E6
:1036000002F03CFF40F2073003F0A0F8606802F0DF
:1036100069FF0123237010BD84B00DF1100C0CE97B
:1036200007000298049900EB830004B002F0FABF8F
:1036300084B00DF1100C0CE907000298049900EB1E
:10364000830004B002F0EEBF84B00DF1100C0CE961
:103650000700029810EE101A00EB830004B002F08D
:10366000E1BF00BF00B583B0019002F027FF0198D1
:103670000023037003B000BD84B00DF1100C0CE901
:10368000070051F8230004B0704700BF84B00DF16B
:10369000100C0CE9070051F8230004B0704700BF7C
:1036A00084B00DF1100C0CE9070001EB830292EDE0
:1036B000000A04B0704700BF08B590ED167AD0ED4F
:1036C000186A1C4BF7EE007A2DED048B37EEC77AA3
:1036D0009FED199AD0ED178A1968184827EE097AD4
:1036E00077EEE88A37EEE68AFCEEC77A17EE902A84
:1036F000C9B903F0D5FC1148012168EE898AFCEEB6
:10370000E87A17EE902A03F0CBFC68EE097ABDEC5C
:10371000048BFCEEE77ABDE80840084817EE902AD3
:10372000022103F0BDBC012103F0BAFC03480021D3
:10373000E3E700BF903700200000FA44002C01406E
:1037400038B5484B1C680546002C7ED121464648BA
:1037500002F08EFB0346AB604448214602F088FB32
:1037600003464148EB60022102F074FB404802210D
:1037700002F070FB40F6010401E0013C50D03A48F1
:10378000042102F089FB0028F7D040F6010401E093
:10379000013C45D03648042102F07EFB0028F7D0DA
:1037A0003148042102F07EFB3148042102F07AFB0B
:1037B00000212F4802F05CFBAA68D5F89810EB684E
:1037C000D5ED1C6ADFED2B5A2861521A07EE102A3C
:1037D000D5F89C2007EE900A9B1AB8EEE76A07EE30
:1037E000903AB8EEC77AF8EEE77A27EE267A67EED7
:1037F000A67AD5F8F83285ED067AF1EE476A26EE1C
:10380000256A76EEE76A0122013385F8F52285ED17
:10381000086AC5ED077AC5ED056AC5F8F83238BD06
:103820001148042102F03EFB1148042102F03AFB4A
:10383000D5F8FC320022013385F8F522C5F8FC32B8
:103840008020BDE83840FDF773BC0021074802F036
:103850000FFB0346AB600448002102F009FB03465E
:103860007FE700BF9037002000240140002801407E
:10387000003C01401833533C00B52DED028B87B05E
:10388000CDE90210CDED050A8DED041A0192F0EE9E
:10389000408A01F0E1F9B0EE408AB0EE680A01F02A
:1038A000B5F9F6EE007A67EEC06ADFED175A9FEDC4
:1038B000176A9DED041ADDED050A03980299019A35
:1038C00067EEC87AB0EE667AA8EE257AE8EE656A09
:1038D000F0EE675AE0EE065AE0EE467A21EE477ABD
:1038E00021EE400A21EE661AA8EE200AA5EEA07A83
:1038F000A7EEA01A80ED000A81ED007A82ED001A91
:1039000007B0BDEC028B00BDD7B35DBFD7B35D3F41
:1039100000B52DED028B87B0CDE90110CDED050A84
:103920008DED041ACDED031AF0EE408A01F094F902
:10393000B0EE408AB0EE680A01F068F9B6EE007A9F
:1039400067EE486A27EE407ADFED185A9FED186A55
:103950009DED041ADDED050ADDED031A02980199CB
:10396000F0EE667AB0EE475AA8EE065AE0EE257AF7
:10397000A8EE467A67EE817A21EE451AE0EE656A96
:10398000E8EE207AA0EE601AE6EEA17AA7EE611AC0
:103990009FED086A67EE867A21EE061AC0ED007A7E
:1039A00081ED001A07B0BDEC028B00BDD7B35D3FBF
:1039B000D7B35DBFABAA2A3F00B52DED0A8BB0EEA1
:1039C000609A85B0F0EE418AF0EE40AAB0EE611A3E
:1039D000F0EE680AB0EE490AB0EE618A0192CDE9D4
:1039E000021001F0B5F8B0EE481AF0EE680AB0EE39
:1039F00040AAB0EE490A01F093F83AEE00AAF6EEBA
:103A0000009AAAEE699ADFED24BA9FED24CA9FEDD1
:103A100024BA29EE299AF0EE4C0A29EE2B9A89EE67
:103A20002A0A9FED209A30EE0B0A01F069F8F0EEB9
:103A3000490A01F06DF8EAEE698A039880ED000A00
:103A400068EEA98AF0EE4C0A68EEAB8A88EEAA0A04
:103A500030EE0B0A01F054F8F0EE490A01F058F884
:103A6000AAEE698A029981ED000A28EE298AF0EE11
:103A70004C0A28EE2B8A88EE2A0A30EE0B0A01F057
:103A80003FF8F0EE490A01F043F8019A82ED000A8E
:103A900005B0BDEC0A8B00BD3333933F000000003E
:103AA000D7A3F03ED7A3703FF8B500238365C36565
:103AB00003660446FFF700FE00264FF47A7537468A
:103AC0002046FFF73DFED4E90223013D17441E4482
:103AD000F6D1074B83FB0721FA17C2EBA11283FB38
:103AE0000631F317C3EBA113C4E92623F8BD00BFC9
:103AF000D34D62102DE9F843344A354BDFED356A7A
:103B0000DFED355A2DED028BC267C0F8802093EDB2
:103B1000027A324AC0F8842066EEC76AF7EE007A6D
:103B2000B0EE676AA6EEA56A2D4ADFED2E6A12682E
:103B3000C0F8C82027EE267AC7EE866A80ED1D7A87
:103B400077EEE67A80ED1E7AC0ED227A9FED267A36
:103B5000D3ED037AF4EEC77AF1EE10FA33D8234BA3
:103B6000DFF89C90DFED228A9FED228A224F0367C7
:103B70004FF0804800F1F4050024002607EE904A3B
:103B8000F8EEE77A013467EEA87AC7EE887A17EE86
:103B9000900AFCF789FC41EC100B07F01DFD424632
:103BA00051EC100B4B46FCF7D7FC32463B46FCF77A
:103BB0001DFBFCF7C9FF802C45F8040BDED1BDECE2
:103BC000028BBDE8F8830D4BCAE700BFEC51383DCE
:103BD000903B0020D1CB0B38DB0FC940BD74933B29
:103BE0009037002017B7D13800002042FFFFA43CD7
:103BF000000000BC6F12033D0000F03FFFFF243DBA
:103C00003333F33F10B54FF47A7204460021114864
:103C100003F046FA0F484FF47A72012103F040FA9C
:103C20004FF47A720B48022103F03AFA0023002283
:103C3000C4F8A430C4F8A830E36323646364C4F810
:103C40009030C4F88C3063652365C4F8E830C4F85C
:103C5000EC2010BD002C014090ED397AD0ED387A7F
:103C600090ED3A0ADFED1E0A77EEC77A90ED217AE1
:103C700010B5A7EE270A82B0044680ED3A0A00F09C
:103C800047FF184BD3ED060AF1EE600A00F038FF4B
:103C900094ED3C7A84ED3A0A60EE407A84ED290A8C
:103CA000E7EE077AF5EE407AF1EE10FA11D4F1EE74
:103CB000E70A94ED2A0ACDED010A00F029FFDDEDB7
:103CC000010AF1EE600A00F01BFF84ED2A0A02B03F
:103CD00010BDB0EE670A07F0CFFCF0EE400AE8E74F
:103CE00000000000903B002030B52DED028B91EDDF
:103CF000170A4B6E904D91ED186AD0ED071A90EDB2
:103D0000061AD0ED050AD1ED036A83B0436380ED56
:103D10000B0A95ED117AC6EE077A044600F14001D0
:103D20003C30C4ED0C7A95ED117AC6EE877AC4ED7D
:103D30000A7AFFF7EDFD9FED815A94ED087ADFEDE9
:103D4000805AD4ED097A94ED106AD4ED0F6A94ED9F
:103D5000114AD4ED124A27EE057A26EE056AA7EE3F
:103D6000A57A04F1A80104F1A400DFED767A84EDD0
:103D7000097A67EE277A66EE856A9FED735AE4EE5C
:103D8000A56AA4EE256A67EE857ADFED705A84EDA8
:103D9000116A67EEA57AC4ED126AC4ED387A95ED22
:103DA000030A84ED3C0A00F0EBFED4ED0F6AD4ED7B
:103DB000298A94ED1D7A94ED230ADFED657A94ED5E
:103DC0002A8AD4ED380A78EEE68AA7EE280A94ED1E
:103DD000107A30EE270A38EE478A84ED140A00F094
:103DE00097FED4ED380AF1EE600A00F089FED4EDBA
:103DF0001F6A94ED1D7AD4ED237AD4ED380A84ED50
:103E0000140A27EE267AE7EE287AB0EE670AC4EDA8
:103E1000237A00F07DFED4ED380AF1EE600A00F05E
:103E20006FFED4ED147AD4ED380A84ED230A67EEE0
:103E3000E77AE0EEA07AF5EE407AF1EE10FA6FD470
:103E4000F1EEE78A94ED240AD4ED1E7AD4ED206ACF
:103E5000B0EE407AA7EE887A67EEA67ADFED3C6A8C
:103E6000A7EE880A77EE267A84ED240AC4ED157A47
:103E700000F04EFED4ED380AF1EE600A00F040FE8C
:103E8000F0EE406A94ED150A94ED147AC4ED246ABC
:103E900060EE007AF0EE680AE7EE077AB1EEE77AB4
:103EA00084ED397A00F034FEF1EE680A00F028FE65
:103EB000F0EE407A04F1540194ED380AC4ED157A1D
:103EC00004F1500000F05CFEDFED227A94ED0D7AF3
:103ED00094ED0B0A94ED151AD4ED140AA7EE270AF7
:103EE00004F16C0204F1680104F16400FFF7C4FC02
:103EF00004F15800D4ED1B1A94ED1A1AD4ED190AE6
:103F000094ED380A04F1600204F15C01FFF754FDFE
:103F1000204603B0BDEC028BBDE83040FFF7CCBBC0
:103F2000B0EE670ACDED010A07F0A6FBDDED010A50
:103F3000F0EE408A86E700BF903B0020CDCCCC3D20
:103F40006666663F3333933FD7A3703F3ACD133F46
:103F500000000000BAB1513890ED0A7AD0ED337A02
:103F6000D0ED356A90ED370A144BD0ED3C0A77EE70
:103F7000C77A90ED347AA6EEA70A10B5D0ED0C7A88
:103F8000D0ED366A37EE677AD3ED0E7AA6EE870A61
:103F9000044693ED117A67EE877A80EE270A00F0E7
:103FA000B7FDD4ED3C0AF1EE600A00F0A9FD002354
:103FB00084ED2A0AC4F8A43010BD00BF903B002055
:103FC0000023C0F8DC30C0F8D430C0F8D830C0F8D6
:103FD000CC30C0F8D030C0F8A830704708B50B48D6
:103FE00001F042FA70B1094801F072FA38B107489D
:103FF00001F0D2FB054801F013FB013808BD03486E
:1040000001F0CAFB4FF0FF3008BD00BF7837002039
:1040100010B54FF4805182B00A4802F005FC044606
:10402000FDF78EF8084A094B094992F8F52293F8F2
:10403000DD3289880092221E18BF012201F0B0FBF8
:1040400002B010BD00080140783400205831002033
:104050004C31002010B503780446052B0CD8DFE85E
:1040600003F009030C0B09090C4B186859681A89ED
:10407000FFF79CF80123E37010BD084B0122C270CA
:10408000186859681A89FFF791F80548FFF7BAFDD3
:10409000BDE810400248FFF793BF00BF4C3100203D
:1040A0007834002008B50D4804F04CFE0C4804F0AC
:1040B00049FE0C4804F046FE0B4804F043FE0B4852
:1040C00004F040FE0A4804F03DFE0A4804F03AFEBF
:1040D000BDE80840084804F035BE00BFD0BF000866
:1040E0009CC20008A8C20008BCC20008D8C20008D0
:1040F000E8C2000800C300081CC3000830B56C48C3
:104100006C4C6D4D85B004F0B5FD6C486C4B6D4A40
:104110006D49CDE900046D4C6D4804F0ABFD6D4870
:1041200004F010FE606CFCF7BFF96B4A6B4B009516
:10413000CDE902016A496B4804F09CFDA06BFCF7D5
:10414000B3F9694A654B0095CDE9020167496848B2
:1041500004F090FD674804F0F5FDA068FCF7A4F9B1
:10416000654B664A0093CDE90201654B6549664897
:1041700004F080FDE068FCF797F9644B644A009313
:10418000CDE90201634B64495F4804F073FD206D83
:10419000FCF78AF92B46CDE90201604A0095604997
:1041A000594804F067FDA06DFCF77EF92B46CDE978
:1041B00002015C4A00955C4953485C4D04F05AFD8D
:1041C000E06DFCF771F95A4B5A4A0093CDE90201B0
:1041D000504B59494C4804F04DFD206EFCF764F9F2
:1041E000564B574A0093CDE902014A4B5549464880
:1041F00004F040FDA069FCF757F9534B534A009374
:10420000CDE90201434B52493F4804F033FD206A97
:10421000FCF74AF94F4B504A0093CDE902012F4B6E
:104220004E49394804F026FD606AFCF73DF94C4BD5
:104230004C4A0093CDE90201364B4B49324804F019
:1042400019FDA06C494CFCF72FF9CDE90201484952
:10425000304B484A00912C48474904F00BFD474831
:1042600004F070FD6368464A46494748CDE900536B
:104270001A4B04F0FFFCA3680193444A174B4449CE
:104280000095414804F0F6FCE068424B424A43493D
:10429000CDE90030114B424804F0ECFC414804F0F9
:1042A000E9FC414805B0BDE8304004F0E3BC00BF84
:1042B00034C3000888C30008DCC3000898C30008A2
:1042C00050C3000854C3000860C30008903B00209E
:1042D00068C300089CC30008ACC30008A8C300085A
:1042E000B8C30008BCC30008E0C30008F8C3000856
:1042F000FCC300081CC400086CC4000830C40008DB
:104300002CC4000848C400084CC4000890C400082D
:1043100078C4000874C400088CC4000898C400085D
:10432000B4C40008B8C40008D8C40008F4C5000824
:10433000FCC40008DCC40008F8C4000828C5000854
:1043400004C5000824C5000848C500082CC500089D
:1043500044C5000870C5000850C500086CC50008B9
:1043600090C5000874C500088CC50008903700206F
:10437000B4C5000898C50008B0C50008BCC5000851
:10438000C8C50008D0C50008D4C50008F8C5000895
:1043900004C6000848C6000808C6000828C6000869
:1043A0002CC6000850C600089CC6000800B503785B
:1043B00083B0042B2BD8DFE803F02C20082A03005D
:1043C00003B05DF804EBFFF799BE0190FFF720FE04
:1043D00003461E48002B36D1C0F8B8300193FFF7D2
:1043E00011FC1B49019A088960F30F0208684968AB
:1043F00003B05DF804EBFEF7A5BD0190FFF708FEE2
:10440000014658B1019A002101235170D37003B0C5
:1044100000BD03B05DF804EBFFF744BE0D480E4B42
:10442000C0F8D8104FF40072DC30A3F821101974D2
:10443000019104F0A8FC064B019A1889596860F3B1
:104440000F021868D4E7FFF7BBFDDBE778340020E4
:104450004C31002058310020100200202DE9F0419D
:10446000037842789A42044629D1022B1CD0052BAE
:1044700012D0012B21D1544A92F82130002B4BD07D
:1044800092F82230002B62D150495148D1F8B43013
:10449000BDE8F041FEF7D2B94C4B4D48D3F8B4100B
:1044A000BDE8F04100F01EBF4A4B186859681A89F0
:1044B000FEF77AFDFEF772FE40B9BDE8F081FFF726
:1044C000C9FDE378002B3CD12378CEE7424BDA6874
:1044D000002A04DD3D48D0F8B8108A4224DBFFF7FB
:1044E00097FD18BB3948FFF737FD3848FFF7B4FB95
:1044F00037493648FFF7F8FB6378022BDDD1364B9E
:10450000DB68002BD9DD3149D1F8B8209342D4DBE8
:104510000132C1F8B820D0E72C492D48D1F8B43089
:10452000BDE8F041FEF7B4B8FFF74AFD294B1A8900
:1045300018685968FEF73AFE002201236270E370A2
:10454000BBE7637823702046FFF730FFBCE7D369F1
:104550001F4E214F96ED1A7A9FED200A7B615A4239
:1045600007EE902AF8EEE77AF7EE000A67EE877A10
:104570001D4627EE800A07F003F8DFED197A60EE9A
:10458000277A17EE900AFBF78FFF0B460246294663
:10459000144804F06FFB14494FF4007206F1DC007C
:1045A00004F03EFC10494FF4007207F1180004F0CB
:1045B00037FCFFF713FD18B900236370E3707CE745
:1045C0000A4804F0BFFBF7E710020020783400200F
:1045D000583100204C3100209037002000008037F7
:1045E000DB0FC940C8C600083C2C0020DCC6000810
:1045F00038B5417BA1F161030446172B19D8DFE8D8
:1046000013F028004700660085001800A000BF00D6
:10461000DA00F900180004011F013E01180018001B
:1046200049011800180018006801180073011800EB
:104630009201CF4804F01EFB251DFFF7CFFC002898
:1046400040F08C81FFF75AFD0023A38163606B600B
:1046500038BD051D284602F044FF51EC100BFCF755
:1046600073FAF3EE040A00EE100A07F053FBDFEDD5
:10467000C10A07F027FBC04B10EE100A83ED120AA7
:10468000FBF712FF02460B46BC4804F0F3FAD4E7EE
:10469000051D284602F025FF51EC100BFCF754FADB
:1046A000DFEDB70A00EE100A07F034FBDFEDB50AC4
:1046B00007F008FBB04B10EE100A83ED020AFBF77F
:1046C000F3FE02460B46B04804F0D4FAB5E7051DE8
:1046D000284602F006FF51EC100BFCF735FADFED2F
:1046E000AB0A00EE100A07F015FBDFEDA20A07F097
:1046F000E9FAA14B10EE100A83ED090AFBF7D4FE8C
:1047000002460B46A24804F0B5FA96E7051D284676
:1047100002F0E7FE51EC100BFCF716FADFED950AFC
:1047200000EE100A07F0CEFA934B10EE100A83ED5C
:10473000180AFBF7B9FE02460B46964804F09AFAAF
:104740007BE7051D284602F0CCFE51EC100BFCF770
:10475000FBF9DFED910A00EE100A07F0DBFADFED5E
:10476000850A07F0AFFA844B10EE100A83ED060AB3
:10477000FBF79AFE02460B46884804F07BFA5CE79A
:10478000051D284602F0ADFE51EC100BFCF7DCF9DC
:10479000DFED830A00EE100A07F094FA764B10EE74
:1047A000100A83ED110AFBF77FFE02460B467D4897
:1047B00004F060FA41E7051D284602F092FE51EC34
:1047C000100BFCF7C1F9DFED780A00EE100A07F0D4
:1047D000A1FADFED680A07F075FA674B10EE100AD0
:1047E00083ED080AFBF760FE02460B466F4804F0B3
:1047F00041FA22E7051D284602F076FE6C4B014681
:1048000059606C4804F036FA17E7051D284602F097
:1048100068FE51EC100BFCF797F9DFED670A00EE2C
:10482000100A07F04FFA544B10EE100A83ED0E0AEF
:10483000FBF73AFE02460B46604804F01BFAFCE622
:10484000051D284602F04DFE51EC100BFCF77CF9DB
:10485000DFED5B0A00EE100A07F05CFADFED450AB7
:1048600007F030FA444B10EE100A83ED030AFBF711
:104870001BFE02460B46534804F0FCF9DDE6051D1D
:10488000284602F031FE4A4B014699604E4804F03A
:10489000F1F9D2E6051D284602F023FE51EC100B7B
:1048A000FCF752F9DFED330A00EE100A07F00AFABE
:1048B000314BF1EE407A83ED140AC3ED137A10EE1A
:1048C000100AFBF7F1FD02460B46404804F0D2F90E
:1048D000B3E6051D284602F007FE354B0146D960B8
:1048E0003B4804F0C7F9A8E6051D284602F0F9FD8B
:1048F00051EC100BFCF728F9DFED1E0A00EE100A50
:1049000007F0E0F91C4BF1EE407A83ED160AC3ED97
:10491000157A10EE100AFBF7C7FD02460B462D482C
:1049200004F0A8F989E6051D284602F0DAFD51ECED
:10493000100BFCF709F9DFED0F0A00EE100A07F083
:10494000C1F90D4B10EE100A83ED170AFBF7ACFD11
:1049500002460B46204804F08DF96EE61F4804F02D
:10496000F1F9FFF7CBFB0023A38163606B6038BDD7
:104970004CC8000800000000903B0020C8C7000899
:104980000000FA440000C84214C70008000020429A
:10499000B0C7000810C800080000044268C700083B
:1049A0006F12833ADCC700080000164398C700085E
:1049B0009037002028C7000817B7D138ECC7000887
:1049C0000000704254C700083CC7000824C8000813
:1049D00080C7000838C80008FCC70008DCC600080B
:1049E0001B2908B5034645D06D29027846D052B13F
:1049F000042A07D10D294BD0027B002A45D14173EF
:104A000001321A7308BD63391729FBD801A252F885
:104A100021F000BF994A0008054A0008A34A00088F
:104A2000054A0008054A0008054A0008054A00082A
:104A3000054A0008054A0008054A0008054A00081A
:104A4000054A0008054A0008054A0008054A00080A
:104A5000054A0008AD4A0008054A0008054A000852
:104A6000054A0008054A0008054A0008054A0008EA
:104A7000B74A000800224270C27008BD02218A4273
:104A80004170BFD00022C27008BD1044C170B7E7AA
:104A9000BDE80840FFF7ACBD012100224170C270A3
:104AA00008BD052100224170C27008BD042100220A
:104AB0004170C27008BD0D489FED0D0A0023C0F87B
:104AC000D43000F0B3FA09480A4B826F1A61FFF73D
:104AD00085FA084B28B919690748BDE8084004F071
:104AE000C9B8064804F02EF9024BF4E7583100200B
:104AF000D1CB0B3890370020A4C8000874C8000838
:104B0000B4EEE00AF1EE10FAD8BFB0EE600A7047DA
:104B1000F4EEC00AF1EE10FAD8BFB0EE600A7047AA
:104B2000B4EEE00AF1EE10FA07DDB4EEC10AF1EEE0
:104B300010FAD8BFB0EE410A7047F4EEC10AF1EEA8
:104B400010FAD4BFB0EE410AB0EE600A704700BF61
:104B5000B4EEE00AF1EE10FA07D5B4EEC01AF1EEA9
:104B600010FAD8BFB0EE410A7047B4EEE01AF1EE89
:104B700010FAD4BFB0EE410AB0EE600A704700BF31
:104B8000D1ED007A90ED007A67EEA77AE7EE077A2A
:104B9000F1EEE76AF4EEC06AF1EE10FA0DDD27EEF1
:104BA000007AC7EE267AC0ED007AD1ED007A20EEC9
:104BB000270AC0EE267AC1ED007A704701238340B0
:104BC000013B07EE903A30EE600AF8EEE77A31EEFC
:104BD000601A67EE807A87EE817AFDEEC77A17EE6B
:104BE000900A704707EE900A012370EEC00AF8EEB3
:104BF000E77A8B40013B27EEA07A07EE903AF8EE79
:104C0000E77AC7EE276A36EE800A704700B5DFED17
:104C10000F0A83B0CDED010A06F0B2FCB5EEC00A72
:104C2000F1EE10FA03D5DDED010A30EE200ADFEDDA
:104C3000087A084B20EE270ABDEEC00A10EE102AB3
:104C400003EB820393ED000A03B000BDDB0FC94004
:104C500083F9A2427CC9000800B5DFED117ADFEDCF
:104C6000110A83B037EEC00ACDED010A06F088FCC8
:104C7000B5EEC00AF1EE10FA03D5DDED010A30EE13
:104C8000200ADFED097A094B20EE270ABDEEC00AA3
:104C900010EE102A03EB820393ED000A03B000BD6F
:104CA000DB0FC93FDB0FC94083F9A2427CC9000872
:104CB00070B5054684B035480E464FF4004101F00A
:104CC000ABFD00230393039B3F2B06D800BF039B40
:104CD00001330393039B3F2BF8D940F6010401E015
:104CE000013C3ED02A48022101F09AFF0028F7D06B
:104CF0002748294601F08EFF40F6010401E0013CFF
:104D00003ED02348012101F08BFF0028F7D0204836
:104D100001F082FF40F60104308001E0013C32D016
:104D20001B48802101F07CFF0128F7D0002302936B
:104D3000029B3F2B4FF000041AD914484FF4004156
:104D400001F068FD00230193019B3F2B06D800BFB3
:104D5000019B01330193019B3F2BF8D9204604B0FE
:104D600070BD4FF0FF3400230293029B3F2BE4D829
:104D700000BF029B01330293029B3F2BF8D9DCE773
:104D80006FF00104EFE76FF00204ECE70008014068
:104D9000003C0040F0B5064683B008461746FDF7D4
:104DA0001FF8044643F6FF70FDF71AF801A90546FF
:104DB0002046FFF77DFF48BB0DF106012846FFF7AF
:104DC00077FF18BBBDF806402046FDF725F8431CC9
:104DD000A6F8E0420BD0023012D0C4F30D043C80A0
:104DE00001A92846FFF764FF80B903B0F0BDD6F8EB
:104DF00000330133C6F800336FF0010003B0F0BD9B
:104E0000D6F804330133C6F80433F5E7D6F8FC329C
:104E100001334FF48070C6F8FC32FCF789F94FF08B
:104E2000FF30E2E770B5002182B006460120FCF7B2
:104E3000E7FF044643F6FF70FCF7D2FF0DF10601D1
:104E400005462046FFF734FF38B90DF10601284624
:104E5000FFF72EFF08B902B070BDD6F8FC3201335F
:104E60004FF48070C6F8FC32FCF762F94FF0FF3067
:104E7000F1E700BF10B582B00DF1020243F6FC71FC
:104E80000446FFF787FFF0B901AA43F6FD712046FB
:104E9000FFF780FFB8B90DF1060201212046FFF7A8
:104EA00079FF80B9BDF80630BDF80210BDF80420C6
:104EB000A4F8EA32A4F8E612A4F8E822012384F860
:104EC000DE3202B010BD00234FF0FF30F7E700BF25
:104ED0002DE9F04F044687B043F6FF700E46FCF70D
:104EE0007FFF4FF0000807462046FFF79BFF46452F
:104EF000A4F8DD82A4F8EC8240F383800123CDF88E
:104F0000088003939A46C1460DF116013846FFF713
:104F1000CFFE90BB012E44D04FF0010B00250DF1C8
:104F200016013846FFF7C4FE48BBBDF81680019055
:104F30004046FCF771FF431C019AA4F8E082C8F3D5
:104F40000D0C05F101053AD0023054D00BF1010BE4
:104F50005E45A4F8E2C284F8DDA2A4F8EC22DED11A
:104F60001F2D1ED92046FFF785FFB0FA80F04009BB
:104F700084F8DE0207B0BDE8F08F4FF0000BD4F8E4
:104F8000FC12B4F8EC2284F8DD920BF1010B013134
:104F9000013201235E45C4F8FC12A4F8EC2202930E
:104FA000BCD1039D032D1AD0142000F08BFC6B1C88
:104FB00003930023A4F8DD32A4F8EC32A4E7D4F87C
:104FC00000230132C4F800230BF1010B5E454FF0C2
:104FD000000584F8DD92A2D1039D032DE4D1029A4D
:104FE000002384F8DD329A4214BF4FF480704020D1
:104FF000FCF79EF8B6E7D4F804230132C4F8042382
:10500000E2E70125032D4FF014000CD0013500F02C
:1050100059FC4FF00003032DA4F8DD32A4F8EC8214
:105020004FF01400F2D100230293D8E770B52DEDB4
:10503000028B044684B043F6FF70B0EE408AFCF762
:10504000CFFED4F8F03201330DF10E01C4F8F03286
:10505000FFF72EFE002840F0C380BDF80E3001930C
:1050600005461846FCF7D8FE019BA4F8E032421C26
:1050700000F00881023000F0DD80D4F8F422C3F3A0
:105080000D06002A40F0ED80002366F30F03D4EDF7
:10509000016A012166F31F43B5000A44C4F8E232F5
:1050A000002384F8DD12C4F8F422A4F8EC32C4ED35
:1050B000026A4C2204F10C01656704F11000CDED89
:1050C000016A03F047FE6B125A1C02F07F0204EBE8
:1050D000830304EB8202D3F8DC30D2F8DC209FEDAE
:1050E0007B6ADDED016AC5F30801D21A01FB02F209
:1050F00003EB62232B447649A3670A699A1A07EEE9
:10510000102ABAEEC87AFDEEC77AF8EEE77A37EEE3
:10511000677A27EE067AB5EEC07AF1EE10FA01D57D
:1051200037EE067A4A6994ED1A6ADFED6A5A9FED06
:10513000675A84ED017A9B1A07EE903AF8EEE77A07
:1051400067EE867A67EEA57AFDEEE75AF8EEE55A45
:1051500077EEE57A67EE857AF5EEC07AF1EE10FA31
:1051600001D577EE857A77EE666ADFED5B5AC4ED9E
:10517000177AF4EEE56AF1EE10FA48DCDFED577AC3
:10518000D4F8801094F8DC22F4EEE76AF1EE10FA1D
:105190004CBF012300230B44C4F88030002A41D0C7
:1051A00007EE903ADFED496AF8EEE77A67EEA67A05
:1051B00037EE277AD4ED166A84ED037AF3EE037A9C
:1051C00077EE666A68EE277A86EEA77A26EE076A99
:1051D00084ED187A84ED196A04B0BDEC028B70BDC1
:1051E000D4E9BE21B4F8EC3201310132C4E9BE2168
:1051F0000020013384F8DD02A4F8EC324FF4807013
:1052000004B0BDEC028BBDE87040FBF791BFD4F851
:10521000801094F8DC224FF0FF330B44C4F8803048
:10522000002ABDD10123DFED2E7AC4F8802084F856
:10523000DC32BDE7D4F804330133C4F80433B4F8E6
:10524000EC32D4F8F82201339BB201320021022B58
:10525000C4F8F822A4F8EC3284F8DD12BCD940205E
:10526000CEE7B4F8E4123046FCF7E4FD00F5007038
:10527000B0F5806F0CD8B4F8E432B3421DD0D4F846
:10528000F42201E7D4F800330133C4F80033D6E741
:10529000B4F8EC32D4F80813D4F8F82284F8DD52CC
:1052A00001339BB201310132022BC4F80813C4F858
:1052B000F822A4F8EC328FD9D1E7D4F80C33D4F823
:1052C000F4220133C4F80C33DEE600BFDB0FC94023
:1052D0009037002000008037DB0F4940DB0F49C0CA
:1052E0000000000070B5224D2B6803F51C531033ED
:1052F0008B4200D970BD04460E46416F1D4803F035
:10530000B9FCA16F1C4803F0B5FC6068FBF7CCF852
:1053100002460B46194803F0ADFCE068FBF7C4F801
:1053200002460B46164803F0A5FCE06DFBF7BCF8FF
:1053300002460B46134803F09DFCD4F88010124837
:1053400003F098FC94F8DD12104803F093FCD4F8B5
:10535000FC120F4803F08EFCD4F800130D4803F044
:1053600089FC0D48D4F8041303F084FC2E6070BD52
:105370003C3D0020CCC80008D8C80008F0C8000890
:1053800008C900081CC9000830C9000840C9000845
:105390004CC9000858C9000868C9000830B585B074
:1053A00001AB83E807000E4D002401AB93E8070032
:1053B0002346FEF761F90134B4F5807F45F8040F08
:1053C000F3D1084D01AB93E807002346FEF768F9D7
:1053D0000134B4F5A07FA5EC010AF3D105B030BDCE
:1053E0008C370020903B002070B586B003AB83E87B
:1053F000070003AA07CA4FF4A073FEF747F903AAF0
:10540000064640F2411307CAFEF740F903AA0546D3
:105410004FF4A17307CAFEF739F90DF10C0C0446DD
:1054200040F243139CE80700FEF730F9054A019269
:10543000054A00920346224629463046FCF772FC94
:1054400006B070BD903B00209037002000B583B0BF
:105450000190FEF7C7F8019841680022FF23C0E9D8
:105460000312838203B000BD30B517498BB00446E8
:105470001648FCF725FA0546E8B1237D012B1ED915
:1054800000210B46E268637502EB010E94E8070009
:1054900004AB83E807000DF1040CCDF814E08CE8B0
:1054A000070093E8070007AB83E8070084E80700DC
:1054B0002046FEF7A3F82846A5750BB030BD013392
:1054C00003F00103D902DDE7903B00209037002074
:1054D000F0B5837D83B005462BB900240023204618
:1054E000AB7503B0F0BD48494848FCF7E9F900281E
:1054F000F3D045494548464EFCF7A0F9002407463D
:1055000056F8043F95E80700009323460134FEF760
:1055100083F8B4F5807FF3D13B4EB6EC010A234605
:1055200095E807000134FEF78FF8B4F5A07FF4D1B9
:105530000223009395E8070040F24113FEF778F844
:10554000009495E807004FF4A173FEF771F80097F7
:1055500095E8070040F24313FEF76AF82A69013222
:10556000009295E807004FF4A273FEF761F8294B0B
:10557000009395E807002346FEF75AF8234926488A
:105580004FF4806203F04CFC1F4924484FF48072B2
:1055900003F046FC95E80700FFF700FF95E80700D9
:1055A000FFF722FF044660B91B4918484FF4806298
:1055B00003F036FC194914484FF4807203F030FCB4
:1055C0008BE795E807004FF4A273FEF75FF82B69AD
:1055D000114907464FF480620C485E1C03F020FC22
:1055E0000E4909484FF4807203F01AFCB7427FF469
:1055F00074AF2B696A7D2A7501332B612046002325
:10560000AB7503B0F0BD00BF903B00209037002089
:105610008C3700204154484E403E0020403D002041
:105620002DE9F04F93B006460DF10C0800274FF01E
:10563000FF0A0CAD09AC0DF1100996E807000DF159
:105640003C0C8CE80700F36803EBC723109385E854
:1056500007009CE8070084E80700FFF79FFE94E836
:105660000700FFF7C1FE4FF4A27388F800008346DD
:1056700094E80700FEF70AF849F827000346002FD0
:1056800041D0BBF1000F02D0BAF1FF0F54D1059BFE
:105690009DF80D2004999DF80C00FCF76BFB002889
:1056A00059DB5FFA80F8B8F1FF0F54D0B8F1000F62
:1056B00056D1354935484FF4806203F0B1FB344987
:1056C00034484FF4807203F0ABFBF26886F8148024
:1056D00002EBC82796E8070085E807000D9784E8E5
:1056E000070095E807000FAC84E807000DEB88037E
:1056F00094E807001B693361012386E80700184618
:1057000013B0BDE8F08FBBF1000F10D01F491E4849
:1057100001934FF4806203F083FB1E491C484FF451
:10572000807203F07DFBBAF1FF0F04D1BA4608F195
:105730000108012781E7019B18460DEB8A031969CF
:10574000FCF712FB08B15FFA87FA002F9FD108F12E
:105750000108012771E70023184613B0BDE8F08F58
:10576000F26802EBC82396E807000DF13C0C8CE8C8
:105770000700109385E807009CE8070006AF87E85C
:105780000700FFF70BFEA0E7403E00209037002007
:10579000403D0020903B002000238375FDF762BF51
:1057A0009DF800C030B949B932B14BB1844508BF4A
:1057B0000520704701207047032070470220704782
:1057C00004207047081A904234BF0020012070471F
:1057D0000120704708B503F0F1FA162303604FF07B
:1057E000FF3008BD08B503F0E9FA16230360FEE7B1
:1057F00070B5161E07DD0C468D19AFF3008004F856
:10580000010BA542F9D1304670BD00BF70B5161E20
:1058100007DD0C468D1914F8010BFCF719FFA542A2
:10582000F9D1304670BD00BF4FF0FF30704700BF68
:105830004FF400534B600020704700BF01207047B9
:10584000002070470C4A08B5136833B11844694604
:10585000884208D81060184608BD084B13601844E9
:1058600069468842F6D903F0A9FA0C2303604FF089
:10587000FF33184608BD00BF40420020A04300206F
:105880000D4B0E4A1B68A2FB03239B09013BB3F19E
:10589000807F00D3FEE74FF0E02209495361F020FA
:1058A00081F823004FF0000C07201023C2F818C025
:1058B000106181F82330704700000020D34D621042
:1058C00000ED00E0024A10601368002BFCD1704725
:1058D000484200200549064A0B6801330B601368F3
:1058E00013B11368013B1360704700BF44420020AE
:1058F00048420020014B1868704700BF4442002016
:10590000704700BF08B50220FBF712FCFEE700BF9E
:1059100008B50420FBF70CFCFEE700BF08B5082023
:10592000FBF706FCFEE700BF08B51020FBF700FC04
:10593000FEE700BF704700BF704700BF704700BF61
:10594000FFF7C8BF70B5414C414884B022460021E2
:1059500000F052FC206840F20173984205D1A36820
:1059600023F07F43B3F5002F60D03A4D627A217A5D
:105970006B680093B2FA82F2B1FA81F1A37A52090C
:105980004909FCF707FA08B904B070BD324A334E32
:10599000334B92ED0E7A96ED111AD2ED117AD3EDCA
:1059A000180A93ED030A29792E4821EE071AC0EE52
:1059B000A70A80EE270A21EE271AFBF731FE2949B4
:1059C000234800F0C5FB284803A9FCF7F5F9054674
:1059D000D0B19DF80C30FD2B23D0FE2B0FD0FC2B2B
:1059E000D2D100233046C6F8B830FEF7E9FA2020BD
:1059F000FBF7ACFB1D486D21FEF7F2FFC4E71B4827
:105A00007A21FEF7EDFFBFE7236906F1CC02CDE96D
:105A1000003294E80F00FBF745FEC6F8B85004B01A
:105A200070BD12481B21FEF7DBFFADE703A904F1AF
:105A30000B00FCF713FA18B99DF80C30032B01D9B1
:105A4000206892E72046FCF74DFA9DE7E801002028
:105A50000064004090370020903B00207834002004
:105A600058310020FC010020F301002068340020A0
:105A7000012110B5174801F0B9F917490B88013316
:105A800043F697229BB2934212D80B80134C2046C8
:105A9000FDF756FE9FED120A1248FFF7C7FA1248AB
:105AA000FEF7DCFCD4F8B4300133C4F8B43010BDD8
:105AB0000E4B1A7800200880B2FA82F200F1804082
:105AC000520900F588304FF400511A7000F0A6FE1C
:105AD000DCE700BF002C01404E420020783400205B
