:020000040800F2
:10000000000001205D7D000885610008896100080D
:1000100095610008A1610008AD61000800000000C2
:10002000000000000000000000000000B9610008AE
:10003000BD61000800000000C1610008C561000842
:10004000AD7D0008AD7D0008AD7D0008AD7D0008E8
:10005000AD7D0008AD7D0008AD7D0008AD7D0008D8
:10006000AD7D0008AD7D0008AD7D0008AD7D0008C8
:10007000AD7D0008AD7D0008AD7D0008AD7D0008B8
:10008000AD7D0008AD7D0008AD7D0008AD7D0008A8
:10009000C9610008AD7D0008AD7D0008AD7D000898
:1000A000AD7D00083D630008AD7D0008AD7D000812
:1000B000AD7D0008AD7D0008AD7D0008AD7D000878
:1000C000AD7D0008AD7D0008AD7D0008AD7D000868
:1000D000AD7D0008AD7D000815640008AD7D000809
:1000E000BD630008AD7D0008AD7D0008AD7D000852
:1000F000AD7D0008AD7D0008AD7D0008AD7D000838
:10010000AD7D0008AD7D0008AD7D0008AD7D000827
:10011000AD7D0008AD7D0008AD7D0008AD7D000817
:10012000AD7D0008AD7D0008AD7D0008AD7D000807
:1001300001F0FF01102A2BDB10F0070F08D010F898
:10014000013B013A8B422DD010F0070F42B3F6D19C
:10015000F0B441EA012141EA014122F007047FF0B5
:1001600000070023F0E80256083C85EA010586EA0C
:10017000010685FA47F5A3FA87F586FA47F6A5FA48
:1001800087F68EB9EED1F0BC01F0FF0102F0070254
:1001900032B110F8013B013A83EA010313B1F8D1FF
:1001A0000020704701387047002D06BF35460338E0
:1001B000073815F0010F07D1013015F4807F02BF19
:1001C000013015F4C03F0130F0BC0138704700BF6A
:1001D000034613F8012B002AFBD1181A0138704787
:1001E00081F0004102E000BF83F0004330B54FEAE8
:1001F00041044FEA430594EA050F08BF90EA020F55
:100200001FBF54EA000C55EA020C7FEA645C7FEAE7
:10021000655C00F0E2804FEA5454D4EB5555B8BF0A
:100220006D420CDD2C4480EA020281EA030382EA7B
:10023000000083EA010180EA020281EA0303362D0D
:1002400088BF30BD11F0004F4FEA01314FF4801CE0
:100250004CEA113102D0404261EB410113F0004FF2
:100260004FEA03334CEA133302D0524263EB4303A9
:1002700094EA050F00F0A780A4F10104D5F1200E47
:100280000DDB02FA0EFC22FA05F2801841F10001A2
:1002900003FA0EF2801843FA05F359410EE0A5F176
:1002A00020050EF1200E012A03FA0EFC28BF4CF0A7
:1002B000020C43FA05F3C01851EBE37101F000455D
:1002C00007D54FF0000EDCF1000C7EEB00006EEB6A
:1002D0000101B1F5801F1BD3B1F5001F0CD34908F4
:1002E0005FEA30004FEA3C0C04F101044FEA44524B
:1002F00012F5800F80F09A80BCF1004F08BF5FEAD2
:10030000500C50F1000041EB045141EA050130BDB1
:100310005FEA4C0C404141EB0101013C28BFB1F5C3
:10032000801FE9D291F0000F04BF01460020B1FA0E
:1003300081F308BF2033A3F10B03B3F120020CDAE1
:100340000C3208DD02F1140CC2F10C0201FA0CF0BF
:1003500021FA02F10CE002F11402D8BFC2F1200C24
:1003600001FA02F120FA0CFCDCBF41EA0C019040DA
:10037000E41AA2BF01EB0451294330BD6FEA040423
:100380001F3C1CDA0C340EDC04F11404C4F120020E
:1003900020FA04F001FA02F340EA030021FA04F320
:1003A00045EA030130BDC4F10C04C4F1200220FA77
:1003B00002F001FA04F340EA0300294630BD21FAB5
:1003C00004F0294630BD94F0000F83F4801306BF7B
:1003D00081F480110134013D4EE77FEA645C18BF6F
:1003E0007FEA655C29D094EA050F08BF90EA020F06
:1003F00005D054EA000C04BF1946104630BD91EAFE
:10040000030F1EBF0021002030BD5FEA545C05D100
:100410004000494128BF41F0004130BD14F580043F
:100420003CBF01F5801130BD01F0004545F0FE41B3
:1004300041F470014FF0000030BD7FEA645C1ABFE8
:10044000194610467FEA655C1CBF0B46024650EA1F
:10045000013406BF52EA033591EA030F41F400214B
:1004600030BD00BF90F0000F04BF0021704730B5D1
:100470004FF4806404F132044FF000054FF00001A6
:1004800050E700BF90F0000F04BF0021704730B567
:100490004FF4806404F1320410F0004548BF40423C
:1004A0004FF000013EE700BF42004FEAE2014FEA91
:1004B00031014FEA02701FBF12F07F4393F07F4F6C
:1004C00081F06051704732F07F4208BF704793F06F
:1004D0007F4F04BF41F40021704730B54FF4607482
:1004E00001F0004521F000411CE700BF50EA010285
:1004F00008BF704730B54FF000050AE050EA01022E
:1005000008BF704730B511F0004502D5404261EB9D
:1005100041014FF4806404F132045FEA915C3FF4DE
:10052000D8AE4FF003025FEADC0C18BF03325FEA7B
:10053000DC0C18BF033202EBDC02C2F1200300FA2C
:1005400003FC20FA02F001FA03FE40EA0E0021FA51
:1005500002F11444BDE600BF70B54FF0FF0C4CF43F
:10056000E06C1CEA11541DBF1CEA135594EA0C0FF1
:1005700095EA0C0F00F0DEF82C4481EA030621EA2C
:100580004C5123EA4C5350EA013518BF52EA033567
:1005900041F4801143F4801338D0A0FB02CE4FF019
:1005A0000005E1FB02E506F00042E0FB03E54FF049
:1005B0000006E1FB03569CF0000F18BF4EF0010E41
:1005C000A4F1FF04B6F5007F64F5407404D25FEA3D
:1005D0004E0E6D4146EB060642EAC62141EA5551F0
:1005E0004FEAC52040EA5E504FEACE2EB4F1FD0C32
:1005F00088BFBCF5E06F1ED8BEF1004F08BF5FEAB0
:10060000500E50F1000041EB045170BD06F0004661
:1006100046EA010140EA020081EA0301B4EB5C040E
:10062000C2BFD4EB0C0541EA045170BD41F4801106
:100630004FF0000E013C00F3AB8014F1360FDEBF2B
:10064000002001F0004170BDC4F10004203C35DA07
:100650000C341BDC04F11404C4F1200500FA05F38A
:1006600020FA04F001FA05F240EA020001F000422B
:1006700021F0004110EBD37021FA04F642EB0601A1
:100680005EEA430E08BF20EAD37070BDC4F10C04CB
:10069000C4F1200500FA04F320FA05F001FA04F28F
:1006A00040EA020001F0004110EBD37041F100017B
:1006B0005EEA430E08BF20EAD37070BDC4F1200586
:1006C00000FA05F24EEA020E20FA04F301FA05F2EE
:1006D00043EA020321FA04F001F0004121FA04F296
:1006E00020EA020000EBD3705EEA430E08BF20EA66
:1006F000D37070BD94F0000F0FD101F000464000A0
:1007000041EB010111F4801F08BF013CF7D041EA21
:10071000060195F0000F18BF704703F00046520025
:1007200043EB030313F4801F08BF013DF7D043EAF6
:100730000603704794EA0C0F0CEA135518BF95EAAC
:100740000C0F0CD050EA410618BF52EA4306D1D133
:1007500081EA030101F000414FF0000070BD50EA52
:10076000410606BF1046194652EA430619D094EADC
:100770000C0F02D150EA013613D195EA0C0F05D1C6
:1007800052EA03361CBF104619460AD181EA03011A
:1007900001F0004141F0FE4141F470014FF00000D2
:1007A00070BD41F0FE4141F4780170BD70B54FF06D
:1007B000FF0C4CF4E06C1CEA11541DBF1CEA1355ED
:1007C00094EA0C0F95EA0C0F00F0A7F8A4EB0504CF
:1007D00081EA030E52EA03354FEA013100F08880C6
:1007E0004FEA03334FF0805545EA131343EA12638F
:1007F0004FEA022245EA111545EA10654FEA002644
:100800000EF000419D4208BF964244F1FD0404F5FC
:10081000407402D25B084FEA3202B61A65EB030558
:100820005B084FEA32024FF480104FF4002CB6EB15
:10083000020E75EB030E22BFB61A754640EA0C0095
:100840005B084FEA3202B6EB020E75EB030E22BFD5
:10085000B61A754640EA5C005B084FEA3202B6EB16
:10086000020E75EB030E22BFB61A754640EA9C00D5
:100870005B084FEA3202B6EB020E75EB030E22BFA5
:10088000B61A754640EADC0055EA060E18D04FEA63
:10089000051545EA16754FEA06164FEAC30343EA03
:1008A00052734FEAC2025FEA1C1CC0D111F4801FD0
:1008B0000BD141EA00014FF000004FF0004CB6E7C9
:1008C00011F4801F04BF01430020B4F1FD0C88BF68
:1008D000BCF5E06F3FF6AFAEB5EB030C04BFB6EB73
:1008E000020C5FEA500C50F1000041EB045170BD66
:1008F0000EF0004E4EEA113114EB5C04C2BFD4EB93
:100900000C0541EA045170BD41F480114FF0000E16
:10091000013C90E645EA060E8DE60CEA135594EA92
:100920000C0F08BF95EA0C0F3FF43BAF94EA0C0F95
:100930000AD150EA01347FF434AF95EA0C0F7FF40A
:1009400025AF104619462CE795EA0C0F06D152EA5E
:1009500003353FF4FDAE1046194622E750EA410642
:1009600018BF52EA43067FF4C5AE50EA41047FF453
:100970000DAF52EA43057FF4EBAE12E74FF0FF3CB8
:1009800006E000BF4FF0010C02E000BF4FF0010C89
:100990004DF804CD4FEA410C7FEA6C5C4FEA430C02
:1009A00018BF7FEA6C5C1BD001B050EA410C0CBF51
:1009B00052EA430C91EA030F02BF90EA020F0020B3
:1009C000704710F1000F91EA030F58BF994208BF1A
:1009D00090422CBFD8176FEAE37040F001007047D7
:1009E0004FEA410C7FEA6C5C02D150EA013C07D12E
:1009F0004FEA430C7FEA6C5CD6D152EA033CD3D079
:100A00005DF8040B704700BF8446104662468C4672
:100A10001946634600E000BF01B5FFF7B7FF0028A5
:100A200048BF10F1000F01BD4DF808EDFFF7F4FFCE
:100A30000CBF012000205DF808FB00BF4DF808ED59
:100A4000FFF7EAFF34BF012000205DF808FB00BF7C
:100A50004DF808EDFFF7E0FF94BF012000205DF89E
:100A600008FB00BF4DF808EDFFF7CEFF94BF012053
:100A700000205DF808FB00BF4DF808EDFFF7C4FF4C
:100A800034BF012000205DF808FB00BF4FEA410C95
:100A90007FEA6C5C02D150EA013C0AD14FEA430C78
:100AA0007FEA6C5C02D152EA033C02D14FF00000B5
:100AB00070474FF0010070474FEA410212F50012F3
:100AC00015D211D56FF47873B3EB625212D94FEA95
:100AD000C12343F0004343EA505311F0004F23FA7F
:100AE00002F018BF404270474FF00000704750EAD4
:100AF000013005D111F0004008BF6FF00040704791
:100B00004FF00000704700BF4A0011D212F50012EA
:100B100011D20DD56FF47873B3EB62520ED44FEA55
:100B2000C12343F0004343EA505323FA02F07047D5
:100B30004FF00000704750EA013002D14FF0FF3013
:100B400070474FF0000070474FEA4102B2F1E043B6
:100B500024BFB3F5001CDCF1FE5C0DD901F0004CA4
:100B60004FEAC0024CEA5070B2F1004F40EB8300F4
:100B700008BF20F00100704711F0804F21D113F120
:100B80003872BCBF01F00040704741F480114FEA59
:100B90005252C2F11802C2F1200C10FA0CF320FAE2
:100BA00002F018BF40F001004FEAC1234FEAD323FF
:100BB00003FA0CFC40EA0C0023FA02F34FEA430369
:100BC000CCE77FEA625307D150EA01331EBF4FF0F2
:100BD000FE4040F44000704701F0004040F0FE400D
:100BE00040F40000704700BF0348044B834202D02A
:100BF000034B03B118477047CC010020CC01002003
:100C0000000000000548064B1B1AD90F01EBA30199
:100C1000491002D0034B03B118477047CC010020A4
:100C2000CC0100200000000010B5064C237843B929
:100C3000FFF7DAFF044B13B10448AFF30080012340
:100C4000237010BDCC010020000000005CC700082C
:100C500008B5054B1BB105490548AFF30080BDE859
:100C60000840FFF7CFBF00BF00000000D001002008
:100C70005CC7000808B5012006F038FB4FF4C060DF
:100C800006F00AFB40F2026006F006FB40F2036049
:100C900006F002FB40F2046006F0FEFA4FF4A0609A
:100CA00006F0FAFA40F2015006F0F6FA40F2197036
:100CB00006F0F2FA40F20E7006F0EEFA40F20F7013
:100CC00006F0EAFA40F20B6006F0E6FA40F209603C
:100CD00006F0E2FA40F20A6006F0DEFA40F20F6037
:100CE00006F0DAFABDE8084040F2117006F0D4BA16
:100CF00070B505F007FAFFF7BDFF00F02FFA02F01C
:100D000079F801F0E3FF00F03DFC01F091FF01F004
:100D1000B7FF00F0CFFA00F0BBFB03F041F8C54885
:100D200008F074FCC44808F071FC01230022022181
:100D3000C24808F003FCC248062104F0C9FFC048BD
:100D400005F0B0F8002800F0AC81BE4DBE4C6B69D8
:100D5000D4ED027A013304BF00236B612B690133A8
:100D600008BF0023F4EE677A08BF2B61F1EE10FA9A
:100D700080F19481BFEE007AF4EE477AF1EE10FA3A
:100D800000F08C81D4ED037AF4EE677AF1EE10FA7C
:100D900080F18181BFEE007AF4EE477AF1EE10FA2D
:100DA00000F07981D4ED067AF4EE677AF1EE10FA6C
:100DB00080F16E81BFEE007AF4EE477AF1EE10FA20
:100DC00000F066816B68D4ED077A013304BF01231C
:100DD0006B60AB68013304BF0023AB60EB68013389
:100DE00008BF4FF47A73F4EE677A08BFEB60F1EE58
:100DF00010FA80F11B81BFEE007AF4EE477AF1EE33
:100E000010FA00F01381D4ED087AF4EE677AF1EE6F
:100E100010FA80F10881BFEE007AF4EE477AF1EE25
:100E200010FA00F00081D4ED097AF4EE677AF1EE61
:100E300010FA80F1F580BFEE007AF4EE477AF1EE19
:100E400010FA00F0ED80D4ED127AF4EE677AF1EE4C
:100E500010FA80F1E280BFEE007AF4EE477AF1EE0C
:100E600010FA00F0DA80D4ED0A7AF4EE677AF1EE47
:100E700010FA80F1CF80BFEE007AF4EE477AF1EEFF
:100E800010FA00F0C780D4ED117AF4EE677AF1EE33
:100E900010FA80F1BB80BFEE007AF4EE477AF1EEF3
:100EA00010FA00F0B380D4ED0E7AF4EE677AF1EE2A
:100EB00010FA80F1A780BFEE007AF4EE477AF1EEE7
:100EC00010FA00F09F80D4ED177AF4EE677AF1EE15
:100ED00010FA80F19480BFEE007AF4EE477AF1EEDA
:100EE00010FA00F08C80D4ED187AF4EE677AF1EE07
:100EF00010FA80F18180BFEE007AF4EE477AF1EECD
:100F000010FA79D0D4ED147A5048514EF4EE677A45
:100F1000D4ED137AF1EE10FA64BF4E4B2365F4EE74
:100F2000677AD4ED167AF1EE10FA64BF4A4BE364A7
:100F3000F4EE677AD4ED157AF1EE10FA64BF474B00
:100F4000A365F4EE677AF1EE10FA64BF444B636573
:100F500003F0C0F900214FF44472424808F077FBD7
:100F60006A69A36AC6F8D82064202A69C6F8D42022
:100F7000B3663D4D05F0E8F86421304604F0EAFB25
:100F80003A494FF4007206F1DC0008F0ADFB95E839
:100F9000070002F007FE002840F08B80344800F084
:100FA00011FB344800F028FB00221146282006F0EF
:100FB00021F901220021142006F01CF90022012150
:100FC000192006F017F900220221262006F012F956
:100FD000294B062101221980DA7000244FF47A701F
:100FE00005F0B2F8AB880134002BF7D095E8070084
:100FF000234602F0EDFCF1E7204B236682E7204B0D
:10100000E36570E74FF07E53A3635CE74FF07E53D8
:10101000636448E71B4BA36235E7184BA36422E7E0
:10102000194B63620FE7194B2362FCE60023E3616F
:10103000E9E600BF90C800089CC80008BCC80008CA
:10104000843900209C3900209C3D002084360020FB
:101050006433002000004841000048C10000824283
:10106000000082C23C2E002058330020B4390020FA
:10107000E8010020FC010020743600200000A040A0
:101080000000FA430000A841000060410000FA425D
:101090000023A36196E6094BE36083E6084BA36057
:1010A00070E60849084800F06FFB084808F0AEFAFF
:1010B0004BE6074808F0AAFA70E700BF000020429C
:1010C00000007A449C3D00209C390020D8C80008CC
:1010D00028C9000808B514484FF4006106F002F86A
:1010E0001248002106F008FB002211460F4806F0C6
:1010F0009BFC0E480022012106F096FC0B480022C2
:10110000022106F091FC00221146084806F02EFC50
:1011100006480022012106F029FCBDE808400348EA
:101120000022022106F022BC00080140002C0140F0
:10113000024A136803431360FFF7CCBF9C3E0020B4
:10114000014B1868704700BF9C3E0020024A13689C
:1011500023EA0003136070479C3E002010B55048FE
:10116000012105F0D3FF4F48012105F0CFFF4E4884
:101170004FF4A0530122182105F05CFF4A484FF4B8
:1011800000630122042105F055FF4FF400430122C2
:101190004648102105F04EFF44484FF4004105F049
:1011A0009FFF43484FF420430122182105F042FFDE
:1011B0003F484FF480430122482105F03BFF4FF4A4
:1011C000805301223A48102105F034FF38484FF48B
:1011D000805105F085FF35484FF40063022210214D
:1011E00005F028FF4FF4805303223048042105F016
:1011F00021FF2E484FF4006105F074FF2B484FF497
:10120000E0630322182105F015FF27480323042279
:10121000002105F00FFF264801230422002105F0DC
:1012200009FF21480C230422002105F003FF1F4879
:10123000F0230422002105F0FDFE1B483023042288
:10124000002105F0F7FE4FF400530222164810214A
:1012500005F0F0FE14484FF4005105F043FF134829
:1012600004230122182105F0E5FE082301220F487E
:10127000042105F0DFFE01214FF4EA1005F046FFDE
:101280000B484FF480730222482105F0D3FEBDE8DD
:10129000104007484FF400730322182105F0CABE1E
:1012A0000010200000023000001001400008014042
:1012B000000C014070B5714888B0002105F066FC53
:1012C0006F4A704B01920024042503934FF400727F
:1012D0004FF400634FF48076029204930DEB050205
:1012E0004FF4805321466548ADF81C60CDE90553A5
:1012F0008DF81E4005F068FC2146604805F0A2FC10
:1013000021465E4805F0B0FC5F4805F099F85F485B
:1013100005F096F84FF4803005F0E0F831465A4871
:10132000012205F0EBF822465748022105F0E6F8C5
:1013300031465648012205F0E1F822465348022181
:1013400005F0DCF82146504805F000F92A464E48E1
:10135000012105F005F901224B48022105F000F9B1
:1013600021464A4805F0F2F82A464848012105F08E
:10137000F7F846480122022105F0F2F823462146FB
:101380004148062205F00AF923463F480F22012171
:1013900005F004F923463C480722022105F0FEF837
:1013A000234639480822032105F0F8F82346214650
:1013B0003648052205F0F2F8234634480E22012172
:1013C00005F0ECF823462A463048022105F0E6F8FD
:1013D00023462E480C22032105F0E0F82A484FF45A
:1013E0006022012105F086F901221146264805F008
:1013F00065F926484FF46022012105F07BF90122AE
:101400001146224805F05AF9234621461E480B2270
:1014100005F01CF9234621461C480A2205F016F95E
:1014200019484FF4E042022105F064F91648012200
:10143000022105F043F915484FF4E042022105F07E
:1014400059F901220221114805F038F90E4805F03A
:101450003FF80E4805F03CF80B4805F01FF80B4824
:1014600005F01CF8012004F06FFE074805F01EF897
:10147000064805F01BF808B070BD00BF0000024030
:101480004C240140A43E00200024014000280140DB
:1014900070B5384888B0042105F078FB3649374AE2
:1014A00001914FF48063012400254FF4807603926C
:1014B000049301AA4FF480532E4806930421ADF8FB
:1014C0001C6002968DF81E50059405F07DFB29489E
:1014D000042105F0B7FB0421264805F0C5FB284888
:1014E00004F0AEFF22463146254805F007F82A46AB
:1014F0002348022105F002F82946214805F026F884
:10150000224621461E4805F02BF822461C4802219F
:1015100005F026F82B46294619480D2205F03EF81D
:10152000214617484FF4602205F0E4F82246214690
:10153000134805F0C3F82B46294611480D2205F043
:1015400085F80F484FF4E042022105F0D3F8224617
:1015500002210B4805F0B2F8094804F0B9FF084829
:1015600004F09CFF204604F0EFFD054804F09EFFC8
:1015700008B070BD000402404C3C0140A03E002079
:10158000003C014000B585B001A9002005F008F934
:101590000A4805F0F3F80A484FF48072CDE90102D9
:1015A0004FF4802301A90548039305F02BF9034864
:1015B000022105F0E7FA05B000BD00BF006400405D
:1015C0000000090300B5014687B0032005F0E8F8E4
:1015D00001A9012005F0E4F800234FF48031012235
:1015E00001A8CDE90133CDE903318DF8142005F0D0
:1015F0009BF907B000BD00BF00B583B00146019064
:10160000022005F0CDF8054A019990680860002392
:1016100006228A724B600B8103B000BD9C3900200A
:10162000F0B52DED028B1E4D83B00446F0EE608ABE
:10163000B0EE418AD5ED130A95ED141A01911020F0
:1016400003F0FEFE95ED161AD5ED150A0746B0EE2D
:10165000680A0C2003F0F4FED5ED030A95ED0E7A2E
:10166000D5ED117A60EEC70A064660EEA70AB0EE25
:10167000480AB1EE601A0C2003F0E2FE0312019951
:10168000E17203EB06137ABA3111E3730023A173FD
:10169000A28120746374A37403B0BDEC028BF0BD0F
:1016A0009C3D002084B0F0B52DED028B83B00AACD8
:1016B00084E80F009DF836309DF835709DF839208C
:1016C0009DF83760BDF833002D4C9DF838E09DF84B
:1016D0003A10D4ED140A94ED130A0F9D9FED298A58
:1016E0004FEA032C1B0943EA07170CF470631E43EF
:1016F000130240BA120903F470630B4342EA0E125C
:1017000080B210210092019303F0AEFE85ED000A35
:10171000D4ED160A94ED150A38460C2103F0A4FE08
:1017200085ED010AD4ED170A3046B0EE480A0C21C7
:1017300003F09AFE85ED020AD4ED180A00980C21F8
:10174000B0EE480A03F090FE85ED030A94ED030A1B
:1017500094ED0E7AD4ED117A019820EE470A0C210F
:1017600020EE270AF1EE400A03F07EFE85ED040A22
:1017700003B0BDEC028BBDE8F04004B0704700BF81
:101780009C3D00200000000070B54FF480620C46C4
:101790000546002107F05BFF01264FF4807200210F
:1017A000204607F054FF6E60002300224FF47A7643
:1017B000C5E904222A60AA60EE60154ADFED156AC9
:1017C0009FED157ADFED157AA3614FF07E51E3614D
:1017D0006363E3632364124BDFF858E0DFF858C01B
:1017E0001048A1636164A2640F49236522660F4B10
:1017F0000F4AC4ED026A84ED037AC4ED087AC4F896
:1018000054E0C4F858C0E164E0656262A36270BD50
:101810000000A04000007A44000020420000FA428C
:10182000000048410000FA43000048C10000A84100
:1018300000006041000082C20000824270B50E4686
:101840001E49A0F1040E00F57F754FF0FF305EF8E1
:10185000044F4FF0000C24FA0CF3DBB2584008227E
:1018600040F300030B40013A83EA5000F8D10CF139
:10187000080CBCF1200FEED17545E8D10F49B646F2
:1018800006F58075DEF800404FF0000C24FA0CF3EA
:10189000DBB25840082240F300030B40013A83EAD0
:1018A0005000F8D10CF1080CBCF1200FEED10EF174
:1018B000040EAE45E6D1C04370BD00BF2083B8ED35
:1018C0000368012B00F22C8243687F2B00F22882F0
:1018D00083687F2B00F22482C368DE4A013B934277
:1018E00000F21E820369DFF8A4C34FF6FF721344AF
:1018F000634500F2158243691A44624500F2108282
:10190000D1ED027A9FEDD47AF0EEE76AF4EE476A01
:10191000F1EE10FA00F20482DFEDDD6AF4EEE67A11
:10192000F1EE10FAC0F2FC81DFEDCC6AF4EEE67A5B
:10193000F1EE10FA00F2F481D1ED037AF0EEE76AED
:10194000F4EE476AF1EE10FA00F2EA819FEDC47AF4
:10195000F4EEC77AF1EE10FAC0F2E2819FEDC17A9F
:10196000F4EEC77AF1EE10FA00F2DA81D1ED064A10
:10197000DFEDB96AB0EEE47AB4EE667AF1EE10FA11
:1019800000F2CE81F5EEC04AF1EE10FAC0F2C88145
:101990009FEDB57AF4EEC74AF1EE10FA00F2C0817D
:1019A00091ED077AB0EEC76AB4EE666AF1EE10FA0E
:1019B00000F2B681B5EEC07AF1EE10FAC0F2B08155
:1019C0009FEDB36AB4EEC67AF1EE10FA00F2A88188
:1019D00091ED087AB0EEC76AB4EE666AF1EE10FADD
:1019E00000F29E81F7EE006AB4EEE67AF1EE10FAAC
:1019F000C0F29681DFED9D6AB4EEE67AF1EE10FA60
:101A000000F28E8191ED095ADFED936AB0EEC57A4E
:101A1000B4EE667AF1EE10FA00F282819FED907AD0
:101A2000B4EEC75AF1EE10FAC0F27A819FED907AC7
:101A3000B4EEC75AF1EE10FA00F2728191ED0A7A13
:101A4000B0EEC76AB4EE666AF1EE10FA00F2688191
:101A5000B7EE006AB4EEC67AF1EE10FAC0F2608119
:101A60009FED846AB4EEC67AF1EE10FA00F2588166
:101A700091ED0D7AB0EEC76AB4EE666AF1EE10FA37
:101A800000F24E81B5EEC07AF1EE10FAC0F2488154
:101A9000DFED7F6AB4EEE67AF1EE10FA00F24081F3
:101AA000D1ED0E6A9FED6C7AB0EEE66AB4EE476A4D
:101AB000F1EE10FA00F234819FED6F6AF4EEC66A1F
:101AC000F1EE10FAC0F22C81B2EE046AF4EEC66AAE
:101AD000F1EE10FA00F22481D1ED0F6AB0EEE66A61
:101AE000B4EE476AF1EE10FA00F21A81F5EEC06A20
:101AF000F1EE10FAC0F214819FED606AF4EEC66A4E
:101B0000F1EE10FA00F20C81D1ED106AB0EEE66A47
:101B1000B4EE476AF1EE10FA00F20281F5EEC06A07
:101B2000F1EE10FAC0F2FC809FED556AF4EEC66A41
:101B3000F1EE10FA00F2F480D1ED116AB0EEE66A2F
:101B4000B4EE476AF1EE10FA00F2EA809FED4D7AAA
:101B5000F4EEC76AF1EE10FAC0F2E2809FED477A28
:101B6000F4EEC76AF1EE10FA00F2DA80D1ED126AF3
:101B70009FED397AB0EEE66AB4EE476AF1EE10FAFC
:101B800000F2CE809FED366AF4EEC66AF1EE10FAEE
:101B9000C0F2C680B3EE046AF4EEC66AF1EE10FA43
:101BA00000F2BE80D1ED135AF0EEE56AF4EE476A1A
:101BB000F1EE10FA00F2B480DFED336AF4EEE65A8B
:101BC000F1EE10FAC0F2AC80F5EEC05AF1EE10FA68
:101BD00000F2A68091ED146AF0EEC66AF4EE476A50
:101BE000F1EE10FA00F29C80B5EEC06AF1EE10FA48
:101BF000C0F296809FED214AB4EEC46AF1EE10FA6D
:101C000000F28E80D1ED156AB0EE473AB0EEE67A7A
:101C1000B4EE437AF1EE10FA00F282809FED1A7A68
:101C2000F4EEC76AF1EE10FA7ADBF5EEC06AF1EE77
:101C300010FA75D891ED167AF0EEC73AF4EE433A01
:101C4000F1EE10FA6CD8B5EEC07AF1EE10FA67DB5F
:101C500020E000BF9F860100FFFF7F7F0000FA4465
:101C6000CDCCCC3D00007042000004420000164381
:101C7000000020420000804217B7D13800007A44AB
:101C80000050C3476F12833A00007AC4FEFF010080
:101C90000000C842B4EEC47AF1EE10FA40D8D1ED9B
:101CA000173AF0EEE32AF4EE432AF1EE10FA37D8B1
:101CB000F5EEC03AF1EE10FA32DBF4EEC43AF1EE92
:101CC00010FA2DD891ED184AF0EE433AB0EEC43A2E
:101CD000B4EE633AF1EE10FA22D8B5EEC04AF1EE56
:101CE00010FA1DDB5FED163AB4EEE34AF1EE10FA9E
:101CF00016D8F4EEE47AF1EE10FA11DBF4EEC57AC0
:101D0000F1EE10FA0CDBF4EEC65AF1EE10FA07D53C
:101D1000F4EEC76AF1EE10FA4CBF012000207047C4
:101D20000020704730B5DFF83CC083B06045069DA9
:101D3000079C02D0002003B030BD0229FAD1B2F5D1
:101D4000A07FF7D1214628460193FFF777FD019B3D
:101D50009842EFD12146284603B0BDE83040FFF756
:101D6000AFBD00BF4154484E401A0028D4BF0020E8
:101D70000120704740B12AB15B1A002BD4BF00206C
:101D8000012070471046704782420CBF4FF0FF3071
:101D90000120704711B10AB1082B01D00020704713
:101DA000009BC01AB3F5006FB0FA80F04FEA5010F4
:101DB00028BF0020704700BF431E00F1060C13F837
:101DC000012FFF2A09D16345F9D1C279131DDBB276
:101DD000022B02D80A70012070470020704700BF14
:101DE00038B5C0F30D0444F4804440F44045204627
:101DF0000AF06EFC002814BF2846204638BD00BFFC
:101E0000084310B5C0F30D0420460AF061FC44EA13
:101E1000C03080B210BD00BF10B504460AF058FCB7
:101E200028B914F4804F18BF6FF0010010BD4FF0B7
:101E3000FF3010BDC0F30D00C1F30D01401AB0F525
:101E4000005F03DDA0F5804000B2704710F5005F31
:101E5000B8BF00F5804000B2704700BF0378A52BE3
:101E600029D143785A2B26D18378012B23D110B561
:101E700083790C46CBB9DFF84CE0421E811D00236C
:101E800012F801CF83EA0C0391421EF80330F7D118
:101E9000C2799A4212D1C37823700379637043796F
:101EA000A3708379E370002010BDC378072BE2D0C4
:101EB0004FF0FF3010BD4FF0FF3070476FF0010062
:101EC00010BD00BF78C7000890F800C06CF07F0C10
:101ED00083F800C090F801C083F801C08078987042
:101EE0004FEA122CD970100C110E1A7183F805C02C
:101EF0009871D971704700BF164B1B7803B97047B2
:101F000030B5154C237883B0DBB2CDE900310546FE
:101F100004F032F9009B114A019903EB430C4FEA9C
:101F20008C0E013342F80E0002EB8C0203F01F030B
:101F30000B4815719160237003781F2B04D8037828
:101F40000133037003B030BD064A136801331360D8
:101F500003B030BDBE3E0020BD3E0020C03E00208C
:101F6000BC3E0020B83E00202DE9F0418A4C0168BB
:101F7000236840F201720133914288B0236006D198
:101F8000037A23B9437A13B9827A082A05D0A36861
:101F90000133A36008B0BDE8F08102A90B300093C3
:101FA000FFF75CFF18B1E3680133E360F2E704F088
:101FB000E3F87A49009B0A68821A132A40F22381C7
:101FC000626808609DF8081001320729626000F01D
:101FD0001E81032900F21986DFE801F08D831902C2
:101FE0009DF80A100F2900F28B80DFE811F0CA007B
:101FF000C800C600F300F100EF00ED00EB0089001F
:10200000E700D100CD00BF00BB008900C3009DF8F0
:102010000A20632A74D8DFE812F0F205EB05E40524
:102020008C05870583057E057300730077055605CB
:1020300052054B0544053A0532052D052805540285
:102040004B027300730073007300F000E200DF00C6
:102050006D02E200F000DF00730073007300730094
:1020600073007300730073007300730073007300D8
:1020700073007300730073007300730073007300C8
:102080007300730073007300730079027302F00031
:10209000AF02A902A2029B0294028D0286027F0275
:1020A0002003190312030B030403FD02F602EF02DF
:1020B000E802E102DA02D302CC02C502BE02B50296
:1020C000D004B5048A046F0436042D041E040404ED
:1020D000DE03C4038103670354034A034103270358
:1020E0005D029DF80A20042A00F29285DFE802F0E2
:1020F0003633312F38009DF80A20002A00F0C181C4
:102100000123216901310022216103A90220CDE9C7
:10211000003204F045FB00230493ADF8143040F284
:10212000817303930823DDE9001202A88DF81630AD
:102130000DF11703FFF7C8FE194803A904F06EFC60
:10214000032800F07981A3690133A36122E7154ACE
:10215000DBE70F22D9E74FF48032D6E7124AD4E703
:10216000124AD2E7124AD2F80823CEE7104AD2F830
:102170000423CAE70F4A1268C7E7A268C5E7626886
:10218000C3E722680B46C0E7094AD2F80023BCE740
:10219000094AD2F8FC22B8E740400020B43E0020B3
:1021A0000064004001D1E0A74154484E01E803001B
:1021B000643300206040002084360020A04AD2F81A
:1021C000FC22A2E7E269A0E7A2699EE762699CE7B8
:1021D00022699AE7E26898E740F2154295E7994A42
:1021E0009FED997AD2ED037A9849994AB4EEE77A4D
:1021F000F1EE10FAB8BF0A4687E7009301F022F922
:10220000009B024681E7636901336361C2E69DF882
:102210000A20013A0B2A00F2F884DFE812F00601E6
:102220009E00E900A600F1008F00790061004C00DB
:10223000370021000C0087489DF80B2001788A4266
:10224000BFF45EAF8449097800782031091A0A4446
:10225000824902F01F020C2000FB0212926854E730
:102260007C489DF80B2001788A42BFF449AF7A4937
:10227000097800782031091A0A44784902F01F02CF
:102280000C2000FB02121279D2B23EE771489DF891
:102290000B2001788A42BFF433AF6F490978007888
:1022A0002031091A0A4402F01F020C206B4900FB7E
:1022B00002F28A5829E76849664800220A7068498C
:1022C00002700A60674A1278007842EA00220868C1
:1022D000B0F5803F36BF0968634909040A4314E733
:1022E000604A4FF0000C82F800C01178002940F0DD
:1022F000CA8058485A491278007842EA0022086891
:10230000B0F5803F36BF0968574909040A43FCE627
:10231000544A5048012111701178002940F0BD80C5
:102320004F491278007842EA00220868B0F5803FF1
:1023300036BF09684C4909040A43E6E64B4802786F
:1023400041780A43D2B2002A00F098801B21009302
:1023500002F088FF009B0122D7E6444800936D21DC
:1023600002F080FF009B0222CFE69DF80B30013B7C
:10237000DBB2132B00F282803C4A1378527813436D
:1023800013F0FF037AD10093FEF7DAFE002875D12F
:10239000374A9288002A71D1294A92F8DD22002A10
:1023A0006CD0344A92F8F522002A67D000F18040C0
:1023B0004FF4805100F5843004F09CFE00285DD07D
:1023C0009DF80B309FED2C7A1E4A284807EE903A74
:1023D000F8EE677A632167EE877AC2ED127A02F02F
:1023E00041FF9DF80B20009B642101FB02F28CE66B
:1023F0001E480093652102F035FF009B032284E60E
:102400001A490A7849780A43D2B2002A36D1009391
:10241000FEF796FE90BB0A4A92F8DD2272B313488B
:102420007A2102F01FFF009B95E7104800931B21C3
:1024300002F018FF009B8EE7E3690133E361A9E531
:10244000643300209C3D002000002042A000800258
:10245000A000C002BC3E0020BD3E0020C03E0020C7
:10246000B83E0020BE3E00200000FFFF7436002072
:102470005833002084360020CDCCCC3D02230022EE
:1024800043E6B54A41E6B549B54881F800C0B549CB
:1024900080F800C0C1F800C02DE7B249AF4D4FF041
:1024A000000C85F800C080F800C0C1F800C038E713
:1024B000AD49D1F83C2CD1F82C1C92B242EA014231
:1024C00023E6A949D1F8342CD1F8381C92B242EA5B
:1024D00001421AE6A54AA2491278097842EA012285
:1024E000A0490868B0F5803F36BF0968A0490904D3
:1024F0000A430AE6009301F041FA009B024604E613
:10250000009300F099FF009B0246FEE5009300F067
:102510008DFF009B0246F8E50520009300F0A4FF24
:10252000009B0246F1E50420009300F09DFF009B14
:102530000246EAE50320009300F096FF009B024666
:10254000E3E50220009300F08FFF009B0246DCE5EC
:102550000120009300F088FF009B0246D5E5002093
:10256000009300F081FF009B0246CEE5009300F04F
:1025700075FF009B0246C8E5009300F069FF009BD1
:102580000246C2E57B49CA7848780978120442EAD3
:1025900000220A43B9E50E20009300F06FFF009B74
:1025A0000246B2E50D20009300F068FF009B024652
:1025B000ABE50C20009300F061FF009B0246A4E510
:1025C0000B20009300F05AFF009B02469DE50A2075
:1025D000009300F053FF009B024696E5092000930C
:1025E00000F04CFF009B02468FE50820009300F0AE
:1025F00045FF009B024688E50720009300F03EFF60
:10260000009B024681E50620009300F037FF009B07
:1026100002467AE50520009300F030FF009B024659
:1026200073E50420009300F029FF009B02466CE54F
:102630000320009300F022FF009B024665E5022084
:10264000009300F01BFF009B02465EE50120009313
:1026500000F014FF009B024657E50020009300F0B5
:102660000DFF009B024650E5434A9FED447AD2EDB0
:10267000127AF4EEC77AF1EE10FA15DA9FED407A8D
:10268000F4EEC77AF1EE10FA0BD99FED3E7A67EEC1
:10269000877AFDEEE77A17EE902A36E53A4AD26954
:1026A00033E54FF0004230E56FF000422DE536494A
:1026B0008A8C087891F82010120442EA00220A431A
:1026C00023E52C4A3049107892F801C00A7C1204A4
:1026D00042EA0C22024391F8210091F8221042EACA
:1026E000006242EA416210E5284A9FED247AD2ED69
:1026F000377AF4EEC77AF1EE10FA49DA9FED207AD4
:10270000F4EEC77AF1EE10FA22D99FED1E7A67EE49
:10271000877AFDEEE77A17EE902AF6E41B4A9FEDE2
:10272000177AD2ED367AF4EEC77AF1EE10FA35DA8E
:102730009FED137AF4EEC77AF1EE10FA2BD99FEDE4
:10274000117A67EE877AFDEEE77A17EE902ADCE4DD
:102750004FF00042D9E400BF4154484EBD3E002036
:10276000BC3E0020B83E002000200140BE3E0020BC
:102770000000FFFF743600209C3D00206C12034ACD
:102780006C1203CA00007A44100200208436002034
:102790006FF00042B9E44FF00042B6E46FF000423F
:1027A000B3E4CB4A9FEDCB7AD2ED357AF4EEC77A1B
:1027B000F1EE10FA2CDA9FEDC87AF4EEC77AF1EE5A
:1027C00010FA22D99FEDC57A67EE877AFDEEE77A97
:1027D00017EE902A99E4BE4A9FEDBE7AD2ED347A84
:1027E000F4EEC77AF1EE10FA18DA9FEDBB7AF4EE48
:1027F000C77AF1EE10FA0ED99FEDB87A67EE877AB4
:10280000FDEEE77A17EE902A7FE44FF000427CE479
:102810006FF0004279E44FF0004276E46FF000423E
:1028200073E4AB4A9FEDAB7AD2ED337AF4EEC77A1C
:10283000F1EE10FA1BDA9FEDA87AF4EEC77AF1EE0A
:1028400010FA11D99FEDA57A67EE877AFDEEE77A47
:1028500017EE902A59E4A249D1F83C2CD1F82C1C4F
:1028600092B242EA014250E44FF000424DE46FF070
:1028700000424AE49A49D1F8342CD1F8381C92B27B
:1028800042EA014241E492499FED967AD1ED057A00
:10289000F4EEC77AF1EE10FA80F2E4809FED927ABE
:1028A000F4EEC77AF1EE10FA40F2DA809FED8B7AFF
:1028B00067EE877AFDEEE77A17EE902AD1ED067A79
:1028C0009FED887AF4EEC77AF1EE10FA92B280F2B8
:1028D000C4809FED857AF4EEC77AF1EE10FA40F2EB
:1028E000BA809FED7E7A67EE877AFDEEE77A17EE83
:1028F000901A42EA014208E4754A9FED767AD2EDD9
:10290000117AF4EEC77AF1EE10FA2FDA9FED727AAF
:10291000F4EEC77AF1EE10FA24D99FED707A67EEE3
:10292000877AFDEEE77A17EE902AFFF7EEBB684A4A
:102930009FED687AD2ED2A7AF4EEC77AF1EE10FABA
:102940001CDA9FED657AF4EEC77AF1EE10FA11D930
:102950009FED627A67EE877AFDEEE77A17EE902AAE
:10296000FFF7D3BB4FF00042FFF7CFBB6FF0004241
:10297000FFF7CBBB4FF00042FFF7C7BB6FF0004241
:10298000FFF7C3BB594A9FED537AD2ED037AF4EEB9
:10299000C77AF1EE10FA5ADA9FED4F7AF4EEC77A61
:1029A000F1EE10FA4FD99FED4D7A67EE877AFDEE82
:1029B000E77A17EE902AFFF7A8BB009300F0DEFF3E
:1029C0004B4A9288151E424A92F8F52218BF0125FB
:1029D000161E484A92F8DD22804618BF01264FF4A1
:1029E0000061171E444818BF012704F089FB011E2F
:1029F0003B48D0F8442CC2F3C03CD0F8202CD0F88F
:102A0000203CD0F820EC4FEA821202F040020EF493
:102A1000807E42EA0E0242EA450242EA860242EA29
:102A2000C702C3F3001042EA4C1242EAC01218BFB8
:102A30000121B8F1000F18BF42F00102009B42EAE9
:102A40000112FFF762BB4FF00042FFF75EBB6FF071
:102A50000042FFF75ABB29494BE747F6FF7148E7A9
:102A6000264A2BE747F6FF7228E7194AD2F8B42026
:102A7000FFF74BBB224AD2F81824FFF746BB1D498B
:102A800091F8DE2252B1D1F8E622FFF73EBB1D4A93
:102A9000D188128942EA0142FFF737BB0323FFF7CF
:102AA00034BB184A5188928842EA0142FFF72DBB95
:102AB000144A5189128842EA0142FFF726BB114AA3
:102AC000D268FFF722BB024A128AFFF71EBB00BF83
:102AD000843600206C12034A6C1203CA00007A4448
:102AE00000200140681103426F1203C29C3D002088
:102AF0005833002064330020000801400080FFFFAD
:102B000000600040A43E002043490A89C96842EAA7
:102B10000142FFF7FABA414AD2F88020FFF7F5BA2E
:102B20003E4A926FFFF7F1BA3C4AD2F8E022FFF733
:102B3000ECBA4FF480513A48009304F0DBFA4FF4BA
:102B400000610646364804F0DBFA031E3548364974
:102B5000D0F8442CC2F3C035D1F81824D1F818E4C9
:102B6000D1F81814C1F3800CD0F8201C4FEA42129F
:102B70004FEA012101F4807102F0200242EA0102D1
:102B8000264991F8DD1218BF0123003918BF012131
:102B900042EA430242EAC1021F49009B91F8F51242
:102BA000003918BF012142EA0112CEF3400E42EA79
:102BB000850242EA8E1242EACC12D0F820CCD0F83C
:102BC000201CCCF3001042EA4022C1F3002142EA6B
:102BD0008122002E08BF42F0010242F00042FFF7BE
:102BE00094BA0093FEF7ACFA009B0246FFF78DBA49
:102BF000009303F0C1FA009B0246FFF786BA06492C
:102C00001346D1F8F822FFF780BA0423FFF779BA08
:102C10000B46FFF776BA00BF8436002064330020ED
:102C2000000801400020014000600040000000005A
:102C300000B5114889B004F005FC9FED0D7B4FF401
:102C400000724FF4827100234FF40060CDE900134D
:102C5000CDE9020218236946074806938DED047BEF
:102C600004F01EFC044804F035FC09B000BD00BFB0
:102C700000000000010000000038004000000000DB
:102C800000B5114889B004F0DDFB9FED0D7B4FF4DA
:102C900000724FF4827100234FF40060CDE90013FD
:102CA000CDE9020210236946074806938DED047BA7
:102CB00004F0F6FB044804F00DFC09B000BD00BFB1
:102CC0000000000001000000003C004070B54848D2
:102CD0008CB004F011FC08A8002404F083FC01254A
:102CE0004FF400134FF4FA6208A9414808930A927E
:102CF00009948DF82C5004F07DFC3D4804F0D4FE7E
:102D000021463B4804F0BAFE2946394804F0BEFE8D
:102D1000374804F0C7FC01A804F0F8FC022601AA19
:102D2000214633480394CDE9014604F0F5FC2146E1
:102D30002F48602204F0F2FD21462D48042204F0C1
:102D40004BFE21462A48082204F01EFE2246214658
:102D5000274804F00BFE01AA2946254804F0DCFCB4
:102D600029462348602204F0D9FD29462048042240
:102D700004F032FE29461E48082204F005FE2246D1
:102D800029461B4804F0F2FD01AA3146184804F018
:102D9000C3FC31461648602204F0C0FD3146144899
:102DA000042204F019FE31461148082204F0ECFD1B
:102DB000224631460E4804F0D9FD04A804F080FCF8
:102DC0004FF0005304A90A480694CDE90443ADF836
:102DD0001C4004F07BFC2146054804F08DFC29468C
:102DE000034804F065FC024804F056FC0CB070BDCA
:102DF000002C014008B50D4804F05CFE0B484FF470
:102E0000E13104F0A3FE0948042104F0DFFE0821AB
:102E1000064804F0D5FE054804F0CCFEBDE80840A5
:102E2000024840F2053104F0E7BE00BF0044004014
:102E300038B50546E9B20C4804F0CEFE41F2010473
:102E400001E0013C07D00848072104F0CDFE00282E
:102E5000F7D0284638BD054A13684FF0FF350133D7
:102E60001360284638BD00BF004400406040002089
:102E7000F0B52DED028B604D1446002687B02E6014
:102E80000A46217C0746002975D0E168DFED5B6AC0
:102E90005B1A07EE903AF8EEE77AB7EE007A67EE43
:102EA000A67AF4EEC77AF1EE10FAC4ED057A6ED484
:102EB000F0EE006AF4EEE67AF1EE10FA00F18380AB
:102EC000104601F08FFA94ED067A97ED038ADFED54
:102ED0004C6A8DED027A78EE477AF0EEE77AC6EE2C
:102EE000A77A17EE900AFDF7DFFA41EC100B09F014
:102EF00031FA51EC100BFDF707FE9DED027A2070C0
:102F0000B4EEC87AF1EE10FA2FD401233D4884F8CC
:102F1000203006F07BFB21783B4806F00FFBA069D0
:102F2000FDF7C2FA02460B4618EE100ACDE902235D
:102F3000FDF7BAFADDE90223CDE90001334806F0D6
:102F4000FDFA94F820302B602378314907EE903A4F
:102F5000F8EE677A00220123C1ED0A7A227484F820
:102F6000213007B0BDEC028BF0BD84F82060294809
:102F700006F04CFBCFE728480593029206F046FB8B
:102F80000121059B2174029AE3600021616104F52F
:102F9000005101F6884501F5496100231C48A360F2
:102FA0002B600B60806CC2F8A40004F53051C2F8AD
:102FB000A8302C31104601F087FAFB68A36107B0F6
:102FC000BDEC028BF0BD77EEC77A9FED0D7A04F56C
:102FD000325367EE877A04F5305108332C311046AE
:102FE000C4ED027AC3ED007A07B0BDEC028BBDE8F8
:102FF000F04001F069BA00BF9C390020D1CB0B38FA
:10300000DB0FC940ACC90008C4C90008D8C9000812
:103010009C3D002094C9000870C900082DE9F041CA
:10302000C24E96ED0A7A2DED028BF3EE057AB4EEE0
:10303000E77AF1EE10FA84B000F312811D46137C9A
:1030400014460F468046002B00F0D880D3689FEDD1
:10305000B87AEB1A07EE903AF8EEE77AB7EE006A24
:1030600067EE877AF4EEC67AF1EE10FAC2ED057AD1
:1030700000F1D2809FEDAF8A96ED0A7A67EE085A8A
:10308000C5EE886A76EE866AF4EEE67AF1EE10FA1C
:1030900078D4DFEDA96A27EE267AC7EE086A36EE05
:1030A000867AF4EEC77AF1EE10FA00F1E280084673
:1030B00001F098F9D6ED0A7ABDEEE77A17EE103AEC
:1030C000002B40F3928104EB432303F1280204F127
:1030D0002801002351F8040F91420344FAD107EE6E
:1030E000103AB8EEC77A9FED956AE56A9FED938A2C
:1030F000DFED938A27EE866AD5F58035C7EE066A3E
:1031000048BF05F2FF156D120027FDEEE66AC4ED1B
:10311000076A07EE107AF8EEC75A67EE886A65EE1E
:10312000A75A6FF03F0265EE885A002165EEA85A53
:10313000B7EE005A13E036EEC56AB4EEC76AF1EE98
:1031400010FA03D537EE667AFDEEC77A17EE903A9D
:1031500004EB83030132DB6A402A194433D007EEC3
:10316000902AF8EEE77A77EEA57AFDEEE77A17EE89
:10317000903A002BB8EEE77ADDDA37EE267AFDEEEC
:10318000C77AE3E7D2ED027A9FED6E7A77EE877A1F
:1031900002F53253084602F53051C2ED027A2C3165
:1031A000C3ED027A01F090F994ED057AD4ED0A7A34
:1031B000B4EEE77AF1EE10FA00F3D08004B0BDEC83
:1031C000028BBDE8F0810029B8BF7F317F2D4FEA27
:1031D000E1122946C8BFA5F18001E06901F68A2302
:1031E00004EB8303121A5A605748013706F0A6F918
:1031F000802F2BD0D6ED0A7A01358AE75348039306
:1032000006F004FA039BA384002363610123237463
:103210004FF07E53E560A36204F532530022A260B2
:103220009A60B06CC7F8A40004F53051C7F8A82024
:103230002C31384601F048F9D8F80C206369A261B6
:10324000A36204B0BDEC028BBDE8F0810022012333
:10325000227484F8223004B0BDEC028BBDE8F0810A
:103260003B48152104B0BDEC028BBDE8F04106F0EF
:1032700065B9D2ED027A9FED337A77EEC77A0846C8
:10328000C2ED027AB36CC1F8A4300023C1F8A830B3
:1032900002F5325302F53051C3ED027A2C3101F0C0
:1032A00013F994ED057AD4ED0A7AB4EEE77AF1EEEB
:1032B00010FA83DDA78C002F80D096ED0A7AD4ED2A
:1032C000027ADFED256AD8F87430A06827EE087A14
:1032D00067EEA66AC6EE877AFDEEE77A17EE902AC9
:1032E0009B1ADD1305F480351D4404EB8703CDEDF7
:1032F000037AD96A0D4405EBD5756D10DD62FDF7D3
:10330000D3F82B46CDE90001039A1248394606F05E
:1033100015F9D4ED0A7A9FED0A7AA38C77EE877AB5
:10332000013BA384C4ED0A7A48E700BF9C3D00201E
:10333000D1CB0B38DB0FC940DB0F49410000004304
:103340000000003C5F975B395CCA000824CA000893
:10335000F4C900084CCA00080000804794ED026AD6
:1033600096ED0A7A5FED046AD8F87430A78C66EEA1
:10337000266A27EE087A16EE100AC6EE877AFDEE68
:10338000E77A17EE902A9B1ADD1305F480351D4469
:1033900004EB8703CDED037ADD62FDF785F82B465C
:1033A000CDE90001039A1248394606F0C7F89FEDAF
:1033B000116A94ED0A7ADFED106AA38C37EE067A73
:1033C000FFEE007A84ED0A7A96ED0A6A07EE103A6B
:1033D000E6EE267AB8EEC77AB4EE677AF1EE10FA26
:1033E0003FF4ECAE0133A384E8E69FED047A7AE67D
:1033F0004CCA00080000003C000000430000000030
:10340000024B1878003818BF01207047C4400020D4
:10341000044B1B7823B1044A136843F00103136083
:10342000704700BFC4400020C0400020014B186816
:10343000704700BFC0400020014B1868704700BFB4
:10344000BC400020014B1868704700BFB840002006
:10345000014B1868704700BFB4400020014B18684A
:10346000704700BFB040002005289DBF024B33F8D5
:10347000100080B200207047A44000200E289ABFA0
:10348000024B53F820000020704700BF6840002026
:10349000024B1878003818BF0120704764400020A4
:1034A000014B01229A6370476840002070B50446C2
:1034B0004FF6FF7384B03748218063804FF480510A
:1034C000164603F00FFE00230393039B3F2B06D801
:1034D00000BF039B01330393039B3F2BF8D940F6B6
:1034E000010501E0013D40D02B48022103F0FEFF21
:1034F0000028F7D02188284803F0F2FF40F60105A4
:1035000001E0013D40D02448012103F0EFFF0028F5
:10351000F7D0214803F0E6FF40F60105608001E0A6
:10352000013D34D01C48802103F0E0FF0128F7D092
:1035300000230293029B3F2B4FF000051CD9154836
:103540004FF4805103F0CCFD00230193019B3F2BEE
:1035500006D800BF019B01330193019B3F2BF8D993
:1035600063883380284604B070BD4FF0FF350023D8
:103570000293029B3F2BE2D800BF029B01330293D0
:10358000029B3F2BF8D9DAE76FF00105EFE76FF008
:103590000205ECE7000C01400038004070B582B035
:1035A00000230DF102024FF40041ADF80230ADF8F6
:1035B0000430ADF806300446FFF778FF4FF40841B9
:1035C000064601AA2046FFF771FF4FF40841054661
:1035D0000DF106022046FFF769FF46EA05030343A3
:1035E00004D0064A136843F004031360BDF80600D4
:1035F000BDF8043043EA004002B070BDC040002076
:103600002DE9F04F002787B003ACCDE90377019493
:103610003A4EDFF80CA13A4C059780464FF001096D
:103620000DF10E0B14F8015B364BADF80A7043EA4E
:10363000C5250DF10A02A9B24046FFF737FF002861
:1036400049D0326842F004024FF000093260A245CE
:103650000BF1020BE6D1019C2B48002334F8022B1E
:1036600020F813200133062BF8D12849DDF80E305D
:10367000C8F806300B602649DDF81240BDF80E2070
:10368000BDF810000C60234CBDF8161021600243F9
:10369000BDF81230BDF8144025D1C3F30A03A02BA6
:1036A00021D11D4B9FED1D7AD3ED037AB4EEE77A5D
:1036B000F1EE10FAACBF4FF430734FF420739C421C
:1036C00011D140F21543994208BF09F1FF300AD1E8
:1036D00007B0BDE8F08F5A46A9B24046FFF7E6FEB4
:1036E0000028AED1B3E7054A13684FF0FF3043F02E
:1036F0000803136007B0BDE8F08F00BFC040002092
:103700003CD200080080FFFFA4400020B840002009
:10371000B4400020B04000209C3D0020000020422A
:1037200041D2000830B585B004AB03E907000F486B
:10373000002103F0E1FF0E484FF4006103F0D0FCDC
:1037400000230C4A1C4642F8234001330F2BFAD1C8
:10375000094B01251D7002F00FFD084B084A186047
:10376000084B15701C7005B030BD00BF002C014027
:10377000000801406840002064400020C84000204C
:10378000CD400020CC40002030B56D4B89B001AC5D
:1037900084E807001A780AB909B030BD694A15688B
:1037A00002F0EAFC0A220146284602F04DFC0028FD
:1037B000F2D0634B644800224FF480511A7003F03A
:1037C00099FC0346002800F08D8094E8070005ABC3
:1037D00003C341F2A1011A8005A80DF11202009362
:1037E000FFF764FE594A9FED5A7AD2ED037A009BA7
:1037F00094E80700B4EEE77AF1EE10FA0DF1140C3C
:10380000ACE80300A8BF4FF44B511A80B8BF4FF487
:103810004A510DF1120205A8FFF748FE94E807008F
:10382000009B0DF1140CACE8030042F615411A8020
:1038300005A80DF11202FFF739FE2046FFF7E0FE62
:10384000444B021E0CBF012100211546424A19605B
:103850001168424A59601168414A99601168414AA9
:10386000D9605188404889B21961918889B25961FB
:10387000D2883E4992B29A61D0F80428DA61D0F831
:103880000C281A62D0F808285A62D0F8042C9A62E0
:10389000D0F80C2CDA62D0F8082C1A63D1F808287A
:1038A0005A6345D128484FF4805103F023FC002887
:1038B0003ED02F492F4B304801240C702246294618
:1038C0001D7004F0B1F8224621462B4804F0ACF8F4
:1038D00029482246022104F0A7F82748214603F090
:1038E0000BFF59E71B49009320460B60FFF756FE7C
:1038F00018491D4A4860D2F80408C861D2F80C087B
:103900000862D2F808084862D2F8040C8862D2F83B
:103910000C0CC862D2F8082C14480A63154AD0F877
:103920000848009B4C6320201370FDF701FC33E72F
:10393000104B002220201A70FDF7FAFB09B030BDB1
:10394000CD400020C8400020000801409C3D0020E0
:103950000000204268400020B8400020B440002011
:10396000B0400020A4400020000001400030004092
:10397000CC40002064400020002C0140024B18780D
:10398000003818BF01207047CC40002000B585B03A
:1039900004AB03E907000948002103F0ADFE084825
:1039A0004FF4006103F09EFB06480749074A0023D5
:1039B00003700B70137005B000BD00BF002C0140F8
:1039C00000080140CD400020CC4000206440002091
:1039D000F0B589B001AC84E8070094E8070005AEB3
:1039E00003C64FF40041328005A80DF112021F46B4
:1039F000FFF75CFD94E8070005AB03C332804FF48A
:103A000008410DF1120205A8BDF81250FFF74EFD56
:103A1000BDF8124054EA05031FD12B0743D46F07AA
:103A200046D4AE0749D4ED074CD460054FD4A10568
:103A300052D4E20555D4230658D467065BD4A606B3
:103A40005ED4E50661D4200764D4610767D4A20779
:103A50006AD4E3076DD409B0F0BD3B48394605F0A0
:103A60006DFD6A056BD4AB0502D5384805F066FDDF
:103A7000EF0502D5364805F061FD2E0602D5354822
:103A800005F05CFD680602D5334805F057FDA90630
:103A900002D5324805F052FDEA06BED5304805F0A1
:103AA0004DFD2B07BBD52F4805F048FD6F07B8D556
:103AB0002D4805F043FDAE07B5D52C4805F03EFD79
:103AC000ED07B2D52A4805F039FD6005AFD5294884
:103AD00005F034FDA105ACD5274805F02FFDE20522
:103AE000A9D5264805F02AFD2306A6D5244805F0C9
:103AF00025FD6706A3D5234805F020FDA606A0D521
:103B0000214805F01BFDE5069DD5204805F016FD72
:103B100020079AD51E4805F011FD610797D51D486D
:103B200005F00CFDA20794D51B4805F007FDE3073F
:103B300091D51A4809B0BDE8F04005F0FFBC18481F
:103B400005F0FCFC8FE700BF68CA000888CA0008BF
:103B500094CA00089CCA0008A4CA0008ACCA00089D
:103B6000B8CA0008C4CA0008D0CA0008DCCA0008E5
:103B7000E8CA0008F4CA0008FCCA000804CB000820
:103B80000CCB000814CB00081CCB000828CB000885
:103B900034CB000840CB00084CCB000858CB0008C1
:103BA0007CCA00082DE9F04188B001AC84E8070028
:103BB0006C4F6D4A6D4D6E4900233B602B60136066
:103BC0006C4A13606C4A13601A4621F813200133C3
:103BD000062BFAD1FDF77EFA684B9FED697AD3ED9B
:103BE000037A684E6848B4EEE77AF1EE10FA4FF0C7
:103BF00001034FF40061A8BF4FF003083370B8BF52
:103C00004FF0020803F06CFA0A2002F09DFA2046F9
:103C1000FFF7C4FC28602B681BB13B6843F002032C
:103C20003B6094E8070005AD03C541F2A1012A807D
:103C300005A80DF11202FFF739FC544800F024FBEF
:103C400094E80700B8F1030F05AB03C314BF4FF4AA
:103C50004A514FF44B512A8005A80DF11202FFF78B
:103C600025FC94E8070005AB03C32A8042F6154102
:103C70000DF1120205A8FFF719FC94E8070005AB47
:103C800003C341F2A1012A8005A80DF11202FFF73A
:103C90000DFC012002F058FA3B484FF4805103F02C
:103CA00029FA18B93B6843F010033B602046FFF740
:103CB000A7FC28B934484FF4805103F01BFAE0B94F
:103CC00094E8070005AB03C341F2A1011A8005A8DF
:103CD0000DF11202FFF7EAFB012002F035FA2A4843
:103CE0004FF4805103F006FA28B32046FFF788FC12
:103CF00008BB3B6823F008033B6023484FF4805126
:103D000003F0F8F90446B8B12148002103F0F4FCAF
:103D10001D484FF4006103F0E5F91E491E4A1F4B90
:103D200000240C7014701C703470FDF7D3F9204619
:103D300008B0BDE8F081002420203470FDF7F8F9C8
:103D40001348214603F0D8FC0F484FF4006103F0FC
:103D5000C9F91049104A114B0C704FF0FF30147024
:103D60001C70E5E7C0400020B8400020BC400020A7
:103D7000A4400020B4400020B04000209C3D002022
:103D800000002042C440002000080140843600208A
:103D9000002C0140CD400020CC4000206440002099
:103DA00008B50C21002003F0F3F94FF480500222F3
:103DB000002102F06BFFBDE808404FF4805002F094
:103DC000BDBF00BF044A072928BF07210023C0E95F
:103DD00001210370704700BF00C0030810B50446FE
:103DE00002F0B2FF40F2073003F016F9606802F00B
:103DF000DFFF0123237010BD84B00DF1100C0CE91E
:103E000007000298049900EB830004B003F070B837
:103E100084B00DF1100C0CE907000298049900EB36
:103E2000830004B003F064B884B00DF1100C0CE909
:103E30000700029810EE101A00EB830004B003F0A4
:103E400057B800BF00B583B0019002F09DFF019804
:103E50000023037003B000BD84B00DF1100C0CE919
:103E6000070051F8230004B0704700BF84B00DF183
:103E7000100C0CE9070051F8230004B0704700BF94
:103E800084B00DF1100C0CE9070001EB830292EDF8
:103E9000000A04B0704700BF08B590ED167AD0ED67
:103EA000186A1C4BF7EE007A2DED048B37EEC77ABB
:103EB0009FED199AD0ED178A1968184827EE097AEC
:103EC00077EEE88A37EEE68AFCEEC77A17EE902A9C
:103ED000C9B903F04BFD1148012168EE898AFCEE57
:103EE000E87A17EE902A03F041FD68EE097ABDECFE
:103EF000048BFCEEE77ABDE80840084817EE902AEC
:103F0000022103F033BD012103F030FD03480021FD
:103F1000E3E700BF9C3900200000FA44002C014078
:103F200038B5484B1C680546002C7ED121464648D2
:103F300002F004FC0346AB604448214602F0FEFB5D
:103F400003464148EB60022102F0EAFB40480221AF
:103F500002F0E6FB40F6010401E0013C50D03A4893
:103F6000042102F0FFFB0028F7D040F6010401E035
:103F7000013C45D03648042102F0F4FB0028F7D07C
:103F80003148042102F0F4FB3148042102F0F0FB37
:103F900000212F4802F0D2FBAA68D5F89810EB68F0
:103FA000D5ED1C6ADFED2B5A2861521A07EE102A54
:103FB000D5F89C2007EE900A9B1AB8EEE76A07EE48
:103FC000903AB8EEC77AF8EEE77A27EE267A67EEEF
:103FD000A67AD5F8F83285ED067AF1EE476A26EE34
:103FE000256A76EEE76A0122013385F8F52285ED30
:103FF000086AC5ED077AC5ED056AC5F8F83238BD1F
:104000001148042102F0B4FB1148042102F0B0FB76
:10401000D5F8FC320022013385F8F522C5F8FC32D0
:104020008020BDE83840FDF783B80021074802F042
:1040300085FB0346AB600448002102F07FFB03468A
:104040007FE700BF9C390020002401400028014088
:10405000003C01401833533C00B52DED028B87B076
:10406000CDE90210CDED050A8DED041A0192F0EEB6
:10407000408A01F033FAB0EE408AB0EE680A01F0EF
:1040800007FAF6EE007A67EEC06ADFED175A9FED89
:10409000176A9DED041ADDED050A03980299019A4D
:1040A00067EEC87AB0EE667AA8EE257AE8EE656A21
:1040B000F0EE675AE0EE065AE0EE467A21EE477AD5
:1040C00021EE400A21EE661AA8EE200AA5EEA07A9B
:1040D000A7EEA01A80ED000A81ED007A82ED001AA9
:1040E00007B0BDEC028B00BDD7B35DBFD7B35D3F5A
:1040F00000B52DED028B87B0CDE90110CDED050A9D
:104100008DED041ACDED031AF0EE408A01F0E6F9C8
:10411000B0EE408AB0EE680A01F0BAF9B6EE007A65
:1041200067EE486A27EE407ADFED185A9FED186A6D
:104130009DED041ADDED050ADDED031A02980199E3
:10414000F0EE667AB0EE475AA8EE065AE0EE257A0F
:10415000A8EE467A67EE817A21EE451AE0EE656AAE
:10416000E8EE207AA0EE601AE6EEA17AA7EE611AD8
:104170009FED086A67EE867A21EE061AC0ED007A96
:1041800081ED001A07B0BDEC028B00BDD7B35D3FD7
:10419000D7B35DBFABAA2A3F00B52DED0A8BB0EEB9
:1041A000609A85B0F0EE418AF0EE40AAB0EE611A56
:1041B000F0EE680AB0EE490AB0EE618A0192CDE9EC
:1041C000021001F007F9B0EE481AF0EE680AB0EEFE
:1041D00040AAB0EE490A01F0E5F83AEE00AAF6EE80
:1041E000009AAAEE699ADFED24BA9FED24CA9FEDEA
:1041F00024BA29EE299AF0EE4C0A29EE2B9A89EE80
:104200002A0A9FED209A30EE0B0A01F0BBF8F0EE7F
:10421000490A01F0BFF8EAEE698A039880ED000AC6
:1042200068EEA98AF0EE4C0A68EEAB8A88EEAA0A1C
:1042300030EE0B0A01F0A6F8F0EE490A01F0AAF8F8
:10424000AAEE698A029981ED000A28EE298AF0EE29
:104250004C0A28EE2B8A88EE2A0A30EE0B0A01F06F
:1042600091F8F0EE490A01F095F8019A82ED000A02
:1042700005B0BDEC0A8B00BD3333933F0000000056
:10428000D7A3F03ED7A3703FF8B500238365C3657D
:1042900003660446FFF700FE00264FF47A753746A2
:1042A0002046FFF73DFED4E90223013D17441E449A
:1042B000F6D1074B83FB0721FA17C2EBA11283FB50
:1042C0000631F317C3EBA113C4E92623F8BD00BFE1
:1042D000D34D62102DE9F843344A354BDFED356A92
:1042E000DFED355A2DED028BC267C0F8802093EDCB
:1042F000027A324AC0F8842066EEC76AF7EE007A86
:10430000B0EE676AA6EEA56A2D4ADFED2E6A126846
:10431000C0F8C82027EE267AC7EE866A80ED1D7A9F
:1043200077EEE67A80ED1E7AC0ED227A9FED267A4E
:10433000D3ED037AF4EEC77AF1EE10FA33D8234BBB
:10434000DFF89C90DFED228A9FED228A224F0367DF
:104350004FF0804800F1F4050024002607EE904A53
:10436000F8EEE77A013467EEA87AC7EE887A17EE9E
:10437000900AFCF799F841EC100B07F091FD4246CA
:1043800051EC100B4B46FCF7E7F832463B46FBF787
:104390002DFFFCF7D9FB802C45F8040BDED1BDECDA
:1043A000028BBDE8F8830D4BCAE700BFEC51383DE6
:1043B0009C3D0020D1CB0B38DB0FC940BD74933B33
:1043C0009C39002017B7D13800002042FFFFA43CE1
:1043D000000000BC6F12033D0000F03FFFFF243DD2
:1043E0003333F33F10B54FF47A720446002111487D
:1043F00003F0BCFA0F484FF47A72012103F0B6FAC9
:104400004FF47A720B48022103F0B0FA0023002225
:10441000C4F8A430C4F8A830E36323646364C4F828
:104420009030C4F88C3063652365C4F8E830C4F874
:10443000EC2010BD002C014090ED397AD0ED387A97
:1044400090ED3A0ADFED1E0A77EEC77A90ED217AF9
:1044500010B5A7EE270A82B0044680ED3A0A00F0B4
:1044600099FF184BD3ED060AF1EE600A00F08AFFBF
:1044700094ED3C7A84ED3A0A60EE407A84ED290AA4
:10448000E7EE077AF5EE407AF1EE10FA11D4F1EE8C
:10449000E70A94ED2A0ACDED010A00F07BFFDDED7D
:1044A000010AF1EE600A00F06DFF84ED2A0A02B005
:1044B00010BDB0EE670A07F043FDF0EE400AE8E7F2
:1044C000000000009C3D002030B52DED028B91EDE9
:1044D000170A4B6E904D91ED186AD0ED071A90EDCA
:1044E000061AD0ED050AD1ED036A83B0436380ED6F
:1044F0000B0A95ED117AC6EE077A044600F14001E9
:104500003C30C4ED0C7A95ED117AC6EE877AC4ED95
:104510000A7AFFF7EDFD9FED815A94ED087ADFED01
:10452000805AD4ED097A94ED106AD4ED0F6A94EDB7
:10453000114AD4ED124A27EE057A26EE056AA7EE57
:10454000A57A04F1A80104F1A400DFED767A84EDE8
:10455000097A67EE277A66EE856A9FED735AE4EE74
:10456000A56AA4EE256A67EE857ADFED705A84EDC0
:10457000116A67EEA57AC4ED126AC4ED387A95ED3A
:10458000030A84ED3C0A00F03DFFD4ED0F6AD4ED40
:10459000298A94ED1D7A94ED230ADFED657A94ED76
:1045A0002A8AD4ED380A78EEE68AA7EE280A94ED36
:1045B000107A30EE270A38EE478A84ED140A00F0AC
:1045C000E9FED4ED380AF1EE600A00F0DBFED4ED2E
:1045D0001F6A94ED1D7AD4ED237AD4ED380A84ED68
:1045E000140A27EE267AE7EE287AB0EE670AC4EDC1
:1045F000237A00F0CFFED4ED380AF1EE600A00F025
:10460000C1FED4ED147AD4ED380A84ED230A67EEA6
:10461000E77AE0EEA07AF5EE407AF1EE10FA6FD488
:10462000F1EEE78A94ED240AD4ED1E7AD4ED206AE7
:10463000B0EE407AA7EE887A67EEA67ADFED3C6AA4
:10464000A7EE880A77EE267A84ED240AC4ED157A5F
:1046500000F0A0FED4ED380AF1EE600A00F092FE00
:10466000F0EE406A94ED150A94ED147AC4ED246AD4
:1046700060EE007AF0EE680AE7EE077AB1EEE77ACC
:1046800084ED397A00F086FEF1EE680A00F07AFED9
:10469000F0EE407A04F1540194ED380AC4ED157A35
:1046A00004F1500000F0AEFEDFED227A94ED0D7AB9
:1046B00094ED0B0A94ED151AD4ED140AA7EE270A0F
:1046C00004F16C0204F1680104F16400FFF7C4FC1A
:1046D00004F15800D4ED1B1A94ED1A1AD4ED190AFE
:1046E00094ED380A04F1600204F15C01FFF754FD17
:1046F000204603B0BDEC028BBDE83040FFF7CCBBD9
:10470000B0EE670ACDED010A07F01AFCDDED010AF3
:10471000F0EE408A86E700BF9C3D0020CDCCCC3D2A
:104720006666663F3333933FD7A3703F3ACD133F5E
:1047300000000000BAB1513890ED0A7AD0ED337A1A
:10474000D0ED356A90ED370A144BD0ED3C0A77EE88
:10475000C77A90ED347AA6EEA70A10B5D0ED0C7AA0
:10476000D0ED366A37EE677AD3ED0E7AA6EE870A79
:10477000044693ED117A67EE877A80EE270A00F0FF
:1047800009FED4ED3C0AF1EE600A00F0FBFD0023C7
:1047900084ED2A0AC4F8A43010BD00BF9C3D00205F
:1047A0000023C0F8DC30C0F8D430C0F8D830C0F8EE
:1047B000CC30C0F8D030C0F8A830704708B50B48EE
:1047C00001F094FA70B1094801F0C4FA38B1074811
:1047D00001F024FC054801F065FB013808BD0348E1
:1047E00001F01CFC4FF0FF3008BD00BF84390020F1
:1047F00010B54FF4805182B00A4802F07BFC0446A9
:10480000FCF79EFC084A094B094992F8F52293F8F7
:10481000DD3289880092221E18BF012201F002FCBD
:1048200002B010BD0008014084360020643300202F
:104830005833002010B503780446052B2AD8DFE84A
:1048400003F027032A2927271B4B1A891868596860
:10485000FFF79CF8194B93F82220CAB91849194A56
:104860000968916203F50053174893F840CFD3F8D5
:10487000443F1649C0F800C04FF40072436118303D
:1048800004F032FF114912484FF4007204F02CFF7B
:104890000123E37010BD084B0122C27018685968EB
:1048A0001A89FFF773F80B48FFF79CFDBDE810402D
:1048B0000848FFF775BF00BF5833002010020020E2
:1048C0004C3100209C3D00209C39002058310020B4
:1048D000403400208436002008B50D4804F096FED0
:1048E0000C4804F093FE0C4804F090FE0B4804F0D2
:1048F0008DFE0B4804F08AFE0A4804F087FE0A4841
:1049000004F084FEBDE80840084804F07FBE00BF04
:1049100098C8000864CB000870CB000884CB00085E
:10492000A0CB0008B0CB0008C8CB0008E4CB00083F
:1049300030B56C486C4C6D4D85B004F0FFFD6C4893
:104940006C4B6D4A6D49CDE900046D4C6D4804F027
:10495000F5FD6D4804F05AFE606CFBF7A5FD6B4A4F
:104960006B4B0095CDE902016A496B4804F0E6FD06
:10497000A06BFBF799FD694A654B0095CDE90201F3
:104980006749684804F0DAFD674804F03FFEA06814
:10499000FBF78AFD654B664A0093CDE90201654B42
:1049A0006549664804F0CAFDE068FBF77DFD644B8D
:1049B000644A0093CDE90201634B64495F4804F007
:1049C000BDFD206DFBF770FD2B46CDE90201604A6D
:1049D00000956049594804F0B1FDA06DFBF764FDF6
:1049E0002B46CDE902015C4A00955C4953485C4D79
:1049F00004F0A4FDE06DFBF757FD5A4B5A4A0093B3
:104A0000CDE90201504B59494C4804F097FD206E06
:104A1000FBF74AFD564B574A0093CDE902014A4B3A
:104A20005549464804F08AFDA069FBF73DFD534B0C
:104A3000534A0093CDE90201434B52493F4804F0E9
:104A40007DFD206AFBF730FD4F4B504A0093CDE9C6
:104A500002012F4B4E49394804F070FD606AFBF7A4
:104A600023FD4C4B4C4A0093CDE90201364B4B4998
:104A7000324804F063FDA06C494CFBF715FDCDE90D
:104A800002014849304B484A00912C48474904F0FC
:104A900055FD474804F0BAFD6368464A4649474811
:104AA000CDE900531A4B04F049FDA3680193444A31
:104AB000174B44490095414804F040FDE068424BE3
:104AC000424A4349CDE90030114B424804F036FDDB
:104AD000414804F033FD414805B0BDE8304004F0E2
:104AE0002DBD00BFFCCB000850CC0008A4CC0008B2
:104AF00060CC000818CC00081CCC000828CC0008AA
:104B00009C3D002030CC000864CC000874CC000828
:104B100070CC000880CC000884CC0008A8CC000829
:104B2000C0CC0008C4CC0008E4CC000834CD000898
:104B3000F8CC0008F4CC000810CD000814CD000813
:104B400058CD000840CD00083CCD000854CD0008E9
:104B500060CD00087CCD000880CD0008A0CD000805
:104B6000BCCE0008C4CD0008A4CD0008C0CD00080C
:104B7000F0CD0008CCCD0008ECCD000810CE000828
:104B8000F4CD00080CCE000838CE000818CE00087E
:104B900034CE000858CE00083CCE000854CE0008A1
:104BA0009C3900207CCE000860CE000878CE00083A
:104BB00084CE000890CE000898CE00089CCE000855
:104BC000C0CE0008CCCE000810CF0008D0CE000820
:104BD000F0CE0008F4CE000818CF000864CF00081B
:104BE00000B5037883B0042B2BD8DFE803F02C202A
:104BF000082A030003B05DF804EBFFF799BE0190AB
:104C0000FFF7F6FD034600284CD12A480193C0F86F
:104C1000B830FFF7E7FB2849019A088960F30F02D3
:104C20000868496803B05DF804EBFEF77BBD0190AE
:104C3000FFF7DEFD034658B1019A002101235170B0
:104C4000D37003B000BD03B05DF804EBFFF744BEC2
:104C50001A4ADFF870C01A49DCF828C0A2F82130DF
:104C600002F50050137400F63C720193C2F800C0C4
:104C70004B690A6880F8402FC0F8443F18314FF460
:104C8000007200F6487004F02FFDDFF83CC0019B75
:104C9000CCF8D8304FF4007219460CF1DC0004F067
:104CA000D6FCB8E701210620FDF726F90148FFF7F9
:104CB00077FDC1E784360020583300201002002021
:104CC0009C3900209C3D0020643300202DE9F041F8
:104CD000037842789A42044629D1022B1CD0052B36
:104CE00012D0012B21D1594A92F82130002B4CD0FF
:104CF00092F82230002B56D155495648D1F8B4309D
:104D0000BDE8F041FEF78AB9514B5248D3F8B410D0
:104D1000BDE8F04100F028BF4F4B186859681A8968
:104D2000FEF732FDFEF72AFE40B9BDE8F081FFF73D
:104D300081FDE378002B30D12378CEE7474BDA684A
:104D4000002A04DD4249D1F8B8108A4273DBFFF72C
:104D50004FFD002860D13E48FFF7EEFC3C48FFF7CE
:104D60006BFB3C493A48FFF7AFFB6378022BDCD181
:104D70003A4BDB68002BD8DD3549D1F8B820934297
:104D8000D3DB0132C1F8B820CFE731493148D1F83F
:104D9000B430BDE8F041FEF76BB86378237020466D
:104DA000FFF71EFFC8E7D3692A4E2C4F96ED1A7AFB
:104DB0009FED2B0A7B615A4207EE902AF8EEE77AC4
:104DC000F7EE000A67EE877A1D4627EE800A07F0A5
:104DD0003BF8DFED247A60EE277A17EE900AFBF7B6
:104DE00063FB0B46024629461F4804F0A7FB1F49F8
:104DF0004FF4007206F1DC0004F076FC1B494FF41E
:104E0000007207F1180004F06FFCFFF7D7FCC8B977
:104E100000236370E37088E700210620FDF76CF83B
:104E20000D4B1A8918685968FEF7B0FD002201235E
:104E30006270E37079E70520FDF75EF80448FFF73C
:104E4000AFFCEDE70A4804F0E1FBE1E710020020C7
:104E50008436002064330020583300209C39002021
:104E600000008037DB0FC94090CF00083C2C0020A9
:104E7000A4CF000838B5417BA1F161030446172B8C
:104E800019D8DFE813F028004700660085001800F5
:104E9000A000BF00DA00F900180004011F013E0164
:104EA00018001800490118001800180068011800BF
:104EB000730118009201CF4804F040FB251DFFF755
:104EC0007DFC002840F08C81FFF732FD0023A38198
:104ED00063606B6038BD051D284602F068FF51EC29
:104EE000100BFBF731FEF3EE040A00EE100A07F098
:104EF00075FBDFEDC10A07F049FBC04B10EE100A4D
:104F000083ED120AFBF7D0FA02460B46BC4804F0C8
:104F100015FBD4E7051D284602F049FF51EC100BA4
:104F2000FBF712FEDFEDB70A00EE100A07F056FBA2
:104F3000DFEDB50A07F02AFBB04B10EE100A83ED47
:104F4000020AFBF7B1FA02460B46B04804F0F6FA43
:104F5000B5E7051D284602F02AFF51EC100BFBF7C0
:104F6000F3FDDFEDAB0A00EE100A07F037FBDFEDD3
:104F7000A20A07F00BFBA14B10EE100A83ED090A01
:104F8000FBF792FA02460B46A24804F0D7FA96E7DE
:104F9000051D284602F00BFF51EC100BFBF7D4FD6A
:104FA000DFED950A00EE100A07F0F0FA934B10EED1
:104FB000100A83ED180AFBF777FA02460B4696486B
:104FC00004F0BCFA7BE7051D284602F0F0FE51EC28
:104FD000100BFBF7B9FDDFED910A00EE100A07F0A8
:104FE000FDFADFED850A07F0D1FA844B10EE100AC6
:104FF00083ED060AFBF758FA02460B46884804F090
:105000009DFA5CE7051D284602F0D1FE51EC100B1D
:10501000FBF79AFDDFED830A00EE100A07F0B6FAFF
:10502000764B10EE100A83ED110AFBF73DFA0246AB
:105030000B467D4804F082FA41E7051D284602F040
:10504000B6FE51EC100BFBF77FFDDFED780A00EEAA
:10505000100A07F0C3FADFED680A07F097FA674B0A
:1050600010EE100A83ED080AFBF71EFA02460B4603
:105070006F4804F063FA22E7051D284602F09AFE05
:105080006C4B014659606C4804F058FA17E7051D4F
:10509000284602F08CFE51EC100BFBF755FDDFEDBE
:1050A000670A00EE100A07F071FA544B10EE100A6E
:1050B00083ED0E0AFBF7F8F902460B46604804F050
:1050C0003DFAFCE6051D284602F071FE51EC100B7E
:1050D000FBF73AFDDFED5B0A00EE100A07F07EFAFF
:1050E000DFED450A07F052FA444B10EE100A83ED4B
:1050F000030AFBF7D9F902460B46534804F01EFA9F
:10510000DDE6051D284602F055FE4A4B0146996032
:105110004E4804F013FAD2E6051D284602F047FE79
:1051200051EC100BFBF710FDDFED330A00EE100A17
:1051300007F02CFA314BF1EE407A83ED140AC3EDFF
:10514000137A10EE100AFBF7AFF902460B464048FF
:1051500004F0F4F9B3E6051D284602F02BFE354BAA
:105160000146D9603B4804F0E9F9A8E6051D284648
:1051700002F01DFE51EC100BFBF7E6FCDFED1E0A02
:1051800000EE100A07F002FA1C4BF1EE407A83EDB4
:10519000160AC3ED157A10EE100AFBF785F90246E0
:1051A0000B462D4804F0CAF989E6051D284602F091
:1051B000FEFD51EC100BFBF7C7FCDFED0F0A00EE14
:1051C000100A07F0E3F90D4B10EE100A83ED170AF1
:1051D000FBF76AF902460B46204804F0AFF96EE689
:1051E0001F4804F013FAFFF7A3FB0023A3816360B9
:1051F0006B6038BD14D10008000000009C3D002009
:1052000090D000080000FA440000C842DCCF00083B
:105210000000204278D00008D8D0000800000442E6
:1052200030D000086F12833AA4D000080000164363
:1052300060D000089C390020F0CF000817B7D138A3
:10524000B4D00008000070421CD0000804D0000850
:10525000ECD0000848D0000800D10008C4D00008F5
:10526000A4CF00081B2908B5034645D06D29027854
:1052700046D052B1042A07D10D294BD0027B002A17
:1052800045D1417301321A7308BD63391729FBD820
:1052900001A252F821F000BF1D53000889520008F6
:1052A00027530008895200088952000889520008D3
:1052B0008952000889520008895200088952000862
:1052C0008952000889520008895200088952000852
:1052D0008952000889520008315300088952000899
:1052E0008952000889520008895200088952000832
:1052F000895200083B53000800224270C27008BD6A
:1053000002218A424170BFD00022C27008BD104401
:10531000C170B7E7BDE80840FFF7ACBD012100222E
:105320004170C27008BD052100224170C27008BDE5
:10533000042100224170C27008BD0D489FED0D0A86
:105340000023C0F8D43000F0B3FA09480A4B826F4A
:105350001A61FFF733FA084B28B919690748BDE805
:10536000084004F0EBB8064804F050F9024BF4E7AB
:1053700064330020D1CB0B389C3900206CD100085D
:105380003CD10008B4EEE00AF1EE10FAD8BFB0EE5E
:10539000600A7047F4EEC00AF1EE10FAD8BFB0EE22
:1053A000600A7047B4EEE00AF1EE10FA07DDB4EEE1
:1053B000C10AF1EE10FAD8BFB0EE410A7047F4EE20
:1053C000C10AF1EE10FAD4BFB0EE410AB0EE600AA5
:1053D000704700BFB4EEE00AF1EE10FA07D5B4EE64
:1053E000C01AF1EE10FAD8BFB0EE410A7047B4EE21
:1053F000E01AF1EE10FAD4BFB0EE410AB0EE600A46
:10540000704700BFD1ED007A90ED007A67EEA77A81
:10541000E7EE077AF1EEE76AF4EEC06AF1EE10FA11
:105420000DDD27EE007AC7EE267AC0ED007AD1EDC9
:10543000007A20EE270AC0EE267AC1ED007A704786
:1054400001238340013B07EE903A30EE600AF8EE0C
:10545000E77A31EE601A67EE807A87EE817AFDEEA8
:10546000C77A17EE900A704707EE900A012370EE94
:10547000C00AF8EEE77A8B40013B27EEA07A07EEF0
:10548000903AF8EEE77AC7EE276A36EE800A704760
:1054900000B5DFED0F0A83B0CDED010A06F0D4FCB4
:1054A000B5EEC00AF1EE10FA03D5DDED010A30EEDB
:1054B000200ADFED087A084B20EE270ABDEEC00A6D
:1054C00010EE102A03EB820393ED000A03B000BD37
:1054D000DB0FC94083F9A24244D2000800B5DFEDDA
:1054E000117ADFED110A83B037EEC00ACDED010A63
:1054F00006F0AAFCB5EEC00AF1EE10FA03D5DDED18
:10550000010A30EE200ADFED097A094B20EE270A66
:10551000BDEEC00A10EE102A03EB820393ED000AE1
:1055200003B000BDDB0FC93FDB0FC94083F9A242C6
:1055300044D2000870B5054684B035480E464FF495
:10554000004101F0CFFD00230393039B3F2B06D8BE
:1055500000BF039B01330393039B3F2BF8D940F615
:10556000010401E0013C3ED02A48022101F0BEFFC7
:105570000028F7D02748294601F0B2FF40F6010481
:1055800001E0013C3ED02348012101F0AFFF00289B
:10559000F7D0204801F0A6FF40F60104308001E07A
:1055A000013C32D01B48802101F0A0FF0128F7D038
:1055B00000230293029B3F2B4FF000041AD914489A
:1055C0004FF4004101F08CFD00230193019B3F2B20
:1055D00006D800BF019B01330193019B3F2BF8D9F3
:1055E000204604B070BD4FF0FF3400230293029BAD
:1055F0003F2BE4D800BF029B01330293029B3F2B59
:10560000F8D9DCE76FF00104EFE76FF00204ECE794
:1056100000080140003C0040F0B5064683B0084653
:105620001746FCF7DDFB044643F6FF70FCF7D8FB9A
:1056300001A905462046FFF77DFF48BB0DF1060195
:105640002846FFF777FF18BBBDF806402046FCF759
:10565000E3FB431CA6F8E0420BD0023012D0C4F3A7
:105660000D043C8001A92846FFF764FF80B903B010
:10567000F0BDD6F800330133C6F800336FF00100F7
:1056800003B0F0BDD6F804330133C6F80433F5E7B0
:10569000D6F8FC3201334FF48070C6F8FC32FBF7C9
:1056A00047FD4FF0FF30E2E770B5002182B00646BB
:1056B0000120FCF7A5FB044643F6FF70FCF790FBC6
:1056C0000DF1060105462046FFF734FF38B90DF10C
:1056D00006012846FFF72EFF08B902B070BDD6F8C4
:1056E000FC3201334FF48070C6F8FC32FBF720FD2A
:1056F0004FF0FF30F1E700BF10B582B00DF10202AC
:1057000043F6FC710446FFF787FFF0B901AA43F6A0
:10571000FD712046FFF780FFB8B90DF106020121A7
:105720002046FFF779FF80B9BDF80630BDF80210BA
:10573000BDF80420A4F8EA32A4F8E612A4F8E8229E
:10574000012384F8DE3202B010BD00234FF0FF3099
:10575000F7E700BF2DE9F04F044687B043F6FF702E
:105760000E46FCF73DFB4FF0000807462046FFF7CA
:105770009BFF4645A4F8DD82A4F8EC8240F38380C9
:105780000123CDF8088003939A46C1460DF1160116
:105790003846FFF7CFFE90BB012E44D04FF0010BEF
:1057A00000250DF116013846FFF7C4FE48BBBDF8D1
:1057B000168001904046FCF72FFB431C019AA4F889
:1057C000E082C8F30D0C05F101053AD0023054D047
:1057D0000BF1010B5E45A4F8E2C284F8DDA2A4F847
:1057E000EC22DED11F2D1ED92046FFF785FFB0FA2F
:1057F00080F0400984F8DE0207B0BDE8F08F4FF07A
:10580000000BD4F8FC12B4F8EC2284F8DD920BF112
:10581000010B0131013201235E45C4F8FC12A4F8EA
:10582000EC220293BCD1039D032D1AD0142000F06A
:105830008BFC6B1C03930023A4F8DD32A4F8EC323C
:10584000A4E7D4F800230132C4F800230BF1010BC4
:105850005E454FF0000584F8DD92A2D1039D032D33
:10586000E4D1029A002384F8DD329A4214BF4FF447
:1058700080704020FBF75CFCB6E7D4F804230132CB
:10588000C4F80423E2E70125032D4FF014000CD0E7
:10589000013500F059FC4FF00003032DA4F8DD3270
:1058A000A4F8EC824FF01400F2D100230293D8E761
:1058B00070B52DED028B044684B043F6FF70B0EE58
:1058C000408AFCF78DFAD4F8F03201330DF10E0165
:1058D000C4F8F032FFF72EFE002840F0C380BDF878
:1058E0000E30019305461846FCF796FA019BA4F882
:1058F000E032421C00F00881023000F0DD80D4F874
:10590000F422C3F30D06002A40F0ED80002366F375
:105910000F03D4ED016A012166F31F43B5000A4469
:10592000C4F8E232002384F8DD12C4F8F422A4F8AB
:10593000EC32C4ED026A4C2204F10C01656704F1FB
:105940001000CDED016A03F069FE6B125A1C02F0E3
:105950007F0204EB830304EB8202D3F8DC30D2F83D
:10596000DC209FED7B6ADDED016AC5F30801D21AE8
:1059700001FB02F203EB62232B447649A3670A6919
:105980009A1A07EE102ABAEEC87AFDEEC77AF8EE38
:10599000E77A37EE677A27EE067AB5EEC07AF1EE4F
:1059A00010FA01D537EE067A4A6994ED1A6ADFEDEE
:1059B0006A5A9FED675A84ED017A9B1A07EE903A76
:1059C000F8EEE77A67EE867A67EEA57AFDEEE75A9B
:1059D000F8EEE55A77EEE57A67EE857AF5EEC07A6D
:1059E000F1EE10FA01D577EE857A77EE666ADFED93
:1059F0005B5AC4ED177AF4EEE56AF1EE10FA48DC72
:105A0000DFED577AD4F8801094F8DC22F4EEE76AE0
:105A1000F1EE10FA4CBF012300230B44C4F8803090
:105A2000002A41D007EE903ADFED496AF8EEE77AB6
:105A300067EEA67A37EE277AD4ED166A84ED037AFC
:105A4000F3EE037A77EE666A68EE277A86EEA77A37
:105A500026EE076A84ED187A84ED196A04B0BDEC6D
:105A6000028B70BDD4E9BE21B4F8EC3201310132B1
:105A7000C4E9BE210020013384F8DD02A4F8EC3231
:105A80004FF4807004B0BDEC028BBDE87040FBF7B2
:105A90004FBBD4F8801094F8DC224FF0FF330B4456
:105AA000C4F88030002ABDD10123DFED2E7AC4F87E
:105AB000802084F8DC32BDE7D4F804330133C4F825
:105AC0000433B4F8EC32D4F8F82201339BB201323B
:105AD0000021022BC4F8F822A4F8EC3284F8DD127D
