:020000040800F2
:1000000000000120516A00087D4F0008814F000860
:100010008D4F0008994F0008A54F00080000000010
:10002000000000000000000000000000B14F0008C8
:10003000B54F000800000000B94F0008BD4F000890
:10004000A16A0008A16A0008A16A0008A16A000864
:10005000A16A0008A16A0008A16A0008A16A000854
:10006000A16A0008A16A0008A16A0008A16A000844
:10007000A16A0008A16A0008A16A0008A16A000834
:10008000A16A0008A16A0008A16A0008A16A000824
:10009000C14F0008A16A0008A16A0008A16A00080F
:1000A000A16A0008A9500008A16A0008A16A000816
:1000B000A16A0008A16A0008A16A0008A16A0008F4
:1000C000A16A0008A16A0008A16A0008A16A0008E4
:1000D000A16A0008A16A00085D510008A16A000831
:1000E00019510008A16A0008A16A0008A16A000865
:1000F000A16A0008A16A0008A16A0008A16A0008B4
:10010000A16A0008A16A0008A16A0008A16A0008A3
:10011000A16A0008A16A0008A16A0008A16A000893
:10012000A16A0008A16A0008A16A0008A16A000883
:1001300001F0FF01102A2BDB10F0070F08D010F898
:10014000013B013A8B422DD010F0070F42B3F6D19C
:10015000F0B441EA012141EA014122F007047FF0B5
:1001600000070023F0E80256083C85EA010586EA0C
:10017000010685FA47F5A3FA87F586FA47F6A5FA48
:1001800087F68EB9EED1F0BC01F0FF0102F0070254
:1001900032B110F8013B013A83EA010313B1F8D1FF
:1001A0000020704701387047002D06BF35460338E0
:1001B000073815F0010F07D1013015F4807F02BF19
:1001C000013015F4C03F0130F0BC0138704700BF6A
:1001D000034613F8012B002AFBD1181A0138704787
:1001E00081F0004102E000BF83F0004330B54FEAE8
:1001F00041044FEA430594EA050F08BF90EA020F55
:100200001FBF54EA000C55EA020C7FEA645C7FEAE7
:10021000655C00F0E2804FEA5454D4EB5555B8BF0A
:100220006D420CDD2C4480EA020281EA030382EA7B
:10023000000083EA010180EA020281EA0303362D0D
:1002400088BF30BD11F0004F4FEA01314FF4801CE0
:100250004CEA113102D0404261EB410113F0004FF2
:100260004FEA03334CEA133302D0524263EB4303A9
:1002700094EA050F00F0A780A4F10104D5F1200E47
:100280000DDB02FA0EFC22FA05F2801841F10001A2
:1002900003FA0EF2801843FA05F359410EE0A5F176
:1002A00020050EF1200E012A03FA0EFC28BF4CF0A7
:1002B000020C43FA05F3C01851EBE37101F000455D
:1002C00007D54FF0000EDCF1000C7EEB00006EEB6A
:1002D0000101B1F5801F1BD3B1F5001F0CD34908F4
:1002E0005FEA30004FEA3C0C04F101044FEA44524B
:1002F00012F5800F80F09A80BCF1004F08BF5FEAD2
:10030000500C50F1000041EB045141EA050130BDB1
:100310005FEA4C0C404141EB0101013C28BFB1F5C3
:10032000801FE9D291F0000F04BF01460020B1FA0E
:1003300081F308BF2033A3F10B03B3F120020CDAE1
:100340000C3208DD02F1140CC2F10C0201FA0CF0BF
:1003500021FA02F10CE002F11402D8BFC2F1200C24
:1003600001FA02F120FA0CFCDCBF41EA0C019040DA
:10037000E41AA2BF01EB0451294330BD6FEA040423
:100380001F3C1CDA0C340EDC04F11404C4F120020E
:1003900020FA04F001FA02F340EA030021FA04F320
:1003A00045EA030130BDC4F10C04C4F1200220FA77
:1003B00002F001FA04F340EA0300294630BD21FAB5
:1003C00004F0294630BD94F0000F83F4801306BF7B
:1003D00081F480110134013D4EE77FEA645C18BF6F
:1003E0007FEA655C29D094EA050F08BF90EA020F06
:1003F00005D054EA000C04BF1946104630BD91EAFE
:10040000030F1EBF0021002030BD5FEA545C05D100
:100410004000494128BF41F0004130BD14F580043F
:100420003CBF01F5801130BD01F0004545F0FE41B3
:1004300041F470014FF0000030BD7FEA645C1ABFE8
:10044000194610467FEA655C1CBF0B46024650EA1F
:10045000013406BF52EA033591EA030F41F400214B
:1004600030BD00BF90F0000F04BF0021704730B5D1
:100470004FF4806404F132044FF000054FF00001A6
:1004800050E700BF90F0000F04BF0021704730B567
:100490004FF4806404F1320410F0004548BF40423C
:1004A0004FF000013EE700BF42004FEAE2014FEA91
:1004B00031014FEA02701FBF12F07F4393F07F4F6C
:1004C00081F06051704732F07F4208BF704793F06F
:1004D0007F4F04BF41F40021704730B54FF4607482
:1004E00001F0004521F000411CE700BF50EA010285
:1004F00008BF704730B54FF000050AE050EA01022E
:1005000008BF704730B511F0004502D5404261EB9D
:1005100041014FF4806404F132045FEA915C3FF4DE
:10052000D8AE4FF003025FEADC0C18BF03325FEA7B
:10053000DC0C18BF033202EBDC02C2F1200300FA2C
:1005400003FC20FA02F001FA03FE40EA0E0021FA51
:1005500002F11444BDE600BF70B54FF0FF0C4CF43F
:10056000E06C1CEA11541DBF1CEA135594EA0C0FF1
:1005700095EA0C0F00F0DEF82C4481EA030621EA2C
:100580004C5123EA4C5350EA013518BF52EA033567
:1005900041F4801143F4801338D0A0FB02CE4FF019
:1005A0000005E1FB02E506F00042E0FB03E54FF049
:1005B0000006E1FB03569CF0000F18BF4EF0010E41
:1005C000A4F1FF04B6F5007F64F5407404D25FEA3D
:1005D0004E0E6D4146EB060642EAC62141EA5551F0
:1005E0004FEAC52040EA5E504FEACE2EB4F1FD0C32
:1005F00088BFBCF5E06F1ED8BEF1004F08BF5FEAB0
:10060000500E50F1000041EB045170BD06F0004661
:1006100046EA010140EA020081EA0301B4EB5C040E
:10062000C2BFD4EB0C0541EA045170BD41F4801106
:100630004FF0000E013C00F3AB8014F1360FDEBF2B
:10064000002001F0004170BDC4F10004203C35DA07
:100650000C341BDC04F11404C4F1200500FA05F38A
:1006600020FA04F001FA05F240EA020001F000422B
:1006700021F0004110EBD37021FA04F642EB0601A1
:100680005EEA430E08BF20EAD37070BDC4F10C04CB
:10069000C4F1200500FA04F320FA05F001FA04F28F
:1006A00040EA020001F0004110EBD37041F100017B
:1006B0005EEA430E08BF20EAD37070BDC4F1200586
:1006C00000FA05F24EEA020E20FA04F301FA05F2EE
:1006D00043EA020321FA04F001F0004121FA04F296
:1006E00020EA020000EBD3705EEA430E08BF20EA66
:1006F000D37070BD94F0000F0FD101F000464000A0
:1007000041EB010111F4801F08BF013CF7D041EA21
:10071000060195F0000F18BF704703F00046520025
:1007200043EB030313F4801F08BF013DF7D043EAF6
:100730000603704794EA0C0F0CEA135518BF95EAAC
:100740000C0F0CD050EA410618BF52EA4306D1D133
:1007500081EA030101F000414FF0000070BD50EA52
:10076000410606BF1046194652EA430619D094EADC
:100770000C0F02D150EA013613D195EA0C0F05D1C6
:1007800052EA03361CBF104619460AD181EA03011A
:1007900001F0004141F0FE4141F470014FF00000D2
:1007A00070BD41F0FE4141F4780170BD70B54FF06D
:1007B000FF0C4CF4E06C1CEA11541DBF1CEA1355ED
:1007C00094EA0C0F95EA0C0F00F0A7F8A4EB0504CF
:1007D00081EA030E52EA03354FEA013100F08880C6
:1007E0004FEA03334FF0805545EA131343EA12638F
:1007F0004FEA022245EA111545EA10654FEA002644
:100800000EF000419D4208BF964244F1FD0404F5FC
:10081000407402D25B084FEA3202B61A65EB030558
:100820005B084FEA32024FF480104FF4002CB6EB15
:10083000020E75EB030E22BFB61A754640EA0C0095
:100840005B084FEA3202B6EB020E75EB030E22BFD5
:10085000B61A754640EA5C005B084FEA3202B6EB16
:10086000020E75EB030E22BFB61A754640EA9C00D5
:100870005B084FEA3202B6EB020E75EB030E22BFA5
:10088000B61A754640EADC0055EA060E18D04FEA63
:10089000051545EA16754FEA06164FEAC30343EA03
:1008A00052734FEAC2025FEA1C1CC0D111F4801FD0
:1008B0000BD141EA00014FF000004FF0004CB6E7C9
:1008C00011F4801F04BF01430020B4F1FD0C88BF68
:1008D000BCF5E06F3FF6AFAEB5EB030C04BFB6EB73
:1008E000020C5FEA500C50F1000041EB045170BD66
:1008F0000EF0004E4EEA113114EB5C04C2BFD4EB93
:100900000C0541EA045170BD41F480114FF0000E16
:10091000013C90E645EA060E8DE60CEA135594EA92
:100920000C0F08BF95EA0C0F3FF43BAF94EA0C0F95
:100930000AD150EA01347FF434AF95EA0C0F7FF40A
:1009400025AF104619462CE795EA0C0F06D152EA5E
:1009500003353FF4FDAE1046194622E750EA410642
:1009600018BF52EA43067FF4C5AE50EA41047FF453
:100970000DAF52EA43057FF4EBAE12E74FF0FF3CB8
:1009800006E000BF4FF0010C02E000BF4FF0010C89
:100990004DF804CD4FEA410C7FEA6C5C4FEA430C02
:1009A00018BF7FEA6C5C1BD001B050EA410C0CBF51
:1009B00052EA430C91EA030F02BF90EA020F0020B3
:1009C000704710F1000F91EA030F58BF994208BF1A
:1009D00090422CBFD8176FEAE37040F001007047D7
:1009E0004FEA410C7FEA6C5C02D150EA013C07D12E
:1009F0004FEA430C7FEA6C5CD6D152EA033CD3D079
:100A00005DF8040B704700BF8446104662468C4672
:100A10001946634600E000BF01B5FFF7B7FF0028A5
:100A200048BF10F1000F01BD4DF808EDFFF7F4FFCE
:100A30000CBF012000205DF808FB00BF4DF808ED59
:100A4000FFF7EAFF34BF012000205DF808FB00BF7C
:100A50004DF808EDFFF7E0FF94BF012000205DF89E
:100A600008FB00BF4DF808EDFFF7CEFF94BF012053
:100A700000205DF808FB00BF4DF808EDFFF7C4FF4C
:100A800034BF012000205DF808FB00BF4FEA410C95
:100A90007FEA6C5C02D150EA013C0AD14FEA430C78
:100AA0007FEA6C5C02D152EA033C02D14FF00000B5
:100AB00070474FF0010070474FEA410212F50012F3
:100AC00015D211D56FF47873B3EB625212D94FEA95
:100AD000C12343F0004343EA505311F0004F23FA7F
:100AE00002F018BF404270474FF00000704750EAD4
:100AF000013005D111F0004008BF6FF00040704791
:100B00004FF00000704700BF4A0011D212F50012EA
:100B100011D20DD56FF47873B3EB62520ED44FEA55
:100B2000C12343F0004343EA505323FA02F07047D5
:100B30004FF00000704750EA013002D14FF0FF3013
:100B400070474FF0000070474FEA4102B2F1E043B6
:100B500024BFB3F5001CDCF1FE5C0DD901F0004CA4
:100B60004FEAC0024CEA5070B2F1004F40EB8300F4
:100B700008BF20F00100704711F0804F21D113F120
:100B80003872BCBF01F00040704741F480114FEA59
:100B90005252C2F11802C2F1200C10FA0CF320FAE2
:100BA00002F018BF40F001004FEAC1234FEAD323FF
:100BB00003FA0CFC40EA0C0023FA02F34FEA430369
:100BC000CCE77FEA625307D150EA01331EBF4FF0F2
:100BD000FE4040F44000704701F0004040F0FE400D
:100BE00040F40000704700BF0348044B834202D02A
:100BF000034B03B118477047CC010020CC01002003
:100C0000000000000548064B1B1AD90F01EBA30199
:100C1000491002D0034B03B118477047CC010020A4
:100C2000CC0100200000000010B5064C237843B929
:100C3000FFF7DAFF044B13B10448AFF30080012340
:100C4000237010BDCC0100200000000054B4000847
:100C500008B5054B1BB105490548AFF30080BDE859
:100C60000840FFF7CFBF00BF00000000D001002008
:100C700054B4000808B5012005F0DCF94FF4C06059
:100C800005F0AEF940F2026005F0AAF940F2036007
:100C900005F0A6F940F2046005F0A2F94FF4A06057
:100CA00005F09EF940F2015005F09AF940F21970F2
:100CB00005F096F940F20E7005F092F940F20F70CF
:100CC00005F08EF940F20B6005F08AF940F20960F8
:100CD00005F086F940F20A6005F082F940F20F60F3
:100CE00005F07EF9BDE8084040F2117005F078B9D2
:100CF000F8B504F0E7F8FFF7BDFF00F031FA01F0B6
:100D000081F901F0EBF800F03BFC01F099F801F0FB
:100D1000BFF800F0CDFA00F0B9FB01F0A9FFC6481A
:100D200007F0F0FAC54807F0EDFA0123002202218E
:100D3000C34807F07FFAC348062103F0A9FEC14863
:100D400003F090FF002800F0BD81BF4DBF4C6B69E0
:100D5000D4ED027A013304BF00236B612B690133A8
:100D600008BF0023F4EE677A08BF2B61F1EE10FA9A
:100D700080F1A581BFEE007AF4EE477AF1EE10FA29
:100D800000F09D81D4ED037AF4EE677AF1EE10FA6B
:100D900080F19281BFEE007AF4EE477AF1EE10FA1C
:100DA00000F08A81D4ED067AF4EE677AF1EE10FA5B
:100DB00080F17F81BFEE007AF4EE477AF1EE10FA0F
:100DC00000F077816B68D4ED077A013304BF01230B
:100DD0006B60AB68013304BF0023AB60EB68013389
:100DE00008BF4FF47A73F4EE677A08BFEB60F1EE58
:100DF00010FA80F15B81BFEE007AF4EE477AF1EEF3
:100E000010FA00F05381D4ED087AF4EE677AF1EE2F
:100E100010FA80F14881BFEE007AF4EE477AF1EEE5
:100E200010FA00F04081D4ED097AF4EE677AF1EE21
:100E300010FA80F13581BFEE007AF4EE477AF1EED8
:100E400010FA00F02D81D4ED127AF4EE677AF1EE0B
:100E500010FA80F12281BFEE007AF4EE477AF1EECB
:100E600010FA00F01A81D4ED0A7AF4EE677AF1EE06
:100E700010FA80F10F81BFEE007AF4EE477AF1EEBE
:100E800010FA00F00781D4ED117AF4EE677AF1EEF2
:100E900010FA80F1FB80BFEE007AF4EE477AF1EEB3
:100EA00010FA00F0F380D4ED0E7AF4EE677AF1EEEA
:100EB00010FA80F1BC80BFEE007AF4EE477AF1EED2
:100EC00010FA00F0B480D4ED177AF4EE677AF1EE00
:100ED00010FA80F1A980BFEE007AF4EE477AF1EEC5
:100EE00010FA00F0A180D4ED187AF4EE677AF1EEF2
:100EF00010FA80F19680BFEE007AF4EE477AF1EEB8
:100F000010FA00F08E80D4ED147A5148514EF4EE70
:100F1000677AD4ED137AF1EE10FA64BF4E4B236575
:100F2000F4EE677AD4ED167AF1EE10FA64BF4B4B0B
:100F3000E364F4EE677AD4ED157AF1EE10FA64BF4B
:100F4000474BA365F4EE677AF1EE10FA64BF454BA8
:100F5000636502F027F900214FF44472424807F01C
:100F6000F2F96A69A36AC6F8D82064202A69C6F82B
:100F7000D420B36603F0C8FF3046642103F0CCFAF6
:100F800006F1DC00394E3A494FF4007207F028FAB6
:100F900096E8070001F0B8FD002840F09B80354836
:100FA000354F00F00DFB354800F024FB00221146C0
:100FB000192004F0C3FF01220021282004F0BEFF05
:100FC00002220021142004F0B9FF00220221262071
:100FD00004F0B4FF0024062201233A80FB7025466A
:100FE0000AE027484FF40051C4B93B78022B15D0D2
:100FF00004F01CFF84F001044FF47A7003F084FFC6
:10100000B3880135002BECD096E807002B4601F0A1
:1010100091FC1B484FF40051002CE6D004F004FF73
:10102000E8E7184B23666EE7174BE3655BE74FF085
:101030007E53A36347E700BF88B4000894B4000858
:10104000B4B400087837002090370020903B00208F
:10105000783400205831002000004841000048C189
:1010600000008242000082C23C2E00204C31002051
:10107000A8370020E801002068340020FC0100208F
:10108000001001400000A0400000FA434FF07E53E2
:10109000636408E7114BA362F5E6114BA364E2E633
:1010A000104B6362CFE6104B2362BCE60023E36182
:1010B000A9E60023A36185E60C4BE36072E60C4BC6
:1010C000A3605FE60B490C4800F05CFB0B4807F09F
:1010D00019F93AE60A4807F015F960E70000A84157
:1010E0000000A040000060410000FA4200002042E1
:1010F00000007A44903B002090370020D0B40008D4
:1011000020B5000808B50D484FF4006104F08EFECC
:101110000B48002105F094F900221146084805F01B
:10112000C9FA07480022012105F0C4FABDE80840C9
:1011300003480022022105F0BDBA00BF00080140AB
:10114000002C0140024A136803431360FFF7DABF23
:10115000903C0020014B1868704700BF903C002075
:1011600010B54E48012104F075FE4D48012104F0F0
:1011700071FE4C484FF4A0530122182104F0FEFDEB
:1011800048484FF400630122042104F0F7FD4FF4B6
:10119000004301224448102104F0F0FD42484FF47E
:1011A000004104F041FE41484FF420430122182140
:1011B00004F0E4FD3D484FF480430122482104F04F
:1011C000DDFD4FF4805301223848102104F0D6FD94
:1011D00036484FF4805104F027FE33484FF4006343
:1011E0000222102104F0CAFD4FF4805303222E483E
:1011F000042104F0C3FD2C484FF4006104F016FEF6
:1012000029484FF4E0630322182104F0B7FD254874
:1012100003230422002104F0B1FD24480123042209
:10122000002104F0ABFD1F480C230422002104F030
:10123000A5FD1D48F0230422002104F09FFD19485C
:1012400030230422002104F099FD16484FF4005386
:101250000222102104F092FD1348042301221821D8
:1012600004F08CFD082301220F48042104F086FDC0
:1012700001214FF4EA1004F0EDFD0C484FF48073A7
:101280000222482104F07AFDBDE8104007484FF4DF
:1012900000730322182104F071BD00BF001020006C
:1012A000000230000010014000080140000C014025
:1012B00070B5714888B0002104F00CFB6F4A704B88
:1012C00001920024042503934FF400724FF400634D
:1012D0004FF48076029204930DEB05024FF4805395
:1012E00021466548ADF81C60CDE905538DF81E40D8
:1012F00004F00EFB2146604804F048FB21465E489E
:1013000004F056FB5F4803F03FFF5F4803F03CFFEB
:101310004FF4803003F086FF31465A48012203F033
:1013200091FF22465748022103F08CFF3146564870
:10133000012203F087FF22465348022103F082FF77
:101340002146504803F0A6FF2A464E48012103F0EB
:10135000ABFF01224B48022103F0A6FF21464A4879
:1013600003F098FF2A464848012103F09DFF4648B4
:101370000122022103F098FF23462146414806221C
:1013800003F0B0FF23463F480F22012103F0AAFFDC
:1013900023463C480722022103F0A4FF2346394894
:1013A0000822032103F09EFF2346214636480522EA
:1013B00003F098FF234634480E22012103F092FFE8
:1013C00023462A463048022103F08CFF23462E484C
:1013D0000C22032103F086FF2A484FF460220121EA
:1013E00004F02CF801221146264804F00BF8264898
:1013F0004FF46022012104F021F801221146224815
:1014000004F000F8234621461E480B2203F0C2FFD9
:10141000234621461C480A2203F0BCFF19484FF41A
:10142000E042022104F00AF816480122022103F0EA
:10143000E9FF15484FF4E042022103F0FFFF0122CB
:101440000221114803F0DEFF0E4803F0E5FE0E48CE
:1014500003F0E2FE0B4803F0C5FE0B4803F0C2FEAA
:10146000012003F051FD074803F0C4FE064803F0D5
:10147000C1FE08B070BD00BF000002404C24014016
:10148000983C0020002401400028014070B53848F5
:1014900088B0042104F01EFA3649374A01914FF40E
:1014A0008063012400254FF480760392049301AAFF
:1014B0004FF480532E4806930421ADF81C60029629
:1014C0008DF81E50059404F023FA2948042104F0F5
:1014D0005DFA0421264804F06BFA284803F054FE14
:1014E00022463146254803F0ADFE2A462348022114
:1014F00003F0A8FE2946214803F0CCFE22462146EF
:101500001E4803F0D1FE22461C48022103F0CCFE07
:101510002B46294619480D2203F0E4FE21461748C0
:101520004FF4602203F08AFF22462146134803F05D
:1015300069FF2B46294611480D2203F02BFF0F4867
:101540004FF4E042022103F079FF224602210B48CA
:1015500003F058FF094803F05FFE084803F042FE1D
:10156000204603F0D1FC054803F044FE08B070BDEE
:10157000000402404C3C0140943C0020003C0140EF
:1015800000B585B001A9002003F0AEFF0A4803F0C2
:1015900099FF0A484FF48072CDE901024FF480238D
:1015A00001A90548039303F0D1FF0348022104F089
:1015B0008DF905B000BD00BF0064004000000903C4
:1015C00000B5014687B0032003F08EFF01A901207A
:1015D00003F08AFF00234FF48031012201A8CDE9F6
:1015E0000133CDE903318DF8142004F041F807B040
:1015F00000BD00BF00B583B001460190022003F09A
:1016000073FF054A019990680860002306228A72D8
:101610004B600B8103B000BD90370020F0B52DED7D
:10162000028B1E4D83B00446F0EE608AB0EE418A14
:10163000D5ED130A95ED141A0191102002F00AFE5F
:1016400095ED161AD5ED150A0746B0EE680A0C207E
:1016500002F000FED5ED030A95ED0E7AD5ED117A74
:1016600060EEC70A064660EEA70AB0EE480AB1EE81
:10167000601A0C2002F0EEFD03120199E17203EBF7
:1016800006137ABA3111E3730023A173A281207487
:101690006374A37403B0BDEC028BF0BD903B0020DB
:1016A00084B0F0B52DED028B83B00AAC84E80F0056
:1016B0009DF836309DF835709DF839209DF83760DB
:1016C000BDF833002D4C9DF838E09DF83A10D4ED6C
:1016D000140A94ED130A0F9D9FED298A4FEA032CFB
:1016E0001B0943EA07170CF470631E43130240BA48
:1016F000120903F470630B4342EA0E1280B2102108
:101700000092019302F0BAFD85ED000AD4ED160AAD
:1017100094ED150A38460C2102F0B0FD85ED010A62
:10172000D4ED170A3046B0EE480A0C2102F0A6FDAF
:1017300085ED020AD4ED180A00980C21B0EE480A93
:1017400002F09CFD85ED030A94ED030A94ED0E7AF8
:10175000D4ED117A019820EE470A0C2120EE270AD9
:10176000F1EE400A02F08AFD85ED040A03B0BDECFB
:10177000028BBDE8F04004B0704700BF903B0020F2
:101780000000000070B54FF480620C460546002151
:1017900006F0D9FD01264FF480720021204606F0A4
:1017A000D2FD6E60002300224FF47A76C5E9042250
:1017B0002A60AA60EE60154ADFED156A9FED157A82
:1017C000DFED157AA3614FF07E51E3616363E3635C
:1017D0002364124BDFF858E0DFF858C01048A163CB
:1017E0006164A2640F49236522660F4B0F4AC4ED62
:1017F000026A84ED037AC4ED087AC4F854E0C4F8B0
:1018000058C0E164E0656262A36270BD0000A04060
:1018100000007A44000020420000FA4200004841E3
:101820000000FA43000048C10000A84100006041E8
:10183000000082C20000824270B50E461E49A0F12F
:10184000040E00F57F754FF0FF305EF8044F4FF047
:10185000000C24FA0CF3DBB25840082240F30003DA
:101860000B40013A83EA5000F8D10CF1080CBCF1AE
:10187000200FEED17545E8D10F49B64606F58075C3
:10188000DEF800404FF0000C24FA0CF3DBB25840B5
:10189000082240F300030B40013A83EA5000F8D1DC
:1018A0000CF1080CBCF1200FEED10EF1040EAE4588
:1018B000E6D1C04370BD00BF2083B8ED0368012BA3
:1018C00000F22C8243687F2B00F2288283687F2BF2
:1018D00000F22482C368DE4A013B934200F21E827A
:1018E0000369DFF8A4C34FF6FF721344634500F2A7
:1018F000158243691A44624500F21082D1ED027AE2
:101900009FEDD47AF0EEE76AF4EE476AF1EE10FA52
:1019100000F20482DFEDDD6AF4EEE67AF1EE10FA11
:10192000C0F2FC81DFEDCC6AF4EEE67AF1EE10FA5B
:1019300000F2F481D1ED037AF0EEE76AF4EE476A43
:10194000F1EE10FA00F2EA819FEDC47AF4EEC77A64
:10195000F1EE10FAC0F2E2819FEDC17AF4EEC77A9F
:10196000F1EE10FA00F2DA81D1ED064ADFEDB96A44
:10197000B0EEE47AB4EE667AF1EE10FA00F2CE81BF
:10198000F5EEC04AF1EE10FAC0F2C8819FEDB57ACB
:10199000F4EEC74AF1EE10FA00F2C08191ED077A39
:1019A000B0EEC76AB4EE666AF1EE10FA00F2B681E4
:1019B000B5EEC07AF1EE10FAC0F2B0819FEDB36AD5
:1019C000B4EEC67AF1EE10FA00F2A88191ED087A31
:1019D000B0EEC76AB4EE666AF1EE10FA00F29E81CC
:1019E000F7EE006AB4EEE67AF1EE10FAC0F29681F4
:1019F000DFED9D6AB4EEE67AF1EE10FA00F28E8128
:101A000091ED095ADFED936AB0EEC57AB4EE667ACD
:101A1000F1EE10FA00F282819FED907AB4EEC75A8F
:101A2000F1EE10FAC0F27A819FED907AB4EEC75AC7
:101A3000F1EE10FA00F2728191ED0A7AB0EEC76A07
:101A4000B4EE666AF1EE10FA00F26881B7EE006A51
:101A5000B4EEC67AF1EE10FAC0F260819FED846AAE
:101A6000B4EEC67AF1EE10FA00F2588191ED0D7ADB
:101A7000B0EEC76AB4EE666AF1EE10FA00F24E817B
:101A8000B5EEC07AF1EE10FAC0F24881DFED7F6A60
:101A9000B4EEE67AF1EE10FA00F24081D1ED0E6A72
:101AA0009FED6C7AB0EEE66AB4EE476AF1EE10FA9A
:101AB00000F234819FED6F6AF4EEC66AF1EE10FA1F
:101AC000C0F22C81B2EE046AF4EEC66AF1EE10FAAE
:101AD00000F22481D1ED0F6AB0EEE66AB4EE476AF7
:101AE000F1EE10FA00F21A81F5EEC06AF1EE10FA8A
:101AF000C0F214819FED606AF4EEC66AF1EE10FA4E
:101B000000F20C81D1ED106AB0EEE66AB4EE476ADD
:101B1000F1EE10FA00F20281F5EEC06AF1EE10FA71
:101B2000C0F2FC809FED556AF4EEC66AF1EE10FA41
:101B300000F2F480D1ED116AB0EEE66AB4EE476AC5
:101B4000F1EE10FA00F2EA809FED4D7AF4EEC76AEA
:101B5000F1EE10FAC0F2E2809FED477AF4EEC76A28
:101B6000F1EE10FA00F2DA80D1ED126A9FED397AC7
:101B7000B0EEE66AB4EE476AF1EE10FA00F2CE80FB
:101B80009FED366AF4EEC66AF1EE10FAC0F2C68036
:101B9000B3EE046AF4EEC66AF1EE10FA00F2BE800B
:101BA000D1ED135AF0EEE56AF4EE476AF1EE10FA61
:101BB00000F2B480DFED336AF4EEE65AF1EE10FA8B
:101BC000C0F2AC80F5EEC05AF1EE10FA00F2A68039
:101BD00091ED146AF0EEC66AF4EE476AF1EE10FA7F
:101BE00000F29C80B5EEC06AF1EE10FAC0F2968069
:101BF0009FED214AB4EEC46AF1EE10FA00F28E8035
:101C0000D1ED156AB0EE473AB0EEE67AB4EE437A1B
:101C1000F1EE10FA00F282809FED1A7AF4EEC76AB4
:101C2000F1EE10FA7ADBF5EEC06AF1EE10FA75D833
:101C300091ED167AF0EEC73AF4EE433AF1EE10FA6F
:101C40006CD8B5EEC07AF1EE10FA67DB20E000BF89
:101C50009F860100FFFF7F7F0000FA44CDCCCC3D82
:101C600000007042000004420000164300002042C1
:101C70000000804217B7D13800007A440050C347B3
:101C80006F12833A00007AC4FEFF01000000C842D0
:101C9000B4EEC47AF1EE10FA40D8D1ED173AF0EE76
:101CA000E32AF4EE432AF1EE10FA37D8F5EEC03A03
:101CB000F1EE10FA32DBF4EEC43AF1EE10FA2DD860
:101CC00091ED184AF0EE433AB0EEC43AB4EE633AFE
:101CD000F1EE10FA22D8B5EEC04AF1EE10FA1DDB93
:101CE0005FED163AB4EEE34AF1EE10FA16D8F4EED0
:101CF000E47AF1EE10FA11DBF4EEC57AF1EE10FAA7
:101D00000CDBF4EEC65AF1EE10FA07D5F4EEC76A12
:101D1000F1EE10FA4CBF0120002070470020704700
:101D200030B5DFF83CC083B06045069D079C02D00B
:101D3000002003B030BD0229FAD1B2F5A07FF7D15F
:101D4000214628460193FFF777FD019B9842EFD18A
:101D50002146284603B0BDE83040FFF7AFBD00BFC5
:101D60004154484E401A0028D4BF0020012070473B
:101D700040B12AB15B1A002BD4BF0020012070476C
:101D80001046704782420CBF4FF0FF300120704771
:101D900011B10AB1082B01D000207047009BC01A76
:101DA000B3F5006FB0FA80F04FEA501028BF002062
:101DB000704700BF431E00F1060C13F8012FFF2AE5
:101DC00009D16345F9D1C279131DDBB2022B02D8C8
:101DD0000A70012070470020704700BF38B5C0F37B
:101DE0000D0444F4804440F44045204609F0ECFAE8
:101DF000002814BF2846204638BD00BF10B5044651
:101E000009F0E2FA28B914F4804F18BF6FF001000E
:101E100010BD4FF0FF3010BDC0F30D00C1F30D0138
:101E2000401AB0F5005F03DDA0F5804000B27047B6
:101E300010F5005FB8BF00F5804000B2704700BFEA
:101E400000B5114889B004F0A1F99FED0D7B4FF466
:101E500000724FF4827100234FF40060CDE900134B
:101E6000CDE9020218236946074806938DED047BED
:101E700004F0BAF9044804F0D1F909B000BD00BF7C
:101E800000000000010000000038004000000000D9
:101E900000B5114889B004F079F99FED0D7B4FF43E
:101EA00000724FF4827100234FF40060CDE90013FB
:101EB000CDE9020210236946074806938DED047BA5
:101EC00004F092F9044804F0A9F909B000BD00BF7C
:101ED0000000000001000000003C004070B54848D0
:101EE0008CB004F0ADF908A8002404F01FFA012515
:101EF0004FF400134FF4FA6208A9414808930A927C
:101F000009948DF82C5004F019FA3D4804F046FC71
:101F100021463B4804F02CFC2946394804F030FCAB
:101F2000374804F063FA01A804F094FA022601AAE3
:101F3000214633480394CDE9015604F091FA214635
:101F40002F48602204F08EFB21462D48042204F025
:101F5000E7FB21462A48082204F0BAFB2246214624
:101F6000274804F0A7FB01AA2946254804F078FA7F
:101F700029462348602204F075FB294620480422A4
:101F800004F0CEFB29461E48082204F0A1FB22469D
:101F900029461B4804F08EFB01AA3146184804F07C
:101FA0005FFA31461648602204F05CFB3146144863
:101FB000042204F0B5FB31461148082204F088FBE6
:101FC000224631460E4804F075FB04A804F01CFAC2
:101FD0004FF0005304A90A480694CDE90443ADF834
:101FE0001C4004F017FA2146054804F029FA294656
:101FF000034804F001FA024804F0F2F90CB070BD95
:10200000002C014008B50D4804F0CEFB0B484FF4FE
:10201000E13104F015FC0948042104F051FC0821C9
:10202000064804F047FC054804F03EFCBDE80840C3
:10203000024840F2053104F059BC00BF00440040A2
:1020400038B50546E9B20C4804F040FC41F2010401
:1020500001E0013C07D00848072104F03FFC0028BC
:10206000F7D0284638BD054A13684FF0FF350133D5
:102070001360284638BD00BF00440040A83C002043
:10208000F0B52DED028B604D1446002687B02E6012
:102090000A46217C0746002975D0E168DFED5B6ABE
:1020A0005B1A07EE903AF8EEE77AB7EE007A67EE41
:1020B000A67AF4EEC77AF1EE10FAC4ED057A6ED482
:1020C000F0EE006AF4EEE67AF1EE10FA00F18380A9
:1020D000104601F0EFF894ED067A97ED038ADFEDF4
:1020E0004C6A8DED027A78EE477AF0EEE77AC6EE2A
:1020F000A77A17EE900AFEF7D7F941EC100B08F01B
:10210000A5FF51EC100BFEF7FFFC9DED027A20704D
:10211000B4EEC87AF1EE10FA2FD401233D4884F8CA
:10212000203006F0EFF821783B4806F083F8A069EC
:10213000FEF7BAF902460B4618EE100ACDE9022363
:10214000FEF7B2F9DDE90223CDE90001334806F0DC
:1021500071F894F820302B602378314907EE903ADB
:10216000F8EE677A00220123C1ED0A7A227484F81E
:10217000213007B0BDEC028BF0BD84F82060294807
:1021800006F0C0F8CFE728480593029206F0BAF8A7
:102190000121059B2174029AE3600021616104F52D
:1021A000005101F6884501F5496100231C48A360F0
:1021B0002B600B60806CC2F8A40004F53051C2F8AB
:1021C000A8302C31104601F0E7F8FB68A36107B096
:1021D000BDEC028BF0BD77EEC77A9FED0D7A04F56A
:1021E000325367EE877A04F5305108332C311046AC
:1021F000C4ED027AC3ED007A07B0BDEC028BBDE8F6
:10220000F04001F0C9B800BF90370020D1CB0B38A7
:10221000DB0FC940A4B50008BCB50008D0B5000864
:10222000903B00208CB5000868B500082DE9F0410E
:10223000C24E96ED0A7A2DED028BF3EE057AB4EEDE
:10224000E77AF1EE10FA84B000F312811D46137C98
:1022500014460F468046002B00F0D880D3689FEDCF
:10226000B87AEB1A07EE903AF8EEE77AB7EE006A22
:1022700067EE877AF4EEC67AF1EE10FAC2ED057ACF
:1022800000F1D2809FEDAF8A96ED0A7A67EE085A88
:10229000C5EE886A76EE866AF4EEE67AF1EE10FA1A
:1022A00078D4DFEDA96A27EE267AC7EE086A36EE03
:1022B000867AF4EEC77AF1EE10FA00F1E280084671
:1022C00000F0F8FFD6ED0A7ABDEEE77A17EE103A85
:1022D000002B40F3928104EB432303F1280204F125
:1022E0002801002351F8040F91420344FAD107EE6C
:1022F000103AB8EEC77A9FED956AE56A9FED938A2A
:10230000DFED938A27EE866AD5F58035C7EE066A3B
:1023100048BF05F2FF156D120027FDEEE66AC4ED19
:10232000076A07EE107AF8EEC75A67EE886A65EE1C
:10233000A75A6FF03F0265EE885A002165EEA85A51
:10234000B7EE005A13E036EEC56AB4EEC76AF1EE96
:1023500010FA03D537EE667AFDEEC77A17EE903A9B
:1023600004EB83030132DB6A402A194433D007EEC1
:10237000902AF8EEE77A77EEA57AFDEEE77A17EE87
:10238000903A002BB8EEE77ADDDA37EE267AFDEEEA
:10239000C77AE3E7D2ED027A9FED6E7A77EE877A1D
:1023A00002F53253084602F53051C2ED027A2C3163
:1023B000C3ED027A00F0F0FF94ED057AD4ED0A7ACD
:1023C000B4EEE77AF1EE10FA00F3D08004B0BDEC81
:1023D000028BBDE8F0810029B8BF7F317F2D4FEA25
:1023E000E1122946C8BFA5F18001E06901F68A2300
:1023F00004EB8303121A5A605748013705F01AFF9D
:10240000802F2BD0D6ED0A7A01358AE75348039303
:1024100005F078FF039BA3840023636101232374E9
:102420004FF07E53E560A36204F532530022A260B0
:102430009A60B06CC7F8A40004F53051C7F8A82022
:102440002C31384600F0A8FFD8F80C206369A2614F
:10245000A36204B0BDEC028BBDE8F0810022012331
:10246000227484F8223004B0BDEC028BBDE8F08108
:102470003B48152104B0BDEC028BBDE8F04105F0EE
:10248000D9BED2ED027A9FED337A77EEC77A08464D
:10249000C2ED027AB36CC1F8A4300023C1F8A830B1
:1024A00002F5325302F53051C3ED027A2C3100F0BF
:1024B00073FF94ED057AD4ED0A7AB4EEE77AF1EE83
:1024C00010FA83DDA78C002F80D096ED0A7AD4ED28
:1024D000027ADFED256AD8F87430A06827EE087A12
:1024E00067EEA66AC6EE877AFDEEE77A17EE902AC7
:1024F0009B1ADD1305F480351D4404EB8703CDEDF5
:10250000037AD96A0D4405EBD5756D10DD62FDF7D0
:10251000CBFF2B46CDE90001039A1248394605F05E
:1025200089FED4ED0A7A9FED0A7AA38C77EE877A3A
:10253000013BA384C4ED0A7A48E700BF903B00202A
:10254000D1CB0B38DB0FC940DB0F49410000004302
:102550000000003C5F975B3954B600081CB60008C9
:10256000ECB5000844B600080000804794ED026A0C
:1025700096ED0A7A5FED046AD8F87430A78C66EE9F
:10258000266A27EE087A16EE100AC6EE877AFDEE66
:10259000E77A17EE902A9B1ADD1305F480351D4467
:1025A00004EB8703CDED037ADD62FDF77DFF2B465B
:1025B000CDE90001039A1248394605F03BFE9FED34
:1025C000116A94ED0A7ADFED106AA38C37EE067A71
:1025D000FFEE007A84ED0A7A96ED0A6A07EE103A69
:1025E000E6EE267AB8EEC77AB4EE677AF1EE10FA24
:1025F0003FF4ECAE0133A384E8E69FED047A7AE67B
:1026000044B600080000003C000000430000000049
:1026100070B504464FF6FF7384B03748218063805D
:102620004FF48051164603F001FC00230393039BF3
:102630003F2B06D800BF039B01330393039B3F2B23
:10264000F8D940F6010501E0013D40D02B480221B8
:1026500003F0F0FD0028F7D02188284803F0E4FDBE
:1026600040F6010501E0013D40D02448012103F07E
:10267000E1FD0028F7D0214803F0D8FD40F6010520
:10268000608001E0013D34D01C48802103F0D2FD80
:102690000128F7D000230293029B3F2B4FF0000547
:1026A0001CD915484FF4805103F0BEFB0023019361
:1026B000019B3F2B06D800BF019B01330193019B77
:1026C0003F2BF8D963883380284604B070BD4FF0A3
:1026D000FF3500230293029B3F2BE2D800BF029BF1
:1026E00001330293029B3F2BF8D9DAE76FF0010523
:1026F000EFE76FF00205ECE7000C01400038004006
:102700002DE9F041002384B0224C0393CDE901333D
:10271000804601AD04F10C07012634F8021B2A465D
:102720004046FFF775FF002814BF002606F001069B
:10273000BC4205F10205F0D1BDF80630BDF8082015
:1027400013439BB20BBBBDF80A30C3F30A03A02BA3
:102750001BD1114B9FED117AD3ED037ABDF80C20FC
:10276000B4EEE77AF1EE10FAACBF4FF430734FF4E9
:1027700020739A4209D1BDF80E2040F215439A42C7
:1027800003D1701E04B0BDE8F0814FF0FF3004B0FB
:10279000BDE8F08134BE0008903B002000002042DC
:1027A00000B585B004AB03E907000B48002103F036
:1027B00047FE4FF40061094803F036FB02F0D8FBF6
:1027C000074A0849084B08604FF0010C82F800C026
:1027D00000221A7005B000BD002C01400008014025
:1027E000B13C0020AC3C0020B03C002030B5374B61
:1027F00089B001AC84E807001A780AB909B030BD85
:10280000334A156802F0B4FB0A220146284602F05A
:10281000FBFA0028F2D02D4B2E4800224FF48051B5
:102820001A7003F00BFB00284BD094E8070005ABAF
:1028300003C341F2A1011A8005A80DF11202009311
:10284000FFF7E6FE244A9FED257AD2ED037A009B3E
:1028500094E80700B4EEE77AF1EE10FA0DF1140CEB
:10286000ACE80300A8BF4FF44B511A80B8BF4FF437
:102870004A510DF1120205A8FFF7CAFE94E80700BD
:10288000009B0DF1140CACE803001A8042F61541D0
:102890000DF1120205A8FFF7BBFE2046FFF730FF3F
:1028A00078B900F1804000F584304FF4805103F096
:1028B000C5FA30B10A4B0B480121197003F0C0FD75
:1028C0009CE72020FEF73EFC09B030BDB13C002063
:1028D000AC3C002000080140903B0020000020425A
:1028E000B03C0020002C0140024B1878003818BF83
:1028F00001207047B03C002000B585B004AB03E96F
:1029000007000848002103F09BFD07484FF40061D1
:1029100003F08CFA0549064A00230B70137005B0CA
:1029200000BD00BF002C014000080140B13C002068
:10293000B03C0020F0B589B001AC84E8070094E811
:10294000070005AE03C64FF40041328005A80DF123
:1029500012021F46FFF75CFE94E8070005AB03C3B5
:1029600032804FF408410DF1120205A8BDF8125053
:10297000FFF74EFEBDF8124054EA05031FD12B07A6
:1029800043D46F0746D4AE0749D4ED074CD4600555
:102990004FD4A10552D4E20555D4230658D4670676
:1029A0005BD4A6065ED4E50661D4200764D4610733
:1029B00067D4A2076AD4E3076DD409B0F0BD3B48E1
:1029C000394605F037FC6A056BD4AB0502D53848AB
:1029D00005F030FCEF0502D5364805F02BFC2E063D
:1029E00002D5354805F026FC680602D5334805F0C7
:1029F00021FCA90602D5324805F01CFCEA06BED52A
:102A0000304805F017FC2B07BBD52F4805F012FC0A
:102A10006F07B8D52D4805F00DFCAE07B5D52C488D
:102A200005F008FCED07B2D52A4805F003FC600567
:102A3000AFD5294805F0FEFBA105ACD5274805F028
:102A4000F9FBE205A9D5264805F0F4FB2306A6D537
:102A5000244805F0EFFB6706A3D5234805F0EAFB01
:102A6000A606A0D5214805F0E5FBE5069DD5204842
:102A700005F0E0FB20079AD51E4805F0DBFB610757
:102A800097D51D4805F0D6FBA20794D51B4805F045
:102A9000D1FBE30791D51A4809B0BDE8F04005F035
:102AA000C9BB184805F0C6FB8FE700BF60B6000839
:102AB00080B600088CB6000894B600089CB60008E2
:102AC000A4B60008B0B60008BCB60008C8B6000836
:102AD000D4B60008E0B60008ECB60008F4B600086A
:102AE000FCB6000804B700080CB7000814B70008CB
:102AF00020B700082CB7000838B7000844B7000812
:102B000050B7000874B60008F0B589B001AC84E88D
:102B10000700FEF7F7FA4F4BDFED4F7A93ED037A9C
:102B2000B4EEE77AF1EE10FA59D84FF400614B4851
:102B300003F07AF90A2002F0E7F994E8070005AEFD
:102B400003C605AD0DF11207328041F2A1013A46EC
:102B50002846FFF75DFD94E807002B4603C332804B
:102B600043F2DC213A462846FFF752FD3C4800F08C
:102B7000F3FA4FF44B5394E807002E4603C6194668
:102B8000328028463A46FFF743FD94E807002B467B
:102B900003C3328042F615413A462846FFF738FD16
:102BA0002E484FF4805103F049F900283ED02046CA
:102BB000FFF7A6FD0446002838D12A48214603F035
:102BC0003FFC26484FF4006103F030F9264A274BBA
:102BD00014701C70FEF796FA204609B0F0BD4FF451
:102BE00000611E4803F020F90A2002F08DF994E8F4
:102BF000070005AE03C605AD0DF11207328041F2A4
:102C0000A1013A462846FFF703FD94E807002B464A
:102C100003C3328043F29C213A462846FFF7F8FC72
:102C20000F4800F099FA4FF44A53A4E72020FEF72A
:102C300089FA0C48002103F003FC4FF400610748B7
:102C400003F0F4F80849094A00230B704FF0FF34F1
:102C50001370C1E7903B00200000204200080140B3
:102C600078340020002C0140B13C0020B03C002012
:102C700008B50C21002003F02FF94FF480500222F8
:102C8000002102F0A7FEBDE808404FF4805002F09A
:102C9000F9BE00BF044A072928BF07210023C0E965
:102CA00001210370704700BF00C0030810B504463F
:102CB00002F0EEFE40F2073003F052F8606802F0D6
:102CC0001BFF0123237010BD84B00DF1100C0CE923
:102CD00007000298049900EB830004B002F0ACBF37
:102CE00084B00DF1100C0CE907000298049900EB78
:102CF000830004B002F0A0BF84B00DF1100C0CE909
:102D00000700029810EE101A00EB830004B002F0E6
:102D100093BF00BF00B583B0019002F0D9FE0198C7
:102D20000023037003B000BD84B00DF1100C0CE95A
:102D3000070051F8230004B0704700BF84B00DF1C4
:102D4000100C0CE9070051F8230004B0704700BFD5
:102D500084B00DF1100C0CE9070001EB830292ED39
:102D6000000A04B0704700BF08B590ED167AD0EDA8
:102D7000186A1C4BF7EE007A2DED048B37EEC77AFC
:102D80009FED199AD0ED178A1968184827EE097A2D
:102D900077EEE88A37EEE68AFCEEC77A17EE902ADD
:102DA000C9B903F087FC1148012168EE898AFCEE5D
:102DB000E87A17EE902A03F07DFC68EE097ABDEC04
:102DC000048BFCEEE77ABDE80840084817EE902A2D
:102DD000022103F06FBC012103F06CFC03480021C9
:102DE000E3E700BF903700200000FA44002C0140C8
:102DF00038B5484B1C680546002C7ED12146464814
:102E000002F040FB0346AB604448214602F03AFB27
:102E100003464148EB60022102F026FB40480221B4
:102E200002F022FB40F6010401E0013C50D03A4898
:102E3000042102F03BFB0028F7D040F6010401E03A
:102E4000013C45D03648042102F030FB0028F7D081
:102E50003148042102F030FB3148042102F02CFB00
:102E600000212F4802F00EFBAA68D5F89810EB68F5
:102E7000D5ED1C6ADFED2B5A2861521A07EE102A95
:102E8000D5F89C2007EE900A9B1AB8EEE76A07EE89
:102E9000903AB8EEC77AF8EEE77A27EE267A67EE30
:102EA000A67AD5F8F83285ED067AF1EE476A26EE75
:102EB000256A76EEE76A0122013385F8F52285ED71
:102EC000086AC5ED077AC5ED056AC5F8F83238BD60
:102ED0001148042102F0F0FA1148042102F0ECFA42
:102EE000D5F8FC320022013385F8F522C5F8FC3212
:102EF0008020BDE83840FEF725B90021074802F0E0
:102F0000C1FA0346AB600448002102F0BBFA034655
:102F10007FE700BF903700200024014000280140D7
:102F2000003C01401833533C00B52DED028B87B0B7
:102F3000CDE90210CDED050A8DED041A0192F0EEF7
:102F4000408A01F0D5F9B0EE408AB0EE680A01F08F
:102F5000A9F9F6EE007A67EEC06ADFED175A9FED29
:102F6000176A9DED041ADDED050A03980299019A8E
:102F700067EEC87AB0EE667AA8EE257AE8EE656A62
:102F8000F0EE675AE0EE065AE0EE467A21EE477A16
:102F900021EE400A21EE661AA8EE200AA5EEA07ADC
:102FA000A7EEA01A80ED000A81ED007A82ED001AEA
:102FB00007B0BDEC028B00BDD7B35DBFD7B35D3F9B
:102FC00000B52DED028B87B0CDE90110CDED050ADE
:102FD0008DED041ACDED031AF0EE408A01F088F968
:102FE000B0EE408AB0EE680A01F05CF9B6EE007A05
:102FF00067EE486A27EE407ADFED185A9FED186AAF
:103000009DED041ADDED050ADDED031A0298019924
:10301000F0EE667AB0EE475AA8EE065AE0EE257A50
:10302000A8EE467A67EE817A21EE451AE0EE656AEF
:10303000E8EE207AA0EE601AE6EEA17AA7EE611A19
:103040009FED086A67EE867A21EE061AC0ED007AD7
:1030500081ED001A07B0BDEC028B00BDD7B35D3F18
:10306000D7B35DBFABAA2A3F00B52DED0A8BB0EEFA
:10307000609A85B0F0EE418AF0EE40AAB0EE611A97
:10308000F0EE680AB0EE490AB0EE618A0192CDE92D
:10309000021001F0A9F8B0EE481AF0EE680AB0EE9E
:1030A00040AAB0EE490A01F087F83AEE00AAF6EE1F
:1030B000009AAAEE699ADFED24BA9FED24CA9FED2B
:1030C00024BA29EE299AF0EE4C0A29EE2B9A89EEC1
:1030D0002A0A9FED209A30EE0B0A01F05DF8F0EE1F
:1030E000490A01F061F8EAEE698A039880ED000A66
:1030F00068EEA98AF0EE4C0A68EEAB8A88EEAA0A5E
:1031000030EE0B0A01F048F8F0EE490A01F04CF8F5
:10311000AAEE698A029981ED000A28EE298AF0EE6A
:103120004C0A28EE2B8A88EE2A0A30EE0B0A01F0B0
:1031300033F8F0EE490A01F037F8019A82ED000AFF
:1031400005B0BDEC0A8B00BD3333933F0000000097
:10315000D7A3F03ED7A3703FF8B500238365C365BE
:1031600003660446FFF700FE00264FF47A753746E3
:103170002046FFF73DFED4E90223013D17441E44DB
:10318000F6D1074B83FB0721FA17C2EBA11283FB91
:103190000631F317C3EBA113C4E92623F8BD00BF22
:1031A000D34D62102DE9F843344A354BDFED356AD3
:1031B000DFED355A2DED028BC267C0F8802093ED0C
:1031C000027A324AC0F8842066EEC76AF7EE007AC7
:1031D000B0EE676AA6EEA56A2D4ADFED2E6A126888
:1031E000C0F8C82027EE267AC7EE866A80ED1D7AE1
:1031F00077EEE67A80ED1E7AC0ED227A9FED267A90
:10320000D3ED037AF4EEC77AF1EE10FA33D8234BFC
:10321000DFF89C90DFED228A9FED228A224F036720
:103220004FF0804800F1F4050024002607EE904A94
:10323000F8EEE77A013467EEA87AC7EE887A17EEDF
:10324000900AFDF731F941EC100B07F0A5FC42465E
:1032500051EC100B4B46FDF77FF932463B46FCF72D
:10326000C5FFFDF771FC802C45F8040BDED1BDECE9
:10327000028BBDE8F8830D4BCAE700BFEC51383D27
:10328000903B0020D1CB0B38DB0FC940BD74933B82
:103290009037002017B7D13800002042FFFFA43C30
:1032A000000000BC6F12033D0000F03FFFFF243D13
:1032B0003333F33F10B54FF47A72044600211148BE
:1032C00003F0F8F90F484FF47A72012103F0F2F994
:1032D0004FF47A720B48022103F0ECF9002300222C
:1032E000C4F8A430C4F8A830E36323646364C4F86A
:1032F0009030C4F88C3063652365C4F8E830C4F8B6
:10330000EC2010BD002C014090ED397AD0ED387AD8
:1033100090ED3A0ADFED1E0A77EEC77A90ED217A3A
:1033200010B5A7EE270A82B0044680ED3A0A00F0F5
:103330003BFF184BD3ED060AF1EE600A00F02CFFBC
:1033400094ED3C7A84ED3A0A60EE407A84ED290AE5
:10335000E7EE077AF5EE407AF1EE10FA11D4F1EECD
:10336000E70A94ED2A0ACDED010A00F01DFFDDED1C
:10337000010AF1EE600A00F00FFF84ED2A0A02B0A4
:1033800010BDB0EE670A07F057FCF0EE400AE8E720
:1033900000000000903B002030B52DED028B91ED38
:1033A000170A4B6E904D91ED186AD0ED071A90ED0B
:1033B000061AD0ED050AD1ED036A83B0436380EDB0
:1033C0000B0A95ED117AC6EE077A044600F140012A
:1033D0003C30C4ED0C7A95ED117AC6EE877AC4EDD7
:1033E0000A7AFFF7EDFD9FED815A94ED087ADFED43
:1033F000805AD4ED097A94ED106AD4ED0F6A94EDF9
:10340000114AD4ED124A27EE057A26EE056AA7EE98
:10341000A57A04F1A80104F1A400DFED767A84ED29
:10342000097A67EE277A66EE856A9FED735AE4EEB5
:10343000A56AA4EE256A67EE857ADFED705A84ED01
:10344000116A67EEA57AC4ED126AC4ED387A95ED7B
:10345000030A84ED3C0A00F0DFFED4ED0F6AD4EDE0
:10346000298A94ED1D7A94ED230ADFED657A94EDB7
:103470002A8AD4ED380A78EEE68AA7EE280A94ED77
:10348000107A30EE270A38EE478A84ED140A00F0ED
:103490008BFED4ED380AF1EE600A00F07DFED4ED2B
:1034A0001F6A94ED1D7AD4ED237AD4ED380A84EDA9
:1034B000140A27EE267AE7EE287AB0EE670AC4ED02
:1034C000237A00F071FED4ED380AF1EE600A00F0C4
:1034D00063FED4ED147AD4ED380A84ED230A67EE46
:1034E000E77AE0EEA07AF5EE407AF1EE10FA6FD4CA
:1034F000F1EEE78A94ED240AD4ED1E7AD4ED206A29
:10350000B0EE407AA7EE887A67EEA67ADFED3C6AE5
:10351000A7EE880A77EE267A84ED240AC4ED157AA0
:1035200000F042FED4ED380AF1EE600A00F034FEFD
:10353000F0EE406A94ED150A94ED147AC4ED246A15
:1035400060EE007AF0EE680AE7EE077AB1EEE77A0D
:1035500084ED397A00F028FEF1EE680A00F01CFED6
:10356000F0EE407A04F1540194ED380AC4ED157A76
:1035700004F1500000F050FEDFED227A94ED0D7A58
:1035800094ED0B0A94ED151AD4ED140AA7EE270A50
:1035900004F16C0204F1680104F16400FFF7C4FC5B
:1035A00004F15800D4ED1B1A94ED1A1AD4ED190A3F
:1035B00094ED380A04F1600204F15C01FFF754FD58
:1035C000204603B0BDEC028BBDE83040FFF7CCBB1A
:1035D000B0EE670ACDED010A07F02EFBDDED010A22
:1035E000F0EE408A86E700BF903B0020CDCCCC3D7A
:1035F0006666663F3333933FD7A3703F3ACD133FA0
:1036000000000000BAB1513890ED0A7AD0ED337A5B
:10361000D0ED356A90ED370A144BD0ED3C0A77EEC9
:10362000C77A90ED347AA6EEA70A10B5D0ED0C7AE1
:10363000D0ED366A37EE677AD3ED0E7AA6EE870ABA
:10364000044693ED117A67EE877A80EE270A00F040
:10365000ABFDD4ED3C0AF1EE600A00F09DFD0023C5
:1036600084ED2A0AC4F8A43010BD00BF903B0020AE
:103670000023C0F8DC30C0F8D430C0F8D830C0F82F
:10368000CC30C0F8D030C0F8A830704708B50B482F
:1036900001F00CFA70B1094801F03CFA38B1074862
:1036A00001F09CFB054801F0DDFA013808BD034834
:1036B00001F094FB4FF0FF3008BD00BF78370020C9
:1036C00010B54FF4805182B00A4802F0B7FB0446AF
:1036D000FDF740FD084A094B094992F8F52293F895
:1036E000DD3289880092221E18BF012201F07AFB88
:1036F00002B010BD0008014078340020583100208D
:103700004C31002010B503780446052B0CD8DFE8B7
:1037100003F009030C0B09090C4B186859681A8946
:10372000FFF7EAF80123E37010BD084B0122C270D5
:10373000186859681A89FFF7DFF80548FFF7BAFDDE
:10374000BDE810400248FFF793BF00BF4C31002096
:103750007834002008B50D4804F0D4FD0C4804F07E
:10376000D1FD0C4804F0CEFD0B4804F0CBFD0B4816
:1037700004F0C8FD0A4804F0C5FD0A4804F0C2FD83
:10378000BDE80840084804F0BDBD00BF90B4000883
:103790005CB7000868B700087CB7000898B7000855
:1037A000A8B70008C0B70008DCB7000830B56C48FF
:1037B0006C4C6D4D85B004F03DFD6C486C4B6D4A12
:1037C0006D49CDE900046D4C6D4804F033FD6D4842
:1037D00004F098FD606CFCF767FE6B4A6B4B00953C
:1037E000CDE902016A496B4804F024FDA06BFCF7A7
:1037F0005BFE694A654B0095CDE90201674968485F
:1038000004F018FD674804F07DFDA068FCF74CFE4D
:10381000654B664A0093CDE90201654B65496648F0
:1038200004F008FDE068FCF73FFE644B644A009337
:10383000CDE90201634B64495F4804F0FBFC206D55
:10384000FCF732FE2B46CDE90201604A0095604943
:10385000594804F0EFFCA06DFCF726FE2B46CDE99D
:1038600002015C4A00955C4953485C4D04F0E2FC5F
:10387000E06DFCF719FE5A4B5A4A0093CDE902015C
:10388000504B59494C4804F0D5FC206EFCF70CFE17
:10389000564B574A0093CDE902014A4B55494648D9
:1038A00004F0C8FCA069FCF7FFFD534B534A00939A
:1038B000CDE90201434B52493F4804F0BBFC206A6A
:1038C000FCF7F2FD4F4B504A0093CDE902012F4B1C
:1038D0004E49394804F0AEFC606AFCF7E5FD4C4BFC
:1038E0004C4A0093CDE90201364B4B49324804F073
:1038F000A1FCA06C494CFCF7D7FDCDE90201484979
:10390000304B484A00912C48474904F093FC474803
:1039100004F0F8FC6368464A46494748CDE900533D
:103920001A4B04F087FCA3680193444A174B44499F
:103930000095414804F07EFCE068424B424A43490E
:10394000CDE90030114B424804F074FC414804F0CA
:1039500071FC414805B0BDE8304004F06BBC00BFCD
:10396000F4B7000848B800089CB8000858B8000828
:1039700010B8000814B8000820B80008903B0020D8
:1039800028B800085CB800086CB8000868B80008DF
:1039900078B800087CB80008A0B80008B8B80008DB
:1039A000BCB80008DCB800082CB90008F0B8000862
:1039B000ECB8000808B900080CB9000850B90008B4
:1039C00038B9000834B900084CB9000858B90008E3
:1039D00074B9000878B9000898B90008B4BA0008AA
:1039E000BCB900089CB90008B8B90008E8B90008DB
:1039F000C4B90008E4B9000808BA0008ECB9000826
:103A000004BA000830BA000810BA00082CBA00083E
:103A100050BA000834BA00084CBA000890370020A9
:103A200074BA000858BA000870BA00087CBA0008D6
:103A300088BA000890BA000894BA0008B8BA00081A
:103A4000C4BA000808BB0008C8BA0008E8BA0008F1
:103A5000ECBA000810BB00085CBB000800B5037896
:103A600083B0042B28D8DFE803F0291D08270300C2
:103A700003B05DF804EBFFF799BE0190FFF720FE5D
:103A8000002835D101901C48FFF714FC1B49019A0E
:103A9000088960F30F020868496803B05DF804EB19
:103AA000FEF77EBE0190FFF70BFE014658B1019A6A
:103AB000002101235170D37003B000BD03B05DF845
:103AC00004EBFFF747BE0E480E4BC0F8D8104FF47A
:103AD0000072DC30A3F821101974019104F033FC5A
:103AE000064B019A1889596860F30F021868D4E7E9
:103AF0000148FFF7BDFDDAE7783400204C310020A3
:103B000058310020100200202DE9F041037842785E
:103B10009A42044645D1022B1CD0052B12D0012B12
:103B20003DD1514A92F82130002B40D092F82230FA
:103B3000002B4AD14D494E48D1F8B430BDE8F04190
:103B4000FEF774BB494B4A48D3F8B410BDE8F041C6
:103B500000F0EABE474B186859681A89FEF746FE1E
:103B6000FEF7C2FED8B1444AD268002A71DD3F494F
:103B70000D46D1F8B8108A426DDBFFF7A1FD002891
:103B80005CD03C4B186859681A89FEF7B5FE0023D3
:103B90006370E370D5F8B8300133C5F8B830BDE8CC
:103BA000F081FFF7AFFDE3784BB92378B3E72F49F6
:103BB0002F48D1F8B430BDE8F041FEF761BA637820
:103BC00023702046FFF74AFFEFE7D369284E2A4FBC
:103BD00096ED1A7A9FED290A7B615A4207EE902AE8
:103BE000F8EEE77AF7EE000A67EE877A1D4627EED1
:103BF000800A06F0A5FFDFED227A60EE277A17EE45
:103C0000900AFCF751FC0B46024629461D4804F079
:103C100011FB1D494FF4007206F1DC0004F0E0FBDB
:103C200019494FF4007207F1180004F0D9FBFFF7AF
:103C30002DFDA0B900236370E370B0E70B48FFF7D8
:103C4000E3FC0A48FFF760FB09490848FFF7A4FBBB
:103C5000A0E7064D91E72846FFF70AFD91E70B48DC
:103C600004F050FBE6E700BF10020020783400208B
:103C7000583100204C310020903700200000803760
:103C8000DB0FC94088BB00083C2C00209CBB00080F
:103C900038B5417BA1F161030446172B19D8DFE841
:103CA00013F028004700660085001800A000BF0040
:103CB000DA00F900180004011F013E011800180085
:103CC0004901180018001800680118007301180055
:103CD0009201CF4804F0AEFA251DFFF7D7FC00286B
:103CE00040F08C81FFF762FD0023A38163606B606D
:103CF00038BD051D284602F0D4FE51EC100BFCF730
:103D000023FFF3EE040A00EE100A07F0E3FADFEDFA
:103D1000C10A07F0B7FAC04B10EE100A83ED120A81
:103D2000FCF7C2FB02460B46BC4804F083FAD4E71A
:103D3000051D284602F0B5FE51EC100BFCF704FF00
:103D4000DFEDB70A00EE100A07F0C4FADFEDB50A9E
:103D500007F098FAB04B10EE100A83ED020AFCF758
:103D6000A3FB02460B46B04804F064FAB5E7051D14
:103D7000284602F096FE51EC100BFCF7E5FEDFED55
:103D8000AB0A00EE100A07F0A5FADFEDA20A07F071
:103D900079FAA14B10EE100A83ED090AFCF784FBB7
:103DA00002460B46A24804F045FA96E7051D284650
:103DB00002F077FE51EC100BFCF7C6FEDFED950A22
:103DC00000EE100A07F05EFA934B10EE100A83ED36
:103DD000180AFCF769FB02460B46964804F02AFADB
:103DE0007BE7051D284602F05CFE51EC100BFCF74A
:103DF000ABFEDFED910A00EE100A07F06BFADFED83
:103E0000850A07F03FFA844B10EE100A83ED060A8C
:103E1000FCF74AFB02460B46884804F00BFA5CE7C5
:103E2000051D284602F03DFE51EC100BFCF78CFE00
:103E3000DFED830A00EE100A07F024FA764B10EE4D
:103E4000100A83ED110AFCF72FFB02460B467D4852
:103E500004F0F0F941E7051D284602F022FE51EC7E
:103E6000100BFCF771FEDFED780A00EE100A07F088
:103E700031FADFED680A07F005FA674B10EE100A19
:103E800083ED080AFCF710FB02460B466F4804F06E
:103E9000D1F922E7051D284602F006FE6C4B0146CB
:103EA00059606C4804F0C6F917E7051D284602F072
:103EB000F8FD51EC100BFCF747FEDFED670A00EE52
:103EC000100A07F0DFF9544B10EE100A83ED0E0ACA
:103ED000FCF7EAFA02460B46604804F0ABF9FCE650
:103EE000051D284602F0DDFD51EC100BFCF72CFE01
:103EF000DFED5B0A00EE100A07F0ECF9DFED450A92
:103F000007F0C0F9444B10EE100A83ED030AFCF7EA
:103F1000CBFA02460B46534804F08CF9DDE6051D4A
:103F2000284602F0C1FD4A4B014699604E4804F014
:103F300081F9D2E6051D284602F0B3FD51EC100BC5
:103F4000FCF702FEDFED330A00EE100A07F09AF9E3
:103F5000314BF1EE407A83ED140AC3ED137A10EE83
:103F6000100AFCF7A1FA02460B46404804F062F939
:103F7000B3E6051D284602F097FD354B0146D96092
:103F80003B4804F057F9A8E6051D284602F089FDD4
:103F900051EC100BFCF7D8FDDFED1E0A00EE100A05
:103FA00007F070F91C4BF1EE407A83ED160AC3ED71
:103FB000157A10EE100AFCF777FA02460B462D48E8
:103FC00004F038F989E6051D284602F06AFD51EC37
:103FD000100BFCF7B9FDDFED0F0A00EE100A07F039
:103FE00051F90D4B10EE100A83ED170AFCF75CFA3D
:103FF00002460B46204804F01DF96EE61F4804F007
:1040000081F9FFF7D3FB0023A38163606B6038BDA8
:104010000CBD000800000000903B002088BC000898
:104020000000FA440000C842D4BB0008000020424F
:1040300070BC0008D0BC00080000044228BC000886
:104040006F12833A9CBC00080000164358BC00085D
:1040500090370020E8BB000817B7D138ACBC000887
:104060000000704214BC0008FCBB0008E4BC00085F
:1040700040BC0008F8BC0008BCBC00089CBB0008A1
:104080001B2908B5034643D002785AB1042A08D147
:104090000D2943D0027B002A3ED01044C17001326A
:1040A0001A7308BD63391729FBD801A252F821F011
:1040B00051410008A34000086F410008A3400008D8
:1040C000A3400008A3400008A3400008A340000844
:1040D000A3400008A34000085B410008A34000087B
:1040E000A3400008A3400008A3400008A340000824
:1040F00065410008A3400008A3400008A340000851
:10410000A3400008A3400008A34000082541000880
:1041100000224270C27008BD4173C0E7BDE808408C
:10412000FFF7B6BD17489FED180A0023C0F8D4303A
:1041300000F09EFA1348154B826F1A61FFF7A6FA3A
:10414000124BC8B919691248BDE8084004F072B8AA
:10415000012100224170C27008BD0221002241707D
:10416000C27008BD042100224170C27008BD052143
:1041700000224170C27008BD064804F0C3F8034B2A
:10418000E0E700BF58310020D1CB0B38903700203A
:1041900064BD000834BD0008B4EEE00AF1EE10FA88
:1041A000D8BFB0EE600A7047F4EEC00AF1EE10FA24
:1041B000D8BFB0EE600A7047B4EEE00AF1EE10FA34
:1041C00007DDB4EEC10AF1EE10FAD8BFB0EE410A35
:1041D0007047F4EEC10AF1EE10FAD4BFB0EE410A16
:1041E000B0EE600A704700BFB4EEE00AF1EE10FADC
:1041F00007D5B4EEC01AF1EE10FAD8BFB0EE410AFE
:104200007047B4EEE01AF1EE10FAD4BFB0EE410AF6
:10421000B0EE600A704700BFD1ED007A90ED007AF1
:1042200067EEA77AE7EE077AF1EEE76AF4EEC06A86
:10423000F1EE10FA0DDD27EE007AC7EE267AC0ED1A
:10424000007AD1ED007A20EE270AC0EE267AC1ED81
:10425000007A704701238340013B07EE903A30EE2D
:10426000600AF8EEE77A31EE601A67EE807A87EE40
:10427000817AFDEEC77A17EE900A704707EE900A32
:10428000012370EEC00AF8EEE77A8B40013B27EE7F
:10429000A07A07EE903AF8EEE77AC7EE276A36EE94
:1042A000800A704700B5DFED0F0A83B0CDED010A3B
:1042B00006F046FCB5EEC00AF1EE10FA03D5DDEDCE
:1042C000010A30EE200ADFED087A084B20EE270ABB
:1042D000BDEEC00A10EE102A03EB820393ED000A34
:1042E00003B000BDDB0FC94083F9A24240BE000805
:1042F00000B5DFED117ADFED110A83B037EEC00AA9
:10430000CDED010A06F01CFCB5EEC00AF1EE10FA84
:1043100003D5DDED010A30EE200ADFED097A094B05
:1043200020EE270ABDEEC00A10EE102A03EB82032E
:1043300093ED000A03B000BDDB0FC93FDB0FC9409E
:1043400083F9A24240BE000870B5054684B03548E6
:104350000E464FF4004101F069FD00230393039BD7
:104360003F2B06D800BF039B01330393039B3F2BD6
:10437000F8D940F6010401E0013C3ED02A48022170
:1043800001F058FF0028F7D02748294601F04CFFDC
:1043900040F6010401E0013C3ED02348012101F038
:1043A00049FF0028F7D0204801F040FF40F6010403
:1043B000308001E0013C32D01B48802101F03AFFFF
:1043C0000128F7D000230293029B3F2B4FF00004FB
:1043D0001AD914484FF4004101F026FD002301933F
:1043E000019B3F2B06D800BF019B01330193019B2A
:1043F0003F2BF8D9204604B070BD4FF0FF340023A6
:104400000293029B3F2BE4D800BF029B013302932F
:10441000029B3F2BF8D9DCE76FF00104EFE76FF068
:104420000204ECE700080140003C0040F0B50646FD
:1044300083B008461746FDF7D1FC044643F6FF70EB
:10444000FDF7CCFC01A905462046FFF77DFF48BBE0
:104450000DF106012846FFF777FF18BBBDF80640AF
:104460002046FDF7CBFC431CA6F8E0420BD00230FF
:1044700012D0C4F30D043C8001A92846FFF764FF65
:1044800080B903B0F0BDD6F800330133C6F800336D
:104490006FF0010003B0F0BDD6F804330133C6F865
:1044A0000433F5E7D6F8FC3201334FF48070C6F8D8
:1044B000FC32FCF747FE4FF0FF30E2E710B582B068
:1044C0000DF1020243F6FC710446FFF7AFFFF0B9AD
:1044D00001AA43F6FD712046FFF7A8FFB8B90DF118
:1044E000060201212046FFF7A1FF80B9BDF8063082
:1044F000BDF80210BDF80420A4F8EA32A4F8E612D0
:10450000A4F8E822012384F8DE3202B010BD0023B3
:104510004FF0FF30F7E700BF2DE9F04F04464FF0B2
:1045200000080E4687B043F6FF70FDF757FC46457E
:10453000A4F8DD82A4F8EC8240F3848001230746CE
:10454000CDF8088003939A46C1460DF1160138460E
:10455000FFF7FAFE90BB012E44D04FF0010B00256F
:104560000DF116013846FFF7EFFE48BBBDF8168087
:1045700001904046FDF742FC431C019AA4F8E082FA
:10458000C8F30D0C05F101053AD0023054D00BF1FF
:10459000010B5E45A4F8E2C284F8DDA2A4F8EC2287
:1045A000DED11F2D1ED92046FFF788FFB0FA80F01C
:1045B000400984F8DE0207B0BDE8F08F4FF0000B31
:1045C000D4F8FC12B4F8EC2284F8DD920BF1010B64
:1045D0000131013201235E45C4F8FC12A4F8EC223B
:1045E0000293BCD1039D032D1AD0142000F08CFC43
:1045F0006B1C03930023A4F8DD32A4F8EC32A4E78B
:10460000D4F800230132C4F800230BF1010B5E45FE
:104610004FF0000584F8DD92A2D1039D032DE4D173
:10462000029A002384F8DD329A4214BF4FF480705E
:104630004020FCF787FDB6E7D4F804230132C4F824
:104640000423E2E70125032D4FF014000CD00135BF
:1046500000F05AFC4FF00003032DA4F8DD32A4F85B
:10466000EC824FF01400F2D100230293D8E700BF90
:1046700070B52DED028B044684B043F6FF70B0EEAA
:10468000408AFDF7ABFBD4F8F03201330DF10E0197
:10469000C4F8F032FFF758FE002840F0C380BDF8A0
:1046A0000E30019305461846FDF7A8FB019BA4F8C0
:1046B000E032421C00F00881023000F0DD80D4F8C6
:1046C000F422C3F30D06002A40F0ED80002366F3C8
:1046D0000F03D4ED016A012166F31F43B5000A44BC
:1046E000C4F8E232002384F8DD12C4F8F422A4F8FE
:1046F000EC32C4ED026A4C2204F10C01656704F14E
:104700001000CDED016A03F005FE6B125A1C02F099
:104710007F0204EB830304EB8202D3F8DC30D2F88F
:10472000DC209FED7B6ADDED016AC5F30801D21A3A
:1047300001FB02F203EB62232B447649A3670A696B
:104740009A1A07EE102ABAEEC87AFDEEC77AF8EE8A
:10475000E77A37EE677A27EE067AB5EEC07AF1EEA1
:1047600010FA01D537EE067A4A6994ED1A6ADFED40
:104770006A5A9FED675A84ED017A9B1A07EE903AC8
:10478000F8EEE77A67EE867A67EEA57AFDEEE75AED
:10479000F8EEE55A77EEE57A67EE857AF5EEC07ABF
:1047A000F1EE10FA01D577EE857A77EE666ADFEDE5
:1047B0005B5AC4ED177AF4EEE56AF1EE10FA48DCC4
:1047C000DFED577AD4F8801094F8DC22F4EEE76A33
:1047D000F1EE10FA4CBF012300230B44C4F88030E3
:1047E000002A41D007EE903ADFED496AF8EEE77A09
:1047F00067EEA67A37EE277AD4ED166A84ED037A4F
:10480000F3EE037A77EE666A68EE277A86EEA77A89
:1048100026EE076A84ED187A84ED196A04B0BDECBF
:10482000028B70BDD4E9BE21B4F8EC320131013203
:10483000C4E9BE210020013384F8DD02A4F8EC3283
:104840004FF4807004B0BDEC028BBDE87040FCF703
:1048500079BCD4F8801094F8DC224FF0FF330B447D
:10486000C4F88030002ABDD10123DFED2E7AC4F8D0
:10487000802084F8DC32BDE7D4F804330133C4F877
:104880000433B4F8EC32D4F8F82201339BB201328D
:104890000021022BC4F8F822A4F8EC3284F8DD12CF
:1048A000BCD94020CEE7B4F8E4123046FDF7B4FAA4
:1048B00000F50070B0F5806F0CD8B4F8E432B34264
:1048C0001DD0D4F8F42201E7D4F800330133C4F842
:1048D0000033D6E7B4F8EC32D4F80813D4F8F82251
:1048E00084F8DD5201339BB201310132022BC4F84E
:1048F0000813C4F8F822A4F8EC328FD9D1E7D4F821
:104900000C33D4F8F4220133C4F80C33DEE600BFD4
:10491000DB0FC9409037002000008037DB0F494093
:10492000DB0F49C00000000070B5224D2B6803F575
:104930001C5310338B4200D970BD04460E46416FA4
:104940001D4803F077FCA16F1C4803F073FC6068FE
:10495000FBF7AAFD02460B46194803F06BFCE06822
:10496000FBF7A2FD02460B46164803F063FCE06D20
:10497000FBF79AFD02460B46134803F05BFCD4F8A4
:104980008010124803F056FC94F8DD12104803F032
:1049900051FCD4F8FC120F4803F04CFCD4F800137F
:1049A0000D4803F047FC0D48D4F8041303F042FC13
:1049B0002E6070BDB43C00208CBD000898BD00087E
:1049C000B0BD0008C8BD0008DCBD0008F0BD00088F
:1049D00000BE00080CBE000818BE000828BE000873
:1049E00030B585B001AB83E807000E4D002401AB64
:1049F00093E807002346FEF797F90134B4F5807F6A
:104A000045F8040FF3D1084D01AB93E807002346A6
:104A1000FEF79EF90134B4F5A07FA5EC010AF3D1AD
:104A200005B030BD8C370020903B002070B586B0BB
:104A300003AB83E8070003AA07CA4FF4A073FEF78D
:104A40007DF903AA064640F2411307CAFEF776F93C
:104A500003AA05464FF4A17307CAFEF76FF90DF1DB
:104A60000C0C044640F243139CE80700FEF766F97D
:104A7000054A0192054A00920346224629463046DD
:104A8000FDF74EF906B070BD903B00209037002036
:104A900000B583B00190FEF7FDF80198416800224F
:104AA000FF23C0E90312838203B000BD30B517496C
:104AB0008BB004461648FCF701FF0546E8B1237D9C
:104AC000012B1ED900210B46E268637502EB010E33
:104AD00094E8070004AB83E807000DF1040CCDF85F
:104AE00014E08CE8070093E8070007AB83E80700B1
:104AF00084E807002046FEF7D9F82846A5750BB0D4
:104B000030BD013303F00103D902DDE7903B002003
:104B100090370020F0B5837D83B005462BB9002483
:104B200000232046AB7503B0F0BD48494848FCF768
:104B3000C5FE0028F3D045494548464EFCF77CFEAB
:104B40000024074656F8043F95E8070000932346E3
:104B50000134FEF7B9F8B4F5807FF3D13B4EB6ECE3
:104B6000010A234695E807000134FEF7C5F8B4F5BD
:104B7000A07FF4D10223009395E8070040F241138F
:104B8000FEF7AEF8009495E807004FF4A173FEF726
:104B9000A7F8009795E8070040F24313FEF7A0F846
:104BA0002A690132009295E807004FF4A273FEF7DC
:104BB00097F8294B009395E807002346FEF790F8F5
:104BC000234926484FF4806203F00AFC1F49244819
:104BD0004FF4807203F004FC95E80700FFF700FF34
:104BE00095E80700FFF722FF044660B91B49184803
:104BF0004FF4806203F0F4FB194914484FF48072BB
:104C000003F0EEFB8BE795E807004FF4A273FEF785
:104C100095F82B69114907464FF480620C485E1CD9
:104C200003F0DEFB0E4909484FF4807203F0D8FB15
:104C3000B7427FF474AF2B696A7D2A7501332B610B
:104C400020460023AB7503B0F0BD00BF903B0020B1
:104C5000903700208C3700204154484EB83D00204A
:104C6000B83C00202DE9F04F93B006460DF10C083A
:104C700000274FF0FF0A0CAD09AC0DF1100996E8C2
:104C800007000DF13C0C8CE80700F36803EBC72329
:104C9000109385E807009CE8070084E80700FFF709
:104CA0009FFE94E80700FFF7C1FE4FF4A27388F857
:104CB0000000834694E80700FEF740F849F8270013
:104CC0000346002F41D0BBF1000F02D0BAF1FF0F15
:104CD00054D1059B9DF80D2004999DF80C00FDF71B
:104CE00047F8002859DB5FFA80F8B8F1FF0F54D07D
:104CF000B8F1000F56D1354935484FF4806203F0C2
:104D00006FFB344934484FF4807203F069FBF2685A
:104D100086F8148002EBC82796E8070085E80700AC
:104D20000D9784E8070095E807000FAC84E80700BA
:104D30000DEB880394E807001B693361012386E8C3
:104D40000700184613B0BDE8F08FBBF1000F10D07C
:104D50001F491E4801934FF4806203F041FB1E4936
:104D60001C484FF4807203F03BFBBAF1FF0F04D1F3
:104D7000BA4608F10108012781E7019B18460DEBAF
:104D80008A031969FCF7EEFF08B15FFA87FA002F72
:104D90009FD108F10108012771E70023184613B0DD
:104DA000BDE8F08FF26802EBC82396E807000DF12A
:104DB0003C0C8CE80700109385E807009CE807008E
:104DC00006AF87E80700FFF70BFEA0E7B83D00201D
:104DD00090370020B83C0020903B002000238375D2
:104DE000FDF798BF9DF800C030B949B932B14BB159
:104DF000844508BF05207047012070470320704795
:104E00000220704704207047081A904234BF0020E7
:104E1000012070470120704708B503F0AFFA162350
:104E200003604FF0FF3008BD08B503F0A7FA162362
:104E30000360FEE770B5161E07DD0C468D19AFF353
:104E4000008004F8010BA542F9D1304670BD00BFC7
:104E500070B5161E07DD0C468D1914F8010BFDF711
:104E6000EFF8A542F9D1304670BD00BF4FF0FF30DA
:104E7000704700BF4FF400534B600020704700BFE5
:104E800001207047002070470C4A08B5136833B101
:104E900018446946884208D81060184608BD084B77
:104EA0001360184469468842F6D903F067FA0C2368
:104EB00003604FF0FF33184608BD00BFB841002023
:104EC000184300200D4B0E4A1B68A2FB03239B09CD
:104ED000013BB3F1807F00D3FEE74FF0E0220949A8
:104EE0005361F02081F823004FF0000C07201023BD
:104EF000C2F818C0106181F823307047000000200C
:104F0000D34D621000ED00E0024A10601368002BE0
:104F1000FCD17047C441002008B50F4B0F481A68F8
:104F20000F4901321A601B6800FB03F3B1EBB30FAA
:104F300006D20C4B1A6812B11A68013A1A6008BD01
:104F4000094B0A481A78B2FA82F252094FF400511A
:104F50001A7000F06DFFECE7C0410020D578E9261B
:104F60006E128300C4410020BC41002000100140AB
:104F7000014B1868704700BFC0410020704700BF58
:104F800008B50220FCF7DEF8FEE700BF08B50420F4
:104F9000FCF7D8F8FEE700BF08B50820FCF7D2F808
:104FA000FEE700BF08B51020FCF7CCF8FEE700BF15
:104FB000704700BF704700BF704700BFFFF7ACBF2E
:104FC00070B5314C3148324D84B02246002100F09A
:104FD0001DFC627A217A6B680093B2FA82F2B1FA10
:104FE00081F1A37A206852094909FCF7D1FE08B97A
:104FF00004B070BD274A2849284B92ED0E7A91EDF6
:10500000111AD2ED117AD3ED180A93ED030A29791A
:10501000234821EE071AC0EEA70A80EE270A21EEE8
:10502000271AFCF7FBFA1E49184800F09BFB0DF10C
:105030000F0104F10B00FCF7BDFE054688B19DF899
:105040000F30FD2B1BD0FE2B06D0FC2BD0D11548EA
:105050006D21FFF715F8CBE712487A21FFF710F81A
:10506000C6E70D4E236906F1CC02CDE9003294E883
:105070000F00FCF715FBC6F8B85004B070BD094826
:105080001B21FEF7FDFFB3E7E801002000640040AC
:1050900090370020903B00207834002058310020C9
:1050A000FC0100206834002038B5154D1548012159
:1050B00001F0A6F92B78022B14D0134C2046FDF7F3
:1050C00097FE9FED120A1248FFF7D2FA0C48FEF73E
:1050D0001BFDD4F8B4302A780133022AC4F8B43066
:1050E00006D038BD0B484FF4005100F09DFEE4E7B8
:1050F000BDE8384007484FF4005100F097BE00BFAC
:1051000068340020002C014078340020D1CB0B38CB
:10511000583100200010014008B54FF4805000F0D5
:10512000B1FC0C484FF4805100F088FE00B108BD7E
:1051300000F1804000F584304FF4006100F084FEFF
:105140000028F4D02020FBF7FDFF034B01229A80BA
:1051500008BD00BF000801404C31002008B50749D8
:10516000074801F0CFFB00B908BD054801F0B2FBCC
:10517000BDE80840C1B20348FEF782BF0503050041
:10518000004400406834002008B5154B98421BD0FD
:1051900003F5A05398420DD0A3F5C05398421DD1FA
:1051A00040F2093000F02AFFBDE8084040F2093023
:1051B00000F032BF40F20F3000F020FFBDE80840A1
:1051C00040F20F3000F028BF40F20A3000F016FF26
:1051D000BDE8084040F20A3000F01EBF08BD00BF25
:1051E000002801408368DB0703D4836843F0010390
:1051F00083607047826842F0080200F10803826011
:105200001A681107FCD4826842F0040282601A68AE
:105210005207FCD4704700BF836843F480738360F7
:10522000704700BF064BD3F8042422F47022C3F861
:105230000424D3F804240243C3F80424704700BFB5
:105240000020014001F480738AB11BB1436843F42C
:10525000807343604B0503D5436843F48063436028
:10526000890715D5836843F00203836070471BB13B
:10527000436823F4807343604A0503D5436823F4ED
:10528000806343608B0703D5836823F00203836048
:10529000704700BF836819B143F4006383607047AF
:1052A00023F400638360704701290ED0022900D0E7
:1052B0007047836B23F440138363013A836B1205B9
:1052C00002F440121A4382637047C36A23F47003E6
:1052D000C362013AC36A120502F470021A43C26241
:1052E000704700BF052900B52ED8D0F834C001EBB7
:1052F00081014FF01F0E0EFA01FE2CEA0E0C02FA8D
:1053000001F141EA0C014163092A0DD8016902EB60
:1053100042024FF0070C0CFA02FC21EA0C0103FADE
:1053200002F20A43026100BD112AFCD80A3AC168A0
:1053300002EB42024FF0070C0CFA02FC21EA0C01CE
:1053400093400B43C36000BD0B2910D80639D0F839
:1053500030C001EB81014FF01F0E0EFA01FE2CEA66
:105360000E0C02FA01F141EA0C010163CCE70F29AE
:10537000CAD80C39D0F82CC001EB81014FF01F0EB8
:105380000EFA01FE2CEA0E0C02FA01F141EA0C01C0
:10539000C162B9E7D0F838C00331CCF3015CA1EBAE
:1053A0000C0101EB81014FF01F0C00B50CFA01FE5E
:1053B000D0F838C002FA01F12CEA0E0C41EA0C01D7
:1053C000092A81630DD8016902EB42024FF0070CF4
:1053D0000CFA02FC21EA0C0103FA02F20A43026110
:1053E00000BD112AFCD80A3AC16802EB42024FF014
:1053F000070C0CFA02FC21EA0C0193400B43C3603A
:1054000000BD00BF01F001035AB11BB1836843F432
:10541000801383608A070FD5836843F40043836059
:1054200070471BB1836823F4801383608B0703D517
:10543000836823F400438360704700BF01290AD0CA
:10544000022900D07047836823F4E04383608368B7
:10545000134383607047836823F460238360836809
:1054600013438360704700BFCA0703D5836843F4C2
:10547000800383608B0703D5836843F40013836044
:10548000704700BF03290FD8DFE801F00B080502C1
:10549000806C80B27047406C80B27047006C80B204
:1054A0007047C06B80B270470020704703680B42A2
:1054B00014BF012000207047036823EA0103036042
:1054C000704700BF08B5074B984200D008BD40F2B6
:1054D000194000F093FDBDE8084040F2194000F08B
:1054E0009BBD00BF0064004029B103282CD8DFE831
:1054F00000F00E182103FEE70023C1F80B30C1F8BD
:105500000F308B724B60CB740B810B6070470023A4
:1055100040F2FF304FF4003248810B810A604B604B
:10552000704700234FF480320B740B604B608B602C
:10553000CA6070470023C1F80B30C1F80F308B727E
:105540004B600B810B607047FEE700BF036823F0E0
:10555000020300B503600368844643F001034CF87E
:10556000043B4368DB07864608D44FF6FF7301E02F
:10557000013B03D0DCF80020D007F9D5DEF80400A9
:1055800010F0010070D04B788A781B06120402F4E8
:10559000702203F0407313430A7843EA8273CA7897
:1055A000120502F4E00213434A89013AC2F30902E8
:1055B0001343CEF81C300B79012BDEF800300CBF02
:1055C00043F0800323F08003CEF800304B79012BA9
:1055D000DEF800300CBF43F0400323F04003CEF868
:1055E00000308B79012BDEF800300CBF43F0200334
:1055F00023F02003CEF80030CB79012BDEF8003009
:105600000CBF43F0100323F01003CEF800300B7AE8
:10561000012BDEF800300CBF43F0080323F0080331
:10562000CEF800304B7A012BDEF800300CBF43F08F
:10563000040323F00403CEF80030DEF8003023F03A
:105640000103CEF80030DEF80430DA070DD54FF64E
:10565000FF7000E040B1DCF80030DB0700F1FF3004
:10566000F8D4003818BF012000BD012000BD00BFE4
:105670003B494389D1F8002642F0010200B5C1F848
:105680000026D1F81CC6B0F80EE001229A402CEAA0
:10569000020CC1F81CC6BEF1000F45D1D1F80CC6F2
:1056A00003F100632CEA020CC1F80CC603F6C843F0
:1056B000B0F806C04188DB0041EA0C41B0F804C0F4
:1056C0001960018841EA0C415960838924492BBB48
:1056D000D1F8043623EA0203C1F8043603892049CD
:1056E000B3B9D1F8143623EA0203C1F81436037CA7
:1056F000012B05D11A49D1F81C361343C1F81C36C9
:10570000174AD2F8003623F00103C2F8003600BD74
:10571000D1F814361343C1F81436E8E7D1F804364B
:105720001343C1F80436D9E7BEF1010FCDD1D1F84A
:105730000CC603F100634CEA020CC1F80CC603F678
:10574000C843B0F800C04188DB0041EA0C41B0F822
:1057500004C01960C18841EA0C415960B5E700BF37
:105760000060004082685201034605D4826812013D
:1057700043D51033012000E00020D3F8802102F04F
:10578000010210B5C3F8802191F808E04A7A03F5C8
:10579000C07CBEF1000F26D04C6842EAC40242EA47
:1057A0000E02D3F880E142EA0E02C3F88021D3F85A
:1057B000842122F00F02C3F88421D3F884E18A7A8D
:1057C00042EA0E02C3F88421D1F80B20C3F88821E5
:1057D000D1F80F20C3F88C21DCF8003043F001032E
:1057E000CCF8003010BD0C68D3F880E142EA445296
:1057F00042EA0E02C3F88021D9E78268D20002D5BE
:1058000020330220B9E70320704700BF00EB0113EB
:10581000D3F8B0C10CF0040C82F808C0BCF1000F42
:1058200047D1D3F8B0C14FEA5C5CC2F800C0D3F8EE
:10583000B0C10CF0020C82F809C0D3F8B4C14FEA31
:105840001C2C82F813C0D3F8B4C10CF00F0C82F8F2
:105850000AC0D3F8B8C182F80BC0D3F8B8C14FEA78
:105860001C2C82F80CC0D3F8B8C14FEA1C4C82F84B
:105870000DC0D3F8B8C14FEA1C6C82F80EC0D3F843
:10588000BCC182F80FC0D3F8BCC14FEA1C2C82F80F
:1058900010C0D3F8BCC14FEA1C4C82F811C0D3F839
:1058A000BC311B0E937459B9C36843F02003C36025
:1058B0007047D3F8B0C14FEADC0CC2F804C0B6E7B9
:1058C000036943F020030361704700BF43690B4342
:1058D000436170470D4B984215D001EB810300EBFB
:1058E00083030022D3F808C02CF0010CC3F808C0D1
:1058F0009A60DA601A615A61426889000F238B400E
:105900001343436070470429E7D9FEE700040240CF
:105910001D4B984234D001EB810100EB81001368EC
:1059200010B4036193684361138AC360D4685368F9
:1059300081682343546921F47C5123430B438360E2
:10594000137E012B83680CBF43F0400323F0400318
:105950008360537E012B83680CBF43F0800323F0E8
:1059600080038360937E2BB1836843F0100310BCE7
:1059700083607047836823F0100310BC8360704716
:105980000429C8D9FEE700BF00040240074B984233
:1059900008D001EB8101890008300B5843F0200347
:1059A0000B5070470429F4D9FEE700BF0004024001
:1059B000074B984208D001EB8101890008300B5851
:1059C00043F001030B5070470429F4D9FEE700BFF0
:1059D000000402402A4BD3F800C42CEA000CC3F8A0
:1059E00000C4D3F804C42CEA000CC3F804C4D3F8F0
:1059F00008C42CEA000CC3F808C4D3F80CC42CEA81
:105A0000000CC3F80CC449B3012905D0012A0BD0FE
:105A1000022A29D0AAB17047D3F80414012A41EA16
:105A20000001C3F80414F3D1154BD3F8082422EA7B
:105A30000002C3F80824D3F80C240243C3F80C2452
:105A400070470F4BD3F808240243C3F80824D3F857
:105A50000C2422EA0002C3F80C247047D3F8001487
:105A60000143C3F80014D1E7054BD3F808240243DF
:105A7000C3F80824D3F80C240243C3F80C2470475D
:105A800000000140014BC3F81404704700000140BE
:105A90000B4B1A69110603D50A490B4A59605A6023
:105AA0000A4BB3F8E030B3F5007F07D9044B1A6D09
:105AB000120603D50349044A59645A64704700BF6B
:105AC0000020024023016745AB89EFCD00F7FF1F9F
:105AD000074B08491A69B1F8E01042F08002B1F5AD
