:020000040800F2
:1000000000000120F9720008855700088957000890
:1000100095570008A1570008AD57000800000000E0
:10002000000000000000000000000000B9570008B8
:10003000BD57000800000000C1570008C557000860
:1000400049730008497300084973000849730008A0
:100050004973000849730008497300084973000890
:100060004973000849730008497300084973000880
:100070004973000849730008497300084973000870
:100080004973000849730008497300084973000860
:10009000C9570008497300084973000849730008EC
:1000A00049730008E55800084973000849730008BF
:1000B0004973000849730008497300084973000830
:1000C0004973000849730008497300084973000820
:1000D0004973000849730008B159000849730008C2
:1000E00065590008497300084973000849730008FE
:1000F00049730008497300084973000849730008F0
:1001000049730008497300084973000849730008DF
:1001100049730008497300084973000849730008CF
:1001200049730008497300084973000849730008BF
:1001300001F0FF01102A2BDB10F0070F08D010F898
:10014000013B013A8B422DD010F0070F42B3F6D19C
:10015000F0B441EA012141EA014122F007047FF0B5
:1001600000070023F0E80256083C85EA010586EA0C
:10017000010685FA47F5A3FA87F586FA47F6A5FA48
:1001800087F68EB9EED1F0BC01F0FF0102F0070254
:1001900032B110F8013B013A83EA010313B1F8D1FF
:1001A0000020704701387047002D06BF35460338E0
:1001B000073815F0010F07D1013015F4807F02BF19
:1001C000013015F4C03F0130F0BC0138704700BF6A
:1001D000034613F8012B002AFBD1181A0138704787
:1001E00081F0004102E000BF83F0004330B54FEAE8
:1001F00041044FEA430594EA050F08BF90EA020F55
:100200001FBF54EA000C55EA020C7FEA645C7FEAE7
:10021000655C00F0E2804FEA5454D4EB5555B8BF0A
:100220006D420CDD2C4480EA020281EA030382EA7B
:10023000000083EA010180EA020281EA0303362D0D
:1002400088BF30BD11F0004F4FEA01314FF4801CE0
:100250004CEA113102D0404261EB410113F0004FF2
:100260004FEA03334CEA133302D0524263EB4303A9
:1002700094EA050F00F0A780A4F10104D5F1200E47
:100280000DDB02FA0EFC22FA05F2801841F10001A2
:1002900003FA0EF2801843FA05F359410EE0A5F176
:1002A00020050EF1200E012A03FA0EFC28BF4CF0A7
:1002B000020C43FA05F3C01851EBE37101F000455D
:1002C00007D54FF0000EDCF1000C7EEB00006EEB6A
:1002D0000101B1F5801F1BD3B1F5001F0CD34908F4
:1002E0005FEA30004FEA3C0C04F101044FEA44524B
:1002F00012F5800F80F09A80BCF1004F08BF5FEAD2
:10030000500C50F1000041EB045141EA050130BDB1
:100310005FEA4C0C404141EB0101013C28BFB1F5C3
:10032000801FE9D291F0000F04BF01460020B1FA0E
:1003300081F308BF2033A3F10B03B3F120020CDAE1
:100340000C3208DD02F1140CC2F10C0201FA0CF0BF
:1003500021FA02F10CE002F11402D8BFC2F1200C24
:1003600001FA02F120FA0CFCDCBF41EA0C019040DA
:10037000E41AA2BF01EB0451294330BD6FEA040423
:100380001F3C1CDA0C340EDC04F11404C4F120020E
:1003900020FA04F001FA02F340EA030021FA04F320
:1003A00045EA030130BDC4F10C04C4F1200220FA77
:1003B00002F001FA04F340EA0300294630BD21FAB5
:1003C00004F0294630BD94F0000F83F4801306BF7B
:1003D00081F480110134013D4EE77FEA645C18BF6F
:1003E0007FEA655C29D094EA050F08BF90EA020F06
:1003F00005D054EA000C04BF1946104630BD91EAFE
:10040000030F1EBF0021002030BD5FEA545C05D100
:100410004000494128BF41F0004130BD14F580043F
:100420003CBF01F5801130BD01F0004545F0FE41B3
:1004300041F470014FF0000030BD7FEA645C1ABFE8
:10044000194610467FEA655C1CBF0B46024650EA1F
:10045000013406BF52EA033591EA030F41F400214B
:1004600030BD00BF90F0000F04BF0021704730B5D1
:100470004FF4806404F132044FF000054FF00001A6
:1004800050E700BF90F0000F04BF0021704730B567
:100490004FF4806404F1320410F0004548BF40423C
:1004A0004FF000013EE700BF42004FEAE2014FEA91
:1004B00031014FEA02701FBF12F07F4393F07F4F6C
:1004C00081F06051704732F07F4208BF704793F06F
:1004D0007F4F04BF41F40021704730B54FF4607482
:1004E00001F0004521F000411CE700BF50EA010285
:1004F00008BF704730B54FF000050AE050EA01022E
:1005000008BF704730B511F0004502D5404261EB9D
:1005100041014FF4806404F132045FEA915C3FF4DE
:10052000D8AE4FF003025FEADC0C18BF03325FEA7B
:10053000DC0C18BF033202EBDC02C2F1200300FA2C
:1005400003FC20FA02F001FA03FE40EA0E0021FA51
:1005500002F11444BDE600BF70B54FF0FF0C4CF43F
:10056000E06C1CEA11541DBF1CEA135594EA0C0FF1
:1005700095EA0C0F00F0DEF82C4481EA030621EA2C
:100580004C5123EA4C5350EA013518BF52EA033567
:1005900041F4801143F4801338D0A0FB02CE4FF019
:1005A0000005E1FB02E506F00042E0FB03E54FF049
:1005B0000006E1FB03569CF0000F18BF4EF0010E41
:1005C000A4F1FF04B6F5007F64F5407404D25FEA3D
:1005D0004E0E6D4146EB060642EAC62141EA5551F0
:1005E0004FEAC52040EA5E504FEACE2EB4F1FD0C32
:1005F00088BFBCF5E06F1ED8BEF1004F08BF5FEAB0
:10060000500E50F1000041EB045170BD06F0004661
:1006100046EA010140EA020081EA0301B4EB5C040E
:10062000C2BFD4EB0C0541EA045170BD41F4801106
:100630004FF0000E013C00F3AB8014F1360FDEBF2B
:10064000002001F0004170BDC4F10004203C35DA07
:100650000C341BDC04F11404C4F1200500FA05F38A
:1006600020FA04F001FA05F240EA020001F000422B
:1006700021F0004110EBD37021FA04F642EB0601A1
:100680005EEA430E08BF20EAD37070BDC4F10C04CB
:10069000C4F1200500FA04F320FA05F001FA04F28F
:1006A00040EA020001F0004110EBD37041F100017B
:1006B0005EEA430E08BF20EAD37070BDC4F1200586
:1006C00000FA05F24EEA020E20FA04F301FA05F2EE
:1006D00043EA020321FA04F001F0004121FA04F296
:1006E00020EA020000EBD3705EEA430E08BF20EA66
:1006F000D37070BD94F0000F0FD101F000464000A0
:1007000041EB010111F4801F08BF013CF7D041EA21
:10071000060195F0000F18BF704703F00046520025
:1007200043EB030313F4801F08BF013DF7D043EAF6
:100730000603704794EA0C0F0CEA135518BF95EAAC
:100740000C0F0CD050EA410618BF52EA4306D1D133
:1007500081EA030101F000414FF0000070BD50EA52
:10076000410606BF1046194652EA430619D094EADC
:100770000C0F02D150EA013613D195EA0C0F05D1C6
:1007800052EA03361CBF104619460AD181EA03011A
:1007900001F0004141F0FE4141F470014FF00000D2
:1007A00070BD41F0FE4141F4780170BD70B54FF06D
:1007B000FF0C4CF4E06C1CEA11541DBF1CEA1355ED
:1007C00094EA0C0F95EA0C0F00F0A7F8A4EB0504CF
:1007D00081EA030E52EA03354FEA013100F08880C6
:1007E0004FEA03334FF0805545EA131343EA12638F
:1007F0004FEA022245EA111545EA10654FEA002644
:100800000EF000419D4208BF964244F1FD0404F5FC
:10081000407402D25B084FEA3202B61A65EB030558
:100820005B084FEA32024FF480104FF4002CB6EB15
:10083000020E75EB030E22BFB61A754640EA0C0095
:100840005B084FEA3202B6EB020E75EB030E22BFD5
:10085000B61A754640EA5C005B084FEA3202B6EB16
:10086000020E75EB030E22BFB61A754640EA9C00D5
:100870005B084FEA3202B6EB020E75EB030E22BFA5
:10088000B61A754640EADC0055EA060E18D04FEA63
:10089000051545EA16754FEA06164FEAC30343EA03
:1008A00052734FEAC2025FEA1C1CC0D111F4801FD0
:1008B0000BD141EA00014FF000004FF0004CB6E7C9
:1008C00011F4801F04BF01430020B4F1FD0C88BF68
:1008D000BCF5E06F3FF6AFAEB5EB030C04BFB6EB73
:1008E000020C5FEA500C50F1000041EB045170BD66
:1008F0000EF0004E4EEA113114EB5C04C2BFD4EB93
:100900000C0541EA045170BD41F480114FF0000E16
:10091000013C90E645EA060E8DE60CEA135594EA92
:100920000C0F08BF95EA0C0F3FF43BAF94EA0C0F95
:100930000AD150EA01347FF434AF95EA0C0F7FF40A
:1009400025AF104619462CE795EA0C0F06D152EA5E
:1009500003353FF4FDAE1046194622E750EA410642
:1009600018BF52EA43067FF4C5AE50EA41047FF453
:100970000DAF52EA43057FF4EBAE12E74FF0FF3CB8
:1009800006E000BF4FF0010C02E000BF4FF0010C89
:100990004DF804CD4FEA410C7FEA6C5C4FEA430C02
:1009A00018BF7FEA6C5C1BD001B050EA410C0CBF51
:1009B00052EA430C91EA030F02BF90EA020F0020B3
:1009C000704710F1000F91EA030F58BF994208BF1A
:1009D00090422CBFD8176FEAE37040F001007047D7
:1009E0004FEA410C7FEA6C5C02D150EA013C07D12E
:1009F0004FEA430C7FEA6C5CD6D152EA033CD3D079
:100A00005DF8040B704700BF8446104662468C4672
:100A10001946634600E000BF01B5FFF7B7FF0028A5
:100A200048BF10F1000F01BD4DF808EDFFF7F4FFCE
:100A30000CBF012000205DF808FB00BF4DF808ED59
:100A4000FFF7EAFF34BF012000205DF808FB00BF7C
:100A50004DF808EDFFF7E0FF94BF012000205DF89E
:100A600008FB00BF4DF808EDFFF7CEFF94BF012053
:100A700000205DF808FB00BF4DF808EDFFF7C4FF4C
:100A800034BF012000205DF808FB00BF4FEA410C95
:100A90007FEA6C5C02D150EA013C0AD14FEA430C78
:100AA0007FEA6C5C02D152EA033C02D14FF00000B5
:100AB00070474FF0010070474FEA410212F50012F3
:100AC00015D211D56FF47873B3EB625212D94FEA95
:100AD000C12343F0004343EA505311F0004F23FA7F
:100AE00002F018BF404270474FF00000704750EAD4
:100AF000013005D111F0004008BF6FF00040704791
:100B00004FF00000704700BF4A0011D212F50012EA
:100B100011D20DD56FF47873B3EB62520ED44FEA55
:100B2000C12343F0004343EA505323FA02F07047D5
:100B30004FF00000704750EA013002D14FF0FF3013
:100B400070474FF0000070474FEA4102B2F1E043B6
:100B500024BFB3F5001CDCF1FE5C0DD901F0004CA4
:100B60004FEAC0024CEA5070B2F1004F40EB8300F4
:100B700008BF20F00100704711F0804F21D113F120
:100B80003872BCBF01F00040704741F480114FEA59
:100B90005252C2F11802C2F1200C10FA0CF320FAE2
:100BA00002F018BF40F001004FEAC1234FEAD323FF
:100BB00003FA0CFC40EA0C0023FA02F34FEA430369
:100BC000CCE77FEA625307D150EA01331EBF4FF0F2
:100BD000FE4040F44000704701F0004040F0FE400D
:100BE00040F40000704700BF0348044B834202D02A
:100BF000034B03B118477047CC010020CC01002003
:100C0000000000000548064B1B1AD90F01EBA30199
:100C1000491002D0034B03B118477047CC010020A4
:100C2000CC0100200000000010B5064C237843B929
:100C3000FFF7DAFF044B13B10448AFF30080012340
:100C4000237010BDCC01002000000000FCBC000897
:100C500008B5054B1BB105490548AFF30080BDE859
:100C60000840FFF7CFBF00BF00000000D001002008
:100C7000FCBC000808B5012005F006FE4FF4C0607A
:100C800005F0D8FD40F2026005F0D4FD40F20360AB
:100C900005F0D0FD40F2046005F0CCFD4FF4A060FB
:100CA00005F0C8FD40F2015005F0C4FD40F2197096
:100CB00005F0C0FD40F20E7005F0BCFD40F20F7073
:100CC00005F0B8FD40F20B6005F0B4FD40F209609C
:100CD00005F0B0FD40F20A6005F0ACFD40F20F6097
:100CE00005F0A8FDBDE8084040F2117005F0A2BD76
:100CF00070B504F007FDFFF7BDFF00F027FA01F023
:100D000041FC01F0ABFB00F035FC01F059FB01F0B8
:100D10007FFB00F0C7FA00F0B3FB02F09FFBC54871
:100D200007F044FFC44807F041FF012300220221DD
:100D3000C24807F0D3FEC248062104F0C9FAC048F1
:100D400004F0B0FB002800F0AC81BE4DBE4C6B69D6
:100D5000D4ED027A013304BF00236B612B690133A8
:100D600008BF0023F4EE677A08BF2B61F1EE10FA9A
:100D700080F19481BFEE007AF4EE477AF1EE10FA3A
:100D800000F08C81D4ED037AF4EE677AF1EE10FA7C
:100D900080F18181BFEE007AF4EE477AF1EE10FA2D
:100DA00000F07981D4ED067AF4EE677AF1EE10FA6C
:100DB00080F16E81BFEE007AF4EE477AF1EE10FA20
:100DC00000F066816B68D4ED077A013304BF01231C
:100DD0006B60AB68013304BF0023AB60EB68013389
:100DE00008BF4FF47A73F4EE677A08BFEB60F1EE58
:100DF00010FA80F11B81BFEE007AF4EE477AF1EE33
:100E000010FA00F01381D4ED087AF4EE677AF1EE6F
:100E100010FA80F10881BFEE007AF4EE477AF1EE25
:100E200010FA00F00081D4ED097AF4EE677AF1EE61
:100E300010FA80F1F580BFEE007AF4EE477AF1EE19
:100E400010FA00F0ED80D4ED127AF4EE677AF1EE4C
:100E500010FA80F1E280BFEE007AF4EE477AF1EE0C
:100E600010FA00F0DA80D4ED0A7AF4EE677AF1EE47
:100E700010FA80F1CF80BFEE007AF4EE477AF1EEFF
:100E800010FA00F0C780D4ED117AF4EE677AF1EE33
:100E900010FA80F1BB80BFEE007AF4EE477AF1EEF3
:100EA00010FA00F0B380D4ED0E7AF4EE677AF1EE2A
:100EB00010FA80F1A780BFEE007AF4EE477AF1EEE7
:100EC00010FA00F09F80D4ED177AF4EE677AF1EE15
:100ED00010FA80F19480BFEE007AF4EE477AF1EEDA
:100EE00010FA00F08C80D4ED187AF4EE677AF1EE07
:100EF00010FA80F18180BFEE007AF4EE477AF1EECD
:100F000010FA79D0D4ED147A5048514EF4EE677A45
:100F1000D4ED137AF1EE10FA64BF4E4B2365F4EE74
:100F2000677AD4ED167AF1EE10FA64BF4A4BE364A7
:100F3000F4EE677AD4ED157AF1EE10FA64BF474B00
:100F4000A365F4EE677AF1EE10FA64BF444B636573
:100F500002F01EFD00214FF44472424807F047FEA4
:100F60006A69A36AC6F8D82064202A69C6F8D42022
:100F7000B3663D4D04F0E8FB6421304603F0EAFE21
:100F80003A494FF4007206F1DC0007F07DFE95E867
:100F9000070002F03FF9002840F08B80344800F051
:100FA00009FB344800F020FB00221146282005F000
:100FB000EFFB01220021142005F0EAFB00220121B1
:100FC000192005F0E5FB00220221262005F0E0FBB8
:100FD000294B062101221980DA7000244FF47A701F
:100FE00004F0B2FBAB880134002BF7D095E8070082
:100FF000234602F025F8F1E7204B236682E7204BD9
:10100000E36570E74FF07E53A3635CE74FF07E53D8
:10101000636448E71B4BA36235E7184BA36422E7E0
:10102000194B63620FE7194B2362FCE60023E3616F
:10103000E9E600BF30BE00083CBE00085CBE000808
:101040007837002090370020903B00207834002033
:101050005831002000004841000048C10000824291
:10106000000082C23C2E00204C310020A837002016
:10107000E8010020FC010020683400200000A040AE
:101080000000FA430000A841000060410000FA425D
:101090000023A36196E6094BE36083E6084BA36057
:1010A00070E60849084800F067FB084807F07EFD35
:1010B0004BE6074807F07AFD70E700BF00002042CA
:1010C00000007A44903B00209037002078BE000852
:1010D000C8BE000808B514484FF4006105F0D0FA06
:1010E0001248002105F0D6FD002211460F4805F0F8
:1010F00069FF0E480022012105F064FF0B48002221
:10110000022105F05FFF00221146084805F0FCFEB1
:1011100006480022012105F0F7FEBDE8084003481B
:101120000022022105F0F0BE00080140002C014021
:10113000024A136803431360FFF7CCBF903C0020C2
:10114000014B1868704700BF903C002010B5504814
:10115000012105F0A9FA4F48012105F0A5FA4E48F2
:101160004FF4A0530122182105F032FA4A484FF4F7
:1011700000630122042105F02BFA4FF40043012201
:101180004648102105F024FA44484FF4004105F088
:1011900075FA43484FF420430122182105F018FA4C
:1011A0003F484FF480430122482105F011FA4FF4E3
:1011B000805301223A48102105F00AFA38484FF4CA
:1011C000805105F05BFA35484FF40063022210218C
:1011D00005F0FEF94FF4805303223048042105F056
:1011E000F7F92E484FF4006105F04AFA2B484FF406
:1011F000E0630322182105F0EBF9274803230422BA
:10120000002105F0E5F9264801230422002105F01C
:10121000DFF921480C230422002105F0D9F91F48E9
:10122000F0230422002105F0D3F91B4830230422C7
:10123000002105F0CDF94FF4005302221648102189
:1012400005F0C6F914484FF4005105F019FA134897
:1012500004230122182105F0BBF9082301220F48BD
:10126000042105F0B5F901214FF4EA1005F01CFA4C
:101270000B484FF480730222482105F0A9F9BDE81C
:10128000104007484FF400730322182105F0A0B95D
:101290000010200000023000001001400008014052
:1012A000000C014070B5714888B0002104F03CFF8B
:1012B0006F4A704B01920024042503934FF400728F
:1012C0004FF400634FF48076029204930DEB050215
:1012D0004FF4805321466548ADF81C60CDE90553B5
:1012E0008DF81E4004F03EFF2146604804F078FF70
:1012F00021465E4804F086FF5F4804F06FFB5F48BC
:1013000004F06CFB4FF4803004F0B6FB31465A48D1
:10131000012204F0C1FB22465748022104F0BCFB25
:1013200031465648012204F0B7FB224653480221B9
:1013300004F0B2FB2146504804F0D6FB2A464E4842
:10134000012104F0DBFB01224B48022104F0D6FB13
:1013500021464A4804F0C8FB2A464848012104F0C7
:10136000CDFB46480122022104F0C8FB234621465A
:101370004148062204F0E0FB23463F480F220121AA
:1013800004F0DAFB23463C480722022104F0D4FB98
:10139000234639480822032104F0CEFB2346214688
:1013A0003648052204F0C8FB234634480E220121AA
:1013B00004F0C2FB23462A463048022104F0BCFB5D
:1013C00023462E480C22032104F0B6FB2A484FF492
:1013D0006022012104F05CFC01221146264804F041
:1013E0003BFC26484FF46022012104F051FC01220D
:1013F0001146224804F030FC234621461E480B22A9
:1014000004F0F2FB234621461C480A2204F0ECFBC0
:1014100019484FF4E042022104F03AFC1648012238
:10142000022104F019FC15484FF4E042022104F0B7
:101430002FFC01220221114804F00EFC0E4804F09A
:1014400015FB0E4804F012FB0B4804F0F5FA0B48AC
:1014500004F0F2FA012004F077F9074804F0F4FAF6
:10146000064804F0F1FA08B070BD00BF0000024069
:101470004C240140983C00200024014000280140F9
:1014800070B5384888B0042104F04EFE3649374A1A
:1014900001914FF48063012400254FF4807603927C
:1014A000049301AA4FF480532E4806930421ADF80B
:1014B0001C6002968DF81E50059404F053FE2948D6
:1014C000042104F08DFE0421264804F09BFE2848E8
:1014D00004F084FA22463146254804F0DDFA2A4613
:1014E0002348022104F0D8FA2946214804F0FCFAE6
:1014F000224621461E4804F001FB22461C480221D8
:1015000004F0FCFA2B46294619480D2204F014FB7E
:10151000214617484FF4602204F0BAFB22462146C8
:10152000134804F099FB2B46294611480D2204F07C
:101530005BFB0F484FF4E042022104F0A9FB224676
:1015400002210B4804F088FB094804F08FFA084890
:1015500004F072FA204604F0F7F8054804F074FA33
:1015600008B070BD000402404C3C0140943C002097
:10157000003C014000B585B001A9002004F0DEFB6D
:101580000A4804F0C9FB0A484FF48072CDE9010211
:101590004FF4802301A90548039304F001FC03489C
:1015A000022104F0BDFD05B000BD00BF0064004095
:1015B0000000090300B5014687B0032004F0BEFB1C
:1015C00001A9012004F0BAFB00234FF4803101226D
:1015D00001A8CDE90133CDE903318DF8142004F0E1
:1015E00071FC07B000BD00BF00B583B0014601909B
:1015F000022004F0A3FB054A0199906808600023CB
:1016000006228A724B600B8103B000BD9037002028
:10161000F0B52DED028B1E4D83B00446F0EE608ACE
:10162000B0EE418AD5ED130A95ED141A0191102000
:1016300003F006FA95ED161AD5ED150A0746B0EE39
:10164000680A0C2003F0FCF9D5ED030A95ED0E7A3B
:10165000D5ED117A60EEC70A064660EEA70AB0EE35
:10166000480AB1EE601A0C2003F0EAF9031201995E
:10167000E17203EB06137ABA3111E3730023A1730D
:10168000A28120746374A37403B0BDEC028BF0BD1F
:10169000903B002084B0F0B52DED028B83B00AACF6
:1016A00084E80F009DF836309DF835709DF839209C
:1016B0009DF83760BDF833002D4C9DF838E09DF85B
:1016C0003A10D4ED140A94ED130A0F9D9FED298A68
:1016D0004FEA032C1B0943EA07170CF470631E43FF
:1016E000130240BA120903F470630B4342EA0E126C
:1016F00080B210210092019303F0B6F985ED000A43
:10170000D4ED160A94ED150A38460C2103F0ACF915
:1017100085ED010AD4ED170A3046B0EE480A0C21D7
:1017200003F0A2F985ED020AD4ED180A00980C2105
:10173000B0EE480A03F098F985ED030A94ED030A28
:1017400094ED0E7AD4ED117A019820EE470A0C211F
:1017500020EE270AF1EE400A03F086F985ED040A2F
:1017600003B0BDEC028BBDE8F04004B0704700BF91
:10177000903B00200000000070B54FF480620C46E2
:101780000546002107F033FA01264FF4807200214C
:10179000204607F02CFA6E60002300224FF47A7680
:1017A000C5E904222A60AA60EE60154ADFED156AD9
:1017B0009FED157ADFED157AA3614FF07E51E3615D
:1017C0006363E3632364124BDFF858E0DFF858C02B
:1017D0001048A1636164A2640F49236522660F4B20
:1017E0000F4AC4ED026A84ED037AC4ED087AC4F8A6
:1017F00054E0C4F858C0E164E0656262A36270BD61
:101800000000A04000007A44000020420000FA429C
:10181000000048410000FA43000048C10000A84110
:1018200000006041000082C20000824270B50E4696
:101830001E49A0F1040E00F57F754FF0FF305EF8F1
:10184000044F4FF0000C24FA0CF3DBB2584008228E
:1018500040F300030B40013A83EA5000F8D10CF149
:10186000080CBCF1200FEED17545E8D10F49B64602
:1018700006F58075DEF800404FF0000C24FA0CF3FA
:10188000DBB25840082240F300030B40013A83EAE0
:101890005000F8D10CF1080CBCF1200FEED10EF184
:1018A000040EAE45E6D1C04370BD00BF2083B8ED45
:1018B0000368012B00F22C8243687F2B00F2288200
:1018C00083687F2B00F22482C368DE4A013B934287
:1018D00000F21E820369DFF8A4C34FF6FF721344BF
:1018E000634500F2158243691A44624500F2108292
:1018F000D1ED027A9FEDD47AF0EEE76AF4EE476A12
:10190000F1EE10FA00F20482DFEDDD6AF4EEE67A21
:10191000F1EE10FAC0F2FC81DFEDCC6AF4EEE67A6B
:10192000F1EE10FA00F2F481D1ED037AF0EEE76AFD
:10193000F4EE476AF1EE10FA00F2EA819FEDC47A04
:10194000F4EEC77AF1EE10FAC0F2E2819FEDC17AAF
:10195000F4EEC77AF1EE10FA00F2DA81D1ED064A20
:10196000DFEDB96AB0EEE47AB4EE667AF1EE10FA21
:1019700000F2CE81F5EEC04AF1EE10FAC0F2C88155
:101980009FEDB57AF4EEC74AF1EE10FA00F2C0818D
:1019900091ED077AB0EEC76AB4EE666AF1EE10FA1E
:1019A00000F2B681B5EEC07AF1EE10FAC0F2B08165
:1019B0009FEDB36AB4EEC67AF1EE10FA00F2A88198
:1019C00091ED087AB0EEC76AB4EE666AF1EE10FAED
:1019D00000F29E81F7EE006AB4EEE67AF1EE10FABC
:1019E000C0F29681DFED9D6AB4EEE67AF1EE10FA70
:1019F00000F28E8191ED095ADFED936AB0EEC57A5F
:101A0000B4EE667AF1EE10FA00F282819FED907AE0
:101A1000B4EEC75AF1EE10FAC0F27A819FED907AD7
:101A2000B4EEC75AF1EE10FA00F2728191ED0A7A23
:101A3000B0EEC76AB4EE666AF1EE10FA00F26881A1
:101A4000B7EE006AB4EEC67AF1EE10FAC0F2608129
:101A50009FED846AB4EEC67AF1EE10FA00F2588176
:101A600091ED0D7AB0EEC76AB4EE666AF1EE10FA47
:101A700000F24E81B5EEC07AF1EE10FAC0F2488164
:101A8000DFED7F6AB4EEE67AF1EE10FA00F2408103
:101A9000D1ED0E6A9FED6C7AB0EEE66AB4EE476A5D
:101AA000F1EE10FA00F234819FED6F6AF4EEC66A2F
:101AB000F1EE10FAC0F22C81B2EE046AF4EEC66ABE
:101AC000F1EE10FA00F22481D1ED0F6AB0EEE66A71
:101AD000B4EE476AF1EE10FA00F21A81F5EEC06A30
:101AE000F1EE10FAC0F214819FED606AF4EEC66A5E
:101AF000F1EE10FA00F20C81D1ED106AB0EEE66A58
:101B0000B4EE476AF1EE10FA00F20281F5EEC06A17
:101B1000F1EE10FAC0F2FC809FED556AF4EEC66A51
:101B2000F1EE10FA00F2F480D1ED116AB0EEE66A3F
:101B3000B4EE476AF1EE10FA00F2EA809FED4D7ABA
:101B4000F4EEC76AF1EE10FAC0F2E2809FED477A38
:101B5000F4EEC76AF1EE10FA00F2DA80D1ED126A03
:101B60009FED397AB0EEE66AB4EE476AF1EE10FA0C
:101B700000F2CE809FED366AF4EEC66AF1EE10FAFE
:101B8000C0F2C680B3EE046AF4EEC66AF1EE10FA53
:101B900000F2BE80D1ED135AF0EEE56AF4EE476A2A
:101BA000F1EE10FA00F2B480DFED336AF4EEE65A9B
:101BB000F1EE10FAC0F2AC80F5EEC05AF1EE10FA78
:101BC00000F2A68091ED146AF0EEC66AF4EE476A60
:101BD000F1EE10FA00F29C80B5EEC06AF1EE10FA58
:101BE000C0F296809FED214AB4EEC46AF1EE10FA7D
:101BF00000F28E80D1ED156AB0EE473AB0EEE67A8B
:101C0000B4EE437AF1EE10FA00F282809FED1A7A78
:101C1000F4EEC76AF1EE10FA7ADBF5EEC06AF1EE87
:101C200010FA75D891ED167AF0EEC73AF4EE433A11
:101C3000F1EE10FA6CD8B5EEC07AF1EE10FA67DB6F
:101C400020E000BF9F860100FFFF7F7F0000FA4475
:101C5000CDCCCC3D00007042000004420000164391
:101C6000000020420000804217B7D13800007A44BB
:101C70000050C3476F12833A00007AC4FEFF010090
:101C80000000C842B4EEC47AF1EE10FA40D8D1EDAB
:101C9000173AF0EEE32AF4EE432AF1EE10FA37D8C1
:101CA000F5EEC03AF1EE10FA32DBF4EEC43AF1EEA2
:101CB00010FA2DD891ED184AF0EE433AB0EEC43A3E
:101CC000B4EE633AF1EE10FA22D8B5EEC04AF1EE66
:101CD00010FA1DDB5FED163AB4EEE34AF1EE10FAAE
:101CE00016D8F4EEE47AF1EE10FA11DBF4EEC57AD0
:101CF000F1EE10FA0CDBF4EEC65AF1EE10FA07D54D
:101D0000F4EEC76AF1EE10FA4CBF012000207047D4
:101D10000020704730B5DFF83CC083B06045069DB9
:101D2000079C02D0002003B030BD0229FAD1B2F5E1
:101D3000A07FF7D1214628460193FFF777FD019B4D
:101D40009842EFD12146284603B0BDE83040FFF766
:101D5000AFBD00BF4154484E401A0028D4BF0020F8
:101D60000120704740B12AB15B1A002BD4BF00207C
:101D7000012070471046704782420CBF4FF0FF3081
:101D80000120704711B10AB1082B01D00020704723
:101D9000009BC01AB3F5006FB0FA80F04FEA501004
:101DA00028BF0020704700BF431E00F1060C13F847
:101DB000012FFF2A09D16345F9D1C279131DDBB286
:101DC000022B02D80A70012070470020704700BF24
:101DD00038B5C0F30D0444F4804440F44045204637
:101DE00009F046FF002814BF2846204638BD00BF32
:101DF000084310B5C0F30D04204609F039FF44EA4A
:101E0000C03080B210BD00BF10B5044609F030FFED
:101E100028B914F4804F18BF6FF0010010BD4FF0C7
:101E2000FF3010BDC0F30D00C1F30D01401AB0F535
:101E3000005F03DDA0F5804000B2704710F5005F41
:101E4000B8BF00F5804000B2704700BF0378A52BF3
:101E500020D143785A2B1DD18378012B1AD1837955
:101E6000C3B910B5DFF838E00C46421E811D12F8E8
:101E700001CF83EA0C0391421EF80330F7D1C279F7
:101E80009A420AD1C3782370037963704379A370AF
:101E9000002010BD4FF0FF3070476FF0010010BD03
:101EA00018BD000890F800C06CF07F0C83F800C0EB
:101EB00090F801C083F801C0807898704FEA122C26
:101EC000D970100C110E1A7183F805C09871D97170
:101ED000704700BF70B5894C0168236840F20172F9
:101EE0000133914288B0236006D1037A23B9437A43
:101EF00013B9827A082A04D0A3680133A36008B01A
:101F000070BD02A90B300093FFF7A0FF18B1E36882
:101F10000133E360F3E703F02FFC7949009B0A6883
:101F2000821A132A03D8636901336361E7E76268A1
:101F300008609DF8081001326260032900F22F82C8
:101F4000DFE801F0608A10029DF80A100F295CD8C2
:101F5000DFE801F0979C9AA4A2A09EB25BAEAAA66D
:101F6000B8B45BBC9DF80A20492A4ED8DFE812F0CD
:101F7000F801F201EC01960192018F018B014D00F5
:101F80004D0085010C0209020302FD017F0176016B
:101F900072016E011A0111014D004D004D004D00FE
:101FA000B100B70035012F01B700B10035014D0078
:101FB0004D004D004D004D004D004D004D004D00B9
:101FC0004D004D004D004D004D004D004D004D00A9
:101FD0004D004D004D004D004D004D004D004D0099
:101FE00029012301B100680162015B0154014D0127
:101FF00046013F0138010A010301FC00F500EE0033
:10200000E700E0009DF80A2082B301232169013135
:102010000022216103A90220CDE9003203F08EFEE7
:1020200000230493ADF8143040F281730393082326
:10203000DDE9001202A88DF816300DF11703FFF745
:1020400031FF304803A903F0B7FF032800F09F8158
:10205000A3690133A36152E79DF80A20042A00F224
:102060009C81DFE802F003090C070500264AD1E74E
:10207000264ACFE7264ACDE74FF48032CAE70F223F
:10208000C8E722680B46C5E7A268C3E76268C1E7F4
:10209000A269BFE76269BDE72269BBE7E268B9E709
:1020A0001C4AD2F80023B5E71B4AD2F8FC22B1E75C
:1020B000184AD2F8FC22ADE7E269ABE7154AD2F83C
:1020C0000823A7E7134AD2F80423A3E7134A1268A8
:1020D000A0E7009300F07EFD009B02469AE7104ABD
:1020E0009FED107AD2ED037A0F49104AB4EEE77AE9
:1020F000F1EE10FAB8BF0A468CE700BFAC3C0020F6
:10210000A83C0020006400404154484E01E8030010
:1021100001D1E0A75831002078340020CC3C0020C9
:10212000903B002000002042A0008002A000C002DE
:102130000620009300F06AFD009B02466AE7052036
:10214000009300F063FD009B024663E704200093C8
:1021500000F05CFD009B02465CE70320009300F06A
:1021600055FD009B024655E70220009300F04EFD0E
:10217000009B02464EE70120009300F047FD009BC4
:10218000024647E70020009300F040FD009B024616
:1021900040E78449D1F83C2CD1F82C1C92B242EA99
:1021A000014237E77F49D1F8342CD1F8381C92B27C
:1021B00042EA01422EE7009300F006FD009B024632
:1021C00028E7009300F0FAFC009B024622E7009308
:1021D00000F010FF009B02461CE740F2154219E791
:1021E0000520009300F008FD009B024612E7042042
:1021F000009300F001FD009B02460BE703200093D3
:1022000000F0FAFC009B024604E70220009300F075
:10221000F3FC009B0246FDE60120009300F0ECFC7D
:10222000009B0246F6E60020009300F0E5FC009BD0
:102230000246EFE6009300F0D9FC009B0246E9E677
:10224000009300F0CDFC009B0246E3E6564AD2F82C
:10225000B420DFE6554AD2F81824DBE6544991F859
:10226000DE22002A00F09780D1F8E622D2E6514A19
:10227000D188128942EA0142CCE64B490A89C968F1
:1022800042EA0142C6E64A4AD2F88020C2E6484AFB
:10229000926FBFE6464AD2F8E022BBE64FF4805187
:1022A0004548009304F0F4F94FF4006106464248B3
:1022B00004F0F4F93B493D4A031ED1F8440CC0F345
:1022C000C03ED2F81804D2F818C44FEA401000F00B
:1022D0002005D2F81804D1F8202C4FEA022202F48B
:1022E000807218BF01232A4342EA4302304B93F81D
:1022F000DD32003B18BF012342EAC3022A4B93F8A8
:10230000F532003B18BF012342EA0312CCF3400C24
:1023100042EA8E02C0F3800042EA8C1242EAC01206
:10232000D1F8200CD1F8201C009BC0F3001042EA29
:102330004022C1F3002142EA8122002E08BF42F070
:10234000010242F0004265E60093FEF7F9FE009BB1
:1023500002465FE6009303F00FFA009B024659E63F
:1023600011491346D1F8F82254E6124A518892884E
:1023700042EA01424EE60F4A5189128842EA01427E
:1023800048E60C4AD26845E6074A128A42E6E36903
:102390000133E361B3E503233CE60B4636E6042351
:1023A00034E600BF00200140783400200060004087
:1023B00058310020983C0020000801400000000037
:1023C00000B5114889B004F00BFB9FED0D7B4FF475
:1023D00000724FF4827100234FF40060CDE90013C6
:1023E000CDE9020218236946074806938DED047B68
:1023F00004F024FB044804F03BFB09B000BD00BF1F
:102400000000000001000000003800400000000053
:1024100000B5114889B004F0E3FA9FED0D7B4FF44D
:1024200000724FF4827100234FF40060CDE9001375
:10243000CDE9020210236946074806938DED047B1F
:1024400004F0FCFA044804F013FB09B000BD00BF1F
:102450000000000001000000003C004070B548484A
:102460008CB004F017FB08A8002404F089FB0125B8
:102470004FF400134FF4FA6208A9414808930A92F6
:1024800009948DF82C5004F083FB3D4804F0DAFDEC
:1024900021463B4804F0C0FD2946394804F0C4FDFC
:1024A000374804F0CDFB01A804F0FEFB022601AA88
:1024B000214633480394CDE9014604F0FBFB214655
:1024C0002F48602204F0F8FC21462D48042204F035
:1024D00051FD21462A48082204F024FD22462146C7
:1024E000274804F011FD01AA2946254804F0E2FB23
:1024F00029462348602204F0DFFC294620480422B4
:1025000004F038FD29461E48082204F00BFD22463F
:1025100029461B4804F0F8FC01AA3146184804F08B
:10252000C9FB31461648602204F0C6FC3146144807
:10253000042204F01FFD31461148082204F0F2FC89
:10254000224631460E4804F0DFFC04A804F086FB66
:102550004FF0005304A90A480694CDE90443ADF8AE
:102560001C4004F081FB2146054804F093FB2946FA
:10257000034804F06BFB024804F05CFB0CB070BD38
:10258000002C014008B50D4804F062FD0B484FF4E3
:10259000E13104F0A9FD0948042104F0E5FD08211A
:1025A000064804F0DBFD054804F0D2FDBDE8084014
:1025B000024840F2053104F0EDBD00BF0044004088
:1025C00038B50546E9B20C4804F0D4FD41F20104E7
:1025D00001E0013C07D00848072104F0D3FD0028A2
:1025E000F7D0284638BD054A13684FF0FF35013350
:1025F0001360284638BD00BF00440040CC3C00209A
:10260000F0B52DED028B604D1446002687B02E608C
:102610000A46217C0746002975D0E168DFED5B6A38
:102620005B1A07EE903AF8EEE77AB7EE007A67EEBB
:10263000A67AF4EEC77AF1EE10FAC4ED057A6ED4FC
:10264000F0EE006AF4EEE67AF1EE10FA00F1838023
:10265000104601F025FA94ED067A97ED038ADFED36
:102660004C6A8DED027A78EE477AF0EEE77AC6EEA4
:10267000A77A17EE900AFDF717FF41EC100B09F04F
:1026800039F951EC100BFEF73FFA9DED027A2070FC
:10269000B4EEC87AF1EE10FA2FD401233D4884F845
:1026A000203006F083FA21783B4806F017FAA0693B
:1026B000FDF7FAFE02460B4618EE100ACDE902239A
:1026C000FDF7F2FEDDE90223CDE90001334806F013
:1026D00005FA94F820302B602378314907EE903AC0
:1026E000F8EE677A00220123C1ED0A7A227484F899
:1026F000213007B0BDEC028BF0BD84F82060294882
:1027000006F054FACFE728480593029206F04EFAF5
:102710000121059B2174029AE3600021616104F5A7
:10272000005101F6884501F5496100231C48A3606A
:102730002B600B60806CC2F8A40004F53051C2F825
:10274000A8302C31104601F01DFAFB68A36107B0D8
:10275000BDEC028BF0BD77EEC77A9FED0D7A04F5E4
:10276000325367EE877A04F5305108332C31104626
:10277000C4ED027AC3ED007A07B0BDEC028BBDE870
:10278000F04001F0FFB900BF90370020D1CB0B38EB
:10279000DB0FC9404CBF000864BF000878BF0008C9
:1027A000903B002034BF000810BF00082DE9F04125
:1027B000C24E96ED0A7A2DED028BF3EE057AB4EE59
:1027C000E77AF1EE10FA84B000F312811D46137C13
:1027D00014460F468046002B00F0D880D3689FED4A
:1027E000B87AEB1A07EE903AF8EEE77AB7EE006A9D
:1027F00067EE877AF4EEC67AF1EE10FAC2ED057A4A
:1028000000F1D2809FEDAF8A96ED0A7A67EE085A02
:10281000C5EE886A76EE866AF4EEE67AF1EE10FA94
:1028200078D4DFEDA96A27EE267AC7EE086A36EE7D
:10283000867AF4EEC77AF1EE10FA00F1E2800846EB
:1028400001F02EF9D6ED0A7ABDEEE77A17EE103ACE
:10285000002B40F3928104EB432303F1280204F19F
:102860002801002351F8040F91420344FAD107EEE6
:10287000103AB8EEC77A9FED956AE56A9FED938AA4
:10288000DFED938A27EE866AD5F58035C7EE066AB6
:1028900048BF05F2FF156D120027FDEEE66AC4ED94
:1028A000076A07EE107AF8EEC75A67EE886A65EE97
:1028B000A75A6FF03F0265EE885A002165EEA85ACC
:1028C000B7EE005A13E036EEC56AB4EEC76AF1EE11
:1028D00010FA03D537EE667AFDEEC77A17EE903A16
:1028E00004EB83030132DB6A402A194433D007EE3C
:1028F000902AF8EEE77A77EEA57AFDEEE77A17EE02
:10290000903A002BB8EEE77ADDDA37EE267AFDEE64
:10291000C77AE3E7D2ED027A9FED6E7A77EE877A97
:1029200002F53253084602F53051C2ED027A2C31DD
:10293000C3ED027A01F026F994ED057AD4ED0A7A16
:10294000B4EEE77AF1EE10FA00F3D08004B0BDECFB
:10295000028BBDE8F0810029B8BF7F317F2D4FEA9F
:10296000E1122946C8BFA5F18001E06901F68A237A
:1029700004EB8303121A5A605748013706F0AEF889
:10298000802F2BD0D6ED0A7A01358AE7534803937E
:1029900006F00CF9039BA3840023636101232374D5
:1029A0004FF07E53E560A36204F532530022A2602B
:1029B0009A60B06CC7F8A40004F53051C7F8A8209D
:1029C0002C31384601F0DEF8D8F80C206369A2619A
:1029D000A36204B0BDEC028BBDE8F08100220123AC
:1029E000227484F8223004B0BDEC028BBDE8F08183
:1029F0003B48152104B0BDEC028BBDE8F04106F068
:102A00006DB8D2ED027A9FED337A77EEC77A084639
:102A1000C2ED027AB36CC1F8A4300023C1F8A8302B
:102A200002F5325302F53051C3ED027A2C3101F038
:102A3000A9F894ED057AD4ED0A7AB4EEE77AF1EECE
:102A400010FA83DDA78C002F80D096ED0A7AD4EDA2
:102A5000027ADFED256AD8F87430A06827EE087A8C
:102A600067EEA66AC6EE877AFDEEE77A17EE902A41
:102A70009B1ADD1305F480351D4404EB8703CDED6F
:102A8000037AD96A0D4405EBD5756D10DD62FDF74B
:102A90000BFD2B46CDE90001039A1248394606F09A
:102AA0001DF8D4ED0A7A9FED0A7AA38C77EE877A27
:102AB000013BA384C4ED0A7A48E700BF903B0020A5
:102AC000D1CB0B38DB0FC940DB0F4941000000437D
:102AD0000000003C5F975B39FCBF0008C4BF0008E2
:102AE00094BF0008ECBF00080000804794ED026A24
:102AF00096ED0A7A5FED046AD8F87430A78C66EE1A
:102B0000266A27EE087A16EE100AC6EE877AFDEEE0
:102B1000E77A17EE902A9B1ADD1305F480351D44E1
:102B200004EB8703CDED037ADD62FDF7BDFC2B4698
:102B3000CDE90001039A1248394605F0CFFF9FED19
:102B4000116A94ED0A7ADFED106AA38C37EE067AEB
:102B5000FFEE007A84ED0A7A96ED0A6A07EE103AE3
:102B6000E6EE267AB8EEC77AB4EE677AF1EE10FA9E
:102B70003FF4ECAE0133A384E8E69FED047A7AE6F5
:102B8000ECBF00080000003C000000430000000013
:102B9000024B1878003818BF012070470C3D002008
:102BA000044B1B7823B1044A136843F001031360FC
:102BB000704700BF0C3D0020083D0020014B186805
:102BC000704700BF083D0020014B1868704700BFE8
:102BD000043D0020014B1868704700BF003D0020F5
:102BE000014B1868704700BFFC3C0020014B18687F
:102BF000704700BFF83C002005289DBF024B33F80A
:102C0000100080B200207047EC3C002006289ABFDC
:102C1000024B53F820000020704700BFD03C00203A
:102C200070B504464FF6FF7384B037482180638047
:102C30004FF48051164603F023FD00230393039BBA
:102C40003F2B06D800BF039B01330393039B3F2B0D
:102C5000F8D940F6010501E0013D40D02B480221A2
:102C600003F012FF0028F7D02188284803F006FF60
:102C700040F6010501E0013D40D02448012103F068
:102C800003FF0028F7D0214803F0FAFE40F60105C3
:102C9000608001E0013D34D01C48802103F0F4FE47
:102CA0000128F7D000230293029B3F2B4FF0000531
:102CB0001CD915484FF4805103F0E0FC0023019328
:102CC000019B3F2B06D800BF019B01330193019B61
:102CD0003F2BF8D963883380284604B070BD4FF08D
:102CE000FF3500230293029B3F2BE2D800BF029BDB
:102CF00001330293029B3F2BF8D9DAE76FF001050D
:102D0000EFE76FF00205ECE7000C014000380040EF
:102D10002DE9F04F002787B003ACCDE9037701948C
:102D20003A4EDFF80CA13A4C059780464FF0010966
:102D30000DF10E0B14F8015B364BADF80A7043EA47
:102D4000C5250DF10A02A9B24046FFF769FF002828
:102D500049D0326842F004024FF000093260A245C7
:102D60000BF1020BE6D1019C2B48002334F8022B17
:102D700020F813200133062BF8D12849DDF80E3056
:102D8000C8F806300B602649DDF81240BDF80E2069
:102D9000BDF810000C60234CBDF8161021600243F2
:102DA000BDF81230BDF8144025D1C3F30A03A02B9F
:102DB00021D11D4B9FED1D7AD3ED037AB4EEE77A56
:102DC000F1EE10FAACBF4FF430734FF420739C4215
:102DD00011D140F21543994208BF09F1FF300AD1E1
:102DE00007B0BDE8F08F5A46A9B24046FFF718FF7A
:102DF0000028AED1B3E7054A13684FF0FF3043F027
:102E00000803136007B0BDE8F08F00BF083D002045
:102E1000DCC700080080FFFFEC3C0020003D0020E4
:102E2000FC3C0020F83C0020903B002000002042A9
:102E3000E1C7000810B584B004AB03E907000E48F1
:102E4000002103F027FF0D484FF4006103F016FC4A
:102E500000230B4A1C4642F823400133072BFAD1CA
:102E600002F08AFC074B084A01211970074B1060D9
:102E70001C7004B010BD00BF002C014000080140D0
:102E8000D03C0020153D0020103D0020143D0020C6
:102E900030B54C4B89B001AC84E807001A780AB908
:102EA00009B030BD484A156802F066FC0A220146A6
:102EB000284602F0C9FB0028F2D0424B43480022CA
:102EC0004FF480511A7003F0E3FB002874D094E8AB
:102ED000070005AB03C341F2A1011A8005A80DF15B
:102EE00012020093FFF79CFE394A9FED3A7AD2ED29
:102EF000037A009B94E80700B4EEE77AF1EE10FA4B
:102F00000DF1140CACE80300A8BF4FF44B511A802C
:102F1000B8BF4FF44A510DF1120205A8FFF780FE29
:102F200094E80700009B0DF1140CACE8030042F696
:102F300015411A8005A80DF11202FFF771FE204617
:102F4000FFF7E6FE244B254A051E0CBF0121002198
:102F500019601168224A59601168224A9960116803
:102F6000214AD960518889B21961918889B2596121
:102F7000D28892B29A611FD100F1804000F584306E
:102F80004FF4805103F084FBB0B10124174B184873
:102F90001C702246294604F015F8224621461448A2
:102FA00004F010F812482246022104F00BF81048F1
:102FB000214603F06FFE73E72020FEF7B9F809B051
:102FC00030BD00BF153D0020103D0020000801402D
:102FD000903B002000002042D03C0020003D00201B
:102FE000FC3C0020F83C0020EC3C0020143D00207C
:102FF000002C0140024B1878003818BF01207047A0
:10300000143D002000B585B004AB03E90700084873
:10301000002103F03FFE07484FF4006103F030FB4E
:103020000549064A00230B70137005B000BD00BFB0
:10303000002C014000080140153D0020143D0020F7
:10304000F0B589B001AC84E8070094E8070005AE4C
:1030500003C64FF40041328005A80DF112021F464D
:10306000FFF7DEFD94E8070005AB03C332804FF4A1
:1030700008410DF1120205A8BDF81250FFF7D0FD6E
:10308000BDF8124054EA05031FD12B0743D46F0744
:1030900046D4AE0749D4ED074CD460054FD4A10502
:1030A00052D4E20555D4230658D467065BD4A6064D
:1030B0005ED4E50661D4200764D4610767D4A20713
:1030C0006AD4E3076DD409B0F0BD3B48394605F03A
:1030D00005FD6A056BD4AB0502D5384805F0FEFC4A
:1030E000EF0502D5364805F0F9FC2E0602D5354825
:1030F00005F0F4FC680602D5334805F0EFFCA9069C
:1031000002D5324805F0EAFCEA06BED5304805F0A3
:10311000E5FC2B07BBD52F4805F0E0FC6F07B8D5C1
:103120002D4805F0DBFCAE07B5D52C4805F0D6FCE4
:10313000ED07B2D52A4805F0D1FC6005AFD5294886
:1031400005F0CCFCA105ACD5274805F0C7FCE2058D
:10315000A9D5264805F0C2FC2306A6D5244805F0CB
:10316000BDFC6706A3D5234805F0B8FCA606A0D58C
:10317000214805F0B3FCE5069DD5204805F0AEFCDE
:1031800020079AD51E4805F0A9FC610797D51D4870
:1031900005F0A4FCA20794D51B4805F09FFCE307AB
:1031A00091D51A4809B0BDE8F04005F097BC184821
:1031B00005F094FC8FE700BF08C0000828C0000895
:1031C00034C000083CC0000844C000084CC00008DF
:1031D00058C0000864C0000870C000087CC0000827
:1031E00088C0000894C000089CC00008A4C0000863
:1031F000ACC00008B4C00008BCC00008C8C00008CB
:10320000D4C00008E0C00008ECC00008F8C0000806
:103210001CC000082DE9F04788B001AC84E8070025
:10322000804E814ADFF83082804900233360C8F83D
:10323000003013607E4A13607E4A13601A4621F8FC
:1032400013200133062BFAD1FDF744FF7A4B9FED93
:103250007B7AD3ED037A7A4F7A48B4EEE77AF1EECF
:1032600010FA4FF001034FF40061A8BF4FF00309BB
:103270003B70B8BF4FF0020903F000FA0A2002F0D9
:1032800063FA002304AA4FF400412046ADF8103041
:10329000ADF81230ADF81430FFF7C2FC4FF408411E
:1032A00005460DF112022046FFF7BAFC4FF4084123
:1032B000824605AA2046FFF7B3FC45EA0A05054306
:1032C00003D0336843F004033360BDF81420BDF825
:1032D000123043EA0243C8F80030D8F800301BB17E
:1032E000336843F00203336094E8070005AD03C57B
:1032F00041F2A1012A8005A80DF11202FFF790FC0E
:10330000514800F01FFB94E80700B9F1030F05AB2B
:1033100003C314BF4FF44A514FF44B512A8005A800
:103320000DF11202FFF77CFC94E8070005AB03C324
:103330002A8042F615410DF1120205A8FFF770FC34
:1033400094E8070005AB03C341F2A1012A8005A858
:103350000DF11202FFF764FC012002F0F5F9394883
:103360004FF4805103F094F918B9336843F0100317
:1033700033602046FFF7CCFC28B932484FF4805127
:1033800003F086F9E0B994E8070005AB03C341F206
:10339000A1011A8005A80DF11202FFF741FC0120DE
:1033A00002F0D2F927484FF4805103F071F918B3B5
:1033B0002046FFF7ADFCF8B9336823F0080333600B
:1033C00020484FF4805103F063F90446A8B11F4828
:1033D000002103F05FFC1B484FF4006103F050F93B
:1033E0001B4A1C4B002414701C703C70FDF772FECD
:1033F000204608B0BDE8F087002420203C70FDF78F
:1034000097FE1248214603F045FC0E484FF4006138
:1034100003F036F90E4A0F4B14704FF0FF301C705A
:10342000E7E700BF083D0020003D0020EC3C002005
:10343000FC3C0020F83C0020903B00200000204293
:103440000C3D00200008014078340020002C014091
:10345000153D0020143D0020043D002008B50C213E
:10346000002003F063F94FF480500222002102F0A3
:10347000DBFEBDE808404FF4805002F02DBF00BFD6
:10348000044A072928BF07210023C0E9012103704E
:10349000704700BF00C0030810B5044602F022FFC9
:1034A00040F2073003F086F8606802F04FFF012316
:1034B000237010BD84B00DF1100C0CE907000298C8
:1034C000049900EB830004B002F0E0BF84B00DF17A
:1034D000100C0CE907000298049900EB830004B07B
:1034E00002F0D4BF84B00DF1100C0CE90700029873
:1034F00010EE101A00EB830004B002F0C7BF00BF4B
:1035000000B583B0019002F00DFF01980023037015
:1035100003B000BD84B00DF1100C0CE9070051F8A8
:10352000230004B0704700BF84B00DF1100C0CE90B
:10353000070051F8230004B0704700BF84B00DF1BC
:10354000100C0CE9070001EB830292ED000A04B0B5
:10355000704700BF08B590ED167AD0ED186A1C4B85
:10356000F7EE007A2DED048B37EEC77A9FED199AAE
:10357000D0ED178A1968184827EE097A77EEE88A9D
:1035800037EEE68AFCEEC77A17EE902AC9B903F047
:10359000BBFC1148012168EE898AFCEEE87A17EE3F
:1035A000902A03F0B1FC68EE097ABDEC048BFCEEC6
:1035B000E77ABDE80840084817EE902A022103F098
:1035C000A3BC012103F0A0FC03480021E3E700BFF6
:1035D000903700200000FA44002C014038B5484BD9
:1035E0001C680546002C7ED12146464802F074FB3B
:1035F0000346AB604448214602F06EFB0346414857
:10360000EB60022102F05AFB4048022102F056FB17
:1036100040F6010401E0013C50D03A48042102F098
:103620006FFB0028F7D040F6010401E0013C45D0D3
:103630003648042102F064FB0028F7D03148042109
:1036400002F064FB3148042102F060FB00212F48A6
:1036500002F042FBAA68D5F89810EB68D5ED1C6A19
:10366000DFED2B5A2861521A07EE102AD5F89C205C
:1036700007EE900A9B1AB8EEE76A07EE903AB8EEAA
:10368000C77AF8EEE77A27EE267A67EEA67AD5F8BB
:10369000F83285ED067AF1EE476A26EE256A76EE77
:1036A000E76A0122013385F8F52285ED086AC5ED48
:1036B000077AC5ED056AC5F8F83238BD114804210E
:1036C00002F024FB1148042102F020FBD5F8FC3263
:1036D0000022013385F8F522C5F8FC328020BDE8D0
:1036E0003840FDF725BD0021074802F0F5FA0346F2
:1036F000AB600448002102F0EFFA03467FE700BF09
:10370000903700200024014000280140003C014087
:103710001833533C00B52DED028B87B0CDE9021074
:10372000CDED050A8DED041A0192F0EE408A01F00C
:10373000D5F9B0EE408AB0EE680A01F0A9F9F6EECC
:10374000007A67EEC06ADFED175A9FED176A9DEDAC
:10375000041ADDED050A03980299019A67EEC87A0A
:10376000B0EE667AA8EE257AE8EE656AF0EE675A62
:10377000E0EE065AE0EE467A21EE477A21EE400A64
:1037800021EE661AA8EE200AA5EEA07AA7EEA01AEE
:1037900080ED000A81ED007A82ED001A07B0BDECE1
:1037A000028B00BDD7B35DBFD7B35D3F00B52DED34
:1037B000028B87B0CDE90110CDED050A8DED041A1D
:1037C000CDED031AF0EE408A01F088F9B0EE408AA0
:1037D000B0EE680A01F05CF9B6EE007A67EE486A6E
:1037E00027EE407ADFED185A9FED186A9DED041A16
:1037F000DDED050ADDED031A02980199F0EE667A17
:10380000B0EE475AA8EE065AE0EE257AA8EE467AC0
:1038100067EE817A21EE451AE0EE656AE8EE207ADD
:10382000A0EE601AE6EEA17AA7EE611A9FED086A93
:1038300067EE867A21EE061AC0ED007A81ED001A55
:1038400007B0BDEC028B00BDD7B35D3FD7B35DBF02
:10385000ABAA2A3F00B52DED0A8BB0EE609A85B079
:10386000F0EE418AF0EE40AAB0EE611AF0EE680A7E
:10387000B0EE490AB0EE618A0192CDE9021001F082
:10388000A9F8B0EE481AF0EE680AB0EE40AAB0EE21
:10389000490A01F087F83AEE00AAF6EE009AAAEE7D
:1038A000699ADFED24BA9FED24CA9FED24BA29EE70
:1038B000299AF0EE4C0A29EE2B9A89EE2A0A9FEDFE
:1038C000209A30EE0B0A01F05DF8F0EE490A01F0A3
:1038D00061F8EAEE698A039880ED000A68EEA98A29
:1038E000F0EE4C0A68EEAB8A88EEAA0A30EE0B0ABC
:1038F00001F048F8F0EE490A01F04CF8AAEE698AA6
:10390000029981ED000A28EE298AF0EE4C0A28EE91
:103910002B8A88EE2A0A30EE0B0A01F033F8F0EE1B
:10392000490A01F037F8019A82ED000A05B0BDECB2
:103930000A8B00BD3333933F00000000D7A3F03E55
:10394000D7A3703FF8B500238365C36503660446BB
:10395000FFF700FE00264FF47A7537462046FFF742
:103960003DFED4E90223013D17441E44F6D1074B26
:1039700083FB0721FA17C2EBA11283FB0631F31771
:10398000C3EBA113C4E92623F8BD00BFD34D6210D9
:103990002DE9F843344A354BDFED356ADFED355A12
:1039A0002DED028BC267C0F8802093ED027A324A77
:1039B000C0F8842066EEC76AF7EE007AB0EE676A58
:1039C000A6EEA56A2D4ADFED2E6A1268C0F8C8205F
:1039D00027EE267AC7EE866A80ED1D7A77EEE67AC4
:1039E00080ED1E7AC0ED227A9FED267AD3ED037A20
:1039F000F4EEC77AF1EE10FA33D8234BDFF89C903F
:103A0000DFED228A9FED228A224F03674FF0804824
:103A100000F1F4050024002607EE904AF8EEE77A5C
:103A2000013467EEA87AC7EE887A17EE900AFCF7A1
:103A30003BFD41EC100B07F003FD424651EC100B2F
:103A40004B46FCF789FD32463B46FCF7CFFBFDF7C2
:103A50007BF8802C45F8040BDED1BDEC028BBDE871
:103A6000F8830D4BCAE700BFEC51383D903B002076
:103A7000D1CB0B38DB0FC940BD74933B903700208E
:103A800017B7D13800002042FFFFA43C000000BC63
:103A90006F12033D0000F03FFFFF243D3333F33F3F
:103AA00010B54FF47A7204460021114803F02CFA45
:103AB0000F484FF47A72012103F026FA4FF47A721C
:103AC0000B48022103F020FA00230022C4F8A4309E
:103AD000C4F8A830E36323646364C4F89030C4F886
:103AE0008C3063652365C4F8E830C4F8EC2010BD61
:103AF000002C014090ED397AD0ED387A90ED3A0AF9
:103B0000DFED1E0A77EEC77A90ED217A10B5A7EEA9
:103B1000270A82B0044680ED3A0A00F03BFF184BBA
:103B2000D3ED060AF1EE600A00F02CFF94ED3C7A2A
:103B300084ED3A0A60EE407A84ED290AE7EE077ACE
:103B4000F5EE407AF1EE10FA11D4F1EEE70A94EDB9
:103B50002A0ACDED010A00F01DFFDDED010AF1EEAC
:103B6000600A00F00FFF84ED2A0A02B010BDB0EE2B
:103B7000670A07F0B5FCF0EE400AE8E70000000035
:103B8000903B002030B52DED028B91ED170A4B6E66
:103B9000904D91ED186AD0ED071A90ED061AD0ED10
:103BA000050AD1ED036A83B0436380ED0B0A95EDFE
:103BB000117AC6EE077A044600F140013C30C4EDAC
:103BC0000C7A95ED117AC6EE877AC4ED0A7AFFF782
:103BD000EDFD9FED815A94ED087ADFED805AD4ED2A
:103BE000097A94ED106AD4ED0F6A94ED114AD4ED80
:103BF000124A27EE057A26EE056AA7EEA57A04F1A9
:103C0000A80104F1A400DFED767A84ED097A67EE6D
:103C1000277A66EE856A9FED735AE4EEA56AA4EEF4
:103C2000256A67EE857ADFED705A84ED116A67EEDA
:103C3000A57AC4ED126AC4ED387A95ED030A84EDD5
:103C40003C0A00F0DFFED4ED0F6AD4ED298A94ED32
:103C50001D7A94ED230ADFED657A94ED2A8AD4ED7E
:103C6000380A78EEE68AA7EE280A94ED107A30EE4C
:103C7000270A38EE478A84ED140A00F08BFED4ED53
:103C8000380AF1EE600A00F07DFED4ED1F6A94ED73
:103C90001D7AD4ED237AD4ED380A84ED140A27EE88
:103CA000267AE7EE287AB0EE670AC4ED237A00F0B0
:103CB00071FED4ED380AF1EE600A00F063FED4ED37
:103CC000147AD4ED380A84ED230A67EEE77AE0EE41
:103CD000A07AF5EE407AF1EE10FA6FD4F1EEE78AB1
:103CE00094ED240AD4ED1E7AD4ED206AB0EE407A29
:103CF000A7EE887A67EEA67ADFED3C6AA7EE880A1F
:103D000077EE267A84ED240AC4ED157A00F042FE9F
:103D1000D4ED380AF1EE600A00F034FEF0EE406AAD
:103D200094ED150A94ED147AC4ED246A60EE007ADD
:103D3000F0EE680AE7EE077AB1EEE77A84ED397AB9
:103D400000F028FEF1EE680A00F01CFEF0EE407A6A
:103D500004F1540194ED380AC4ED157A04F15000D1
:103D600000F050FEDFED227A94ED0D7A94ED0B0A0F
:103D700094ED151AD4ED140AA7EE270A04F16C028B
:103D800004F1680104F16400FFF7C4FC04F1580079
:103D9000D4ED1B1A94ED1A1AD4ED190A94ED380AD1
:103DA00004F1600204F15C01FFF754FD204603B00A
:103DB000BDEC028BBDE83040FFF7CCBBB0EE670A2C
:103DC000CDED010A07F08CFBDDED010AF0EE408A33
:103DD00086E700BF903B0020CDCCCC3D6666663FB9
:103DE0003333933FD7A3703F3ACD133F0000000019
:103DF000BAB1513890ED0A7AD0ED337AD0ED356A08
:103E000090ED370A144BD0ED3C0A77EEC77A90ED6F
:103E1000347AA6EEA70A10B5D0ED0C7AD0ED366A4A
:103E200037EE677AD3ED0E7AA6EE870A044693ED55
:103E3000117A67EE877A80EE270A00F0ABFDD4EDA9
:103E40003C0AF1EE600A00F09DFD002384ED2A0A91
:103E5000C4F8A43010BD00BF903B00200023C0F880
:103E6000DC30C0F8D430C0F8D830C0F8CC30C0F85E
:103E7000D030C0F8A830704708B50B4801F036FACA
:103E800070B1094801F066FA38B1074801F0C6FB85
:103E9000054801F007FB013808BD034801F0BEFBEF
:103EA0004FF0FF3008BD00BF7837002010B54FF449
:103EB000805182B00A4802F0EBFB0446FDF740F95E
:103EC000084A094B094992F8F52293F8DD328988AE
:103ED0000092221E18BF012201F0A4FB02B010BD07
:103EE0000008014078340020583100204C31002077
:103EF00010B503780446052B0CD8DFE803F009035E
:103F00000C0B09090C4B186859681A89FFF77AF8E5
:103F10000123E37010BD084B0122C2701868596874
:103F20001A89FFF76FF80548FFF7BAFDBDE81040A2
:103F30000248FFF793BF00BF4C31002078340020C7
:103F400008B50D4804F032FE0C4804F02FFE0C4872
:103F500004F02CFE0B4804F029FE0B4804F026FE6A
:103F60000A4804F023FE0A4804F020FEBDE8084099
:103F7000084804F01BBE00BF38BE000804C100089A
:103F800010C1000824C1000840C1000850C1000849
:103F900068C1000884C1000830B56C486C4C6D4D98
:103FA00085B004F09BFD6C486C4B6D4A6D49CDE9C2
:103FB00000046D4C6D4804F091FD6D4804F0F6FD71
:103FC000606CFCF771FA6B4A6B4B0095CDE902010E
:103FD0006A496B4804F082FDA06BFCF765FA694AF8
:103FE000654B0095CDE902016749684804F076FD0C
:103FF000674804F0DBFDA068FCF756FA654B664A9B
:104000000093CDE90201654B6549664804F066FD01
:10401000E068FCF749FA644B644A0093CDE9020179
:10402000634B64495F4804F059FD206DFCF73CFA8E
:104030002B46CDE90201604A00956049594804F0D9
:104040004DFDA06DFCF730FA2B46CDE902015C4A2C
:1040500000955C4953485C4D04F040FDE06DFCF771
:1040600023FA5A4B5A4A0093CDE90201504B594961
:104070004C4804F033FD206EFCF716FA564B574AB5
:104080000093CDE902014A4B5549464804F026FD0C
:10409000A069FCF709FA534B534A0093CDE902019A
:1040A000434B52493F4804F019FD206AFCF7FCF9E4
:1040B0004F4B504A0093CDE902012F4B4E493948EE
:1040C00004F00CFD606AFCF7EFF94C4B4C4A00938E
:1040D000CDE90201364B4B49324804F0FFFCA06C9D
:1040E000494CFCF7E1F9CDE902014849304B484A17
:1040F00000912C48474904F0F1FC474804F056FD74
:104100006368464A46494748CDE900531A4B04F0D4
:10411000E5FCA3680193444A174B44490095414884
:1041200004F0DCFCE068424B424A4349CDE90030F0
:10413000114B424804F0D2FC414804F0CFFC414806
:1041400005B0BDE8304004F0C9BC00BF9CC1000808
:10415000F0C1000844C2000800C20008B8C100084D
:10416000BCC10008C8C10008903B0020D0C10008B5
:1041700004C2000814C2000810C2000820C20008CF
:1041800024C2000848C2000860C2000864C20008D7
:1041900084C20008D4C2000898C2000894C2000873
:1041A000B0C20008B4C20008F8C20008E0C20008AB
:1041B000DCC20008F4C2000800C300081CC30008E9
:1041C00020C3000840C300085CC4000864C30008A2
:1041D00044C3000860C3000890C300086CC3000813
:1041E0008CC30008B0C3000894C30008ACC3000827
:1041F000D8C30008B8C30008D4C30008F8C3000837
:10420000DCC30008F4C30008903700201CC4000879
:1042100000C4000818C4000824C4000830C4000802
:1042200038C400083CC4000860C400086CC400081E
:10423000B0C4000870C4000890C4000894C400080A
:10424000B8C4000804C5000800B5037883B0042B87
:1042500028D8DFE803F0291D0827030003B05DF824
:1042600004EBFFF799BE0190FFF720FE002835D13F
:1042700001901C48FFF714FC1B49019A088960F360
:104280000F020868496803B05DF804EBFEF7D2BD81
:104290000190FFF70BFE014658B1019A002101235E
:1042A0005170D37003B000BD03B05DF804EBFFF7AD
:1042B00047BE0E480E4BC0F8D8104FF40072DC30E9
:1042C000A3F821101974019104F091FC064B019A96
:1042D0001889596860F30F021868D4E70148FFF79E
:1042E000BDFDDAE7783400204C3100205831002041
:1042F000100200202DE9F041037842789A420446EA
:1043000045D1022B1CD0052B12D0012B3DD1514A97
:1043100092F82130002B40D092F82230002B4AD165
:104320004D494E48D1F8B430BDE8F041FEF73EBAF1
:10433000494B4A48D3F8B410BDE8F04100F014BF2F
:10434000474B186859681A89FEF7A2FDFEF752FE1E
:10435000D8B1444AD268002A71DD3F490D46D1F8F0
:10436000B8108A426DDBFFF7A1FD00285CD03C4B02
:10437000186859681A89FEF745FE00236370E370D8
:10438000D5F8B8300133C5F8B830BDE8F081FFF793
:10439000AFFDE3784BB92378B3E72F492F48D1F825
:1043A000B430BDE8F041FEF72BB9637823702046A6
:1043B000FFF74AFFEFE7D369284E2A4F96ED1A7AA6
:1043C0009FED290A7B615A4207EE902AF8EEE77AC0
:1043D000F7EE000A67EE877A1D4627EE800A07F09F
:1043E00003F8DFED227A60EE277A17EE900AFCF7E9
:1043F0005BF80B46024629461D4804F06FFB1D4939
:104400004FF4007206F1DC0004F03EFC19494FF451
:10441000007207F1180004F037FCFFF72DFDA0B97A
:1044200000236370E370B0E70B48FFF7E3FC0A4832
:10443000FFF760FB09490848FFF7A4FBA0E7064D1A
:1044400091E72846FFF70AFD91E70B4804F0AEFB21
:10445000E6E700BF10020020783400205831002029
:104460004C3100209037002000008037DB0FC9401E
:1044700030C500083C2C002044C5000838B5417BFD
:10448000A1F161030446172B19D8DFE813F02800C7
:104490004700660085001800A000BF00DA00F900A0
:1044A000180004011F013E011800180049011800FE
:1044B0001800180068011800730118009201CF4815
:1044C00004F00CFB251DFFF7D7FC002840F08C8181
:1044D000FFF762FD0023A38163606B6038BD051D9B
:1044E000284602F032FF51EC100BFCF72DFBF3EEE7
:1044F000040A00EE100A07F041FBDFEDC10A07F0E5
:1045000015FBC04B10EE100A83ED120AFBF7CCFF2F
:1045100002460B46BC4804F0E1FAD4E7051D2846E4
:1045200002F013FF51EC100BFCF70EFBDFEDB70AA6
:1045300000EE100A07F022FBDFEDB50A07F0F6FAED
:10454000B04B10EE100A83ED020AFBF7ADFF0246F6
:104550000B46B04804F0C2FAB5E7051D284602F044
:10456000F4FE51EC100BFCF7EFFADFEDAB0A00EEB6
:10457000100A07F003FBDFEDA20A07F0D7FAA14B00
:1045800010EE100A83ED090AFBF78EFF02460B4678
:10459000A24804F0A3FA96E7051D284602F0D5FECE
:1045A00051EC100BFCF7D0FADFED950A00EE100A83
:1045B00007F0BCFA934B10EE100A83ED180AFBF7D4
:1045C00073FF02460B46964804F088FA7BE7051D08
:1045D000284602F0BAFE51EC100BFCF7B5FADFEDFD
:1045E000910A00EE100A07F0C9FADFED850A07F01C
:1045F0009DFA844B10EE100A83ED060AFBF754FF78
:1046000002460B46884804F069FA5CE7051D284617
:1046100002F09BFE51EC100BFCF796FADFED830ADB
:1046200000EE100A07F082FA764B10EE100A83EDC6
:10463000110AFBF739FF02460B467D4804F04EFA9B
:1046400041E7051D284602F080FE51EC100BFCF7F7
:104650007BFADFED780A00EE100A07F08FFADFED43
:10466000680A07F063FA674B10EE100A83ED080A38
:10467000FBF71AFF02460B466F4804F02FFA22E7B9
:10468000051D284602F064FE6C4B014659606C48DB
:1046900004F024FA17E7051D284602F056FE51ECF7
:1046A000100BFCF751FADFED670A00EE100A07F075
:1046B0003DFA544B10EE100A83ED0E0AFBF7F4FEA0
:1046C00002460B46604804F009FAFCE6051D284640
:1046D00002F03BFE51EC100BFCF736FADFED5B0A03
:1046E00000EE100A07F04AFADFED450A07F01EFA5D
:1046F000444B10EE100A83ED030AFBF7D5FE024689
:104700000B46534804F0EAF9DDE6051D284602F0A1
:104710001FFE4A4B014699604E4804F0DFF9D2E68D
:10472000051D284602F011FE51EC100BFCF70CFAA7
:10473000DFED330A00EE100A07F0F8F9314BF1EE25
:10474000407A83ED140AC3ED137A10EE100AFBF7DA
:10475000ABFE02460B46404804F0C0F9B3E6051D27
:10476000284602F0F5FD354B0146D9603B4804F080
:10477000B5F9A8E6051D284602F0E7FD51EC100B3F
:10478000FCF7E2F9DFED1E0A00EE100A07F0CEF9A1
:104790001C4BF1EE407A83ED160AC3ED157A10EE4C
:1047A000100AFBF781FE02460B462D4804F096F9ED
:1047B00089E6051D284602F0C8FD51EC100BFCF7F8
:1047C000C3F9DFED0F0A00EE100A07F0AFF90D4B49
:1047D00010EE100A83ED170AFBF766FE02460B4641
:1047E000204804F07BF96EE61F4804F0DFF9FFF77C
:1047F000D3FB0023A38163606B6038BDB4C600089F
:1048000000000000903B002030C600080000FA4481
:104810000000C8427CC500080000204218C60008FD
:1048200078C6000800000442D0C500086F12833A21
:1048300044C600080000164300C600089037002058
:1048400090C5000817B7D13854C600080000704260
:10485000BCC50008A4C500088CC60008E8C500084F
:10486000A0C6000864C6000844C500081B2908B596
:10487000034643D002785AB1042A08D10D2943D007
:10488000027B002A3ED01044C17001321A7308BD69
:1048900063391729FBD801A252F821F03D490008DD
:1048A0008F4800085B4900088F4800088F480008BF
:1048B0008F4800088F4800088F4800088F4800087C
:1048C0008F480008474900088F4800088F480008B3
:1048D0008F4800088F4800088F4800085149000899
:1048E0008F4800088F4800088F4800088F4800084C
:1048F0008F4800088F4800081149000800224270C4
:10490000C27008BD4173C0E7BDE80840FFF7B6BDFF
:1049100017489FED180A0023C0F8D43000F0C8FAF9
:104920001348154B826F1A61FFF7A6FA124BC8B9EC
:1049300019691248BDE8084004F0D0B801210022EE
:104940004170C27008BD022100224170C27008BDD2
:10495000042100224170C27008BD0521002241706F
:10496000C27008BD064804F021F9034BE0E700BF20
:1049700058310020D1CB0B38903700200CC70008ED
:10498000DCC60008B4EEE00AF1EE10FAD8BFB0EED3
:10499000600A7047F4EEC00AF1EE10FAD8BFB0EE2C
:1049A000600A7047B4EEE00AF1EE10FA07DDB4EEEB
:1049B000C10AF1EE10FAD8BFB0EE410A7047F4EE2A
:1049C000C10AF1EE10FAD4BFB0EE410AB0EE600AAF
:1049D000704700BFB4EEE00AF1EE10FA07D5B4EE6E
:1049E000C01AF1EE10FAD8BFB0EE410A7047B4EE2B
:1049F000E01AF1EE10FAD4BFB0EE410AB0EE600A50
:104A0000704700BFD1ED007A90ED007A67EEA77A8B
:104A1000E7EE077AF1EEE76AF4EEC06AF1EE10FA1B
:104A20000DDD27EE007AC7EE267AC0ED007AD1EDD3
:104A3000007A20EE270AC0EE267AC1ED007A704790
:104A400001238340013B07EE903A30EE600AF8EE16
:104A5000E77A31EE601A67EE807A87EE817AFDEEB2
:104A6000C77A17EE900A704707EE900A012370EE9E
:104A7000C00AF8EEE77A8B40013B27EEA07A07EEFA
:104A8000903AF8EEE77AC7EE276A36EE800A70476A
:104A900000B5DFED0F0A83B0CDED010A06F0A4FCEE
:104AA000B5EEC00AF1EE10FA03D5DDED010A30EEE5
:104AB000200ADFED087A084B20EE270ABDEEC00A77
:104AC00010EE102A03EB820393ED000A03B000BD41
:104AD000DB0FC94083F9A242E4C7000800B5DFED4F
:104AE000117ADFED110A83B037EEC00ACDED010A6D
:104AF00006F07AFCB5EEC00AF1EE10FA03D5DDED52
:104B0000010A30EE200ADFED097A094B20EE270A70
:104B1000BDEEC00A10EE102A03EB820393ED000AEB
:104B200003B000BDDB0FC93FDB0FC94083F9A242D0
:104B3000E4C7000870B5054684B035480E464FF40A
:104B4000004101F09DFD00230393039B3F2B06D8FA
:104B500000BF039B01330393039B3F2BF8D940F61F
:104B6000010401E0013C3ED02A48022101F08CFF03
:104B70000028F7D02748294601F080FF40F60104BD
:104B800001E0013C3ED02348012101F07DFF0028D7
:104B9000F7D0204801F074FF40F60104308001E0B6
:104BA000013C32D01B48802101F06EFF0128F7D074
:104BB00000230293029B3F2B4FF000041AD91448A4
:104BC0004FF4004101F05AFD00230193019B3F2B5C
:104BD00006D800BF019B01330193019B3F2BF8D9FD
:104BE000204604B070BD4FF0FF3400230293029BB7
:104BF0003F2BE4D800BF029B01330293029B3F2B63
:104C0000F8D9DCE76FF00104EFE76FF00204ECE79E
:104C100000080140003C0040F0B5064683B008465D
:104C20001746FDF7D5F8044643F6FF70FDF7D0F8B8
:104C300001A905462046FFF77DFF48BB0DF106019F
:104C40002846FFF777FF18BBBDF806402046FDF762
:104C5000DBF8431CA6F8E0420BD0023012D0C4F3BC
:104C60000D043C8001A92846FFF764FF80B903B01A
:104C7000F0BDD6F800330133C6F800336FF0010001
:104C800003B0F0BDD6F804330133C6F80433F5E7BA
:104C9000D6F8FC3201334FF48070C6F8FC32FCF7D2
:104CA00047FA4FF0FF30E2E770B5002182B00646C8
:104CB0000120FDF79DF8044643F6FF70FDF788F8E4
:104CC0000DF1060105462046FFF734FF38B90DF116
:104CD00006012846FFF72EFF08B902B070BDD6F8CE
:104CE000FC3201334FF48070C6F8FC32FCF720FA36
:104CF0004FF0FF30F1E700BF10B582B00DF10202B6
:104D000043F6FC710446FFF787FFF0B901AA43F6AA
:104D1000FD712046FFF780FFB8B90DF106020121B1
:104D20002046FFF779FF80B9BDF80630BDF80210C4
:104D3000BDF80420A4F8EA32A4F8E612A4F8E822A8
:104D4000012384F8DE3202B010BD00234FF0FF30A3
:104D5000F7E700BF2DE9F04F044687B043F6FF7038
:104D60000E46FDF735F84FF0000807462046FFF7DE
:104D70009BFF4645A4F8DD82A4F8EC8240F38380D3
:104D80000123CDF8088003939A46C1460DF1160120
:104D90003846FFF7CFFE90BB012E44D04FF0010BF9
:104DA00000250DF116013846FFF7C4FE48BBBDF8DB
:104DB000168001904046FDF727F8431C019AA4F89D
:104DC000E082C8F30D0C05F101053AD0023054D051
:104DD0000BF1010B5E45A4F8E2C284F8DDA2A4F851
:104DE000EC22DED11F2D1ED92046FFF785FFB0FA39
:104DF00080F0400984F8DE0207B0BDE8F08F4FF084
:104E0000000BD4F8FC12B4F8EC2284F8DD920BF11C
:104E1000010B0131013201235E45C4F8FC12A4F8F4
:104E2000EC220293BCD1039D032D1AD0142000F074
:104E30008BFC6B1C03930023A4F8DD32A4F8EC3246
:104E4000A4E7D4F800230132C4F800230BF1010BCE
:104E50005E454FF0000584F8DD92A2D1039D032D3D
:104E6000E4D1029A002384F8DD329A4214BF4FF451
:104E700080704020FCF75CF9B6E7D4F804230132D7
:104E8000C4F80423E2E70125032D4FF014000CD0F1
:104E9000013500F059FC4FF00003032DA4F8DD327A
:104EA000A4F8EC824FF01400F2D100230293D8E76B
:104EB00070B52DED028B044684B043F6FF70B0EE62
:104EC000408AFCF785FFD4F8F03201330DF10E0172
:104ED000C4F8F032FFF72EFE002840F0C380BDF882
:104EE0000E30019305461846FCF78EFF019BA4F88F
:104EF000E032421C00F00881023000F0DD80D4F87E
:104F0000F422C3F30D06002A40F0ED80002366F37F
:104F10000F03D4ED016A012166F31F43B5000A4473
:104F2000C4F8E232002384F8DD12C4F8F422A4F8B5
:104F3000EC32C4ED026A4C2204F10C01656704F105
:104F40001000CDED016A03F039FE6B125A1C02F01D
:104F50007F0204EB830304EB8202D3F8DC30D2F847
:104F6000DC209FED7B6ADDED016AC5F30801D21AF2
:104F700001FB02F203EB62232B447649A3670A6923
:104F80009A1A07EE102ABAEEC87AFDEEC77AF8EE42
:104F9000E77A37EE677A27EE067AB5EEC07AF1EE59
:104FA00010FA01D537EE067A4A6994ED1A6ADFEDF8
:104FB0006A5A9FED675A84ED017A9B1A07EE903A80
:104FC000F8EEE77A67EE867A67EEA57AFDEEE75AA5
:104FD000F8EEE55A77EEE57A67EE857AF5EEC07A77
:104FE000F1EE10FA01D577EE857A77EE666ADFED9D
:104FF0005B5AC4ED177AF4EEE56AF1EE10FA48DC7C
:10500000DFED577AD4F8801094F8DC22F4EEE76AEA
:10501000F1EE10FA4CBF012300230B44C4F880309A
:10502000002A41D007EE903ADFED496AF8EEE77AC0
:1050300067EEA67A37EE277AD4ED166A84ED037A06
:10504000F3EE037A77EE666A68EE277A86EEA77A41
:1050500026EE076A84ED187A84ED196A04B0BDEC77
:10506000028B70BDD4E9BE21B4F8EC3201310132BB
:10507000C4E9BE210020013384F8DD02A4F8EC323B
:105080004FF4807004B0BDEC028BBDE87040FCF7BB
:105090004FB8D4F8801094F8DC224FF0FF330B4463
:1050A000C4F88030002ABDD10123DFED2E7AC4F888
:1050B000802084F8DC32BDE7D4F804330133C4F82F
:1050C0000433B4F8EC32D4F8F82201339BB2013245
:1050D0000021022BC4F8F822A4F8EC3284F8DD1287
:1050E000BCD94020CEE7B4F8E4123046FCF79AFE73
:1050F00000F50070B0F5806F0CD8B4F8E432B3421C
:105100001DD0D4F8F42201E7D4F800330133C4F8F9
:105110000033D6E7B4F8EC32D4F80813D4F8F82208
:1051200084F8DD5201339BB201310132022BC4F805
:105130000813C4F8F822A4F8EC328FD9D1E7D4F8D8
:105140000C33D4F8F4220133C4F80C33DEE600BF8C
:10515000DB0FC9409037002000008037DB0F49404B
:10516000DB0F49C00000000070B5224D2B6803F52D
:105170001C5310338B4200D970BD04460E46416F5C
:105180001D4803F0ABFCA16F1C4803F0A7FC60684E
:10519000FBF78AF902460B46194803F09FFCE068CA
:1051A000FBF782F902460B46164803F097FCE06DC8
:1051B000FBF77AF902460B46134803F08FFCD4F84C
:1051C0008010124803F08AFC94F8DD12104803F0B6
:1051D00085FCD4F8FC120F4803F080FCD4F80013CF
:1051E0000D4803F07BFC0D48D4F8041303F076FC63
:1051F0002E6070BD183D002034C7000840C700086D
:1052000058C7000870C7000884C7000898C700087E
:10521000A8C70008B4C70008C0C70008D0C7000866
:1052200030B585B001AB83E807000E4D002401AB1B
:1052300093E807002346FEF76DF90134B4F5807F4B
:1052400045F8040FF3D1084D01AB93E8070023465E
:10525000FEF774F90134B4F5A07FA5EC010AF3D18F
:1052600005B030BD8C370020903B002070B586B073
:1052700003AB83E8070003AA07CA4FF4A073FEF745
:1052800053F903AA064640F2411307CAFEF74CF948
:1052900003AA05464FF4A17307CAFEF745F90DF1BD
:1052A0000C0C044640F243139CE80700FEF73CF95F
:1052B000054A0192054A0092034622462946304695
:1052C000FCF728FD06B070BD903B00209037002011
:1052D00000B583B00190FEF7D3F801984168002231
:1052E000FF23C0E90312838203B000BD30B5174924
:1052F0008BB004461648FCF7DBFA0546E8B1237D7F
:10530000012B1ED900210B46E268637502EB010EEA
:1053100094E8070004AB83E807000DF1040CCDF816
:1053200014E08CE8070093E8070007AB83E8070068
:1053300084E807002046FEF7AFF82846A5750BB0B5
:1053400030BD013303F00103D902DDE7903B0020BB
:1053500090370020F0B5837D83B005462BB900243B
:1053600000232046AB7503B0F0BD48494848FCF720
:105370009FFA0028F3D045494548464EFCF756FAB7
:105380000024074656F8043F95E80700009323469B
:105390000134FEF78FF8B4F5807FF3D13B4EB6ECC5
:1053A000010A234695E807000134FEF79BF8B4F59F
:1053B000A07FF4D10223009395E8070040F2411347
:1053C000FEF784F8009495E807004FF4A173FEF708
:1053D0007DF8009795E8070040F24313FEF776F852
:1053E0002A690132009295E807004FF4A273FEF794
:1053F0006DF8294B009395E807002346FEF766F801
:10540000234926484FF4806203F03EFC1F4924489C
:105410004FF4807203F038FC95E80700FFF700FFB7
:1054200095E80700FFF722FF044660B91B491848BA
:105430004FF4806203F028FC194914484FF480723D
:1054400003F022FC8BE795E807004FF4A273FEF708
:105450006BF82B69114907464FF480620C485E1CBB
:1054600003F012FC0E4909484FF4807203F00CFC63
:10547000B7427FF474AF2B696A7D2A7501332B61C3
:1054800020460023AB7503B0F0BD00BF903B002069
:10549000903700208C3700204154484E1C3E00209D
:1054A0001C3D00202DE9F04F93B006460DF10C088D
:1054B00000274FF0FF0A0CAD09AC0DF1100996E87A
:1054C00007000DF13C0C8CE80700F36803EBC723E1
:1054D000109385E807009CE8070084E80700FFF7C1
:1054E0009FFE94E80700FFF7C1FE4FF4A27388F80F
:1054F0000000834694E80700FEF716F849F82700F5
:105500000346002F41D0BBF1000F02D0BAF1FF0FCC
:1055100054D1059B9DF80D2004999DF80C00FCF7D3
:1055200021FC002859DB5FFA80F8B8F1FF0F54D056
:10553000B8F1000F56D1354935484FF4806203F079
:10554000A3FB344934484FF4807203F09DFBF268AA
:1055500086F8148002EBC82796E8070085E8070064
:105560000D9784E8070095E807000FAC84E8070072
:105570000DEB880394E807001B693361012386E87B
:105580000700184613B0BDE8F08FBBF1000F10D034
:105590001F491E4801934FF4806203F075FB1E49BA
:1055A0001C484FF4807203F06FFBBAF1FF0F04D177
:1055B000BA4608F10108012781E7019B18460DEB67
:1055C0008A031969FCF7C8FB08B15FFA87FA002F54
:1055D0009FD108F10108012771E70023184613B095
:1055E000BDE8F08FF26802EBC82396E807000DF1E2
:1055F0003C0C8CE80700109385E807009CE8070046
:1056000006AF87E80700FFF70BFEA0E71C3E00206F
:10561000903700201C3D0020903B00200023837524
:10562000FDF76EBF9DF800C030B949B932B14BB13A
:10563000844508BF0520704701207047032070474C
:105640000220704704207047081A904234BF00209F
:10565000012070470120704708B503F0E3FA1623D4
:1056600003604FF0FF3008BD08B503F0DBFA1623E6
:105670000360FEE770B5161E07DD0C468D19AFF30B
:10568000008004F8010BA542F9D1304670BD00BF7F
:1056900070B5161E07DD0C468D1914F8010BFCF7CA
:1056A0008FFFA542F9D1304670BD00BF4FF0FF30EB
:1056B000704700BF4FF400534B600020704700BF9D
:1056C00001207047002070470C4A08B5136833B1B9
:1056D00018446946884208D81060184608BD084B2F
:1056E0001360184469468842F6D903F09BFA0C23EC
:1056F00003604FF0FF33184608BD00BF1C42002076
:10570000784300200D4B0E4A1B68A2FB03239B0924
:10571000013BB3F1807F00D3FEE74FF0E02209495F
:105720005361F02081F823004FF0000C0720102374
:10573000C2F818C0106181F82330704700000020C3
:10574000D34D621000ED00E0024A10601368002B98
:10575000FCD17047244200200549064A0B680133FA
:105760000B60136813B11368013B1360704700BFEF
:105770002042002024420020014B1868704700BFDF
:1057800020420020704700BF08B50220FBF7D0FC84
:10579000FEE700BF08B50420FBF7CAFCFEE700BF28
:1057A00008B50820FBF7C4FCFEE700BF08B51020D1
:1057B000FBF7BEFCFEE700BF704700BF704700BFAD
:1057C000704700BFFFF7C8BF70B53D4C3D4884B07F
:1057D0002246002100F044FC206840F20173984208
:1057E00005D1A36823F07F43B3F5002F58D0364D81
:1057F000627A217A6B680093B2FA82F2B1FA81F18F
:10580000A37A52094909FCF7BDFA08B904B070BD82
:105810002E4A2F492F4B92ED0E7A91ED111AD2EDAF
:10582000117AD3ED180A93ED030A29792A4821EE5B
:10583000071AC0EEA70A80EE270A21EE271AFBF707
:10584000E7FE25491F4800F0B7FB244803A9FCF7F1
:10585000ABFA054688B19DF80C30FD2B1BD0FE2B12
:1058600006D0FC2BD2D11E486D21FEF7FFFFCDE7FD
:105870001B487A21FEF7FAFFC8E7154E236906F1A7
:10588000CC02CDE9003294E80F00FBF703FFC6F825
:10589000B85004B070BD12481B21FEF7E7FFB5E712
:1058A00003A904F10B00FCF7D1FA18B99DF80C30EC
:1058B000032B01D920689AE72046FCF70BFBA5E7EC
:1058C000E80100200064004090370020903B002059
:1058D0007834002058310020FC010020F301002022
:1058E00068340020012110B5174801F0B3F91749B9
:1058F0000B88013343F697229BB2934212D80B8058
:10590000134C2046FDF76AFE9FED120A1248FFF77E
:10591000CFFA1248FEF7EEFCD4F8B4300133C4F8E5
:10592000B43010BD0E4B1A7800200880B2FA82F213
:1059300000F18040520900F588304FF400511A7090
:1059400000F0A0FEDCE700BF002C01402A4200204E
:1059500078340020D1CB0B38583100206834002037
:105960002842002008B54FF4805000F0B5FC0E48E6
:105970004FF4805100F08CFE00B108BDFDF708F92E
:1059800068B909484FF4006100F088FE0028F4D09F
:105990002020FBF7CDFB054B01229A8008BDBDE816
:1059A0000840FDF7FDB800BF000801404C31002061
:1059B00008B50749074801F0F9FB00B908BD0548DB
:1059C00001F0DCFBBDE80840C1B20348FEF74EBF62
:1059D00005030500004400406834002008B5154B5D
:1059E00098421BD003F5A05398420DD0A3F5C053A5
:1059F00098421DD140F2093000F02AFFBDE808406E
:105A000040F2093000F032BF40F20F3000F020FFCA
:105A1000BDE8084040F20F3000F028BF40F20A30E5
:105A200000F016FFBDE8084040F20A3000F01EBF4B
:105A300008BD00BF002801408368DB0703D48368EA
:105A400043F0010383607047826842F0080200F16E
:105A5000080382601A681107FCD4826842F00402CD
:105A600082601A685207FCD4704700BF836843F411
:105A700080738360704700BF064BD3F8042422F480
:105A80007022C3F80424D3F804240243C3F8042486
:105A9000704700BF0020014001F480738AB11BB140
:105AA000436843F4807343604B0503D5436843F474
:105AB00080634360890715D5836843F002038360E0
:105AC00070471BB1436823F4807343604A0503D5D4
:105AD000436823F4806343608B0703D5836823F016
