:020000040800F2
:1000000000000120957000082155000825550008C2
:10001000315500083D550008495500080000000012
:10002000000000000000000000000000555500081E
:1000300059550008000000005D5500086155000892
:10004000E5700008E5700008E5700008E57000083C
:10005000E5700008E5700008E5700008E57000082C
:10006000E5700008E5700008E5700008E57000081C
:10007000E5700008E5700008E5700008E57000080C
:10008000E5700008E5700008E5700008E5700008FC
:1000900065550008E5700008E5700008E570000887
:1000A000E570000881560008E5700008E57000085A
:1000B000E5700008E5700008E5700008E5700008CC
:1000C000E5700008E5700008E5700008E5700008BC
:1000D000E5700008E57000084D570008E57000085D
:1000E00001570008E5700008E5700008E570000899
:1000F000E5700008E5700008E5700008E57000088C
:10010000E5700008E5700008E5700008E57000087B
:10011000E5700008E5700008E5700008E57000086B
:10012000E5700008E5700008E5700008E57000085B
:1001300001F0FF01102A2BDB10F0070F08D010F898
:10014000013B013A8B422DD010F0070F42B3F6D19C
:10015000F0B441EA012141EA014122F007047FF0B5
:1001600000070023F0E80256083C85EA010586EA0C
:10017000010685FA47F5A3FA87F586FA47F6A5FA48
:1001800087F68EB9EED1F0BC01F0FF0102F0070254
:1001900032B110F8013B013A83EA010313B1F8D1FF
:1001A0000020704701387047002D06BF35460338E0
:1001B000073815F0010F07D1013015F4807F02BF19
:1001C000013015F4C03F0130F0BC0138704700BF6A
:1001D000034613F8012B002AFBD1181A0138704787
:1001E00081F0004102E000BF83F0004330B54FEAE8
:1001F00041044FEA430594EA050F08BF90EA020F55
:100200001FBF54EA000C55EA020C7FEA645C7FEAE7
:10021000655C00F0E2804FEA5454D4EB5555B8BF0A
:100220006D420CDD2C4480EA020281EA030382EA7B
:10023000000083EA010180EA020281EA0303362D0D
:1002400088BF30BD11F0004F4FEA01314FF4801CE0
:100250004CEA113102D0404261EB410113F0004FF2
:100260004FEA03334CEA133302D0524263EB4303A9
:1002700094EA050F00F0A780A4F10104D5F1200E47
:100280000DDB02FA0EFC22FA05F2801841F10001A2
:1002900003FA0EF2801843FA05F359410EE0A5F176
:1002A00020050EF1200E012A03FA0EFC28BF4CF0A7
:1002B000020C43FA05F3C01851EBE37101F000455D
:1002C00007D54FF0000EDCF1000C7EEB00006EEB6A
:1002D0000101B1F5801F1BD3B1F5001F0CD34908F4
:1002E0005FEA30004FEA3C0C04F101044FEA44524B
:1002F00012F5800F80F09A80BCF1004F08BF5FEAD2
:10030000500C50F1000041EB045141EA050130BDB1
:100310005FEA4C0C404141EB0101013C28BFB1F5C3
:10032000801FE9D291F0000F04BF01460020B1FA0E
:1003300081F308BF2033A3F10B03B3F120020CDAE1
:100340000C3208DD02F1140CC2F10C0201FA0CF0BF
:1003500021FA02F10CE002F11402D8BFC2F1200C24
:1003600001FA02F120FA0CFCDCBF41EA0C019040DA
:10037000E41AA2BF01EB0451294330BD6FEA040423
:100380001F3C1CDA0C340EDC04F11404C4F120020E
:1003900020FA04F001FA02F340EA030021FA04F320
:1003A00045EA030130BDC4F10C04C4F1200220FA77
:1003B00002F001FA04F340EA0300294630BD21FAB5
:1003C00004F0294630BD94F0000F83F4801306BF7B
:1003D00081F480110134013D4EE77FEA645C18BF6F
:1003E0007FEA655C29D094EA050F08BF90EA020F06
:1003F00005D054EA000C04BF1946104630BD91EAFE
:10040000030F1EBF0021002030BD5FEA545C05D100
:100410004000494128BF41F0004130BD14F580043F
:100420003CBF01F5801130BD01F0004545F0FE41B3
:1004300041F470014FF0000030BD7FEA645C1ABFE8
:10044000194610467FEA655C1CBF0B46024650EA1F
:10045000013406BF52EA033591EA030F41F400214B
:1004600030BD00BF90F0000F04BF0021704730B5D1
:100470004FF4806404F132044FF000054FF00001A6
:1004800050E700BF90F0000F04BF0021704730B567
:100490004FF4806404F1320410F0004548BF40423C
:1004A0004FF000013EE700BF42004FEAE2014FEA91
:1004B00031014FEA02701FBF12F07F4393F07F4F6C
:1004C00081F06051704732F07F4208BF704793F06F
:1004D0007F4F04BF41F40021704730B54FF4607482
:1004E00001F0004521F000411CE700BF50EA010285
:1004F00008BF704730B54FF000050AE050EA01022E
:1005000008BF704730B511F0004502D5404261EB9D
:1005100041014FF4806404F132045FEA915C3FF4DE
:10052000D8AE4FF003025FEADC0C18BF03325FEA7B
:10053000DC0C18BF033202EBDC02C2F1200300FA2C
:1005400003FC20FA02F001FA03FE40EA0E0021FA51
:1005500002F11444BDE600BF70B54FF0FF0C4CF43F
:10056000E06C1CEA11541DBF1CEA135594EA0C0FF1
:1005700095EA0C0F00F0DEF82C4481EA030621EA2C
:100580004C5123EA4C5350EA013518BF52EA033567
:1005900041F4801143F4801338D0A0FB02CE4FF019
:1005A0000005E1FB02E506F00042E0FB03E54FF049
:1005B0000006E1FB03569CF0000F18BF4EF0010E41
:1005C000A4F1FF04B6F5007F64F5407404D25FEA3D
:1005D0004E0E6D4146EB060642EAC62141EA5551F0
:1005E0004FEAC52040EA5E504FEACE2EB4F1FD0C32
:1005F00088BFBCF5E06F1ED8BEF1004F08BF5FEAB0
:10060000500E50F1000041EB045170BD06F0004661
:1006100046EA010140EA020081EA0301B4EB5C040E
:10062000C2BFD4EB0C0541EA045170BD41F4801106
:100630004FF0000E013C00F3AB8014F1360FDEBF2B
:10064000002001F0004170BDC4F10004203C35DA07
:100650000C341BDC04F11404C4F1200500FA05F38A
:1006600020FA04F001FA05F240EA020001F000422B
:1006700021F0004110EBD37021FA04F642EB0601A1
:100680005EEA430E08BF20EAD37070BDC4F10C04CB
:10069000C4F1200500FA04F320FA05F001FA04F28F
:1006A00040EA020001F0004110EBD37041F100017B
:1006B0005EEA430E08BF20EAD37070BDC4F1200586
:1006C00000FA05F24EEA020E20FA04F301FA05F2EE
:1006D00043EA020321FA04F001F0004121FA04F296
:1006E00020EA020000EBD3705EEA430E08BF20EA66
:1006F000D37070BD94F0000F0FD101F000464000A0
:1007000041EB010111F4801F08BF013CF7D041EA21
:10071000060195F0000F18BF704703F00046520025
:1007200043EB030313F4801F08BF013DF7D043EAF6
:100730000603704794EA0C0F0CEA135518BF95EAAC
:100740000C0F0CD050EA410618BF52EA4306D1D133
:1007500081EA030101F000414FF0000070BD50EA52
:10076000410606BF1046194652EA430619D094EADC
:100770000C0F02D150EA013613D195EA0C0F05D1C6
:1007800052EA03361CBF104619460AD181EA03011A
:1007900001F0004141F0FE4141F470014FF00000D2
:1007A00070BD41F0FE4141F4780170BD70B54FF06D
:1007B000FF0C4CF4E06C1CEA11541DBF1CEA1355ED
:1007C00094EA0C0F95EA0C0F00F0A7F8A4EB0504CF
:1007D00081EA030E52EA03354FEA013100F08880C6
:1007E0004FEA03334FF0805545EA131343EA12638F
:1007F0004FEA022245EA111545EA10654FEA002644
:100800000EF000419D4208BF964244F1FD0404F5FC
:10081000407402D25B084FEA3202B61A65EB030558
:100820005B084FEA32024FF480104FF4002CB6EB15
:10083000020E75EB030E22BFB61A754640EA0C0095
:100840005B084FEA3202B6EB020E75EB030E22BFD5
:10085000B61A754640EA5C005B084FEA3202B6EB16
:10086000020E75EB030E22BFB61A754640EA9C00D5
:100870005B084FEA3202B6EB020E75EB030E22BFA5
:10088000B61A754640EADC0055EA060E18D04FEA63
:10089000051545EA16754FEA06164FEAC30343EA03
:1008A00052734FEAC2025FEA1C1CC0D111F4801FD0
:1008B0000BD141EA00014FF000004FF0004CB6E7C9
:1008C00011F4801F04BF01430020B4F1FD0C88BF68
:1008D000BCF5E06F3FF6AFAEB5EB030C04BFB6EB73
:1008E000020C5FEA500C50F1000041EB045170BD66
:1008F0000EF0004E4EEA113114EB5C04C2BFD4EB93
:100900000C0541EA045170BD41F480114FF0000E16
:10091000013C90E645EA060E8DE60CEA135594EA92
:100920000C0F08BF95EA0C0F3FF43BAF94EA0C0F95
:100930000AD150EA01347FF434AF95EA0C0F7FF40A
:1009400025AF104619462CE795EA0C0F06D152EA5E
:1009500003353FF4FDAE1046194622E750EA410642
:1009600018BF52EA43067FF4C5AE50EA41047FF453
:100970000DAF52EA43057FF4EBAE12E74FF0FF3CB8
:1009800006E000BF4FF0010C02E000BF4FF0010C89
:100990004DF804CD4FEA410C7FEA6C5C4FEA430C02
:1009A00018BF7FEA6C5C1BD001B050EA410C0CBF51
:1009B00052EA430C91EA030F02BF90EA020F0020B3
:1009C000704710F1000F91EA030F58BF994208BF1A
:1009D00090422CBFD8176FEAE37040F001007047D7
:1009E0004FEA410C7FEA6C5C02D150EA013C07D12E
:1009F0004FEA430C7FEA6C5CD6D152EA033CD3D079
:100A00005DF8040B704700BF8446104662468C4672
:100A10001946634600E000BF01B5FFF7B7FF0028A5
:100A200048BF10F1000F01BD4DF808EDFFF7F4FFCE
:100A30000CBF012000205DF808FB00BF4DF808ED59
:100A4000FFF7EAFF34BF012000205DF808FB00BF7C
:100A50004DF808EDFFF7E0FF94BF012000205DF89E
:100A600008FB00BF4DF808EDFFF7CEFF94BF012053
:100A700000205DF808FB00BF4DF808EDFFF7C4FF4C
:100A800034BF012000205DF808FB00BF4FEA410C95
:100A90007FEA6C5C02D150EA013C0AD14FEA430C78
:100AA0007FEA6C5C02D152EA033C02D14FF00000B5
:100AB00070474FF0010070474FEA410212F50012F3
:100AC00015D211D56FF47873B3EB625212D94FEA95
:100AD000C12343F0004343EA505311F0004F23FA7F
:100AE00002F018BF404270474FF00000704750EAD4
:100AF000013005D111F0004008BF6FF00040704791
:100B00004FF00000704700BF4A0011D212F50012EA
:100B100011D20DD56FF47873B3EB62520ED44FEA55
:100B2000C12343F0004343EA505323FA02F07047D5
:100B30004FF00000704750EA013002D14FF0FF3013
:100B400070474FF0000070474FEA4102B2F1E043B6
:100B500024BFB3F5001CDCF1FE5C0DD901F0004CA4
:100B60004FEAC0024CEA5070B2F1004F40EB8300F4
:100B700008BF20F00100704711F0804F21D113F120
:100B80003872BCBF01F00040704741F480114FEA59
:100B90005252C2F11802C2F1200C10FA0CF320FAE2
:100BA00002F018BF40F001004FEAC1234FEAD323FF
:100BB00003FA0CFC40EA0C0023FA02F34FEA430369
:100BC000CCE77FEA625307D150EA01331EBF4FF0F2
:100BD000FE4040F44000704701F0004040F0FE400D
:100BE00040F40000704700BF0348044B834202D02A
:100BF000034B03B118477047CC010020CC01002003
:100C0000000000000548064B1B1AD90F01EBA30199
:100C1000491002D0034B03B118477047CC010020A4
:100C2000CC0100200000000010B5064C237843B929
:100C3000FFF7DAFF044B13B10448AFF30080012340
:100C4000237010BDCC0100200000000094BA000801
:100C500008B5054B1BB105490548AFF30080BDE859
:100C60000840FFF7CFBF00BF00000000D001002008
:100C700094BA000808B5012005F0D4FC4FF4C06018
:100C800005F0A6FC40F2026005F0A2FC40F2036011
:100C900005F09EFC40F2046005F09AFC4FF4A06061
:100CA00005F096FC40F2015005F092FC40F21970FC
:100CB00005F08EFC40F20E7005F08AFC40F20F70D9
:100CC00005F086FC40F20B6005F082FC40F2096002
:100CD00005F07EFC40F20A6005F07AFC40F20F60FD
:100CE00005F076FCBDE8084040F2117005F070BCDC
:100CF00070B504F0D5FBFFF7BDFF00F027FA01F057
:100D0000CDFB01F037FB00F035FC01F0E5FA01F016
:100D10000BFB00F0C7FA00F0B3FB02F097FAC548EE
:100D200007F010FEC44807F00DFE01230022022147
:100D3000C24807F09FFDC248062104F097F9C04859
:100D400004F07EFA002800F0AC81BE4DBE4C6B6909
:100D5000D4ED027A013304BF00236B612B690133A8
:100D600008BF0023F4EE677A08BF2B61F1EE10FA9A
:100D700080F19481BFEE007AF4EE477AF1EE10FA3A
:100D800000F08C81D4ED037AF4EE677AF1EE10FA7C
:100D900080F18181BFEE007AF4EE477AF1EE10FA2D
:100DA00000F07981D4ED067AF4EE677AF1EE10FA6C
:100DB00080F16E81BFEE007AF4EE477AF1EE10FA20
:100DC00000F066816B68D4ED077A013304BF01231C
:100DD0006B60AB68013304BF0023AB60EB68013389
:100DE00008BF4FF47A73F4EE677A08BFEB60F1EE58
:100DF00010FA80F11B81BFEE007AF4EE477AF1EE33
:100E000010FA00F01381D4ED087AF4EE677AF1EE6F
:100E100010FA80F10881BFEE007AF4EE477AF1EE25
:100E200010FA00F00081D4ED097AF4EE677AF1EE61
:100E300010FA80F1F580BFEE007AF4EE477AF1EE19
:100E400010FA00F0ED80D4ED127AF4EE677AF1EE4C
:100E500010FA80F1E280BFEE007AF4EE477AF1EE0C
:100E600010FA00F0DA80D4ED0A7AF4EE677AF1EE47
:100E700010FA80F1CF80BFEE007AF4EE477AF1EEFF
:100E800010FA00F0C780D4ED117AF4EE677AF1EE33
:100E900010FA80F1BB80BFEE007AF4EE477AF1EEF3
:100EA00010FA00F0B380D4ED0E7AF4EE677AF1EE2A
:100EB00010FA80F1A780BFEE007AF4EE477AF1EEE7
:100EC00010FA00F09F80D4ED177AF4EE677AF1EE15
:100ED00010FA80F19480BFEE007AF4EE477AF1EEDA
:100EE00010FA00F08C80D4ED187AF4EE677AF1EE07
:100EF00010FA80F18180BFEE007AF4EE477AF1EECD
:100F000010FA79D0D4ED147A5048514EF4EE677A45
:100F1000D4ED137AF1EE10FA64BF4E4B2365F4EE74
:100F2000677AD4ED167AF1EE10FA64BF4A4BE364A7
:100F3000F4EE677AD4ED157AF1EE10FA64BF474B00
:100F4000A365F4EE677AF1EE10FA64BF444B636573
:100F500002F016FC00214FF44472424807F013FDE2
:100F60006A69A36AC6F8D82064202A69C6F8D42022
:100F7000B3663D4D04F0B6FA6421304603F0BAFD85
:100F80003A494FF4007206F1DC0007F049FD95E89C
:100F9000070002F069F8002840F08B80344800F028
:100FA00009FB344800F020FB00221146282005F000
:100FB000BDFA01220021142005F0B8FA0022012117
:100FC000192005F0B3FA00220221262005F0AEFA1E
:100FD000294B062101221980DA7000244FF47A701F
:100FE00004F080FAAB880134002BF7D095E80700B5
:100FF000234601F04FFFF1E7204B236682E7204BA9
:10100000E36570E74FF07E53A3635CE74FF07E53D8
:10101000636448E71B4BA36235E7184BA36422E7E0
:10102000194B63620FE7194B2362FCE60023E3616F
:10103000E9E600BFC8BB0008D4BB0008F4BB000849
:101040007837002090370020903B00207834002033
:101050005831002000004841000048C10000824291
:10106000000082C23C2E00204C310020A837002016
:10107000E8010020FC010020683400200000A040AE
:101080000000FA430000A841000060410000FA425D
:101090000023A36196E6094BE36083E6084BA36057
:1010A00070E60849084800F067FB084807F04AFC6A
:1010B0004BE6074807F046FC70E700BF00002042FF
:1010C00000007A44903B00209037002010BC0008BC
:1010D00060BC000808B514484FF4006105F09EF9A3
:1010E0001248002105F0A4FC002211460F4805F02B
:1010F00037FE0E480022012105F032FE0B48002287
:10110000022105F02DFE00221146084805F0CAFD17
:1011100006480022012105F0C5FDBDE8084003484E
:101120000022022105F0BEBD00080140002C014054
:10113000024A136803431360FFF7CCBF903C0020C2
:10114000014B1868704700BF903C002010B5504814
:10115000012105F077F94F48012105F073F94E4858
:101160004FF4A0530122182105F000F94A484FF42A
:1011700000630122042105F0F9F84FF40043012235
:101180004648102105F0F2F844484FF4004105F0BC
:1011900043F943484FF420430122182105F0E6F8B3
:1011A0003F484FF480430122482105F0DFF84FF417
:1011B000805301223A48102105F0D8F838484FF4FE
:1011C000805105F029F935484FF4006302221021BF
:1011D00005F0CCF84FF4805303223048042105F089
:1011E000C5F82E484FF4006105F018F92B484FF46C
:1011F000E0630322182105F0B9F8274803230422ED
:10120000002105F0B3F8264801230422002105F04F
:10121000ADF821480C230422002105F0A7F81F484F
:10122000F0230422002105F0A1F81B4830230422FA
:10123000002105F09BF84FF40053022216481021BC
:1012400005F094F814484FF4005105F0E7F81348FE
:1012500004230122182105F089F8082301220F48F0
:10126000042105F083F801214FF4EA1005F0EAF8B3
:101270000B484FF480730222482105F077F8BDE84F
:10128000104007484FF400730322182105F06EB890
:101290000010200000023000001001400008014052
:1012A000000C014070B5714888B0002104F00AFEBE
:1012B0006F4A704B01920024042503934FF400728F
:1012C0004FF400634FF48076029204930DEB050215
:1012D0004FF4805321466548ADF81C60CDE90553B5
:1012E0008DF81E4004F00CFE2146604804F046FED6
:1012F00021465E4804F054FE5F4804F03DFA5F4822
:1013000004F03AFA4FF4803004F084FA31465A4837
:10131000012204F08FFA22465748022104F08AFA8B
:1013200031465648012204F085FA224653480221EC
:1013300004F080FA2146504804F0A4FA2A464E48A8
:10134000012104F0A9FA01224B48022104F0A4FA79
:1013500021464A4804F096FA2A464848012104F0FA
:101360009BFA46480122022104F096FA23462146C0
:101370004148062204F0AEFA23463F480F220121DD
:1013800004F0A8FA23463C480722022104F0A2FAFE
:10139000234639480822032104F09CFA23462146BB
:1013A0003648052204F096FA234634480E220121DD
:1013B00004F090FA23462A463048022104F08AFAC3
:1013C00023462E480C22032104F084FA2A484FF4C5
:1013D0006022012104F02AFB01221146264804F074
:1013E00009FB26484FF46022012104F01FFB012273
:1013F0001146224804F0FEFA234621461E480B22DD
:1014000004F0C0FA234621461C480A2204F0BAFA26
:1014100019484FF4E042022104F008FB164801226B
:10142000022104F0E7FA15484FF4E042022104F0EB
:10143000FDFA01220221114804F0DCFA0E4804F002
:10144000E3F90E4804F0E0F90B4804F0C3F90B4847
:1014500004F0C0F9012004F045F8074804F0C2F98F
:10146000064804F0BFF908B070BD00BF000002409C
:101470004C240140983C00200024014000280140F9
:1014800070B5384888B0042104F01CFD3649374A4D
:1014900001914FF48063012400254FF4807603927C
:1014A000049301AA4FF480532E4806930421ADF80B
:1014B0001C6002968DF81E50059404F021FD294809
:1014C000042104F05BFD0421264804F069FD28484E
:1014D00004F052F922463146254804F0ABF92A4679
:1014E0002348022104F0A6F92946214804F0CAF94C
:1014F000224621461E4804F0CFF922461C4802210C
:1015000004F0CAF92B46294619480D2204F0E2F9E5
:10151000214617484FF4602204F088FA22462146FB
:10152000134804F067FA2B46294611480D2204F0AF
:1015300029FA0F484FF4E042022104F077FA2246DC
:1015400002210B4804F056FA094804F05DF90848F6
:1015500004F040F9204603F0C5FF054804F042F9C5
:1015600008B070BD000402404C3C0140943C002097
:10157000003C014000B585B001A9002004F0ACFAA0
:101580000A4804F097FA0A484FF48072CDE9010244
:101590004FF4802301A90548039304F0CFFA0348D0
:1015A000022104F08BFC05B000BD00BF00640040C8
:1015B0000000090300B5014687B0032004F08CFA4F
:1015C00001A9012004F088FA00234FF480310122A0
:1015D00001A8CDE90133CDE903318DF8142004F0E1
:1015E0003FFB07B000BD00BF00B583B001460190CE
:1015F000022004F071FA054A0199906808600023FE
:1016000006228A724B600B8103B000BD9037002028
:10161000F0B52DED028B1E4D83B00446F0EE608ACE
:10162000B0EE418AD5ED130A95ED141A0191102000
:1016300003F0FEF895ED161AD5ED150A0746B0EE43
:10164000680A0C2003F0F4F8D5ED030A95ED0E7A44
:10165000D5ED117A60EEC70A064660EEA70AB0EE35
:10166000480AB1EE601A0C2003F0E2F80312019967
:10167000E17203EB06137ABA3111E3730023A1730D
:10168000A28120746374A37403B0BDEC028BF0BD1F
:10169000903B002084B0F0B52DED028B83B00AACF6
:1016A00084E80F009DF836309DF835709DF839209C
:1016B0009DF83760BDF833002D4C9DF838E09DF85B
:1016C0003A10D4ED140A94ED130A0F9D9FED298A68
:1016D0004FEA032C1B0943EA07170CF470631E43FF
:1016E000130240BA120903F470630B4342EA0E126C
:1016F00080B210210092019303F0AEF885ED000A4C
:10170000D4ED160A94ED150A38460C2103F0A4F81E
:1017100085ED010AD4ED170A3046B0EE480A0C21D7
:1017200003F09AF885ED020AD4ED180A00980C210E
:10173000B0EE480A03F090F885ED030A94ED030A31
:1017400094ED0E7AD4ED117A019820EE470A0C211F
:1017500020EE270AF1EE400A03F07EF885ED040A38
:1017600003B0BDEC028BBDE8F04004B0704700BF91
:10177000903B00200000000070B54FF480620C46E2
:101780000546002107F0FFF801264FF48072002182
:10179000204607F0F8F86E60002300224FF47A76B6
:1017A000C5E904222A60AA60EE60154ADFED156AD9
:1017B0009FED157ADFED157AA3614FF07E51E3615D
:1017C0006363E3632364124BDFF858E0DFF858C02B
:1017D0001048A1636164A2640F49236522660F4B20
:1017E0000F4AC4ED026A84ED037AC4ED087AC4F8A6
:1017F00054E0C4F858C0E164E0656262A36270BD61
:101800000000A04000007A44000020420000FA429C
:10181000000048410000FA43000048C10000A84110
:1018200000006041000082C20000824270B50E4696
:101830001E49A0F1040E00F57F754FF0FF305EF8F1
:10184000044F4FF0000C24FA0CF3DBB2584008228E
:1018500040F300030B40013A83EA5000F8D10CF149
:10186000080CBCF1200FEED17545E8D10F49B64602
:1018700006F58075DEF800404FF0000C24FA0CF3FA
:10188000DBB25840082240F300030B40013A83EAE0
:101890005000F8D10CF1080CBCF1200FEED10EF184
:1018A000040EAE45E6D1C04370BD00BF2083B8ED45
:1018B0000368012B00F22C8243687F2B00F2288200
:1018C00083687F2B00F22482C368DE4A013B934287
:1018D00000F21E820369DFF8A4C34FF6FF721344BF
:1018E000634500F2158243691A44624500F2108292
:1018F000D1ED027A9FEDD47AF0EEE76AF4EE476A12
:10190000F1EE10FA00F20482DFEDDD6AF4EEE67A21
:10191000F1EE10FAC0F2FC81DFEDCC6AF4EEE67A6B
:10192000F1EE10FA00F2F481D1ED037AF0EEE76AFD
:10193000F4EE476AF1EE10FA00F2EA819FEDC47A04
:10194000F4EEC77AF1EE10FAC0F2E2819FEDC17AAF
:10195000F4EEC77AF1EE10FA00F2DA81D1ED064A20
:10196000DFEDB96AB0EEE47AB4EE667AF1EE10FA21
:1019700000F2CE81F5EEC04AF1EE10FAC0F2C88155
:101980009FEDB57AF4EEC74AF1EE10FA00F2C0818D
:1019900091ED077AB0EEC76AB4EE666AF1EE10FA1E
:1019A00000F2B681B5EEC07AF1EE10FAC0F2B08165
:1019B0009FEDB36AB4EEC67AF1EE10FA00F2A88198
:1019C00091ED087AB0EEC76AB4EE666AF1EE10FAED
:1019D00000F29E81F7EE006AB4EEE67AF1EE10FABC
:1019E000C0F29681DFED9D6AB4EEE67AF1EE10FA70
:1019F00000F28E8191ED095ADFED936AB0EEC57A5F
:101A0000B4EE667AF1EE10FA00F282819FED907AE0
:101A1000B4EEC75AF1EE10FAC0F27A819FED907AD7
:101A2000B4EEC75AF1EE10FA00F2728191ED0A7A23
:101A3000B0EEC76AB4EE666AF1EE10FA00F26881A1
:101A4000B7EE006AB4EEC67AF1EE10FAC0F2608129
:101A50009FED846AB4EEC67AF1EE10FA00F2588176
:101A600091ED0D7AB0EEC76AB4EE666AF1EE10FA47
:101A700000F24E81B5EEC07AF1EE10FAC0F2488164
:101A8000DFED7F6AB4EEE67AF1EE10FA00F2408103
:101A9000D1ED0E6A9FED6C7AB0EEE66AB4EE476A5D
:101AA000F1EE10FA00F234819FED6F6AF4EEC66A2F
:101AB000F1EE10FAC0F22C81B2EE046AF4EEC66ABE
:101AC000F1EE10FA00F22481D1ED0F6AB0EEE66A71
:101AD000B4EE476AF1EE10FA00F21A81F5EEC06A30
:101AE000F1EE10FAC0F214819FED606AF4EEC66A5E
:101AF000F1EE10FA00F20C81D1ED106AB0EEE66A58
:101B0000B4EE476AF1EE10FA00F20281F5EEC06A17
:101B1000F1EE10FAC0F2FC809FED556AF4EEC66A51
:101B2000F1EE10FA00F2F480D1ED116AB0EEE66A3F
:101B3000B4EE476AF1EE10FA00F2EA809FED4D7ABA
:101B4000F4EEC76AF1EE10FAC0F2E2809FED477A38
:101B5000F4EEC76AF1EE10FA00F2DA80D1ED126A03
:101B60009FED397AB0EEE66AB4EE476AF1EE10FA0C
:101B700000F2CE809FED366AF4EEC66AF1EE10FAFE
:101B8000C0F2C680B3EE046AF4EEC66AF1EE10FA53
:101B900000F2BE80D1ED135AF0EEE56AF4EE476A2A
:101BA000F1EE10FA00F2B480DFED336AF4EEE65A9B
:101BB000F1EE10FAC0F2AC80F5EEC05AF1EE10FA78
:101BC00000F2A68091ED146AF0EEC66AF4EE476A60
:101BD000F1EE10FA00F29C80B5EEC06AF1EE10FA58
:101BE000C0F296809FED214AB4EEC46AF1EE10FA7D
:101BF00000F28E80D1ED156AB0EE473AB0EEE67A8B
:101C0000B4EE437AF1EE10FA00F282809FED1A7A78
:101C1000F4EEC76AF1EE10FA7ADBF5EEC06AF1EE87
:101C200010FA75D891ED167AF0EEC73AF4EE433A11
:101C3000F1EE10FA6CD8B5EEC07AF1EE10FA67DB6F
:101C400020E000BF9F860100FFFF7F7F0000FA4475
:101C5000CDCCCC3D00007042000004420000164391
:101C6000000020420000804217B7D13800007A44BB
:101C70000050C3476F12833A00007AC4FEFF010090
:101C80000000C842B4EEC47AF1EE10FA40D8D1EDAB
:101C9000173AF0EEE32AF4EE432AF1EE10FA37D8C1
:101CA000F5EEC03AF1EE10FA32DBF4EEC43AF1EEA2
:101CB00010FA2DD891ED184AF0EE433AB0EEC43A3E
:101CC000B4EE633AF1EE10FA22D8B5EEC04AF1EE66
:101CD00010FA1DDB5FED163AB4EEE34AF1EE10FAAE
:101CE00016D8F4EEE47AF1EE10FA11DBF4EEC57AD0
:101CF000F1EE10FA0CDBF4EEC65AF1EE10FA07D54D
:101D0000F4EEC76AF1EE10FA4CBF012000207047D4
:101D10000020704730B5DFF83CC083B06045069DB9
:101D2000079C02D0002003B030BD0229FAD1B2F5E1
:101D3000A07FF7D1214628460193FFF777FD019B4D
:101D40009842EFD12146284603B0BDE83040FFF766
:101D5000AFBD00BF4154484E401A0028D4BF0020F8
:101D60000120704740B12AB15B1A002BD4BF00207C
:101D7000012070471046704782420CBF4FF0FF3081
:101D80000120704711B10AB1082B01D00020704723
:101D9000009BC01AB3F5006FB0FA80F04FEA501004
:101DA00028BF0020704700BF431E00F1060C13F847
:101DB000012FFF2A09D16345F9D1C279131DDBB286
:101DC000022B02D80A70012070470020704700BF24
:101DD00038B5C0F30D0444F4804440F44045204637
:101DE00009F012FE002814BF2846204638BD00BF67
:101DF00010B5044609F008FE28B914F4804F18BF46
:101E00006FF0010010BD4FF0FF3010BDC0F30D00AA
:101E1000C1F30D01401AB0F5005F03DDA0F580406D
:101E200000B2704710F5005FB8BF00F5804000B207
:101E3000704700BF0378A52B20D143785A2B1DD1C2
:101E40008378012B1AD18379C3B910B5DFF838E054
:101E50000C46421E811D12F801CF83EA0C03914209
:101E60001EF80330F7D1C2799A420AD1C3782370A1
:101E7000037963704379A370002010BD4FF0FF30E9
:101E800070476FF0010010BDB0BA000890F800C0B4
:101E90006CF07F0C83F800C090F801C083F801C09B
:101EA000807898704FEA122CD970100C110E1A71AC
:101EB00083F805C09871D971704700BF70B58A4C1E
:101EC0000168236840F201720133914288B02360B7
:101ED00006D1037A23B9437A13B9827A082A04D047
:101EE000A3680133A36008B070BD02A90B30009352
:101EF000FFF7A0FF18B1E3680133E360F3E703F0F5
:101F000009FB7A49009B0A68821A132A03D863697D
:101F100001336361E7E7626808609DF808100132E9
:101F20006260032900F2C781DFE801F0537D1002EF
:101F30009DF80A100F294FD8DFE801F0BABFBDC7DE
:101F4000C5C3C19C4E989490A29E4EA69DF80A20AF
:101F50003C2A41D8DFE812F090018A0184012E0169
:101F60002A0127012301400040001D01A401A10115
:101F70009B01950117010E010A010601FD00F40005
:101F800040004000400040007C009B00A900BB00D6
:101F90009B007C00A9004000400040004000400041
:101FA0004000400040004000400040004000400031
:101FB0004000400040004000400040004000400021
:101FC0004000400040004000EE00E8007C00E200DD
:101FD000C1009DF80A2082B301232169013100224A
:101FE000216103A90220CDE9002303F075FD002340
:101FF0000493ADF8143040F2817303930823DDE9B4
:10200000002102A88DF816300DF11703FFF73EFFEF
:10201000374803A903F09EFE032800F04481A3691A
:102020000133A3615FE79DF80A20042A00F2418191
:10203000DFE802F0030B070905002E4AD1E72E4A1C
:10204000CFE70F22CDE72D4ACBE74FF48032C8E728
:10205000009300F04BFD009B0246C2E7284AD2F8ED
:102060000023BEE7274AD2F8FC22BAE7244AD2F876
:10207000FC22B6E7E269B4E7214AD2F80823B0E7C8
:102080001F4AD2F80423ACE71F4A1268A9E71F4A87
:102090009FED1F7AD2ED037A1E491F4AB4EEE77A0C
:1020A000F1EE10FAB8BF0A469BE740F2154298E7F6
:1020B00022680B4695E7A26893E7626891E7A269F8
:1020C0008FE762698DE722698BE7E26889E7009311
:1020D00000F0BAFE009B024683E7009300F012FD79
:1020E000009B02467DE700BFAC3C0020A83C0020DE
:1020F000006400404154484E01E8030001D1E0A7CC
:102100005831002078340020CC3C0020903B002047
:1021100000002042A0008002A000C002009300F056
:10212000EBFC009B02465CE7009300F0D9FC009BAF
:10213000024656E7009300F0CDFC009B024650E7B4
:102140005E49D1F83C2CD1F82C1C92B242EA0142F3
:1021500047E75A49D1F8342CD1F8381C92B242EAF8
:1021600001423EE7564AD2F8B4203AE7554AD2F83F
:10217000182436E7544991F8DE22002A00F09780AF
:10218000D1F8E6222DE7514AD188128942EA01426C
:1021900027E74B490A89C96842EA014221E74A4ACE
:1021A000D2F880201DE7484A926F1AE7464AD2F8D3
:1021B000E02216E74FF480514548009304F036F9C9
:1021C0004FF400610646424804F036F93B493D4A67
:1021D000031ED1F8440CC0F3C03ED2F81804D2F864
:1021E00018C44FEA401000F02005D2F81804D1F8C6
:1021F000202C4FEA022202F4807218BF01232A43E6
:1022000042EA4302304B93F8DD32003B18BF012312
:1022100042EAC3022A4B93F8F532003B18BF012370
:1022200042EA0312CCF3400C42EA8E02C0F3800073
:1022300042EA8C1242EAC012D1F8200CD1F8201CDC
:10224000009BC0F3001042EA4022C1F3002142EAA1
:102250008122002E08BF42F0010242F00042C0E697
:102260000093FEF76DFF009B0246BAE6009303F071
:1022700051F9009B0246B4E611491346D1F8F82201
:10228000AFE6124A5188928842EA0142A9E60F4A13
:102290005189128842EA0142A3E60C4AD268A0E6BC
:1022A000074A128A9DE6E3690133E3611BE60323D3
:1022B00097E60B4691E604238FE600BF002001401D
:1022C000783400200060004058310020983C002005
:1022D000000801400000000000B5114889B004F07A
:1022E0004DFA9FED0D7B4FF400724FF48271002385
:1022F0004FF40060CDE90013CDE9020218236946CE
:10230000074806938DED047B04F066FA044804F058
:102310007DFA09B000BD00BF000000000100000010
:10232000003800400000000000B5114889B004F0FA
:1023300025FA9FED0D7B4FF400724FF4827100235C
:102340004FF40060CDE90013CDE902021023694685
:10235000074806938DED047B04F03EFA044804F030
:1023600055FA09B000BD00BF0000000001000000E8
:10237000003C004070B548488CB004F059FA08A8F9
:10238000002404F0CBFA01254FF400134FF4FA6255
:1023900008A9414808930A9209948DF82C5004F03A
:1023A000C5FA3D4804F01CFD21463B4804F002FDFF
:1023B0002946394804F006FD374804F00FFB01A810
:1023C00004F040FB022601AA214633480394CDE9DC
:1023D000014604F03DFB21462F48602204F03AFC00
:1023E00021462D48042204F093FC21462A48082265
:1023F00004F066FC22462146274804F053FC01AA5B
:102400002946254804F024FB29462348602204F08D
:1024100021FC29462048042204F07AFC29461E4863
:10242000082204F04DFC224629461B4804F03AFCE1
:1024300001AA3146184804F00BFB314616486022C9
:1024400004F008FC31461448042204F061FC3146D3
:102450001148082204F034FC224631460E4804F0AC
:1024600021FC04A804F0C8FA4FF0005304A90A485C
:102470000694CDE90443ADF81C4004F0C3FA2146AC
:10248000054804F0D5FA2946034804F0ADFA02489D
:1024900004F09EFA0CB070BD002C014008B50D4848
:1024A00004F0A4FC0B484FF4E13104F0EBFC0948C4
:1024B000042104F027FD0821064804F01DFD05480D
:1024C00004F014FDBDE80840024840F2053104F074
:1024D0002FBD00BF0044004038B50546E9B20C48A6
:1024E00004F016FD41F2010401E0013C07D0084868
:1024F000072104F015FD0028F7D0284638BD054A0D
:1025000013684FF0FF3501331360284638BD00BF14
:1025100000440040CC3C0020F0B52DED028B604D16
:102520001446002687B02E600A46217C0746002903
:1025300075D0E168DFED5B6A5B1A07EE903AF8EE62
:10254000E77AB7EE007A67EEA67AF4EEC77AF1EE94
:1025500010FAC4ED057A6ED4F0EE006AF4EEE67A75
:10256000F1EE10FA00F18380104601F091F994ED3C
:10257000067A97ED038ADFED4C6A8DED027A78EEEC
:10258000477AF0EEE77AC6EEA77A17EE900AFDF7E3
:102590008BFF41EC100B09F079F851EC100BFEF7B2
:1025A000B3FA9DED027A2070B4EEC87AF1EE10FA1B
:1025B0002FD401233D4884F8203006F0C3F9217858
:1025C0003B4806F057F9A069FDF76EFF02460B463F
:1025D00018EE100ACDE90223FDF766FFDDE90223BC
:1025E000CDE90001334806F045F994F820302B601E
:1025F0002378314907EE903AF8EE677A00220123FA
:10260000C1ED0A7A227484F8213007B0BDEC028B48
:10261000F0BD84F82060294806F094F9CFE72848F7
:102620000593029206F08EF90121059B2174029A0E
:10263000E3600021616104F5005101F6884501F570
:10264000496100231C48A3602B600B60806CC2F8BA
:10265000A40004F53051C2F8A8302C31104601F026
:1026600089F9FB68A36107B0BDEC028BF0BD77EE82
:10267000C77A9FED0D7A04F5325367EE877A04F539
:10268000305108332C311046C4ED027AC3ED007A84
:1026900007B0BDEC028BBDE8F04001F06BB900BFA4
:1026A00090370020D1CB0B38DB0FC940E4BC0008C9
:1026B000FCBC000810BD0008903B0020CCBC00080A
:1026C000A8BC00082DE9F041C24E96ED0A7A2DED26
:1026D000028BF3EE057AB4EEE77AF1EE10FA84B0ED
:1026E00000F312811D46137C14460F468046002BD2
:1026F00000F0D880D3689FEDB87AEB1A07EE903AD5
:10270000F8EEE77AB7EE006A67EE877AF4EEC67AFB
:10271000F1EE10FAC2ED057A00F1D2809FEDAF8A9A
:1027200096ED0A7A67EE085AC5EE886A76EE866AF2
:10273000F4EEE67AF1EE10FA78D4DFEDA96A27EE2E
:10274000267AC7EE086A36EE867AF4EEC77AF1EE9C
:1027500010FA00F1E280084601F09AF8D6ED0A7A04
:10276000BDEEE77A17EE103A002B40F3928104EBAE
:10277000432303F1280204F12801002351F8040F38
:1027800091420344FAD107EE103AB8EEC77A9FEDB2
:10279000956AE56A9FED938ADFED938A27EE866A54
:1027A000D5F58035C7EE066A48BF05F2FF156D12F4
:1027B0000027FDEEE66AC4ED076A07EE107AF8EE30
:1027C000C75A67EE886A65EEA75A6FF03F0265EE5A
:1027D000885A002165EEA85AB7EE005A13E036EE8B
:1027E000C56AB4EEC76AF1EE10FA03D537EE667A21
:1027F000FDEEC77A17EE903A04EB83030132DB6AF1
:10280000402A194433D007EE902AF8EEE77A77EEA3
:10281000A57AFDEEE77A17EE903A002BB8EEE77A4C
:10282000DDDA37EE267AFDEEC77AE3E7D2ED027AFB
:102830009FED6E7A77EE877A02F53253084602F5FD
:102840003051C2ED027A2C31C3ED027A01F092F8D8
:1028500094ED057AD4ED0A7AB4EEE77AF1EE10FA47
:1028600000F3D08004B0BDEC028BBDE8F0810029FC
:10287000B8BF7F317F2D4FEAE1122946C8BFA5F1CD
:102880008001E06901F68A2304EB8303121A5A607F
:102890005748013705F0EEFF802F2BD0D6ED0A7A8E
:1028A00001358AE75348039306F04CF8039BA38451
:1028B00000236361012323744FF07E53E560A3621C
:1028C00004F532530022A2609A60B06CC7F8A400ED
:1028D00004F53051C7F8A8202C31384601F04AF8E9
:1028E000D8F80C206369A261A36204B0BDEC028B2E
:1028F000BDE8F08100220123227484F8223004B064
:10290000BDEC028BBDE8F0813B48152104B0BDEC65
:10291000028BBDE8F04105F0ADBFD2ED027A9FED2C
:10292000337A77EEC77A0846C2ED027AB36CC1F803
:10293000A4300023C1F8A83002F5325302F530511B
:10294000C3ED027A2C3101F015F894ED057AD4ED3F
:102950000A7AB4EEE77AF1EE10FA83DDA78C002F45
:1029600080D096ED0A7AD4ED027ADFED256AD8F8A8
:102970007430A06827EE087A67EEA66AC6EE877AFA
:10298000FDEEE77A17EE902A9B1ADD1305F48035E9
:102990001D4404EB8703CDED037AD96A0D4405EBA2
:1029A000D5756D10DD62FDF77FFD2B46CDE9000189
:1029B000039A1248394605F05DFFD4ED0A7A9FED7F
:1029C0000A7AA38C77EE877A013BA384C4ED0A7A56
:1029D00048E700BF903B0020D1CB0B38DB0FC9404C
:1029E000DB0F4941000000430000003C5F975B396A
:1029F00094BD00085CBD00082CBD000884BD000823
:102A00000000804794ED026A96ED0A7A5FED046A51
:102A1000D8F87430A78C66EE266A27EE087A16EE90
:102A2000100AC6EE877AFDEEE77A17EE902A9B1A17
:102A3000DD1305F480351D4404EB8703CDED037AE7
:102A4000DD62FDF731FD2B46CDE90001039A124806
:102A5000394605F00FFF9FED116A94ED0A7ADFED1C
:102A6000106AA38C37EE067AFFEE007A84ED0A7ABC
:102A700096ED0A6A07EE103AE6EE267AB8EEC77AC5
:102A8000B4EE677AF1EE10FA3FF4ECAE0133A384B2
:102A9000E8E69FED047A7AE684BD00080000003C79
:102AA0000000004300000000024B1878003818BFF7
:102AB00001207047E43C0020044B1B7823B1044AFA
:102AC000136843F001031360704700BFE43C00202B
:102AD000E03C0020014B1868704700BFE03C00203C
:102AE000014B1868704700BFDC3C0020014B1868A0
:102AF000704700BFD83C0020014B1868704700BFEA
:102B0000D43C0020014B1868704700BFD03C002027
:102B100070B504464FF6FF7384B037482180638058
:102B20004FF48051164603F079FC00230393039B76
:102B30003F2B06D800BF039B01330393039B3F2B1E
:102B4000F8D940F6010501E0013D40D02B480221B3
:102B500003F068FE0028F7D02188284803F05CFEC7
:102B600040F6010501E0013D40D02448012103F079
:102B700059FE0028F7D0214803F050FE40F6010529
:102B8000608001E0013D34D01C48802103F04AFE02
:102B90000128F7D000230293029B3F2B4FF0000542
:102BA0001CD915484FF4805103F036FC00230193E3
:102BB000019B3F2B06D800BF019B01330193019B72
:102BC0003F2BF8D963883380284604B070BD4FF09E
:102BD000FF3500230293029B3F2BE2D800BF029BEC
:102BE00001330293029B3F2BF8D9DAE76FF001051E
:102BF000EFE76FF00205ECE7000C01400038004001
:102C00002DE9F043002385B02F4CDFF8D4800393E7
:102C1000CDE90133064601AD04F10C074FF001097F
:102C200034F8021B2A463046FFF772FF38B1D8F855
:102C3000003043F004034FF00009C8F80030BC42F4
:102C400005F10205ECD12149DDF80630C6F8063061
:102C50000B601F49DDF80A40BDF80620BDF80800EA
:102C60000C601C4CBDF80E1021600243BDF80A3008
:102C7000BDF80C401DD1C3F30A03A02B19D1164B8C
:102C80009FED167AD3ED037AB4EEE77AF1EE10FAFF
:102C9000ACBF4FF430734FF420739C4209D140F223
:102CA0001543994208BF09F1FF3002D105B0BDE8D4
:102CB000F0830B4A13684FF0FF3043F008031360B2
:102CC00005B0BDE8F08300BF74C50008D83C002003
:102CD000D43C0020D03C0020903B0020000020424B
:102CE000E03C002000B585B004AB03E907000B48C9
:102CF000002103F09DFE4FF40061094803F08CFBB6
:102D000002F008FC074A0849084B08604FF0010C24
:102D100082F800C000221A7005B000BD002C0140EE
:102D200000080140ED3C0020E83C0020EC3C002085
:102D300030B53E4B89B001AC84E807001A780AB977
:102D400009B030BD3A4A156802F0E4FB0A22014698
:102D5000284602F047FB0028F2D0344B35480022C9
:102D60004FF480511A7003F061FB002858D094E8AA
:102D7000070005AB03C341F2A1011A8005A80DF1BC
:102D800012020093FFF7C4FE2B4A9FED2C7AD2ED7E
:102D9000037A009B94E80700B4EEE77AF1EE10FAAC
:102DA0000DF1140CACE80300A8BF4FF44B511A808E
:102DB000B8BF4FF44A510DF1120205A8FFF7A8FE63
:102DC00094E80700009B0DF1140CACE803001A8096
:102DD00042F615410DF1120205A8FFF799FE2046B3
:102DE000FFF70EFF0446D8B912484FF4805103F0A4
:102DF0001DFBA8B1124B1348012221461A7003F0A3
:102E0000AFFF012211460F4803F0AAFF0D4801222F
:102E1000022103F0A5FF0B48012103F009FE8FE713
:102E20002020FEF785F909B030BD00BFED3C002041
:102E3000E83C002000080140903B002000002042B8
:102E4000EC3C0020002C0140024B1878003818BFE1
:102E500001207047EC3C002000B585B004AB03E9CD
:102E600007000848002103F0E3FD07484FF4006124
:102E700003F0D4FA0549064A00230B70137005B01D
:102E800000BD00BF002C014000080140ED3C0020C7
:102E9000EC3C0020F0B589B001AC84E8070094E870
:102EA000070005AE03C64FF40041328005A80DF1BE
:102EB00012021F46FFF72CFE94E8070005AB03C380
:102EC00032804FF408410DF1120205A8BDF81250EE
:102ED000FFF71EFEBDF8124054EA05031FD12B0771
:102EE00043D46F0746D4AE0749D4ED074CD46005F0
:102EF0004FD4A10552D4E20555D4230658D4670611
:102F00005BD4A6065ED4E50661D4200764D46107CD
:102F100067D4A2076AD4E3076DD409B0F0BD3B487B
:102F2000394605F0A7FC6A056BD4AB0502D53848D5
:102F300005F0A0FCEF0502D5364805F09BFC2E06F7
:102F400002D5354805F096FC680602D5334805F0F1
:102F500091FCA90602D5324805F08CFCEA06BED5E4
:102F6000304805F087FC2B07BBD52F4805F082FCC5
:102F70006F07B8D52D4805F07DFCAE07B5D52C48B8
:102F800005F078FCED07B2D52A4805F073FC600522
:102F9000AFD5294805F06EFCA105ACD5274805F052
:102FA00069FCE205A9D5264805F064FC2306A6D5F0
:102FB000244805F05FFC6706A3D5234805F05AFCBA
:102FC000A606A0D5214805F055FCE5069DD520486C
:102FD00005F050FC20079AD51E4805F04BFC610710
:102FE00097D51D4805F046FCA20794D51B4805F06F
:102FF00041FCE30791D51A4809B0BDE8F04005F05F
:1030000039BC184805F036FC8FE700BFA0BD0008AA
:10301000C0BD0008CCBD0008D4BD0008DCBD000860
:10302000E4BD0008F0BD0008FCBD000808BE0008B3
:1030300014BE000820BE00082CBE000834BE0008E4
:103040003CBE000844BE00084CBE000854BE000848
:1030500060BE00086CBE000878BE000884BE000890
:1030600090BE0008B4BD00082DE9F04389B001AC62
:10307000694B6A4F6A4E84E807006A4A00253D6042
:103080001D601560684A1560684A1560FEF722F8F1
:10309000674A9FED687AD2ED037A6748B4EEE77A23
:1030A000F1EE10FA4FF001024FF40061A8BF4FF0AB
:1030B00003083270B8BF4FF0020803F0ADF90A20E0
:1030C00002F010FA04AA4FF400412046ADF8105067
:1030D000ADF81250ADF81450FFF71AFD4FF4084147
:1030E00005460DF112022046FFF712FD4FF408418C
:1030F000814605AA2046FFF70BFD45EA0905054371
:10310000454B03D03A6842F004023A60BDF814100F
:10311000BDF8122042EA01421A601B681BB13B68ED
:1031200043F002033B6094E8070005AD03C541F29C
:10313000A1012A8005A80DF11202FFF7E9FC3F4822
:1031400000F0F8FA94E80700B8F1030F05AB03C3E9
:1031500014BF4FF44A514FF44B512A8005A80DF18A
:103160001202FFF7D5FC94E8070005AB03C32A80E1
:1031700042F615410DF1120205A8FFF7C9FC94E8CB
:10318000070005AB03C341F2A1012A8005A80DF198
:103190001202FFF7BDFC012002F0A4F926484FF40B
:1031A000805103F043F918B93B6843F010033B60CA
:1031B0002046FFF725FD0446C8B91F484FF480514B
:1031C00003F034F998B11E48214603F031FC1A4847
:1031D0004FF4006103F022F91A4A1B4B14701C7063
:1031E0003470FDF777FF204609B0BDE8F083002575
:1031F00020203570FDF79CFF1148294603F018FC8C
:103200000D484FF4006103F009F90E4A0E4B15709A
:103210004FF0FF341D70E6E7DC3C0020E03C00206E
:10322000E43C0020D83C0020D43C0020D03C0020CE
:10323000903B00200000204200080140783400202C
:10324000002C0140ED3C0020EC3C002008B50C2196
:10325000002003F039F94FF480500222002102F0DF
:10326000B1FEBDE808404FF4805002F003BF00BF3C
:10327000044A072928BF07210023C0E90121037060
:10328000704700BF00C0030810B5044602F0F8FE06
:1032900040F2073003F05CF8606802F025FF01237C
:1032A000237010BD84B00DF1100C0CE907000298DA
:1032B000049900EB830004B002F0B6BF84B00DF1B6
:1032C000100C0CE907000298049900EB830004B08D
:1032D00002F0AABF84B00DF1100C0CE907000298AF
:1032E00010EE101A00EB830004B002F09DBF00BF87
:1032F00000B583B0019002F0E3FE01980023037053
:1033000003B000BD84B00DF1100C0CE9070051F8BA
:10331000230004B0704700BF84B00DF1100C0CE91D
:10332000070051F8230004B0704700BF84B00DF1CE
:10333000100C0CE9070001EB830292ED000A04B0C7
:10334000704700BF08B590ED167AD0ED186A1C4B97
:10335000F7EE007A2DED048B37EEC77A9FED199AC0
:10336000D0ED178A1968184827EE097A77EEE88AAF
:1033700037EEE68AFCEEC77A17EE902AC9B903F059
:1033800091FC1148012168EE898AFCEEE87A17EE7B
:10339000902A03F087FC68EE097ABDEC048BFCEE02
:1033A000E77ABDE80840084817EE902A022103F0AA
:1033B00079BC012103F076FC03480021E3E700BF5C
:1033C000903700200000FA44002C014038B5484BEB
:1033D0001C680546002C7ED12146464802F04AFB77
:1033E0000346AB604448214602F044FB0346414893
:1033F000EB60022102F030FB4048022102F02CFB7E
:1034000040F6010401E0013C50D03A48042102F0AA
:1034100045FB0028F7D040F6010401E0013C45D00F
:103420003648042102F03AFB0028F7D03148042145
:1034300002F03AFB3148042102F036FB00212F480C
:1034400002F018FBAA68D5F89810EB68D5ED1C6A55
:10345000DFED2B5A2861521A07EE102AD5F89C206E
:1034600007EE900A9B1AB8EEE76A07EE903AB8EEBC
:10347000C77AF8EEE77A27EE267A67EEA67AD5F8CD
:10348000F83285ED067AF1EE476A26EE256A76EE89
:10349000E76A0122013385F8F52285ED086AC5ED5A
:1034A000077AC5ED056AC5F8F83238BD1148042120
:1034B00002F0FAFA1148042102F0F6FAD5F8FC32CB
:1034C0000022013385F8F522C5F8FC328020BDE8E2
:1034D0003840FDF72DBE0021074802F0CBFA034625
:1034E000AB600448002102F0C5FA03467FE700BF45
:1034F000903700200024014000280140003C01409A
:103500001833533C00B52DED028B87B0CDE9021086
:10351000CDED050A8DED041A0192F0EE408A01F01E
:10352000D5F9B0EE408AB0EE680A01F0A9F9F6EEDE
:10353000007A67EEC06ADFED175A9FED176A9DEDBE
:10354000041ADDED050A03980299019A67EEC87A1C
:10355000B0EE667AA8EE257AE8EE656AF0EE675A74
:10356000E0EE065AE0EE467A21EE477A21EE400A76
:1035700021EE661AA8EE200AA5EEA07AA7EEA01A00
:1035800080ED000A81ED007A82ED001A07B0BDECF3
:10359000028B00BDD7B35DBFD7B35D3F00B52DED46
:1035A000028B87B0CDE90110CDED050A8DED041A2F
:1035B000CDED031AF0EE408A01F088F9B0EE408AB2
:1035C000B0EE680A01F05CF9B6EE007A67EE486A80
:1035D00027EE407ADFED185A9FED186A9DED041A28
:1035E000DDED050ADDED031A02980199F0EE667A29
:1035F000B0EE475AA8EE065AE0EE257AA8EE467AD3
:1036000067EE817A21EE451AE0EE656AE8EE207AEF
:10361000A0EE601AE6EEA17AA7EE611A9FED086AA5
:1036200067EE867A21EE061AC0ED007A81ED001A67
:1036300007B0BDEC028B00BDD7B35D3FD7B35DBF14
:10364000ABAA2A3F00B52DED0A8BB0EE609A85B08B
:10365000F0EE418AF0EE40AAB0EE611AF0EE680A90
:10366000B0EE490AB0EE618A0192CDE9021001F094
:10367000A9F8B0EE481AF0EE680AB0EE40AAB0EE33
:10368000490A01F087F83AEE00AAF6EE009AAAEE8F
:10369000699ADFED24BA9FED24CA9FED24BA29EE82
:1036A000299AF0EE4C0A29EE2B9A89EE2A0A9FED10
:1036B000209A30EE0B0A01F05DF8F0EE490A01F0B5
:1036C00061F8EAEE698A039880ED000A68EEA98A3B
:1036D000F0EE4C0A68EEAB8A88EEAA0A30EE0B0ACE
:1036E00001F048F8F0EE490A01F04CF8AAEE698AB8
:1036F000029981ED000A28EE298AF0EE4C0A28EEA4
:103700002B8A88EE2A0A30EE0B0A01F033F8F0EE2D
:10371000490A01F037F8019A82ED000A05B0BDECC4
:103720000A8B00BD3333933F00000000D7A3F03E67
:10373000D7A3703FF8B500238365C36503660446CD
:10374000FFF700FE00264FF47A7537462046FFF754
:103750003DFED4E90223013D17441E44F6D1074B38
:1037600083FB0721FA17C2EBA11283FB0631F31783
:10377000C3EBA113C4E92623F8BD00BFD34D6210EB
:103780002DE9F843344A354BDFED356ADFED355A24
:103790002DED028BC267C0F8802093ED027A324A89
:1037A000C0F8842066EEC76AF7EE007AB0EE676A6A
:1037B000A6EEA56A2D4ADFED2E6A1268C0F8C82071
:1037C00027EE267AC7EE866A80ED1D7A77EEE67AD6
:1037D00080ED1E7AC0ED227A9FED267AD3ED037A32
:1037E000F4EEC77AF1EE10FA33D8234BDFF89C9051
:1037F000DFED228A9FED228A224F03674FF0804837
:1038000000F1F4050024002607EE904AF8EEE77A6E
:10381000013467EEA87AC7EE887A17EE900AFCF7B3
:1038200043FE41EC100B07F0D7FC424651EC100B65
:103830004B46FCF791FE32463B46FCF7D7FCFDF7C2
:1038400083F9802C45F8040BDED1BDEC028BBDE87A
:10385000F8830D4BCAE700BFEC51383D903B002088
:10386000D1CB0B38DB0FC940BD74933B90370020A0
:1038700017B7D13800002042FFFFA43C000000BC75
:103880006F12033D0000F03FFFFF243D3333F33F51
:1038900010B54FF47A7204460021114803F002FA81
:1038A0000F484FF47A72012103F0FCF94FF47A7259
:1038B0000B48022103F0F6F900230022C4F8A430DB
:1038C000C4F8A830E36323646364C4F89030C4F898
:1038D0008C3063652365C4F8E830C4F8EC2010BD73
:1038E000002C014090ED397AD0ED387A90ED3A0A0B
:1038F000DFED1E0A77EEC77A90ED217A10B5A7EEBC
:10390000270A82B0044680ED3A0A00F03BFF184BCC
:10391000D3ED060AF1EE600A00F02CFF94ED3C7A3C
:1039200084ED3A0A60EE407A84ED290AE7EE077AE0
:10393000F5EE407AF1EE10FA11D4F1EEE70A94EDCB
:103940002A0ACDED010A00F01DFFDDED010AF1EEBE
:10395000600A00F00FFF84ED2A0A02B010BDB0EE3D
:10396000670A07F089FCF0EE400AE8E70000000073
:10397000903B002030B52DED028B91ED170A4B6E78
:10398000904D91ED186AD0ED071A90ED061AD0ED22
:10399000050AD1ED036A83B0436380ED0B0A95ED10
:1039A000117AC6EE077A044600F140013C30C4EDBE
:1039B0000C7A95ED117AC6EE877AC4ED0A7AFFF794
:1039C000EDFD9FED815A94ED087ADFED805AD4ED3C
:1039D000097A94ED106AD4ED0F6A94ED114AD4ED92
:1039E000124A27EE057A26EE056AA7EEA57A04F1BB
:1039F000A80104F1A400DFED767A84ED097A67EE80
:103A0000277A66EE856A9FED735AE4EEA56AA4EE06
:103A1000256A67EE857ADFED705A84ED116A67EEEC
:103A2000A57AC4ED126AC4ED387A95ED030A84EDE7
:103A30003C0A00F0DFFED4ED0F6AD4ED298A94ED44
:103A40001D7A94ED230ADFED657A94ED2A8AD4ED90
:103A5000380A78EEE68AA7EE280A94ED107A30EE5E
:103A6000270A38EE478A84ED140A00F08BFED4ED65
:103A7000380AF1EE600A00F07DFED4ED1F6A94ED85
:103A80001D7AD4ED237AD4ED380A84ED140A27EE9A
:103A9000267AE7EE287AB0EE670AC4ED237A00F0C2
:103AA00071FED4ED380AF1EE600A00F063FED4ED49
:103AB000147AD4ED380A84ED230A67EEE77AE0EE53
:103AC000A07AF5EE407AF1EE10FA6FD4F1EEE78AC3
:103AD00094ED240AD4ED1E7AD4ED206AB0EE407A3B
:103AE000A7EE887A67EEA67ADFED3C6AA7EE880A31
:103AF00077EE267A84ED240AC4ED157A00F042FEB2
:103B0000D4ED380AF1EE600A00F034FEF0EE406ABF
:103B100094ED150A94ED147AC4ED246A60EE007AEF
:103B2000F0EE680AE7EE077AB1EEE77A84ED397ACB
:103B300000F028FEF1EE680A00F01CFEF0EE407A7C
:103B400004F1540194ED380AC4ED157A04F15000E3
:103B500000F050FEDFED227A94ED0D7A94ED0B0A21
:103B600094ED151AD4ED140AA7EE270A04F16C029D
:103B700004F1680104F16400FFF7C4FC04F158008B
:103B8000D4ED1B1A94ED1A1AD4ED190A94ED380AE3
:103B900004F1600204F15C01FFF754FD204603B01C
:103BA000BDEC028BBDE83040FFF7CCBBB0EE670A3E
:103BB000CDED010A07F060FBDDED010AF0EE408A71
:103BC00086E700BF903B0020CDCCCC3D6666663FCB
:103BD0003333933FD7A3703F3ACD133F000000002B
:103BE000BAB1513890ED0A7AD0ED337AD0ED356A1A
:103BF00090ED370A144BD0ED3C0A77EEC77A90ED82
:103C0000347AA6EEA70A10B5D0ED0C7AD0ED366A5C
:103C100037EE677AD3ED0E7AA6EE870A044693ED67
:103C2000117A67EE877A80EE270A00F0ABFDD4EDBB
:103C30003C0AF1EE600A00F09DFD002384ED2A0AA3
:103C4000C4F8A43010BD00BF903B00200023C0F892
:103C5000DC30C0F8D430C0F8D830C0F8CC30C0F870
:103C6000D030C0F8A830704708B50B4801F00CFA06
:103C700070B1094801F03CFA38B1074801F09CFBEB
:103C8000054801F0DDFA013808BD034801F094FB56
:103C90004FF0FF3008BD00BF7837002010B54FF45B
:103CA000805182B00A4802F0C1FB0446FDF748FA91
:103CB000084A094B094992F8F52293F8DD328988C0
:103CC0000092221E18BF012201F07AFB02B010BD43
:103CD0000008014078340020583100204C31002089
:103CE00010B503780446052B0CD8DFE803F0090370
:103CF0000C0B09090C4B186859681A89FFF7ACF8C6
:103D00000123E37010BD084B0122C2701868596886
:103D10001A89FFF7A1F80548FFF7BAFDBDE8104082
:103D20000248FFF793BF00BF4C31002078340020D9
:103D300008B50D4804F006FE0C4804F003FE0C48DC
:103D400004F000FE0B4804F0FDFD0B4804F0FAFD02
:103D50000A4804F0F7FD0A4804F0F4FDBDE8084005
:103D6000084804F0EFBD00BFD0BB00089CBE0008AF
:103D7000A8BE0008BCBE0008D8BE0008E8BE000807
:103D800000BF00081CBF000830B56C486C4C6D4D7E
:103D900085B004F06FFD6C486C4B6D4A6D49CDE900
:103DA00000046D4C6D4804F065FD6D4804F0CAFDDB
:103DB000606CFCF779FB6B4A6B4B0095CDE9020117
:103DC0006A496B4804F056FDA06BFCF76DFB694A2D
:103DD000654B0095CDE902016749684804F04AFD4A
:103DE000674804F0AFFDA068FCF75EFB654B664AD0
:103DF0000093CDE90201654B6549664804F03AFD40
:103E0000E068FCF751FB644B644A0093CDE9020182
:103E1000634B64495F4804F02DFD206DFCF744FBC3
:103E20002B46CDE90201604A00956049594804F0EB
:103E300021FDA06DFCF738FB2B46CDE902015C4A61
:103E400000955C4953485C4D04F014FDE06DFCF7AF
:103E50002BFB5A4B5A4A0093CDE90201504B59496A
:103E60004C4804F007FD206EFCF71EFB564B574AEA
:103E70000093CDE902014A4B5549464804F0FAFC4B
:103E8000A069FCF711FB534B534A0093CDE90201A3
:103E9000434B52493F4804F0EDFC206AFCF704FB19
:103EA0004F4B504A0093CDE902012F4B4E49394800
:103EB00004F0E0FC606AFCF7F7FA4C4B4C4A0093C4
:103EC000CDE90201364B4B49324804F0D3FCA06CDB
:103ED000494CFCF7E9FACDE902014849304B484A20
:103EE00000912C48474904F0C5FC474804F02AFDDE
:103EF0006368464A46494748CDE900531A4B04F0E7
:103F0000B9FCA3680193444A174B444900954148C2
:103F100004F0B0FCE068424B424A4349CDE900302E
:103F2000114B424804F0A6FC414804F0A3FC414870
:103F300005B0BDE8304004F09DBC00BF34BF0008B0
:103F400088BF0008DCBF000898BF000850BF000809
:103F500054BF000860BF0008903B002068BF000805
:103F60009CBF0008ACBF0008A8BF0008B8BF00088D
:103F7000BCBF0008E0BF0008F8BF0008FCBF000895
:103F80001CC000086CC0000830C000082CC000082D
:103F900048C000084CC0000890C0000878C0000865
:103FA00074C000088CC0000898C00008B4C00008A5
:103FB000B8C00008D8C00008F4C10008FCC0000860
:103FC000DCC00008F8C0000828C1000804C10008CF
:103FD00024C1000848C100082CC1000844C10008E1
:103FE00070C1000850C100086CC1000890C10008F1
:103FF00074C100088CC1000890370020B4C10008CB
:1040000098C10008B0C10008BCC10008C8C10008C0
:10401000D0C10008D4C10008F8C1000804C20008DB
:1040200048C2000808C2000828C200082CC20008C4
:1040300050C200089CC2000800B5037883B0042B6E
:1040400028D8DFE803F0291D0827030003B05DF836
:1040500004EBFFF799BE0190FFF720FE002835D151
:1040600001901C48FFF714FC1B49019A088960F372
:104070000F020868496803B05DF804EBFEF732BE32
:104080000190FFF70BFE014658B1019A0021012370
:104090005170D37003B000BD03B05DF804EBFFF7BF
:1040A00047BE0E480E4BC0F8D8104FF40072DC30FB
:1040B000A3F821101974019104F065FC064B019AD4
:1040C0001889596860F30F021868D4E70148FFF7B0
:1040D000BDFDDAE7783400204C3100205831002053
:1040E000100200202DE9F041037842789A420446FC
:1040F00045D1022B1CD0052B12D0012B3DD1514AAA
:1041000092F82130002B40D092F82230002B4AD177
:104110004D494E48D1F8B430BDE8F041FEF7D2BA6F
:10412000494B4A48D3F8B410BDE8F04100F0EABE6C
:10413000474B186859681A89FEF7FAFDFEF784FEA6
:10414000D8B1444AD268002A71DD3F490D46D1F802
:10415000B8108A426DDBFFF7A1FD00285CD03C4B14
:10416000186859681A89FEF777FE00236370E370B8
:10417000D5F8B8300133C5F8B830BDE8F081FFF7A5
:10418000AFFDE3784BB92378B3E72F492F48D1F837
:10419000B430BDE8F041FEF7BFB963782370204624
:1041A000FFF74AFFEFE7D369284E2A4F96ED1A7AB8
:1041B0009FED290A7B615A4207EE902AF8EEE77AD2
:1041C000F7EE000A67EE877A1D4627EE800A06F0B2
:1041D000D7FFDFED227A60EE277A17EE900AFCF720
:1041E00063F90B46024629461D4804F043FB1D496E
:1041F0004FF4007206F1DC0004F012FC19494FF490
:10420000007207F1180004F00BFCFFF72DFDA0B9B8
:1042100000236370E370B0E70B48FFF7E3FC0A4844
:10422000FFF760FB09490848FFF7A4FBA0E7064D2C
:1042300091E72846FFF70AFD91E70B4804F082FB5F
:10424000E6E700BF1002002078340020583100203B
:104250004C3100209037002000008037DB0FC94030
:10426000C8C200083C2C0020DCC2000838B5417BE5
:10427000A1F161030446172B19D8DFE813F02800D9
:104280004700660085001800A000BF00DA00F900B2
:10429000180004011F013E01180018004901180010
:1042A0001800180068011800730118009201CF4827
:1042B00004F0E0FA251DFFF7D7FC002840F08C81C0
:1042C000FFF762FD0023A38163606B6038BD051DAD
:1042D000284602F008FF51EC100BFCF735FCF3EE1A
:1042E000040A00EE100A07F015FBDFEDC10A07F023
:1042F000E9FAC04B10EE100A83ED120AFCF7D4F86D
:1043000002460B46BC4804F0B5FAD4E7051D284622
:1043100002F0E9FE51EC100BFCF716FCDFEDB70ADA
:1043200000EE100A07F0F6FADFEDB50A07F0CAFA58
:10433000B04B10EE100A83ED020AFCF7B5F8024606
:104340000B46B04804F096FAB5E7051D284602F082
:10435000CAFE51EC100BFCF7F7FBDFEDAB0A00EEE9
:10436000100A07F0D7FADFEDA20A07F0ABFAA14B6B
:1043700010EE100A83ED090AFCF796F802460B4688
:10438000A24804F077FA96E7051D284602F0ABFE36
:1043900051EC100BFCF7D8FBDFED950A00EE100A8C
:1043A00007F090FA934B10EE100A83ED180AFCF711
:1043B0007BF802460B46964804F05CFA7BE7051D45
:1043C000284602F090FE51EC100BFCF7BDFBDFED30
:1043D000910A00EE100A07F09DFADFED850A07F05A
:1043E00071FA844B10EE100A83ED060AFCF75CF8B4
:1043F00002460B46884804F03DFA5CE7051D284656
:1044000002F071FE51EC100BFCF79EFBDFED830A0E
:1044100000EE100A07F056FA764B10EE100A83ED04
:10442000110AFCF741F802460B467D4804F022FAD7
:1044300041E7051D284602F056FE51EC100BFCF733
:1044400083FBDFED780A00EE100A07F063FADFED78
:10445000680A07F037FA674B10EE100A83ED080A76
:10446000FCF722F802460B466F4804F003FA22E7F5
:10447000051D284602F03AFE6C4B014659606C4817
:1044800004F0F8F917E7051D284602F02CFE51EC60
:10449000100BFCF759FBDFED670A00EE100A07F07E
:1044A00011FA544B10EE100A83ED0E0AFBF7FCFFD5
:1044B00002460B46604804F0DDF9FCE6051D28467F
:1044C00002F011FE51EC100BFCF73EFBDFED5B0A36
:1044D00000EE100A07F01EFADFED450A07F0F2F9C8
:1044E000444B10EE100A83ED030AFBF7DDFF024692
:1044F0000B46534804F0BEF9DDE6051D284602F0E0
:10450000F5FD4A4B014699604E4804F0B3F9D2E6F6
:10451000051D284602F0E7FD51EC100BFCF714FBDB
:10452000DFED330A00EE100A07F0CCF9314BF1EE63
:10453000407A83ED140AC3ED137A10EE100AFBF7EC
:10454000B3FF02460B46404804F094F9B3E6051D5C
:10455000284602F0CBFD354B0146D9603B4804F0BC
:1045600089F9A8E6051D284602F0BDFD51EC100BA7
:10457000FCF7EAFADFED1E0A00EE100A07F0A2F9D6
:104580001C4BF1EE407A83ED160AC3ED157A10EE5E
:10459000100AFBF789FF02460B462D4804F06AF922
:1045A00089E6051D284602F09EFD51EC100BFCF734
:1045B000CBFADFED0F0A00EE100A07F083F90D4B7E
:1045C00010EE100A83ED170AFBF76EFF02460B464A
:1045D000204804F04FF96EE61F4804F0B3F9FFF7E6
:1045E000D3FB0023A38163606B6038BD4CC400081B
:1045F00000000000903B0020C8C300080000FA44FF
:104600000000C84214C3000800002042B0C30008E4
:1046100010C400080000044268C300086F12833A07
:10462000DCC300080000164398C300089037002040
:1046300028C3000817B7D138ECC300080000704247
:1046400054C300083CC3000824C4000880C3000809
:1046500038C40008FCC30008DCC200081B2908B5E8
:10466000034643D002785AB1042A08D10D2943D019
:10467000027B002A3ED01044C17001321A7308BD7B
:1046800063391729FBD801A252F821F02D47000801
:104690007F4600084B4700087F4600087F46000819
:1046A0007F4600087F4600087F4600087F460008D6
:1046B0007F460008374700087F4600087F4600080D
:1046C0007F4600087F4600087F46000841470008F3
:1046D0007F4600087F4600087F4600087F460008A6
:1046E0007F4600087F46000801470008002242700C
:1046F000C27008BD4173C0E7BDE80840FFF7B6BD12
:1047000017489FED180A0023C0F8D43000F09EFA35
:104710001348154B826F1A61FFF7A6FA124BC8B9FE
:1047200019691248BDE8084004F0A4B8012100222C
:104730004170C27008BD022100224170C27008BDE4
:10474000042100224170C27008BD05210022417081
:10475000C27008BD064804F0F5F8034BE0E700BF5F
:1047600058310020D1CB0B3890370020A4C400086A
:1047700074C40008B4EEE00AF1EE10FAD8BFB0EE4F
:10478000600A7047F4EEC00AF1EE10FAD8BFB0EE3E
:10479000600A7047B4EEE00AF1EE10FA07DDB4EEFD
:1047A000C10AF1EE10FAD8BFB0EE410A7047F4EE3C
:1047B000C10AF1EE10FAD4BFB0EE410AB0EE600AC1
:1047C000704700BFB4EEE00AF1EE10FA07D5B4EE80
:1047D000C01AF1EE10FAD8BFB0EE410A7047B4EE3D
:1047E000E01AF1EE10FAD4BFB0EE410AB0EE600A62
:1047F000704700BFD1ED007A90ED007A67EEA77A9E
:10480000E7EE077AF1EEE76AF4EEC06AF1EE10FA2D
:104810000DDD27EE007AC7EE267AC0ED007AD1EDE5
:10482000007A20EE270AC0EE267AC1ED007A7047A2
:1048300001238340013B07EE903A30EE600AF8EE28
:10484000E77A31EE601A67EE807A87EE817AFDEEC4
:10485000C77A17EE900A704707EE900A012370EEB0
:10486000C00AF8EEE77A8B40013B27EEA07A07EE0C
:10487000903AF8EEE77AC7EE276A36EE800A70477C
:1048800000B5DFED0F0A83B0CDED010A06F078FC2C
:10489000B5EEC00AF1EE10FA03D5DDED010A30EEF7
:1048A000200ADFED087A084B20EE270ABDEEC00A89
:1048B00010EE102A03EB820393ED000A03B000BD53
:1048C000DB0FC94083F9A24280C5000800B5DFEDC7
:1048D000117ADFED110A83B037EEC00ACDED010A7F
:1048E00006F04EFCB5EEC00AF1EE10FA03D5DDED90
:1048F000010A30EE200ADFED097A094B20EE270A83
:10490000BDEEC00A10EE102A03EB820393ED000AFD
:1049100003B000BDDB0FC93FDB0FC94083F9A242E2
:1049200080C5000870B5054684B035480E464FF482
:10493000004101F073FD00230393039B3F2B06D836
:1049400000BF039B01330393039B3F2BF8D940F631
:10495000010401E0013C3ED02A48022101F062FF3F
:104960000028F7D02748294601F056FF40F60104F9
:1049700001E0013C3ED02348012101F053FF002813
:10498000F7D0204801F04AFF40F60104308001E0F2
:10499000013C32D01B48802101F044FF0128F7D0B0
:1049A00000230293029B3F2B4FF000041AD91448B6
:1049B0004FF4004101F030FD00230193019B3F2B98
:1049C00006D800BF019B01330193019B3F2BF8D90F
:1049D000204604B070BD4FF0FF3400230293029BC9
:1049E0003F2BE4D800BF029B01330293029B3F2B75
:1049F000F8D9DCE76FF00104EFE76FF00204ECE7B1
:104A000000080140003C0040F0B5064683B008466F
:104A10001746FDF7DDF9044643F6FF70FDF7D8F9B8
:104A200001A905462046FFF77DFF48BB0DF10601B1
:104A30002846FFF777FF18BBBDF806402046FDF774
:104A4000D7F9431CA6F8E0420BD0023012D0C4F3D1
:104A50000D043C8001A92846FFF764FF80B903B02C
:104A6000F0BDD6F800330133C6F800336FF0010013
:104A700003B0F0BDD6F804330133C6F80433F5E7CC
:104A8000D6F8FC3201334FF48070C6F8FC32FCF7E4
:104A90004FFB4FF0FF30E2E710B582B00DF102029C
:104AA00043F6FC710446FFF7AFFFF0B901AA43F6E5
:104AB000FD712046FFF7A8FFB8B90DF106020121EC
:104AC0002046FFF7A1FF80B9BDF80630BDF80210FF
:104AD000BDF80420A4F8EA32A4F8E612A4F8E8220B
:104AE000012384F8DE3202B010BD00234FF0FF3006
:104AF000F7E700BF2DE9F04F04464FF000080E46DF
:104B000087B043F6FF70FDF763F94645A4F8DD82F0
:104B1000A4F8EC8240F3848001230746CDF8088096
:104B200003939A46C1460DF116013846FFF7FAFE87
:104B300090BB012E44D04FF0010B00250DF1160162
:104B40003846FFF7EFFE48BBBDF81680019040469F
:104B5000FDF74EF9431C019AA4F8E082C8F30D0C4E
:104B600005F101053AD0023054D00BF1010B5E453E
:104B7000A4F8E2C284F8DDA2A4F8EC22DED11F2D55
:104B80001ED92046FFF788FFB0FA80F0400984F86C
:104B9000DE0207B0BDE8F08F4FF0000BD4F8FC1236
:104BA000B4F8EC2284F8DD920BF1010B01310132F3
:104BB00001235E45C4F8FC12A4F8EC220293BCD198
:104BC000039D032D1AD0142000F08CFC6B1C039362
:104BD0000023A4F8DD32A4F8EC32A4E7D4F80023D3
:104BE0000132C4F800230BF1010B5E454FF00005C4
:104BF00084F8DD92A2D1039D032DE4D1029A002313
:104C000084F8DD329A4214BF4FF480704020FCF7E4
:104C10008FFAB6E7D4F804230132C4F80423E2E79C
:104C20000125032D4FF014000CD0013500F05AFC83
:104C30004FF00003032DA4F8DD32A4F8EC824FF00E
:104C40001400F2D100230293D8E700BF70B52DED18
:104C5000028B044684B043F6FF70B0EE408AFDF745
:104C6000B7F8D4F8F03201330DF10E01C4F8F03288
:104C7000FFF758FE002840F0C380BDF80E300193C6
:104C800005461846FDF7B4F8019BA4F8E032421C33
:104C900000F00881023000F0DD80D4F8F422C3F384
:104CA0000D06002A40F0ED80002366F30F03D4EDDB
:104CB000016A012166F31F43B5000A44C4F8E232D9
:104CC000002384F8DD12C4F8F422A4F8EC32C4ED19
:104CD000026A4C2204F10C01656704F11000CDED6D
:104CE000016A03F037FE6B125A1C02F07F0204EBDC
:104CF000830304EB8202D3F8DC30D2F8DC209FED92
:104D00007B6ADDED016AC5F30801D21A01FB02F2EC
:104D100003EB62232B447649A3670A699A1A07EECC
:104D2000102ABAEEC87AFDEEC77AF8EEE77A37EEC7
:104D3000677A27EE067AB5EEC07AF1EE10FA01D561
:104D400037EE067A4A6994ED1A6ADFED6A5A9FEDEA
:104D5000675A84ED017A9B1A07EE903AF8EEE77AEB
:104D600067EE867A67EEA57AFDEEE75AF8EEE55A29
:104D700077EEE57A67EE857AF5EEC07AF1EE10FA15
:104D800001D577EE857A77EE666ADFED5B5AC4ED82
:104D9000177AF4EEE56AF1EE10FA48DCDFED577AA7
:104DA000D4F8801094F8DC22F4EEE76AF1EE10FA01
:104DB0004CBF012300230B44C4F88030002A41D0AB
:104DC00007EE903ADFED496AF8EEE77A67EEA67AE9
:104DD00037EE277AD4ED166A84ED037AF3EE037A80
:104DE00077EE666A68EE277A86EEA77A26EE076A7D
:104DF00084ED187A84ED196A04B0BDEC028B70BDA5
:104E0000D4E9BE21B4F8EC3201310132C4E9BE214B
:104E10000020013384F8DD02A4F8EC324FF48070F6
:104E200004B0BDEC028BBDE87040FCF781B9D4F84A
:104E3000801094F8DC224FF0FF330B44C4F880302C
:104E4000002ABDD10123DFED2E7AC4F8802084F83A
:104E5000DC32BDE7D4F804330133C4F80433B4F8CA
:104E6000EC32D4F8F82201339BB201320021022B3C
:104E7000C4F8F822A4F8EC3284F8DD12BCD9402042
:104E8000CEE7B4F8E4123046FCF7C0FF00F500703E
:104E9000B0F5806F0CD8B4F8E432B3421DD0D4F82A
:104EA000F42201E7D4F800330133C4F80033D6E725
:104EB000B4F8EC32D4F80813D4F8F82284F8DD52B0
:104EC00001339BB201310132022BC4F80813C4F83C
:104ED000F822A4F8EC328FD9D1E7D4F80C33D4F807
:104EE000F4220133C4F80C33DEE600BFDB0FC94007
:104EF0009037002000008037DB0F4940DB0F49C0AE
:104F00000000000070B5224D2B6803F51C531033D0
:104F10008B4200D970BD04460E46416F1D4803F018
:104F2000A9FCA16F1C4803F0A5FC6068FBF7BCFA64
:104F300002460B46194803F09DFCE068FBF7B4FA03
:104F400002460B46164803F095FCE06DFBF7ACFA01
:104F500002460B46134803F08DFCD4F8801012482B
:104F600003F088FC94F8DD12104803F083FCD4F8B9
:104F7000FC120F4803F07EFCD4F800130D4803F038
:104F800079FC0D48D4F8041303F074FC2E6070BD56
:104F9000F03C0020CCC40008D8C40008F0C40008CD
:104FA00008C500081CC5000830C5000840C5000839
:104FB0004CC5000858C5000868C5000830B585B064
:104FC00001AB83E807000E4D002401AB93E8070016
:104FD0002346FEF797F90134B4F5807F45F8040FB6
:104FE000F3D1084D01AB93E807002346FEF79EF985
:104FF0000134B4F5A07FA5EC010AF3D105B030BDB2
:105000008C370020903B002070B586B003AB83E85E
:10501000070003AA07CA4FF4A073FEF77DF903AA9D
:10502000064640F2411307CAFEF776F903AA054681
:105030004FF4A17307CAFEF76FF90DF10C0C04468B
:1050400040F243139CE80700FEF766F9054A019217
:10505000054A00920346224629463046FCF75AFE8E
:1050600006B070BD903B00209037002000B583B0A3
:105070000190FEF7FDF8019841680022FF23C0E986
:105080000312838203B000BD30B517498BB00446CC
:105090001648FCF70DFC0546E8B1237D012B1ED90F
:1050A00000210B46E268637502EB010E94E80700ED
:1050B00004AB83E807000DF1040CCDF814E08CE894
:1050C000070093E8070007AB83E8070084E80700C0
:1050D0002046FEF7D9F82846A5750BB030BD013340
:1050E00003F00103D902DDE7903B00209037002058
:1050F000F0B5837D83B005462BB9002400232046FC
:10510000AB7503B0F0BD48494848FCF7D1FB002817
:10511000F3D045494548464EFCF788FB0024074636
:1051200056F8043F95E80700009323460134FEF744
:10513000B9F8B4F5807FF3D13B4EB6EC010A2346B3
:1051400095E807000134FEF7C5F8B4F5A07FF4D167
:105150000223009395E8070040F24113FEF7AEF8F2
:10516000009495E807004FF4A173FEF7A7F80097A5
:1051700095E8070040F24313FEF7A0F82A690132D0
:10518000009295E807004FF4A273FEF797F8294BB9
:10519000009395E807002346FEF790F82349264838
:1051A0004FF4806203F03CFC1F4924484FF48072A6
:1051B00003F036FC95E80700FFF700FF95E80700CD
:1051C000FFF722FF044660B91B4918484FF480627C
:1051D00003F026FC194914484FF4807203F020FCB8
:1051E0008BE795E807004FF4A273FEF795F82B695B
:1051F000114907464FF480620C485E1C03F010FC16
:105200000E4909484FF4807203F00AFCB7427FF45C
:1052100074AF2B696A7D2A7501332B612046002308
:10522000AB7503B0F0BD00BF903B0020903700206D
:105230008C3700204154484EF43D0020F43C0020BF
:105240002DE9F04F93B006460DF10C0800274FF002
:10525000FF0A0CAD09AC0DF1100996E807000DF13D
:105260003C0C8CE80700F36803EBC723109385E838
:1052700007009CE8070084E80700FFF79FFE94E81A
:105280000700FFF7C1FE4FF4A27388F800008346C1
:1052900094E80700FEF740F849F827000346002F7E
:1052A00041D0BBF1000F02D0BAF1FF0F54D1059BE2
:1052B0009DF80D2004999DF80C00FCF753FD002883
:1052C00059DB5FFA80F8B8F1FF0F54D0B8F1000F46
:1052D00056D1354935484FF4806203F0A1FB34497B
:1052E00034484FF4807203F09BFBF26886F8148018
:1052F00002EBC82796E8070085E807000D9784E8C9
:10530000070095E807000FAC84E807000DEB880361
:1053100094E807001B693361012386E807001846FB
:1053200013B0BDE8F08FBBF1000F10D01F491E482D
:1053300001934FF4806203F073FB1E491C484FF445
:10534000807203F06DFBBAF1FF0F04D1BA4608F189
:105350000108012781E7019B18460DEB8A031969B3
:10536000FCF7FAFC08B15FFA87FA002F9FD108F129
:105370000108012771E70023184613B0BDE8F08F3C
:10538000F26802EBC82396E807000DF13C0C8CE8AC
:105390000700109385E807009CE8070006AF87E840
:1053A0000700FFF70BFEA0E7F43D00209037002038
:1053B000F43C0020903B002000238375FDF798BF4C
:1053C0009DF800C030B949B932B14BB1844508BF2E
:1053D0000520704701207047032070470220704766
:1053E00004207047081A904234BF00200120704703
:1053F0000120704708B503F0E1FA162303604FF06F
:10540000FF3008BD08B503F0D9FA16230360FEE7A4
:1054100070B5161E07DD0C468D19AFF3008004F839
:10542000010BA542F9D1304670BD00BF70B5161E04
:1054300007DD0C468D1914F8010BFDF74DF8A54258
:10544000F9D1304670BD00BF4FF0FF30704700BF4C
:105450004FF400534B600020704700BF012070479D
:10546000002070470C4A08B5136833B118446946E8
:10547000884208D81060184608BD084B13601844CD
:1054800069468842F6D903F099FA0C2303604FF07D
:10549000FF33184608BD00BFF441002050430020F0
:1054A0000D4B0E4A1B68A2FB03239B09013BB3F182
:1054B000807F00D3FEE74FF0E02209495361F020DE
:1054C00081F823004FF0000C07201023C2F818C009
:1054D000106181F82330704700000020D34D621026
:1054E00000ED00E0024A10601368002BFCD1704709
:1054F000FC4100200549064A0B6801330B60136824
:1055000013B11368013B1360704700BFF8410020DE
:10551000FC410020014B1868704700BFF841002093
:10552000704700BF08B50220FBF702FEFEE700BF90
:1055300008B50420FBF7FCFDFEE700BF08B5082016
:10554000FBF7F6FDFEE700BF08B51020FBF7F0FD06
:10555000FEE700BF704700BF704700BF704700BF45
:10556000FFF7C8BF70B53D4C3D4884B022460021CE
:1055700000F044FC206840F20173984205D1A36812
:1055800023F07F43B3F5002F58D0364D627A217A4D
:105590006B680093B2FA82F2B1FA81F1A37A5209F0
:1055A0004909FCF7EFFB08B904B070BD2E4A2F493A
:1055B0002F4B92ED0E7A91ED111AD2ED117AD3EDB7
:1055C000180A93ED030A29792A4821EE071AC0EE3A
:1055D000A70A80EE270A21EE271AFCF719F82549B9
:1055E0001F4800F0B7FB244803A9FCF7DDFB054684
:1055F00088B19DF80C30FD2B1BD0FE2B06D0FC2B68
:10560000D2D11E486D21FFF729F8CDE71B487A213A
:10561000FFF724F8C8E7154E236906F1CC02CDE95F
:10562000003294E80F00FCF735F8C6F8B85004B023
:1056300070BD12481B21FFF711F8B5E703A904F16B
:105640000B00FCF7F7FB18B99DF80C30032B01D9C0
:1056500020689AE72046FCF731FCA5E7E801002026
:105660000064004090370020903B002078340020F8
:1056700058310020FC010020F30100206834002094
:10568000012110B5174801F0B3F917490B88013310
:1056900043F697229BB2934212D80B80134C2046BC
:1056A000FDF794FE9FED120A1248FFF7CFFA124859
:1056B000FEF718FDD4F8B4300133C4F8B43010BD8F
:1056C0000E4B1A7800200880B2FA82F200F1804076
:1056D000520900F588304FF400511A7000F0A0FE16
:1056E000DCE700BF002C014002420020783400209B
:1056F000D1CB0B3858310020683400200042002004
:1057000008B54FF4805000F0B5FC0E484FF48051BE
:1057100000F08CFE00B108BDFDF7C6F968B9094874
:105720004FF4006100F088FE0028F4D02020FBF741
:10573000FFFC054B01229A8008BDBDE80840FDF73B
:10574000BBB900BF000801404C31002008B5074933
:10575000074801F0F9FB00B908BD054801F0DCFB82
:10576000BDE80840C1B20348FEF778BF0503050055
:10577000004400406834002008B5154B98421BD007
:1057800003F5A05398420DD0A3F5C05398421DD104
:1057900040F2093000F02AFFBDE8084040F209302D
:1057A00000F032BF40F20F3000F020FFBDE80840AB
:1057B00040F20F3000F028BF40F20A3000F016FF30
:1057C000BDE8084040F20A3000F01EBF08BD00BF2F
:1057D000002801408368DB0703D4836843F001039A
:1057E00083607047826842F0080200F1080382601B
:1057F0001A681107FCD4826842F0040282601A68B9
:105800005207FCD4704700BF836843F48073836001
:10581000704700BF064BD3F8042422F47022C3F86B
:105820000424D3F804240243C3F80424704700BFBF
:105830000020014001F480738AB11BB1436843F436
:10584000807343604B0503D5436843F48063436032
:10585000890715D5836843F00203836070471BB145
:10586000436823F4807343604A0503D5436823F4F7
:10587000806343608B0703D5836823F00203836052
:10588000704700BF836819B143F4006383607047B9
:1058900023F400638360704701290ED0022900D0F1
:1058A0007047836B23F440138363013A836B1205C3
:1058B00002F440121A4382637047C36A23F47003F0
:1058C000C362013AC36A120502F470021A43C2624B
:1058D000704700BF052900B52ED8D0F834C001EBC1
:1058E00081014FF01F0E0EFA01FE2CEA0E0C02FA97
:1058F00001F141EA0C014163092A0DD8016902EB6B
:1059000042024FF0070C0CFA02FC21EA0C0103FAE8
:1059100002F20A43026100BD112AFCD80A3AC168AA
:1059200002EB42024FF0070C0CFA02FC21EA0C01D8
:1059300093400B43C36000BD0B2910D80639D0F843
:1059400030C001EB81014FF01F0E0EFA01FE2CEA70
:105950000E0C02FA01F141EA0C010163CCE70F29B8
:10596000CAD80C39D0F82CC001EB81014FF01F0EC2
:105970000EFA01FE2CEA0E0C02FA01F141EA0C01CA
:10598000C162B9E7D0F838C00331CCF3015CA1EBB8
:105990000C0101EB81014FF01F0C00B50CFA01FE68
:1059A000D0F838C002FA01F12CEA0E0C41EA0C01E1
:1059B000092A81630DD8016902EB42024FF0070CFE
:1059C0000CFA02FC21EA0C0103FA02F20A4302611A
:1059D00000BD112AFCD80A3AC16802EB42024FF01E
:1059E000070C0CFA02FC21EA0C0193400B43C36044
:1059F00000BD00BF01F001035AB11BB1836843F43D
:105A0000801383608A070FD5836843F40043836063
:105A100070471BB1836823F4801383608B0703D521
:105A2000836823F400438360704700BF01290AD0D4
:105A3000022900D07047836823F4E04383608368C1
:105A4000134383607047836823F460238360836813
:105A500013438360704700BFCA0703D5836843F4CC
:105A6000800383608B0703D5836843F4001383604E
:105A7000704700BF03290FD8DFE801F00B080502CB
:105A8000806C80B27047406C80B27047006C80B20E
:105A90007047C06B80B270470020704703680B42AC
:105AA00014BF012000207047036823EA010303604C
:105AB000704700BF08B5074B984200D008BD40F2C0
:105AC000194000F093FDBDE8084040F2194000F095
:105AD0009BBD00BF0064004029B103282CD8DFE83B
