:020000040800F2
:100000000000012039920008B1750008B57500089C
:10001000C1750008CD750008D97500080000000002
:10002000000000000000000000000000E57500086E
:10003000E975000800000000ED750008F175000882
:100040008992000889920008899200088992000824
:100050008992000889920008899200088992000814
:100060008992000889920008899200088992000804
:1000700089920008899200088992000889920008F4
:1000800089920008899200088992000889920008E4
:10009000F575000889920008899200088992000885
:1000A00089920008757700088992000889920008F3
:1000B00089920008899200088992000889920008B4
:1000C00089920008899200088992000889920008A4
:1000D00089920008899200087178000889920008C6
:1000E000FD7700088992000889920008899200082B
:1000F0008992000889920008899200088992000874
:100100008992000889920008899200088992000863
:100110008992000889920008899200088992000853
:100120008992000889920008899200088992000843
:1001300001F0FF01102A2BDB10F0070F08D010F898
:10014000013B013A8B422DD010F0070F42B3F6D19C
:10015000F0B441EA012141EA014122F007047FF0B5
:1001600000070023F0E80256083C85EA010586EA0C
:10017000010685FA47F5A3FA87F586FA47F6A5FA48
:1001800087F68EB9EED1F0BC01F0FF0102F0070254
:1001900032B110F8013B013A83EA010313B1F8D1FF
:1001A0000020704701387047002D06BF35460338E0
:1001B000073815F0010F07D1013015F4807F02BF19
:1001C000013015F4C03F0130F0BC0138704700BF6A
:1001D000034613F8012B002AFBD1181A0138704787
:1001E00081F0004102E000BF83F0004330B54FEAE8
:1001F00041044FEA430594EA050F08BF90EA020F55
:100200001FBF54EA000C55EA020C7FEA645C7FEAE7
:10021000655C00F0E2804FEA5454D4EB5555B8BF0A
:100220006D420CDD2C4480EA020281EA030382EA7B
:10023000000083EA010180EA020281EA0303362D0D
:1002400088BF30BD11F0004F4FEA01314FF4801CE0
:100250004CEA113102D0404261EB410113F0004FF2
:100260004FEA03334CEA133302D0524263EB4303A9
:1002700094EA050F00F0A780A4F10104D5F1200E47
:100280000DDB02FA0EFC22FA05F2801841F10001A2
:1002900003FA0EF2801843FA05F359410EE0A5F176
:1002A00020050EF1200E012A03FA0EFC28BF4CF0A7
:1002B000020C43FA05F3C01851EBE37101F000455D
:1002C00007D54FF0000EDCF1000C7EEB00006EEB6A
:1002D0000101B1F5801F1BD3B1F5001F0CD34908F4
:1002E0005FEA30004FEA3C0C04F101044FEA44524B
:1002F00012F5800F80F09A80BCF1004F08BF5FEAD2
:10030000500C50F1000041EB045141EA050130BDB1
:100310005FEA4C0C404141EB0101013C28BFB1F5C3
:10032000801FE9D291F0000F04BF01460020B1FA0E
:1003300081F308BF2033A3F10B03B3F120020CDAE1
:100340000C3208DD02F1140CC2F10C0201FA0CF0BF
:1003500021FA02F10CE002F11402D8BFC2F1200C24
:1003600001FA02F120FA0CFCDCBF41EA0C019040DA
:10037000E41AA2BF01EB0451294330BD6FEA040423
:100380001F3C1CDA0C340EDC04F11404C4F120020E
:1003900020FA04F001FA02F340EA030021FA04F320
:1003A00045EA030130BDC4F10C04C4F1200220FA77
:1003B00002F001FA04F340EA0300294630BD21FAB5
:1003C00004F0294630BD94F0000F83F4801306BF7B
:1003D00081F480110134013D4EE77FEA645C18BF6F
:1003E0007FEA655C29D094EA050F08BF90EA020F06
:1003F00005D054EA000C04BF1946104630BD91EAFE
:10040000030F1EBF0021002030BD5FEA545C05D100
:100410004000494128BF41F0004130BD14F580043F
:100420003CBF01F5801130BD01F0004545F0FE41B3
:1004300041F470014FF0000030BD7FEA645C1ABFE8
:10044000194610467FEA655C1CBF0B46024650EA1F
:10045000013406BF52EA033591EA030F41F400214B
:1004600030BD00BF90F0000F04BF0021704730B5D1
:100470004FF4806404F132044FF000054FF00001A6
:1004800050E700BF90F0000F04BF0021704730B567
:100490004FF4806404F1320410F0004548BF40423C
:1004A0004FF000013EE700BF42004FEAE2014FEA91
:1004B00031014FEA02701FBF12F07F4393F07F4F6C
:1004C00081F06051704732F07F4208BF704793F06F
:1004D0007F4F04BF41F40021704730B54FF4607482
:1004E00001F0004521F000411CE700BF50EA010285
:1004F00008BF704730B54FF000050AE050EA01022E
:1005000008BF704730B511F0004502D5404261EB9D
:1005100041014FF4806404F132045FEA915C3FF4DE
:10052000D8AE4FF003025FEADC0C18BF03325FEA7B
:10053000DC0C18BF033202EBDC02C2F1200300FA2C
:1005400003FC20FA02F001FA03FE40EA0E0021FA51
:1005500002F11444BDE600BF70B54FF0FF0C4CF43F
:10056000E06C1CEA11541DBF1CEA135594EA0C0FF1
:1005700095EA0C0F00F0DEF82C4481EA030621EA2C
:100580004C5123EA4C5350EA013518BF52EA033567
:1005900041F4801143F4801338D0A0FB02CE4FF019
:1005A0000005E1FB02E506F00042E0FB03E54FF049
:1005B0000006E1FB03569CF0000F18BF4EF0010E41
:1005C000A4F1FF04B6F5007F64F5407404D25FEA3D
:1005D0004E0E6D4146EB060642EAC62141EA5551F0
:1005E0004FEAC52040EA5E504FEACE2EB4F1FD0C32
:1005F00088BFBCF5E06F1ED8BEF1004F08BF5FEAB0
:10060000500E50F1000041EB045170BD06F0004661
:1006100046EA010140EA020081EA0301B4EB5C040E
:10062000C2BFD4EB0C0541EA045170BD41F4801106
:100630004FF0000E013C00F3AB8014F1360FDEBF2B
:10064000002001F0004170BDC4F10004203C35DA07
:100650000C341BDC04F11404C4F1200500FA05F38A
:1006600020FA04F001FA05F240EA020001F000422B
:1006700021F0004110EBD37021FA04F642EB0601A1
:100680005EEA430E08BF20EAD37070BDC4F10C04CB
:10069000C4F1200500FA04F320FA05F001FA04F28F
:1006A00040EA020001F0004110EBD37041F100017B
:1006B0005EEA430E08BF20EAD37070BDC4F1200586
:1006C00000FA05F24EEA020E20FA04F301FA05F2EE
:1006D00043EA020321FA04F001F0004121FA04F296
:1006E00020EA020000EBD3705EEA430E08BF20EA66
:1006F000D37070BD94F0000F0FD101F000464000A0
:1007000041EB010111F4801F08BF013CF7D041EA21
:10071000060195F0000F18BF704703F00046520025
:1007200043EB030313F4801F08BF013DF7D043EAF6
:100730000603704794EA0C0F0CEA135518BF95EAAC
:100740000C0F0CD050EA410618BF52EA4306D1D133
:1007500081EA030101F000414FF0000070BD50EA52
:10076000410606BF1046194652EA430619D094EADC
:100770000C0F02D150EA013613D195EA0C0F05D1C6
:1007800052EA03361CBF104619460AD181EA03011A
:1007900001F0004141F0FE4141F470014FF00000D2
:1007A00070BD41F0FE4141F4780170BD70B54FF06D
:1007B000FF0C4CF4E06C1CEA11541DBF1CEA1355ED
:1007C00094EA0C0F95EA0C0F00F0A7F8A4EB0504CF
:1007D00081EA030E52EA03354FEA013100F08880C6
:1007E0004FEA03334FF0805545EA131343EA12638F
:1007F0004FEA022245EA111545EA10654FEA002644
:100800000EF000419D4208BF964244F1FD0404F5FC
:10081000407402D25B084FEA3202B61A65EB030558
:100820005B084FEA32024FF480104FF4002CB6EB15
:10083000020E75EB030E22BFB61A754640EA0C0095
:100840005B084FEA3202B6EB020E75EB030E22BFD5
:10085000B61A754640EA5C005B084FEA3202B6EB16
:10086000020E75EB030E22BFB61A754640EA9C00D5
:100870005B084FEA3202B6EB020E75EB030E22BFA5
:10088000B61A754640EADC0055EA060E18D04FEA63
:10089000051545EA16754FEA06164FEAC30343EA03
:1008A00052734FEAC2025FEA1C1CC0D111F4801FD0
:1008B0000BD141EA00014FF000004FF0004CB6E7C9
:1008C00011F4801F04BF01430020B4F1FD0C88BF68
:1008D000BCF5E06F3FF6AFAEB5EB030C04BFB6EB73
:1008E000020C5FEA500C50F1000041EB045170BD66
:1008F0000EF0004E4EEA113114EB5C04C2BFD4EB93
:100900000C0541EA045170BD41F480114FF0000E16
:10091000013C90E645EA060E8DE60CEA135594EA92
:100920000C0F08BF95EA0C0F3FF43BAF94EA0C0F95
:100930000AD150EA01347FF434AF95EA0C0F7FF40A
:1009400025AF104619462CE795EA0C0F06D152EA5E
:1009500003353FF4FDAE1046194622E750EA410642
:1009600018BF52EA43067FF4C5AE50EA41047FF453
:100970000DAF52EA43057FF4EBAE12E74FF0FF3CB8
:1009800006E000BF4FF0010C02E000BF4FF0010C89
:100990004DF804CD4FEA410C7FEA6C5C4FEA430C02
:1009A00018BF7FEA6C5C1BD001B050EA410C0CBF51
:1009B00052EA430C91EA030F02BF90EA020F0020B3
:1009C000704710F1000F91EA030F58BF994208BF1A
:1009D00090422CBFD8176FEAE37040F001007047D7
:1009E0004FEA410C7FEA6C5C02D150EA013C07D12E
:1009F0004FEA430C7FEA6C5CD6D152EA033CD3D079
:100A00005DF8040B704700BF8446104662468C4672
:100A10001946634600E000BF01B5FFF7B7FF0028A5
:100A200048BF10F1000F01BD4DF808EDFFF7F4FFCE
:100A30000CBF012000205DF808FB00BF4DF808ED59
:100A4000FFF7EAFF34BF012000205DF808FB00BF7C
:100A50004DF808EDFFF7E0FF94BF012000205DF89E
:100A600008FB00BF4DF808EDFFF7CEFF94BF012053
:100A700000205DF808FB00BF4DF808EDFFF7C4FF4C
:100A800034BF012000205DF808FB00BF4FEA410C95
:100A90007FEA6C5C02D150EA013C0AD14FEA430C78
:100AA0007FEA6C5C02D152EA033C02D14FF00000B5
:100AB00070474FF0010070474FEA410212F50012F3
:100AC00015D211D56FF47873B3EB625212D94FEA95
:100AD000C12343F0004343EA505311F0004F23FA7F
:100AE00002F018BF404270474FF00000704750EAD4
:100AF000013005D111F0004008BF6FF00040704791
:100B00004FF00000704700BF4A0011D212F50012EA
:100B100011D20DD56FF47873B3EB62520ED44FEA55
:100B2000C12343F0004343EA505323FA02F07047D5
:100B30004FF00000704750EA013002D14FF0FF3013
:100B400070474FF0000070474FEA4102B2F1E043B6
:100B500024BFB3F5001CDCF1FE5C0DD901F0004CA4
:100B60004FEAC0024CEA5070B2F1004F40EB8300F4
:100B700008BF20F00100704711F0804F21D113F120
:100B80003872BCBF01F00040704741F480114FEA59
:100B90005252C2F11802C2F1200C10FA0CF320FAE2
:100BA00002F018BF40F001004FEAC1234FEAD323FF
:100BB00003FA0CFC40EA0C0023FA02F34FEA430369
:100BC000CCE77FEA625307D150EA01331EBF4FF0F2
:100BD000FE4040F44000704701F0004040F0FE400D
:100BE00040F40000704700BF0348044B834202D02A
:100BF000034B03B118477047CC010020CC01002003
:100C0000000000000548064B1B1AD90F01EBA30199
:100C1000491002D0034B03B118477047CC010020A4
:100C2000CC0100200000000010B5064C237843B929
:100C3000FFF7DAFF044B13B10448AFF30080012340
:100C4000237010BDCC01002000000000ECDB000888
:100C500008B5054B1BB105490548AFF30080BDE859
:100C60000840FFF7CFBF00BF00000000D001002008
:100C7000ECDB000808B5012007F0A6FD4FF4C060CA
:100C800007F078FD40F2026007F074FD40F2036067
:100C900007F070FD40F2046007F06CFD4FF4A060B7
:100CA00007F068FD40F2015007F064FD40F2197052
:100CB00007F060FD40F20E7007F05CFD40F20F702F
:100CC00007F058FD40F20B6007F054FD40F2096058
:100CD00007F050FD40F20A6007F04CFD40F20F6053
:100CE00007F048FDBDE8084040F2117007F042BD32
:100CF00070B506F0DFFBFFF7BDFF00F0FDFA02F074
:100D0000F5FE02F05FFE00F00BFD02F00DFE02F0BA
:100D100033FE00F09DFB00F089FC04F087F8C54825
:100D200009F0E4FEC44809F0E1FE0123002202219B
:100D3000C24809F073FEC248062106F0A1F9C04876
:100D400006F088FA002800F0B081BE4DBE4C6B69F9
:100D5000D4ED027A013304BF00236B612B690133A8
:100D600008BF0023F4EE677A08BF2B61F1EE10FA9A
:100D700080F19881BFEE007AF4EE477AF1EE10FA36
:100D800000F09081D4ED037AF4EE677AF1EE10FA78
:100D900080F18581BFEE007AF4EE477AF1EE10FA29
:100DA00000F07D81D4ED067AF4EE677AF1EE10FA68
:100DB00080F17281BFEE007AF4EE477AF1EE10FA1C
:100DC00000F06A816B68D4ED077A013304BF012318
:100DD0006B60AB68013304BF0023AB60EB68013389
:100DE00008BF40F6B833F4EE677A08BFEB60F1EE67
:100DF00010FA80F14E81BFEE007AF4EE477AF1EE00
:100E000010FA00F04681D4ED087AF4EE677AF1EE3C
:100E100010FA80F13B81BFEE007AF4EE477AF1EEF2
:100E200010FA00F03381D4ED097AF4EE677AF1EE2E
:100E300010FA80F1FB80BFEE007AF4EE477AF1EE13
:100E400010FA00F0F380D4ED127AF4EE677AF1EE46
:100E500010FA80F1E880BFEE007AF4EE477AF1EE06
:100E600010FA00F0E080D4ED0A7AF4EE677AF1EE41
:100E700010FA80F1D580BFEE007AF4EE477AF1EEF9
:100E800010FA00F0CD80D4ED117AF4EE677AF1EE2D
:100E900010FA80F1C180BFEE007AF4EE477AF1EEED
:100EA00010FA00F0B980D4ED0E7AF4EE677AF1EE24
:100EB00010FA80F1AD80BFEE007AF4EE477AF1EEE1
:100EC00010FA00F0A580D4ED177AF4EE677AF1EE0F
:100ED00010FA80F19A80BFEE007AF4EE477AF1EED4
:100EE00010FA00F09280D4ED187AF4EE677AF1EE01
:100EF00010FA80F18780BFEE007AF4EE477AF1EEC7
:100F000010FA7FD0D4ED147A5048514EF4EE677A3F
:100F1000D4ED137AF1EE10FA64BF4E4B2365F4EE74
:100F2000677AD4ED167AF1EE10FA64BF4A4BE364A7
:100F3000F4EE677AD4ED157AF1EE10FA64BF474B00
:100F4000A365F4EE677AF1EE10FA64BF444B636573
:100F500004F060FA00214FF44472424809F0E7FDC2
:100F60006A69A36AC6F8D82064202A69C6F8D42022
:100F7000B3663D4D06F0C0FA6421304605F0ACFD85
:100F80003A494FF4007206F1DC0009F01DFE95E8C5
:100F9000070003F041FE002840F09780344800F03D
:100FA000DFFB344800F0F6FB00221146282007F052
:100FB0008FFB01220021142007F08AFB002201216F
:100FC000192007F085FB00220221262007F080FB74
:100FD000294B062101221980DA7006F0ABFA0028AD
:100FE0006BD1002406F0C8FA4FF47A7006F084FA48
:100FF000AB880134002BF5D095E80700234603F0B9
:1010000021FDEFE71D4B23667CE71D4BE3656AE797
:101010004FF07E53A36356E74FF07E53636442E77D
:10102000184BA3622FE7154BA3641CE7164B6362B2
:1010300009E700BF20DD00082CDD00084CDD0008BA
:10104000C0390020D8390020D83D0020BC3600200F
:10105000983300200000C8420000C8C2000082424D
:10106000000082C2442E00208C330020F039002082
:10107000E8010020FC010020A83600200000A0406C
:101080000000FA430000A84100006041114B2362B8
:10109000C9E60023E361B6E60023A36192E60E4BA6
:1010A000E3607FE60D4BA3606CE60D490D4800F050
:1010B00031FC0D4809F01AFD47E64FF4007000F0CE
:1010C00047F80A4809F012FD8BE7094809F00EFDC0
:1010D00064E700BF0000FA420000204200007A44AA
:1010E000D83D0020D839002068DD000800DE000867
:1010F000B8DD000808B514484FF4006107F060FA45
:101100001248002107F066FD002211460F4807F043
:10111000F9FE0E480022012107F0F4FE0B480022E0
:10112000022107F0EFFE00221146084807F08CFE6E
:1011300006480022012107F087FEBDE80840034869
:101140000022022107F080BE00080140002C01406F
:10115000024A136803431360FFF7CCBFD83E002058
:10116000014B1868704700BFD83E0020024A136840
:1011700023EA000313607047D83E0020036813F091
:10118000010204D00A7D002A43D14FF4804213F0BB
:10119000020F06D091F815C0BCF1000F0AD142F43D
:1011A00000425B0704D58B7D002B74D142F4803262
:1011B0001046704790ED027ADFED4E7AF0EEC76A86
:1011C000F4EE676AF1EE10FAE9D8D0ED036AB0EEFA
:1011D000E66AB4EE676AF1EE10FAE0D8B5EEC07ACE
:1011E000F1EE10FADBD9B4EEE67AF1EE10FAD6DAC7
:1011F00091ED036AF0EEC65AF4EE675AF1EE10FA7A
:10120000CDD8B4EEC67AF1EE10FA69DD42F4006290
:10121000C7E7D0ED017A9FED377AF0EEE76AF4EE9A
:10122000476AF1EE10FAB0D8F5EEC07AF1EE10FA96
:10123000ABD9D1ED006AF0EEE66AF4EE476AF1EE62
:1012400010FAA2D891ED016AB0EEC66AB4EE476A10
:10125000F1EE10FA99D8D1ED025AF0EEE55AF4EE1B
:10126000475AF1EE10FA90D8B4EEE66AF1EE10FAB1
:10127000D8BFB0EE666AF4EEC65AF1EE10FAD8BFE7
:10128000F0EE465AF4EEE57AF1EE10FA4CBF012288
:10129000002292027BE7D0ED047A9FED167AF0EE01
:1012A000E76AF4EE476AF1EE10FA3FF67FAFF5EE2B
:1012B000C07AF1EE10FA7FF679AFD1ED046AB0EEA4
:1012C000E66AB4EE476AF1EE10FA3FF66FAFF4EE5D
:1012D000E67AF1EE10FA7FF56BAF42F4005267E761
:1012E000F4EEC66AF1EE10FA7FF55BAF42F480527D
:1012F00057E700BFFFFF7F7F10B55048012107F07F
:1013000073F94F48012107F06FF94E484FF4A0538D
:101310000122182107F0FCF84A484FF4006301222B
:10132000042107F0F5F84FF400430122464810214C
:1013300007F0EEF844484FF4004107F03FF9434806
:101340004FF420430122182107F0E2F83F484FF400
:1013500080430122482107F0DBF84FF4805301223B
:101360003A48102107F0D4F838484FF4805107F07C
:1013700025F935484FF400630222102107F0C8F820
:101380004FF4805303223048042107F0C1F82E485F
:101390004FF4006107F014F92B484FF4E063032287
:1013A000182107F0B5F8274803230422002107F08D
:1013B000AFF8264801230422002107F0A9F82148AC
:1013C0000C230422002107F0A3F81F48F023042275
:1013D000002107F09DF81B4830230422002107F06C
:1013E00097F84FF4005302221648102107F090F8A6
:1013F00014484FF4005107F0E3F813480423012286
:10140000182107F085F8082301220F48042107F06E
:101410007FF801214FF4EA1007F0E6F80B484FF48B
:1014200080730222482107F073F8BDE81040074896
:101430004FF400730322182107F06AB8001020004F
:10144000000230000010014000080140000C014083
:1014500070B5714888B0002106F0C6FD6F4A704B28
:1014600001920024042503934FF400724FF40063AB
:101470004FF48076029204930DEB05024FF48053F3
:1014800021466548ADF81C60CDE905538DF81E4036
:1014900006F0C8FD2146604806F002FE21465E487F
:1014A00006F010FE5F4806F0F9F95F4806F0F6F91D
:1014B0004FF4803006F040FA31465A48012206F0D7
:1014C0004BFA22465748022106F046FA3146564862
:1014D000012206F041FA22465348022106F03CFA66
:1014E0002146504806F060FA2A464E48012106F08F
:1014F00065FA01224B48022106F060FA21464A486B
:1015000006F052FA2A464848012106F057FA4648A2
:101510000122022106F052FA2346214641480622C2
:1015200006F06AFA23463F480F22012106F064FACA
:1015300023463C480722022106F05EFA234639483A
:101540000822032106F058FA234621463648052290
:1015500006F052FA234634480E22012106F04CFAD6
:1015600023462A463048022106F046FA23462E48F2
:101570000C22032106F040FA2A484FF46022012190
:1015800006F0E6FA01221146264806F0C5FA26487A
:101590004FF46022012106F0DBFA012211462248B5
:1015A00006F0BAFA234621461E480B2206F07CFAC2
:1015B000234621461C480A2206F076FA19484FF4C1
:1015C000E042022106F0C4FA16480122022106F088
:1015D000A3FA15484FF4E042022106F0B9FA0122BD
:1015E0000221114806F098FA0E4806F09FF90E48BD
:1015F00006F09CF90B4806F07FF90B4806F07CF9E1
:10160000012005F079FF074806F07EF9064806F04C
:101610007BF908B070BD00BF000002404C240140BF
:10162000E03E0020002401400028014070B5384809
:1016300088B0042106F0D8FC3649374A01914FF4AE
:101640008063012400254FF480760392049301AA5D
:101650004FF480532E4806930421ADF81C60029687
:101660008DF81E50059406F0DDFC2948042106F093
:1016700017FD0421264806F025FD284806F00EF93E
:1016800022463146254806F067F92A4623480221BA
:1016900006F062F92946214806F086F922462146DD
:1016A0001E4806F08BF922461C48022106F086F9F6
:1016B0000523294619480D2206F09EF921461748B0
:1016C0004FF4602206F044FA22462146134806F001
:1016D00023FA0523294611480D2206F0E5F90F48A3
:1016E0004FF4E042022106F033FA224602210B4871
:1016F00006F012FA094806F019F9084806F0FCF855
:10170000204605F0F9FE054806F0FEF808B070BD69
:10171000000402404C3C0140DC3E0020003C014003
:1017200000B585B001A9002006F068FA0A4806F065
:1017300053FA0A484FF48072CDE901024FF4802336
:1017400001A90548039306F08BFA0348022106F02D
:1017500047FC05B000BD00BF006400400000090365
:1017600000B5014687B0032006F048FA01A9012020
:1017700006F044FA00234FF48031012201A8CDE99C
:101780000133CDE903318DF8142006F0FBFA07B0E0
:1017900000BD00BF00B583B001460190022006F0F5
:1017A0002DFA054A019990680860002306228A7282
:1017B0004B600B8103B000BDD8390020F0B52DED92
:1017C000028B1C4D83B00446F0EE608AB0EE418A75
:1017D000D5ED130A95ED141A0191102004F0F2FFD3
:1017E00095ED161AD5ED150A0746B0EE680A0C20DD
:1017F00004F0E8FFD5ED030AD5ED0E7A60EEE70AB6
:101800000646B0EE480AB1EE601A0C2004F0DAFF8A
:1018100003120199E17203EB06137ABA3111E373F3
:101820000023A173A28120746374A37403B0BDEC80
:10183000028BF0BDD83D002084B0F0B52DED028BB9
:1018400083B00AAC84E80F009DF836309DF83570FF
:101850009DF839209DF83760BDF833002B4C9DF87A
:1018600038E09DF83A10D4ED140A94ED130A0F9D58
:101870009FED278A4FEA032C1B0943EA07170CF454
:1018800070631E43130240BA120903F470630B43E2
:1018900042EA0E1280B210210092019304F0A6FFDA
:1018A00085ED000AD4ED160A94ED150A38460C2190
:1018B00004F09CFF85ED010AD4ED170A3046B0EE26
:1018C000480A0C2104F092FF85ED020AD4ED180AB3
:1018D00000980C21B0EE480A04F088FF85ED030A59
:1018E00094ED030AD4ED0E7A019820EE670A0C21DC
:1018F000F1EE400A04F07AFF85ED040A03B0BDEC76
:10190000028BBDE8F04004B0704700BFD83D002016
:101910000000000070B54FF480620C4600210546BF
:1019200009F005F94FF480720021204609F0FFF814
:1019300001260022C5E904222A60AA60EA616E60DD
:1019400000231B4ADFED1B5A9FED1B6ADFED1B6A6C
:101950009FED1B7ADFED1B7ADFF878E0DFF878C0C7
:10196000194840F6B836EE604FF07E51A361E3614E
:101970006363E3632364A26422666366134AA36617
:10198000E3662367124BC4ED025A84ED036AC4ED8B
:10199000086A84ED137AC4ED147AC4F854E0C4F8EC
:1019A00058C0A1636164E0656262A36270BD00BF5C
:1019B0000000A04000007A44000020420000FA42EB
:1019C0000000C8C20000C8420000FA4300006041A5
:1019D0000000A841000082C20000824270B50E469D
:1019E0001E49A0F1040E00F57F754FF0FF305EF840
:1019F000044F4FF0000C24FA0CF3DBB258400822DD
:101A000040F300030B40013A83EA5000F8D10CF197
:101A1000080CBCF1200FEED17545E8D10F49B64650
:101A200006F58075DEF800404FF0000C24FA0CF348
:101A3000DBB25840082240F300030B40013A83EA2E
:101A40005000F8D10CF1080CBCF1200FEED10EF1D2
:101A5000040EAE45E6D1C04370BD00BF2083B8ED93
:101A60000368012B00F2BF824368B3F5006F80F07A
:101A7000BA828268B2F5006F80F0B58223F08003ED
:101A800040F2017C634500F0AE8222F080026245A4
:101A900000F0A982C368E14A013B934200F2A382AD
:101AA0000369DFF8A0C34FF6FF721344634500F2E9
:101AB0009A8243691A44624500F29582C369072BF2
:101AC00000F29182D1ED027A9FEDE37AF0EEE76ABF
:101AD000F4EE476AF1EE10FA00F285829FEDDB7AB0
:101AE000F4EEC77AF1EE10FAC0F27D829FEDCC7A67
:101AF000F4EEC77AF1EE10FA00F27582D1ED037AB6
:101B0000DFEDD56AB0EEE77AB4EE667AF1EE10FA60
:101B100000F269829FEDC37AF4EEC77AF1EE10FA13
:101B2000C0F261829FEDCA7AF4EEC77AF1EE10FA44
:101B300000F25982D1ED062AB0EEE27AB4EE667A6E
:101B4000F1EE10FA00F24F82F5EEC02AF1EE10FA33
:101B5000C0F249829FEDB47AF4EEC72AF1EE10FA92
:101B600000F2418291ED077AB0EEC76AB4EE666A80
:101B7000F1EE10FA00F23782B5EEC07AF1EE10FA0B
:101B8000C0F23182DFEDB16AB4EEE67AF1EE10FA1E
:101B900000F2298291ED087ADFEDAF6AB0EEC76AF4
:101BA000B4EE666AF1EE10FA00F21D82B7EE006A3A
:101BB000B4EEC67AF1EE10FAC0F21582DFEDA75A44
:101BC000B4EEE57AF1EE10FA00F20D8291ED093AE9
:101BD000B0EEC37AB4EE667AF1EE10FA00F2038248
:101BE0009FED907AB4EEC73AF1EE10FAC0F2FB81A5
:101BF0009FED8E7AB4EEC73AF1EE10FA00F2F3815F
:101C000091ED0A7AF0EEC75AF4EE665AF1EE10FA48
:101C100000F2E981B4EEC67AF1EE10FAC0F2E38187
:101C2000DFED836AB4EEE67AF1EE10FA00F2DB81C2
:101C3000D1ED0D6A9FED887AB0EEE66AB4EE476AA0
:101C4000F1EE10FA00F2CF81F5EEC06AF1EE10FA73
:101C5000C0F2C9819FED7D6AF4EEC66AF1EE10FA1A
:101C600000F2C181D1ED0E6AB0EEE66AB4EE476AC9
:101C7000F1EE10FA00F2B7819FED6E6AF4EEC66ADB
:101C8000F1EE10FAC0F2AF81B2EE046AF4EEC66A69
:101C9000F1EE10FA00F2A781D1ED0F6AB0EEE66A1C
:101CA000B4EE476AF1EE10FA00F29D81F5EEC06ADB
:101CB000F1EE10FAC0F297819FED636AF4EEC66A06
:101CC000F1EE10FA00F28F81D1ED106AB0EEE66A03
:101CD000B4EE476AF1EE10FA00F28581F5EEC06AC3
:101CE000F1EE10FAC0F27F819FED537AF4EEC76AED
:101CF000F1EE10FA00F27781D1ED116A9FED567A7C
:101D0000B0EEE66AB4EE476AF1EE10FA00F26B81CB
:101D10009FED4A6AF4EEC66AF1EE10FAC0F26381F2
:101D20009FED496AF4EEC66AF1EE10FA00F25B81AB
:101D3000D1ED126AB0EEE66AB4EE476AF1EE10FA3F
:101D400000F251819FED376AF4EEC66AF1EE10FAA7
:101D5000C0F24981B3EE046AF4EEC66AF1EE10FAFD
:101D600000F24181D1ED133AF0EEE36AF4EE476AF6
:101D7000F1EE10FA00F237819FED317AF4EEC73AB6
:101D8000F1EE10FAC0F22F81F5EEC03AF1EE10FA42
:101D900000F2298191ED144A9FED2F7AF0EEC46A8A
:101DA000F4EE476AF1EE10FA00F21D81B5EEC04A7A
:101DB000F1EE10FAC0F21781DFED236AB4EEE64AC5
:101DC000F1EE10FA00F20F81D1ED154AB0EEE46A9F
:101DD000B4EE476AF1EE10FA00F205819FED186A41
:101DE000F4EEC64AF1EE10FAC0F2FD80F5EEC04AFC
:101DF000F1EE10FA00F2F78091ED165AB0EEC56AD6
:101E0000B4EE476AF1EE10FA00F2ED80B5EEC05A7A
:101E1000F1EE10FAC0F2E78022E000BF9F860100D9
:101E20000000FA44CDCCCC3D00000442000020422A
:101E30000000804217B7D1380050C3476F12833A71
:101E400000007AC4FEFF010000007A440000C8428E
:101E50000000704200004843FFFF7F7F00001643F0
:101E6000B4EEE65AF1EE10FA00F2BD8091ED177A69
:101E70001FED076AF0EEC76AF4EE466AF1EE10FA5B
:101E800000F2B180B5EEC07AF1EE10FAC0F2AB808C
:101E90005FED136AB4EEE67AF1EE10FA00F2A38079
:101EA00091ED187AF0EEC76AF4EE466AF1EE10FA98
:101EB00000F29980B5EEC07AF1EE10FAC0F293808C
:101EC0005FED1E6AB4EEE67AF1EE10FA00F28B8056
:101ED000D1ED196AB0EEE67AB4EE467AF1EE10FA78
:101EE00000F28180F5EEC06AF1EE10FA7BDB1FEDA7
:101EF000287AF4EEC76AF1EE10FA74D891ED1A7AE6
:101F0000F0EEC75AF4EE465AF1EE10FA6BD8B5EE81
:101F1000C07AF1EE10FA66DB1FED326AB4EEC67AD3
:101F2000F1EE10FA5FD8D1ED1B5A1FED352AF0EE15
:101F3000E51AF4EE421AF1EE10FA54D8F5EEC05A52
:101F4000F1EE10FA4FDBF4EEC65AF1EE10FA4AD871
:101F500091ED1C6AF0EEC61AF4EE421AF1EE10FA98
:101F600041D8B5EEC06AF1EE10FA3CDB1FED452A10
:101F7000B4EEC26AF1EE10FA35D8F4EEE27AF1EE80
:101F800010FA30DBF4EEC37AF1EE10FA2BDBF4EE4C
:101F9000C43AF1EE10FA26D5F4EEC54AF1EE10FA85
:101FA00021D5D90709D5F5EEC06AF1EE10FA1ADD90
:101FB000F4EEE67AF1EE10FA15DB9A0709D5B5EEE4
:101FC000C07AF1EE10FA0EDDB4EEE57AF1EE10FA19
:101FD00009D55B0709D5B5EEC06AF1EE10FACCBFA2
:101FE000012000207047002070470120704700BF8B
:101FF00030B5DFF83CC083B06045069D079C02D039
:10200000002003B030BD0229FAD1B2F5A07FF7D18C
:10201000214628460193FFF7E1FC019B9842EFD14E
:102020002146284603B0BDE83040FFF719BD00BF88
:102030004154484E401A0028D4BF00200120704768
:1020400040B12AB15B1A002BD4BF00200120704799
:102050001046704782420CBF4FF0FF30012070479E
:1020600011B10AB1082B01D000207047009BC01AA3
:10207000B3F5006FB0FA80F04FEA501028BF00208F
:10208000704700BF431E00F1060C13F8012FFF2A12
:1020900009D16345F9D1C279131DDBB2022B02D8F5
:1020A0000A70012070470020704700BF38B5C0F3A8
:1020B0000D0444F4804440F4404520460BF050FDAC
:1020C000002814BF2846204638BD00BF084310B57D
:1020D000C0F30D0420460BF043FD44EAC03080B24B
:1020E00010BD00BF10B504460BF03AFD28B914F43A
:1020F000804F18BF6FF0010010BD4FF0FF3010BDD2
:10210000C0F30D00C1F30D01401AB0F5005F03DD0F
:10211000A0F5804000B2704710F5005FB8BF00F531
:10212000804000B2704700BF0378A52B29D14378C7
:102130005A2B26D18378012B23D110B583790C46F5
:10214000CBB9DFF84CE0421E811D002312F801CF0D
:1021500083EA0C0391421EF80330F7D1C2799A4208
:1021600012D1C3782370037963704379A3708379A4
:10217000E370002010BDC378072BE2D04FF0FF3092
:1021800010BD4FF0FF3070476FF0010010BD00BF71
:1021900008DC000890F800C06CF07F0C83F800C0E9
:1021A00090F801C083F801C0807898704FEA122C33
:1021B000D970100C110E1A7183F805C09871D9717D
:1021C000704700BF08B5084908484FF4806208F01E
:1021D000FBFC4FF480720649064808F0F5FC064BFC
:1021E00001221A7008BD00BFD8390020F83F002036
:1021F000D83D0020F83E0020F53E0020164B1B780D
:1022000003B9704730B5154C237883B0DBB2CDE904
:102210000031054605F088F9009B114A019903EB4E
:10222000430C4FEA8C0E013342F80E0002EB8C0295
:1022300003F01F030B4815719160237003781F2B67
:1022400004D803780133037003B030BD064A136825
:102250000133136003B030BDFE430020FD43002076
:1022600000440020FC430020F84300202DE9F04109
:10227000794C0168236840F20172013391428AB0BF
:10228000236006D1037A23B9437A13B9827A082AE4
:1022900005D0A3680133A3600AB0BDE8F08104A9AA
:1022A0000B300193FFF740FF18B1E3680133E3609F
:1022B000F2E705F039F96949019B0A68821A132A85
:1022C000844640F2328162680860013262609DF8A3
:1022D0001020062A00F06182072A00F02A81032AD2
:1022E00001F2A582DFE802F0BCAF19029DF81210DE
:1022F0000F2900F2BA80DFE811F0EA000D010B01AE
:1023000009010701050103010101B800FD00F90001
:10231000F500F100ED00B8000F019DF812208E2AA3
:1023200000F2A380DFE812F0E007D907D2077B07AD
:10233000760772076D07A100A10066073B07370704
:10234000300729072207180713070E0724031B036A
:10235000A100A100A100A100FB0045063D06360634
:102360004506FB003D06A100A100A100A100A100BF
:10237000A100A100A100A100A100A100A100A10055
:10238000A100A100A100A100A100A100A100A10045
:10239000A100A100A100A1002F062806FB005D03FB
:1023A00057035003490342033B0334032D038108C1
:1023B00079087108690861085908510849084108F5
:1023C00039083108290821081908110807082D0AB9
:1023D000120A1C09EA08CA09C009A60889088D0959
:1023E0007209CD08B008520947090308E607EF054E
:1023F000D40553053805B9059E051B05FE04D30415
:10240000BB04A5048B047104650462045A043C04F3
:102410006607340419040D04D803D003E200C9038D
:10242000C203BB03B403AD03A6039F0398036A036F
:102430006303D706CF06C706BF06FA06DF06940673
:1024400079065C0654069DF81220042A0DD8DFE8B0
:1024500002F03C393735330088450020F03E00203B
:102460009DF81220002A00F00E820123216901311B
:102470000022216105A90220CDE9013205F0BEFB51
:1024800000230693ADF81C3040F2817305930823B6
:10249000DDE9011204A88DF81E300DF11F03FFF7CE
:1024A00079FE9F4805A905F0E7FC032800F071813B
:1024B000A3690133A361EFE69A4ADBE79A4AD9E7B9
:1024C0000F22D7E74FF48032D4E7984AD2E7226848
:1024D0000B46CFE7964AD2F80823CBE7944AD2F8C6
:1024E0000423C7E7924AD2F80023C3E7914AD2F8FF
:1024F000FC22BFE78E4AD2F8FC22BBE7E269B9E7CB
:10250000A269B7E76269B5E72269B3E7E268B1E7B4
:10251000A268AFE76268ADE7874A1268AAE701934D
:1025200001F08EFE019B0246A4E7636901336361FB
:10253000B2E69DF81220A2F12001C9B2672940F24B
:10254000668102F17001C9B2672940F23681F72A2B
:1025500000F25081013A0B2A01F26981DFE812F0A2
:1025600012010A010201A10099008F0079006100A7
:102570004C00370021000C0070489DF813200178B2
:102580008A42BFF472AF6E49097800782031091A87
:102590000A446C4902F01F020C2000FB02129268F0
:1025A00068E766489DF8132001788A42BFF45DAF62
:1025B0006349097800782031091A0A44614902F018
:1025C0001F020C2000FB02121279D2B252E75B48C4
:1025D0009DF8132001788A42BFF447AF5849097823
:1025E00000782031091A0A4402F01F020C205549D4
:1025F00000FB02F28A583DE75149504800220A7018
:10260000514902700A60514A1278007842EA002269
:102610000868B0F5803F36BF09684D4909040A4390
:1026200028E74A484FF0000C80F800C00278002AE2
:1026300040F06D81414A44490078127840EA022214
:102640000868B0F5803F36BF0968414909040A436C
:1026500010E73E48012202700278002A40F06181B2
:10266000364A39490078127840EA02220868B0F503
:10267000803F36BF0968364909040A43FAE63548FF
:1026800002885AB11B21019303F0AAFF019B01228A
:10269000F0E6304A1188002900F04F810223002221
:1026A000E8E69DF81320013AD2B2132AF6D8294A57
:1026B0001288002AF2D10193FEF752FD0028EDD1D5
:1026C000254A9288002AE9D1194A92F8DD22002A87
:1026D000E4D0184A92F8F522002ADFD000F18040B9
:1026E0004FF4805100F5843005F072FF0028D5D0FA
:1026F0009DF813309FED197A194A164807EE903A63
:10270000F8EE677A632167EE877AC2ED127A03F0FA
:1027100067FF9DF81320019B642101FB02F2A9E6EB
:102720000064004001E8030001D1E0A74154484E95
:1027300098330020BC360020A8450020FC43002030
:10274000FD43002000440020F8430020FE43002009
:102750000000FFFFA83600208C330020CDCCCC3DFC
:10276000D83D0020A9480193652103F039FF019B62
:1027700003227FE6A54801936D2103F031FF019B01
:10278000022277E6A14801931B2103F029FF019B58
:102790007DE7E3690133E3617EE59D4A9DF8111011
:1027A0009C4C9D4B11709D48C4F800C001224FF411
:1027B00000611A7005F002FF6EE5994800788A08FA
:1027C00001F0030138B9CDE902130192FFF7FAFCD9
:1027D000DDE90213019A934800EB420C10F8120055
:1027E0009CF80120002840F08E808F4800EB820288
:1027F000525C3FE6F82A30D0F92A46D0FA2A7FF414
:1028000034AE874900220A7088490A703FE784483D
:1028100000788A0801F0030138B9CDE9021301926A
:10282000FFF7D0FCDDE90213019A7E4810F812C0D0
:1028300000EB420E9EF80100BCF1000F5ED1DFF804
:10284000E8C10CEB80009DF813C000F801C0774888
:1028500041EA0222012101700CE6714A12781AB98C
:102860000193FFF7AFFC019B71496F480193FFF79C
:10287000F7F800283FF4F9AD6D496B48FFF7AEF863
:10288000019B0246F6E56B4AF4E5604A1288002A8D
:102890007FF404AF0193FEF763FC00287FF4FEAEE3
:1028A000654A9288002A7FF4F9AE604B1A78002AB4
:1028B0003FF4F4AE5A4A019B127812B9FFF782FC3A
:1028C000019B5B4958480193FFF7CAF800283FF481
:1028D000CCAD554959484FF4806208F075F9544918
:1028E00057484FF4807208F06FF903F095F8019B98
:1028F000002800F05A8303230022BBE5DFF830C133
:102900000CEB80009FE74A4800EB820270E74D4ADB
:102910004D4982F800C04D4A82F800C0C1F800C09D
:102920008AE64A4A4849474D4FF0000C85F800C0F6
:1029300082F800C0C1F800C094E60193FEF710FCD5
:1029400000287FF4ABAE424991F8DD1200293FF434
:10295000A5AE2E487A2103F043FE019B97E63D4940
:10296000D1F83C2CD1F82C1C92B242EA014281E50C
:102970003849D1F8342CD1F8381C92B242EA0142DD
:1029800078E50520019301F06DFC019B024671E59D
:102990000420019301F066FC019B02466AE50320D6
:1029A000019301F05FFC019B024663E50220019365
:1029B00001F058FC019B02465CE50120019301F007
:1029C00051FC019B024655E50020019301F04AFCB1
:1029D000019B02464EE5019301F03EFC019B02463D
:1029E00048E5019301F032FC019B024642E50920D3
:1029F000019301F04BFC019B02463BE5082001934B
:102A000001F044FC019B024634E500BFA8360020DB
:102A100084450020804500208545002000080140B5
:102A2000F53E002014E80008F83F0020F43E0020A6
:102A3000F83E00204154484E8C330020D839002005
:102A4000D83D0020FD430020F8430020FC43002037
:102A500098330020002001400720019301F016FC6C
:102A6000019B024606E50620019301F00FFC019B45
:102A70000246FFE40520019301F008FC019B024699
:102A8000F8E40420019301F001FC019B0246F1E40B
:102A90000320019301F0FAFB019B0246EAE40220C5
:102AA000019301F0F3FB019B0246E3E40120019353
:102AB00001F0ECFB019B0246DCE40020019301F0F5
:102AC000E5FB019B0246D5E4D04AD2F8F81292F811
:102AD000F52242EA0122CDE4CC499FEDCD7AD1ED39
:102AE000067AF4EEC77AF1EE10FA74DA9FEDC97A3D
:102AF000F4EEC77AF1EE10FA6BD99FEDC77A67EE64
:102B0000877AFDEEE77A17EE902AD1ED077A9FEDEE
:102B1000C07AF4EEC77AF1EE10FA92B256DA9FED6F
:102B2000BD7AF4EEC77AF1EE10FA4DD99FEDBA7A7C
:102B300067EE877AFDEEE77A17EE901A42EA0142D5
:102B400098E4B24A9FEDB57AD2ED1C7A67EE877AA7
:102B5000FCEEE77A17EE902A8CE4AC498A68D1F84B
:102B60009800121AB2F5004F2BDAAD488242B8BF76
:102B70000246C868D1F89C10411AB1F5004F92B2D4
:102B80001CDAA7488142B8BF014642EA014271E41B
:102B90009E49B1F89820D1F89C1042EA014269E4BC
:102BA000A049A14ADFF8A0C201F5007E51F8040F48
:102BB00050408E450CFB00F2F8D15BE447F6FF7104
:102BC000E3E747F6FF72D4E79549B7E747F6FF71A9
:102BD000B4E7934A99E747F6FF7296E7934994481A
:102BE0000193FEF7FBFE019B024643E4904A5269C3
:102BF00040E490498E4AD1ED1A7A1268FCEEE77AE9
:102C000017EE901A42EA014234E4884A9FED8A7A2C
:102C1000D2ED0A7AF4EEC77AF1EE10FA76DA9FED89
:102C2000877AF4EEC77AF1EE10FA6BD99FED7A7AD3
:102C300067EE877AFDEEE77A17EE902A1AE4804A6B
:102C40009FED7D7AD2ED557AF4EEC77AF1EE10FA67
:102C500021DA9FED7A7AF4EEC77AF1EE10FA16D9FE
:102C60009FED6D7A67EE877AFDEEE77A17EE902A90
:102C700000E4734A9FED737AD2ED5E7A67EE877A4D
:102C8000FCEEE77A17EE902A92B2FFF7F3BB4FF013
:102C90000042FFF7EFBB6FF00042FFF7EBBB684A63
:102CA000DFED686AD2ED5C7A92ED5D7A67EEA67A26
:102CB00027EE267AFCEEE77ABCEEC77A17EE902A6A
:102CC00017EE101A92B242EA0142FFF7D3BB5C4AF8
:102CD0009FED597AD2ED5B7AF4EEC77AF1EE10FAF5
:102CE0001CDA9FED567AF4EEC77AF1EE10FA11D99C
:102CF0009FED497A67EE877AFDEEE77A17EE902A24
:102D0000FFF7B8BB4FF00042FFF7B4BB6FF00042D3
:102D1000FFF7B0BB4FF00042FFF7ACBB6FF00042D3
:102D2000FFF7A8BB464A9FED447AD2ED5A7AF4EEFB
:102D3000C77AF1EE10FA80F203819FED407AF4EE4B
:102D4000C77AF1EE10FA40F2F7809FED337A67EE22
:102D5000877AFDEEE77A17EE902AFFF78BBB384AA9
:102D60009FED357AD2ED597AF4EEC77AF1EE10FA8A
:102D700080F2F6809FED317AF4EEC77AF1EE10FA28
:102D800040F2EA809FED247A67EE877AFDEEE77ADB
:102D900017EE902AFFF76EBB294A9FED277AD2EDF6
:102DA000567AF4EEC77AF1EE10FA4FDA9FED237AF5
:102DB000F4EEC77AF1EE10FA24D99FED177A67EE98
:102DC000877AFDEEE77A17EE902AFFF753BB1C4A8D
:102DD0009FED197AD2ED547AF4EEC77AF1EE10FA3B
:102DE0003CDA9FED167AF4EEC77AF1EE10FA31D99B
:102DF0009FED097A67EE877AFDEEE77A17EE902A63
:102E0000FFF738BB4FF00042FFF734BBBC36002061
:102E1000681103426F1203C200007A44002474490F
:102E20000080FFFFEC390020C59D1C81D83D0020AB
:102E3000D8390020983300206C12034A6C1203CA60
:102E40001032002000401C46930100016FF0004248
:102E5000FFF710BB4FF00042FFF70CBB6FF00042D2
:102E6000FFF708BBD04A9FEDD17AD2ED587AF4EE45
:102E7000C77AF1EE10FA6BDA9FEDCD7AF4EEC77AED
:102E8000F1EE10FA60D99FEDCB7A67EE877AFDEE0E
:102E9000E77A17EE902AFFF7EDBAC34A9FEDC37A9F
:102EA000D2ED577AF4EEC77AF1EE10FA60DA9FEDC0
:102EB000C07AF4EEC77AF1EE10FA55D99FEDBD7ADB
:102EC00067EE877AFDEEE77A17EE902AFFF7D2BA1F
:102ED000B94A9FEDB67AD2ED067AF4EEC77AF1EEF2
:102EE00010FA25DA9FEDB27AF4EEC77AF1EE10FA15
:102EF0001AD99FEDB07A67EE877AFDEEE77A17EE82
:102F0000902AFFF7B7BAAD4AAD491278097842EA7C
:102F10000122AC490868B0F5803F36BF0968AA496C
:102F200009040A43FFF7A6BA4FF00042FFF7A2BA1E
:102F30006FF00042FFF79EBA4FF00042FFF79ABAD7
:102F40006FF00042FFF796BA4FF00042FFF792BAD7
:102F50006FF00042FFF78EBA4FF00042FFF78ABAD7
:102F60006FF00042FFF786BA4FF00042FFF782BAD7
:102F70006FF00042FFF77EBA019301F05BF9019B0D
:102F80000246FFF777BA019301F04EF9019B024622
:102F9000FFF770BA019301F0ABFB019B0246FFF70C
:102FA00069BA40F21542FFF765BA884A1070FFF718
:102FB0006EBB874A9FED877AD2ED037A8649874AAE
:102FC000B4EEE77AF1EE10FAB8BF0A46FFF752BA4C
:102FD00083490A8A91F8F51242EA0142FFF74ABA98
:102FE0007B4A9FED727AD2ED1C7AF4EEC77AF1EE4D
:102FF00010FA80F29B809FED6E7AF4EEC77AF1EEC4
:1030000010FA40F28F809FED6B7A67EE877AFDEEC3
:10301000E77A17EE902AFFF72DBA6D4A9FED637A93
:10302000D2ED1B7AF4EEC77AF1EE10FA2FDA9FEDAB
:10303000607AF4EEC77AF1EE10FA24D99FED5D7A4A
:1030400067EE877AFDEEE77A17EE902AFFF712BA5D
:103050005F4A9FED567AD2ED1A7AF4EEC77AF1EE16
:1030600010FA1CDA9FED527AF4EEC77AF1EE10FAFC
:1030700011D99FED507A67EE877AFDEEE77A17EE69
:10308000902AFFF7F7B94FF00042FFF7F3B96FF05E
:103090000042FFF7EFB94FF00042FFF7EBB96FF0D6
:1030A0000042FFF7E7B90D20019301F0EFF8019B13
:1030B0000246FFF7DFB90C20019301F0E7F8019B0E
:1030C0000246FFF7D7B90B20019301F0DFF8019B0F
:1030D0000246FFF7CFB90A20019301F0D7F8019B10
:1030E0000246FFF7C7B93A4A9FED307AD2ED197A16
:1030F000F4EEC77AF1EE10FA20DA9FED2D7AF4EEB5
:10310000C77AF1EE10FA15D99FED2A7A67EE877A21
:10311000FDEEE77A17EE902AFFF7ACB9314AD26993
:10312000FFF7A8B94FF00042FFF7A4B96FF00042D3
:10313000FFF7A0B94FF00042FFF79CB96FF00042D3
:10314000FFF798B9264AD2F8B420FFF793B9264A78
:10315000D2F81824FFF78EB9244A92F8DE1200291B
:103160003FF4C9ABD2F8E622FFF784B9204AD188F0
:10317000128942EA0142FFF77DB91D4A51889288BF
:1031800042EA0142FFF776B9194A5189128842EAA8
:103190000142FFF76FB9164AD268FFF76BB9104AC0
:1031A000128AFFF767B900BF103200206C12034A81
:1031B0006C1203CA00007A4410020020FE43002073
:1031C000FC430020F84300200000FFFFF43E0020F5
:1031D000D83D002000002042A0008002A000C002D4
:1031E000BC360020D8390020006000409833002011
:1031F000E03E0020CF490A89C96842EA0142FFF750
:1032000039B9CD4AD2F88020FFF734B9CA4A926F53
:10321000FFF730B9C84AD2F8E022FFF72BB94FF4D4
:103220008051C648019305F0D3F94FF4006106467A
:10323000C24805F0D3F9C249C24A031ED1F8440C72
:10324000C0F3C03ED2F81804D2F818C44FEA4010B8
:1032500000F02005D2F81804D1F8202C4FEA022201
:1032600002F4807218BF01232A4342EA4302B24BA0
:1032700093F8DD32003B18BF012342EAC302AD4B95
:1032800093F8F532003B18BF012342EA0312CCF356
:10329000400C42EA8E02C0F3800042EA8C1242EAFD
:1032A000C012D1F8200CD1F8201C019BC0F30010F3
:1032B00042EA4022C1F3002142EA8122002E08BFE7
:1032C00042F0010242F00042FFF7D4B80193FDF74B
:1032D00047FF019B0246FFF7CDB8019304F024F9A4
:1032E000019B0246FFF7C6B892491346D1F8F8226F
:1032F000FFF7C0B8944A9FED957AD2ED127AF4EEBA
:10330000C77AF1EE10FA80F27D819FED917AF4EEAA
:10331000C77AF1EE10FA40F271819FED8E7A67EE76
:10332000877AFDEEE77A17EE902AFFF7A3B88A4A6C
:10333000D269FFF79FB88949CA784878097812049A
:1033400042EA00220A43FFF795B80E20019300F0ED
:1033500093FF019B0246FFF78DB80D20019300F00B
:103360008BFF019B0246FFF785B80C20019300F00C
:1033700083FF019B0246FFF77DB80B20019300F00D
:103380007BFF019B0246FFF775B80A20019300F00E
:1033900073FF019B0246FFF76DB80920019300F00F
:1033A0006BFF019B0246FFF765B80820019300F010
:1033B00063FF019B0246FFF75DB80720019300F011
:1033C0005BFF019B0246FFF755B80620019300F012
:1033D00053FF019B0246FFF74DB80520019300F013
:1033E0004BFF019B0246FFF745B80420019300F014
:1033F00043FF019B0246FFF73DB80320019300F015
:103400003BFF019B0246FFF735B80220019300F015
:1034100033FF019B0246FFF72DB80120019300F016
:103420002BFF019B0246FFF725B80020019300F017
:1034300023FF019B0246FFF71DB83E4A9FED437AEA
:10344000D2ED337AF4EEC77AF1EE10FA80F27081A1
:103450009FED3F7AF4EEC77AF1EE10FA40F2648104
:103460009FED3C7A67EE877AFDEEE77A17EE902AB9
:10347000FFF700B83249D1F83C2CD1F82C1C92B29D
:1034800042EA0142FEF7F6BF2A4A9FED307AD2EDBA
:10349000377AF4EEC77AF1EE10FA80F2F1809FED00
:1034A0002C7AF4EEC77AF1EE10FA40F2E5809FED47
:1034B000297A67EE877AFDEEE77A17EE902AFEF713
:1034C000D9BF1C4A9FED217AD2ED367AF4EEC77A45
:1034D000F1EE10FA80F29F819FED1D7AF4EEC77A2B
:1034E000F1EE10FA40F293819FED1A7A67EE877A37
:1034F000FDEEE77A17EE902AFEF7BCBF0D4A9FED6E
:10350000137AD2ED117AF4EEC77AF1EE10FA46DAB8
:103510009FED0F7AF4EEC77AF1EE10FA3BD99FEDEA
:103520000D7A67EE877AFDEEE77A17EE902AFEF7BE
:10353000A1BF00BFBC360020983300200008014026
:103540000020014000600040D83D00206C12034A7A
:103550006C1203CA00007A4410020020A836002032
:10356000B44A9FEDB57AD2ED2A7AF4EEC77AF1EE3D
:1035700010FA1CDA9FEDB17AF4EEC77AF1EE10FA88
:1035800011D99FEDAF7A67EE877AFDEEE77A17EEF5
:10359000902AFEF76FBF4FF00042FEF76BBF6FF04F
:1035A0000042FEF767BF4FF00042FEF763BF6FF0C7
:1035B0000042FEF75FBFA3498A8D087891F820107A
:1035C000120442EA00220A43FEF754BF9D499E4A74
:1035D000107892F801C00A7C120442EA0C220243DD
:1035E00091F8210042EA006291F8220091F824103B
:1035F00042EA406242EA8162FEF73CBF4FF000427D
:10360000FEF738BF6FF00042FEF734BF894A9FEDE6
:103610008A7AD2ED357AF4EEC77AF1EE10FA37DA1B
:103620009FED867AF4EEC77AF1EE10FA2CD99FED71
:10363000847A67EE877AFDEEE77A17EE902AFEF736
:1036400019BF7C4A9FED7C7AD2ED347AF4EEC77ACA
:10365000F1EE10FA24DA9FED797AF4EEC77AF1EE02
:1036600010FA19D99FED767A67EE877AFDEEE77A40
:1036700017EE902AFEF7FEBE4FF00042FEF7FABEAC
:103680006FF00042FEF7F6BE4FF00042FEF7F2BECA
:103690006FF00042FEF7EEBE4FF00042FEF7EABECA
:1036A0006FF00042FEF7E6BE6849D1F8342CD1F83D
:1036B000381C92B242EA0142FEF7DCBE5D499FED42
:1036C000647AD1ED057AF4EEC77AF1EE10FA3ADABF
:1036D0009FED607AF4EEC77AF1EE10FA31D99FEDE2
:1036E000587A67EE877AFDEEE77A17EE902AD1EDE9
:1036F000067A9FED577AF4EEC77AF1EE10FA92B29D
:103700001CDA9FED547AF4EEC77AF1EE10FA13D971
:103710009FED4B7A67EE877AFDEEE77A17EE901A07
:1037200042EA0142FEF7A6BE4FF00042FEF7A2BEFB
:103730006FF00042FEF79EBE4749F1E747F6FF7182
:10374000EEE7454AD3E747F6FF72D0E7434A9FEDDD
:103750003A7AD2ED037AF4EEC77AF1EE10FA62DA31
:103760009FED367AF4EEC77AF1EE10FA57D99FED55
:10377000347A67EE877AFDEEE77A17EE902AFEF745
:1037800079BE019300F0B4FF354A9288151E294A8C
:1037900092F8F52218BF0125161E324A92F8DD2252
:1037A000804618BF01264FF40061171E2E4818BF2F
:1037B000012704F013FF011E2448D0F8442CC2F363
:1037C000C03CD0F8202CD0F8203CD0F820EC4FEAB8
:1037D000821202F040020EF4807E42EA0E0242EAB9
:1037E000450242EA860242EAC702C3F3001042EAF7
:1037F0004C1242EAC01218BF0121B8F1000F18BFE5
:1038000042F00102019B42EA0112FEF733BE4FF083
:103810000042FEF72FBE6FF00042FEF72BBE4FF0C6
:103820000042FEF727BE6FF00042FEF723BE0423DE
:10383000FEF71CBEBC3600206C12034A6C1203CA91
:1038400000007A4410020020A83600200020014029
:10385000681103426F1203C20080FFFFD83D0020B1
:103860008C3300209833002000080140F0B5244C30
:10387000227887B00AB907B0F0BD03F055FE214A9F
:103880001268801A0928F6D91F4B204A5968157802
:1038900018681A8900F0CEFE1B4B074659681A8932
:1038A000186800F0D7FE4FF400610646184804F08F
:1038B00087FE4FF000012170022001A904F09EF95B
:1038C0004FF00000ADF80C00ADF8020040F281703E
:1038D000019008208DF80E00062047EA06420DF1FF
:1038E0000F038DF80000002168468DF80150FEF7A7
:1038F00051FC01A9074804F0BFFA07B0F0BD00BFB2
:1039000085450020804500208C3300208445002020
:103910000008014000640040014B1878704700BF68
:10392000854500200000000000B5114889B004F072
:10393000F7FF9FED0D7B4FF400724FF4827100236F
:103940004FF40060CDE90013CDE902021823694667
:10395000074806938DED047B05F010F8044805F048
:1039600027F809B000BD00BF000000000100000002
:10397000003800400000000000B5114889B004F094
:10398000CFFF9FED0D7B4FF400724FF48271002347
:103990004FF40060CDE90013CDE90202102369461F
:1039A000074806938DED047B04F0E8FF044804F01B
:1039B000FFFF09B000BD00BF0000000001000000D3
:1039C000003C004070B548488CB005F003F808A8EA
:1039D000002405F075F801254FF400134FF4FA6246
:1039E00008A9414808930A9209948DF82C5005F0D3
:1039F0006FF83D4805F0C6FA21463B4805F0ACFAA1
:103A00002946394805F0B0FA374805F0B9F801A859
:103A100005F0EAF8022601AA214633480394CDE9CD
:103A2000015605F0E7F821462F48602205F0E4F939
:103A300021462D48042205F03DFA21462A48082255
:103A400005F010FA22462146274805F0FDF901AAA3
:103A50002946254805F0CEF829462348602205F07E
:103A6000CBF929462048042205F024FA29461E48AD
:103A7000082205F0F7F9224629461B4805F0E4F92B
:103A800001AA3146184805F0B5F8314616486022BB
:103A900005F0B2F931461448042205F00BFA31461C
:103AA0001148082205F0DEF9224631460E4805F09D
:103AB000CBF904A805F072F84FF0005304A90A48A6
:103AC0000694CDE90443ADF81C4005F06DF821469D
:103AD000054805F07FF82946034805F057F80248E5
:103AE00005F048F80CB070BD002C014008B50D4839
:103AF00005F04EFA0B484FF4E13105F095FA09480C
:103B0000042105F0D1FA0821064805F0C7FA054856
:103B100005F0BEFABDE80840024840F2053105F064
:103B2000D9BA00BF0044004038B50546E9B20C4898
:103B300005F0C0FA41F2010401E0013C07D0084859
:103B4000072105F0BFFA0028F7D0284638BD054AFE
:103B500013684FF0FF3501331360284638BD00BFAE
:103B600000440040A8450020F0B52DED028B9B4D90
:103B70001446002285B02A600E46217C07460029A3
:103B800000F08480E168DFED966A5B1A07EE903AF8
:103B9000F8EEE77AB7EE007A67EEA67AF4EEC77A27
:103BA000F1EE10FAC4ED057A7AD4F0EE006AF4EE84
:103BB000E67AF1EE10FA00F18F8004F54053A16827
:103BC000D0ED037A94ED068AC3F85411D6F8A41008
:103BD000C3F85C11F16BC3F86011316CC3F8641168
:103BE000316DC3F86811716DC3F86C1137EEC88A76
:103BF000B16DC3F87011F16DC3F87411B0EEC88ADD
:103C0000316EC3ED547A83ED568AC3F8781130468D
:103C1000F0EE678A01F086FCDFED727AB4EE678A17
:103C2000F1EE10FA0DD8DFED707AB4EEE78AF1EE1E
:103C300010FA06D4DFED6D7AB4EEE78AF1EE10FAF1
:103C400062DD304601F06EFCDFED697A68EE277ABE
:103C500040F20112FDEEE77A00230120A4F82120B2
:103C6000237017EE901A84F824000A20FEF7C6FA93
:103C700018EE100AFCF718FC02465E480B4605B029
:103C8000BDEC028BBDE8F04006F0C8BE5A48029376
:103C900006F02CFF0122029B22740022E360626185
:103CA00004F5005202F5496002F698420023534998
:103CB000A360036013608A6CC6F8A42004F5305139
:103CC000C6F8A8303431304601F0A8FCFB68A36187
:103CD00005B0BDEC028BF0BD77EEC77A9FED487A58
:103CE00004F5325367EE877A04F5305110333431DE
:103CF0003046C4ED027AC3ED007A05B0BDEC028B0C
:103D0000BDE8F04001F08ABC9FED3D0A80EE080A54
:103D100009F0C0FE431E142B07464FF000023DD8A9
:103D20002070D4ED067AF4EEE87AF1EE10FA2ED592
:103D3000344884F8202006F0D9FE2178324806F075
:103D40006DFEA069FCF7B0FB02460B4618EE900A28
:103D5000CDE90223FCF7A8FBDDE90223CDE9000150
:103D60002A4806F05BFE94F820302B602378234924
:103D700007EE903AF8EE677A00220123C1ED0A7A45
:103D8000227484F8213005B0BDEC028BF0BD012314
:103D900084F820301E4806F0A9FECEE7304601F038
:103DA000C1FB40F2011300220121A4F8213022704E
:103DB00084F824100A203946FEF720FA18EE100A7B
:103DC000FCF772FB024613480B46394605B0BDECC2
:103DD000028BBDE8F04006F021BE00BFD8390020BC
:103DE000D1CB0B38FFFF7F7FCDCC4C3EE4CB1641CF
:103DF00000007A4464DE000840DE0008D83D002060
:103E0000DB0FC940E0DE000810DF000824DF0008F7
:103E1000F8DE0008A0DE00082DE9F041C24E96ED64
:103E20000A7A2DED028BF3EE057AB4EEE77AF1EE25
:103E300010FA84B000F312811D46137C14460F461D
:103E40008046002B00F0D880D3689FEDB87AEB1A3B
:103E500007EE903AF8EEE77AB7EE006A67EE877AF7
:103E6000F4EEC67AF1EE10FAC2ED057A00F1D280D6
:103E70009FEDAF8A96ED0A7A67EE085AC5EE886A1A
:103E800076EE866AF4EEE67AF1EE10FA78D4DFED9B
:103E9000A96A27EE267AC7EE086A36EE867AF4EE2D
:103EA000C77AF1EE10FA00F1E280084601F03AFB21
:103EB000D6ED0A7ABDEEE77A17EE103A002B40F302
:103EC000928104EB432303F1300204F1300100231B
:103ED00051F8040F91420344FAD107EE103AB8EEBC
:103EE000C77A9FED956A656B9FED938ADFED938AA4
:103EF00027EE866AD5F58035C7EE066A48BF05F21B
:103F0000FF156D120027FDEEE66AC4ED076A07EEA5
:103F1000107AF8EEC75A67EE886A65EEA75A6FF016
:103F20003F0265EE885A002165EEA85AB7EE005AA6
:103F300013E036EEC56AB4EEC76AF1EE10FA03D5A7
:103F400037EE667AFDEEC77A17EE903A04EB8303FC
:103F500001325B6B402A194433D007EE902AF8EE09
:103F6000E77A77EEA57AFDEEE77A17EE903A002B26
:103F7000B8EEE77ADDDA37EE267AFDEEC77AE3E7C8
:103F8000D2ED027A9FED6E7A77EE877A02F53253A0
:103F9000084602F53051C2ED027A3431C3ED047A9D
:103FA00001F03CFB94ED057AD4ED0C7AB4EEE77A9F
:103FB000F1EE10FA00F3D08004B0BDEC028BBDE846
:103FC000F0810029B8BF7F317F2D4FEAE1122946E9
:103FD000C8BFA5F18001E06901F68C2304EB8303DF
:103FE000121A5A605748013706F018FD802F2BD05F
:103FF000D6ED0A7A01358AE75348039306F076FD39
:10400000039BA38500236361012323744FF07E5338
:10401000E560236304F532530022A2601A61B06C9C
:10402000C7F8A40004F53051C7F8A8203431384649
:1040300001F0F4FAD8F80C206369A261236304B09C
:10404000BDEC028BBDE8F08100220123227484F8CC
:10405000223004B0BDEC028BBDE8F0813B48152155
:1040600004B0BDEC028BBDE8F04106F0D7BCD2ED48
:10407000027A9FED337A77EEC77A0846C2ED027A6C
:10408000B36CC1F8A4300023C1F8A83002F5325354
:1040900002F53051C3ED047A343101F0BFFA94EDEA
:1040A000057AD4ED0C7AB4EEE77AF1EE10FA83DDFE
:1040B000A78D002F80D096ED0A7AD4ED027ADFED3D
:1040C000256AD8F87430A06827EE087A67EEA66AE9
:1040D000C6EE877AFDEEE77A17EE902A9B1ADD137B
:1040E00005F480351D4404EB8703CDED037A596B4D
:1040F0000D4405EBD5756D105D63FCF7D5F92B46C6
:10410000CDE90001039A1248394606F087FCD4ED48
:104110000C7A9FED0A7AA38D77EE877A013BA3850F
:10412000C4ED0C7A48E700BFD83D0020D1CB0B3856
:10413000DB0FC940DB0F4941000000430000003C99
:104140005F975B39A8DF000870DF000840DF0008D8
:1041500098DF00080000804794ED026A96ED0A7A25
:104160005FED046AD8F87430A78D66EE266A27EEF4
:10417000087A16EE100AC6EE877AFDEEE77A17EE99
:10418000902A9B1ADD1305F480351D4404EB870348
:10419000CDED037A5D63FCF787F92B46CDE900018D
:1041A000039A1248394606F039FC9FED116A94EDE6
:1041B0000C7ADFED106AA38D37EE067AFFEE007AF7
:1041C00084ED0C7A96ED0A6A07EE103AE6EE267A4E
:1041D000B8EEC77AB4EE677AF1EE10FA3FF4ECAEBF
:1041E0000133A385E8E69FED047A7AE698DF0008BC
:1041F0000000003C0000004300000000024B187863
:10420000003818BF0120704748460020044B1B7837
:1042100023B1044A136843F001031360704700BFE1
:104220004846002044460020014B1868704700BFF4
:1042300044460020014B1868704700BF40460020EC
:10424000014B1868704700BF3C460020014B1868BE
:10425000704700BF38460020014B1868704700BF08
:104260003446002005289DBF024B33F8100080B271
:1042700000207047284600200E289ABF024B53F8B2
:1042800020000020704700BFEC4500200D289ABF99
:10429000024B53F820000020704700BFB4450020B7
:1042A000024B1878003818BF01207047B045002035
:1042B000014B01229A637047EC45002070B504461B
:1042C0004FF6FF7384B03748218063804FF48051EC
:1042D000164604F075F900230393039B3F2B06D881
:1042E00000BF039B01330393039B3F2BF8D940F698
:1042F000010501E0013D40D02B48022104F064FBA0
:104300000028F7D02188284804F058FB40F6010522
:1043100001E0013D40D02448012104F055FB002874
:10432000F7D0214804F04CFB40F60105608001E025
:10433000013D34D01C48802104F046FB0128F7D011
:1043400000230293029B3F2B4FF000051CD9154818
:104350004FF4805104F032F900230193019B3F2B6D
:1043600006D800BF019B01330193019B3F2BF8D975
:1043700063883380284604B070BD4FF0FF350023BA
:104380000293029B3F2BE2D800BF029B01330293B2
:10439000029B3F2BF8D9DAE76FF00105EFE76FF0EA
:1043A0000205ECE7000C01400038004070B582B017
:1043B00000230DF102024FF40041ADF80230ADF8D8
:1043C0000430ADF806300446FFF778FF4FF408419B
:1043D000064601AA2046FFF771FF4FF40841054643
:1043E0000DF106022046FFF769FF46EA0503034385
:1043F00007D1BDF80630BDF8040040EA034002B022
:1044000070BD044A13684FF0FF3043F0040313609B
:1044100002B070BD4446002038B5044603F084F86D
:10442000354A364B1189D568186041EA05419960D3
:10443000D2F89CC0B2F898109FED313AD2ED167ABE
:1044400092ED176A92ED187A92ED2A4AD2ED104A4F
:1044500092ED0F5AD2ED115AD2ED096A108ADFEDB2
:10446000293A41EA0C422849DA6067EE837A1861FA
:10447000D1F808285A6126EE036AFCEEE77AD1F8F3
:104480000C289A6127EE037ABCEEC66A17EE902AD2
:1044900016EE101ABCEEC77A24EE234A64EEA34A45
:1044A00025EE235A65EEA35A66EEA36A92B242EA5B
:1044B000014217EE101ABDEEC44AFDEEE44ABDEE0D
:1044C000C55AFDEEE55AFDEEE66A89B283ED074A6C
:1044D000C3ED084A83ED095AC3ED0A5AC3ED0B6ACE
:1044E0001A6359633CB12046FFF760FF074A034B4C
:1044F000506052685A6038BDBC360020B445002078
:1045000000401C4600007A4400000140EC450020B9
:104510002DE9F04F002787B003ACCDE90377019474
:104520003A4EDFF80CA13A4C059780464FF001094E
:104530000DF10E0B14F8015B364BADF80A7043EA2F
:10454000C5250DF10A02A9B24046FFF7B7FE0028C3
:1045500049D0326842F004024FF000093260A245AF
:104560000BF1020BE6D1019C2B48002334F8022BFF
:1045700020F813200133062BF8D12849DDF80E303E
:10458000C8F806300B602649DDF81240BDF80E2051
:10459000BDF810000C60234CBDF8161021600243DA
:1045A000BDF81230BDF8144025D1C3F30A03A02B87
:1045B00021D11D4B9FED1D7AD3ED037AB4EEE77A3E
:1045C000F1EE10FAACBF4FF430734FF420739C42FD
:1045D00011D140F21543994208BF09F1FF300AD1C9
:1045E00007B0BDE8F08F5A46A9B24046FFF766FE15
:1045F0000028AED1B3E7054A13684FF0FF3043F00F
:104600000803136007B0BDE8F08F00BF44460020E8
:1046100048E800080080FFFF284600203C460020B4
:104620003846002034460020D83D002000002042BB
:104630004DE8000800B587B001AB83E807000DF135
:1046400016024FF400411846FFF738FEBDF8160079
:1046500007B000BD00B587B001AB83E807000DF1DE
:1046600016024FF408411846FFF728FEBDF8160061
:1046700007B000BD30B585B004AB03E907001248B0
:10468000002104F0A7FA11484FF4006103F096FFEF
:1046900000230F4A1C4642F8234001330F2BFAD166
:1046A0000C4A0D4B012515701C6002F03DFF0B4BB1
:1046B0000B4918600B4B0D700B4A1C700B4B1470A0
:1046C0001C7005B030BD00BF002C01400008014047
:1046D000EC450020B0450020AC4500204C460020B1
:1046E00053460020524600205146002050460020EC
:1046F000054B187828B1054B1878B0FA80F04009BE
:10470000704700F0FF00704752460020B04500207F
:1047100010B584B004AB03E907000022114610482D
:10472000104C04F0EFFB0E480022012104F0EAFBDC
:1047300000220B48022104F0E5FB0948002104F0A7
:1047400049FA09484FF4006103F03AFF0748084965
:10475000084A0023237003700B70137004B010BD5F
:10476000002C014053460020000801405246002022
:10477000B04500205046002030B5A04B89B001ACB8
:1047800084E807001A7812B19D4A117851BB9D4AFE
:1047900012780AB909B030BD9B4A156802F0C4FE10
:1047A0000A220146284602F027FE0028F2D0974848
:1047B0004FF4805103F00CFF024600285DD1944D68
:1047C0002B78002B2FD194E8070005AB03C341F2EF
:1047D000A1011A8005A80DF11202FFF76FFD012358
:1047E0002B70D7E702F0A0FE8A4B1968401A002808
:1047F000D0DB894A107800F0FF01002800F0BC806F
:1048000082484FF4805103F0E3FE7D4A002800F017
:10481000D380824800F0CEFD794A002313707E4A8F
:1048200000231370B6E77E4B009220461A60FFF714
:10483000BDFD7B4B7B495860D1F80408D861D1F8A5
:104840000C081862D1F808085862D1F8040C986274
:10485000D1F80C0CD862D1F8080C1863A1F55041BE
:10486000009AD1F808185963654B20201A70FCF79C
:104870006FFC644B009A1A708CE7624B00221A702E
:1048800094E8070005AD03C541F2A1012A8005A8FF
:104890000DF11202FFF712FD634A9FED647AD2ED2B
:1048A000037A94E80700B4EEE77AF1EE10FA0DF11E
:1048B000140CACE80300A8BF4FF44B512A80B8BFDA
:1048C0004FF44A510DF1120205A8FFF7F7FC94E8E6
:1048D00007000DF1140CACE8030042F615412A80E4
:1048E00005A80DF11202FFF7E9FC2046FFF710FEC4
:1048F0004B4A4F4900280CBF012000201060086877
:104900004C49506009684C48916000684B49D06040
:10491000488880B21061888880B25061C888414957
:1049200080B29061D1F80408D061D1F80C0810620F
:10493000D1F808085062D1F8040C9062D1F80C0C40
:10494000D062D1F8080C1063A1F55041D1F80818D5
:10495000516345D12D484FF4805103F039FE0028B2
:104960003ED0264B01241C7002F0DEFD294A244B68
:10497000143010601C700DE72848009100F0D2FD43
:104980002F480099012204F0BDFA012211462C485B
:1049900004F0B8FA01222A48022104F0B3FA2848A8
:1049A000012104F017F91C4B01221A7002F0BCFD22
:1049B000184B05301860EDE6194910700860204664
:1049C000FFF7F4FC1649034620204B60FCF7C0FBC0
:1049D0000123ADF8083094E80700FFF799FE1EE7C1
:1049E000074B002220201A70FCF7B2FB0123ADF820
:1049F000083094E80700FFF78BFECBE65246002014
:104A0000B0450020534600204C46002000080140DD
:104A100051460020AC45002050460020BC36002006
:104A2000EC45002000000140D83D0020000020425D
:104A30003C4600203846002034460020284600200E
:104A4000002C0140F0B589B001AC84E8070094E87F
:104A5000070005AE03C64FF40041328005A80DF1F2
:104A600012021F46FFF72AFC94E8070005AB03C3B8
:104A700032804FF408410DF1120205A8BDF8125022
:104A8000FFF71CFCBDF8124054EA05031FD12B07A9
:104A900043D46F0746D4AE0749D4ED074CD4600524
:104AA0004FD4A10552D4E20555D4230658D4670645
:104AB0005BD4A6065ED4E50661D4200764D4610702
:104AC00067D4A2076AD4E3076DD409B0F0BD3B48B0
:104AD000394605F0A3FF6A056BD4AB0502D538480B
:104AE00005F09CFFEF0502D5364805F097FF2E062E
:104AF00002D5354805F092FF680602D5334805F027
:104B00008DFFA90602D5324805F088FFEA06BED51A
:104B1000304805F083FF2B07BBD52F4805F07EFFFB
:104B20006F07B8D52D4805F079FFAE07B5D52C48ED
:104B300005F074FFED07B2D52A4805F06FFF600558
:104B4000AFD5294805F06AFFA105ACD5274805F087
:104B500065FFE205A9D5264805F060FF2306A6D526
:104B6000244805F05BFF6706A3D5234805F056FFF0
:104B7000A606A0D5214805F051FFE5069DD52048A1
:104B800005F04CFF20079AD51E4805F047FF610746
:104B900097D51D4805F042FFA20794D51B4805F0A4
:104BA0003DFFE30791D51A4809B0BDE8F04005F094
:104BB00035BF184805F032FF8FE700BFB4DF0008AB
:104BC000D4DF0008E0DF0008E8DF0008F0DF0008BD
:104BD000F8DF000804E0000810E000081CE000080E
:104BE00028E0000834E0000840E0000848E0000841
:104BF00050E0000858E0000860E0000868E00008A5
:104C000074E0000880E000088CE0000898E00008EC
:104C1000A4E00008C8DF00082DE9F04389B001AC2A
:104C200084E80700764F774A774D784900233B6048
:104C30002B601360764A1360764A13601A4621F897
:104C400013200133062BFAD1FCF754FA724BDFED37
:104C5000737A93ED037AB4EEE77AF1EE10FA25D881
:104C6000DFF8C4916E4801234FF4006189F80030E9
:104C700003F0A4FC0A2002F03FFC2046FFF796FB5D
:104C800028602B68002B40F0A88005AB94E8070053
:104C90001D4603C30DF112081A8041F2A1014246DC
:104CA0002846FFF70BFB4FF44B5323E0DFF87891D6
:104CB0005B4801234FF4006189F8003003F07EFC6B
:104CC0000A2002F019FC2046FFF770FB28602B68D1
:104CD000002B7CD105AB94E807001D4603C30DF102
:104CE00012081A8041F2A10142462846FFF7E6FA6F
:104CF0004FF44A5394E807002E4603C61946328003
:104D000028464246FFF7DAFA464800F02DFB94E8C1
:104D100007002B4603C3328042F61541424628461F
:104D2000FFF7CCFA94E807002B4603C341F2A10138
:104D3000328028464246FFF7C1FA012002F0DCFB30
:104D4000384800F011FB36484FF4805103F040FC26
:104D500018B93B6843F010033B602046FFF7D8FBCF
:104D600028B92F484FF4805103F032FCD8B994E8A9
:104D700007002B4603C341F2A1011A802846424690
:104D8000FFF79CFA012002F0B7FB25484FF4805151
:104D900003F01EFC38B32046FFF7BAFB18BB3B6894
:104DA00023F008033B601E484FF4805103F010FCD1
:104DB0000346C8B194E807000024FFF7A9FC89F86E
:104DC0000040FCF797F9204609B0BDE8F0833A6847
:104DD00042F0020205AB3A607DE73A6842F0020217
:104DE00005AB3A6052E70023202089F80030FCF739
:104DF000AFF994E80700FFF78BFC4FF0FF30E3E7D3
:104E0000444600203C460020404600202846002022
:104E10003846002034460020D83D002000002042C3
:104E200000080140BC3600204846002008B50C218F
:104E3000002003F01BFC4FF480500222002103F0FD
:104E400053F9BDE808404FF4805003F0A5B900BF06
:104E5000044A072928BF07210023C0E90121037064
:104E6000704700BF00C0030810B5044603F09AF96C
:104E700040F2073003F0FEFA606803F0C7F901233F
:104E8000237010BD84B00DF1100C0CE907000298DE
:104E9000049900EB830004B003F058BA84B00DF11C
:104EA000100C0CE907000298049900EB830004B091
:104EB00003F04CBA84B00DF1100C0CE90700029815
:104EC00010EE101A00EB830004B003F03FBA00BFED
:104ED00000B583B0019003F085F9019800230370B9
:104EE00003B000BD84B00DF1100C0CE9070051F8BF
:104EF000230004B0704700BF84B00DF1100C0CE922
:104F0000070051F8230004B0704700BF84B00DF1D2
:104F1000100C0CE9070001EB830292ED000A04B0CB
:104F2000704700BF08B590ED167AD0ED186A1C4B9B
:104F3000F7EE007A2DED048B37EEC77A9FED199AC4
:104F4000D0ED178A1968184827EE097A77EEE88AB3
:104F500037EEE68AFCEEC77A17EE902AC9B903F05D
:104F600073FF1148012168EE898AFCEEE87A17EE9A
:104F7000902A03F069FF68EE097ABDEC048BFCEE21
:104F8000E77ABDE80840084817EE902A022103F0AE
:104F90005BBF012103F058FF03480021E3E700BF96
:104FA000D83900200000FA44002C014070B55C4E56
:104FB00034688CB00546002C40F0A2802146594848
:104FC00002F0EAFD0346AB605748214602F0E4FDDB
:104FD00003465448EB60022102F0D0FD5348022101
:104FE00002F0CCFD40F6010401E0013C72D04D48D6
:104FF000042102F0E5FD0028F7D040F6010401E0AD
:10500000013C67D04948042102F0DAFD0028F7D0BE
:105010004448042102F0DAFD4448042102F0D6FDA0
:105020000021424802F0B8FDD5F89820AB6895ED14
:105030001C6AD5F89C409FED3E7A286107EE900AE5
:105040009B1AF8EEE76A07EE903AF8EEE77AEB681B
:1050500067EE867A012285F8F5221B1BF169C5ED02
:10506000067ACDED077A66EE876AB1EE677A07EECB
:10507000903AF8EEE77AD5F8F822019167EE867A51
:10508000013237EE677A00210A9140F201100021C7
:10509000C5F8F822274AADF82C008DF82E10C5ED82
:1050A000086ACDED096AC5ED077A85ED057A546E7B
:1050B000936E03930294D46E136F059306A901A80F
:1050C00004948DED067ACDED087AFCF757F818BBFD
:1050D0000CB070BD1348042102F078FD1348042180
:1050E00002F074FDD5F8FC3200220133802085F8EF
:1050F000F522C5F8FC320CB0BDE87040FCF728B8CA
:105100000021094802F048FD0346AB600548002134
:1051100002F042FD03465CE7FCF71AF80CB070BDE4
:10512000D83900200024014000280140003C014003
:105130001833533CD83D002000B52DED028B87B0CD
:10514000CDE90210CDED050A8DED041A0192F0EEC5
:10515000408A01F085FBB0EE408AB0EE680A01F0AB
:1051600059FBF6EE007A67EEC06ADFED175A9FED45
:10517000176A9DED041ADDED050A03980299019A5C
:1051800067EEC87AB0EE667AA8EE257AE8EE656A30
:10519000F0EE675AE0EE065AE0EE467A21EE477AE4
:1051A00021EE400A21EE661AA8EE200AA5EEA07AAA
:1051B000A7EEA01A80ED000A81ED007A82ED001AB8
:1051C00007B0BDEC028B00BDD7B35DBFD7B35D3F69
:1051D00000B52DED028B87B0CDE90110CDED050AAC
:1051E0008DED041ACDED031AF0EE408A01F038FB84
:1051F000B0EE408AB0EE680A01F00CFBB6EE007A21
:1052000067EE486A27EE407ADFED185A9FED186A7C
:105210009DED041ADDED050ADDED031A02980199F2
:10522000F0EE667AB0EE475AA8EE065AE0EE257A1E
:10523000A8EE467A67EE817A21EE451AE0EE656ABD
:10524000E8EE207AA0EE601AE6EEA17AA7EE611AE7
:105250009FED086A67EE867A21EE061AC0ED007AA5
:1052600081ED001A07B0BDEC028B00BDD7B35D3FE6
:10527000D7B35DBFABAA2A3F00B52DED0A8BB0EEC8
:10528000609A85B0F0EE418AF0EE40AAB0EE611A65
:10529000F0EE680AB0EE490AB0EE618A0192CDE9FB
:1052A000021001F059FAB0EE481AF0EE680AB0EEBA
:1052B00040AAB0EE490A01F037FA3AEE00AAF6EE3B
:1052C000009AAAEE699ADFED24BA9FED24CA9FEDF9
:1052D00024BA29EE299AF0EE4C0A29EE2B9A89EE8F
:1052E0002A0A9FED209A30EE0B0A01F00DFAF0EE3B
:1052F000490A01F011FAEAEE698A039880ED000A82
:1053000068EEA98AF0EE4C0A68EEAB8A88EEAA0A2B
:1053100030EE0B0A01F0F8F9F0EE490A01F0FCF961
:10532000AAEE698A029981ED000A28EE298AF0EE38
:105330004C0A28EE2B8A88EE2A0A30EE0B0A01F07E
:10534000E3F9F0EE490A01F0E7F9019A82ED000A6B
:1053500005B0BDEC0A8B00BD3333933F0000000065
:10536000D7A3F03ED7A3703FF8B54FF07C538365C9
:10537000C36503660446FFF7D5FD00264FF47A7532
:1053800037462046FFF712FED4E90223013D1744B9
:105390001E44F6D1064B83FB0721FA17C2EBA1127C
:1053A00083FB0631F317C3EBA113C4E92623F8BD31
:1053B000D34D6210F8B504210546144802F006FCEE
:1053C0001348042102F002FC002426462746284602
:1053D000FFF7ECFD95F8F532A3B1072C13DDD5E905
:1053E00002230134482C17441E44F0D1002FB8BFCB
:1053F0003F37002EB8BF3F36BF11B611C5F89870C1
:10540000C5F89C60F8BD0134E1E700BF002401400D
:10541000003C01402DE9F843344A354BDFED356A55
:10542000DFED355A2DED028BC267C0F8802093ED79
:10543000027A324AC0F8842066EEC76AF7EE007A34
:10544000B0EE676AA6EEA56A2D4ADFED2E6A1268F5
:10545000C0F8C82027EE267AC7EE866A80ED1D7A4E
:1054600077EEE67A80ED1E7AC0ED227A9FED267AFD
:10547000D3ED037AF4EEC77AF1EE10FA33D8234B6A
:10548000DFF89C90DFED228A9FED228A224F03678E
:105490004FF0804800F1F4050024002607EE904A02
:1054A000F8EEE77A013467EEA87AC7EE887A17EE4D
:1054B000900AFAF7F9FF41EC100B07F061FF424642
:1054C00051EC100B4B46FBF747F832463B46FAF7D8
:1054D0008DFEFBF739FB802C45F8040BDED1BDECCB
:1054E000028BBDE8F8830D4BCAE700BFEC51383D95
:1054F000D83D0020D1CB0B38DB0FC940BD74933BA6
:10550000D839002017B7D13800002042FFFFA43C53
:10551000000000BC6F12033D0000F03FFFFF243D80
:105520003333F33F10B54FF47A7204460021164826
:1055300003F08AFC14484FF47A72012103F084FCD2
:105540004FF47A721048022103F07EFC00230022FF
:10555000C4F8A430C4F8A830C4F8AC30C4F8B030F3
:10556000E36323646361A361E3616364C4F890301F
:10557000C4F88C3063652365C4F8E830C4F8EC20C7
:10558000C4F8002310BD00BF002C014090ED397A13
:10559000D0ED387A90ED3A0ADFED1E0A77EEC77A41
:1055A00090ED217A10B5A7EE270A82B0044680ED6F
:1055B0003A0A01F0B1F8184BD3ED060AF1EE600A91
:1055C00001F0A2F894ED3C7A84ED3A0A60EE407A5C
:1055D00084ED290AE7EE077AF5EE407AF1EE10FA4B
:1055E00011D4F1EEE70A94ED2A0ACDED010A01F09B
:1055F00093F8DDED010AF1EE600A01F085F884ED23
:105600002A0A02B010BDB0EE670A07F009FFF0EEFB
:10561000400AE8E700000000D83D002010B52DED5D
:10562000028B91ED170ACB68D1F864C00A6ED0EDF9
:10563000071A90ED061AD0ED050A044682B000F173
:10564000400180ED0B0A8362C0F834C002633C3035
:10565000FFF7BEFD9FEDA05A94ED087ADFED9F5A4B
:10566000D4ED097A94ED106AD4ED0F6A94ED114AE5
:10567000D4ED124A9A4B27EE057A26EE056AA7EE7C
:10568000A57ADFED987A84ED097A66EE856A67EE91
:10569000277A9FED955A9FED957AA4EE256AE4EE60
:1056A000A56A67EE857ADFED925A94ED2B5A84ED68
:1056B000116A67EEA57AD4ED295AC4ED387A75EEF1
:1056C000C57AC4ED126A93ED030AF4EEC77AF1EEDF
:1056D00010FA84ED3C0A00F3F080DFED866AF4EE08
:1056E000E67AF1EE10FA00F1E28094ED2C6AD4ED46
:1056F0002A7ADFED7E6AC4ED2B5A37EEC67AB4EE15
:10570000E67AF1EE10FA00F3D5809FED7A5AB4EE06
:10571000C57AF1EE10FA00F1C78004F1A801C4EDDA
:10572000295A04F1A400C4ED2C7AC1ED007A01F0ED
:105730002BF8D4ED0F6AD4ED298A94ED1D7A94EDFF
:10574000230ADFED6D7A94ED2A8AD4ED380A78EEDB
:10575000E68AA7EE280A94ED107A30EE270A38EE92
:10576000478A84ED140A00F0D7FFD4ED380AF1EE31
:10577000600A00F0C9FFD4ED1F6A94ED1D7AD4EDE4
:10578000237AD4ED380A84ED140A27EE267AE7EE60
:10579000287AB0EE670AC4ED237A00F0BDFFD4ED9D
:1057A000380AF1EE600A00F0AFFFD4ED147AD4EDC0
:1057B000380A84ED230A67EEE77AE0EEA07AF5EE88
:1057C000407AF1EE10FA7BD4F1EEE78A94ED240AE8
:1057D000D4ED1E7AD4ED206AB0EE407AA7EE887A36
:1057E00067EEA67ADFED446AA7EE880A77EE267A9E
:1057F00084ED240AC4ED157A00F08EFFD4ED380A4A
:10580000F1EE600A00F080FFF0EE406A94ED150AB8
:1058100094ED147AC4ED246A60EE007AF0EE680A22
:10582000E7EE077AB1EEE77A84ED397A00F074FF9B
:10583000F1EE680A00F068FFF0EE407A04F15401DE
:1058400094ED380AC4ED157A04F1500000F09CFF85
:10585000DFED2A7A94ED0D7A94ED0B0A94ED151A8A
:10586000D4ED140AA7EE270A04F16C0204F16801D2
:1058700004F16400FFF760FC04F15800D4ED1B1A3A
:1058800094ED1A1AD4ED190A94ED380A04F1600265
:1058900004F15C01FFF7F0FC204602B0BDEC028B86
:1058A000BDE81040FFF73EBB76EE667A35E775EE51
:1058B000475A1AE776EE267A2FE775EE075A14E76D
:1058C000B0EE670ACDED010A07F0AAFDDDED010A91
:1058D000F0EE408A7AE700BFCDCCCC3D6666663FED
:1058E000D83D00203333933FD7A3703F0AD7233CE2
:1058F0003ACD133F0AD723BC00000000BAB151389B
:1059000000B5D0F80033D0ED337A90ED0A7A42F248
:105910002732934277EEC77A83B042D807EE103A27
:10592000DFED216AB8EEC77A87EE266A1F4B019039
:10593000D0ED356A90ED370A90ED3C7AA6EEA70AD5
:10594000D0ED0C6AD0ED347AF1EE040A77EEE67A07
:10595000D0ED366A37EE607AA6EEA70AE7EE060AC1
:10596000D3ED0E7ACDED000A80EE270A00F0D4FECA
:10597000DDED000AF1EE600A00F0C6FE0198D0F8F5
:10598000003380ED2A0A42F2273293424FF00001A1
:1059900098BF0133C0F8A41098BFC0F8003303B01B
:1059A00000BDB7EE006AC1E700A00C46D83D00205C
:1059B00000230022C0F8DC30C0F8D430C0F8D83062
:1059C000C0F8CC30C0F8D030C0F8A830C0F8002300
:1059D000704700BF10B54FF4805182B00A4802F002
:1059E000F7FD0446FBF7BCFB084A094B094992F84E
:1059F000F52293F8DD3289880092221E18BF012219
:105A000001F0E8FC02B010BD00080140BC360020E7
:105A1000983300208C33002008B50B4801F03EFB82
:105A200070B1094801F06EFB38B1074801F0CEFCB7
:105A3000054801F00FFC013808BD034801F0C6FC21
:105A40004FF0FF3008BD00BFC039002010B503780B
:105A50000446052B2AD8DFE803F027032A29272745
:105A60001B4B1A8918685968FEF752FE194B93F8B8
:105A70002220CAB91849194A0968916203F50053EE
:105A8000174893F848CFD3F84C3F1649C0F800C0E8
:105A90004FF400724361183005F096F8114912482E
:105AA0004FF4007205F090F80123E37010BD084B2D
:105AB0000122C270186859681A89FEF729FE0B483E
:105AC000FFF730FDBDE810400848FFF771BF00BF89
:105AD0008C3300201002002054310020D83D0020DB
